{"abi":[{"inputs":[{"internalType":"string","name":"subject","type":"string"},{"internalType":"string","name":"descr","type":"string"},{"internalType":"string[]","name":"proposalNames","type":"string[]"},{"internalType":"uint256","name":"duration","type":"uint256"}],"name":"createPrivatePoll","outputs":[],"stateMutability":"nonpayable","type":"function"},{"inputs":[{"internalType":"string","name":"subject","type":"string"},{"internalType":"string","name":"descr","type":"string"},{"internalType":"string[]","name":"proposalNames","type":"string[]"},{"internalType":"uint256","name":"duration","type":"uint256"}],"name":"createPublicPoll","outputs":[],"stateMutability":"nonpayable","type":"function"},{"inputs":[{"internalType":"uint256","name":"","type":"uint256"}],"name":"creators","outputs":[{"internalType":"address","name":"","type":"address"}],"stateMutability":"view","type":"function"},{"inputs":[],"name":"getActivePolls","outputs":[{"internalType":"contract SimplePoll[]","name":"","type":"address[]"}],"stateMutability":"view","type":"function"},{"inputs":[],"name":"getNonActivePollResults","outputs":[{"components":[{"internalType":"contract SimplePoll","name":"poll","type":"address"},{"components":[{"internalType":"string","name":"name","type":"string"},{"internalType":"uint256","name":"voteCount","type":"uint256"}],"internalType":"struct SharedStructs.Proposal[]","name":"proposals","type":"tuple[]"}],"internalType":"struct SharedStructs.Result[]","name":"","type":"tuple[]"}],"stateMutability":"view","type":"function"},{"inputs":[{"internalType":"address","name":"","type":"address"},{"internalType":"address","name":"","type":"address"},{"internalType":"address","name":"","type":"address"}],"name":"hasRated","outputs":[{"internalType":"bool","name":"","type":"bool"}],"stateMutability":"view","type":"function"},{"inputs":[{"internalType":"uint256","name":"","type":"uint256"}],"name":"polls","outputs":[{"internalType":"contract SimplePoll","name":"","type":"address"}],"stateMutability":"view","type":"function"},{"inputs":[{"internalType":"address","name":"_poll","type":"address"},{"internalType":"uint8","name":"_mark","type":"uint8"}],"name":"rate","outputs":[],"stateMutability":"nonpayable","type":"function"},{"inputs":[{"internalType":"address","name":"","type":"address"}],"name":"ratings","outputs":[{"internalType":"bool","name":"active","type":"bool"},{"internalType":"uint256","name":"totalRate","type":"uint256"},{"internalType":"uint256","name":"rateNumber","type":"uint256"}],"stateMutability":"view","type":"function"}],"devdoc":{"kind":"dev","methods":{},"version":1},"evm":{"assembly":"    /* \"Polls.sol\":104:2929  contract Polls {... */\n  mstore(0x40, 0x80)\n  callvalue\n  dup1\n  iszero\n  tag_1\n  jumpi\n  0x00\n  dup1\n  revert\ntag_1:\n  pop\n  dataSize(sub_0)\n  dup1\n  dataOffset(sub_0)\n  0x00\n  codecopy\n  0x00\n  return\nstop\n\nsub_0: assembly {\n        /* \"Polls.sol\":104:2929  contract Polls {... */\n      mstore(0x40, 0x80)\n      callvalue\n      dup1\n      iszero\n      tag_1\n      jumpi\n      0x00\n      dup1\n      revert\n    tag_1:\n      pop\n      jumpi(tag_2, lt(calldatasize, 0x04))\n      shr(0xe0, calldataload(0x00))\n      dup1\n      0x939c442e\n      gt\n      tag_12\n      jumpi\n      dup1\n      0x939c442e\n      eq\n      tag_7\n      jumpi\n      dup1\n      0x9e01dfbb\n      eq\n      tag_8\n      jumpi\n      dup1\n      0xac2f0074\n      eq\n      tag_9\n      jumpi\n      dup1\n      0xcd53d08e\n      eq\n      tag_10\n      jumpi\n      dup1\n      0xf81cd4b0\n      eq\n      tag_11\n      jumpi\n      jump(tag_2)\n    tag_12:\n      dup1\n      0x3a5ed893\n      eq\n      tag_3\n      jumpi\n      dup1\n      0x63a9492f\n      eq\n      tag_4\n      jumpi\n      dup1\n      0x77b085a2\n      eq\n      tag_5\n      jumpi\n      dup1\n      0x791acbb7\n      eq\n      tag_6\n      jumpi\n    tag_2:\n      0x00\n      dup1\n      revert\n        /* \"Polls.sol\":1180:1484  function createPublicPoll(string memory subject, string memory descr, string[] memory proposalNames, uint duration) external {... */\n    tag_3:\n      tag_13\n      0x04\n      dup1\n      calldatasize\n      sub\n      dup2\n      add\n      swap1\n      tag_14\n      swap2\n      swap1\n      tag_15\n      jump\t// in\n    tag_14:\n      tag_16\n      jump\t// in\n    tag_13:\n      stop\n        /* \"Polls.sol\":1694:2049  function getActivePolls() external view returns(SimplePoll[] memory) {... */\n    tag_4:\n      tag_17\n      tag_18\n      jump\t// in\n    tag_17:\n      mload(0x40)\n      tag_19\n      swap2\n      swap1\n      tag_20\n      jump\t// in\n    tag_19:\n      mload(0x40)\n      dup1\n      swap2\n      sub\n      swap1\n      return\n        /* \"Polls.sol\":2057:2602  function getNonActivePollResults() external view returns(SharedStructs.Result[] memory) {... */\n    tag_5:\n      tag_21\n      tag_22\n      jump\t// in\n    tag_21:\n      mload(0x40)\n      tag_23\n      swap2\n      swap1\n      tag_24\n      jump\t// in\n    tag_23:\n      mload(0x40)\n      dup1\n      swap2\n      sub\n      swap1\n      return\n        /* \"Polls.sol\":253:334  mapping(address => mapping(address => mapping (address => bool))) public hasRated */\n    tag_6:\n      tag_25\n      0x04\n      dup1\n      calldatasize\n      sub\n      dup2\n      add\n      swap1\n      tag_26\n      swap2\n      swap1\n      tag_27\n      jump\t// in\n    tag_26:\n      tag_28\n      jump\t// in\n    tag_25:\n      mload(0x40)\n      tag_29\n      swap2\n      swap1\n      tag_30\n      jump\t// in\n    tag_29:\n      mload(0x40)\n      dup1\n      swap2\n      sub\n      swap1\n      return\n        /* \"Polls.sol\":863:1172  function createPrivatePoll(string memory subject, string memory descr, string[] memory proposalNames, uint duration) external {... */\n    tag_7:\n      tag_31\n      0x04\n      dup1\n      calldatasize\n      sub\n      dup2\n      add\n      swap1\n      tag_32\n      swap2\n      swap1\n      tag_15\n      jump\t// in\n    tag_32:\n      tag_33\n      jump\t// in\n    tag_31:\n      stop\n        /* \"Polls.sol\":190:246  mapping(address => SharedStructs.Creator) public ratings */\n    tag_8:\n      tag_34\n      0x04\n      dup1\n      calldatasize\n      sub\n      dup2\n      add\n      swap1\n      tag_35\n      swap2\n      swap1\n      tag_36\n      jump\t// in\n    tag_35:\n      tag_37\n      jump\t// in\n    tag_34:\n      mload(0x40)\n      tag_38\n      swap4\n      swap3\n      swap2\n      swap1\n      tag_39\n      jump\t// in\n    tag_38:\n      mload(0x40)\n      dup1\n      swap2\n      sub\n      swap1\n      return\n        /* \"Polls.sol\":126:151  SimplePoll[] public polls */\n    tag_9:\n      tag_40\n      0x04\n      dup1\n      calldatasize\n      sub\n      dup2\n      add\n      swap1\n      tag_41\n      swap2\n      swap1\n      tag_42\n      jump\t// in\n    tag_41:\n      tag_43\n      jump\t// in\n    tag_40:\n      mload(0x40)\n      tag_44\n      swap2\n      swap1\n      tag_45\n      jump\t// in\n    tag_44:\n      mload(0x40)\n      dup1\n      swap2\n      sub\n      swap1\n      return\n        /* \"Polls.sol\":158:183  address[] public creators */\n    tag_10:\n      tag_46\n      0x04\n      dup1\n      calldatasize\n      sub\n      dup2\n      add\n      swap1\n      tag_47\n      swap2\n      swap1\n      tag_42\n      jump\t// in\n    tag_47:\n      tag_48\n      jump\t// in\n    tag_46:\n      mload(0x40)\n      tag_49\n      swap2\n      swap1\n      tag_50\n      jump\t// in\n    tag_49:\n      mload(0x40)\n      dup1\n      swap2\n      sub\n      swap1\n      return\n        /* \"Polls.sol\":2610:2926  function rate(address _poll, uint8 _mark) external canRate(_poll) {... */\n    tag_11:\n      tag_51\n      0x04\n      dup1\n      calldatasize\n      sub\n      dup2\n      add\n      swap1\n      tag_52\n      swap2\n      swap1\n      tag_53\n      jump\t// in\n    tag_52:\n      tag_54\n      jump\t// in\n    tag_51:\n      stop\n        /* \"Polls.sol\":1180:1484  function createPublicPoll(string memory subject, string memory descr, string[] memory proposalNames, uint duration) external {... */\n    tag_16:\n        /* \"Polls.sol\":1316:1337  PublicPoll publicPoll */\n      0x00\n        /* \"Polls.sol\":1355:1365  msg.sender */\n      caller\n        /* \"Polls.sol\":1367:1374  subject */\n      dup6\n        /* \"Polls.sol\":1376:1381  descr */\n      dup6\n        /* \"Polls.sol\":1383:1396  proposalNames */\n      dup6\n        /* \"Polls.sol\":1398:1406  duration */\n      dup6\n        /* \"Polls.sol\":1340:1407  new PublicPoll(msg.sender, subject, descr, proposalNames, duration) */\n      mload(0x40)\n      tag_56\n      swap1\n      tag_57\n      jump\t// in\n    tag_56:\n      tag_58\n      swap6\n      swap5\n      swap4\n      swap3\n      swap2\n      swap1\n      tag_59\n      jump\t// in\n    tag_58:\n      mload(0x40)\n      dup1\n      swap2\n      sub\n      swap1\n      0x00\n      create\n      dup1\n      iszero\n      dup1\n      iszero\n      tag_60\n      jumpi\n      returndatasize\n      0x00\n      dup1\n      returndatacopy\n      revert(0x00, returndatasize)\n    tag_60:\n      pop\n        /* \"Polls.sol\":1316:1407  PublicPoll publicPoll = new PublicPoll(msg.sender, subject, descr, proposalNames, duration) */\n      swap1\n      pop\n        /* \"Polls.sol\":1418:1423  polls */\n      0x00\n        /* \"Polls.sol\":1429:1439  publicPoll */\n      dup2\n        /* \"Polls.sol\":1418:1440  polls.push(publicPoll) */\n      swap1\n      dup1\n      0x01\n      dup2\n      sload\n      add\n      dup1\n      dup3\n      sstore\n      dup1\n      swap2\n      pop\n      pop\n      0x01\n      swap1\n      sub\n      swap1\n      0x00\n      mstore\n      keccak256(0x00, 0x20)\n      add\n      0x00\n      swap1\n      swap2\n      swap1\n      swap2\n      swap1\n      swap2\n      0x0100\n      exp\n      dup2\n      sload\n      dup2\n      0xffffffffffffffffffffffffffffffffffffffff\n      mul\n      not\n      and\n      swap1\n      dup4\n      0xffffffffffffffffffffffffffffffffffffffff\n      and\n      mul\n      or\n      swap1\n      sstore\n      pop\n        /* \"Polls.sol\":1451:1476  tryAddCreator(msg.sender) */\n      tag_62\n        /* \"Polls.sol\":1465:1475  msg.sender */\n      caller\n        /* \"Polls.sol\":1451:1464  tryAddCreator */\n      tag_63\n        /* \"Polls.sol\":1451:1476  tryAddCreator(msg.sender) */\n      jump\t// in\n    tag_62:\n        /* \"Polls.sol\":1305:1484  {... */\n      pop\n        /* \"Polls.sol\":1180:1484  function createPublicPoll(string memory subject, string memory descr, string[] memory proposalNames, uint duration) external {... */\n      pop\n      pop\n      pop\n      pop\n      jump\t// out\n        /* \"Polls.sol\":1694:2049  function getActivePolls() external view returns(SimplePoll[] memory) {... */\n    tag_18:\n        /* \"Polls.sol\":1742:1761  SimplePoll[] memory */\n      0x60\n        /* \"Polls.sol\":1774:1806  SimplePoll[] memory _activePolls */\n      0x00\n        /* \"Polls.sol\":1826:1831  polls */\n      dup1\n        /* \"Polls.sol\":1826:1838  polls.length */\n      dup1\n      sload\n      swap1\n      pop\n        /* \"Polls.sol\":1809:1839  new SimplePoll[](polls.length) */\n      0xffffffffffffffff\n      dup2\n      gt\n      iszero\n      tag_65\n      jumpi\n      tag_66\n      tag_67\n      jump\t// in\n    tag_66:\n    tag_65:\n      mload(0x40)\n      swap1\n      dup1\n      dup3\n      mstore\n      dup1\n      0x20\n      mul\n      0x20\n      add\n      dup3\n      add\n      0x40\n      mstore\n      dup1\n      iszero\n      tag_68\n      jumpi\n      dup2\n      0x20\n      add\n      0x20\n      dup3\n      mul\n      dup1\n      calldatasize\n      dup4\n      calldatacopy\n      dup1\n      dup3\n      add\n      swap2\n      pop\n      pop\n      swap1\n      pop\n    tag_68:\n      pop\n        /* \"Polls.sol\":1774:1839  SimplePoll[] memory _activePolls = new SimplePoll[](polls.length) */\n      swap1\n      pop\n        /* \"Polls.sol\":1855:1861  uint i */\n      0x00\n        /* \"Polls.sol\":1850:2012  for (uint i = 0; i < polls.length; i++) {... */\n    tag_69:\n        /* \"Polls.sol\":1871:1876  polls */\n      0x00\n        /* \"Polls.sol\":1871:1883  polls.length */\n      dup1\n      sload\n      swap1\n      pop\n        /* \"Polls.sol\":1867:1868  i */\n      dup2\n        /* \"Polls.sol\":1867:1883  i < polls.length */\n      lt\n        /* \"Polls.sol\":1850:2012  for (uint i = 0; i < polls.length; i++) {... */\n      iszero\n      tag_70\n      jumpi\n        /* \"Polls.sol\":1910:1915  polls */\n      0x00\n        /* \"Polls.sol\":1916:1917  i */\n      dup2\n        /* \"Polls.sol\":1910:1918  polls[i] */\n      dup2\n      sload\n      dup2\n      lt\n      tag_72\n      jumpi\n      tag_73\n      tag_74\n      jump\t// in\n    tag_73:\n    tag_72:\n      swap1\n      0x00\n      mstore\n      keccak256(0x00, 0x20)\n      add\n      0x00\n      swap1\n      sload\n      swap1\n      0x0100\n      exp\n      swap1\n      div\n      0xffffffffffffffffffffffffffffffffffffffff\n      and\n        /* \"Polls.sol\":1910:1936  polls[i].isDeadlineExpired */\n      0xffffffffffffffffffffffffffffffffffffffff\n      and\n      0x9145a7fc\n        /* \"Polls.sol\":1910:1938  polls[i].isDeadlineExpired() */\n      mload(0x40)\n      dup2\n      0xffffffff\n      and\n      0xe0\n      shl\n      dup2\n      mstore\n      0x04\n      add\n      0x20\n      mload(0x40)\n      dup1\n      dup4\n      sub\n      dup2\n      dup7\n      gas\n      staticcall\n      iszero\n      dup1\n      iszero\n      tag_77\n      jumpi\n      returndatasize\n      0x00\n      dup1\n      returndatacopy\n      revert(0x00, returndatasize)\n    tag_77:\n      pop\n      pop\n      pop\n      pop\n      mload(0x40)\n      returndatasize\n      not(0x1f)\n      0x1f\n      dup3\n      add\n      and\n      dup3\n      add\n      dup1\n      0x40\n      mstore\n      pop\n      dup2\n      add\n      swap1\n      tag_78\n      swap2\n      swap1\n      tag_79\n      jump\t// in\n    tag_78:\n        /* \"Polls.sol\":1905:2001  if (!polls[i].isDeadlineExpired()) {... */\n      tag_80\n      jumpi\n        /* \"Polls.sol\":1977:1982  polls */\n      0x00\n        /* \"Polls.sol\":1983:1984  i */\n      dup2\n        /* \"Polls.sol\":1977:1985  polls[i] */\n      dup2\n      sload\n      dup2\n      lt\n      tag_81\n      jumpi\n      tag_82\n      tag_74\n      jump\t// in\n    tag_82:\n    tag_81:\n      swap1\n      0x00\n      mstore\n      keccak256(0x00, 0x20)\n      add\n      0x00\n      swap1\n      sload\n      swap1\n      0x0100\n      exp\n      swap1\n      div\n      0xffffffffffffffffffffffffffffffffffffffff\n      and\n        /* \"Polls.sol\":1959:1971  _activePolls */\n      dup3\n        /* \"Polls.sol\":1972:1973  i */\n      dup3\n        /* \"Polls.sol\":1959:1974  _activePolls[i] */\n      dup2\n      mload\n      dup2\n      lt\n      tag_84\n      jumpi\n      tag_85\n      tag_74\n      jump\t// in\n    tag_85:\n    tag_84:\n      0x20\n      mul\n      0x20\n      add\n      add\n        /* \"Polls.sol\":1959:1985  _activePolls[i] = polls[i] */\n      swap1\n      0xffffffffffffffffffffffffffffffffffffffff\n      and\n      swap1\n      dup2\n      0xffffffffffffffffffffffffffffffffffffffff\n      and\n      dup2\n      mstore\n      pop\n      pop\n        /* \"Polls.sol\":1905:2001  if (!polls[i].isDeadlineExpired()) {... */\n    tag_80:\n        /* \"Polls.sol\":1885:1888  i++ */\n      dup1\n      dup1\n      tag_86\n      swap1\n      tag_87\n      jump\t// in\n    tag_86:\n      swap2\n      pop\n      pop\n        /* \"Polls.sol\":1850:2012  for (uint i = 0; i < polls.length; i++) {... */\n      jump(tag_69)\n    tag_70:\n      pop\n        /* \"Polls.sol\":2029:2041  _activePolls */\n      dup1\n        /* \"Polls.sol\":2022:2041  return _activePolls */\n      swap2\n      pop\n      pop\n        /* \"Polls.sol\":1694:2049  function getActivePolls() external view returns(SimplePoll[] memory) {... */\n      swap1\n      jump\t// out\n        /* \"Polls.sol\":2057:2602  function getNonActivePollResults() external view returns(SharedStructs.Result[] memory) {... */\n    tag_22:\n        /* \"Polls.sol\":2114:2143  SharedStructs.Result[] memory */\n      0x60\n        /* \"Polls.sol\":2156:2207  SharedStructs.Result[] memory _nonActivePollResults */\n      0x00\n        /* \"Polls.sol\":2237:2242  polls */\n      dup1\n        /* \"Polls.sol\":2237:2249  polls.length */\n      dup1\n      sload\n      swap1\n      pop\n        /* \"Polls.sol\":2210:2250  new SharedStructs.Result[](polls.length) */\n      0xffffffffffffffff\n      dup2\n      gt\n      iszero\n      tag_89\n      jumpi\n      tag_90\n      tag_67\n      jump\t// in\n    tag_90:\n    tag_89:\n      mload(0x40)\n      swap1\n      dup1\n      dup3\n      mstore\n      dup1\n      0x20\n      mul\n      0x20\n      add\n      dup3\n      add\n      0x40\n      mstore\n      dup1\n      iszero\n      tag_91\n      jumpi\n      dup2\n      0x20\n      add\n    tag_92:\n      tag_93\n      tag_94\n      jump\t// in\n    tag_93:\n      dup2\n      mstore\n      0x20\n      add\n      swap1\n      0x01\n      swap1\n      sub\n      swap1\n      dup2\n      tag_92\n      jumpi\n      swap1\n      pop\n    tag_91:\n      pop\n        /* \"Polls.sol\":2156:2250  SharedStructs.Result[] memory _nonActivePollResults = new SharedStructs.Result[](polls.length) */\n      swap1\n      pop\n        /* \"Polls.sol\":2266:2272  uint i */\n      0x00\n        /* \"Polls.sol\":2261:2556  for (uint i = 0; i < polls.length; i++) {... */\n    tag_95:\n        /* \"Polls.sol\":2282:2287  polls */\n      0x00\n        /* \"Polls.sol\":2282:2294  polls.length */\n      dup1\n      sload\n      swap1\n      pop\n        /* \"Polls.sol\":2278:2279  i */\n      dup2\n        /* \"Polls.sol\":2278:2294  i < polls.length */\n      lt\n        /* \"Polls.sol\":2261:2556  for (uint i = 0; i < polls.length; i++) {... */\n      iszero\n      tag_96\n      jumpi\n        /* \"Polls.sol\":2320:2325  polls */\n      0x00\n        /* \"Polls.sol\":2326:2327  i */\n      dup2\n        /* \"Polls.sol\":2320:2328  polls[i] */\n      dup2\n      sload\n      dup2\n      lt\n      tag_98\n      jumpi\n      tag_99\n      tag_74\n      jump\t// in\n    tag_99:\n    tag_98:\n      swap1\n      0x00\n      mstore\n      keccak256(0x00, 0x20)\n      add\n      0x00\n      swap1\n      sload\n      swap1\n      0x0100\n      exp\n      swap1\n      div\n      0xffffffffffffffffffffffffffffffffffffffff\n      and\n        /* \"Polls.sol\":2320:2346  polls[i].isDeadlineExpired */\n      0xffffffffffffffffffffffffffffffffffffffff\n      and\n      0x9145a7fc\n        /* \"Polls.sol\":2320:2348  polls[i].isDeadlineExpired() */\n      mload(0x40)\n      dup2\n      0xffffffff\n      and\n      0xe0\n      shl\n      dup2\n      mstore\n      0x04\n      add\n      0x20\n      mload(0x40)\n      dup1\n      dup4\n      sub\n      dup2\n      dup7\n      gas\n      staticcall\n      iszero\n      dup1\n      iszero\n      tag_102\n      jumpi\n      returndatasize\n      0x00\n      dup1\n      returndatacopy\n      revert(0x00, returndatasize)\n    tag_102:\n      pop\n      pop\n      pop\n      pop\n      mload(0x40)\n      returndatasize\n      not(0x1f)\n      0x1f\n      dup3\n      add\n      and\n      dup3\n      add\n      dup1\n      0x40\n      mstore\n      pop\n      dup2\n      add\n      swap1\n      tag_103\n      swap2\n      swap1\n      tag_79\n      jump\t// in\n    tag_103:\n        /* \"Polls.sol\":2316:2545  if (polls[i].isDeadlineExpired()) {... */\n      iszero\n      tag_104\n      jumpi\n        /* \"Polls.sol\":2396:2529  SharedStructs.Result({... */\n      mload(0x40)\n      dup1\n      0x40\n      add\n      0x40\n      mstore\n      dup1\n        /* \"Polls.sol\":2446:2451  polls */\n      0x00\n        /* \"Polls.sol\":2452:2453  i */\n      dup4\n        /* \"Polls.sol\":2446:2454  polls[i] */\n      dup2\n      sload\n      dup2\n      lt\n      tag_105\n      jumpi\n      tag_106\n      tag_74\n      jump\t// in\n    tag_106:\n    tag_105:\n      swap1\n      0x00\n      mstore\n      keccak256(0x00, 0x20)\n      add\n      0x00\n      swap1\n      sload\n      swap1\n      0x0100\n      exp\n      swap1\n      div\n      0xffffffffffffffffffffffffffffffffffffffff\n      and\n        /* \"Polls.sol\":2396:2529  SharedStructs.Result({... */\n      0xffffffffffffffffffffffffffffffffffffffff\n      and\n      dup2\n      mstore\n      0x20\n      add\n        /* \"Polls.sol\":2488:2493  polls */\n      0x00\n        /* \"Polls.sol\":2494:2495  i */\n      dup4\n        /* \"Polls.sol\":2488:2496  polls[i] */\n      dup2\n      sload\n      dup2\n      lt\n      tag_108\n      jumpi\n      tag_109\n      tag_74\n      jump\t// in\n    tag_109:\n    tag_108:\n      swap1\n      0x00\n      mstore\n      keccak256(0x00, 0x20)\n      add\n      0x00\n      swap1\n      sload\n      swap1\n      0x0100\n      exp\n      swap1\n      div\n      0xffffffffffffffffffffffffffffffffffffffff\n      and\n        /* \"Polls.sol\":2488:2507  polls[i].getResults */\n      0xffffffffffffffffffffffffffffffffffffffff\n      and\n      0x4717f97c\n        /* \"Polls.sol\":2488:2509  polls[i].getResults() */\n      mload(0x40)\n      dup2\n      0xffffffff\n      and\n      0xe0\n      shl\n      dup2\n      mstore\n      0x04\n      add\n      0x00\n      mload(0x40)\n      dup1\n      dup4\n      sub\n      dup2\n      dup7\n      gas\n      staticcall\n      iszero\n      dup1\n      iszero\n      tag_112\n      jumpi\n      returndatasize\n      0x00\n      dup1\n      returndatacopy\n      revert(0x00, returndatasize)\n    tag_112:\n      pop\n      pop\n      pop\n      pop\n      mload(0x40)\n      returndatasize\n      0x00\n      dup3\n      returndatacopy\n      returndatasize\n      not(0x1f)\n      0x1f\n      dup3\n      add\n      and\n      dup3\n      add\n      dup1\n      0x40\n      mstore\n      pop\n      dup2\n      add\n      swap1\n      tag_113\n      swap2\n      swap1\n      tag_114\n      jump\t// in\n    tag_113:\n        /* \"Polls.sol\":2396:2529  SharedStructs.Result({... */\n      dup2\n      mstore\n      pop\n        /* \"Polls.sol\":2369:2390  _nonActivePollResults */\n      dup3\n        /* \"Polls.sol\":2391:2392  i */\n      dup3\n        /* \"Polls.sol\":2369:2393  _nonActivePollResults[i] */\n      dup2\n      mload\n      dup2\n      lt\n      tag_115\n      jumpi\n      tag_116\n      tag_74\n      jump\t// in\n    tag_116:\n    tag_115:\n      0x20\n      mul\n      0x20\n      add\n      add\n        /* \"Polls.sol\":2369:2529  _nonActivePollResults[i] = SharedStructs.Result({... */\n      dup2\n      swap1\n      mstore\n      pop\n        /* \"Polls.sol\":2316:2545  if (polls[i].isDeadlineExpired()) {... */\n    tag_104:\n        /* \"Polls.sol\":2296:2299  i++ */\n      dup1\n      dup1\n      tag_117\n      swap1\n      tag_87\n      jump\t// in\n    tag_117:\n      swap2\n      pop\n      pop\n        /* \"Polls.sol\":2261:2556  for (uint i = 0; i < polls.length; i++) {... */\n      jump(tag_95)\n    tag_96:\n      pop\n        /* \"Polls.sol\":2573:2594  _nonActivePollResults */\n      dup1\n        /* \"Polls.sol\":2566:2594  return _nonActivePollResults */\n      swap2\n      pop\n      pop\n        /* \"Polls.sol\":2057:2602  function getNonActivePollResults() external view returns(SharedStructs.Result[] memory) {... */\n      swap1\n      jump\t// out\n        /* \"Polls.sol\":253:334  mapping(address => mapping(address => mapping (address => bool))) public hasRated */\n    tag_28:\n      mstore(0x20, 0x03)\n      dup3\n      0x00\n      mstore\n      mstore(0x20, keccak256(0x00, 0x40))\n      dup2\n      0x00\n      mstore\n      mstore(0x20, keccak256(0x00, 0x40))\n      dup1\n      0x00\n      mstore\n      keccak256(0x00, 0x40)\n      0x00\n      swap3\n      pop\n      swap3\n      pop\n      pop\n      swap1\n      sload\n      swap1\n      0x0100\n      exp\n      swap1\n      div\n      0xff\n      and\n      dup2\n      jump\t// out\n        /* \"Polls.sol\":863:1172  function createPrivatePoll(string memory subject, string memory descr, string[] memory proposalNames, uint duration) external {... */\n    tag_33:\n        /* \"Polls.sol\":1000:1023  PrivatePoll privatePoll */\n      0x00\n        /* \"Polls.sol\":1042:1052  msg.sender */\n      caller\n        /* \"Polls.sol\":1054:1061  subject */\n      dup6\n        /* \"Polls.sol\":1063:1068  descr */\n      dup6\n        /* \"Polls.sol\":1070:1083  proposalNames */\n      dup6\n        /* \"Polls.sol\":1085:1093  duration */\n      dup6\n        /* \"Polls.sol\":1026:1094  new PrivatePoll(msg.sender, subject, descr, proposalNames, duration) */\n      mload(0x40)\n      tag_119\n      swap1\n      tag_120\n      jump\t// in\n    tag_119:\n      tag_121\n      swap6\n      swap5\n      swap4\n      swap3\n      swap2\n      swap1\n      tag_59\n      jump\t// in\n    tag_121:\n      mload(0x40)\n      dup1\n      swap2\n      sub\n      swap1\n      0x00\n      create\n      dup1\n      iszero\n      dup1\n      iszero\n      tag_122\n      jumpi\n      returndatasize\n      0x00\n      dup1\n      returndatacopy\n      revert(0x00, returndatasize)\n    tag_122:\n      pop\n        /* \"Polls.sol\":1000:1094  PrivatePoll privatePoll = new PrivatePoll(msg.sender, subject, descr, proposalNames, duration) */\n      swap1\n      pop\n        /* \"Polls.sol\":1105:1110  polls */\n      0x00\n        /* \"Polls.sol\":1116:1127  privatePoll */\n      dup2\n        /* \"Polls.sol\":1105:1128  polls.push(privatePoll) */\n      swap1\n      dup1\n      0x01\n      dup2\n      sload\n      add\n      dup1\n      dup3\n      sstore\n      dup1\n      swap2\n      pop\n      pop\n      0x01\n      swap1\n      sub\n      swap1\n      0x00\n      mstore\n      keccak256(0x00, 0x20)\n      add\n      0x00\n      swap1\n      swap2\n      swap1\n      swap2\n      swap1\n      swap2\n      0x0100\n      exp\n      dup2\n      sload\n      dup2\n      0xffffffffffffffffffffffffffffffffffffffff\n      mul\n      not\n      and\n      swap1\n      dup4\n      0xffffffffffffffffffffffffffffffffffffffff\n      and\n      mul\n      or\n      swap1\n      sstore\n      pop\n        /* \"Polls.sol\":1139:1164  tryAddCreator(msg.sender) */\n      tag_124\n        /* \"Polls.sol\":1153:1163  msg.sender */\n      caller\n        /* \"Polls.sol\":1139:1152  tryAddCreator */\n      tag_63\n        /* \"Polls.sol\":1139:1164  tryAddCreator(msg.sender) */\n      jump\t// in\n    tag_124:\n        /* \"Polls.sol\":989:1172  {... */\n      pop\n        /* \"Polls.sol\":863:1172  function createPrivatePoll(string memory subject, string memory descr, string[] memory proposalNames, uint duration) external {... */\n      pop\n      pop\n      pop\n      pop\n      jump\t// out\n        /* \"Polls.sol\":190:246  mapping(address => SharedStructs.Creator) public ratings */\n    tag_37:\n      mstore(0x20, 0x02)\n      dup1\n      0x00\n      mstore\n      keccak256(0x00, 0x40)\n      0x00\n      swap2\n      pop\n      swap1\n      pop\n      dup1\n      0x00\n      add\n      0x00\n      swap1\n      sload\n      swap1\n      0x0100\n      exp\n      swap1\n      div\n      0xff\n      and\n      swap1\n      dup1\n      0x01\n      add\n      sload\n      swap1\n      dup1\n      0x02\n      add\n      sload\n      swap1\n      pop\n      dup4\n      jump\t// out\n        /* \"Polls.sol\":126:151  SimplePoll[] public polls */\n    tag_43:\n      0x00\n      dup2\n      dup2\n      sload\n      dup2\n      lt\n      tag_125\n      jumpi\n      0x00\n      dup1\n      revert\n    tag_125:\n      swap1\n      0x00\n      mstore\n      keccak256(0x00, 0x20)\n      add\n      0x00\n      swap2\n      pop\n      sload\n      swap1\n      0x0100\n      exp\n      swap1\n      div\n      0xffffffffffffffffffffffffffffffffffffffff\n      and\n      dup2\n      jump\t// out\n        /* \"Polls.sol\":158:183  address[] public creators */\n    tag_48:\n      0x01\n      dup2\n      dup2\n      sload\n      dup2\n      lt\n      tag_127\n      jumpi\n      0x00\n      dup1\n      revert\n    tag_127:\n      swap1\n      0x00\n      mstore\n      keccak256(0x00, 0x20)\n      add\n      0x00\n      swap2\n      pop\n      sload\n      swap1\n      0x0100\n      exp\n      swap1\n      div\n      0xffffffffffffffffffffffffffffffffffffffff\n      and\n      dup2\n      jump\t// out\n        /* \"Polls.sol\":2610:2926  function rate(address _poll, uint8 _mark) external canRate(_poll) {... */\n    tag_54:\n        /* \"Polls.sol\":2669:2674  _poll */\n      dup2\n        /* \"Polls.sol\":394:414  canSenderRate(_poll) */\n      tag_130\n        /* \"Polls.sol\":408:413  _poll */\n      dup2\n        /* \"Polls.sol\":394:407  canSenderRate */\n      tag_131\n        /* \"Polls.sol\":394:414  canSenderRate(_poll) */\n      jump\t// in\n    tag_130:\n        /* \"Polls.sol\":386:432  require(canSenderRate(_poll), \"Can not rate.\") */\n      tag_132\n      jumpi\n      mload(0x40)\n      0x08c379a000000000000000000000000000000000000000000000000000000000\n      dup2\n      mstore\n      0x04\n      add\n      tag_133\n      swap1\n      tag_134\n      jump\t// in\n    tag_133:\n      mload(0x40)\n      dup1\n      swap2\n      sub\n      swap1\n      revert\n    tag_132:\n        /* \"Polls.sol\":2703:2704  0 */\n      0x00\n        /* \"Polls.sol\":2695:2700  _mark */\n      dup3\n        /* \"Polls.sol\":2695:2704  _mark > 0 */\n      0xff\n      and\n      gt\n        /* \"Polls.sol\":2695:2717  _mark > 0 && _mark < 6 */\n      dup1\n      iszero\n      tag_136\n      jumpi\n      pop\n        /* \"Polls.sol\":2716:2717  6 */\n      0x06\n        /* \"Polls.sol\":2708:2713  _mark */\n      dup3\n        /* \"Polls.sol\":2708:2717  _mark < 6 */\n      0xff\n      and\n      lt\n        /* \"Polls.sol\":2695:2717  _mark > 0 && _mark < 6 */\n    tag_136:\n        /* \"Polls.sol\":2687:2718  require(_mark > 0 && _mark < 6) */\n      tag_137\n      jumpi\n      0x00\n      dup1\n      revert\n    tag_137:\n        /* \"Polls.sol\":2788:2792  true */\n      0x01\n        /* \"Polls.sol\":2729:2737  hasRated */\n      0x03\n        /* \"Polls.sol\":2729:2766  hasRated[SimplePoll(_poll).creator()] */\n      0x00\n        /* \"Polls.sol\":2749:2754  _poll */\n      dup6\n        /* \"Polls.sol\":2738:2763  SimplePoll(_poll).creator */\n      0xffffffffffffffffffffffffffffffffffffffff\n      and\n      0x02d05d3f\n        /* \"Polls.sol\":2738:2765  SimplePoll(_poll).creator() */\n      mload(0x40)\n      dup2\n      0xffffffff\n      and\n      0xe0\n      shl\n      dup2\n      mstore\n      0x04\n      add\n      0x20\n      mload(0x40)\n      dup1\n      dup4\n      sub\n      dup2\n      dup7\n      gas\n      staticcall\n      iszero\n      dup1\n      iszero\n      tag_139\n      jumpi\n      returndatasize\n      0x00\n      dup1\n      returndatacopy\n      revert(0x00, returndatasize)\n    tag_139:\n      pop\n      pop\n      pop\n      pop\n      mload(0x40)\n      returndatasize\n      not(0x1f)\n      0x1f\n      dup3\n      add\n      and\n      dup3\n      add\n      dup1\n      0x40\n      mstore\n      pop\n      dup2\n      add\n      swap1\n      tag_140\n      swap2\n      swap1\n      tag_141\n      jump\t// in\n    tag_140:\n        /* \"Polls.sol\":2729:2766  hasRated[SimplePoll(_poll).creator()] */\n      0xffffffffffffffffffffffffffffffffffffffff\n      and\n      0xffffffffffffffffffffffffffffffffffffffff\n      and\n      dup2\n      mstore\n      0x20\n      add\n      swap1\n      dup2\n      mstore\n      0x20\n      add\n      0x00\n      keccak256\n        /* \"Polls.sol\":2729:2773  hasRated[SimplePoll(_poll).creator()][_poll] */\n      0x00\n        /* \"Polls.sol\":2767:2772  _poll */\n      dup6\n        /* \"Polls.sol\":2729:2773  hasRated[SimplePoll(_poll).creator()][_poll] */\n      0xffffffffffffffffffffffffffffffffffffffff\n      and\n      0xffffffffffffffffffffffffffffffffffffffff\n      and\n      dup2\n      mstore\n      0x20\n      add\n      swap1\n      dup2\n      mstore\n      0x20\n      add\n      0x00\n      keccak256\n        /* \"Polls.sol\":2729:2785  hasRated[SimplePoll(_poll).creator()][_poll][msg.sender] */\n      0x00\n        /* \"Polls.sol\":2774:2784  msg.sender */\n      caller\n        /* \"Polls.sol\":2729:2785  hasRated[SimplePoll(_poll).creator()][_poll][msg.sender] */\n      0xffffffffffffffffffffffffffffffffffffffff\n      and\n      0xffffffffffffffffffffffffffffffffffffffff\n      and\n      dup2\n      mstore\n      0x20\n      add\n      swap1\n      dup2\n      mstore\n      0x20\n      add\n      0x00\n      keccak256\n      0x00\n        /* \"Polls.sol\":2729:2792  hasRated[SimplePoll(_poll).creator()][_poll][msg.sender] = true */\n      0x0100\n      exp\n      dup2\n      sload\n      dup2\n      0xff\n      mul\n      not\n      and\n      swap1\n      dup4\n      iszero\n      iszero\n      mul\n      or\n      swap1\n      sstore\n      pop\n        /* \"Polls.sol\":2853:2858  _mark */\n      dup2\n        /* \"Polls.sol\":2803:2858  ratings[SimplePoll(_poll).creator()].totalRate += _mark */\n      0xff\n      and\n        /* \"Polls.sol\":2803:2810  ratings */\n      0x02\n        /* \"Polls.sol\":2803:2839  ratings[SimplePoll(_poll).creator()] */\n      0x00\n        /* \"Polls.sol\":2822:2827  _poll */\n      dup6\n        /* \"Polls.sol\":2811:2836  SimplePoll(_poll).creator */\n      0xffffffffffffffffffffffffffffffffffffffff\n      and\n      0x02d05d3f\n        /* \"Polls.sol\":2811:2838  SimplePoll(_poll).creator() */\n      mload(0x40)\n      dup2\n      0xffffffff\n      and\n      0xe0\n      shl\n      dup2\n      mstore\n      0x04\n      add\n      0x20\n      mload(0x40)\n      dup1\n      dup4\n      sub\n      dup2\n      dup7\n      gas\n      staticcall\n      iszero\n      dup1\n      iszero\n      tag_143\n      jumpi\n      returndatasize\n      0x00\n      dup1\n      returndatacopy\n      revert(0x00, returndatasize)\n    tag_143:\n      pop\n      pop\n      pop\n      pop\n      mload(0x40)\n      returndatasize\n      not(0x1f)\n      0x1f\n      dup3\n      add\n      and\n      dup3\n      add\n      dup1\n      0x40\n      mstore\n      pop\n      dup2\n      add\n      swap1\n      tag_144\n      swap2\n      swap1\n      tag_141\n      jump\t// in\n    tag_144:\n        /* \"Polls.sol\":2803:2839  ratings[SimplePoll(_poll).creator()] */\n      0xffffffffffffffffffffffffffffffffffffffff\n      and\n      0xffffffffffffffffffffffffffffffffffffffff\n      and\n      dup2\n      mstore\n      0x20\n      add\n      swap1\n      dup2\n      mstore\n      0x20\n      add\n      0x00\n      keccak256\n        /* \"Polls.sol\":2803:2849  ratings[SimplePoll(_poll).creator()].totalRate */\n      0x01\n      add\n      0x00\n        /* \"Polls.sol\":2803:2858  ratings[SimplePoll(_poll).creator()].totalRate += _mark */\n      dup3\n      dup3\n      sload\n      tag_145\n      swap2\n      swap1\n      tag_146\n      jump\t// in\n    tag_145:\n      swap3\n      pop\n      pop\n      dup2\n      swap1\n      sstore\n      pop\n        /* \"Polls.sol\":2869:2876  ratings */\n      0x02\n        /* \"Polls.sol\":2869:2905  ratings[SimplePoll(_poll).creator()] */\n      0x00\n        /* \"Polls.sol\":2888:2893  _poll */\n      dup5\n        /* \"Polls.sol\":2877:2902  SimplePoll(_poll).creator */\n      0xffffffffffffffffffffffffffffffffffffffff\n      and\n      0x02d05d3f\n        /* \"Polls.sol\":2877:2904  SimplePoll(_poll).creator() */\n      mload(0x40)\n      dup2\n      0xffffffff\n      and\n      0xe0\n      shl\n      dup2\n      mstore\n      0x04\n      add\n      0x20\n      mload(0x40)\n      dup1\n      dup4\n      sub\n      dup2\n      dup7\n      gas\n      staticcall\n      iszero\n      dup1\n      iszero\n      tag_148\n      jumpi\n      returndatasize\n      0x00\n      dup1\n      returndatacopy\n      revert(0x00, returndatasize)\n    tag_148:\n      pop\n      pop\n      pop\n      pop\n      mload(0x40)\n      returndatasize\n      not(0x1f)\n      0x1f\n      dup3\n      add\n      and\n      dup3\n      add\n      dup1\n      0x40\n      mstore\n      pop\n      dup2\n      add\n      swap1\n      tag_149\n      swap2\n      swap1\n      tag_141\n      jump\t// in\n    tag_149:\n        /* \"Polls.sol\":2869:2905  ratings[SimplePoll(_poll).creator()] */\n      0xffffffffffffffffffffffffffffffffffffffff\n      and\n      0xffffffffffffffffffffffffffffffffffffffff\n      and\n      dup2\n      mstore\n      0x20\n      add\n      swap1\n      dup2\n      mstore\n      0x20\n      add\n      0x00\n      keccak256\n        /* \"Polls.sol\":2869:2916  ratings[SimplePoll(_poll).creator()].rateNumber */\n      0x02\n      add\n      0x00\n        /* \"Polls.sol\":2869:2918  ratings[SimplePoll(_poll).creator()].rateNumber++ */\n      dup2\n      sload\n      dup1\n      swap3\n      swap2\n      swap1\n      tag_150\n      swap1\n      tag_87\n      jump\t// in\n    tag_150:\n      swap2\n      swap1\n      pop\n      sstore\n      pop\n        /* \"Polls.sol\":2610:2926  function rate(address _poll, uint8 _mark) external canRate(_poll) {... */\n      pop\n      pop\n      pop\n      jump\t// out\n        /* \"Polls.sol\":1492:1686  function tryAddCreator(address _creator) private {... */\n    tag_63:\n        /* \"Polls.sol\":1557:1564  ratings */\n      0x02\n        /* \"Polls.sol\":1557:1574  ratings[_creator] */\n      0x00\n        /* \"Polls.sol\":1565:1573  _creator */\n      dup3\n        /* \"Polls.sol\":1557:1574  ratings[_creator] */\n      0xffffffffffffffffffffffffffffffffffffffff\n      and\n      0xffffffffffffffffffffffffffffffffffffffff\n      and\n      dup2\n      mstore\n      0x20\n      add\n      swap1\n      dup2\n      mstore\n      0x20\n      add\n      0x00\n      keccak256\n        /* \"Polls.sol\":1557:1581  ratings[_creator].active */\n      0x00\n      add\n      0x00\n      swap1\n      sload\n      swap1\n      0x0100\n      exp\n      swap1\n      div\n      0xff\n      and\n        /* \"Polls.sol\":1552:1679  if (!ratings[_creator].active) {... */\n      tag_152\n      jumpi\n        /* \"Polls.sol\":1625:1629  true */\n      0x01\n        /* \"Polls.sol\":1598:1605  ratings */\n      0x02\n        /* \"Polls.sol\":1598:1615  ratings[_creator] */\n      0x00\n        /* \"Polls.sol\":1606:1614  _creator */\n      dup4\n        /* \"Polls.sol\":1598:1615  ratings[_creator] */\n      0xffffffffffffffffffffffffffffffffffffffff\n      and\n      0xffffffffffffffffffffffffffffffffffffffff\n      and\n      dup2\n      mstore\n      0x20\n      add\n      swap1\n      dup2\n      mstore\n      0x20\n      add\n      0x00\n      keccak256\n        /* \"Polls.sol\":1598:1622  ratings[_creator].active */\n      0x00\n      add\n      0x00\n        /* \"Polls.sol\":1598:1629  ratings[_creator].active = true */\n      0x0100\n      exp\n      dup2\n      sload\n      dup2\n      0xff\n      mul\n      not\n      and\n      swap1\n      dup4\n      iszero\n      iszero\n      mul\n      or\n      swap1\n      sstore\n      pop\n        /* \"Polls.sol\":1644:1652  creators */\n      0x01\n        /* \"Polls.sol\":1658:1666  _creator */\n      dup2\n        /* \"Polls.sol\":1644:1667  creators.push(_creator) */\n      swap1\n      dup1\n      0x01\n      dup2\n      sload\n      add\n      dup1\n      dup3\n      sstore\n      dup1\n      swap2\n      pop\n      pop\n      0x01\n      swap1\n      sub\n      swap1\n      0x00\n      mstore\n      keccak256(0x00, 0x20)\n      add\n      0x00\n      swap1\n      swap2\n      swap1\n      swap2\n      swap1\n      swap2\n      0x0100\n      exp\n      dup2\n      sload\n      dup2\n      0xffffffffffffffffffffffffffffffffffffffff\n      mul\n      not\n      and\n      swap1\n      dup4\n      0xffffffffffffffffffffffffffffffffffffffff\n      and\n      mul\n      or\n      swap1\n      sstore\n      pop\n        /* \"Polls.sol\":1552:1679  if (!ratings[_creator].active) {... */\n    tag_152:\n        /* \"Polls.sol\":1492:1686  function tryAddCreator(address _creator) private {... */\n      pop\n      jump\t// out\n        /* \"Polls.sol\":464:855  function canSenderRate(address _poll) private view returns(bool) {... */\n    tag_131:\n        /* \"Polls.sol\":523:527  bool */\n      0x00\n        /* \"Polls.sol\":575:585  msg.sender */\n      caller\n        /* \"Polls.sol\":544:585  SimplePoll(_poll).creator() == msg.sender */\n      0xffffffffffffffffffffffffffffffffffffffff\n      and\n        /* \"Polls.sol\":555:560  _poll */\n      dup3\n        /* \"Polls.sol\":544:569  SimplePoll(_poll).creator */\n      0xffffffffffffffffffffffffffffffffffffffff\n      and\n      0x02d05d3f\n        /* \"Polls.sol\":544:571  SimplePoll(_poll).creator() */\n      mload(0x40)\n      dup2\n      0xffffffff\n      and\n      0xe0\n      shl\n      dup2\n      mstore\n      0x04\n      add\n      0x20\n      mload(0x40)\n      dup1\n      dup4\n      sub\n      dup2\n      dup7\n      gas\n      staticcall\n      iszero\n      dup1\n      iszero\n      tag_156\n      jumpi\n      returndatasize\n      0x00\n      dup1\n      returndatacopy\n      revert(0x00, returndatasize)\n    tag_156:\n      pop\n      pop\n      pop\n      pop\n      mload(0x40)\n      returndatasize\n      not(0x1f)\n      0x1f\n      dup3\n      add\n      and\n      dup3\n      add\n      dup1\n      0x40\n      mstore\n      pop\n      dup2\n      add\n      swap1\n      tag_157\n      swap2\n      swap1\n      tag_141\n      jump\t// in\n    tag_157:\n        /* \"Polls.sol\":544:585  SimplePoll(_poll).creator() == msg.sender */\n      0xffffffffffffffffffffffffffffffffffffffff\n      and\n      eq\n        /* \"Polls.sol\":544:633  SimplePoll(_poll).creator() == msg.sender || !ratings[SimplePoll(_poll).creator()].active */\n      dup1\n      tag_158\n      jumpi\n      pop\n        /* \"Polls.sol\":590:597  ratings */\n      0x02\n        /* \"Polls.sol\":590:626  ratings[SimplePoll(_poll).creator()] */\n      0x00\n        /* \"Polls.sol\":609:614  _poll */\n      dup4\n        /* \"Polls.sol\":598:623  SimplePoll(_poll).creator */\n      0xffffffffffffffffffffffffffffffffffffffff\n      and\n      0x02d05d3f\n        /* \"Polls.sol\":598:625  SimplePoll(_poll).creator() */\n      mload(0x40)\n      dup2\n      0xffffffff\n      and\n      0xe0\n      shl\n      dup2\n      mstore\n      0x04\n      add\n      0x20\n      mload(0x40)\n      dup1\n      dup4\n      sub\n      dup2\n      dup7\n      gas\n      staticcall\n      iszero\n      dup1\n      iszero\n      tag_160\n      jumpi\n      returndatasize\n      0x00\n      dup1\n      returndatacopy\n      revert(0x00, returndatasize)\n    tag_160:\n      pop\n      pop\n      pop\n      pop\n      mload(0x40)\n      returndatasize\n      not(0x1f)\n      0x1f\n      dup3\n      add\n      and\n      dup3\n      add\n      dup1\n      0x40\n      mstore\n      pop\n      dup2\n      add\n      swap1\n      tag_161\n      swap2\n      swap1\n      tag_141\n      jump\t// in\n    tag_161:\n        /* \"Polls.sol\":590:626  ratings[SimplePoll(_poll).creator()] */\n      0xffffffffffffffffffffffffffffffffffffffff\n      and\n      0xffffffffffffffffffffffffffffffffffffffff\n      and\n      dup2\n      mstore\n      0x20\n      add\n      swap1\n      dup2\n      mstore\n      0x20\n      add\n      0x00\n      keccak256\n        /* \"Polls.sol\":590:633  ratings[SimplePoll(_poll).creator()].active */\n      0x00\n      add\n      0x00\n      swap1\n      sload\n      swap1\n      0x0100\n      exp\n      swap1\n      div\n      0xff\n      and\n        /* \"Polls.sol\":589:633  !ratings[SimplePoll(_poll).creator()].active */\n      iszero\n        /* \"Polls.sol\":544:633  SimplePoll(_poll).creator() == msg.sender || !ratings[SimplePoll(_poll).creator()].active */\n    tag_158:\n        /* \"Polls.sol\":544:690  SimplePoll(_poll).creator() == msg.sender || !ratings[SimplePoll(_poll).creator()].active || ... */\n      dup1\n      tag_162\n      jumpi\n      pop\n        /* \"Polls.sol\":663:668  _poll */\n      dup2\n        /* \"Polls.sol\":652:678  SimplePoll(_poll).hasVoted */\n      0xffffffffffffffffffffffffffffffffffffffff\n      and\n      0x09eef43e\n        /* \"Polls.sol\":679:689  msg.sender */\n      caller\n        /* \"Polls.sol\":652:690  SimplePoll(_poll).hasVoted(msg.sender) */\n      mload(0x40)\n      dup3\n      0xffffffff\n      and\n      0xe0\n      shl\n      dup2\n      mstore\n      0x04\n      add\n      tag_163\n      swap2\n      swap1\n      tag_50\n      jump\t// in\n    tag_163:\n      0x20\n      mload(0x40)\n      dup1\n      dup4\n      sub\n      dup2\n      dup7\n      gas\n      staticcall\n      iszero\n      dup1\n      iszero\n      tag_165\n      jumpi\n      returndatasize\n      0x00\n      dup1\n      returndatacopy\n      revert(0x00, returndatasize)\n    tag_165:\n      pop\n      pop\n      pop\n      pop\n      mload(0x40)\n      returndatasize\n      not(0x1f)\n      0x1f\n      dup3\n      add\n      and\n      dup3\n      add\n      dup1\n      0x40\n      mstore\n      pop\n      dup2\n      add\n      swap1\n      tag_166\n      swap2\n      swap1\n      tag_79\n      jump\t// in\n    tag_166:\n        /* \"Polls.sol\":651:690  !SimplePoll(_poll).hasVoted(msg.sender) */\n      iszero\n        /* \"Polls.sol\":544:690  SimplePoll(_poll).creator() == msg.sender || !ratings[SimplePoll(_poll).creator()].active || ... */\n    tag_162:\n        /* \"Polls.sol\":544:732  SimplePoll(_poll).creator() == msg.sender || !ratings[SimplePoll(_poll).creator()].active || ... */\n      dup1\n      tag_167\n      jumpi\n      pop\n        /* \"Polls.sol\":706:711  _poll */\n      dup2\n        /* \"Polls.sol\":695:730  SimplePoll(_poll).isDeadlineExpired */\n      0xffffffffffffffffffffffffffffffffffffffff\n      and\n      0x9145a7fc\n        /* \"Polls.sol\":695:732  SimplePoll(_poll).isDeadlineExpired() */\n      mload(0x40)\n      dup2\n      0xffffffff\n      and\n      0xe0\n      shl\n      dup2\n      mstore\n      0x04\n      add\n      0x20\n      mload(0x40)\n      dup1\n      dup4\n      sub\n      dup2\n      dup7\n      gas\n      staticcall\n      iszero\n      dup1\n      iszero\n      tag_169\n      jumpi\n      returndatasize\n      0x00\n      dup1\n      returndatacopy\n      revert(0x00, returndatasize)\n    tag_169:\n      pop\n      pop\n      pop\n      pop\n      mload(0x40)\n      returndatasize\n      not(0x1f)\n      0x1f\n      dup3\n      add\n      and\n      dup3\n      add\n      dup1\n      0x40\n      mstore\n      pop\n      dup2\n      add\n      swap1\n      tag_170\n      swap2\n      swap1\n      tag_79\n      jump\t// in\n    tag_170:\n        /* \"Polls.sol\":694:732  !SimplePoll(_poll).isDeadlineExpired() */\n      iszero\n        /* \"Polls.sol\":544:732  SimplePoll(_poll).creator() == msg.sender || !ratings[SimplePoll(_poll).creator()].active || ... */\n    tag_167:\n        /* \"Polls.sol\":540:773  if (SimplePoll(_poll).creator() == msg.sender || !ratings[SimplePoll(_poll).creator()].active || ... */\n      iszero\n      tag_171\n      jumpi\n        /* \"Polls.sol\":756:761  false */\n      0x00\n        /* \"Polls.sol\":749:761  return false */\n      swap1\n      pop\n      jump(tag_154)\n        /* \"Polls.sol\":540:773  if (SimplePoll(_poll).creator() == msg.sender || !ratings[SimplePoll(_poll).creator()].active || ... */\n    tag_171:\n        /* \"Polls.sol\":791:799  hasRated */\n      0x03\n        /* \"Polls.sol\":791:828  hasRated[SimplePoll(_poll).creator()] */\n      0x00\n        /* \"Polls.sol\":811:816  _poll */\n      dup4\n        /* \"Polls.sol\":800:825  SimplePoll(_poll).creator */\n      0xffffffffffffffffffffffffffffffffffffffff\n      and\n      0x02d05d3f\n        /* \"Polls.sol\":800:827  SimplePoll(_poll).creator() */\n      mload(0x40)\n      dup2\n      0xffffffff\n      and\n      0xe0\n      shl\n      dup2\n      mstore\n      0x04\n      add\n      0x20\n      mload(0x40)\n      dup1\n      dup4\n      sub\n      dup2\n      dup7\n      gas\n      staticcall\n      iszero\n      dup1\n      iszero\n      tag_173\n      jumpi\n      returndatasize\n      0x00\n      dup1\n      returndatacopy\n      revert(0x00, returndatasize)\n    tag_173:\n      pop\n      pop\n      pop\n      pop\n      mload(0x40)\n      returndatasize\n      not(0x1f)\n      0x1f\n      dup3\n      add\n      and\n      dup3\n      add\n      dup1\n      0x40\n      mstore\n      pop\n      dup2\n      add\n      swap1\n      tag_174\n      swap2\n      swap1\n      tag_141\n      jump\t// in\n    tag_174:\n        /* \"Polls.sol\":791:828  hasRated[SimplePoll(_poll).creator()] */\n      0xffffffffffffffffffffffffffffffffffffffff\n      and\n      0xffffffffffffffffffffffffffffffffffffffff\n      and\n      dup2\n      mstore\n      0x20\n      add\n      swap1\n      dup2\n      mstore\n      0x20\n      add\n      0x00\n      keccak256\n        /* \"Polls.sol\":791:835  hasRated[SimplePoll(_poll).creator()][_poll] */\n      0x00\n        /* \"Polls.sol\":829:834  _poll */\n      dup4\n        /* \"Polls.sol\":791:835  hasRated[SimplePoll(_poll).creator()][_poll] */\n      0xffffffffffffffffffffffffffffffffffffffff\n      and\n      0xffffffffffffffffffffffffffffffffffffffff\n      and\n      dup2\n      mstore\n      0x20\n      add\n      swap1\n      dup2\n      mstore\n      0x20\n      add\n      0x00\n      keccak256\n        /* \"Polls.sol\":791:847  hasRated[SimplePoll(_poll).creator()][_poll][msg.sender] */\n      0x00\n        /* \"Polls.sol\":836:846  msg.sender */\n      caller\n        /* \"Polls.sol\":791:847  hasRated[SimplePoll(_poll).creator()][_poll][msg.sender] */\n      0xffffffffffffffffffffffffffffffffffffffff\n      and\n      0xffffffffffffffffffffffffffffffffffffffff\n      and\n      dup2\n      mstore\n      0x20\n      add\n      swap1\n      dup2\n      mstore\n      0x20\n      add\n      0x00\n      keccak256\n      0x00\n      swap1\n      sload\n      swap1\n      0x0100\n      exp\n      swap1\n      div\n      0xff\n      and\n        /* \"Polls.sol\":790:847  !hasRated[SimplePoll(_poll).creator()][_poll][msg.sender] */\n      iszero\n        /* \"Polls.sol\":783:847  return !hasRated[SimplePoll(_poll).creator()][_poll][msg.sender] */\n      swap1\n      pop\n        /* \"Polls.sol\":464:855  function canSenderRate(address _poll) private view returns(bool) {... */\n    tag_154:\n      swap2\n      swap1\n      pop\n      jump\t// out\n    tag_57:\n      dataSize(sub_0)\n      dup1\n      dataOffset(sub_0)\n      dup4\n      codecopy\n      add\n      swap1\n      jump\t// out\n    tag_94:\n      mload(0x40)\n      dup1\n      0x40\n      add\n      0x40\n      mstore\n      dup1\n      and(0xffffffffffffffffffffffffffffffffffffffff, 0x00)\n      dup2\n      mstore\n      0x20\n      add\n      0x60\n      dup2\n      mstore\n      pop\n      swap1\n      jump\t// out\n    tag_120:\n      dataSize(sub_1)\n      dup1\n      dataOffset(sub_1)\n      dup4\n      codecopy\n      add\n      swap1\n      jump\t// out\n        /* \"#utility.yul\":7:82   */\n    tag_175:\n        /* \"#utility.yul\":40:46   */\n      0x00\n        /* \"#utility.yul\":73:75   */\n      0x40\n        /* \"#utility.yul\":67:76   */\n      mload\n        /* \"#utility.yul\":57:76   */\n      swap1\n      pop\n        /* \"#utility.yul\":7:82   */\n      swap1\n      jump\t// out\n        /* \"#utility.yul\":88:205   */\n    tag_176:\n        /* \"#utility.yul\":197:198   */\n      0x00\n        /* \"#utility.yul\":194:195   */\n      dup1\n        /* \"#utility.yul\":187:199   */\n      revert\n        /* \"#utility.yul\":211:328   */\n    tag_177:\n        /* \"#utility.yul\":320:321   */\n      0x00\n        /* \"#utility.yul\":317:318   */\n      dup1\n        /* \"#utility.yul\":310:322   */\n      revert\n        /* \"#utility.yul\":334:451   */\n    tag_178:\n        /* \"#utility.yul\":443:444   */\n      0x00\n        /* \"#utility.yul\":440:441   */\n      dup1\n        /* \"#utility.yul\":433:445   */\n      revert\n        /* \"#utility.yul\":457:574   */\n    tag_179:\n        /* \"#utility.yul\":566:567   */\n      0x00\n        /* \"#utility.yul\":563:564   */\n      dup1\n        /* \"#utility.yul\":556:568   */\n      revert\n        /* \"#utility.yul\":580:682   */\n    tag_180:\n        /* \"#utility.yul\":621:627   */\n      0x00\n        /* \"#utility.yul\":672:674   */\n      0x1f\n        /* \"#utility.yul\":668:675   */\n      not\n        /* \"#utility.yul\":663:665   */\n      0x1f\n        /* \"#utility.yul\":656:661   */\n      dup4\n        /* \"#utility.yul\":652:666   */\n      add\n        /* \"#utility.yul\":648:676   */\n      and\n        /* \"#utility.yul\":638:676   */\n      swap1\n      pop\n        /* \"#utility.yul\":580:682   */\n      swap2\n      swap1\n      pop\n      jump\t// out\n        /* \"#utility.yul\":688:868   */\n    tag_67:\n        /* \"#utility.yul\":736:813   */\n      0x4e487b7100000000000000000000000000000000000000000000000000000000\n        /* \"#utility.yul\":733:734   */\n      0x00\n        /* \"#utility.yul\":726:814   */\n      mstore\n        /* \"#utility.yul\":833:837   */\n      0x41\n        /* \"#utility.yul\":830:831   */\n      0x04\n        /* \"#utility.yul\":823:838   */\n      mstore\n        /* \"#utility.yul\":857:861   */\n      0x24\n        /* \"#utility.yul\":854:855   */\n      0x00\n        /* \"#utility.yul\":847:862   */\n      revert\n        /* \"#utility.yul\":874:1155   */\n    tag_181:\n        /* \"#utility.yul\":957:984   */\n      tag_268\n        /* \"#utility.yul\":979:983   */\n      dup3\n        /* \"#utility.yul\":957:984   */\n      tag_180\n      jump\t// in\n    tag_268:\n        /* \"#utility.yul\":949:955   */\n      dup2\n        /* \"#utility.yul\":945:985   */\n      add\n        /* \"#utility.yul\":1087:1093   */\n      dup2\n        /* \"#utility.yul\":1075:1085   */\n      dup2\n        /* \"#utility.yul\":1072:1094   */\n      lt\n        /* \"#utility.yul\":1051:1069   */\n      0xffffffffffffffff\n        /* \"#utility.yul\":1039:1049   */\n      dup3\n        /* \"#utility.yul\":1036:1070   */\n      gt\n        /* \"#utility.yul\":1033:1095   */\n      or\n        /* \"#utility.yul\":1030:1118   */\n      iszero\n      tag_269\n      jumpi\n        /* \"#utility.yul\":1098:1116   */\n      tag_270\n      tag_67\n      jump\t// in\n    tag_270:\n        /* \"#utility.yul\":1030:1118   */\n    tag_269:\n        /* \"#utility.yul\":1138:1148   */\n      dup1\n        /* \"#utility.yul\":1134:1136   */\n      0x40\n        /* \"#utility.yul\":1127:1149   */\n      mstore\n        /* \"#utility.yul\":917:1155   */\n      pop\n        /* \"#utility.yul\":874:1155   */\n      pop\n      pop\n      jump\t// out\n        /* \"#utility.yul\":1161:1290   */\n    tag_182:\n        /* \"#utility.yul\":1195:1201   */\n      0x00\n        /* \"#utility.yul\":1222:1242   */\n      tag_272\n      tag_175\n      jump\t// in\n    tag_272:\n        /* \"#utility.yul\":1212:1242   */\n      swap1\n      pop\n        /* \"#utility.yul\":1251:1284   */\n      tag_273\n        /* \"#utility.yul\":1279:1283   */\n      dup3\n        /* \"#utility.yul\":1271:1277   */\n      dup3\n        /* \"#utility.yul\":1251:1284   */\n      tag_181\n      jump\t// in\n    tag_273:\n        /* \"#utility.yul\":1161:1290   */\n      swap2\n      swap1\n      pop\n      jump\t// out\n        /* \"#utility.yul\":1296:1604   */\n    tag_183:\n        /* \"#utility.yul\":1358:1362   */\n      0x00\n        /* \"#utility.yul\":1448:1466   */\n      0xffffffffffffffff\n        /* \"#utility.yul\":1440:1446   */\n      dup3\n        /* \"#utility.yul\":1437:1467   */\n      gt\n        /* \"#utility.yul\":1434:1490   */\n      iszero\n      tag_275\n      jumpi\n        /* \"#utility.yul\":1470:1488   */\n      tag_276\n      tag_67\n      jump\t// in\n    tag_276:\n        /* \"#utility.yul\":1434:1490   */\n    tag_275:\n        /* \"#utility.yul\":1508:1537   */\n      tag_277\n        /* \"#utility.yul\":1530:1536   */\n      dup3\n        /* \"#utility.yul\":1508:1537   */\n      tag_180\n      jump\t// in\n    tag_277:\n        /* \"#utility.yul\":1500:1537   */\n      swap1\n      pop\n        /* \"#utility.yul\":1592:1596   */\n      0x20\n        /* \"#utility.yul\":1586:1590   */\n      dup2\n        /* \"#utility.yul\":1582:1597   */\n      add\n        /* \"#utility.yul\":1574:1597   */\n      swap1\n      pop\n        /* \"#utility.yul\":1296:1604   */\n      swap2\n      swap1\n      pop\n      jump\t// out\n        /* \"#utility.yul\":1610:1756   */\n    tag_184:\n        /* \"#utility.yul\":1707:1713   */\n      dup3\n        /* \"#utility.yul\":1702:1705   */\n      dup2\n        /* \"#utility.yul\":1697:1700   */\n      dup4\n        /* \"#utility.yul\":1684:1714   */\n      calldatacopy\n        /* \"#utility.yul\":1748:1749   */\n      0x00\n        /* \"#utility.yul\":1739:1745   */\n      dup4\n        /* \"#utility.yul\":1734:1737   */\n      dup4\n        /* \"#utility.yul\":1730:1746   */\n      add\n        /* \"#utility.yul\":1723:1750   */\n      mstore\n        /* \"#utility.yul\":1610:1756   */\n      pop\n      pop\n      pop\n      jump\t// out\n        /* \"#utility.yul\":1762:2187   */\n    tag_185:\n        /* \"#utility.yul\":1840:1845   */\n      0x00\n        /* \"#utility.yul\":1865:1931   */\n      tag_280\n        /* \"#utility.yul\":1881:1930   */\n      tag_281\n        /* \"#utility.yul\":1923:1929   */\n      dup5\n        /* \"#utility.yul\":1881:1930   */\n      tag_183\n      jump\t// in\n    tag_281:\n        /* \"#utility.yul\":1865:1931   */\n      tag_182\n      jump\t// in\n    tag_280:\n        /* \"#utility.yul\":1856:1931   */\n      swap1\n      pop\n        /* \"#utility.yul\":1954:1960   */\n      dup3\n        /* \"#utility.yul\":1947:1952   */\n      dup2\n        /* \"#utility.yul\":1940:1961   */\n      mstore\n        /* \"#utility.yul\":1992:1996   */\n      0x20\n        /* \"#utility.yul\":1985:1990   */\n      dup2\n        /* \"#utility.yul\":1981:1997   */\n      add\n        /* \"#utility.yul\":2030:2033   */\n      dup5\n        /* \"#utility.yul\":2021:2027   */\n      dup5\n        /* \"#utility.yul\":2016:2019   */\n      dup5\n        /* \"#utility.yul\":2012:2028   */\n      add\n        /* \"#utility.yul\":2009:2034   */\n      gt\n        /* \"#utility.yul\":2006:2118   */\n      iszero\n      tag_282\n      jumpi\n        /* \"#utility.yul\":2037:2116   */\n      tag_283\n      tag_179\n      jump\t// in\n    tag_283:\n        /* \"#utility.yul\":2006:2118   */\n    tag_282:\n        /* \"#utility.yul\":2127:2181   */\n      tag_284\n        /* \"#utility.yul\":2174:2180   */\n      dup5\n        /* \"#utility.yul\":2169:2172   */\n      dup3\n        /* \"#utility.yul\":2164:2167   */\n      dup6\n        /* \"#utility.yul\":2127:2181   */\n      tag_184\n      jump\t// in\n    tag_284:\n        /* \"#utility.yul\":1846:2187   */\n      pop\n        /* \"#utility.yul\":1762:2187   */\n      swap4\n      swap3\n      pop\n      pop\n      pop\n      jump\t// out\n        /* \"#utility.yul\":2207:2547   */\n    tag_186:\n        /* \"#utility.yul\":2263:2268   */\n      0x00\n        /* \"#utility.yul\":2312:2315   */\n      dup3\n        /* \"#utility.yul\":2305:2309   */\n      0x1f\n        /* \"#utility.yul\":2297:2303   */\n      dup4\n        /* \"#utility.yul\":2293:2310   */\n      add\n        /* \"#utility.yul\":2289:2316   */\n      slt\n        /* \"#utility.yul\":2279:2401   */\n      tag_286\n      jumpi\n        /* \"#utility.yul\":2320:2399   */\n      tag_287\n      tag_178\n      jump\t// in\n    tag_287:\n        /* \"#utility.yul\":2279:2401   */\n    tag_286:\n        /* \"#utility.yul\":2437:2443   */\n      dup2\n        /* \"#utility.yul\":2424:2444   */\n      calldataload\n        /* \"#utility.yul\":2462:2541   */\n      tag_288\n        /* \"#utility.yul\":2537:2540   */\n      dup5\n        /* \"#utility.yul\":2529:2535   */\n      dup3\n        /* \"#utility.yul\":2522:2526   */\n      0x20\n        /* \"#utility.yul\":2514:2520   */\n      dup7\n        /* \"#utility.yul\":2510:2527   */\n      add\n        /* \"#utility.yul\":2462:2541   */\n      tag_185\n      jump\t// in\n    tag_288:\n        /* \"#utility.yul\":2453:2541   */\n      swap2\n      pop\n        /* \"#utility.yul\":2269:2547   */\n      pop\n        /* \"#utility.yul\":2207:2547   */\n      swap3\n      swap2\n      pop\n      pop\n      jump\t// out\n        /* \"#utility.yul\":2553:2874   */\n    tag_187:\n        /* \"#utility.yul\":2640:2644   */\n      0x00\n        /* \"#utility.yul\":2730:2748   */\n      0xffffffffffffffff\n        /* \"#utility.yul\":2722:2728   */\n      dup3\n        /* \"#utility.yul\":2719:2749   */\n      gt\n        /* \"#utility.yul\":2716:2772   */\n      iszero\n      tag_290\n      jumpi\n        /* \"#utility.yul\":2752:2770   */\n      tag_291\n      tag_67\n      jump\t// in\n    tag_291:\n        /* \"#utility.yul\":2716:2772   */\n    tag_290:\n        /* \"#utility.yul\":2802:2806   */\n      0x20\n        /* \"#utility.yul\":2794:2800   */\n      dup3\n        /* \"#utility.yul\":2790:2807   */\n      mul\n        /* \"#utility.yul\":2782:2807   */\n      swap1\n      pop\n        /* \"#utility.yul\":2862:2866   */\n      0x20\n        /* \"#utility.yul\":2856:2860   */\n      dup2\n        /* \"#utility.yul\":2852:2867   */\n      add\n        /* \"#utility.yul\":2844:2867   */\n      swap1\n      pop\n        /* \"#utility.yul\":2553:2874   */\n      swap2\n      swap1\n      pop\n      jump\t// out\n        /* \"#utility.yul\":2880:2997   */\n    tag_188:\n        /* \"#utility.yul\":2989:2990   */\n      0x00\n        /* \"#utility.yul\":2986:2987   */\n      dup1\n        /* \"#utility.yul\":2979:2991   */\n      revert\n        /* \"#utility.yul\":3019:3964   */\n    tag_189:\n        /* \"#utility.yul\":3125:3130   */\n      0x00\n        /* \"#utility.yul\":3150:3241   */\n      tag_294\n        /* \"#utility.yul\":3166:3240   */\n      tag_295\n        /* \"#utility.yul\":3233:3239   */\n      dup5\n        /* \"#utility.yul\":3166:3240   */\n      tag_187\n      jump\t// in\n    tag_295:\n        /* \"#utility.yul\":3150:3241   */\n      tag_182\n      jump\t// in\n    tag_294:\n        /* \"#utility.yul\":3141:3241   */\n      swap1\n      pop\n        /* \"#utility.yul\":3261:3266   */\n      dup1\n        /* \"#utility.yul\":3290:3296   */\n      dup4\n        /* \"#utility.yul\":3283:3288   */\n      dup3\n        /* \"#utility.yul\":3276:3297   */\n      mstore\n        /* \"#utility.yul\":3324:3328   */\n      0x20\n        /* \"#utility.yul\":3317:3322   */\n      dup3\n        /* \"#utility.yul\":3313:3329   */\n      add\n        /* \"#utility.yul\":3306:3329   */\n      swap1\n      pop\n        /* \"#utility.yul\":3377:3381   */\n      0x20\n        /* \"#utility.yul\":3369:3375   */\n      dup5\n        /* \"#utility.yul\":3365:3382   */\n      mul\n        /* \"#utility.yul\":3357:3363   */\n      dup4\n        /* \"#utility.yul\":3353:3383   */\n      add\n        /* \"#utility.yul\":3406:3409   */\n      dup6\n        /* \"#utility.yul\":3398:3404   */\n      dup2\n        /* \"#utility.yul\":3395:3410   */\n      gt\n        /* \"#utility.yul\":3392:3514   */\n      iszero\n      tag_296\n      jumpi\n        /* \"#utility.yul\":3425:3504   */\n      tag_297\n      tag_188\n      jump\t// in\n    tag_297:\n        /* \"#utility.yul\":3392:3514   */\n    tag_296:\n        /* \"#utility.yul\":3540:3546   */\n      dup4\n        /* \"#utility.yul\":3523:3958   */\n    tag_298:\n        /* \"#utility.yul\":3557:3563   */\n      dup2\n        /* \"#utility.yul\":3552:3555   */\n      dup2\n        /* \"#utility.yul\":3549:3564   */\n      lt\n        /* \"#utility.yul\":3523:3958   */\n      iszero\n      tag_300\n      jumpi\n        /* \"#utility.yul\":3646:3649   */\n      dup1\n        /* \"#utility.yul\":3633:3650   */\n      calldataload\n        /* \"#utility.yul\":3682:3700   */\n      0xffffffffffffffff\n        /* \"#utility.yul\":3669:3680   */\n      dup2\n        /* \"#utility.yul\":3666:3701   */\n      gt\n        /* \"#utility.yul\":3663:3785   */\n      iszero\n      tag_301\n      jumpi\n        /* \"#utility.yul\":3704:3783   */\n      tag_302\n      tag_178\n      jump\t// in\n    tag_302:\n        /* \"#utility.yul\":3663:3785   */\n    tag_301:\n        /* \"#utility.yul\":3828:3839   */\n      dup1\n        /* \"#utility.yul\":3820:3826   */\n      dup7\n        /* \"#utility.yul\":3816:3840   */\n      add\n        /* \"#utility.yul\":3866:3913   */\n      tag_303\n        /* \"#utility.yul\":3909:3912   */\n      dup10\n        /* \"#utility.yul\":3897:3907   */\n      dup3\n        /* \"#utility.yul\":3866:3913   */\n      tag_186\n      jump\t// in\n    tag_303:\n        /* \"#utility.yul\":3861:3864   */\n      dup6\n        /* \"#utility.yul\":3854:3914   */\n      mstore\n        /* \"#utility.yul\":3943:3947   */\n      0x20\n        /* \"#utility.yul\":3938:3941   */\n      dup6\n        /* \"#utility.yul\":3934:3948   */\n      add\n        /* \"#utility.yul\":3927:3948   */\n      swap5\n      pop\n        /* \"#utility.yul\":3599:3958   */\n      pop\n      pop\n        /* \"#utility.yul\":3583:3587   */\n      0x20\n        /* \"#utility.yul\":3578:3581   */\n      dup2\n        /* \"#utility.yul\":3574:3588   */\n      add\n        /* \"#utility.yul\":3567:3588   */\n      swap1\n      pop\n        /* \"#utility.yul\":3523:3958   */\n      jump(tag_298)\n    tag_300:\n        /* \"#utility.yul\":3527:3548   */\n      pop\n        /* \"#utility.yul\":3131:3964   */\n      pop\n      pop\n        /* \"#utility.yul\":3019:3964   */\n      swap4\n      swap3\n      pop\n      pop\n      pop\n      jump\t// out\n        /* \"#utility.yul\":3986:4376   */\n    tag_190:\n        /* \"#utility.yul\":4067:4072   */\n      0x00\n        /* \"#utility.yul\":4116:4119   */\n      dup3\n        /* \"#utility.yul\":4109:4113   */\n      0x1f\n        /* \"#utility.yul\":4101:4107   */\n      dup4\n        /* \"#utility.yul\":4097:4114   */\n      add\n        /* \"#utility.yul\":4093:4120   */\n      slt\n        /* \"#utility.yul\":4083:4205   */\n      tag_305\n      jumpi\n        /* \"#utility.yul\":4124:4203   */\n      tag_306\n      tag_178\n      jump\t// in\n    tag_306:\n        /* \"#utility.yul\":4083:4205   */\n    tag_305:\n        /* \"#utility.yul\":4241:4247   */\n      dup2\n        /* \"#utility.yul\":4228:4248   */\n      calldataload\n        /* \"#utility.yul\":4266:4370   */\n      tag_307\n        /* \"#utility.yul\":4366:4369   */\n      dup5\n        /* \"#utility.yul\":4358:4364   */\n      dup3\n        /* \"#utility.yul\":4351:4355   */\n      0x20\n        /* \"#utility.yul\":4343:4349   */\n      dup7\n        /* \"#utility.yul\":4339:4356   */\n      add\n        /* \"#utility.yul\":4266:4370   */\n      tag_189\n      jump\t// in\n    tag_307:\n        /* \"#utility.yul\":4257:4370   */\n      swap2\n      pop\n        /* \"#utility.yul\":4073:4376   */\n      pop\n        /* \"#utility.yul\":3986:4376   */\n      swap3\n      swap2\n      pop\n      pop\n      jump\t// out\n        /* \"#utility.yul\":4382:4459   */\n    tag_191:\n        /* \"#utility.yul\":4419:4426   */\n      0x00\n        /* \"#utility.yul\":4448:4453   */\n      dup2\n        /* \"#utility.yul\":4437:4453   */\n      swap1\n      pop\n        /* \"#utility.yul\":4382:4459   */\n      swap2\n      swap1\n      pop\n      jump\t// out\n        /* \"#utility.yul\":4465:4587   */\n    tag_192:\n        /* \"#utility.yul\":4538:4562   */\n      tag_310\n        /* \"#utility.yul\":4556:4561   */\n      dup2\n        /* \"#utility.yul\":4538:4562   */\n      tag_191\n      jump\t// in\n    tag_310:\n        /* \"#utility.yul\":4531:4536   */\n      dup2\n        /* \"#utility.yul\":4528:4563   */\n      eq\n        /* \"#utility.yul\":4518:4581   */\n      tag_311\n      jumpi\n        /* \"#utility.yul\":4577:4578   */\n      0x00\n        /* \"#utility.yul\":4574:4575   */\n      dup1\n        /* \"#utility.yul\":4567:4579   */\n      revert\n        /* \"#utility.yul\":4518:4581   */\n    tag_311:\n        /* \"#utility.yul\":4465:4587   */\n      pop\n      jump\t// out\n        /* \"#utility.yul\":4593:4732   */\n    tag_193:\n        /* \"#utility.yul\":4639:4644   */\n      0x00\n        /* \"#utility.yul\":4677:4683   */\n      dup2\n        /* \"#utility.yul\":4664:4684   */\n      calldataload\n        /* \"#utility.yul\":4655:4684   */\n      swap1\n      pop\n        /* \"#utility.yul\":4693:4726   */\n      tag_313\n        /* \"#utility.yul\":4720:4725   */\n      dup2\n        /* \"#utility.yul\":4693:4726   */\n      tag_192\n      jump\t// in\n    tag_313:\n        /* \"#utility.yul\":4593:4732   */\n      swap3\n      swap2\n      pop\n      pop\n      jump\t// out\n        /* \"#utility.yul\":4738:6093   */\n    tag_15:\n        /* \"#utility.yul\":4879:4885   */\n      0x00\n        /* \"#utility.yul\":4887:4893   */\n      dup1\n        /* \"#utility.yul\":4895:4901   */\n      0x00\n        /* \"#utility.yul\":4903:4909   */\n      dup1\n        /* \"#utility.yul\":4952:4955   */\n      0x80\n        /* \"#utility.yul\":4940:4949   */\n      dup6\n        /* \"#utility.yul\":4931:4938   */\n      dup8\n        /* \"#utility.yul\":4927:4950   */\n      sub\n        /* \"#utility.yul\":4923:4956   */\n      slt\n        /* \"#utility.yul\":4920:5040   */\n      iszero\n      tag_315\n      jumpi\n        /* \"#utility.yul\":4959:5038   */\n      tag_316\n      tag_176\n      jump\t// in\n    tag_316:\n        /* \"#utility.yul\":4920:5040   */\n    tag_315:\n        /* \"#utility.yul\":5107:5108   */\n      0x00\n        /* \"#utility.yul\":5096:5105   */\n      dup6\n        /* \"#utility.yul\":5092:5109   */\n      add\n        /* \"#utility.yul\":5079:5110   */\n      calldataload\n        /* \"#utility.yul\":5137:5155   */\n      0xffffffffffffffff\n        /* \"#utility.yul\":5129:5135   */\n      dup2\n        /* \"#utility.yul\":5126:5156   */\n      gt\n        /* \"#utility.yul\":5123:5240   */\n      iszero\n      tag_317\n      jumpi\n        /* \"#utility.yul\":5159:5238   */\n      tag_318\n      tag_177\n      jump\t// in\n    tag_318:\n        /* \"#utility.yul\":5123:5240   */\n    tag_317:\n        /* \"#utility.yul\":5264:5327   */\n      tag_319\n        /* \"#utility.yul\":5319:5326   */\n      dup8\n        /* \"#utility.yul\":5310:5316   */\n      dup3\n        /* \"#utility.yul\":5299:5308   */\n      dup9\n        /* \"#utility.yul\":5295:5317   */\n      add\n        /* \"#utility.yul\":5264:5327   */\n      tag_186\n      jump\t// in\n    tag_319:\n        /* \"#utility.yul\":5254:5327   */\n      swap5\n      pop\n        /* \"#utility.yul\":5050:5337   */\n      pop\n        /* \"#utility.yul\":5404:5406   */\n      0x20\n        /* \"#utility.yul\":5393:5402   */\n      dup6\n        /* \"#utility.yul\":5389:5407   */\n      add\n        /* \"#utility.yul\":5376:5408   */\n      calldataload\n        /* \"#utility.yul\":5435:5453   */\n      0xffffffffffffffff\n        /* \"#utility.yul\":5427:5433   */\n      dup2\n        /* \"#utility.yul\":5424:5454   */\n      gt\n        /* \"#utility.yul\":5421:5538   */\n      iszero\n      tag_320\n      jumpi\n        /* \"#utility.yul\":5457:5536   */\n      tag_321\n      tag_177\n      jump\t// in\n    tag_321:\n        /* \"#utility.yul\":5421:5538   */\n    tag_320:\n        /* \"#utility.yul\":5562:5625   */\n      tag_322\n        /* \"#utility.yul\":5617:5624   */\n      dup8\n        /* \"#utility.yul\":5608:5614   */\n      dup3\n        /* \"#utility.yul\":5597:5606   */\n      dup9\n        /* \"#utility.yul\":5593:5615   */\n      add\n        /* \"#utility.yul\":5562:5625   */\n      tag_186\n      jump\t// in\n    tag_322:\n        /* \"#utility.yul\":5552:5625   */\n      swap4\n      pop\n        /* \"#utility.yul\":5347:5635   */\n      pop\n        /* \"#utility.yul\":5702:5704   */\n      0x40\n        /* \"#utility.yul\":5691:5700   */\n      dup6\n        /* \"#utility.yul\":5687:5705   */\n      add\n        /* \"#utility.yul\":5674:5706   */\n      calldataload\n        /* \"#utility.yul\":5733:5751   */\n      0xffffffffffffffff\n        /* \"#utility.yul\":5725:5731   */\n      dup2\n        /* \"#utility.yul\":5722:5752   */\n      gt\n        /* \"#utility.yul\":5719:5836   */\n      iszero\n      tag_323\n      jumpi\n        /* \"#utility.yul\":5755:5834   */\n      tag_324\n      tag_177\n      jump\t// in\n    tag_324:\n        /* \"#utility.yul\":5719:5836   */\n    tag_323:\n        /* \"#utility.yul\":5860:5948   */\n      tag_325\n        /* \"#utility.yul\":5940:5947   */\n      dup8\n        /* \"#utility.yul\":5931:5937   */\n      dup3\n        /* \"#utility.yul\":5920:5929   */\n      dup9\n        /* \"#utility.yul\":5916:5938   */\n      add\n        /* \"#utility.yul\":5860:5948   */\n      tag_190\n      jump\t// in\n    tag_325:\n        /* \"#utility.yul\":5850:5948   */\n      swap3\n      pop\n        /* \"#utility.yul\":5645:5958   */\n      pop\n        /* \"#utility.yul\":5997:5999   */\n      0x60\n        /* \"#utility.yul\":6023:6076   */\n      tag_326\n        /* \"#utility.yul\":6068:6075   */\n      dup8\n        /* \"#utility.yul\":6059:6065   */\n      dup3\n        /* \"#utility.yul\":6048:6057   */\n      dup9\n        /* \"#utility.yul\":6044:6066   */\n      add\n        /* \"#utility.yul\":6023:6076   */\n      tag_193\n      jump\t// in\n    tag_326:\n        /* \"#utility.yul\":6013:6076   */\n      swap2\n      pop\n        /* \"#utility.yul\":5968:6086   */\n      pop\n        /* \"#utility.yul\":4738:6093   */\n      swap3\n      swap6\n      swap2\n      swap5\n      pop\n      swap3\n      pop\n      jump\t// out\n        /* \"#utility.yul\":6099:6231   */\n    tag_194:\n        /* \"#utility.yul\":6184:6190   */\n      0x00\n        /* \"#utility.yul\":6218:6223   */\n      dup2\n        /* \"#utility.yul\":6212:6224   */\n      mload\n        /* \"#utility.yul\":6202:6224   */\n      swap1\n      pop\n        /* \"#utility.yul\":6099:6231   */\n      swap2\n      swap1\n      pop\n      jump\t// out\n        /* \"#utility.yul\":6237:6421   */\n    tag_195:\n        /* \"#utility.yul\":6336:6347   */\n      0x00\n        /* \"#utility.yul\":6370:6376   */\n      dup3\n        /* \"#utility.yul\":6365:6368   */\n      dup3\n        /* \"#utility.yul\":6358:6377   */\n      mstore\n        /* \"#utility.yul\":6410:6414   */\n      0x20\n        /* \"#utility.yul\":6405:6408   */\n      dup3\n        /* \"#utility.yul\":6401:6415   */\n      add\n        /* \"#utility.yul\":6386:6415   */\n      swap1\n      pop\n        /* \"#utility.yul\":6237:6421   */\n      swap3\n      swap2\n      pop\n      pop\n      jump\t// out\n        /* \"#utility.yul\":6427:6577   */\n    tag_196:\n        /* \"#utility.yul\":6512:6516   */\n      0x00\n        /* \"#utility.yul\":6535:6538   */\n      dup2\n        /* \"#utility.yul\":6527:6538   */\n      swap1\n      pop\n        /* \"#utility.yul\":6565:6569   */\n      0x20\n        /* \"#utility.yul\":6560:6563   */\n      dup3\n        /* \"#utility.yul\":6556:6570   */\n      add\n        /* \"#utility.yul\":6548:6570   */\n      swap1\n      pop\n        /* \"#utility.yul\":6427:6577   */\n      swap2\n      swap1\n      pop\n      jump\t// out\n        /* \"#utility.yul\":6583:6709   */\n    tag_197:\n        /* \"#utility.yul\":6620:6627   */\n      0x00\n        /* \"#utility.yul\":6660:6702   */\n      0xffffffffffffffffffffffffffffffffffffffff\n        /* \"#utility.yul\":6653:6658   */\n      dup3\n        /* \"#utility.yul\":6649:6703   */\n      and\n        /* \"#utility.yul\":6638:6703   */\n      swap1\n      pop\n        /* \"#utility.yul\":6583:6709   */\n      swap2\n      swap1\n      pop\n      jump\t// out\n        /* \"#utility.yul\":6715:6775   */\n    tag_198:\n        /* \"#utility.yul\":6743:6746   */\n      0x00\n        /* \"#utility.yul\":6764:6769   */\n      dup2\n        /* \"#utility.yul\":6757:6769   */\n      swap1\n      pop\n        /* \"#utility.yul\":6715:6775   */\n      swap2\n      swap1\n      pop\n      jump\t// out\n        /* \"#utility.yul\":6781:6923   */\n    tag_199:\n        /* \"#utility.yul\":6831:6840   */\n      0x00\n        /* \"#utility.yul\":6864:6917   */\n      tag_333\n        /* \"#utility.yul\":6882:6916   */\n      tag_334\n        /* \"#utility.yul\":6891:6915   */\n      tag_335\n        /* \"#utility.yul\":6909:6914   */\n      dup5\n        /* \"#utility.yul\":6891:6915   */\n      tag_197\n      jump\t// in\n    tag_335:\n        /* \"#utility.yul\":6882:6916   */\n      tag_198\n      jump\t// in\n    tag_334:\n        /* \"#utility.yul\":6864:6917   */\n      tag_197\n      jump\t// in\n    tag_333:\n        /* \"#utility.yul\":6851:6917   */\n      swap1\n      pop\n        /* \"#utility.yul\":6781:6923   */\n      swap2\n      swap1\n      pop\n      jump\t// out\n        /* \"#utility.yul\":6929:7055   */\n    tag_200:\n        /* \"#utility.yul\":6979:6988   */\n      0x00\n        /* \"#utility.yul\":7012:7049   */\n      tag_337\n        /* \"#utility.yul\":7043:7048   */\n      dup3\n        /* \"#utility.yul\":7012:7049   */\n      tag_199\n      jump\t// in\n    tag_337:\n        /* \"#utility.yul\":6999:7049   */\n      swap1\n      pop\n        /* \"#utility.yul\":6929:7055   */\n      swap2\n      swap1\n      pop\n      jump\t// out\n        /* \"#utility.yul\":7061:7205   */\n    tag_201:\n        /* \"#utility.yul\":7129:7138   */\n      0x00\n        /* \"#utility.yul\":7162:7199   */\n      tag_339\n        /* \"#utility.yul\":7193:7198   */\n      dup3\n        /* \"#utility.yul\":7162:7199   */\n      tag_200\n      jump\t// in\n    tag_339:\n        /* \"#utility.yul\":7149:7199   */\n      swap1\n      pop\n        /* \"#utility.yul\":7061:7205   */\n      swap2\n      swap1\n      pop\n      jump\t// out\n        /* \"#utility.yul\":7211:7368   */\n    tag_202:\n        /* \"#utility.yul\":7306:7361   */\n      tag_341\n        /* \"#utility.yul\":7355:7360   */\n      dup2\n        /* \"#utility.yul\":7306:7361   */\n      tag_201\n      jump\t// in\n    tag_341:\n        /* \"#utility.yul\":7301:7304   */\n      dup3\n        /* \"#utility.yul\":7294:7362   */\n      mstore\n        /* \"#utility.yul\":7211:7368   */\n      pop\n      pop\n      jump\t// out\n        /* \"#utility.yul\":7374:7589   */\n    tag_203:\n        /* \"#utility.yul\":7461:7471   */\n      0x00\n        /* \"#utility.yul\":7482:7546   */\n      tag_343\n        /* \"#utility.yul\":7542:7545   */\n      dup4\n        /* \"#utility.yul\":7534:7540   */\n      dup4\n        /* \"#utility.yul\":7482:7546   */\n      tag_202\n      jump\t// in\n    tag_343:\n        /* \"#utility.yul\":7578:7582   */\n      0x20\n        /* \"#utility.yul\":7573:7576   */\n      dup4\n        /* \"#utility.yul\":7569:7583   */\n      add\n        /* \"#utility.yul\":7555:7583   */\n      swap1\n      pop\n        /* \"#utility.yul\":7374:7589   */\n      swap3\n      swap2\n      pop\n      pop\n      jump\t// out\n        /* \"#utility.yul\":7595:7726   */\n    tag_204:\n        /* \"#utility.yul\":7683:7687   */\n      0x00\n        /* \"#utility.yul\":7715:7719   */\n      0x20\n        /* \"#utility.yul\":7710:7713   */\n      dup3\n        /* \"#utility.yul\":7706:7720   */\n      add\n        /* \"#utility.yul\":7698:7720   */\n      swap1\n      pop\n        /* \"#utility.yul\":7595:7726   */\n      swap2\n      swap1\n      pop\n      jump\t// out\n        /* \"#utility.yul\":7774:8596   */\n    tag_205:\n        /* \"#utility.yul\":7911:7914   */\n      0x00\n        /* \"#utility.yul\":7940:8012   */\n      tag_346\n        /* \"#utility.yul\":8006:8011   */\n      dup3\n        /* \"#utility.yul\":7940:8012   */\n      tag_194\n      jump\t// in\n    tag_346:\n        /* \"#utility.yul\":8028:8114   */\n      tag_347\n        /* \"#utility.yul\":8107:8113   */\n      dup2\n        /* \"#utility.yul\":8102:8105   */\n      dup6\n        /* \"#utility.yul\":8028:8114   */\n      tag_195\n      jump\t// in\n    tag_347:\n        /* \"#utility.yul\":8021:8114   */\n      swap4\n      pop\n        /* \"#utility.yul\":8138:8212   */\n      tag_348\n        /* \"#utility.yul\":8206:8211   */\n      dup4\n        /* \"#utility.yul\":8138:8212   */\n      tag_196\n      jump\t// in\n    tag_348:\n        /* \"#utility.yul\":8235:8242   */\n      dup1\n        /* \"#utility.yul\":8266:8267   */\n      0x00\n        /* \"#utility.yul\":8251:8571   */\n    tag_349:\n        /* \"#utility.yul\":8276:8282   */\n      dup4\n        /* \"#utility.yul\":8273:8274   */\n      dup2\n        /* \"#utility.yul\":8270:8283   */\n      lt\n        /* \"#utility.yul\":8251:8571   */\n      iszero\n      tag_351\n      jumpi\n        /* \"#utility.yul\":8352:8358   */\n      dup2\n        /* \"#utility.yul\":8346:8359   */\n      mload\n        /* \"#utility.yul\":8379:8460   */\n      tag_352\n        /* \"#utility.yul\":8456:8459   */\n      dup9\n        /* \"#utility.yul\":8441:8454   */\n      dup3\n        /* \"#utility.yul\":8379:8460   */\n      tag_203\n      jump\t// in\n    tag_352:\n        /* \"#utility.yul\":8372:8460   */\n      swap8\n      pop\n        /* \"#utility.yul\":8483:8561   */\n      tag_353\n        /* \"#utility.yul\":8554:8560   */\n      dup4\n        /* \"#utility.yul\":8483:8561   */\n      tag_204\n      jump\t// in\n    tag_353:\n        /* \"#utility.yul\":8473:8561   */\n      swap3\n      pop\n        /* \"#utility.yul\":8311:8571   */\n      pop\n        /* \"#utility.yul\":8298:8299   */\n      0x01\n        /* \"#utility.yul\":8295:8296   */\n      dup2\n        /* \"#utility.yul\":8291:8300   */\n      add\n        /* \"#utility.yul\":8286:8300   */\n      swap1\n      pop\n        /* \"#utility.yul\":8251:8571   */\n      jump(tag_349)\n    tag_351:\n        /* \"#utility.yul\":8255:8269   */\n      pop\n        /* \"#utility.yul\":8587:8590   */\n      dup6\n        /* \"#utility.yul\":8580:8590   */\n      swap4\n      pop\n        /* \"#utility.yul\":7916:8596   */\n      pop\n      pop\n      pop\n        /* \"#utility.yul\":7774:8596   */\n      swap3\n      swap2\n      pop\n      pop\n      jump\t// out\n        /* \"#utility.yul\":8602:9011   */\n    tag_20:\n        /* \"#utility.yul\":8763:8767   */\n      0x00\n        /* \"#utility.yul\":8801:8803   */\n      0x20\n        /* \"#utility.yul\":8790:8799   */\n      dup3\n        /* \"#utility.yul\":8786:8804   */\n      add\n        /* \"#utility.yul\":8778:8804   */\n      swap1\n      pop\n        /* \"#utility.yul\":8850:8859   */\n      dup2\n        /* \"#utility.yul\":8844:8848   */\n      dup2\n        /* \"#utility.yul\":8840:8860   */\n      sub\n        /* \"#utility.yul\":8836:8837   */\n      0x00\n        /* \"#utility.yul\":8825:8834   */\n      dup4\n        /* \"#utility.yul\":8821:8838   */\n      add\n        /* \"#utility.yul\":8814:8861   */\n      mstore\n        /* \"#utility.yul\":8878:9004   */\n      tag_355\n        /* \"#utility.yul\":8999:9003   */\n      dup2\n        /* \"#utility.yul\":8990:8996   */\n      dup5\n        /* \"#utility.yul\":8878:9004   */\n      tag_205\n      jump\t// in\n    tag_355:\n        /* \"#utility.yul\":8870:9004   */\n      swap1\n      pop\n        /* \"#utility.yul\":8602:9011   */\n      swap3\n      swap2\n      pop\n      pop\n      jump\t// out\n        /* \"#utility.yul\":9017:9154   */\n    tag_206:\n        /* \"#utility.yul\":9107:9113   */\n      0x00\n        /* \"#utility.yul\":9141:9146   */\n      dup2\n        /* \"#utility.yul\":9135:9147   */\n      mload\n        /* \"#utility.yul\":9125:9147   */\n      swap1\n      pop\n        /* \"#utility.yul\":9017:9154   */\n      swap2\n      swap1\n      pop\n      jump\t// out\n        /* \"#utility.yul\":9160:9367   */\n    tag_207:\n        /* \"#utility.yul\":9282:9293   */\n      0x00\n        /* \"#utility.yul\":9316:9322   */\n      dup3\n        /* \"#utility.yul\":9311:9314   */\n      dup3\n        /* \"#utility.yul\":9304:9323   */\n      mstore\n        /* \"#utility.yul\":9356:9360   */\n      0x20\n        /* \"#utility.yul\":9351:9354   */\n      dup3\n        /* \"#utility.yul\":9347:9361   */\n      add\n        /* \"#utility.yul\":9332:9361   */\n      swap1\n      pop\n        /* \"#utility.yul\":9160:9367   */\n      swap3\n      swap2\n      pop\n      pop\n      jump\t// out\n        /* \"#utility.yul\":9373:9528   */\n    tag_208:\n        /* \"#utility.yul\":9463:9467   */\n      0x00\n        /* \"#utility.yul\":9486:9489   */\n      dup2\n        /* \"#utility.yul\":9478:9489   */\n      swap1\n      pop\n        /* \"#utility.yul\":9516:9520   */\n      0x20\n        /* \"#utility.yul\":9511:9514   */\n      dup3\n        /* \"#utility.yul\":9507:9521   */\n      add\n        /* \"#utility.yul\":9499:9521   */\n      swap1\n      pop\n        /* \"#utility.yul\":9373:9528   */\n      swap2\n      swap1\n      pop\n      jump\t// out\n        /* \"#utility.yul\":9534:9673   */\n    tag_209:\n        /* \"#utility.yul\":9626:9632   */\n      0x00\n        /* \"#utility.yul\":9660:9665   */\n      dup2\n        /* \"#utility.yul\":9654:9666   */\n      mload\n        /* \"#utility.yul\":9644:9666   */\n      swap1\n      pop\n        /* \"#utility.yul\":9534:9673   */\n      swap2\n      swap1\n      pop\n      jump\t// out\n        /* \"#utility.yul\":9679:9878   */\n    tag_210:\n        /* \"#utility.yul\":9793:9804   */\n      0x00\n        /* \"#utility.yul\":9827:9833   */\n      dup3\n        /* \"#utility.yul\":9822:9825   */\n      dup3\n        /* \"#utility.yul\":9815:9834   */\n      mstore\n        /* \"#utility.yul\":9867:9871   */\n      0x20\n        /* \"#utility.yul\":9862:9865   */\n      dup3\n        /* \"#utility.yul\":9858:9872   */\n      add\n        /* \"#utility.yul\":9843:9872   */\n      swap1\n      pop\n        /* \"#utility.yul\":9679:9878   */\n      swap3\n      swap2\n      pop\n      pop\n      jump\t// out\n        /* \"#utility.yul\":9884:10041   */\n    tag_211:\n        /* \"#utility.yul\":9976:9980   */\n      0x00\n        /* \"#utility.yul\":9999:10002   */\n      dup2\n        /* \"#utility.yul\":9991:10002   */\n      swap1\n      pop\n        /* \"#utility.yul\":10029:10033   */\n      0x20\n        /* \"#utility.yul\":10024:10027   */\n      dup3\n        /* \"#utility.yul\":10020:10034   */\n      add\n        /* \"#utility.yul\":10012:10034   */\n      swap1\n      pop\n        /* \"#utility.yul\":9884:10041   */\n      swap2\n      swap1\n      pop\n      jump\t// out\n        /* \"#utility.yul\":10047:10146   */\n    tag_212:\n        /* \"#utility.yul\":10099:10105   */\n      0x00\n        /* \"#utility.yul\":10133:10138   */\n      dup2\n        /* \"#utility.yul\":10127:10139   */\n      mload\n        /* \"#utility.yul\":10117:10139   */\n      swap1\n      pop\n        /* \"#utility.yul\":10047:10146   */\n      swap2\n      swap1\n      pop\n      jump\t// out\n        /* \"#utility.yul\":10152:10311   */\n    tag_213:\n        /* \"#utility.yul\":10226:10237   */\n      0x00\n        /* \"#utility.yul\":10260:10266   */\n      dup3\n        /* \"#utility.yul\":10255:10258   */\n      dup3\n        /* \"#utility.yul\":10248:10267   */\n      mstore\n        /* \"#utility.yul\":10300:10304   */\n      0x20\n        /* \"#utility.yul\":10295:10298   */\n      dup3\n        /* \"#utility.yul\":10291:10305   */\n      add\n        /* \"#utility.yul\":10276:10305   */\n      swap1\n      pop\n        /* \"#utility.yul\":10152:10311   */\n      swap3\n      swap2\n      pop\n      pop\n      jump\t// out\n        /* \"#utility.yul\":10317:10563   */\n    tag_214:\n        /* \"#utility.yul\":10398:10399   */\n      0x00\n        /* \"#utility.yul\":10408:10521   */\n    tag_365:\n        /* \"#utility.yul\":10422:10428   */\n      dup4\n        /* \"#utility.yul\":10419:10420   */\n      dup2\n        /* \"#utility.yul\":10416:10429   */\n      lt\n        /* \"#utility.yul\":10408:10521   */\n      iszero\n      tag_367\n      jumpi\n        /* \"#utility.yul\":10507:10508   */\n      dup1\n        /* \"#utility.yul\":10502:10505   */\n      dup3\n        /* \"#utility.yul\":10498:10509   */\n      add\n        /* \"#utility.yul\":10492:10510   */\n      mload\n        /* \"#utility.yul\":10488:10489   */\n      dup2\n        /* \"#utility.yul\":10483:10486   */\n      dup5\n        /* \"#utility.yul\":10479:10490   */\n      add\n        /* \"#utility.yul\":10472:10511   */\n      mstore\n        /* \"#utility.yul\":10444:10446   */\n      0x20\n        /* \"#utility.yul\":10441:10442   */\n      dup2\n        /* \"#utility.yul\":10437:10447   */\n      add\n        /* \"#utility.yul\":10432:10447   */\n      swap1\n      pop\n        /* \"#utility.yul\":10408:10521   */\n      jump(tag_365)\n    tag_367:\n        /* \"#utility.yul\":10555:10556   */\n      0x00\n        /* \"#utility.yul\":10546:10552   */\n      dup5\n        /* \"#utility.yul\":10541:10544   */\n      dup5\n        /* \"#utility.yul\":10537:10553   */\n      add\n        /* \"#utility.yul\":10530:10557   */\n      mstore\n        /* \"#utility.yul\":10379:10563   */\n      pop\n        /* \"#utility.yul\":10317:10563   */\n      pop\n      pop\n      pop\n      jump\t// out\n        /* \"#utility.yul\":10569:10926   */\n    tag_215:\n        /* \"#utility.yul\":10647:10650   */\n      0x00\n        /* \"#utility.yul\":10675:10714   */\n      tag_369\n        /* \"#utility.yul\":10708:10713   */\n      dup3\n        /* \"#utility.yul\":10675:10714   */\n      tag_212\n      jump\t// in\n    tag_369:\n        /* \"#utility.yul\":10730:10791   */\n      tag_370\n        /* \"#utility.yul\":10784:10790   */\n      dup2\n        /* \"#utility.yul\":10779:10782   */\n      dup6\n        /* \"#utility.yul\":10730:10791   */\n      tag_213\n      jump\t// in\n    tag_370:\n        /* \"#utility.yul\":10723:10791   */\n      swap4\n      pop\n        /* \"#utility.yul\":10800:10865   */\n      tag_371\n        /* \"#utility.yul\":10858:10864   */\n      dup2\n        /* \"#utility.yul\":10853:10856   */\n      dup6\n        /* \"#utility.yul\":10846:10850   */\n      0x20\n        /* \"#utility.yul\":10839:10844   */\n      dup7\n        /* \"#utility.yul\":10835:10851   */\n      add\n        /* \"#utility.yul\":10800:10865   */\n      tag_214\n      jump\t// in\n    tag_371:\n        /* \"#utility.yul\":10890:10919   */\n      tag_372\n        /* \"#utility.yul\":10912:10918   */\n      dup2\n        /* \"#utility.yul\":10890:10919   */\n      tag_180\n      jump\t// in\n    tag_372:\n        /* \"#utility.yul\":10885:10888   */\n      dup5\n        /* \"#utility.yul\":10881:10920   */\n      add\n        /* \"#utility.yul\":10874:10920   */\n      swap2\n      pop\n        /* \"#utility.yul\":10651:10926   */\n      pop\n        /* \"#utility.yul\":10569:10926   */\n      swap3\n      swap2\n      pop\n      pop\n      jump\t// out\n        /* \"#utility.yul\":10932:11040   */\n    tag_216:\n        /* \"#utility.yul\":11009:11033   */\n      tag_374\n        /* \"#utility.yul\":11027:11032   */\n      dup2\n        /* \"#utility.yul\":11009:11033   */\n      tag_191\n      jump\t// in\n    tag_374:\n        /* \"#utility.yul\":11004:11007   */\n      dup3\n        /* \"#utility.yul\":10997:11034   */\n      mstore\n        /* \"#utility.yul\":10932:11040   */\n      pop\n      pop\n      jump\t// out\n        /* \"#utility.yul\":11116:11717   */\n    tag_217:\n        /* \"#utility.yul\":11225:11228   */\n      0x00\n        /* \"#utility.yul\":11261:11265   */\n      0x40\n        /* \"#utility.yul\":11256:11259   */\n      dup4\n        /* \"#utility.yul\":11252:11266   */\n      add\n        /* \"#utility.yul\":11348:11352   */\n      0x00\n        /* \"#utility.yul\":11341:11346   */\n      dup4\n        /* \"#utility.yul\":11337:11353   */\n      add\n        /* \"#utility.yul\":11331:11354   */\n      mload\n        /* \"#utility.yul\":11401:11404   */\n      dup5\n        /* \"#utility.yul\":11395:11399   */\n      dup3\n        /* \"#utility.yul\":11391:11405   */\n      sub\n        /* \"#utility.yul\":11384:11388   */\n      0x00\n        /* \"#utility.yul\":11379:11382   */\n      dup7\n        /* \"#utility.yul\":11375:11389   */\n      add\n        /* \"#utility.yul\":11368:11406   */\n      mstore\n        /* \"#utility.yul\":11427:11500   */\n      tag_376\n        /* \"#utility.yul\":11495:11499   */\n      dup3\n        /* \"#utility.yul\":11481:11493   */\n      dup3\n        /* \"#utility.yul\":11427:11500   */\n      tag_215\n      jump\t// in\n    tag_376:\n        /* \"#utility.yul\":11419:11500   */\n      swap2\n      pop\n        /* \"#utility.yul\":11276:11511   */\n      pop\n        /* \"#utility.yul\":11598:11602   */\n      0x20\n        /* \"#utility.yul\":11591:11596   */\n      dup4\n        /* \"#utility.yul\":11587:11603   */\n      add\n        /* \"#utility.yul\":11581:11604   */\n      mload\n        /* \"#utility.yul\":11617:11680   */\n      tag_377\n        /* \"#utility.yul\":11674:11678   */\n      0x20\n        /* \"#utility.yul\":11669:11672   */\n      dup7\n        /* \"#utility.yul\":11665:11679   */\n      add\n        /* \"#utility.yul\":11651:11663   */\n      dup3\n        /* \"#utility.yul\":11617:11680   */\n      tag_216\n      jump\t// in\n    tag_377:\n        /* \"#utility.yul\":11521:11690   */\n      pop\n        /* \"#utility.yul\":11707:11711   */\n      dup1\n        /* \"#utility.yul\":11700:11711   */\n      swap2\n      pop\n        /* \"#utility.yul\":11230:11717   */\n      pop\n        /* \"#utility.yul\":11116:11717   */\n      swap3\n      swap2\n      pop\n      pop\n      jump\t// out\n        /* \"#utility.yul\":11723:11979   */\n    tag_218:\n        /* \"#utility.yul\":11842:11852   */\n      0x00\n        /* \"#utility.yul\":11877:11973   */\n      tag_379\n        /* \"#utility.yul\":11969:11972   */\n      dup4\n        /* \"#utility.yul\":11961:11967   */\n      dup4\n        /* \"#utility.yul\":11877:11973   */\n      tag_217\n      jump\t// in\n    tag_379:\n        /* \"#utility.yul\":11863:11973   */\n      swap1\n      pop\n        /* \"#utility.yul\":11723:11979   */\n      swap3\n      swap2\n      pop\n      pop\n      jump\t// out\n        /* \"#utility.yul\":11985:12123   */\n    tag_219:\n        /* \"#utility.yul\":12080:12084   */\n      0x00\n        /* \"#utility.yul\":12112:12116   */\n      0x20\n        /* \"#utility.yul\":12107:12110   */\n      dup3\n        /* \"#utility.yul\":12103:12117   */\n      add\n        /* \"#utility.yul\":12095:12117   */\n      swap1\n      pop\n        /* \"#utility.yul\":11985:12123   */\n      swap2\n      swap1\n      pop\n      jump\t// out\n        /* \"#utility.yul\":12203:13294   */\n    tag_220:\n        /* \"#utility.yul\":12362:12365   */\n      0x00\n        /* \"#utility.yul\":12391:12470   */\n      tag_382\n        /* \"#utility.yul\":12464:12469   */\n      dup3\n        /* \"#utility.yul\":12391:12470   */\n      tag_209\n      jump\t// in\n    tag_382:\n        /* \"#utility.yul\":12486:12587   */\n      tag_383\n        /* \"#utility.yul\":12580:12586   */\n      dup2\n        /* \"#utility.yul\":12575:12578   */\n      dup6\n        /* \"#utility.yul\":12486:12587   */\n      tag_210\n      jump\t// in\n    tag_383:\n        /* \"#utility.yul\":12479:12587   */\n      swap4\n      pop\n        /* \"#utility.yul\":12613:12616   */\n      dup4\n        /* \"#utility.yul\":12658:12662   */\n      0x20\n        /* \"#utility.yul\":12650:12656   */\n      dup3\n        /* \"#utility.yul\":12646:12663   */\n      mul\n        /* \"#utility.yul\":12641:12644   */\n      dup6\n        /* \"#utility.yul\":12637:12664   */\n      add\n        /* \"#utility.yul\":12688:12769   */\n      tag_384\n        /* \"#utility.yul\":12763:12768   */\n      dup6\n        /* \"#utility.yul\":12688:12769   */\n      tag_211\n      jump\t// in\n    tag_384:\n        /* \"#utility.yul\":12792:12799   */\n      dup1\n        /* \"#utility.yul\":12823:12824   */\n      0x00\n        /* \"#utility.yul\":12808:13249   */\n    tag_385:\n        /* \"#utility.yul\":12833:12839   */\n      dup6\n        /* \"#utility.yul\":12830:12831   */\n      dup2\n        /* \"#utility.yul\":12827:12840   */\n      lt\n        /* \"#utility.yul\":12808:13249   */\n      iszero\n      tag_387\n      jumpi\n        /* \"#utility.yul\":12904:12913   */\n      dup5\n        /* \"#utility.yul\":12898:12902   */\n      dup5\n        /* \"#utility.yul\":12894:12914   */\n      sub\n        /* \"#utility.yul\":12889:12892   */\n      dup10\n        /* \"#utility.yul\":12882:12915   */\n      mstore\n        /* \"#utility.yul\":12955:12961   */\n      dup2\n        /* \"#utility.yul\":12949:12962   */\n      mload\n        /* \"#utility.yul\":12983:13097   */\n      tag_388\n        /* \"#utility.yul\":13092:13096   */\n      dup6\n        /* \"#utility.yul\":13077:13090   */\n      dup3\n        /* \"#utility.yul\":12983:13097   */\n      tag_218\n      jump\t// in\n    tag_388:\n        /* \"#utility.yul\":12975:13097   */\n      swap5\n      pop\n        /* \"#utility.yul\":13120:13205   */\n      tag_389\n        /* \"#utility.yul\":13198:13204   */\n      dup4\n        /* \"#utility.yul\":13120:13205   */\n      tag_219\n      jump\t// in\n    tag_389:\n        /* \"#utility.yul\":13110:13205   */\n      swap3\n      pop\n        /* \"#utility.yul\":13234:13238   */\n      0x20\n        /* \"#utility.yul\":13229:13232   */\n      dup11\n        /* \"#utility.yul\":13225:13239   */\n      add\n        /* \"#utility.yul\":13218:13239   */\n      swap10\n      pop\n        /* \"#utility.yul\":12868:13249   */\n      pop\n        /* \"#utility.yul\":12855:12856   */\n      0x01\n        /* \"#utility.yul\":12852:12853   */\n      dup2\n        /* \"#utility.yul\":12848:12857   */\n      add\n        /* \"#utility.yul\":12843:12857   */\n      swap1\n      pop\n        /* \"#utility.yul\":12808:13249   */\n      jump(tag_385)\n    tag_387:\n        /* \"#utility.yul\":12812:12826   */\n      pop\n        /* \"#utility.yul\":13265:13269   */\n      dup3\n        /* \"#utility.yul\":13258:13269   */\n      swap8\n      pop\n        /* \"#utility.yul\":13285:13288   */\n      dup8\n        /* \"#utility.yul\":13278:13288   */\n      swap6\n      pop\n        /* \"#utility.yul\":12367:13294   */\n      pop\n      pop\n      pop\n      pop\n      pop\n        /* \"#utility.yul\":12203:13294   */\n      swap3\n      swap2\n      pop\n      pop\n      jump\t// out\n        /* \"#utility.yul\":13366:14061   */\n    tag_221:\n        /* \"#utility.yul\":13471:13474   */\n      0x00\n        /* \"#utility.yul\":13507:13511   */\n      0x40\n        /* \"#utility.yul\":13502:13505   */\n      dup4\n        /* \"#utility.yul\":13498:13512   */\n      add\n        /* \"#utility.yul\":13594:13598   */\n      0x00\n        /* \"#utility.yul\":13587:13592   */\n      dup4\n        /* \"#utility.yul\":13583:13599   */\n      add\n        /* \"#utility.yul\":13577:13600   */\n      mload\n        /* \"#utility.yul\":13613:13694   */\n      tag_391\n        /* \"#utility.yul\":13688:13692   */\n      0x00\n        /* \"#utility.yul\":13683:13686   */\n      dup7\n        /* \"#utility.yul\":13679:13693   */\n      add\n        /* \"#utility.yul\":13665:13677   */\n      dup3\n        /* \"#utility.yul\":13613:13694   */\n      tag_202\n      jump\t// in\n    tag_391:\n        /* \"#utility.yul\":13522:13704   */\n      pop\n        /* \"#utility.yul\":13791:13795   */\n      0x20\n        /* \"#utility.yul\":13784:13789   */\n      dup4\n        /* \"#utility.yul\":13780:13796   */\n      add\n        /* \"#utility.yul\":13774:13797   */\n      mload\n        /* \"#utility.yul\":13844:13847   */\n      dup5\n        /* \"#utility.yul\":13838:13842   */\n      dup3\n        /* \"#utility.yul\":13834:13848   */\n      sub\n        /* \"#utility.yul\":13827:13831   */\n      0x20\n        /* \"#utility.yul\":13822:13825   */\n      dup7\n        /* \"#utility.yul\":13818:13832   */\n      add\n        /* \"#utility.yul\":13811:13849   */\n      mstore\n        /* \"#utility.yul\":13870:14023   */\n      tag_392\n        /* \"#utility.yul\":14018:14022   */\n      dup3\n        /* \"#utility.yul\":14004:14016   */\n      dup3\n        /* \"#utility.yul\":13870:14023   */\n      tag_220\n      jump\t// in\n    tag_392:\n        /* \"#utility.yul\":13862:14023   */\n      swap2\n      pop\n        /* \"#utility.yul\":13714:14034   */\n      pop\n        /* \"#utility.yul\":14051:14055   */\n      dup1\n        /* \"#utility.yul\":14044:14055   */\n      swap2\n      pop\n        /* \"#utility.yul\":13476:14061   */\n      pop\n        /* \"#utility.yul\":13366:14061   */\n      swap3\n      swap2\n      pop\n      pop\n      jump\t// out\n        /* \"#utility.yul\":14067:14315   */\n    tag_222:\n        /* \"#utility.yul\":14182:14192   */\n      0x00\n        /* \"#utility.yul\":14217:14309   */\n      tag_394\n        /* \"#utility.yul\":14305:14308   */\n      dup4\n        /* \"#utility.yul\":14297:14303   */\n      dup4\n        /* \"#utility.yul\":14217:14309   */\n      tag_221\n      jump\t// in\n    tag_394:\n        /* \"#utility.yul\":14203:14309   */\n      swap1\n      pop\n        /* \"#utility.yul\":14067:14315   */\n      swap3\n      swap2\n      pop\n      pop\n      jump\t// out\n        /* \"#utility.yul\":14321:14457   */\n    tag_223:\n        /* \"#utility.yul\":14414:14418   */\n      0x00\n        /* \"#utility.yul\":14446:14450   */\n      0x20\n        /* \"#utility.yul\":14441:14444   */\n      dup3\n        /* \"#utility.yul\":14437:14451   */\n      add\n        /* \"#utility.yul\":14429:14451   */\n      swap1\n      pop\n        /* \"#utility.yul\":14321:14457   */\n      swap2\n      swap1\n      pop\n      jump\t// out\n        /* \"#utility.yul\":14533:15628   */\n    tag_224:\n        /* \"#utility.yul\":14698:14701   */\n      0x00\n        /* \"#utility.yul\":14727:14804   */\n      tag_397\n        /* \"#utility.yul\":14798:14803   */\n      dup3\n        /* \"#utility.yul\":14727:14804   */\n      tag_206\n      jump\t// in\n    tag_397:\n        /* \"#utility.yul\":14820:14929   */\n      tag_398\n        /* \"#utility.yul\":14922:14928   */\n      dup2\n        /* \"#utility.yul\":14917:14920   */\n      dup6\n        /* \"#utility.yul\":14820:14929   */\n      tag_207\n      jump\t// in\n    tag_398:\n        /* \"#utility.yul\":14813:14929   */\n      swap4\n      pop\n        /* \"#utility.yul\":14955:14958   */\n      dup4\n        /* \"#utility.yul\":15000:15004   */\n      0x20\n        /* \"#utility.yul\":14992:14998   */\n      dup3\n        /* \"#utility.yul\":14988:15005   */\n      mul\n        /* \"#utility.yul\":14983:14986   */\n      dup6\n        /* \"#utility.yul\":14979:15006   */\n      add\n        /* \"#utility.yul\":15030:15109   */\n      tag_399\n        /* \"#utility.yul\":15103:15108   */\n      dup6\n        /* \"#utility.yul\":15030:15109   */\n      tag_208\n      jump\t// in\n    tag_399:\n        /* \"#utility.yul\":15132:15139   */\n      dup1\n        /* \"#utility.yul\":15163:15164   */\n      0x00\n        /* \"#utility.yul\":15148:15583   */\n    tag_400:\n        /* \"#utility.yul\":15173:15179   */\n      dup6\n        /* \"#utility.yul\":15170:15171   */\n      dup2\n        /* \"#utility.yul\":15167:15180   */\n      lt\n        /* \"#utility.yul\":15148:15583   */\n      iszero\n      tag_402\n      jumpi\n        /* \"#utility.yul\":15244:15253   */\n      dup5\n        /* \"#utility.yul\":15238:15242   */\n      dup5\n        /* \"#utility.yul\":15234:15254   */\n      sub\n        /* \"#utility.yul\":15229:15232   */\n      dup10\n        /* \"#utility.yul\":15222:15255   */\n      mstore\n        /* \"#utility.yul\":15295:15301   */\n      dup2\n        /* \"#utility.yul\":15289:15302   */\n      mload\n        /* \"#utility.yul\":15323:15433   */\n      tag_403\n        /* \"#utility.yul\":15428:15432   */\n      dup6\n        /* \"#utility.yul\":15413:15426   */\n      dup3\n        /* \"#utility.yul\":15323:15433   */\n      tag_222\n      jump\t// in\n    tag_403:\n        /* \"#utility.yul\":15315:15433   */\n      swap5\n      pop\n        /* \"#utility.yul\":15456:15539   */\n      tag_404\n        /* \"#utility.yul\":15532:15538   */\n      dup4\n        /* \"#utility.yul\":15456:15539   */\n      tag_223\n      jump\t// in\n    tag_404:\n        /* \"#utility.yul\":15446:15539   */\n      swap3\n      pop\n        /* \"#utility.yul\":15568:15572   */\n      0x20\n        /* \"#utility.yul\":15563:15566   */\n      dup11\n        /* \"#utility.yul\":15559:15573   */\n      add\n        /* \"#utility.yul\":15552:15573   */\n      swap10\n      pop\n        /* \"#utility.yul\":15208:15583   */\n      pop\n        /* \"#utility.yul\":15195:15196   */\n      0x01\n        /* \"#utility.yul\":15192:15193   */\n      dup2\n        /* \"#utility.yul\":15188:15197   */\n      add\n        /* \"#utility.yul\":15183:15197   */\n      swap1\n      pop\n        /* \"#utility.yul\":15148:15583   */\n      jump(tag_400)\n    tag_402:\n        /* \"#utility.yul\":15152:15166   */\n      pop\n        /* \"#utility.yul\":15599:15603   */\n      dup3\n        /* \"#utility.yul\":15592:15603   */\n      swap8\n      pop\n        /* \"#utility.yul\":15619:15622   */\n      dup8\n        /* \"#utility.yul\":15612:15622   */\n      swap6\n      pop\n        /* \"#utility.yul\":14703:15628   */\n      pop\n      pop\n      pop\n      pop\n      pop\n        /* \"#utility.yul\":14533:15628   */\n      swap3\n      swap2\n      pop\n      pop\n      jump\t// out\n        /* \"#utility.yul\":15634:16099   */\n    tag_24:\n        /* \"#utility.yul\":15823:15827   */\n      0x00\n        /* \"#utility.yul\":15861:15863   */\n      0x20\n        /* \"#utility.yul\":15850:15859   */\n      dup3\n        /* \"#utility.yul\":15846:15864   */\n      add\n        /* \"#utility.yul\":15838:15864   */\n      swap1\n      pop\n        /* \"#utility.yul\":15910:15919   */\n      dup2\n        /* \"#utility.yul\":15904:15908   */\n      dup2\n        /* \"#utility.yul\":15900:15920   */\n      sub\n        /* \"#utility.yul\":15896:15897   */\n      0x00\n        /* \"#utility.yul\":15885:15894   */\n      dup4\n        /* \"#utility.yul\":15881:15898   */\n      add\n        /* \"#utility.yul\":15874:15921   */\n      mstore\n        /* \"#utility.yul\":15938:16092   */\n      tag_406\n        /* \"#utility.yul\":16087:16091   */\n      dup2\n        /* \"#utility.yul\":16078:16084   */\n      dup5\n        /* \"#utility.yul\":15938:16092   */\n      tag_224\n      jump\t// in\n    tag_406:\n        /* \"#utility.yul\":15930:16092   */\n      swap1\n      pop\n        /* \"#utility.yul\":15634:16099   */\n      swap3\n      swap2\n      pop\n      pop\n      jump\t// out\n        /* \"#utility.yul\":16105:16201   */\n    tag_225:\n        /* \"#utility.yul\":16142:16149   */\n      0x00\n        /* \"#utility.yul\":16171:16195   */\n      tag_408\n        /* \"#utility.yul\":16189:16194   */\n      dup3\n        /* \"#utility.yul\":16171:16195   */\n      tag_197\n      jump\t// in\n    tag_408:\n        /* \"#utility.yul\":16160:16195   */\n      swap1\n      pop\n        /* \"#utility.yul\":16105:16201   */\n      swap2\n      swap1\n      pop\n      jump\t// out\n        /* \"#utility.yul\":16207:16329   */\n    tag_226:\n        /* \"#utility.yul\":16280:16304   */\n      tag_410\n        /* \"#utility.yul\":16298:16303   */\n      dup2\n        /* \"#utility.yul\":16280:16304   */\n      tag_225\n      jump\t// in\n    tag_410:\n        /* \"#utility.yul\":16273:16278   */\n      dup2\n        /* \"#utility.yul\":16270:16305   */\n      eq\n        /* \"#utility.yul\":16260:16323   */\n      tag_411\n      jumpi\n        /* \"#utility.yul\":16319:16320   */\n      0x00\n        /* \"#utility.yul\":16316:16317   */\n      dup1\n        /* \"#utility.yul\":16309:16321   */\n      revert\n        /* \"#utility.yul\":16260:16323   */\n    tag_411:\n        /* \"#utility.yul\":16207:16329   */\n      pop\n      jump\t// out\n        /* \"#utility.yul\":16335:16474   */\n    tag_227:\n        /* \"#utility.yul\":16381:16386   */\n      0x00\n        /* \"#utility.yul\":16419:16425   */\n      dup2\n        /* \"#utility.yul\":16406:16426   */\n      calldataload\n        /* \"#utility.yul\":16397:16426   */\n      swap1\n      pop\n        /* \"#utility.yul\":16435:16468   */\n      tag_413\n        /* \"#utility.yul\":16462:16467   */\n      dup2\n        /* \"#utility.yul\":16435:16468   */\n      tag_226\n      jump\t// in\n    tag_413:\n        /* \"#utility.yul\":16335:16474   */\n      swap3\n      swap2\n      pop\n      pop\n      jump\t// out\n        /* \"#utility.yul\":16480:17099   */\n    tag_27:\n        /* \"#utility.yul\":16557:16563   */\n      0x00\n        /* \"#utility.yul\":16565:16571   */\n      dup1\n        /* \"#utility.yul\":16573:16579   */\n      0x00\n        /* \"#utility.yul\":16622:16624   */\n      0x60\n        /* \"#utility.yul\":16610:16619   */\n      dup5\n        /* \"#utility.yul\":16601:16608   */\n      dup7\n        /* \"#utility.yul\":16597:16620   */\n      sub\n        /* \"#utility.yul\":16593:16625   */\n      slt\n        /* \"#utility.yul\":16590:16709   */\n      iszero\n      tag_415\n      jumpi\n        /* \"#utility.yul\":16628:16707   */\n      tag_416\n      tag_176\n      jump\t// in\n    tag_416:\n        /* \"#utility.yul\":16590:16709   */\n    tag_415:\n        /* \"#utility.yul\":16748:16749   */\n      0x00\n        /* \"#utility.yul\":16773:16826   */\n      tag_417\n        /* \"#utility.yul\":16818:16825   */\n      dup7\n        /* \"#utility.yul\":16809:16815   */\n      dup3\n        /* \"#utility.yul\":16798:16807   */\n      dup8\n        /* \"#utility.yul\":16794:16816   */\n      add\n        /* \"#utility.yul\":16773:16826   */\n      tag_227\n      jump\t// in\n    tag_417:\n        /* \"#utility.yul\":16763:16826   */\n      swap4\n      pop\n        /* \"#utility.yul\":16719:16836   */\n      pop\n        /* \"#utility.yul\":16875:16877   */\n      0x20\n        /* \"#utility.yul\":16901:16954   */\n      tag_418\n        /* \"#utility.yul\":16946:16953   */\n      dup7\n        /* \"#utility.yul\":16937:16943   */\n      dup3\n        /* \"#utility.yul\":16926:16935   */\n      dup8\n        /* \"#utility.yul\":16922:16944   */\n      add\n        /* \"#utility.yul\":16901:16954   */\n      tag_227\n      jump\t// in\n    tag_418:\n        /* \"#utility.yul\":16891:16954   */\n      swap3\n      pop\n        /* \"#utility.yul\":16846:16964   */\n      pop\n        /* \"#utility.yul\":17003:17005   */\n      0x40\n        /* \"#utility.yul\":17029:17082   */\n      tag_419\n        /* \"#utility.yul\":17074:17081   */\n      dup7\n        /* \"#utility.yul\":17065:17071   */\n      dup3\n        /* \"#utility.yul\":17054:17063   */\n      dup8\n        /* \"#utility.yul\":17050:17072   */\n      add\n        /* \"#utility.yul\":17029:17082   */\n      tag_227\n      jump\t// in\n    tag_419:\n        /* \"#utility.yul\":17019:17082   */\n      swap2\n      pop\n        /* \"#utility.yul\":16974:17092   */\n      pop\n        /* \"#utility.yul\":16480:17099   */\n      swap3\n      pop\n      swap3\n      pop\n      swap3\n      jump\t// out\n        /* \"#utility.yul\":17105:17195   */\n    tag_228:\n        /* \"#utility.yul\":17139:17146   */\n      0x00\n        /* \"#utility.yul\":17182:17187   */\n      dup2\n        /* \"#utility.yul\":17175:17188   */\n      iszero\n        /* \"#utility.yul\":17168:17189   */\n      iszero\n        /* \"#utility.yul\":17157:17189   */\n      swap1\n      pop\n        /* \"#utility.yul\":17105:17195   */\n      swap2\n      swap1\n      pop\n      jump\t// out\n        /* \"#utility.yul\":17201:17310   */\n    tag_229:\n        /* \"#utility.yul\":17282:17303   */\n      tag_422\n        /* \"#utility.yul\":17297:17302   */\n      dup2\n        /* \"#utility.yul\":17282:17303   */\n      tag_228\n      jump\t// in\n    tag_422:\n        /* \"#utility.yul\":17277:17280   */\n      dup3\n        /* \"#utility.yul\":17270:17304   */\n      mstore\n        /* \"#utility.yul\":17201:17310   */\n      pop\n      pop\n      jump\t// out\n        /* \"#utility.yul\":17316:17526   */\n    tag_30:\n        /* \"#utility.yul\":17403:17407   */\n      0x00\n        /* \"#utility.yul\":17441:17443   */\n      0x20\n        /* \"#utility.yul\":17430:17439   */\n      dup3\n        /* \"#utility.yul\":17426:17444   */\n      add\n        /* \"#utility.yul\":17418:17444   */\n      swap1\n      pop\n        /* \"#utility.yul\":17454:17519   */\n      tag_424\n        /* \"#utility.yul\":17516:17517   */\n      0x00\n        /* \"#utility.yul\":17505:17514   */\n      dup4\n        /* \"#utility.yul\":17501:17518   */\n      add\n        /* \"#utility.yul\":17492:17498   */\n      dup5\n        /* \"#utility.yul\":17454:17519   */\n      tag_229\n      jump\t// in\n    tag_424:\n        /* \"#utility.yul\":17316:17526   */\n      swap3\n      swap2\n      pop\n      pop\n      jump\t// out\n        /* \"#utility.yul\":17532:17861   */\n    tag_36:\n        /* \"#utility.yul\":17591:17597   */\n      0x00\n        /* \"#utility.yul\":17640:17642   */\n      0x20\n        /* \"#utility.yul\":17628:17637   */\n      dup3\n        /* \"#utility.yul\":17619:17626   */\n      dup5\n        /* \"#utility.yul\":17615:17638   */\n      sub\n        /* \"#utility.yul\":17611:17643   */\n      slt\n        /* \"#utility.yul\":17608:17727   */\n      iszero\n      tag_426\n      jumpi\n        /* \"#utility.yul\":17646:17725   */\n      tag_427\n      tag_176\n      jump\t// in\n    tag_427:\n        /* \"#utility.yul\":17608:17727   */\n    tag_426:\n        /* \"#utility.yul\":17766:17767   */\n      0x00\n        /* \"#utility.yul\":17791:17844   */\n      tag_428\n        /* \"#utility.yul\":17836:17843   */\n      dup5\n        /* \"#utility.yul\":17827:17833   */\n      dup3\n        /* \"#utility.yul\":17816:17825   */\n      dup6\n        /* \"#utility.yul\":17812:17834   */\n      add\n        /* \"#utility.yul\":17791:17844   */\n      tag_227\n      jump\t// in\n    tag_428:\n        /* \"#utility.yul\":17781:17844   */\n      swap2\n      pop\n        /* \"#utility.yul\":17737:17854   */\n      pop\n        /* \"#utility.yul\":17532:17861   */\n      swap3\n      swap2\n      pop\n      pop\n      jump\t// out\n        /* \"#utility.yul\":17867:17985   */\n    tag_230:\n        /* \"#utility.yul\":17954:17978   */\n      tag_430\n        /* \"#utility.yul\":17972:17977   */\n      dup2\n        /* \"#utility.yul\":17954:17978   */\n      tag_191\n      jump\t// in\n    tag_430:\n        /* \"#utility.yul\":17949:17952   */\n      dup3\n        /* \"#utility.yul\":17942:17979   */\n      mstore\n        /* \"#utility.yul\":17867:17985   */\n      pop\n      pop\n      jump\t// out\n        /* \"#utility.yul\":17991:18421   */\n    tag_39:\n        /* \"#utility.yul\":18134:18138   */\n      0x00\n        /* \"#utility.yul\":18172:18174   */\n      0x60\n        /* \"#utility.yul\":18161:18170   */\n      dup3\n        /* \"#utility.yul\":18157:18175   */\n      add\n        /* \"#utility.yul\":18149:18175   */\n      swap1\n      pop\n        /* \"#utility.yul\":18185:18250   */\n      tag_432\n        /* \"#utility.yul\":18247:18248   */\n      0x00\n        /* \"#utility.yul\":18236:18245   */\n      dup4\n        /* \"#utility.yul\":18232:18249   */\n      add\n        /* \"#utility.yul\":18223:18229   */\n      dup7\n        /* \"#utility.yul\":18185:18250   */\n      tag_229\n      jump\t// in\n    tag_432:\n        /* \"#utility.yul\":18260:18332   */\n      tag_433\n        /* \"#utility.yul\":18328:18330   */\n      0x20\n        /* \"#utility.yul\":18317:18326   */\n      dup4\n        /* \"#utility.yul\":18313:18331   */\n      add\n        /* \"#utility.yul\":18304:18310   */\n      dup6\n        /* \"#utility.yul\":18260:18332   */\n      tag_230\n      jump\t// in\n    tag_433:\n        /* \"#utility.yul\":18342:18414   */\n      tag_434\n        /* \"#utility.yul\":18410:18412   */\n      0x40\n        /* \"#utility.yul\":18399:18408   */\n      dup4\n        /* \"#utility.yul\":18395:18413   */\n      add\n        /* \"#utility.yul\":18386:18392   */\n      dup5\n        /* \"#utility.yul\":18342:18414   */\n      tag_230\n      jump\t// in\n    tag_434:\n        /* \"#utility.yul\":17991:18421   */\n      swap5\n      swap4\n      pop\n      pop\n      pop\n      pop\n      jump\t// out\n        /* \"#utility.yul\":18427:18756   */\n    tag_42:\n        /* \"#utility.yul\":18486:18492   */\n      0x00\n        /* \"#utility.yul\":18535:18537   */\n      0x20\n        /* \"#utility.yul\":18523:18532   */\n      dup3\n        /* \"#utility.yul\":18514:18521   */\n      dup5\n        /* \"#utility.yul\":18510:18533   */\n      sub\n        /* \"#utility.yul\":18506:18538   */\n      slt\n        /* \"#utility.yul\":18503:18622   */\n      iszero\n      tag_436\n      jumpi\n        /* \"#utility.yul\":18541:18620   */\n      tag_437\n      tag_176\n      jump\t// in\n    tag_437:\n        /* \"#utility.yul\":18503:18622   */\n    tag_436:\n        /* \"#utility.yul\":18661:18662   */\n      0x00\n        /* \"#utility.yul\":18686:18739   */\n      tag_438\n        /* \"#utility.yul\":18731:18738   */\n      dup5\n        /* \"#utility.yul\":18722:18728   */\n      dup3\n        /* \"#utility.yul\":18711:18720   */\n      dup6\n        /* \"#utility.yul\":18707:18729   */\n      add\n        /* \"#utility.yul\":18686:18739   */\n      tag_193\n      jump\t// in\n    tag_438:\n        /* \"#utility.yul\":18676:18739   */\n      swap2\n      pop\n        /* \"#utility.yul\":18632:18749   */\n      pop\n        /* \"#utility.yul\":18427:18756   */\n      swap3\n      swap2\n      pop\n      pop\n      jump\t// out\n        /* \"#utility.yul\":18762:18929   */\n    tag_231:\n        /* \"#utility.yul\":18867:18922   */\n      tag_440\n        /* \"#utility.yul\":18916:18921   */\n      dup2\n        /* \"#utility.yul\":18867:18922   */\n      tag_201\n      jump\t// in\n    tag_440:\n        /* \"#utility.yul\":18862:18865   */\n      dup3\n        /* \"#utility.yul\":18855:18923   */\n      mstore\n        /* \"#utility.yul\":18762:18929   */\n      pop\n      pop\n      jump\t// out\n        /* \"#utility.yul\":18935:19193   */\n    tag_45:\n        /* \"#utility.yul\":19046:19050   */\n      0x00\n        /* \"#utility.yul\":19084:19086   */\n      0x20\n        /* \"#utility.yul\":19073:19082   */\n      dup3\n        /* \"#utility.yul\":19069:19087   */\n      add\n        /* \"#utility.yul\":19061:19087   */\n      swap1\n      pop\n        /* \"#utility.yul\":19097:19186   */\n      tag_442\n        /* \"#utility.yul\":19183:19184   */\n      0x00\n        /* \"#utility.yul\":19172:19181   */\n      dup4\n        /* \"#utility.yul\":19168:19185   */\n      add\n        /* \"#utility.yul\":19159:19165   */\n      dup5\n        /* \"#utility.yul\":19097:19186   */\n      tag_231\n      jump\t// in\n    tag_442:\n        /* \"#utility.yul\":18935:19193   */\n      swap3\n      swap2\n      pop\n      pop\n      jump\t// out\n        /* \"#utility.yul\":19199:19317   */\n    tag_232:\n        /* \"#utility.yul\":19286:19310   */\n      tag_444\n        /* \"#utility.yul\":19304:19309   */\n      dup2\n        /* \"#utility.yul\":19286:19310   */\n      tag_225\n      jump\t// in\n    tag_444:\n        /* \"#utility.yul\":19281:19284   */\n      dup3\n        /* \"#utility.yul\":19274:19311   */\n      mstore\n        /* \"#utility.yul\":19199:19317   */\n      pop\n      pop\n      jump\t// out\n        /* \"#utility.yul\":19323:19545   */\n    tag_50:\n        /* \"#utility.yul\":19416:19420   */\n      0x00\n        /* \"#utility.yul\":19454:19456   */\n      0x20\n        /* \"#utility.yul\":19443:19452   */\n      dup3\n        /* \"#utility.yul\":19439:19457   */\n      add\n        /* \"#utility.yul\":19431:19457   */\n      swap1\n      pop\n        /* \"#utility.yul\":19467:19538   */\n      tag_446\n        /* \"#utility.yul\":19535:19536   */\n      0x00\n        /* \"#utility.yul\":19524:19533   */\n      dup4\n        /* \"#utility.yul\":19520:19537   */\n      add\n        /* \"#utility.yul\":19511:19517   */\n      dup5\n        /* \"#utility.yul\":19467:19538   */\n      tag_232\n      jump\t// in\n    tag_446:\n        /* \"#utility.yul\":19323:19545   */\n      swap3\n      swap2\n      pop\n      pop\n      jump\t// out\n        /* \"#utility.yul\":19551:19637   */\n    tag_233:\n        /* \"#utility.yul\":19586:19593   */\n      0x00\n        /* \"#utility.yul\":19626:19630   */\n      0xff\n        /* \"#utility.yul\":19619:19624   */\n      dup3\n        /* \"#utility.yul\":19615:19631   */\n      and\n        /* \"#utility.yul\":19604:19631   */\n      swap1\n      pop\n        /* \"#utility.yul\":19551:19637   */\n      swap2\n      swap1\n      pop\n      jump\t// out\n        /* \"#utility.yul\":19643:19761   */\n    tag_234:\n        /* \"#utility.yul\":19714:19736   */\n      tag_449\n        /* \"#utility.yul\":19730:19735   */\n      dup2\n        /* \"#utility.yul\":19714:19736   */\n      tag_233\n      jump\t// in\n    tag_449:\n        /* \"#utility.yul\":19707:19712   */\n      dup2\n        /* \"#utility.yul\":19704:19737   */\n      eq\n        /* \"#utility.yul\":19694:19755   */\n      tag_450\n      jumpi\n        /* \"#utility.yul\":19751:19752   */\n      0x00\n        /* \"#utility.yul\":19748:19749   */\n      dup1\n        /* \"#utility.yul\":19741:19753   */\n      revert\n        /* \"#utility.yul\":19694:19755   */\n    tag_450:\n        /* \"#utility.yul\":19643:19761   */\n      pop\n      jump\t// out\n        /* \"#utility.yul\":19767:19902   */\n    tag_235:\n        /* \"#utility.yul\":19811:19816   */\n      0x00\n        /* \"#utility.yul\":19849:19855   */\n      dup2\n        /* \"#utility.yul\":19836:19856   */\n      calldataload\n        /* \"#utility.yul\":19827:19856   */\n      swap1\n      pop\n        /* \"#utility.yul\":19865:19896   */\n      tag_452\n        /* \"#utility.yul\":19890:19895   */\n      dup2\n        /* \"#utility.yul\":19865:19896   */\n      tag_234\n      jump\t// in\n    tag_452:\n        /* \"#utility.yul\":19767:19902   */\n      swap3\n      swap2\n      pop\n      pop\n      jump\t// out\n        /* \"#utility.yul\":19908:20378   */\n    tag_53:\n        /* \"#utility.yul\":19974:19980   */\n      0x00\n        /* \"#utility.yul\":19982:19988   */\n      dup1\n        /* \"#utility.yul\":20031:20033   */\n      0x40\n        /* \"#utility.yul\":20019:20028   */\n      dup4\n        /* \"#utility.yul\":20010:20017   */\n      dup6\n        /* \"#utility.yul\":20006:20029   */\n      sub\n        /* \"#utility.yul\":20002:20034   */\n      slt\n        /* \"#utility.yul\":19999:20118   */\n      iszero\n      tag_454\n      jumpi\n        /* \"#utility.yul\":20037:20116   */\n      tag_455\n      tag_176\n      jump\t// in\n    tag_455:\n        /* \"#utility.yul\":19999:20118   */\n    tag_454:\n        /* \"#utility.yul\":20157:20158   */\n      0x00\n        /* \"#utility.yul\":20182:20235   */\n      tag_456\n        /* \"#utility.yul\":20227:20234   */\n      dup6\n        /* \"#utility.yul\":20218:20224   */\n      dup3\n        /* \"#utility.yul\":20207:20216   */\n      dup7\n        /* \"#utility.yul\":20203:20225   */\n      add\n        /* \"#utility.yul\":20182:20235   */\n      tag_227\n      jump\t// in\n    tag_456:\n        /* \"#utility.yul\":20172:20235   */\n      swap3\n      pop\n        /* \"#utility.yul\":20128:20245   */\n      pop\n        /* \"#utility.yul\":20284:20286   */\n      0x20\n        /* \"#utility.yul\":20310:20361   */\n      tag_457\n        /* \"#utility.yul\":20353:20360   */\n      dup6\n        /* \"#utility.yul\":20344:20350   */\n      dup3\n        /* \"#utility.yul\":20333:20342   */\n      dup7\n        /* \"#utility.yul\":20329:20351   */\n      add\n        /* \"#utility.yul\":20310:20361   */\n      tag_235\n      jump\t// in\n    tag_457:\n        /* \"#utility.yul\":20300:20361   */\n      swap2\n      pop\n        /* \"#utility.yul\":20255:20371   */\n      pop\n        /* \"#utility.yul\":19908:20378   */\n      swap3\n      pop\n      swap3\n      swap1\n      pop\n      jump\t// out\n        /* \"#utility.yul\":20384:20553   */\n    tag_236:\n        /* \"#utility.yul\":20468:20479   */\n      0x00\n        /* \"#utility.yul\":20502:20508   */\n      dup3\n        /* \"#utility.yul\":20497:20500   */\n      dup3\n        /* \"#utility.yul\":20490:20509   */\n      mstore\n        /* \"#utility.yul\":20542:20546   */\n      0x20\n        /* \"#utility.yul\":20537:20540   */\n      dup3\n        /* \"#utility.yul\":20533:20547   */\n      add\n        /* \"#utility.yul\":20518:20547   */\n      swap1\n      pop\n        /* \"#utility.yul\":20384:20553   */\n      swap3\n      swap2\n      pop\n      pop\n      jump\t// out\n        /* \"#utility.yul\":20559:20936   */\n    tag_237:\n        /* \"#utility.yul\":20647:20650   */\n      0x00\n        /* \"#utility.yul\":20675:20714   */\n      tag_460\n        /* \"#utility.yul\":20708:20713   */\n      dup3\n        /* \"#utility.yul\":20675:20714   */\n      tag_212\n      jump\t// in\n    tag_460:\n        /* \"#utility.yul\":20730:20801   */\n      tag_461\n        /* \"#utility.yul\":20794:20800   */\n      dup2\n        /* \"#utility.yul\":20789:20792   */\n      dup6\n        /* \"#utility.yul\":20730:20801   */\n      tag_236\n      jump\t// in\n    tag_461:\n        /* \"#utility.yul\":20723:20801   */\n      swap4\n      pop\n        /* \"#utility.yul\":20810:20875   */\n      tag_462\n        /* \"#utility.yul\":20868:20874   */\n      dup2\n        /* \"#utility.yul\":20863:20866   */\n      dup6\n        /* \"#utility.yul\":20856:20860   */\n      0x20\n        /* \"#utility.yul\":20849:20854   */\n      dup7\n        /* \"#utility.yul\":20845:20861   */\n      add\n        /* \"#utility.yul\":20810:20875   */\n      tag_214\n      jump\t// in\n    tag_462:\n        /* \"#utility.yul\":20900:20929   */\n      tag_463\n        /* \"#utility.yul\":20922:20928   */\n      dup2\n        /* \"#utility.yul\":20900:20929   */\n      tag_180\n      jump\t// in\n    tag_463:\n        /* \"#utility.yul\":20895:20898   */\n      dup5\n        /* \"#utility.yul\":20891:20930   */\n      add\n        /* \"#utility.yul\":20884:20930   */\n      swap2\n      pop\n        /* \"#utility.yul\":20651:20936   */\n      pop\n        /* \"#utility.yul\":20559:20936   */\n      swap3\n      swap2\n      pop\n      pop\n      jump\t// out\n        /* \"#utility.yul\":20942:21066   */\n    tag_238:\n        /* \"#utility.yul\":21019:21025   */\n      0x00\n        /* \"#utility.yul\":21053:21058   */\n      dup2\n        /* \"#utility.yul\":21047:21059   */\n      mload\n        /* \"#utility.yul\":21037:21059   */\n      swap1\n      pop\n        /* \"#utility.yul\":20942:21066   */\n      swap2\n      swap1\n      pop\n      jump\t// out\n        /* \"#utility.yul\":21072:21266   */\n    tag_239:\n        /* \"#utility.yul\":21181:21192   */\n      0x00\n        /* \"#utility.yul\":21215:21221   */\n      dup3\n        /* \"#utility.yul\":21210:21213   */\n      dup3\n        /* \"#utility.yul\":21203:21222   */\n      mstore\n        /* \"#utility.yul\":21255:21259   */\n      0x20\n        /* \"#utility.yul\":21250:21253   */\n      dup3\n        /* \"#utility.yul\":21246:21260   */\n      add\n        /* \"#utility.yul\":21231:21260   */\n      swap1\n      pop\n        /* \"#utility.yul\":21072:21266   */\n      swap3\n      swap2\n      pop\n      pop\n      jump\t// out\n        /* \"#utility.yul\":21272:21414   */\n    tag_240:\n        /* \"#utility.yul\":21349:21353   */\n      0x00\n        /* \"#utility.yul\":21372:21375   */\n      dup2\n        /* \"#utility.yul\":21364:21375   */\n      swap1\n      pop\n        /* \"#utility.yul\":21402:21406   */\n      0x20\n        /* \"#utility.yul\":21397:21400   */\n      dup3\n        /* \"#utility.yul\":21393:21407   */\n      add\n        /* \"#utility.yul\":21385:21407   */\n      swap1\n      pop\n        /* \"#utility.yul\":21272:21414   */\n      swap2\n      swap1\n      pop\n      jump\t// out\n        /* \"#utility.yul\":21420:21616   */\n    tag_241:\n        /* \"#utility.yul\":21509:21519   */\n      0x00\n        /* \"#utility.yul\":21544:21610   */\n      tag_468\n        /* \"#utility.yul\":21606:21609   */\n      dup4\n        /* \"#utility.yul\":21598:21604   */\n      dup4\n        /* \"#utility.yul\":21544:21610   */\n      tag_215\n      jump\t// in\n    tag_468:\n        /* \"#utility.yul\":21530:21610   */\n      swap1\n      pop\n        /* \"#utility.yul\":21420:21616   */\n      swap3\n      swap2\n      pop\n      pop\n      jump\t// out\n        /* \"#utility.yul\":21622:21745   */\n    tag_242:\n        /* \"#utility.yul\":21702:21706   */\n      0x00\n        /* \"#utility.yul\":21734:21738   */\n      0x20\n        /* \"#utility.yul\":21729:21732   */\n      dup3\n        /* \"#utility.yul\":21725:21739   */\n      add\n        /* \"#utility.yul\":21717:21739   */\n      swap1\n      pop\n        /* \"#utility.yul\":21622:21745   */\n      swap2\n      swap1\n      pop\n      jump\t// out\n        /* \"#utility.yul\":21779:22770   */\n    tag_243:\n        /* \"#utility.yul\":21918:21921   */\n      0x00\n        /* \"#utility.yul\":21947:22011   */\n      tag_471\n        /* \"#utility.yul\":22005:22010   */\n      dup3\n        /* \"#utility.yul\":21947:22011   */\n      tag_238\n      jump\t// in\n    tag_471:\n        /* \"#utility.yul\":22027:22123   */\n      tag_472\n        /* \"#utility.yul\":22116:22122   */\n      dup2\n        /* \"#utility.yul\":22111:22114   */\n      dup6\n        /* \"#utility.yul\":22027:22123   */\n      tag_239\n      jump\t// in\n    tag_472:\n        /* \"#utility.yul\":22020:22123   */\n      swap4\n      pop\n        /* \"#utility.yul\":22149:22152   */\n      dup4\n        /* \"#utility.yul\":22194:22198   */\n      0x20\n        /* \"#utility.yul\":22186:22192   */\n      dup3\n        /* \"#utility.yul\":22182:22199   */\n      mul\n        /* \"#utility.yul\":22177:22180   */\n      dup6\n        /* \"#utility.yul\":22173:22200   */\n      add\n        /* \"#utility.yul\":22224:22290   */\n      tag_473\n        /* \"#utility.yul\":22284:22289   */\n      dup6\n        /* \"#utility.yul\":22224:22290   */\n      tag_240\n      jump\t// in\n    tag_473:\n        /* \"#utility.yul\":22313:22320   */\n      dup1\n        /* \"#utility.yul\":22344:22345   */\n      0x00\n        /* \"#utility.yul\":22329:22725   */\n    tag_474:\n        /* \"#utility.yul\":22354:22360   */\n      dup6\n        /* \"#utility.yul\":22351:22352   */\n      dup2\n        /* \"#utility.yul\":22348:22361   */\n      lt\n        /* \"#utility.yul\":22329:22725   */\n      iszero\n      tag_476\n      jumpi\n        /* \"#utility.yul\":22425:22434   */\n      dup5\n        /* \"#utility.yul\":22419:22423   */\n      dup5\n        /* \"#utility.yul\":22415:22435   */\n      sub\n        /* \"#utility.yul\":22410:22413   */\n      dup10\n        /* \"#utility.yul\":22403:22436   */\n      mstore\n        /* \"#utility.yul\":22476:22482   */\n      dup2\n        /* \"#utility.yul\":22470:22483   */\n      mload\n        /* \"#utility.yul\":22504:22588   */\n      tag_477\n        /* \"#utility.yul\":22583:22587   */\n      dup6\n        /* \"#utility.yul\":22568:22581   */\n      dup3\n        /* \"#utility.yul\":22504:22588   */\n      tag_241\n      jump\t// in\n    tag_477:\n        /* \"#utility.yul\":22496:22588   */\n      swap5\n      pop\n        /* \"#utility.yul\":22611:22681   */\n      tag_478\n        /* \"#utility.yul\":22674:22680   */\n      dup4\n        /* \"#utility.yul\":22611:22681   */\n      tag_242\n      jump\t// in\n    tag_478:\n        /* \"#utility.yul\":22601:22681   */\n      swap3\n      pop\n        /* \"#utility.yul\":22710:22714   */\n      0x20\n        /* \"#utility.yul\":22705:22708   */\n      dup11\n        /* \"#utility.yul\":22701:22715   */\n      add\n        /* \"#utility.yul\":22694:22715   */\n      swap10\n      pop\n        /* \"#utility.yul\":22389:22725   */\n      pop\n        /* \"#utility.yul\":22376:22377   */\n      0x01\n        /* \"#utility.yul\":22373:22374   */\n      dup2\n        /* \"#utility.yul\":22369:22378   */\n      add\n        /* \"#utility.yul\":22364:22378   */\n      swap1\n      pop\n        /* \"#utility.yul\":22329:22725   */\n      jump(tag_474)\n    tag_476:\n        /* \"#utility.yul\":22333:22347   */\n      pop\n        /* \"#utility.yul\":22741:22745   */\n      dup3\n        /* \"#utility.yul\":22734:22745   */\n      swap8\n      pop\n        /* \"#utility.yul\":22761:22764   */\n      dup8\n        /* \"#utility.yul\":22754:22764   */\n      swap6\n      pop\n        /* \"#utility.yul\":21923:22770   */\n      pop\n      pop\n      pop\n      pop\n      pop\n        /* \"#utility.yul\":21779:22770   */\n      swap3\n      swap2\n      pop\n      pop\n      jump\t// out\n        /* \"#utility.yul\":22776:23813   */\n    tag_59:\n        /* \"#utility.yul\":23091:23095   */\n      0x00\n        /* \"#utility.yul\":23129:23132   */\n      0xa0\n        /* \"#utility.yul\":23118:23127   */\n      dup3\n        /* \"#utility.yul\":23114:23133   */\n      add\n        /* \"#utility.yul\":23106:23133   */\n      swap1\n      pop\n        /* \"#utility.yul\":23143:23214   */\n      tag_480\n        /* \"#utility.yul\":23211:23212   */\n      0x00\n        /* \"#utility.yul\":23200:23209   */\n      dup4\n        /* \"#utility.yul\":23196:23213   */\n      add\n        /* \"#utility.yul\":23187:23193   */\n      dup9\n        /* \"#utility.yul\":23143:23214   */\n      tag_232\n      jump\t// in\n    tag_480:\n        /* \"#utility.yul\":23261:23270   */\n      dup2\n        /* \"#utility.yul\":23255:23259   */\n      dup2\n        /* \"#utility.yul\":23251:23271   */\n      sub\n        /* \"#utility.yul\":23246:23248   */\n      0x20\n        /* \"#utility.yul\":23235:23244   */\n      dup4\n        /* \"#utility.yul\":23231:23249   */\n      add\n        /* \"#utility.yul\":23224:23272   */\n      mstore\n        /* \"#utility.yul\":23289:23367   */\n      tag_481\n        /* \"#utility.yul\":23362:23366   */\n      dup2\n        /* \"#utility.yul\":23353:23359   */\n      dup8\n        /* \"#utility.yul\":23289:23367   */\n      tag_237\n      jump\t// in\n    tag_481:\n        /* \"#utility.yul\":23281:23367   */\n      swap1\n      pop\n        /* \"#utility.yul\":23414:23423   */\n      dup2\n        /* \"#utility.yul\":23408:23412   */\n      dup2\n        /* \"#utility.yul\":23404:23424   */\n      sub\n        /* \"#utility.yul\":23399:23401   */\n      0x40\n        /* \"#utility.yul\":23388:23397   */\n      dup4\n        /* \"#utility.yul\":23384:23402   */\n      add\n        /* \"#utility.yul\":23377:23425   */\n      mstore\n        /* \"#utility.yul\":23442:23520   */\n      tag_482\n        /* \"#utility.yul\":23515:23519   */\n      dup2\n        /* \"#utility.yul\":23506:23512   */\n      dup7\n        /* \"#utility.yul\":23442:23520   */\n      tag_237\n      jump\t// in\n    tag_482:\n        /* \"#utility.yul\":23434:23520   */\n      swap1\n      pop\n        /* \"#utility.yul\":23567:23576   */\n      dup2\n        /* \"#utility.yul\":23561:23565   */\n      dup2\n        /* \"#utility.yul\":23557:23577   */\n      sub\n        /* \"#utility.yul\":23552:23554   */\n      0x60\n        /* \"#utility.yul\":23541:23550   */\n      dup4\n        /* \"#utility.yul\":23537:23555   */\n      add\n        /* \"#utility.yul\":23530:23578   */\n      mstore\n        /* \"#utility.yul\":23595:23723   */\n      tag_483\n        /* \"#utility.yul\":23718:23722   */\n      dup2\n        /* \"#utility.yul\":23709:23715   */\n      dup6\n        /* \"#utility.yul\":23595:23723   */\n      tag_243\n      jump\t// in\n    tag_483:\n        /* \"#utility.yul\":23587:23723   */\n      swap1\n      pop\n        /* \"#utility.yul\":23733:23806   */\n      tag_484\n        /* \"#utility.yul\":23801:23804   */\n      0x80\n        /* \"#utility.yul\":23790:23799   */\n      dup4\n        /* \"#utility.yul\":23786:23805   */\n      add\n        /* \"#utility.yul\":23777:23783   */\n      dup5\n        /* \"#utility.yul\":23733:23806   */\n      tag_230\n      jump\t// in\n    tag_484:\n        /* \"#utility.yul\":22776:23813   */\n      swap7\n      swap6\n      pop\n      pop\n      pop\n      pop\n      pop\n      pop\n      jump\t// out\n        /* \"#utility.yul\":23819:23999   */\n    tag_74:\n        /* \"#utility.yul\":23867:23944   */\n      0x4e487b7100000000000000000000000000000000000000000000000000000000\n        /* \"#utility.yul\":23864:23865   */\n      0x00\n        /* \"#utility.yul\":23857:23945   */\n      mstore\n        /* \"#utility.yul\":23964:23968   */\n      0x32\n        /* \"#utility.yul\":23961:23962   */\n      0x04\n        /* \"#utility.yul\":23954:23969   */\n      mstore\n        /* \"#utility.yul\":23988:23992   */\n      0x24\n        /* \"#utility.yul\":23985:23986   */\n      0x00\n        /* \"#utility.yul\":23978:23993   */\n      revert\n        /* \"#utility.yul\":24005:24121   */\n    tag_244:\n        /* \"#utility.yul\":24075:24096   */\n      tag_487\n        /* \"#utility.yul\":24090:24095   */\n      dup2\n        /* \"#utility.yul\":24075:24096   */\n      tag_228\n      jump\t// in\n    tag_487:\n        /* \"#utility.yul\":24068:24073   */\n      dup2\n        /* \"#utility.yul\":24065:24097   */\n      eq\n        /* \"#utility.yul\":24055:24115   */\n      tag_488\n      jumpi\n        /* \"#utility.yul\":24111:24112   */\n      0x00\n        /* \"#utility.yul\":24108:24109   */\n      dup1\n        /* \"#utility.yul\":24101:24113   */\n      revert\n        /* \"#utility.yul\":24055:24115   */\n    tag_488:\n        /* \"#utility.yul\":24005:24121   */\n      pop\n      jump\t// out\n        /* \"#utility.yul\":24127:24264   */\n    tag_245:\n        /* \"#utility.yul\":24181:24186   */\n      0x00\n        /* \"#utility.yul\":24212:24218   */\n      dup2\n        /* \"#utility.yul\":24206:24219   */\n      mload\n        /* \"#utility.yul\":24197:24219   */\n      swap1\n      pop\n        /* \"#utility.yul\":24228:24258   */\n      tag_490\n        /* \"#utility.yul\":24252:24257   */\n      dup2\n        /* \"#utility.yul\":24228:24258   */\n      tag_244\n      jump\t// in\n    tag_490:\n        /* \"#utility.yul\":24127:24264   */\n      swap3\n      swap2\n      pop\n      pop\n      jump\t// out\n        /* \"#utility.yul\":24270:24615   */\n    tag_79:\n        /* \"#utility.yul\":24337:24343   */\n      0x00\n        /* \"#utility.yul\":24386:24388   */\n      0x20\n        /* \"#utility.yul\":24374:24383   */\n      dup3\n        /* \"#utility.yul\":24365:24372   */\n      dup5\n        /* \"#utility.yul\":24361:24384   */\n      sub\n        /* \"#utility.yul\":24357:24389   */\n      slt\n        /* \"#utility.yul\":24354:24473   */\n      iszero\n      tag_492\n      jumpi\n        /* \"#utility.yul\":24392:24471   */\n      tag_493\n      tag_176\n      jump\t// in\n    tag_493:\n        /* \"#utility.yul\":24354:24473   */\n    tag_492:\n        /* \"#utility.yul\":24512:24513   */\n      0x00\n        /* \"#utility.yul\":24537:24598   */\n      tag_494\n        /* \"#utility.yul\":24590:24597   */\n      dup5\n        /* \"#utility.yul\":24581:24587   */\n      dup3\n        /* \"#utility.yul\":24570:24579   */\n      dup6\n        /* \"#utility.yul\":24566:24588   */\n      add\n        /* \"#utility.yul\":24537:24598   */\n      tag_245\n      jump\t// in\n    tag_494:\n        /* \"#utility.yul\":24527:24598   */\n      swap2\n      pop\n        /* \"#utility.yul\":24483:24608   */\n      pop\n        /* \"#utility.yul\":24270:24615   */\n      swap3\n      swap2\n      pop\n      pop\n      jump\t// out\n        /* \"#utility.yul\":24621:24801   */\n    tag_246:\n        /* \"#utility.yul\":24669:24746   */\n      0x4e487b7100000000000000000000000000000000000000000000000000000000\n        /* \"#utility.yul\":24666:24667   */\n      0x00\n        /* \"#utility.yul\":24659:24747   */\n      mstore\n        /* \"#utility.yul\":24766:24770   */\n      0x11\n        /* \"#utility.yul\":24763:24764   */\n      0x04\n        /* \"#utility.yul\":24756:24771   */\n      mstore\n        /* \"#utility.yul\":24790:24794   */\n      0x24\n        /* \"#utility.yul\":24787:24788   */\n      0x00\n        /* \"#utility.yul\":24780:24795   */\n      revert\n        /* \"#utility.yul\":24807:25040   */\n    tag_87:\n        /* \"#utility.yul\":24846:24849   */\n      0x00\n        /* \"#utility.yul\":24869:24893   */\n      tag_497\n        /* \"#utility.yul\":24887:24892   */\n      dup3\n        /* \"#utility.yul\":24869:24893   */\n      tag_191\n      jump\t// in\n    tag_497:\n        /* \"#utility.yul\":24860:24893   */\n      swap2\n      pop\n        /* \"#utility.yul\":24915:24981   */\n      0xffffffffffffffffffffffffffffffffffffffffffffffffffffffffffffffff\n        /* \"#utility.yul\":24908:24913   */\n      dup3\n        /* \"#utility.yul\":24905:24982   */\n      sub\n        /* \"#utility.yul\":24902:25005   */\n      tag_498\n      jumpi\n        /* \"#utility.yul\":24985:25003   */\n      tag_499\n      tag_246\n      jump\t// in\n    tag_499:\n        /* \"#utility.yul\":24902:25005   */\n    tag_498:\n        /* \"#utility.yul\":25032:25033   */\n      0x01\n        /* \"#utility.yul\":25025:25030   */\n      dup3\n        /* \"#utility.yul\":25021:25034   */\n      add\n        /* \"#utility.yul\":25014:25034   */\n      swap1\n      pop\n        /* \"#utility.yul\":24807:25040   */\n      swap2\n      swap1\n      pop\n      jump\t// out\n        /* \"#utility.yul\":25046:25382   */\n    tag_247:\n        /* \"#utility.yul\":25148:25152   */\n      0x00\n        /* \"#utility.yul\":25238:25256   */\n      0xffffffffffffffff\n        /* \"#utility.yul\":25230:25236   */\n      dup3\n        /* \"#utility.yul\":25227:25257   */\n      gt\n        /* \"#utility.yul\":25224:25280   */\n      iszero\n      tag_501\n      jumpi\n        /* \"#utility.yul\":25260:25278   */\n      tag_502\n      tag_67\n      jump\t// in\n    tag_502:\n        /* \"#utility.yul\":25224:25280   */\n    tag_501:\n        /* \"#utility.yul\":25310:25314   */\n      0x20\n        /* \"#utility.yul\":25302:25308   */\n      dup3\n        /* \"#utility.yul\":25298:25315   */\n      mul\n        /* \"#utility.yul\":25290:25315   */\n      swap1\n      pop\n        /* \"#utility.yul\":25370:25374   */\n      0x20\n        /* \"#utility.yul\":25364:25368   */\n      dup2\n        /* \"#utility.yul\":25360:25375   */\n      add\n        /* \"#utility.yul\":25352:25375   */\n      swap1\n      pop\n        /* \"#utility.yul\":25046:25382   */\n      swap2\n      swap1\n      pop\n      jump\t// out\n        /* \"#utility.yul\":25388:25505   */\n    tag_248:\n        /* \"#utility.yul\":25497:25498   */\n      0x00\n        /* \"#utility.yul\":25494:25495   */\n      dup1\n        /* \"#utility.yul\":25487:25499   */\n      revert\n        /* \"#utility.yul\":25511:25628   */\n    tag_249:\n        /* \"#utility.yul\":25620:25621   */\n      0x00\n        /* \"#utility.yul\":25617:25618   */\n      dup1\n        /* \"#utility.yul\":25610:25622   */\n      revert\n        /* \"#utility.yul\":25634:26068   */\n    tag_250:\n        /* \"#utility.yul\":25723:25728   */\n      0x00\n        /* \"#utility.yul\":25748:25814   */\n      tag_506\n        /* \"#utility.yul\":25764:25813   */\n      tag_507\n        /* \"#utility.yul\":25806:25812   */\n      dup5\n        /* \"#utility.yul\":25764:25813   */\n      tag_183\n      jump\t// in\n    tag_507:\n        /* \"#utility.yul\":25748:25814   */\n      tag_182\n      jump\t// in\n    tag_506:\n        /* \"#utility.yul\":25739:25814   */\n      swap1\n      pop\n        /* \"#utility.yul\":25837:25843   */\n      dup3\n        /* \"#utility.yul\":25830:25835   */\n      dup2\n        /* \"#utility.yul\":25823:25844   */\n      mstore\n        /* \"#utility.yul\":25875:25879   */\n      0x20\n        /* \"#utility.yul\":25868:25873   */\n      dup2\n        /* \"#utility.yul\":25864:25880   */\n      add\n        /* \"#utility.yul\":25913:25916   */\n      dup5\n        /* \"#utility.yul\":25904:25910   */\n      dup5\n        /* \"#utility.yul\":25899:25902   */\n      dup5\n        /* \"#utility.yul\":25895:25911   */\n      add\n        /* \"#utility.yul\":25892:25917   */\n      gt\n        /* \"#utility.yul\":25889:26001   */\n      iszero\n      tag_508\n      jumpi\n        /* \"#utility.yul\":25920:25999   */\n      tag_509\n      tag_179\n      jump\t// in\n    tag_509:\n        /* \"#utility.yul\":25889:26001   */\n    tag_508:\n        /* \"#utility.yul\":26010:26062   */\n      tag_510\n        /* \"#utility.yul\":26055:26061   */\n      dup5\n        /* \"#utility.yul\":26050:26053   */\n      dup3\n        /* \"#utility.yul\":26045:26048   */\n      dup6\n        /* \"#utility.yul\":26010:26062   */\n      tag_214\n      jump\t// in\n    tag_510:\n        /* \"#utility.yul\":25729:26068   */\n      pop\n        /* \"#utility.yul\":25634:26068   */\n      swap4\n      swap3\n      pop\n      pop\n      pop\n      jump\t// out\n        /* \"#utility.yul\":26088:26443   */\n    tag_251:\n        /* \"#utility.yul\":26155:26160   */\n      0x00\n        /* \"#utility.yul\":26204:26207   */\n      dup3\n        /* \"#utility.yul\":26197:26201   */\n      0x1f\n        /* \"#utility.yul\":26189:26195   */\n      dup4\n        /* \"#utility.yul\":26185:26202   */\n      add\n        /* \"#utility.yul\":26181:26208   */\n      slt\n        /* \"#utility.yul\":26171:26293   */\n      tag_512\n      jumpi\n        /* \"#utility.yul\":26212:26291   */\n      tag_513\n      tag_178\n      jump\t// in\n    tag_513:\n        /* \"#utility.yul\":26171:26293   */\n    tag_512:\n        /* \"#utility.yul\":26322:26328   */\n      dup2\n        /* \"#utility.yul\":26316:26329   */\n      mload\n        /* \"#utility.yul\":26347:26437   */\n      tag_514\n        /* \"#utility.yul\":26433:26436   */\n      dup5\n        /* \"#utility.yul\":26425:26431   */\n      dup3\n        /* \"#utility.yul\":26418:26422   */\n      0x20\n        /* \"#utility.yul\":26410:26416   */\n      dup7\n        /* \"#utility.yul\":26406:26423   */\n      add\n        /* \"#utility.yul\":26347:26437   */\n      tag_250\n      jump\t// in\n    tag_514:\n        /* \"#utility.yul\":26338:26437   */\n      swap2\n      pop\n        /* \"#utility.yul\":26161:26443   */\n      pop\n        /* \"#utility.yul\":26088:26443   */\n      swap3\n      swap2\n      pop\n      pop\n      jump\t// out\n        /* \"#utility.yul\":26449:26592   */\n    tag_252:\n        /* \"#utility.yul\":26506:26511   */\n      0x00\n        /* \"#utility.yul\":26537:26543   */\n      dup2\n        /* \"#utility.yul\":26531:26544   */\n      mload\n        /* \"#utility.yul\":26522:26544   */\n      swap1\n      pop\n        /* \"#utility.yul\":26553:26586   */\n      tag_516\n        /* \"#utility.yul\":26580:26585   */\n      dup2\n        /* \"#utility.yul\":26553:26586   */\n      tag_192\n      jump\t// in\n    tag_516:\n        /* \"#utility.yul\":26449:26592   */\n      swap3\n      swap2\n      pop\n      pop\n      jump\t// out\n        /* \"#utility.yul\":26635:27410   */\n    tag_253:\n        /* \"#utility.yul\":26720:26725   */\n      0x00\n        /* \"#utility.yul\":26764:26768   */\n      0x40\n        /* \"#utility.yul\":26752:26761   */\n      dup3\n        /* \"#utility.yul\":26747:26750   */\n      dup5\n        /* \"#utility.yul\":26743:26762   */\n      sub\n        /* \"#utility.yul\":26739:26769   */\n      slt\n        /* \"#utility.yul\":26736:26853   */\n      iszero\n      tag_518\n      jumpi\n        /* \"#utility.yul\":26772:26851   */\n      tag_519\n      tag_248\n      jump\t// in\n    tag_519:\n        /* \"#utility.yul\":26736:26853   */\n    tag_518:\n        /* \"#utility.yul\":26871:26892   */\n      tag_520\n        /* \"#utility.yul\":26887:26891   */\n      0x40\n        /* \"#utility.yul\":26871:26892   */\n      tag_182\n      jump\t// in\n    tag_520:\n        /* \"#utility.yul\":26862:26892   */\n      swap1\n      pop\n        /* \"#utility.yul\":26972:26973   */\n      0x00\n        /* \"#utility.yul\":26961:26970   */\n      dup3\n        /* \"#utility.yul\":26957:26974   */\n      add\n        /* \"#utility.yul\":26951:26975   */\n      mload\n        /* \"#utility.yul\":27002:27020   */\n      0xffffffffffffffff\n        /* \"#utility.yul\":26994:27000   */\n      dup2\n        /* \"#utility.yul\":26991:27021   */\n      gt\n        /* \"#utility.yul\":26988:27105   */\n      iszero\n      tag_521\n      jumpi\n        /* \"#utility.yul\":27024:27103   */\n      tag_522\n      tag_249\n      jump\t// in\n    tag_522:\n        /* \"#utility.yul\":26988:27105   */\n    tag_521:\n        /* \"#utility.yul\":27144:27214   */\n      tag_523\n        /* \"#utility.yul\":27210:27213   */\n      dup5\n        /* \"#utility.yul\":27201:27207   */\n      dup3\n        /* \"#utility.yul\":27190:27199   */\n      dup6\n        /* \"#utility.yul\":27186:27208   */\n      add\n        /* \"#utility.yul\":27144:27214   */\n      tag_251\n      jump\t// in\n    tag_523:\n        /* \"#utility.yul\":27137:27141   */\n      0x00\n        /* \"#utility.yul\":27130:27135   */\n      dup4\n        /* \"#utility.yul\":27126:27142   */\n      add\n        /* \"#utility.yul\":27119:27215   */\n      mstore\n        /* \"#utility.yul\":26902:27226   */\n      pop\n        /* \"#utility.yul\":27290:27292   */\n      0x20\n        /* \"#utility.yul\":27331:27391   */\n      tag_524\n        /* \"#utility.yul\":27387:27390   */\n      dup5\n        /* \"#utility.yul\":27378:27384   */\n      dup3\n        /* \"#utility.yul\":27367:27376   */\n      dup6\n        /* \"#utility.yul\":27363:27385   */\n      add\n        /* \"#utility.yul\":27331:27391   */\n      tag_252\n      jump\t// in\n    tag_524:\n        /* \"#utility.yul\":27324:27328   */\n      0x20\n        /* \"#utility.yul\":27317:27322   */\n      dup4\n        /* \"#utility.yul\":27313:27329   */\n      add\n        /* \"#utility.yul\":27306:27392   */\n      mstore\n        /* \"#utility.yul\":27236:27403   */\n      pop\n        /* \"#utility.yul\":26635:27410   */\n      swap3\n      swap2\n      pop\n      pop\n      jump\t// out\n        /* \"#utility.yul\":27455:28460   */\n    tag_254:\n        /* \"#utility.yul\":27587:27592   */\n      0x00\n        /* \"#utility.yul\":27612:27718   */\n      tag_526\n        /* \"#utility.yul\":27628:27717   */\n      tag_527\n        /* \"#utility.yul\":27710:27716   */\n      dup5\n        /* \"#utility.yul\":27628:27717   */\n      tag_247\n      jump\t// in\n    tag_527:\n        /* \"#utility.yul\":27612:27718   */\n      tag_182\n      jump\t// in\n    tag_526:\n        /* \"#utility.yul\":27603:27718   */\n      swap1\n      pop\n        /* \"#utility.yul\":27738:27743   */\n      dup1\n        /* \"#utility.yul\":27767:27773   */\n      dup4\n        /* \"#utility.yul\":27760:27765   */\n      dup3\n        /* \"#utility.yul\":27753:27774   */\n      mstore\n        /* \"#utility.yul\":27801:27805   */\n      0x20\n        /* \"#utility.yul\":27794:27799   */\n      dup3\n        /* \"#utility.yul\":27790:27806   */\n      add\n        /* \"#utility.yul\":27783:27806   */\n      swap1\n      pop\n        /* \"#utility.yul\":27854:27858   */\n      0x20\n        /* \"#utility.yul\":27846:27852   */\n      dup5\n        /* \"#utility.yul\":27842:27859   */\n      mul\n        /* \"#utility.yul\":27834:27840   */\n      dup4\n        /* \"#utility.yul\":27830:27860   */\n      add\n        /* \"#utility.yul\":27883:27886   */\n      dup6\n        /* \"#utility.yul\":27875:27881   */\n      dup2\n        /* \"#utility.yul\":27872:27887   */\n      gt\n        /* \"#utility.yul\":27869:27991   */\n      iszero\n      tag_528\n      jumpi\n        /* \"#utility.yul\":27902:27981   */\n      tag_529\n      tag_188\n      jump\t// in\n    tag_529:\n        /* \"#utility.yul\":27869:27991   */\n    tag_528:\n        /* \"#utility.yul\":28017:28023   */\n      dup4\n        /* \"#utility.yul\":28000:28454   */\n    tag_530:\n        /* \"#utility.yul\":28034:28040   */\n      dup2\n        /* \"#utility.yul\":28029:28032   */\n      dup2\n        /* \"#utility.yul\":28026:28041   */\n      lt\n        /* \"#utility.yul\":28000:28454   */\n      iszero\n      tag_532\n      jumpi\n        /* \"#utility.yul\":28116:28119   */\n      dup1\n        /* \"#utility.yul\":28110:28120   */\n      mload\n        /* \"#utility.yul\":28152:28170   */\n      0xffffffffffffffff\n        /* \"#utility.yul\":28139:28150   */\n      dup2\n        /* \"#utility.yul\":28136:28171   */\n      gt\n        /* \"#utility.yul\":28133:28255   */\n      iszero\n      tag_533\n      jumpi\n        /* \"#utility.yul\":28174:28253   */\n      tag_534\n      tag_178\n      jump\t// in\n    tag_534:\n        /* \"#utility.yul\":28133:28255   */\n    tag_533:\n        /* \"#utility.yul\":28298:28309   */\n      dup1\n        /* \"#utility.yul\":28290:28296   */\n      dup7\n        /* \"#utility.yul\":28286:28310   */\n      add\n        /* \"#utility.yul\":28336:28409   */\n      tag_535\n        /* \"#utility.yul\":28405:28408   */\n      dup10\n        /* \"#utility.yul\":28393:28403   */\n      dup3\n        /* \"#utility.yul\":28336:28409   */\n      tag_253\n      jump\t// in\n    tag_535:\n        /* \"#utility.yul\":28331:28334   */\n      dup6\n        /* \"#utility.yul\":28324:28410   */\n      mstore\n        /* \"#utility.yul\":28439:28443   */\n      0x20\n        /* \"#utility.yul\":28434:28437   */\n      dup6\n        /* \"#utility.yul\":28430:28444   */\n      add\n        /* \"#utility.yul\":28423:28444   */\n      swap5\n      pop\n        /* \"#utility.yul\":28076:28454   */\n      pop\n      pop\n        /* \"#utility.yul\":28060:28064   */\n      0x20\n        /* \"#utility.yul\":28055:28058   */\n      dup2\n        /* \"#utility.yul\":28051:28065   */\n      add\n        /* \"#utility.yul\":28044:28065   */\n      swap1\n      pop\n        /* \"#utility.yul\":28000:28454   */\n      jump(tag_530)\n    tag_532:\n        /* \"#utility.yul\":28004:28025   */\n      pop\n        /* \"#utility.yul\":27593:28460   */\n      pop\n      pop\n        /* \"#utility.yul\":27455:28460   */\n      swap4\n      swap3\n      pop\n      pop\n      pop\n      jump\t// out\n        /* \"#utility.yul\":28505:28940   */\n    tag_255:\n        /* \"#utility.yul\":28612:28617   */\n      0x00\n        /* \"#utility.yul\":28661:28664   */\n      dup3\n        /* \"#utility.yul\":28654:28658   */\n      0x1f\n        /* \"#utility.yul\":28646:28652   */\n      dup4\n        /* \"#utility.yul\":28642:28659   */\n      add\n        /* \"#utility.yul\":28638:28665   */\n      slt\n        /* \"#utility.yul\":28628:28750   */\n      tag_537\n      jumpi\n        /* \"#utility.yul\":28669:28748   */\n      tag_538\n      tag_178\n      jump\t// in\n    tag_538:\n        /* \"#utility.yul\":28628:28750   */\n    tag_537:\n        /* \"#utility.yul\":28779:28785   */\n      dup2\n        /* \"#utility.yul\":28773:28786   */\n      mload\n        /* \"#utility.yul\":28804:28934   */\n      tag_539\n        /* \"#utility.yul\":28930:28933   */\n      dup5\n        /* \"#utility.yul\":28922:28928   */\n      dup3\n        /* \"#utility.yul\":28915:28919   */\n      0x20\n        /* \"#utility.yul\":28907:28913   */\n      dup7\n        /* \"#utility.yul\":28903:28920   */\n      add\n        /* \"#utility.yul\":28804:28934   */\n      tag_254\n      jump\t// in\n    tag_539:\n        /* \"#utility.yul\":28795:28934   */\n      swap2\n      pop\n        /* \"#utility.yul\":28618:28940   */\n      pop\n        /* \"#utility.yul\":28505:28940   */\n      swap3\n      swap2\n      pop\n      pop\n      jump\t// out\n        /* \"#utility.yul\":28946:29550   */\n    tag_114:\n        /* \"#utility.yul\":29066:29072   */\n      0x00\n        /* \"#utility.yul\":29115:29117   */\n      0x20\n        /* \"#utility.yul\":29103:29112   */\n      dup3\n        /* \"#utility.yul\":29094:29101   */\n      dup5\n        /* \"#utility.yul\":29090:29113   */\n      sub\n        /* \"#utility.yul\":29086:29118   */\n      slt\n        /* \"#utility.yul\":29083:29202   */\n      iszero\n      tag_541\n      jumpi\n        /* \"#utility.yul\":29121:29200   */\n      tag_542\n      tag_176\n      jump\t// in\n    tag_542:\n        /* \"#utility.yul\":29083:29202   */\n    tag_541:\n        /* \"#utility.yul\":29262:29263   */\n      0x00\n        /* \"#utility.yul\":29251:29260   */\n      dup3\n        /* \"#utility.yul\":29247:29264   */\n      add\n        /* \"#utility.yul\":29241:29265   */\n      mload\n        /* \"#utility.yul\":29292:29310   */\n      0xffffffffffffffff\n        /* \"#utility.yul\":29284:29290   */\n      dup2\n        /* \"#utility.yul\":29281:29311   */\n      gt\n        /* \"#utility.yul\":29278:29395   */\n      iszero\n      tag_543\n      jumpi\n        /* \"#utility.yul\":29314:29393   */\n      tag_544\n      tag_177\n      jump\t// in\n    tag_544:\n        /* \"#utility.yul\":29278:29395   */\n    tag_543:\n        /* \"#utility.yul\":29419:29533   */\n      tag_545\n        /* \"#utility.yul\":29525:29532   */\n      dup5\n        /* \"#utility.yul\":29516:29522   */\n      dup3\n        /* \"#utility.yul\":29505:29514   */\n      dup6\n        /* \"#utility.yul\":29501:29523   */\n      add\n        /* \"#utility.yul\":29419:29533   */\n      tag_255\n      jump\t// in\n    tag_545:\n        /* \"#utility.yul\":29409:29533   */\n      swap2\n      pop\n        /* \"#utility.yul\":29212:29543   */\n      pop\n        /* \"#utility.yul\":28946:29550   */\n      swap3\n      swap2\n      pop\n      pop\n      jump\t// out\n        /* \"#utility.yul\":29556:29719   */\n    tag_256:\n        /* \"#utility.yul\":29696:29711   */\n      0x43616e206e6f7420726174652e00000000000000000000000000000000000000\n        /* \"#utility.yul\":29692:29693   */\n      0x00\n        /* \"#utility.yul\":29684:29690   */\n      dup3\n        /* \"#utility.yul\":29680:29694   */\n      add\n        /* \"#utility.yul\":29673:29712   */\n      mstore\n        /* \"#utility.yul\":29556:29719   */\n      pop\n      jump\t// out\n        /* \"#utility.yul\":29725:30091   */\n    tag_257:\n        /* \"#utility.yul\":29867:29870   */\n      0x00\n        /* \"#utility.yul\":29888:29955   */\n      tag_548\n        /* \"#utility.yul\":29952:29954   */\n      0x0d\n        /* \"#utility.yul\":29947:29950   */\n      dup4\n        /* \"#utility.yul\":29888:29955   */\n      tag_236\n      jump\t// in\n    tag_548:\n        /* \"#utility.yul\":29881:29955   */\n      swap2\n      pop\n        /* \"#utility.yul\":29964:30057   */\n      tag_549\n        /* \"#utility.yul\":30053:30056   */\n      dup3\n        /* \"#utility.yul\":29964:30057   */\n      tag_256\n      jump\t// in\n    tag_549:\n        /* \"#utility.yul\":30082:30084   */\n      0x20\n        /* \"#utility.yul\":30077:30080   */\n      dup3\n        /* \"#utility.yul\":30073:30085   */\n      add\n        /* \"#utility.yul\":30066:30085   */\n      swap1\n      pop\n        /* \"#utility.yul\":29725:30091   */\n      swap2\n      swap1\n      pop\n      jump\t// out\n        /* \"#utility.yul\":30097:30516   */\n    tag_134:\n        /* \"#utility.yul\":30263:30267   */\n      0x00\n        /* \"#utility.yul\":30301:30303   */\n      0x20\n        /* \"#utility.yul\":30290:30299   */\n      dup3\n        /* \"#utility.yul\":30286:30304   */\n      add\n        /* \"#utility.yul\":30278:30304   */\n      swap1\n      pop\n        /* \"#utility.yul\":30350:30359   */\n      dup2\n        /* \"#utility.yul\":30344:30348   */\n      dup2\n        /* \"#utility.yul\":30340:30360   */\n      sub\n        /* \"#utility.yul\":30336:30337   */\n      0x00\n        /* \"#utility.yul\":30325:30334   */\n      dup4\n        /* \"#utility.yul\":30321:30338   */\n      add\n        /* \"#utility.yul\":30314:30361   */\n      mstore\n        /* \"#utility.yul\":30378:30509   */\n      tag_551\n        /* \"#utility.yul\":30504:30508   */\n      dup2\n        /* \"#utility.yul\":30378:30509   */\n      tag_257\n      jump\t// in\n    tag_551:\n        /* \"#utility.yul\":30370:30509   */\n      swap1\n      pop\n        /* \"#utility.yul\":30097:30516   */\n      swap2\n      swap1\n      pop\n      jump\t// out\n        /* \"#utility.yul\":30522:30665   */\n    tag_258:\n        /* \"#utility.yul\":30579:30584   */\n      0x00\n        /* \"#utility.yul\":30610:30616   */\n      dup2\n        /* \"#utility.yul\":30604:30617   */\n      mload\n        /* \"#utility.yul\":30595:30617   */\n      swap1\n      pop\n        /* \"#utility.yul\":30626:30659   */\n      tag_553\n        /* \"#utility.yul\":30653:30658   */\n      dup2\n        /* \"#utility.yul\":30626:30659   */\n      tag_226\n      jump\t// in\n    tag_553:\n        /* \"#utility.yul\":30522:30665   */\n      swap3\n      swap2\n      pop\n      pop\n      jump\t// out\n        /* \"#utility.yul\":30671:31022   */\n    tag_141:\n        /* \"#utility.yul\":30741:30747   */\n      0x00\n        /* \"#utility.yul\":30790:30792   */\n      0x20\n        /* \"#utility.yul\":30778:30787   */\n      dup3\n        /* \"#utility.yul\":30769:30776   */\n      dup5\n        /* \"#utility.yul\":30765:30788   */\n      sub\n        /* \"#utility.yul\":30761:30793   */\n      slt\n        /* \"#utility.yul\":30758:30877   */\n      iszero\n      tag_555\n      jumpi\n        /* \"#utility.yul\":30796:30875   */\n      tag_556\n      tag_176\n      jump\t// in\n    tag_556:\n        /* \"#utility.yul\":30758:30877   */\n    tag_555:\n        /* \"#utility.yul\":30916:30917   */\n      0x00\n        /* \"#utility.yul\":30941:31005   */\n      tag_557\n        /* \"#utility.yul\":30997:31004   */\n      dup5\n        /* \"#utility.yul\":30988:30994   */\n      dup3\n        /* \"#utility.yul\":30977:30986   */\n      dup6\n        /* \"#utility.yul\":30973:30995   */\n      add\n        /* \"#utility.yul\":30941:31005   */\n      tag_258\n      jump\t// in\n    tag_557:\n        /* \"#utility.yul\":30931:31005   */\n      swap2\n      pop\n        /* \"#utility.yul\":30887:31015   */\n      pop\n        /* \"#utility.yul\":30671:31022   */\n      swap3\n      swap2\n      pop\n      pop\n      jump\t// out\n        /* \"#utility.yul\":31028:31219   */\n    tag_146:\n        /* \"#utility.yul\":31068:31071   */\n      0x00\n        /* \"#utility.yul\":31087:31107   */\n      tag_559\n        /* \"#utility.yul\":31105:31106   */\n      dup3\n        /* \"#utility.yul\":31087:31107   */\n      tag_191\n      jump\t// in\n    tag_559:\n        /* \"#utility.yul\":31082:31107   */\n      swap2\n      pop\n        /* \"#utility.yul\":31121:31141   */\n      tag_560\n        /* \"#utility.yul\":31139:31140   */\n      dup4\n        /* \"#utility.yul\":31121:31141   */\n      tag_191\n      jump\t// in\n    tag_560:\n        /* \"#utility.yul\":31116:31141   */\n      swap3\n      pop\n        /* \"#utility.yul\":31164:31165   */\n      dup3\n        /* \"#utility.yul\":31161:31162   */\n      dup3\n        /* \"#utility.yul\":31157:31166   */\n      add\n        /* \"#utility.yul\":31150:31166   */\n      swap1\n      pop\n        /* \"#utility.yul\":31185:31188   */\n      dup1\n        /* \"#utility.yul\":31182:31183   */\n      dup3\n        /* \"#utility.yul\":31179:31189   */\n      gt\n        /* \"#utility.yul\":31176:31212   */\n      iszero\n      tag_561\n      jumpi\n        /* \"#utility.yul\":31192:31210   */\n      tag_562\n      tag_246\n      jump\t// in\n    tag_562:\n        /* \"#utility.yul\":31176:31212   */\n    tag_561:\n        /* \"#utility.yul\":31028:31219   */\n      swap3\n      swap2\n      pop\n      pop\n      jump\t// out\n    stop\n\n    sub_0: assembly {\n            /* \"SimplePoll.sol\":3890:5480  contract PublicPoll is SimplePoll {... */\n          mstore(0x40, 0x80)\n            /* \"SimplePoll.sol\":3931:4121  constructor(address _creator, string memory subject, string memory descr, string[] memory proposalNames, uint duration) ... */\n          callvalue\n          dup1\n          iszero\n          tag_1\n          jumpi\n          0x00\n          dup1\n          revert\n        tag_1:\n          pop\n          mload(0x40)\n          sub(codesize, bytecodeSize)\n          dup1\n          bytecodeSize\n          dup4\n          codecopy\n          dup2\n          dup2\n          add\n          0x40\n          mstore\n          dup2\n          add\n          swap1\n          tag_2\n          swap2\n          swap1\n          tag_3\n          jump\t// in\n        tag_2:\n            /* \"SimplePoll.sol\":4068:4076  _creator */\n          dup5\n            /* \"SimplePoll.sol\":4078:4085  subject */\n          dup5\n            /* \"SimplePoll.sol\":4087:4092  descr */\n          dup5\n            /* \"SimplePoll.sol\":4094:4107  proposalNames */\n          dup5\n            /* \"SimplePoll.sol\":4109:4117  duration */\n          dup5\n            /* \"SimplePoll.sol\":1601:1609  _creator */\n          dup5\n            /* \"SimplePoll.sol\":636:644  _creator */\n          dup1\n            /* \"SimplePoll.sol\":626:633  creator */\n          0x00\n          dup1\n            /* \"SimplePoll.sol\":626:644  creator = _creator */\n          0x0100\n          exp\n          dup2\n          sload\n          dup2\n          0xffffffffffffffffffffffffffffffffffffffff\n          mul\n          not\n          and\n          swap1\n          dup4\n          0xffffffffffffffffffffffffffffffffffffffff\n          and\n          mul\n          or\n          swap1\n          sstore\n          pop\n            /* \"SimplePoll.sol\":585:652  constructor(address _creator) {... */\n          pop\n            /* \"SimplePoll.sol\":1630:1637  subject */\n          dup4\n            /* \"SimplePoll.sol\":1622:1627  topic */\n          0x01\n            /* \"SimplePoll.sol\":1622:1637  topic = subject */\n          swap1\n          dup2\n          tag_9\n          swap2\n          swap1\n          tag_10\n          jump\t// in\n        tag_9:\n          pop\n            /* \"SimplePoll.sol\":1662:1667  descr */\n          dup3\n            /* \"SimplePoll.sol\":1648:1659  description */\n          0x02\n            /* \"SimplePoll.sol\":1648:1667  description = descr */\n          swap1\n          dup2\n          tag_11\n          swap2\n          swap1\n          tag_10\n          jump\t// in\n        tag_11:\n          pop\n            /* \"SimplePoll.sol\":1707:1715  duration */\n          dup1\n            /* \"SimplePoll.sol\":1689:1704  block.timestamp */\n          timestamp\n            /* \"SimplePoll.sol\":1689:1715  block.timestamp + duration */\n          tag_12\n          swap2\n          swap1\n          tag_13\n          jump\t// in\n        tag_12:\n            /* \"SimplePoll.sol\":1678:1686  deadline */\n          0x03\n            /* \"SimplePoll.sol\":1678:1715  deadline = block.timestamp + duration */\n          dup2\n          swap1\n          sstore\n          pop\n            /* \"SimplePoll.sol\":1731:1738  uint8 i */\n          0x00\n            /* \"SimplePoll.sol\":1726:1929  for (uint8 i = 0; i < proposalNames.length; i++) {... */\n        tag_14:\n            /* \"SimplePoll.sol\":1748:1761  proposalNames */\n          dup3\n            /* \"SimplePoll.sol\":1748:1768  proposalNames.length */\n          mload\n            /* \"SimplePoll.sol\":1744:1745  i */\n          dup2\n            /* \"SimplePoll.sol\":1744:1768  i < proposalNames.length */\n          0xff\n          and\n          lt\n            /* \"SimplePoll.sol\":1726:1929  for (uint8 i = 0; i < proposalNames.length; i++) {... */\n          iszero\n          tag_15\n          jumpi\n            /* \"SimplePoll.sol\":1790:1799  proposals */\n          0x04\n            /* \"SimplePoll.sol\":1805:1916  SharedStructs.Proposal({... */\n          mload(0x40)\n          dup1\n          0x40\n          add\n          0x40\n          mstore\n          dup1\n            /* \"SimplePoll.sol\":1853:1866  proposalNames */\n          dup6\n            /* \"SimplePoll.sol\":1867:1868  i */\n          dup5\n            /* \"SimplePoll.sol\":1853:1869  proposalNames[i] */\n          0xff\n          and\n          dup2\n          mload\n          dup2\n          lt\n          tag_17\n          jumpi\n          tag_18\n          tag_19\n          jump\t// in\n        tag_18:\n        tag_17:\n          0x20\n          mul\n          0x20\n          add\n          add\n          mload\n            /* \"SimplePoll.sol\":1805:1916  SharedStructs.Proposal({... */\n          dup2\n          mstore\n          0x20\n          add\n            /* \"SimplePoll.sol\":1899:1900  0 */\n          0x00\n            /* \"SimplePoll.sol\":1805:1916  SharedStructs.Proposal({... */\n          dup2\n          mstore\n          pop\n            /* \"SimplePoll.sol\":1790:1917  proposals.push(SharedStructs.Proposal({... */\n          swap1\n          dup1\n          0x01\n          dup2\n          sload\n          add\n          dup1\n          dup3\n          sstore\n          dup1\n          swap2\n          pop\n          pop\n          0x01\n          swap1\n          sub\n          swap1\n          0x00\n          mstore\n          keccak256(0x00, 0x20)\n          swap1\n          0x02\n          mul\n          add\n          0x00\n          swap1\n          swap2\n          swap1\n          swap2\n          swap1\n          swap2\n          pop\n          0x00\n          dup3\n          add\n          mload\n          dup2\n          0x00\n          add\n          swap1\n          dup2\n          tag_21\n          swap2\n          swap1\n          tag_10\n          jump\t// in\n        tag_21:\n          pop\n          0x20\n          dup3\n          add\n          mload\n          dup2\n          0x01\n          add\n          sstore\n          pop\n          pop\n            /* \"SimplePoll.sol\":1770:1773  i++ */\n          dup1\n          dup1\n          tag_22\n          swap1\n          tag_23\n          jump\t// in\n        tag_22:\n          swap2\n          pop\n          pop\n            /* \"SimplePoll.sol\":1726:1929  for (uint8 i = 0; i < proposalNames.length; i++) {... */\n          jump(tag_14)\n        tag_15:\n          pop\n            /* \"SimplePoll.sol\":1468:1936  constructor(address _creator, string memory subject, string memory descr, string[] memory proposalNames, uint duration)... */\n          pop\n          pop\n          pop\n          pop\n          pop\n            /* \"SimplePoll.sol\":3931:4121  constructor(address _creator, string memory subject, string memory descr, string[] memory proposalNames, uint duration) ... */\n          pop\n          pop\n          pop\n          pop\n          pop\n            /* \"SimplePoll.sol\":3890:5480  contract PublicPoll is SimplePoll {... */\n          jump(tag_25)\n            /* \"#utility.yul\":7:82   */\n        tag_26:\n            /* \"#utility.yul\":40:46   */\n          0x00\n            /* \"#utility.yul\":73:75   */\n          0x40\n            /* \"#utility.yul\":67:76   */\n          mload\n            /* \"#utility.yul\":57:76   */\n          swap1\n          pop\n            /* \"#utility.yul\":7:82   */\n          swap1\n          jump\t// out\n            /* \"#utility.yul\":88:205   */\n        tag_27:\n            /* \"#utility.yul\":197:198   */\n          0x00\n            /* \"#utility.yul\":194:195   */\n          dup1\n            /* \"#utility.yul\":187:199   */\n          revert\n            /* \"#utility.yul\":211:328   */\n        tag_28:\n            /* \"#utility.yul\":320:321   */\n          0x00\n            /* \"#utility.yul\":317:318   */\n          dup1\n            /* \"#utility.yul\":310:322   */\n          revert\n            /* \"#utility.yul\":334:460   */\n        tag_29:\n            /* \"#utility.yul\":371:378   */\n          0x00\n            /* \"#utility.yul\":411:453   */\n          0xffffffffffffffffffffffffffffffffffffffff\n            /* \"#utility.yul\":404:409   */\n          dup3\n            /* \"#utility.yul\":400:454   */\n          and\n            /* \"#utility.yul\":389:454   */\n          swap1\n          pop\n            /* \"#utility.yul\":334:460   */\n          swap2\n          swap1\n          pop\n          jump\t// out\n            /* \"#utility.yul\":466:562   */\n        tag_30:\n            /* \"#utility.yul\":503:510   */\n          0x00\n            /* \"#utility.yul\":532:556   */\n          tag_76\n            /* \"#utility.yul\":550:555   */\n          dup3\n            /* \"#utility.yul\":532:556   */\n          tag_29\n          jump\t// in\n        tag_76:\n            /* \"#utility.yul\":521:556   */\n          swap1\n          pop\n            /* \"#utility.yul\":466:562   */\n          swap2\n          swap1\n          pop\n          jump\t// out\n            /* \"#utility.yul\":568:690   */\n        tag_31:\n            /* \"#utility.yul\":641:665   */\n          tag_78\n            /* \"#utility.yul\":659:664   */\n          dup2\n            /* \"#utility.yul\":641:665   */\n          tag_30\n          jump\t// in\n        tag_78:\n            /* \"#utility.yul\":634:639   */\n          dup2\n            /* \"#utility.yul\":631:666   */\n          eq\n            /* \"#utility.yul\":621:684   */\n          tag_79\n          jumpi\n            /* \"#utility.yul\":680:681   */\n          0x00\n            /* \"#utility.yul\":677:678   */\n          dup1\n            /* \"#utility.yul\":670:682   */\n          revert\n            /* \"#utility.yul\":621:684   */\n        tag_79:\n            /* \"#utility.yul\":568:690   */\n          pop\n          jump\t// out\n            /* \"#utility.yul\":696:839   */\n        tag_32:\n            /* \"#utility.yul\":753:758   */\n          0x00\n            /* \"#utility.yul\":784:790   */\n          dup2\n            /* \"#utility.yul\":778:791   */\n          mload\n            /* \"#utility.yul\":769:791   */\n          swap1\n          pop\n            /* \"#utility.yul\":800:833   */\n          tag_81\n            /* \"#utility.yul\":827:832   */\n          dup2\n            /* \"#utility.yul\":800:833   */\n          tag_31\n          jump\t// in\n        tag_81:\n            /* \"#utility.yul\":696:839   */\n          swap3\n          swap2\n          pop\n          pop\n          jump\t// out\n            /* \"#utility.yul\":845:962   */\n        tag_33:\n            /* \"#utility.yul\":954:955   */\n          0x00\n            /* \"#utility.yul\":951:952   */\n          dup1\n            /* \"#utility.yul\":944:956   */\n          revert\n            /* \"#utility.yul\":968:1085   */\n        tag_34:\n            /* \"#utility.yul\":1077:1078   */\n          0x00\n            /* \"#utility.yul\":1074:1075   */\n          dup1\n            /* \"#utility.yul\":1067:1079   */\n          revert\n            /* \"#utility.yul\":1091:1193   */\n        tag_35:\n            /* \"#utility.yul\":1132:1138   */\n          0x00\n            /* \"#utility.yul\":1183:1185   */\n          0x1f\n            /* \"#utility.yul\":1179:1186   */\n          not\n            /* \"#utility.yul\":1174:1176   */\n          0x1f\n            /* \"#utility.yul\":1167:1172   */\n          dup4\n            /* \"#utility.yul\":1163:1177   */\n          add\n            /* \"#utility.yul\":1159:1187   */\n          and\n            /* \"#utility.yul\":1149:1187   */\n          swap1\n          pop\n            /* \"#utility.yul\":1091:1193   */\n          swap2\n          swap1\n          pop\n          jump\t// out\n            /* \"#utility.yul\":1199:1379   */\n        tag_36:\n            /* \"#utility.yul\":1247:1324   */\n          0x4e487b7100000000000000000000000000000000000000000000000000000000\n            /* \"#utility.yul\":1244:1245   */\n          0x00\n            /* \"#utility.yul\":1237:1325   */\n          mstore\n            /* \"#utility.yul\":1344:1348   */\n          0x41\n            /* \"#utility.yul\":1341:1342   */\n          0x04\n            /* \"#utility.yul\":1334:1349   */\n          mstore\n            /* \"#utility.yul\":1368:1372   */\n          0x24\n            /* \"#utility.yul\":1365:1366   */\n          0x00\n            /* \"#utility.yul\":1358:1373   */\n          revert\n            /* \"#utility.yul\":1385:1666   */\n        tag_37:\n            /* \"#utility.yul\":1468:1495   */\n          tag_87\n            /* \"#utility.yul\":1490:1494   */\n          dup3\n            /* \"#utility.yul\":1468:1495   */\n          tag_35\n          jump\t// in\n        tag_87:\n            /* \"#utility.yul\":1460:1466   */\n          dup2\n            /* \"#utility.yul\":1456:1496   */\n          add\n            /* \"#utility.yul\":1598:1604   */\n          dup2\n            /* \"#utility.yul\":1586:1596   */\n          dup2\n            /* \"#utility.yul\":1583:1605   */\n          lt\n            /* \"#utility.yul\":1562:1580   */\n          0xffffffffffffffff\n            /* \"#utility.yul\":1550:1560   */\n          dup3\n            /* \"#utility.yul\":1547:1581   */\n          gt\n            /* \"#utility.yul\":1544:1606   */\n          or\n            /* \"#utility.yul\":1541:1629   */\n          iszero\n          tag_88\n          jumpi\n            /* \"#utility.yul\":1609:1627   */\n          tag_89\n          tag_36\n          jump\t// in\n        tag_89:\n            /* \"#utility.yul\":1541:1629   */\n        tag_88:\n            /* \"#utility.yul\":1649:1659   */\n          dup1\n            /* \"#utility.yul\":1645:1647   */\n          0x40\n            /* \"#utility.yul\":1638:1660   */\n          mstore\n            /* \"#utility.yul\":1428:1666   */\n          pop\n            /* \"#utility.yul\":1385:1666   */\n          pop\n          pop\n          jump\t// out\n            /* \"#utility.yul\":1672:1801   */\n        tag_38:\n            /* \"#utility.yul\":1706:1712   */\n          0x00\n            /* \"#utility.yul\":1733:1753   */\n          tag_91\n          tag_26\n          jump\t// in\n        tag_91:\n            /* \"#utility.yul\":1723:1753   */\n          swap1\n          pop\n            /* \"#utility.yul\":1762:1795   */\n          tag_92\n            /* \"#utility.yul\":1790:1794   */\n          dup3\n            /* \"#utility.yul\":1782:1788   */\n          dup3\n            /* \"#utility.yul\":1762:1795   */\n          tag_37\n          jump\t// in\n        tag_92:\n            /* \"#utility.yul\":1672:1801   */\n          swap2\n          swap1\n          pop\n          jump\t// out\n            /* \"#utility.yul\":1807:2115   */\n        tag_39:\n            /* \"#utility.yul\":1869:1873   */\n          0x00\n            /* \"#utility.yul\":1959:1977   */\n          0xffffffffffffffff\n            /* \"#utility.yul\":1951:1957   */\n          dup3\n            /* \"#utility.yul\":1948:1978   */\n          gt\n            /* \"#utility.yul\":1945:2001   */\n          iszero\n          tag_94\n          jumpi\n            /* \"#utility.yul\":1981:1999   */\n          tag_95\n          tag_36\n          jump\t// in\n        tag_95:\n            /* \"#utility.yul\":1945:2001   */\n        tag_94:\n            /* \"#utility.yul\":2019:2048   */\n          tag_96\n            /* \"#utility.yul\":2041:2047   */\n          dup3\n            /* \"#utility.yul\":2019:2048   */\n          tag_35\n          jump\t// in\n        tag_96:\n            /* \"#utility.yul\":2011:2048   */\n          swap1\n          pop\n            /* \"#utility.yul\":2103:2107   */\n          0x20\n            /* \"#utility.yul\":2097:2101   */\n          dup2\n            /* \"#utility.yul\":2093:2108   */\n          add\n            /* \"#utility.yul\":2085:2108   */\n          swap1\n          pop\n            /* \"#utility.yul\":1807:2115   */\n          swap2\n          swap1\n          pop\n          jump\t// out\n            /* \"#utility.yul\":2121:2367   */\n        tag_40:\n            /* \"#utility.yul\":2202:2203   */\n          0x00\n            /* \"#utility.yul\":2212:2325   */\n        tag_98:\n            /* \"#utility.yul\":2226:2232   */\n          dup4\n            /* \"#utility.yul\":2223:2224   */\n          dup2\n            /* \"#utility.yul\":2220:2233   */\n          lt\n            /* \"#utility.yul\":2212:2325   */\n          iszero\n          tag_100\n          jumpi\n            /* \"#utility.yul\":2311:2312   */\n          dup1\n            /* \"#utility.yul\":2306:2309   */\n          dup3\n            /* \"#utility.yul\":2302:2313   */\n          add\n            /* \"#utility.yul\":2296:2314   */\n          mload\n            /* \"#utility.yul\":2292:2293   */\n          dup2\n            /* \"#utility.yul\":2287:2290   */\n          dup5\n            /* \"#utility.yul\":2283:2294   */\n          add\n            /* \"#utility.yul\":2276:2315   */\n          mstore\n            /* \"#utility.yul\":2248:2250   */\n          0x20\n            /* \"#utility.yul\":2245:2246   */\n          dup2\n            /* \"#utility.yul\":2241:2251   */\n          add\n            /* \"#utility.yul\":2236:2251   */\n          swap1\n          pop\n            /* \"#utility.yul\":2212:2325   */\n          jump(tag_98)\n        tag_100:\n            /* \"#utility.yul\":2359:2360   */\n          0x00\n            /* \"#utility.yul\":2350:2356   */\n          dup5\n            /* \"#utility.yul\":2345:2348   */\n          dup5\n            /* \"#utility.yul\":2341:2357   */\n          add\n            /* \"#utility.yul\":2334:2361   */\n          mstore\n            /* \"#utility.yul\":2183:2367   */\n          pop\n            /* \"#utility.yul\":2121:2367   */\n          pop\n          pop\n          pop\n          jump\t// out\n            /* \"#utility.yul\":2373:2807   */\n        tag_41:\n            /* \"#utility.yul\":2462:2467   */\n          0x00\n            /* \"#utility.yul\":2487:2553   */\n          tag_102\n            /* \"#utility.yul\":2503:2552   */\n          tag_103\n            /* \"#utility.yul\":2545:2551   */\n          dup5\n            /* \"#utility.yul\":2503:2552   */\n          tag_39\n          jump\t// in\n        tag_103:\n            /* \"#utility.yul\":2487:2553   */\n          tag_38\n          jump\t// in\n        tag_102:\n            /* \"#utility.yul\":2478:2553   */\n          swap1\n          pop\n            /* \"#utility.yul\":2576:2582   */\n          dup3\n            /* \"#utility.yul\":2569:2574   */\n          dup2\n            /* \"#utility.yul\":2562:2583   */\n          mstore\n            /* \"#utility.yul\":2614:2618   */\n          0x20\n            /* \"#utility.yul\":2607:2612   */\n          dup2\n            /* \"#utility.yul\":2603:2619   */\n          add\n            /* \"#utility.yul\":2652:2655   */\n          dup5\n            /* \"#utility.yul\":2643:2649   */\n          dup5\n            /* \"#utility.yul\":2638:2641   */\n          dup5\n            /* \"#utility.yul\":2634:2650   */\n          add\n            /* \"#utility.yul\":2631:2656   */\n          gt\n            /* \"#utility.yul\":2628:2740   */\n          iszero\n          tag_104\n          jumpi\n            /* \"#utility.yul\":2659:2738   */\n          tag_105\n          tag_34\n          jump\t// in\n        tag_105:\n            /* \"#utility.yul\":2628:2740   */\n        tag_104:\n            /* \"#utility.yul\":2749:2801   */\n          tag_106\n            /* \"#utility.yul\":2794:2800   */\n          dup5\n            /* \"#utility.yul\":2789:2792   */\n          dup3\n            /* \"#utility.yul\":2784:2787   */\n          dup6\n            /* \"#utility.yul\":2749:2801   */\n          tag_40\n          jump\t// in\n        tag_106:\n            /* \"#utility.yul\":2468:2807   */\n          pop\n            /* \"#utility.yul\":2373:2807   */\n          swap4\n          swap3\n          pop\n          pop\n          pop\n          jump\t// out\n            /* \"#utility.yul\":2827:3182   */\n        tag_42:\n            /* \"#utility.yul\":2894:2899   */\n          0x00\n            /* \"#utility.yul\":2943:2946   */\n          dup3\n            /* \"#utility.yul\":2936:2940   */\n          0x1f\n            /* \"#utility.yul\":2928:2934   */\n          dup4\n            /* \"#utility.yul\":2924:2941   */\n          add\n            /* \"#utility.yul\":2920:2947   */\n          slt\n            /* \"#utility.yul\":2910:3032   */\n          tag_108\n          jumpi\n            /* \"#utility.yul\":2951:3030   */\n          tag_109\n          tag_33\n          jump\t// in\n        tag_109:\n            /* \"#utility.yul\":2910:3032   */\n        tag_108:\n            /* \"#utility.yul\":3061:3067   */\n          dup2\n            /* \"#utility.yul\":3055:3068   */\n          mload\n            /* \"#utility.yul\":3086:3176   */\n          tag_110\n            /* \"#utility.yul\":3172:3175   */\n          dup5\n            /* \"#utility.yul\":3164:3170   */\n          dup3\n            /* \"#utility.yul\":3157:3161   */\n          0x20\n            /* \"#utility.yul\":3149:3155   */\n          dup7\n            /* \"#utility.yul\":3145:3162   */\n          add\n            /* \"#utility.yul\":3086:3176   */\n          tag_41\n          jump\t// in\n        tag_110:\n            /* \"#utility.yul\":3077:3176   */\n          swap2\n          pop\n            /* \"#utility.yul\":2900:3182   */\n          pop\n            /* \"#utility.yul\":2827:3182   */\n          swap3\n          swap2\n          pop\n          pop\n          jump\t// out\n            /* \"#utility.yul\":3188:3509   */\n        tag_43:\n            /* \"#utility.yul\":3275:3279   */\n          0x00\n            /* \"#utility.yul\":3365:3383   */\n          0xffffffffffffffff\n            /* \"#utility.yul\":3357:3363   */\n          dup3\n            /* \"#utility.yul\":3354:3384   */\n          gt\n            /* \"#utility.yul\":3351:3407   */\n          iszero\n          tag_112\n          jumpi\n            /* \"#utility.yul\":3387:3405   */\n          tag_113\n          tag_36\n          jump\t// in\n        tag_113:\n            /* \"#utility.yul\":3351:3407   */\n        tag_112:\n            /* \"#utility.yul\":3437:3441   */\n          0x20\n            /* \"#utility.yul\":3429:3435   */\n          dup3\n            /* \"#utility.yul\":3425:3442   */\n          mul\n            /* \"#utility.yul\":3417:3442   */\n          swap1\n          pop\n            /* \"#utility.yul\":3497:3501   */\n          0x20\n            /* \"#utility.yul\":3491:3495   */\n          dup2\n            /* \"#utility.yul\":3487:3502   */\n          add\n            /* \"#utility.yul\":3479:3502   */\n          swap1\n          pop\n            /* \"#utility.yul\":3188:3509   */\n          swap2\n          swap1\n          pop\n          jump\t// out\n            /* \"#utility.yul\":3515:3632   */\n        tag_44:\n            /* \"#utility.yul\":3624:3625   */\n          0x00\n            /* \"#utility.yul\":3621:3622   */\n          dup1\n            /* \"#utility.yul\":3614:3626   */\n          revert\n            /* \"#utility.yul\":3654:4614   */\n        tag_45:\n            /* \"#utility.yul\":3771:3776   */\n          0x00\n            /* \"#utility.yul\":3796:3887   */\n          tag_116\n            /* \"#utility.yul\":3812:3886   */\n          tag_117\n            /* \"#utility.yul\":3879:3885   */\n          dup5\n            /* \"#utility.yul\":3812:3886   */\n          tag_43\n          jump\t// in\n        tag_117:\n            /* \"#utility.yul\":3796:3887   */\n          tag_38\n          jump\t// in\n        tag_116:\n            /* \"#utility.yul\":3787:3887   */\n          swap1\n          pop\n            /* \"#utility.yul\":3907:3912   */\n          dup1\n            /* \"#utility.yul\":3936:3942   */\n          dup4\n            /* \"#utility.yul\":3929:3934   */\n          dup3\n            /* \"#utility.yul\":3922:3943   */\n          mstore\n            /* \"#utility.yul\":3970:3974   */\n          0x20\n            /* \"#utility.yul\":3963:3968   */\n          dup3\n            /* \"#utility.yul\":3959:3975   */\n          add\n            /* \"#utility.yul\":3952:3975   */\n          swap1\n          pop\n            /* \"#utility.yul\":4023:4027   */\n          0x20\n            /* \"#utility.yul\":4015:4021   */\n          dup5\n            /* \"#utility.yul\":4011:4028   */\n          mul\n            /* \"#utility.yul\":4003:4009   */\n          dup4\n            /* \"#utility.yul\":3999:4029   */\n          add\n            /* \"#utility.yul\":4052:4055   */\n          dup6\n            /* \"#utility.yul\":4044:4050   */\n          dup2\n            /* \"#utility.yul\":4041:4056   */\n          gt\n            /* \"#utility.yul\":4038:4160   */\n          iszero\n          tag_118\n          jumpi\n            /* \"#utility.yul\":4071:4150   */\n          tag_119\n          tag_44\n          jump\t// in\n        tag_119:\n            /* \"#utility.yul\":4038:4160   */\n        tag_118:\n            /* \"#utility.yul\":4186:4192   */\n          dup4\n            /* \"#utility.yul\":4169:4608   */\n        tag_120:\n            /* \"#utility.yul\":4203:4209   */\n          dup2\n            /* \"#utility.yul\":4198:4201   */\n          dup2\n            /* \"#utility.yul\":4195:4210   */\n          lt\n            /* \"#utility.yul\":4169:4608   */\n          iszero\n          tag_122\n          jumpi\n            /* \"#utility.yul\":4285:4288   */\n          dup1\n            /* \"#utility.yul\":4279:4289   */\n          mload\n            /* \"#utility.yul\":4321:4339   */\n          0xffffffffffffffff\n            /* \"#utility.yul\":4308:4319   */\n          dup2\n            /* \"#utility.yul\":4305:4340   */\n          gt\n            /* \"#utility.yul\":4302:4424   */\n          iszero\n          tag_123\n          jumpi\n            /* \"#utility.yul\":4343:4422   */\n          tag_124\n          tag_33\n          jump\t// in\n        tag_124:\n            /* \"#utility.yul\":4302:4424   */\n        tag_123:\n            /* \"#utility.yul\":4467:4478   */\n          dup1\n            /* \"#utility.yul\":4459:4465   */\n          dup7\n            /* \"#utility.yul\":4455:4479   */\n          add\n            /* \"#utility.yul\":4505:4563   */\n          tag_125\n            /* \"#utility.yul\":4559:4562   */\n          dup10\n            /* \"#utility.yul\":4547:4557   */\n          dup3\n            /* \"#utility.yul\":4505:4563   */\n          tag_42\n          jump\t// in\n        tag_125:\n            /* \"#utility.yul\":4500:4503   */\n          dup6\n            /* \"#utility.yul\":4493:4564   */\n          mstore\n            /* \"#utility.yul\":4593:4597   */\n          0x20\n            /* \"#utility.yul\":4588:4591   */\n          dup6\n            /* \"#utility.yul\":4584:4598   */\n          add\n            /* \"#utility.yul\":4577:4598   */\n          swap5\n          pop\n            /* \"#utility.yul\":4245:4608   */\n          pop\n          pop\n            /* \"#utility.yul\":4229:4233   */\n          0x20\n            /* \"#utility.yul\":4224:4227   */\n          dup2\n            /* \"#utility.yul\":4220:4234   */\n          add\n            /* \"#utility.yul\":4213:4234   */\n          swap1\n          pop\n            /* \"#utility.yul\":4169:4608   */\n          jump(tag_120)\n        tag_122:\n            /* \"#utility.yul\":4173:4194   */\n          pop\n            /* \"#utility.yul\":3777:4614   */\n          pop\n          pop\n            /* \"#utility.yul\":3654:4614   */\n          swap4\n          swap3\n          pop\n          pop\n          pop\n          jump\t// out\n            /* \"#utility.yul\":4636:5041   */\n        tag_46:\n            /* \"#utility.yul\":4728:4733   */\n          0x00\n            /* \"#utility.yul\":4777:4780   */\n          dup3\n            /* \"#utility.yul\":4770:4774   */\n          0x1f\n            /* \"#utility.yul\":4762:4768   */\n          dup4\n            /* \"#utility.yul\":4758:4775   */\n          add\n            /* \"#utility.yul\":4754:4781   */\n          slt\n            /* \"#utility.yul\":4744:4866   */\n          tag_127\n          jumpi\n            /* \"#utility.yul\":4785:4864   */\n          tag_128\n          tag_33\n          jump\t// in\n        tag_128:\n            /* \"#utility.yul\":4744:4866   */\n        tag_127:\n            /* \"#utility.yul\":4895:4901   */\n          dup2\n            /* \"#utility.yul\":4889:4902   */\n          mload\n            /* \"#utility.yul\":4920:5035   */\n          tag_129\n            /* \"#utility.yul\":5031:5034   */\n          dup5\n            /* \"#utility.yul\":5023:5029   */\n          dup3\n            /* \"#utility.yul\":5016:5020   */\n          0x20\n            /* \"#utility.yul\":5008:5014   */\n          dup7\n            /* \"#utility.yul\":5004:5021   */\n          add\n            /* \"#utility.yul\":4920:5035   */\n          tag_45\n          jump\t// in\n        tag_129:\n            /* \"#utility.yul\":4911:5035   */\n          swap2\n          pop\n            /* \"#utility.yul\":4734:5041   */\n          pop\n            /* \"#utility.yul\":4636:5041   */\n          swap3\n          swap2\n          pop\n          pop\n          jump\t// out\n            /* \"#utility.yul\":5047:5124   */\n        tag_47:\n            /* \"#utility.yul\":5084:5091   */\n          0x00\n            /* \"#utility.yul\":5113:5118   */\n          dup2\n            /* \"#utility.yul\":5102:5118   */\n          swap1\n          pop\n            /* \"#utility.yul\":5047:5124   */\n          swap2\n          swap1\n          pop\n          jump\t// out\n            /* \"#utility.yul\":5130:5252   */\n        tag_48:\n            /* \"#utility.yul\":5203:5227   */\n          tag_132\n            /* \"#utility.yul\":5221:5226   */\n          dup2\n            /* \"#utility.yul\":5203:5227   */\n          tag_47\n          jump\t// in\n        tag_132:\n            /* \"#utility.yul\":5196:5201   */\n          dup2\n            /* \"#utility.yul\":5193:5228   */\n          eq\n            /* \"#utility.yul\":5183:5246   */\n          tag_133\n          jumpi\n            /* \"#utility.yul\":5242:5243   */\n          0x00\n            /* \"#utility.yul\":5239:5240   */\n          dup1\n            /* \"#utility.yul\":5232:5244   */\n          revert\n            /* \"#utility.yul\":5183:5246   */\n        tag_133:\n            /* \"#utility.yul\":5130:5252   */\n          pop\n          jump\t// out\n            /* \"#utility.yul\":5258:5401   */\n        tag_49:\n            /* \"#utility.yul\":5315:5320   */\n          0x00\n            /* \"#utility.yul\":5346:5352   */\n          dup2\n            /* \"#utility.yul\":5340:5353   */\n          mload\n            /* \"#utility.yul\":5331:5353   */\n          swap1\n          pop\n            /* \"#utility.yul\":5362:5395   */\n          tag_135\n            /* \"#utility.yul\":5389:5394   */\n          dup2\n            /* \"#utility.yul\":5362:5395   */\n          tag_48\n          jump\t// in\n        tag_135:\n            /* \"#utility.yul\":5258:5401   */\n          swap3\n          swap2\n          pop\n          pop\n          jump\t// out\n            /* \"#utility.yul\":5407:6953   */\n        tag_3:\n            /* \"#utility.yul\":5568:5574   */\n          0x00\n            /* \"#utility.yul\":5576:5582   */\n          dup1\n            /* \"#utility.yul\":5584:5590   */\n          0x00\n            /* \"#utility.yul\":5592:5598   */\n          dup1\n            /* \"#utility.yul\":5600:5606   */\n          0x00\n            /* \"#utility.yul\":5649:5652   */\n          0xa0\n            /* \"#utility.yul\":5637:5646   */\n          dup7\n            /* \"#utility.yul\":5628:5635   */\n          dup9\n            /* \"#utility.yul\":5624:5647   */\n          sub\n            /* \"#utility.yul\":5620:5653   */\n          slt\n            /* \"#utility.yul\":5617:5737   */\n          iszero\n          tag_137\n          jumpi\n            /* \"#utility.yul\":5656:5735   */\n          tag_138\n          tag_27\n          jump\t// in\n        tag_138:\n            /* \"#utility.yul\":5617:5737   */\n        tag_137:\n            /* \"#utility.yul\":5776:5777   */\n          0x00\n            /* \"#utility.yul\":5801:5865   */\n          tag_139\n            /* \"#utility.yul\":5857:5864   */\n          dup9\n            /* \"#utility.yul\":5848:5854   */\n          dup3\n            /* \"#utility.yul\":5837:5846   */\n          dup10\n            /* \"#utility.yul\":5833:5855   */\n          add\n            /* \"#utility.yul\":5801:5865   */\n          tag_32\n          jump\t// in\n        tag_139:\n            /* \"#utility.yul\":5791:5865   */\n          swap6\n          pop\n            /* \"#utility.yul\":5747:5875   */\n          pop\n            /* \"#utility.yul\":5935:5937   */\n          0x20\n            /* \"#utility.yul\":5924:5933   */\n          dup7\n            /* \"#utility.yul\":5920:5938   */\n          add\n            /* \"#utility.yul\":5914:5939   */\n          mload\n            /* \"#utility.yul\":5966:5984   */\n          0xffffffffffffffff\n            /* \"#utility.yul\":5958:5964   */\n          dup2\n            /* \"#utility.yul\":5955:5985   */\n          gt\n            /* \"#utility.yul\":5952:6069   */\n          iszero\n          tag_140\n          jumpi\n            /* \"#utility.yul\":5988:6067   */\n          tag_141\n          tag_28\n          jump\t// in\n        tag_141:\n            /* \"#utility.yul\":5952:6069   */\n        tag_140:\n            /* \"#utility.yul\":6093:6167   */\n          tag_142\n            /* \"#utility.yul\":6159:6166   */\n          dup9\n            /* \"#utility.yul\":6150:6156   */\n          dup3\n            /* \"#utility.yul\":6139:6148   */\n          dup10\n            /* \"#utility.yul\":6135:6157   */\n          add\n            /* \"#utility.yul\":6093:6167   */\n          tag_42\n          jump\t// in\n        tag_142:\n            /* \"#utility.yul\":6083:6167   */\n          swap5\n          pop\n            /* \"#utility.yul\":5885:6177   */\n          pop\n            /* \"#utility.yul\":6237:6239   */\n          0x40\n            /* \"#utility.yul\":6226:6235   */\n          dup7\n            /* \"#utility.yul\":6222:6240   */\n          add\n            /* \"#utility.yul\":6216:6241   */\n          mload\n            /* \"#utility.yul\":6268:6286   */\n          0xffffffffffffffff\n            /* \"#utility.yul\":6260:6266   */\n          dup2\n            /* \"#utility.yul\":6257:6287   */\n          gt\n            /* \"#utility.yul\":6254:6371   */\n          iszero\n          tag_143\n          jumpi\n            /* \"#utility.yul\":6290:6369   */\n          tag_144\n          tag_28\n          jump\t// in\n        tag_144:\n            /* \"#utility.yul\":6254:6371   */\n        tag_143:\n            /* \"#utility.yul\":6395:6469   */\n          tag_145\n            /* \"#utility.yul\":6461:6468   */\n          dup9\n            /* \"#utility.yul\":6452:6458   */\n          dup3\n            /* \"#utility.yul\":6441:6450   */\n          dup10\n            /* \"#utility.yul\":6437:6459   */\n          add\n            /* \"#utility.yul\":6395:6469   */\n          tag_42\n          jump\t// in\n        tag_145:\n            /* \"#utility.yul\":6385:6469   */\n          swap4\n          pop\n            /* \"#utility.yul\":6187:6479   */\n          pop\n            /* \"#utility.yul\":6539:6541   */\n          0x60\n            /* \"#utility.yul\":6528:6537   */\n          dup7\n            /* \"#utility.yul\":6524:6542   */\n          add\n            /* \"#utility.yul\":6518:6543   */\n          mload\n            /* \"#utility.yul\":6570:6588   */\n          0xffffffffffffffff\n            /* \"#utility.yul\":6562:6568   */\n          dup2\n            /* \"#utility.yul\":6559:6589   */\n          gt\n            /* \"#utility.yul\":6556:6673   */\n          iszero\n          tag_146\n          jumpi\n            /* \"#utility.yul\":6592:6671   */\n          tag_147\n          tag_28\n          jump\t// in\n        tag_147:\n            /* \"#utility.yul\":6556:6673   */\n        tag_146:\n            /* \"#utility.yul\":6697:6796   */\n          tag_148\n            /* \"#utility.yul\":6788:6795   */\n          dup9\n            /* \"#utility.yul\":6779:6785   */\n          dup3\n            /* \"#utility.yul\":6768:6777   */\n          dup10\n            /* \"#utility.yul\":6764:6786   */\n          add\n            /* \"#utility.yul\":6697:6796   */\n          tag_46\n          jump\t// in\n        tag_148:\n            /* \"#utility.yul\":6687:6796   */\n          swap3\n          pop\n            /* \"#utility.yul\":6489:6806   */\n          pop\n            /* \"#utility.yul\":6845:6848   */\n          0x80\n            /* \"#utility.yul\":6872:6936   */\n          tag_149\n            /* \"#utility.yul\":6928:6935   */\n          dup9\n            /* \"#utility.yul\":6919:6925   */\n          dup3\n            /* \"#utility.yul\":6908:6917   */\n          dup10\n            /* \"#utility.yul\":6904:6926   */\n          add\n            /* \"#utility.yul\":6872:6936   */\n          tag_49\n          jump\t// in\n        tag_149:\n            /* \"#utility.yul\":6862:6936   */\n          swap2\n          pop\n            /* \"#utility.yul\":6816:6946   */\n          pop\n            /* \"#utility.yul\":5407:6953   */\n          swap3\n          swap6\n          pop\n          swap3\n          swap6\n          swap1\n          swap4\n          pop\n          jump\t// out\n            /* \"#utility.yul\":6959:7058   */\n        tag_50:\n            /* \"#utility.yul\":7011:7017   */\n          0x00\n            /* \"#utility.yul\":7045:7050   */\n          dup2\n            /* \"#utility.yul\":7039:7051   */\n          mload\n            /* \"#utility.yul\":7029:7051   */\n          swap1\n          pop\n            /* \"#utility.yul\":6959:7058   */\n          swap2\n          swap1\n          pop\n          jump\t// out\n            /* \"#utility.yul\":7064:7244   */\n        tag_51:\n            /* \"#utility.yul\":7112:7189   */\n          0x4e487b7100000000000000000000000000000000000000000000000000000000\n            /* \"#utility.yul\":7109:7110   */\n          0x00\n            /* \"#utility.yul\":7102:7190   */\n          mstore\n            /* \"#utility.yul\":7209:7213   */\n          0x22\n            /* \"#utility.yul\":7206:7207   */\n          0x04\n            /* \"#utility.yul\":7199:7214   */\n          mstore\n            /* \"#utility.yul\":7233:7237   */\n          0x24\n            /* \"#utility.yul\":7230:7231   */\n          0x00\n            /* \"#utility.yul\":7223:7238   */\n          revert\n            /* \"#utility.yul\":7250:7570   */\n        tag_52:\n            /* \"#utility.yul\":7294:7300   */\n          0x00\n            /* \"#utility.yul\":7331:7332   */\n          0x02\n            /* \"#utility.yul\":7325:7329   */\n          dup3\n            /* \"#utility.yul\":7321:7333   */\n          div\n            /* \"#utility.yul\":7311:7333   */\n          swap1\n          pop\n            /* \"#utility.yul\":7378:7379   */\n          0x01\n            /* \"#utility.yul\":7372:7376   */\n          dup3\n            /* \"#utility.yul\":7368:7380   */\n          and\n            /* \"#utility.yul\":7399:7417   */\n          dup1\n            /* \"#utility.yul\":7389:7470   */\n          tag_153\n          jumpi\n            /* \"#utility.yul\":7455:7459   */\n          0x7f\n            /* \"#utility.yul\":7447:7453   */\n          dup3\n            /* \"#utility.yul\":7443:7460   */\n          and\n            /* \"#utility.yul\":7433:7460   */\n          swap2\n          pop\n            /* \"#utility.yul\":7389:7470   */\n        tag_153:\n            /* \"#utility.yul\":7517:7519   */\n          0x20\n            /* \"#utility.yul\":7509:7515   */\n          dup3\n            /* \"#utility.yul\":7506:7520   */\n          lt\n            /* \"#utility.yul\":7486:7504   */\n          dup2\n            /* \"#utility.yul\":7483:7521   */\n          sub\n            /* \"#utility.yul\":7480:7564   */\n          tag_154\n          jumpi\n            /* \"#utility.yul\":7536:7554   */\n          tag_155\n          tag_51\n          jump\t// in\n        tag_155:\n            /* \"#utility.yul\":7480:7564   */\n        tag_154:\n            /* \"#utility.yul\":7301:7570   */\n          pop\n            /* \"#utility.yul\":7250:7570   */\n          swap2\n          swap1\n          pop\n          jump\t// out\n            /* \"#utility.yul\":7576:7717   */\n        tag_53:\n            /* \"#utility.yul\":7625:7629   */\n          0x00\n            /* \"#utility.yul\":7648:7651   */\n          dup2\n            /* \"#utility.yul\":7640:7651   */\n          swap1\n          pop\n            /* \"#utility.yul\":7671:7674   */\n          dup2\n            /* \"#utility.yul\":7668:7669   */\n          0x00\n            /* \"#utility.yul\":7661:7675   */\n          mstore\n            /* \"#utility.yul\":7705:7709   */\n          0x20\n            /* \"#utility.yul\":7702:7703   */\n          0x00\n            /* \"#utility.yul\":7692:7710   */\n          keccak256\n            /* \"#utility.yul\":7684:7710   */\n          swap1\n          pop\n            /* \"#utility.yul\":7576:7717   */\n          swap2\n          swap1\n          pop\n          jump\t// out\n            /* \"#utility.yul\":7723:7816   */\n        tag_54:\n            /* \"#utility.yul\":7760:7766   */\n          0x00\n            /* \"#utility.yul\":7807:7809   */\n          0x20\n            /* \"#utility.yul\":7802:7804   */\n          0x1f\n            /* \"#utility.yul\":7795:7800   */\n          dup4\n            /* \"#utility.yul\":7791:7805   */\n          add\n            /* \"#utility.yul\":7787:7810   */\n          div\n            /* \"#utility.yul\":7777:7810   */\n          swap1\n          pop\n            /* \"#utility.yul\":7723:7816   */\n          swap2\n          swap1\n          pop\n          jump\t// out\n            /* \"#utility.yul\":7822:7929   */\n        tag_55:\n            /* \"#utility.yul\":7866:7874   */\n          0x00\n            /* \"#utility.yul\":7916:7921   */\n          dup3\n            /* \"#utility.yul\":7910:7914   */\n          dup3\n            /* \"#utility.yul\":7906:7922   */\n          shl\n            /* \"#utility.yul\":7885:7922   */\n          swap1\n          pop\n            /* \"#utility.yul\":7822:7929   */\n          swap3\n          swap2\n          pop\n          pop\n          jump\t// out\n            /* \"#utility.yul\":7935:8328   */\n        tag_56:\n            /* \"#utility.yul\":8004:8010   */\n          0x00\n            /* \"#utility.yul\":8054:8055   */\n          0x08\n            /* \"#utility.yul\":8042:8052   */\n          dup4\n            /* \"#utility.yul\":8038:8056   */\n          mul\n            /* \"#utility.yul\":8077:8174   */\n          tag_160\n            /* \"#utility.yul\":8107:8173   */\n          0xffffffffffffffffffffffffffffffffffffffffffffffffffffffffffffffff\n            /* \"#utility.yul\":8096:8105   */\n          dup3\n            /* \"#utility.yul\":8077:8174   */\n          tag_55\n          jump\t// in\n        tag_160:\n            /* \"#utility.yul\":8195:8234   */\n          tag_161\n            /* \"#utility.yul\":8225:8233   */\n          dup7\n            /* \"#utility.yul\":8214:8223   */\n          dup4\n            /* \"#utility.yul\":8195:8234   */\n          tag_55\n          jump\t// in\n        tag_161:\n            /* \"#utility.yul\":8183:8234   */\n          swap6\n          pop\n            /* \"#utility.yul\":8267:8271   */\n          dup1\n            /* \"#utility.yul\":8263:8272   */\n          not\n            /* \"#utility.yul\":8256:8261   */\n          dup5\n            /* \"#utility.yul\":8252:8273   */\n          and\n            /* \"#utility.yul\":8243:8273   */\n          swap4\n          pop\n            /* \"#utility.yul\":8316:8320   */\n          dup1\n            /* \"#utility.yul\":8306:8314   */\n          dup7\n            /* \"#utility.yul\":8302:8321   */\n          and\n            /* \"#utility.yul\":8295:8300   */\n          dup5\n            /* \"#utility.yul\":8292:8322   */\n          or\n            /* \"#utility.yul\":8282:8322   */\n          swap3\n          pop\n            /* \"#utility.yul\":8011:8328   */\n          pop\n          pop\n            /* \"#utility.yul\":7935:8328   */\n          swap4\n          swap3\n          pop\n          pop\n          pop\n          jump\t// out\n            /* \"#utility.yul\":8334:8394   */\n        tag_57:\n            /* \"#utility.yul\":8362:8365   */\n          0x00\n            /* \"#utility.yul\":8383:8388   */\n          dup2\n            /* \"#utility.yul\":8376:8388   */\n          swap1\n          pop\n            /* \"#utility.yul\":8334:8394   */\n          swap2\n          swap1\n          pop\n          jump\t// out\n            /* \"#utility.yul\":8400:8542   */\n        tag_58:\n            /* \"#utility.yul\":8450:8459   */\n          0x00\n            /* \"#utility.yul\":8483:8536   */\n          tag_164\n            /* \"#utility.yul\":8501:8535   */\n          tag_165\n            /* \"#utility.yul\":8510:8534   */\n          tag_166\n            /* \"#utility.yul\":8528:8533   */\n          dup5\n            /* \"#utility.yul\":8510:8534   */\n          tag_47\n          jump\t// in\n        tag_166:\n            /* \"#utility.yul\":8501:8535   */\n          tag_57\n          jump\t// in\n        tag_165:\n            /* \"#utility.yul\":8483:8536   */\n          tag_47\n          jump\t// in\n        tag_164:\n            /* \"#utility.yul\":8470:8536   */\n          swap1\n          pop\n            /* \"#utility.yul\":8400:8542   */\n          swap2\n          swap1\n          pop\n          jump\t// out\n            /* \"#utility.yul\":8548:8623   */\n        tag_59:\n            /* \"#utility.yul\":8591:8594   */\n          0x00\n            /* \"#utility.yul\":8612:8617   */\n          dup2\n            /* \"#utility.yul\":8605:8617   */\n          swap1\n          pop\n            /* \"#utility.yul\":8548:8623   */\n          swap2\n          swap1\n          pop\n          jump\t// out\n            /* \"#utility.yul\":8629:8898   */\n        tag_60:\n            /* \"#utility.yul\":8739:8778   */\n          tag_169\n            /* \"#utility.yul\":8770:8777   */\n          dup4\n            /* \"#utility.yul\":8739:8778   */\n          tag_58\n          jump\t// in\n        tag_169:\n            /* \"#utility.yul\":8800:8891   */\n          tag_170\n            /* \"#utility.yul\":8849:8890   */\n          tag_171\n            /* \"#utility.yul\":8873:8889   */\n          dup3\n            /* \"#utility.yul\":8849:8890   */\n          tag_59\n          jump\t// in\n        tag_171:\n            /* \"#utility.yul\":8841:8847   */\n          dup5\n            /* \"#utility.yul\":8834:8838   */\n          dup5\n            /* \"#utility.yul\":8828:8839   */\n          sload\n            /* \"#utility.yul\":8800:8891   */\n          tag_56\n          jump\t// in\n        tag_170:\n            /* \"#utility.yul\":8794:8798   */\n          dup3\n            /* \"#utility.yul\":8787:8892   */\n          sstore\n            /* \"#utility.yul\":8705:8898   */\n          pop\n            /* \"#utility.yul\":8629:8898   */\n          pop\n          pop\n          pop\n          jump\t// out\n            /* \"#utility.yul\":8904:8977   */\n        tag_61:\n            /* \"#utility.yul\":8949:8952   */\n          0x00\n            /* \"#utility.yul\":8904:8977   */\n          swap1\n          jump\t// out\n            /* \"#utility.yul\":8983:9172   */\n        tag_62:\n            /* \"#utility.yul\":9060:9092   */\n          tag_174\n          tag_61\n          jump\t// in\n        tag_174:\n            /* \"#utility.yul\":9101:9166   */\n          tag_175\n            /* \"#utility.yul\":9159:9165   */\n          dup2\n            /* \"#utility.yul\":9151:9157   */\n          dup5\n            /* \"#utility.yul\":9145:9149   */\n          dup5\n            /* \"#utility.yul\":9101:9166   */\n          tag_60\n          jump\t// in\n        tag_175:\n            /* \"#utility.yul\":9036:9172   */\n          pop\n            /* \"#utility.yul\":8983:9172   */\n          pop\n          pop\n          jump\t// out\n            /* \"#utility.yul\":9178:9364   */\n        tag_63:\n            /* \"#utility.yul\":9238:9358   */\n        tag_177:\n            /* \"#utility.yul\":9255:9258   */\n          dup2\n            /* \"#utility.yul\":9248:9253   */\n          dup2\n            /* \"#utility.yul\":9245:9259   */\n          lt\n            /* \"#utility.yul\":9238:9358   */\n          iszero\n          tag_179\n          jumpi\n            /* \"#utility.yul\":9309:9348   */\n          tag_180\n            /* \"#utility.yul\":9346:9347   */\n          0x00\n            /* \"#utility.yul\":9339:9344   */\n          dup3\n            /* \"#utility.yul\":9309:9348   */\n          tag_62\n          jump\t// in\n        tag_180:\n            /* \"#utility.yul\":9282:9283   */\n          0x01\n            /* \"#utility.yul\":9275:9280   */\n          dup2\n            /* \"#utility.yul\":9271:9284   */\n          add\n            /* \"#utility.yul\":9262:9284   */\n          swap1\n          pop\n            /* \"#utility.yul\":9238:9358   */\n          jump(tag_177)\n        tag_179:\n            /* \"#utility.yul\":9178:9364   */\n          pop\n          pop\n          jump\t// out\n            /* \"#utility.yul\":9370:9913   */\n        tag_64:\n            /* \"#utility.yul\":9471:9473   */\n          0x1f\n            /* \"#utility.yul\":9466:9469   */\n          dup3\n            /* \"#utility.yul\":9463:9474   */\n          gt\n            /* \"#utility.yul\":9460:9906   */\n          iszero\n          tag_182\n          jumpi\n            /* \"#utility.yul\":9505:9543   */\n          tag_183\n            /* \"#utility.yul\":9537:9542   */\n          dup2\n            /* \"#utility.yul\":9505:9543   */\n          tag_53\n          jump\t// in\n        tag_183:\n            /* \"#utility.yul\":9589:9618   */\n          tag_184\n            /* \"#utility.yul\":9607:9617   */\n          dup5\n            /* \"#utility.yul\":9589:9618   */\n          tag_54\n          jump\t// in\n        tag_184:\n            /* \"#utility.yul\":9579:9587   */\n          dup2\n            /* \"#utility.yul\":9575:9619   */\n          add\n            /* \"#utility.yul\":9772:9774   */\n          0x20\n            /* \"#utility.yul\":9760:9770   */\n          dup6\n            /* \"#utility.yul\":9757:9775   */\n          lt\n            /* \"#utility.yul\":9754:9803   */\n          iszero\n          tag_185\n          jumpi\n            /* \"#utility.yul\":9793:9801   */\n          dup2\n            /* \"#utility.yul\":9778:9801   */\n          swap1\n          pop\n            /* \"#utility.yul\":9754:9803   */\n        tag_185:\n            /* \"#utility.yul\":9816:9896   */\n          tag_186\n            /* \"#utility.yul\":9872:9894   */\n          tag_187\n            /* \"#utility.yul\":9890:9893   */\n          dup6\n            /* \"#utility.yul\":9872:9894   */\n          tag_54\n          jump\t// in\n        tag_187:\n            /* \"#utility.yul\":9862:9870   */\n          dup4\n            /* \"#utility.yul\":9858:9895   */\n          add\n            /* \"#utility.yul\":9845:9856   */\n          dup3\n            /* \"#utility.yul\":9816:9896   */\n          tag_63\n          jump\t// in\n        tag_186:\n            /* \"#utility.yul\":9475:9906   */\n          pop\n          pop\n            /* \"#utility.yul\":9460:9906   */\n        tag_182:\n            /* \"#utility.yul\":9370:9913   */\n          pop\n          pop\n          pop\n          jump\t// out\n            /* \"#utility.yul\":9919:10036   */\n        tag_65:\n            /* \"#utility.yul\":9973:9981   */\n          0x00\n            /* \"#utility.yul\":10023:10028   */\n          dup3\n            /* \"#utility.yul\":10017:10021   */\n          dup3\n            /* \"#utility.yul\":10013:10029   */\n          shr\n            /* \"#utility.yul\":9992:10029   */\n          swap1\n          pop\n            /* \"#utility.yul\":9919:10036   */\n          swap3\n          swap2\n          pop\n          pop\n          jump\t// out\n            /* \"#utility.yul\":10042:10211   */\n        tag_66:\n            /* \"#utility.yul\":10086:10092   */\n          0x00\n            /* \"#utility.yul\":10119:10170   */\n          tag_190\n            /* \"#utility.yul\":10167:10168   */\n          0x00\n            /* \"#utility.yul\":10163:10169   */\n          not\n            /* \"#utility.yul\":10155:10160   */\n          dup5\n            /* \"#utility.yul\":10152:10153   */\n          0x08\n            /* \"#utility.yul\":10148:10161   */\n          mul\n            /* \"#utility.yul\":10119:10170   */\n          tag_65\n          jump\t// in\n        tag_190:\n            /* \"#utility.yul\":10115:10171   */\n          not\n            /* \"#utility.yul\":10200:10204   */\n          dup1\n            /* \"#utility.yul\":10194:10198   */\n          dup4\n            /* \"#utility.yul\":10190:10205   */\n          and\n            /* \"#utility.yul\":10180:10205   */\n          swap2\n          pop\n            /* \"#utility.yul\":10093:10211   */\n          pop\n            /* \"#utility.yul\":10042:10211   */\n          swap3\n          swap2\n          pop\n          pop\n          jump\t// out\n            /* \"#utility.yul\":10216:10511   */\n        tag_67:\n            /* \"#utility.yul\":10292:10296   */\n          0x00\n            /* \"#utility.yul\":10438:10467   */\n          tag_192\n            /* \"#utility.yul\":10463:10466   */\n          dup4\n            /* \"#utility.yul\":10457:10461   */\n          dup4\n            /* \"#utility.yul\":10438:10467   */\n          tag_66\n          jump\t// in\n        tag_192:\n            /* \"#utility.yul\":10430:10467   */\n          swap2\n          pop\n            /* \"#utility.yul\":10500:10503   */\n          dup3\n            /* \"#utility.yul\":10497:10498   */\n          0x02\n            /* \"#utility.yul\":10493:10504   */\n          mul\n            /* \"#utility.yul\":10487:10491   */\n          dup3\n            /* \"#utility.yul\":10484:10505   */\n          or\n            /* \"#utility.yul\":10476:10505   */\n          swap1\n          pop\n            /* \"#utility.yul\":10216:10511   */\n          swap3\n          swap2\n          pop\n          pop\n          jump\t// out\n            /* \"#utility.yul\":10516:11911   */\n        tag_10:\n            /* \"#utility.yul\":10633:10670   */\n          tag_194\n            /* \"#utility.yul\":10666:10669   */\n          dup3\n            /* \"#utility.yul\":10633:10670   */\n          tag_50\n          jump\t// in\n        tag_194:\n            /* \"#utility.yul\":10735:10753   */\n          0xffffffffffffffff\n            /* \"#utility.yul\":10727:10733   */\n          dup2\n            /* \"#utility.yul\":10724:10754   */\n          gt\n            /* \"#utility.yul\":10721:10777   */\n          iszero\n          tag_195\n          jumpi\n            /* \"#utility.yul\":10757:10775   */\n          tag_196\n          tag_36\n          jump\t// in\n        tag_196:\n            /* \"#utility.yul\":10721:10777   */\n        tag_195:\n            /* \"#utility.yul\":10801:10839   */\n          tag_197\n            /* \"#utility.yul\":10833:10837   */\n          dup3\n            /* \"#utility.yul\":10827:10838   */\n          sload\n            /* \"#utility.yul\":10801:10839   */\n          tag_52\n          jump\t// in\n        tag_197:\n            /* \"#utility.yul\":10886:10953   */\n          tag_198\n            /* \"#utility.yul\":10946:10952   */\n          dup3\n            /* \"#utility.yul\":10938:10944   */\n          dup3\n            /* \"#utility.yul\":10932:10936   */\n          dup6\n            /* \"#utility.yul\":10886:10953   */\n          tag_64\n          jump\t// in\n        tag_198:\n            /* \"#utility.yul\":10980:10981   */\n          0x00\n            /* \"#utility.yul\":11004:11008   */\n          0x20\n            /* \"#utility.yul\":10991:11008   */\n          swap1\n          pop\n            /* \"#utility.yul\":11036:11038   */\n          0x1f\n            /* \"#utility.yul\":11028:11034   */\n          dup4\n            /* \"#utility.yul\":11025:11039   */\n          gt\n            /* \"#utility.yul\":11053:11054   */\n          0x01\n            /* \"#utility.yul\":11048:11666   */\n          dup2\n          eq\n          tag_200\n          jumpi\n            /* \"#utility.yul\":11710:11711   */\n          0x00\n            /* \"#utility.yul\":11727:11733   */\n          dup5\n            /* \"#utility.yul\":11724:11801   */\n          iszero\n          tag_201\n          jumpi\n            /* \"#utility.yul\":11776:11785   */\n          dup3\n            /* \"#utility.yul\":11771:11774   */\n          dup8\n            /* \"#utility.yul\":11767:11786   */\n          add\n            /* \"#utility.yul\":11761:11787   */\n          mload\n            /* \"#utility.yul\":11752:11787   */\n          swap1\n          pop\n            /* \"#utility.yul\":11724:11801   */\n        tag_201:\n            /* \"#utility.yul\":11827:11894   */\n          tag_202\n            /* \"#utility.yul\":11887:11893   */\n          dup6\n            /* \"#utility.yul\":11880:11885   */\n          dup3\n            /* \"#utility.yul\":11827:11894   */\n          tag_67\n          jump\t// in\n        tag_202:\n            /* \"#utility.yul\":11821:11825   */\n          dup7\n            /* \"#utility.yul\":11814:11895   */\n          sstore\n            /* \"#utility.yul\":11683:11905   */\n          pop\n            /* \"#utility.yul\":11018:11905   */\n          jump(tag_199)\n            /* \"#utility.yul\":11048:11666   */\n        tag_200:\n            /* \"#utility.yul\":11100:11104   */\n          0x1f\n            /* \"#utility.yul\":11096:11105   */\n          not\n            /* \"#utility.yul\":11088:11094   */\n          dup5\n            /* \"#utility.yul\":11084:11106   */\n          and\n            /* \"#utility.yul\":11134:11171   */\n          tag_203\n            /* \"#utility.yul\":11166:11170   */\n          dup7\n            /* \"#utility.yul\":11134:11171   */\n          tag_53\n          jump\t// in\n        tag_203:\n            /* \"#utility.yul\":11193:11194   */\n          0x00\n            /* \"#utility.yul\":11207:11415   */\n        tag_204:\n            /* \"#utility.yul\":11221:11228   */\n          dup3\n            /* \"#utility.yul\":11218:11219   */\n          dup2\n            /* \"#utility.yul\":11215:11229   */\n          lt\n            /* \"#utility.yul\":11207:11415   */\n          iszero\n          tag_206\n          jumpi\n            /* \"#utility.yul\":11300:11309   */\n          dup5\n            /* \"#utility.yul\":11295:11298   */\n          dup10\n            /* \"#utility.yul\":11291:11310   */\n          add\n            /* \"#utility.yul\":11285:11311   */\n          mload\n            /* \"#utility.yul\":11277:11283   */\n          dup3\n            /* \"#utility.yul\":11270:11312   */\n          sstore\n            /* \"#utility.yul\":11351:11352   */\n          0x01\n            /* \"#utility.yul\":11343:11349   */\n          dup3\n            /* \"#utility.yul\":11339:11353   */\n          add\n            /* \"#utility.yul\":11329:11353   */\n          swap2\n          pop\n            /* \"#utility.yul\":11398:11400   */\n          0x20\n            /* \"#utility.yul\":11387:11396   */\n          dup6\n            /* \"#utility.yul\":11383:11401   */\n          add\n            /* \"#utility.yul\":11370:11401   */\n          swap5\n          pop\n            /* \"#utility.yul\":11244:11248   */\n          0x20\n            /* \"#utility.yul\":11241:11242   */\n          dup2\n            /* \"#utility.yul\":11237:11249   */\n          add\n            /* \"#utility.yul\":11232:11249   */\n          swap1\n          pop\n            /* \"#utility.yul\":11207:11415   */\n          jump(tag_204)\n        tag_206:\n            /* \"#utility.yul\":11443:11449   */\n          dup7\n            /* \"#utility.yul\":11434:11441   */\n          dup4\n            /* \"#utility.yul\":11431:11450   */\n          lt\n            /* \"#utility.yul\":11428:11607   */\n          iszero\n          tag_207\n          jumpi\n            /* \"#utility.yul\":11501:11510   */\n          dup5\n            /* \"#utility.yul\":11496:11499   */\n          dup10\n            /* \"#utility.yul\":11492:11511   */\n          add\n            /* \"#utility.yul\":11486:11512   */\n          mload\n            /* \"#utility.yul\":11544:11592   */\n          tag_208\n            /* \"#utility.yul\":11586:11590   */\n          0x1f\n            /* \"#utility.yul\":11578:11584   */\n          dup10\n            /* \"#utility.yul\":11574:11591   */\n          and\n            /* \"#utility.yul\":11563:11572   */\n          dup3\n            /* \"#utility.yul\":11544:11592   */\n          tag_66\n          jump\t// in\n        tag_208:\n            /* \"#utility.yul\":11536:11542   */\n          dup4\n            /* \"#utility.yul\":11529:11593   */\n          sstore\n            /* \"#utility.yul\":11451:11607   */\n          pop\n            /* \"#utility.yul\":11428:11607   */\n        tag_207:\n            /* \"#utility.yul\":11653:11654   */\n          0x01\n            /* \"#utility.yul\":11649:11650   */\n          0x02\n            /* \"#utility.yul\":11641:11647   */\n          dup9\n            /* \"#utility.yul\":11637:11651   */\n          mul\n            /* \"#utility.yul\":11633:11655   */\n          add\n            /* \"#utility.yul\":11627:11631   */\n          dup9\n            /* \"#utility.yul\":11620:11656   */\n          sstore\n            /* \"#utility.yul\":11055:11666   */\n          pop\n          pop\n          pop\n            /* \"#utility.yul\":11018:11905   */\n        tag_199:\n          pop\n            /* \"#utility.yul\":10608:11911   */\n          pop\n          pop\n          pop\n            /* \"#utility.yul\":10516:11911   */\n          pop\n          pop\n          jump\t// out\n            /* \"#utility.yul\":11917:12097   */\n        tag_68:\n            /* \"#utility.yul\":11965:12042   */\n          0x4e487b7100000000000000000000000000000000000000000000000000000000\n            /* \"#utility.yul\":11962:11963   */\n          0x00\n            /* \"#utility.yul\":11955:12043   */\n          mstore\n            /* \"#utility.yul\":12062:12066   */\n          0x11\n            /* \"#utility.yul\":12059:12060   */\n          0x04\n            /* \"#utility.yul\":12052:12067   */\n          mstore\n            /* \"#utility.yul\":12086:12090   */\n          0x24\n            /* \"#utility.yul\":12083:12084   */\n          0x00\n            /* \"#utility.yul\":12076:12091   */\n          revert\n            /* \"#utility.yul\":12103:12294   */\n        tag_13:\n            /* \"#utility.yul\":12143:12146   */\n          0x00\n            /* \"#utility.yul\":12162:12182   */\n          tag_211\n            /* \"#utility.yul\":12180:12181   */\n          dup3\n            /* \"#utility.yul\":12162:12182   */\n          tag_47\n          jump\t// in\n        tag_211:\n            /* \"#utility.yul\":12157:12182   */\n          swap2\n          pop\n            /* \"#utility.yul\":12196:12216   */\n          tag_212\n            /* \"#utility.yul\":12214:12215   */\n          dup4\n            /* \"#utility.yul\":12196:12216   */\n          tag_47\n          jump\t// in\n        tag_212:\n            /* \"#utility.yul\":12191:12216   */\n          swap3\n          pop\n            /* \"#utility.yul\":12239:12240   */\n          dup3\n            /* \"#utility.yul\":12236:12237   */\n          dup3\n            /* \"#utility.yul\":12232:12241   */\n          add\n            /* \"#utility.yul\":12225:12241   */\n          swap1\n          pop\n            /* \"#utility.yul\":12260:12263   */\n          dup1\n            /* \"#utility.yul\":12257:12258   */\n          dup3\n            /* \"#utility.yul\":12254:12264   */\n          gt\n            /* \"#utility.yul\":12251:12287   */\n          iszero\n          tag_213\n          jumpi\n            /* \"#utility.yul\":12267:12285   */\n          tag_214\n          tag_68\n          jump\t// in\n        tag_214:\n            /* \"#utility.yul\":12251:12287   */\n        tag_213:\n            /* \"#utility.yul\":12103:12294   */\n          swap3\n          swap2\n          pop\n          pop\n          jump\t// out\n            /* \"#utility.yul\":12300:12480   */\n        tag_19:\n            /* \"#utility.yul\":12348:12425   */\n          0x4e487b7100000000000000000000000000000000000000000000000000000000\n            /* \"#utility.yul\":12345:12346   */\n          0x00\n            /* \"#utility.yul\":12338:12426   */\n          mstore\n            /* \"#utility.yul\":12445:12449   */\n          0x32\n            /* \"#utility.yul\":12442:12443   */\n          0x04\n            /* \"#utility.yul\":12435:12450   */\n          mstore\n            /* \"#utility.yul\":12469:12473   */\n          0x24\n            /* \"#utility.yul\":12466:12467   */\n          0x00\n            /* \"#utility.yul\":12459:12474   */\n          revert\n            /* \"#utility.yul\":12486:12572   */\n        tag_69:\n            /* \"#utility.yul\":12521:12528   */\n          0x00\n            /* \"#utility.yul\":12561:12565   */\n          0xff\n            /* \"#utility.yul\":12554:12559   */\n          dup3\n            /* \"#utility.yul\":12550:12566   */\n          and\n            /* \"#utility.yul\":12539:12566   */\n          swap1\n          pop\n            /* \"#utility.yul\":12486:12572   */\n          swap2\n          swap1\n          pop\n          jump\t// out\n            /* \"#utility.yul\":12578:12745   */\n        tag_23:\n            /* \"#utility.yul\":12615:12618   */\n          0x00\n            /* \"#utility.yul\":12638:12660   */\n          tag_218\n            /* \"#utility.yul\":12654:12659   */\n          dup3\n            /* \"#utility.yul\":12638:12660   */\n          tag_69\n          jump\t// in\n        tag_218:\n            /* \"#utility.yul\":12629:12660   */\n          swap2\n          pop\n            /* \"#utility.yul\":12682:12686   */\n          0xff\n            /* \"#utility.yul\":12675:12680   */\n          dup3\n            /* \"#utility.yul\":12672:12687   */\n          sub\n            /* \"#utility.yul\":12669:12710   */\n          tag_219\n          jumpi\n            /* \"#utility.yul\":12690:12708   */\n          tag_220\n          tag_68\n          jump\t// in\n        tag_220:\n            /* \"#utility.yul\":12669:12710   */\n        tag_219:\n            /* \"#utility.yul\":12737:12738   */\n          0x01\n            /* \"#utility.yul\":12730:12735   */\n          dup3\n            /* \"#utility.yul\":12726:12739   */\n          add\n            /* \"#utility.yul\":12719:12739   */\n          swap1\n          pop\n            /* \"#utility.yul\":12578:12745   */\n          swap2\n          swap1\n          pop\n          jump\t// out\n            /* \"SimplePoll.sol\":3890:5480  contract PublicPoll is SimplePoll {... */\n        tag_25:\n          dataSize(sub_0)\n          dup1\n          dataOffset(sub_0)\n          0x00\n          codecopy\n          0x00\n          return\n        stop\n\n        sub_0: assembly {\n                /* \"SimplePoll.sol\":3890:5480  contract PublicPoll is SimplePoll {... */\n              mstore(0x40, 0x80)\n              callvalue\n              dup1\n              iszero\n              tag_1\n              jumpi\n              0x00\n              dup1\n              revert\n            tag_1:\n              pop\n              jumpi(tag_2, lt(calldatasize, 0x04))\n              shr(0xe0, calldataload(0x00))\n              dup1\n              0x7284e416\n              gt\n              tag_15\n              jumpi\n              dup1\n              0x7284e416\n              eq\n              tag_9\n              jumpi\n              dup1\n              0x9145a7fc\n              eq\n              tag_10\n              jumpi\n              dup1\n              0xa3ec138d\n              eq\n              tag_11\n              jumpi\n              dup1\n              0xb3f98adc\n              eq\n              tag_12\n              jumpi\n              dup1\n              0xbf63a577\n              eq\n              tag_13\n              jumpi\n              dup1\n              0xe2ba53f0\n              eq\n              tag_14\n              jumpi\n              jump(tag_2)\n            tag_15:\n              dup1\n              0x013cf08b\n              eq\n              tag_3\n              jumpi\n              dup1\n              0x02d05d3f\n              eq\n              tag_4\n              jumpi\n              dup1\n              0x09eef43e\n              eq\n              tag_5\n              jumpi\n              dup1\n              0x29dcb0cf\n              eq\n              tag_6\n              jumpi\n              dup1\n              0x4717f97c\n              eq\n              tag_7\n              jumpi\n              dup1\n              0x5c19a95c\n              eq\n              tag_8\n              jumpi\n            tag_2:\n              0x00\n              dup1\n              revert\n                /* \"SimplePoll.sol\":919:960  SharedStructs.Proposal[] public proposals */\n            tag_3:\n              tag_16\n              0x04\n              dup1\n              calldatasize\n              sub\n              dup2\n              add\n              swap1\n              tag_17\n              swap2\n              swap1\n              tag_18\n              jump\t// in\n            tag_17:\n              tag_19\n              jump\t// in\n            tag_16:\n              mload(0x40)\n              tag_20\n              swap3\n              swap2\n              swap1\n              tag_21\n              jump\t// in\n            tag_20:\n              mload(0x40)\n              dup1\n              swap2\n              sub\n              swap1\n              return\n                /* \"SimplePoll.sol\":554:576  address public creator */\n            tag_4:\n              tag_22\n              tag_23\n              jump\t// in\n            tag_22:\n              mload(0x40)\n              tag_24\n              swap2\n              swap1\n              tag_25\n              jump\t// in\n            tag_24:\n              mload(0x40)\n              dup1\n              swap2\n              sub\n              swap1\n              return\n                /* \"SimplePoll.sol\":2004:2110  function hasVoted(address voter) external view returns(bool) {... */\n            tag_5:\n              tag_26\n              0x04\n              dup1\n              calldatasize\n              sub\n              dup2\n              add\n              swap1\n              tag_27\n              swap2\n              swap1\n              tag_28\n              jump\t// in\n            tag_27:\n              tag_29\n              jump\t// in\n            tag_26:\n              mload(0x40)\n              tag_30\n              swap2\n              swap1\n              tag_31\n              jump\t// in\n            tag_30:\n              mload(0x40)\n              dup1\n              swap2\n              sub\n              swap1\n              return\n                /* \"SimplePoll.sol\":892:912  uint public deadline */\n            tag_6:\n              tag_32\n              tag_33\n              jump\t// in\n            tag_32:\n              mload(0x40)\n              tag_34\n              swap2\n              swap1\n              tag_35\n              jump\t// in\n            tag_34:\n              mload(0x40)\n              dup1\n              swap2\n              sub\n              swap1\n              return\n                /* \"SimplePoll.sol\":2233:2346  function getResults() external view returns (SharedStructs.Proposal[] memory) {... */\n            tag_7:\n              tag_36\n              tag_37\n              jump\t// in\n            tag_36:\n              mload(0x40)\n              tag_38\n              swap2\n              swap1\n              tag_39\n              jump\t// in\n            tag_38:\n              mload(0x40)\n              dup1\n              swap2\n              sub\n              swap1\n              return\n                /* \"SimplePoll.sol\":4217:5080  function delegate(address to) external hasDeadlineNotExpired {... */\n            tag_8:\n              tag_40\n              0x04\n              dup1\n              calldatasize\n              sub\n              dup2\n              add\n              swap1\n              tag_41\n              swap2\n              swap1\n              tag_28\n              jump\t// in\n            tag_41:\n              tag_42\n              jump\t// in\n            tag_40:\n              stop\n                /* \"SimplePoll.sol\":860:885  string public description */\n            tag_9:\n              tag_43\n              tag_44\n              jump\t// in\n            tag_43:\n              mload(0x40)\n              tag_45\n              swap2\n              swap1\n              tag_46\n              jump\t// in\n            tag_45:\n              mload(0x40)\n              dup1\n              swap2\n              sub\n              swap1\n              return\n                /* \"SimplePoll.sol\":2118:2225  function isDeadlineExpired() public view returns(bool) {... */\n            tag_10:\n              tag_47\n              tag_48\n              jump\t// in\n            tag_47:\n              mload(0x40)\n              tag_49\n              swap2\n              swap1\n              tag_31\n              jump\t// in\n            tag_49:\n              mload(0x40)\n              dup1\n              swap2\n              sub\n              swap1\n              return\n                /* \"SimplePoll.sol\":967:1020  mapping(address => SharedStructs.Voter) public voters */\n            tag_11:\n              tag_50\n              0x04\n              dup1\n              calldatasize\n              sub\n              dup2\n              add\n              swap1\n              tag_51\n              swap2\n              swap1\n              tag_28\n              jump\t// in\n            tag_51:\n              tag_52\n              jump\t// in\n            tag_50:\n              mload(0x40)\n              tag_53\n              swap6\n              swap5\n              swap4\n              swap3\n              swap2\n              swap1\n              tag_54\n              jump\t// in\n            tag_53:\n              mload(0x40)\n              dup1\n              swap2\n              sub\n              swap1\n              return\n                /* \"SimplePoll.sol\":5088:5477  function vote(uint8 proposalIndex) external override hasDeadlineNotExpired isProposalIndexCorrect(proposalIndex) {... */\n            tag_12:\n              tag_55\n              0x04\n              dup1\n              calldatasize\n              sub\n              dup2\n              add\n              swap1\n              tag_56\n              swap2\n              swap1\n              tag_57\n              jump\t// in\n            tag_56:\n              tag_58\n              jump\t// in\n            tag_55:\n              stop\n                /* \"SimplePoll.sol\":834:853  string public topic */\n            tag_13:\n              tag_59\n              tag_60\n              jump\t// in\n            tag_59:\n              mload(0x40)\n              tag_61\n              swap2\n              swap1\n              tag_46\n              jump\t// in\n            tag_61:\n              mload(0x40)\n              dup1\n              swap2\n              sub\n              swap1\n              return\n                /* \"SimplePoll.sol\":2354:2487  function winnerName() external view returns (string memory) {... */\n            tag_14:\n              tag_62\n              tag_63\n              jump\t// in\n            tag_62:\n              mload(0x40)\n              tag_64\n              swap2\n              swap1\n              tag_46\n              jump\t// in\n            tag_64:\n              mload(0x40)\n              dup1\n              swap2\n              sub\n              swap1\n              return\n                /* \"SimplePoll.sol\":919:960  SharedStructs.Proposal[] public proposals */\n            tag_19:\n              0x04\n              dup2\n              dup2\n              sload\n              dup2\n              lt\n              tag_65\n              jumpi\n              0x00\n              dup1\n              revert\n            tag_65:\n              swap1\n              0x00\n              mstore\n              keccak256(0x00, 0x20)\n              swap1\n              0x02\n              mul\n              add\n              0x00\n              swap2\n              pop\n              swap1\n              pop\n              dup1\n              0x00\n              add\n              dup1\n              sload\n              tag_67\n              swap1\n              tag_68\n              jump\t// in\n            tag_67:\n              dup1\n              0x1f\n              add\n              0x20\n              dup1\n              swap2\n              div\n              mul\n              0x20\n              add\n              mload(0x40)\n              swap1\n              dup2\n              add\n              0x40\n              mstore\n              dup1\n              swap3\n              swap2\n              swap1\n              dup2\n              dup2\n              mstore\n              0x20\n              add\n              dup3\n              dup1\n              sload\n              tag_69\n              swap1\n              tag_68\n              jump\t// in\n            tag_69:\n              dup1\n              iszero\n              tag_70\n              jumpi\n              dup1\n              0x1f\n              lt\n              tag_71\n              jumpi\n              0x0100\n              dup1\n              dup4\n              sload\n              div\n              mul\n              dup4\n              mstore\n              swap2\n              0x20\n              add\n              swap2\n              jump(tag_70)\n            tag_71:\n              dup3\n              add\n              swap2\n              swap1\n              0x00\n              mstore\n              keccak256(0x00, 0x20)\n              swap1\n            tag_72:\n              dup2\n              sload\n              dup2\n              mstore\n              swap1\n              0x01\n              add\n              swap1\n              0x20\n              add\n              dup1\n              dup4\n              gt\n              tag_72\n              jumpi\n              dup3\n              swap1\n              sub\n              0x1f\n              and\n              dup3\n              add\n              swap2\n            tag_70:\n              pop\n              pop\n              pop\n              pop\n              pop\n              swap1\n              dup1\n              0x01\n              add\n              sload\n              swap1\n              pop\n              dup3\n              jump\t// out\n                /* \"SimplePoll.sol\":554:576  address public creator */\n            tag_23:\n              0x00\n              dup1\n              sload\n              swap1\n              0x0100\n              exp\n              swap1\n              div\n              0xffffffffffffffffffffffffffffffffffffffff\n              and\n              dup2\n              jump\t// out\n                /* \"SimplePoll.sol\":2004:2110  function hasVoted(address voter) external view returns(bool) {... */\n            tag_29:\n                /* \"SimplePoll.sol\":2059:2063  bool */\n              0x00\n                /* \"SimplePoll.sol\":2083:2089  voters */\n              0x05\n                /* \"SimplePoll.sol\":2083:2096  voters[voter] */\n              0x00\n                /* \"SimplePoll.sol\":2090:2095  voter */\n              dup4\n                /* \"SimplePoll.sol\":2083:2096  voters[voter] */\n              0xffffffffffffffffffffffffffffffffffffffff\n              and\n              0xffffffffffffffffffffffffffffffffffffffff\n              and\n              dup2\n              mstore\n              0x20\n              add\n              swap1\n              dup2\n              mstore\n              0x20\n              add\n              0x00\n              keccak256\n                /* \"SimplePoll.sol\":2083:2102  voters[voter].voted */\n              0x00\n              add\n              0x01\n              swap1\n              sload\n              swap1\n              0x0100\n              exp\n              swap1\n              div\n              0xff\n              and\n                /* \"SimplePoll.sol\":2076:2102  return voters[voter].voted */\n              swap1\n              pop\n                /* \"SimplePoll.sol\":2004:2110  function hasVoted(address voter) external view returns(bool) {... */\n              swap2\n              swap1\n              pop\n              jump\t// out\n                /* \"SimplePoll.sol\":892:912  uint public deadline */\n            tag_33:\n              sload(0x03)\n              dup2\n              jump\t// out\n                /* \"SimplePoll.sol\":2233:2346  function getResults() external view returns (SharedStructs.Proposal[] memory) {... */\n            tag_37:\n                /* \"SimplePoll.sol\":2278:2309  SharedStructs.Proposal[] memory */\n              0x60\n                /* \"SimplePoll.sol\":2329:2338  proposals */\n              0x04\n                /* \"SimplePoll.sol\":2322:2338  return proposals */\n              dup1\n              sload\n              dup1\n              0x20\n              mul\n              0x20\n              add\n              mload(0x40)\n              swap1\n              dup2\n              add\n              0x40\n              mstore\n              dup1\n              swap3\n              swap2\n              swap1\n              dup2\n              dup2\n              mstore\n              0x20\n              add\n              0x00\n              swap1\n            tag_75:\n              dup3\n              dup3\n              lt\n              iszero\n              tag_76\n              jumpi\n              dup4\n              dup3\n              swap1\n              0x00\n              mstore\n              keccak256(0x00, 0x20)\n              swap1\n              0x02\n              mul\n              add\n              mload(0x40)\n              dup1\n              0x40\n              add\n              0x40\n              mstore\n              swap1\n              dup2\n              0x00\n              dup3\n              add\n              dup1\n              sload\n              tag_78\n              swap1\n              tag_68\n              jump\t// in\n            tag_78:\n              dup1\n              0x1f\n              add\n              0x20\n              dup1\n              swap2\n              div\n              mul\n              0x20\n              add\n              mload(0x40)\n              swap1\n              dup2\n              add\n              0x40\n              mstore\n              dup1\n              swap3\n              swap2\n              swap1\n              dup2\n              dup2\n              mstore\n              0x20\n              add\n              dup3\n              dup1\n              sload\n              tag_79\n              swap1\n              tag_68\n              jump\t// in\n            tag_79:\n              dup1\n              iszero\n              tag_80\n              jumpi\n              dup1\n              0x1f\n              lt\n              tag_81\n              jumpi\n              0x0100\n              dup1\n              dup4\n              sload\n              div\n              mul\n              dup4\n              mstore\n              swap2\n              0x20\n              add\n              swap2\n              jump(tag_80)\n            tag_81:\n              dup3\n              add\n              swap2\n              swap1\n              0x00\n              mstore\n              keccak256(0x00, 0x20)\n              swap1\n            tag_82:\n              dup2\n              sload\n              dup2\n              mstore\n              swap1\n              0x01\n              add\n              swap1\n              0x20\n              add\n              dup1\n              dup4\n              gt\n              tag_82\n              jumpi\n              dup3\n              swap1\n              sub\n              0x1f\n              and\n              dup3\n              add\n              swap2\n            tag_80:\n              pop\n              pop\n              pop\n              pop\n              pop\n              dup2\n              mstore\n              0x20\n              add\n              0x01\n              dup3\n              add\n              sload\n              dup2\n              mstore\n              pop\n              pop\n              dup2\n              mstore\n              0x20\n              add\n              swap1\n              0x01\n              add\n              swap1\n              jump(tag_75)\n            tag_76:\n              pop\n              pop\n              pop\n              pop\n              swap1\n              pop\n                /* \"SimplePoll.sol\":2233:2346  function getResults() external view returns (SharedStructs.Proposal[] memory) {... */\n              swap1\n              jump\t// out\n                /* \"SimplePoll.sol\":4217:5080  function delegate(address to) external hasDeadlineNotExpired {... */\n            tag_42:\n                /* \"SimplePoll.sol\":1395:1414  isDeadlineExpired() */\n              tag_84\n                /* \"SimplePoll.sol\":1395:1412  isDeadlineExpired */\n              tag_48\n                /* \"SimplePoll.sol\":1395:1414  isDeadlineExpired() */\n              jump\t// in\n            tag_84:\n                /* \"SimplePoll.sol\":1394:1414  !isDeadlineExpired() */\n              iszero\n                /* \"SimplePoll.sol\":1386:1440  require(!isDeadlineExpired(), \"Deadline has expired.\") */\n              tag_85\n              jumpi\n              mload(0x40)\n              0x08c379a000000000000000000000000000000000000000000000000000000000\n              dup2\n              mstore\n              0x04\n              add\n              tag_86\n              swap1\n              tag_87\n              jump\t// in\n            tag_86:\n              mload(0x40)\n              dup1\n              swap2\n              sub\n              swap1\n              revert\n            tag_85:\n                /* \"SimplePoll.sol\":4289:4323  SharedStructs.Voter storage sender */\n              0x00\n                /* \"SimplePoll.sol\":4326:4332  voters */\n              0x05\n                /* \"SimplePoll.sol\":4326:4344  voters[msg.sender] */\n              0x00\n                /* \"SimplePoll.sol\":4333:4343  msg.sender */\n              caller\n                /* \"SimplePoll.sol\":4326:4344  voters[msg.sender] */\n              0xffffffffffffffffffffffffffffffffffffffff\n              and\n              0xffffffffffffffffffffffffffffffffffffffff\n              and\n              dup2\n              mstore\n              0x20\n              add\n              swap1\n              dup2\n              mstore\n              0x20\n              add\n              0x00\n              keccak256\n                /* \"SimplePoll.sol\":4289:4344  SharedStructs.Voter storage sender = voters[msg.sender] */\n              swap1\n              pop\n                /* \"SimplePoll.sol\":4364:4370  sender */\n              dup1\n                /* \"SimplePoll.sol\":4364:4376  sender.voted */\n              0x00\n              add\n              0x01\n              swap1\n              sload\n              swap1\n              0x0100\n              exp\n              swap1\n              div\n              0xff\n              and\n                /* \"SimplePoll.sol\":4363:4376  !sender.voted */\n              iszero\n                /* \"SimplePoll.sol\":4355:4395  require(!sender.voted, \"Already voted.\") */\n              tag_89\n              jumpi\n              mload(0x40)\n              0x08c379a000000000000000000000000000000000000000000000000000000000\n              dup2\n              mstore\n              0x04\n              add\n              tag_90\n              swap1\n              tag_91\n              jump\t// in\n            tag_90:\n              mload(0x40)\n              dup1\n              swap2\n              sub\n              swap1\n              revert\n            tag_89:\n                /* \"SimplePoll.sol\":4420:4430  msg.sender */\n              caller\n                /* \"SimplePoll.sol\":4414:4430  to != msg.sender */\n              0xffffffffffffffffffffffffffffffffffffffff\n              and\n                /* \"SimplePoll.sol\":4414:4416  to */\n              dup3\n                /* \"SimplePoll.sol\":4414:4430  to != msg.sender */\n              0xffffffffffffffffffffffffffffffffffffffff\n              and\n              sub\n                /* \"SimplePoll.sol\":4406:4466  require(to != msg.sender, \"Self-delegation is not allowed.\") */\n              tag_92\n              jumpi\n              mload(0x40)\n              0x08c379a000000000000000000000000000000000000000000000000000000000\n              dup2\n              mstore\n              0x04\n              add\n              tag_93\n              swap1\n              tag_94\n              jump\t// in\n            tag_93:\n              mload(0x40)\n              dup1\n              swap2\n              sub\n              swap1\n              revert\n            tag_92:\n                /* \"SimplePoll.sol\":4477:4639  while (voters[to].delegate != address(0)) {... */\n            tag_95:\n                /* \"SimplePoll.sol\":4515:4516  0 */\n              0x00\n                /* \"SimplePoll.sol\":4484:4517  voters[to].delegate != address(0) */\n              0xffffffffffffffffffffffffffffffffffffffff\n              and\n                /* \"SimplePoll.sol\":4484:4490  voters */\n              0x05\n                /* \"SimplePoll.sol\":4484:4494  voters[to] */\n              0x00\n                /* \"SimplePoll.sol\":4491:4493  to */\n              dup5\n                /* \"SimplePoll.sol\":4484:4494  voters[to] */\n              0xffffffffffffffffffffffffffffffffffffffff\n              and\n              0xffffffffffffffffffffffffffffffffffffffff\n              and\n              dup2\n              mstore\n              0x20\n              add\n              swap1\n              dup2\n              mstore\n              0x20\n              add\n              0x00\n              keccak256\n                /* \"SimplePoll.sol\":4484:4503  voters[to].delegate */\n              0x02\n              add\n              0x00\n              swap1\n              sload\n              swap1\n              0x0100\n              exp\n              swap1\n              div\n              0xffffffffffffffffffffffffffffffffffffffff\n              and\n                /* \"SimplePoll.sol\":4484:4517  voters[to].delegate != address(0) */\n              0xffffffffffffffffffffffffffffffffffffffff\n              and\n              eq\n                /* \"SimplePoll.sol\":4477:4639  while (voters[to].delegate != address(0)) {... */\n              tag_96\n              jumpi\n                /* \"SimplePoll.sol\":4539:4545  voters */\n              0x05\n                /* \"SimplePoll.sol\":4539:4549  voters[to] */\n              0x00\n                /* \"SimplePoll.sol\":4546:4548  to */\n              dup4\n                /* \"SimplePoll.sol\":4539:4549  voters[to] */\n              0xffffffffffffffffffffffffffffffffffffffff\n              and\n              0xffffffffffffffffffffffffffffffffffffffff\n              and\n              dup2\n              mstore\n              0x20\n              add\n              swap1\n              dup2\n              mstore\n              0x20\n              add\n              0x00\n              keccak256\n                /* \"SimplePoll.sol\":4539:4558  voters[to].delegate */\n              0x02\n              add\n              0x00\n              swap1\n              sload\n              swap1\n              0x0100\n              exp\n              swap1\n              div\n              0xffffffffffffffffffffffffffffffffffffffff\n              and\n                /* \"SimplePoll.sol\":4534:4558  to = voters[to].delegate */\n              swap2\n              pop\n                /* \"SimplePoll.sol\":4587:4597  msg.sender */\n              caller\n                /* \"SimplePoll.sol\":4581:4597  to != msg.sender */\n              0xffffffffffffffffffffffffffffffffffffffff\n              and\n                /* \"SimplePoll.sol\":4581:4583  to */\n              dup3\n                /* \"SimplePoll.sol\":4581:4597  to != msg.sender */\n              0xffffffffffffffffffffffffffffffffffffffff\n              and\n              sub\n                /* \"SimplePoll.sol\":4573:4627  require(to != msg.sender, \"Found loop in delegation.\") */\n              tag_97\n              jumpi\n              mload(0x40)\n              0x08c379a000000000000000000000000000000000000000000000000000000000\n              dup2\n              mstore\n              0x04\n              add\n              tag_98\n              swap1\n              tag_99\n              jump\t// in\n            tag_98:\n              mload(0x40)\n              dup1\n              swap2\n              sub\n              swap1\n              revert\n            tag_97:\n                /* \"SimplePoll.sol\":4477:4639  while (voters[to].delegate != address(0)) {... */\n              jump(tag_95)\n            tag_96:\n                /* \"SimplePoll.sol\":4664:4668  true */\n              0x01\n                /* \"SimplePoll.sol\":4649:4655  sender */\n              dup2\n                /* \"SimplePoll.sol\":4649:4661  sender.voted */\n              0x00\n              add\n              0x01\n                /* \"SimplePoll.sol\":4649:4668  sender.voted = true */\n              0x0100\n              exp\n              dup2\n              sload\n              dup2\n              0xff\n              mul\n              not\n              and\n              swap1\n              dup4\n              iszero\n              iszero\n              mul\n              or\n              swap1\n              sstore\n              pop\n                /* \"SimplePoll.sol\":4697:4699  to */\n              dup2\n                /* \"SimplePoll.sol\":4679:4685  sender */\n              dup2\n                /* \"SimplePoll.sol\":4679:4694  sender.delegate */\n              0x02\n              add\n              0x00\n                /* \"SimplePoll.sol\":4679:4699  sender.delegate = to */\n              0x0100\n              exp\n              dup2\n              sload\n              dup2\n              0xffffffffffffffffffffffffffffffffffffffff\n              mul\n              not\n              and\n              swap1\n              dup4\n              0xffffffffffffffffffffffffffffffffffffffff\n              and\n              mul\n              or\n              swap1\n              sstore\n              pop\n                /* \"SimplePoll.sol\":4710:4752  SharedStructs.Voter storage delegatedVoter */\n              0x00\n                /* \"SimplePoll.sol\":4755:4761  voters */\n              0x05\n                /* \"SimplePoll.sol\":4755:4765  voters[to] */\n              0x00\n                /* \"SimplePoll.sol\":4762:4764  to */\n              dup5\n                /* \"SimplePoll.sol\":4755:4765  voters[to] */\n              0xffffffffffffffffffffffffffffffffffffffff\n              and\n              0xffffffffffffffffffffffffffffffffffffffff\n              and\n              dup2\n              mstore\n              0x20\n              add\n              swap1\n              dup2\n              mstore\n              0x20\n              add\n              0x00\n              keccak256\n                /* \"SimplePoll.sol\":4710:4765  SharedStructs.Voter storage delegatedVoter = voters[to] */\n              swap1\n              pop\n                /* \"SimplePoll.sol\":4780:4794  delegatedVoter */\n              dup1\n                /* \"SimplePoll.sol\":4780:4800  delegatedVoter.voted */\n              0x00\n              add\n              0x01\n              swap1\n              sload\n              swap1\n              0x0100\n              exp\n              swap1\n              div\n              0xff\n              and\n                /* \"SimplePoll.sol\":4776:5014  if (delegatedVoter.voted) {... */\n              iszero\n              tag_100\n              jumpi\n                /* \"SimplePoll.sol\":4893:4894  1 */\n              0x01\n                /* \"SimplePoll.sol\":4862:4868  sender */\n              dup3\n                /* \"SimplePoll.sol\":4862:4890  sender.delegatingVotesNumber */\n              0x01\n              add\n              sload\n                /* \"SimplePoll.sol\":4862:4894  sender.delegatingVotesNumber + 1 */\n              tag_101\n              swap2\n              swap1\n              tag_102\n              jump\t// in\n            tag_101:\n                /* \"SimplePoll.sol\":4817:4826  proposals */\n              0x04\n                /* \"SimplePoll.sol\":4827:4841  delegatedVoter */\n              dup3\n                /* \"SimplePoll.sol\":4827:4846  delegatedVoter.vote */\n              0x00\n              add\n              0x02\n              swap1\n              sload\n              swap1\n              0x0100\n              exp\n              swap1\n              div\n              0xff\n              and\n                /* \"SimplePoll.sol\":4817:4847  proposals[delegatedVoter.vote] */\n              0xff\n              and\n              dup2\n              sload\n              dup2\n              lt\n              tag_103\n              jumpi\n              tag_104\n              tag_105\n              jump\t// in\n            tag_104:\n            tag_103:\n              swap1\n              0x00\n              mstore\n              keccak256(0x00, 0x20)\n              swap1\n              0x02\n              mul\n              add\n                /* \"SimplePoll.sol\":4817:4857  proposals[delegatedVoter.vote].voteCount */\n              0x01\n              add\n              0x00\n                /* \"SimplePoll.sol\":4817:4895  proposals[delegatedVoter.vote].voteCount += (sender.delegatingVotesNumber + 1) */\n              dup3\n              dup3\n              sload\n              tag_107\n              swap2\n              swap1\n              tag_102\n              jump\t// in\n            tag_107:\n              swap3\n              pop\n              pop\n              dup2\n              swap1\n              sstore\n              pop\n                /* \"SimplePoll.sol\":4776:5014  if (delegatedVoter.voted) {... */\n              jump(tag_108)\n            tag_100:\n                /* \"SimplePoll.sol\":5000:5001  1 */\n              0x01\n                /* \"SimplePoll.sol\":4969:4975  sender */\n              dup3\n                /* \"SimplePoll.sol\":4969:4997  sender.delegatingVotesNumber */\n              0x01\n              add\n              sload\n                /* \"SimplePoll.sol\":4969:5001  sender.delegatingVotesNumber + 1 */\n              tag_109\n              swap2\n              swap1\n              tag_102\n              jump\t// in\n            tag_109:\n                /* \"SimplePoll.sol\":4928:4942  delegatedVoter */\n              dup2\n                /* \"SimplePoll.sol\":4928:4964  delegatedVoter.delegatingVotesNumber */\n              0x01\n              add\n              0x00\n                /* \"SimplePoll.sol\":4928:5002  delegatedVoter.delegatingVotesNumber += (sender.delegatingVotesNumber + 1) */\n              dup3\n              dup3\n              sload\n              tag_110\n              swap2\n              swap1\n              tag_102\n              jump\t// in\n            tag_110:\n              swap3\n              pop\n              pop\n              dup2\n              swap1\n              sstore\n              pop\n                /* \"SimplePoll.sol\":4776:5014  if (delegatedVoter.voted) {... */\n            tag_108:\n                /* \"SimplePoll.sol\":5069:5071  to */\n              dup3\n                /* \"SimplePoll.sol\":5029:5072  Delegating(block.timestamp, msg.sender, to) */\n              0xffffffffffffffffffffffffffffffffffffffff\n              and\n                /* \"SimplePoll.sol\":5057:5067  msg.sender */\n              caller\n                /* \"SimplePoll.sol\":5029:5072  Delegating(block.timestamp, msg.sender, to) */\n              0xffffffffffffffffffffffffffffffffffffffff\n              and\n                /* \"SimplePoll.sol\":5040:5055  block.timestamp */\n              timestamp\n                /* \"SimplePoll.sol\":5029:5072  Delegating(block.timestamp, msg.sender, to) */\n              0x1938da684279c3a3e042ae0800798e60f7262803cb9baab844ba3fa25ad1a682\n              mload(0x40)\n              mload(0x40)\n              dup1\n              swap2\n              sub\n              swap1\n              log4\n                /* \"SimplePoll.sol\":4278:5080  {... */\n              pop\n              pop\n                /* \"SimplePoll.sol\":4217:5080  function delegate(address to) external hasDeadlineNotExpired {... */\n              pop\n              jump\t// out\n                /* \"SimplePoll.sol\":860:885  string public description */\n            tag_44:\n              0x02\n              dup1\n              sload\n              tag_111\n              swap1\n              tag_68\n              jump\t// in\n            tag_111:\n              dup1\n              0x1f\n              add\n              0x20\n              dup1\n              swap2\n              div\n              mul\n              0x20\n              add\n              mload(0x40)\n              swap1\n              dup2\n              add\n              0x40\n              mstore\n              dup1\n              swap3\n              swap2\n              swap1\n              dup2\n              dup2\n              mstore\n              0x20\n              add\n              dup3\n              dup1\n              sload\n              tag_112\n              swap1\n              tag_68\n              jump\t// in\n            tag_112:\n              dup1\n              iszero\n              tag_113\n              jumpi\n              dup1\n              0x1f\n              lt\n              tag_114\n              jumpi\n              0x0100\n              dup1\n              dup4\n              sload\n              div\n              mul\n              dup4\n              mstore\n              swap2\n              0x20\n              add\n              swap2\n              jump(tag_113)\n            tag_114:\n              dup3\n              add\n              swap2\n              swap1\n              0x00\n              mstore\n              keccak256(0x00, 0x20)\n              swap1\n            tag_115:\n              dup2\n              sload\n              dup2\n              mstore\n              swap1\n              0x01\n              add\n              swap1\n              0x20\n              add\n              dup1\n              dup4\n              gt\n              tag_115\n              jumpi\n              dup3\n              swap1\n              sub\n              0x1f\n              and\n              dup3\n              add\n              swap2\n            tag_113:\n              pop\n              pop\n              pop\n              pop\n              pop\n              dup2\n              jump\t// out\n                /* \"SimplePoll.sol\":2118:2225  function isDeadlineExpired() public view returns(bool) {... */\n            tag_48:\n                /* \"SimplePoll.sol\":2167:2171  bool */\n              0x00\n                /* \"SimplePoll.sol\":2209:2217  deadline */\n              sload(0x03)\n                /* \"SimplePoll.sol\":2191:2206  block.timestamp */\n              timestamp\n                /* \"SimplePoll.sol\":2191:2217  block.timestamp > deadline */\n              gt\n                /* \"SimplePoll.sol\":2184:2217  return block.timestamp > deadline */\n              swap1\n              pop\n                /* \"SimplePoll.sol\":2118:2225  function isDeadlineExpired() public view returns(bool) {... */\n              swap1\n              jump\t// out\n                /* \"SimplePoll.sol\":967:1020  mapping(address => SharedStructs.Voter) public voters */\n            tag_52:\n              mstore(0x20, 0x05)\n              dup1\n              0x00\n              mstore\n              keccak256(0x00, 0x40)\n              0x00\n              swap2\n              pop\n              swap1\n              pop\n              dup1\n              0x00\n              add\n              0x00\n              swap1\n              sload\n              swap1\n              0x0100\n              exp\n              swap1\n              div\n              0xff\n              and\n              swap1\n              dup1\n              0x00\n              add\n              0x01\n              swap1\n              sload\n              swap1\n              0x0100\n              exp\n              swap1\n              div\n              0xff\n              and\n              swap1\n              dup1\n              0x00\n              add\n              0x02\n              swap1\n              sload\n              swap1\n              0x0100\n              exp\n              swap1\n              div\n              0xff\n              and\n              swap1\n              dup1\n              0x01\n              add\n              sload\n              swap1\n              dup1\n              0x02\n              add\n              0x00\n              swap1\n              sload\n              swap1\n              0x0100\n              exp\n              swap1\n              div\n              0xffffffffffffffffffffffffffffffffffffffff\n              and\n              swap1\n              pop\n              dup6\n              jump\t// out\n                /* \"SimplePoll.sol\":5088:5477  function vote(uint8 proposalIndex) external override hasDeadlineNotExpired isProposalIndexCorrect(proposalIndex) {... */\n            tag_58:\n                /* \"SimplePoll.sol\":1395:1414  isDeadlineExpired() */\n              tag_118\n                /* \"SimplePoll.sol\":1395:1412  isDeadlineExpired */\n              tag_48\n                /* \"SimplePoll.sol\":1395:1414  isDeadlineExpired() */\n              jump\t// in\n            tag_118:\n                /* \"SimplePoll.sol\":1394:1414  !isDeadlineExpired() */\n              iszero\n                /* \"SimplePoll.sol\":1386:1440  require(!isDeadlineExpired(), \"Deadline has expired.\") */\n              tag_119\n              jumpi\n              mload(0x40)\n              0x08c379a000000000000000000000000000000000000000000000000000000000\n              dup2\n              mstore\n              0x04\n              add\n              tag_120\n              swap1\n              tag_87\n              jump\t// in\n            tag_120:\n              mload(0x40)\n              dup1\n              swap2\n              sub\n              swap1\n              revert\n            tag_119:\n                /* \"SimplePoll.sol\":5186:5199  proposalIndex */\n              dup1\n                /* \"SimplePoll.sol\":1264:1273  proposals */\n              0x04\n                /* \"SimplePoll.sol\":1264:1280  proposals.length */\n              dup1\n              sload\n              swap1\n              pop\n                /* \"SimplePoll.sol\":1248:1261  proposalIndex */\n              dup2\n                /* \"SimplePoll.sol\":1248:1280  proposalIndex < proposals.length */\n              0xff\n              and\n              lt\n                /* \"SimplePoll.sol\":1240:1314  require(proposalIndex < proposals.length, \"This proposal does not exist.\") */\n              tag_122\n              jumpi\n              mload(0x40)\n              0x08c379a000000000000000000000000000000000000000000000000000000000\n              dup2\n              mstore\n              0x04\n              add\n              tag_123\n              swap1\n              tag_124\n              jump\t// in\n            tag_123:\n              mload(0x40)\n              dup1\n              swap2\n              sub\n              swap1\n              revert\n            tag_122:\n                /* \"SimplePoll.sol\":5212:5246  SharedStructs.Voter storage sender */\n              0x00\n                /* \"SimplePoll.sol\":5249:5255  voters */\n              0x05\n                /* \"SimplePoll.sol\":5249:5267  voters[msg.sender] */\n              0x00\n                /* \"SimplePoll.sol\":5256:5266  msg.sender */\n              caller\n                /* \"SimplePoll.sol\":5249:5267  voters[msg.sender] */\n              0xffffffffffffffffffffffffffffffffffffffff\n              and\n              0xffffffffffffffffffffffffffffffffffffffff\n              and\n              dup2\n              mstore\n              0x20\n              add\n              swap1\n              dup2\n              mstore\n              0x20\n              add\n              0x00\n              keccak256\n                /* \"SimplePoll.sol\":5212:5267  SharedStructs.Voter storage sender = voters[msg.sender] */\n              swap1\n              pop\n                /* \"SimplePoll.sol\":5287:5293  sender */\n              dup1\n                /* \"SimplePoll.sol\":5287:5299  sender.voted */\n              0x00\n              add\n              0x01\n              swap1\n              sload\n              swap1\n              0x0100\n              exp\n              swap1\n              div\n              0xff\n              and\n                /* \"SimplePoll.sol\":5286:5299  !sender.voted */\n              iszero\n                /* \"SimplePoll.sol\":5278:5318  require(!sender.voted, \"Already voted.\") */\n              tag_126\n              jumpi\n              mload(0x40)\n              0x08c379a000000000000000000000000000000000000000000000000000000000\n              dup2\n              mstore\n              0x04\n              add\n              tag_127\n              swap1\n              tag_91\n              jump\t// in\n            tag_127:\n              mload(0x40)\n              dup1\n              swap2\n              sub\n              swap1\n              revert\n            tag_126:\n                /* \"SimplePoll.sol\":5344:5348  true */\n              0x01\n                /* \"SimplePoll.sol\":5329:5335  sender */\n              dup2\n                /* \"SimplePoll.sol\":5329:5341  sender.voted */\n              0x00\n              add\n              0x01\n                /* \"SimplePoll.sol\":5329:5348  sender.voted = true */\n              0x0100\n              exp\n              dup2\n              sload\n              dup2\n              0xff\n              mul\n              not\n              and\n              swap1\n              dup4\n              iszero\n              iszero\n              mul\n              or\n              swap1\n              sstore\n              pop\n                /* \"SimplePoll.sol\":5373:5386  proposalIndex */\n              dup3\n                /* \"SimplePoll.sol\":5359:5365  sender */\n              dup2\n                /* \"SimplePoll.sol\":5359:5370  sender.vote */\n              0x00\n              add\n              0x02\n                /* \"SimplePoll.sol\":5359:5386  sender.vote = proposalIndex */\n              0x0100\n              exp\n              dup2\n              sload\n              dup2\n              0xff\n              mul\n              not\n              and\n              swap1\n              dup4\n              0xff\n              and\n              mul\n              or\n              swap1\n              sstore\n              pop\n                /* \"SimplePoll.sol\":5467:5468  1 */\n              0x01\n                /* \"SimplePoll.sol\":5436:5442  sender */\n              dup2\n                /* \"SimplePoll.sol\":5436:5464  sender.delegatingVotesNumber */\n              0x01\n              add\n              sload\n                /* \"SimplePoll.sol\":5436:5468  sender.delegatingVotesNumber + 1 */\n              tag_128\n              swap2\n              swap1\n              tag_102\n              jump\t// in\n            tag_128:\n                /* \"SimplePoll.sol\":5397:5406  proposals */\n              0x04\n                /* \"SimplePoll.sol\":5407:5420  proposalIndex */\n              dup5\n                /* \"SimplePoll.sol\":5397:5421  proposals[proposalIndex] */\n              0xff\n              and\n              dup2\n              sload\n              dup2\n              lt\n              tag_129\n              jumpi\n              tag_130\n              tag_105\n              jump\t// in\n            tag_130:\n            tag_129:\n              swap1\n              0x00\n              mstore\n              keccak256(0x00, 0x20)\n              swap1\n              0x02\n              mul\n              add\n                /* \"SimplePoll.sol\":5397:5431  proposals[proposalIndex].voteCount */\n              0x01\n              add\n              0x00\n                /* \"SimplePoll.sol\":5397:5469  proposals[proposalIndex].voteCount += (sender.delegatingVotesNumber + 1) */\n              dup3\n              dup3\n              sload\n              tag_132\n              swap2\n              swap1\n              tag_102\n              jump\t// in\n            tag_132:\n              swap3\n              pop\n              pop\n              dup2\n              swap1\n              sstore\n              pop\n                /* \"SimplePoll.sol\":5201:5477  {... */\n              pop\n                /* \"SimplePoll.sol\":1451:1452  _ */\n              pop\n                /* \"SimplePoll.sol\":5088:5477  function vote(uint8 proposalIndex) external override hasDeadlineNotExpired isProposalIndexCorrect(proposalIndex) {... */\n              pop\n              jump\t// out\n                /* \"SimplePoll.sol\":834:853  string public topic */\n            tag_60:\n              0x01\n              dup1\n              sload\n              tag_133\n              swap1\n              tag_68\n              jump\t// in\n            tag_133:\n              dup1\n              0x1f\n              add\n              0x20\n              dup1\n              swap2\n              div\n              mul\n              0x20\n              add\n              mload(0x40)\n              swap1\n              dup2\n              add\n              0x40\n              mstore\n              dup1\n              swap3\n              swap2\n              swap1\n              dup2\n              dup2\n              mstore\n              0x20\n              add\n              dup3\n              dup1\n              sload\n              tag_134\n              swap1\n              tag_68\n              jump\t// in\n            tag_134:\n              dup1\n              iszero\n              tag_135\n              jumpi\n              dup1\n              0x1f\n              lt\n              tag_136\n              jumpi\n              0x0100\n              dup1\n              dup4\n              sload\n              div\n              mul\n              dup4\n              mstore\n              swap2\n              0x20\n              add\n              swap2\n              jump(tag_135)\n            tag_136:\n              dup3\n              add\n              swap2\n              swap1\n              0x00\n              mstore\n              keccak256(0x00, 0x20)\n              swap1\n            tag_137:\n              dup2\n              sload\n              dup2\n              mstore\n              swap1\n              0x01\n              add\n              swap1\n              0x20\n              add\n              dup1\n              dup4\n              gt\n              tag_137\n              jumpi\n              dup3\n              swap1\n              sub\n              0x1f\n              and\n              dup3\n              add\n              swap2\n            tag_135:\n              pop\n              pop\n              pop\n              pop\n              pop\n              dup2\n              jump\t// out\n                /* \"SimplePoll.sol\":2354:2487  function winnerName() external view returns (string memory) {... */\n            tag_63:\n                /* \"SimplePoll.sol\":2399:2412  string memory */\n              0x60\n                /* \"SimplePoll.sol\":2432:2441  proposals */\n              0x04\n                /* \"SimplePoll.sol\":2442:2473  determineWinningProposalIndex() */\n              tag_139\n                /* \"SimplePoll.sol\":2442:2471  determineWinningProposalIndex */\n              tag_140\n                /* \"SimplePoll.sol\":2442:2473  determineWinningProposalIndex() */\n              jump\t// in\n            tag_139:\n                /* \"SimplePoll.sol\":2432:2474  proposals[determineWinningProposalIndex()] */\n              0xff\n              and\n              dup2\n              sload\n              dup2\n              lt\n              tag_141\n              jumpi\n              tag_142\n              tag_105\n              jump\t// in\n            tag_142:\n            tag_141:\n              swap1\n              0x00\n              mstore\n              keccak256(0x00, 0x20)\n              swap1\n              0x02\n              mul\n              add\n                /* \"SimplePoll.sol\":2432:2479  proposals[determineWinningProposalIndex()].name */\n              0x00\n              add\n                /* \"SimplePoll.sol\":2425:2479  return proposals[determineWinningProposalIndex()].name */\n              dup1\n              sload\n              tag_144\n              swap1\n              tag_68\n              jump\t// in\n            tag_144:\n              dup1\n              0x1f\n              add\n              0x20\n              dup1\n              swap2\n              div\n              mul\n              0x20\n              add\n              mload(0x40)\n              swap1\n              dup2\n              add\n              0x40\n              mstore\n              dup1\n              swap3\n              swap2\n              swap1\n              dup2\n              dup2\n              mstore\n              0x20\n              add\n              dup3\n              dup1\n              sload\n              tag_145\n              swap1\n              tag_68\n              jump\t// in\n            tag_145:\n              dup1\n              iszero\n              tag_146\n              jumpi\n              dup1\n              0x1f\n              lt\n              tag_147\n              jumpi\n              0x0100\n              dup1\n              dup4\n              sload\n              div\n              mul\n              dup4\n              mstore\n              swap2\n              0x20\n              add\n              swap2\n              jump(tag_146)\n            tag_147:\n              dup3\n              add\n              swap2\n              swap1\n              0x00\n              mstore\n              keccak256(0x00, 0x20)\n              swap1\n            tag_148:\n              dup2\n              sload\n              dup2\n              mstore\n              swap1\n              0x01\n              add\n              swap1\n              0x20\n              add\n              dup1\n              dup4\n              gt\n              tag_148\n              jumpi\n              dup3\n              swap1\n              sub\n              0x1f\n              and\n              dup3\n              add\n              swap2\n            tag_146:\n              pop\n              pop\n              pop\n              pop\n              pop\n              swap1\n              pop\n                /* \"SimplePoll.sol\":2354:2487  function winnerName() external view returns (string memory) {... */\n              swap1\n              jump\t// out\n                /* \"SimplePoll.sol\":2495:2850  function determineWinningProposalIndex() private view returns (uint8 index) {... */\n            tag_140:\n                /* \"SimplePoll.sol\":2558:2569  uint8 index */\n              0x00\n                /* \"SimplePoll.sol\":2582:2604  uint _winningVoteCount */\n              dup1\n                /* \"SimplePoll.sol\":2607:2608  0 */\n              0x00\n                /* \"SimplePoll.sol\":2582:2608  uint _winningVoteCount = 0 */\n              swap1\n              pop\n                /* \"SimplePoll.sol\":2624:2631  uint8 i */\n              0x00\n                /* \"SimplePoll.sol\":2619:2843  for (uint8 i = 0; i < proposals.length; i++) {... */\n            tag_150:\n                /* \"SimplePoll.sol\":2641:2650  proposals */\n              0x04\n                /* \"SimplePoll.sol\":2641:2657  proposals.length */\n              dup1\n              sload\n              swap1\n              pop\n                /* \"SimplePoll.sol\":2637:2638  i */\n              dup2\n                /* \"SimplePoll.sol\":2637:2657  i < proposals.length */\n              0xff\n              and\n              lt\n                /* \"SimplePoll.sol\":2619:2843  for (uint8 i = 0; i < proposals.length; i++) {... */\n              iszero\n              tag_151\n              jumpi\n                /* \"SimplePoll.sol\":2708:2725  _winningVoteCount */\n              dup2\n                /* \"SimplePoll.sol\":2683:2692  proposals */\n              0x04\n                /* \"SimplePoll.sol\":2693:2694  i */\n              dup3\n                /* \"SimplePoll.sol\":2683:2695  proposals[i] */\n              0xff\n              and\n              dup2\n              sload\n              dup2\n              lt\n              tag_153\n              jumpi\n              tag_154\n              tag_105\n              jump\t// in\n            tag_154:\n            tag_153:\n              swap1\n              0x00\n              mstore\n              keccak256(0x00, 0x20)\n              swap1\n              0x02\n              mul\n              add\n                /* \"SimplePoll.sol\":2683:2705  proposals[i].voteCount */\n              0x01\n              add\n              sload\n                /* \"SimplePoll.sol\":2683:2725  proposals[i].voteCount > _winningVoteCount */\n              gt\n                /* \"SimplePoll.sol\":2679:2832  if (proposals[i].voteCount > _winningVoteCount) {... */\n              iszero\n              tag_156\n              jumpi\n                /* \"SimplePoll.sol\":2766:2775  proposals */\n              0x04\n                /* \"SimplePoll.sol\":2776:2777  i */\n              dup2\n                /* \"SimplePoll.sol\":2766:2778  proposals[i] */\n              0xff\n              and\n              dup2\n              sload\n              dup2\n              lt\n              tag_157\n              jumpi\n              tag_158\n              tag_105\n              jump\t// in\n            tag_158:\n            tag_157:\n              swap1\n              0x00\n              mstore\n              keccak256(0x00, 0x20)\n              swap1\n              0x02\n              mul\n              add\n                /* \"SimplePoll.sol\":2766:2788  proposals[i].voteCount */\n              0x01\n              add\n              sload\n                /* \"SimplePoll.sol\":2746:2788  _winningVoteCount = proposals[i].voteCount */\n              swap2\n              pop\n                /* \"SimplePoll.sol\":2815:2816  i */\n              dup1\n                /* \"SimplePoll.sol\":2807:2816  index = i */\n              swap3\n              pop\n                /* \"SimplePoll.sol\":2679:2832  if (proposals[i].voteCount > _winningVoteCount) {... */\n            tag_156:\n                /* \"SimplePoll.sol\":2659:2662  i++ */\n              dup1\n              dup1\n              tag_160\n              swap1\n              tag_161\n              jump\t// in\n            tag_160:\n              swap2\n              pop\n              pop\n                /* \"SimplePoll.sol\":2619:2843  for (uint8 i = 0; i < proposals.length; i++) {... */\n              jump(tag_150)\n            tag_151:\n              pop\n                /* \"SimplePoll.sol\":2571:2850  {... */\n              pop\n                /* \"SimplePoll.sol\":2495:2850  function determineWinningProposalIndex() private view returns (uint8 index) {... */\n              swap1\n              jump\t// out\n                /* \"#utility.yul\":88:205   */\n            tag_163:\n                /* \"#utility.yul\":197:198   */\n              0x00\n                /* \"#utility.yul\":194:195   */\n              dup1\n                /* \"#utility.yul\":187:199   */\n              revert\n                /* \"#utility.yul\":334:411   */\n            tag_165:\n                /* \"#utility.yul\":371:378   */\n              0x00\n                /* \"#utility.yul\":400:405   */\n              dup2\n                /* \"#utility.yul\":389:405   */\n              swap1\n              pop\n                /* \"#utility.yul\":334:411   */\n              swap2\n              swap1\n              pop\n              jump\t// out\n                /* \"#utility.yul\":417:539   */\n            tag_166:\n                /* \"#utility.yul\":490:514   */\n              tag_213\n                /* \"#utility.yul\":508:513   */\n              dup2\n                /* \"#utility.yul\":490:514   */\n              tag_165\n              jump\t// in\n            tag_213:\n                /* \"#utility.yul\":483:488   */\n              dup2\n                /* \"#utility.yul\":480:515   */\n              eq\n                /* \"#utility.yul\":470:533   */\n              tag_214\n              jumpi\n                /* \"#utility.yul\":529:530   */\n              0x00\n                /* \"#utility.yul\":526:527   */\n              dup1\n                /* \"#utility.yul\":519:531   */\n              revert\n                /* \"#utility.yul\":470:533   */\n            tag_214:\n                /* \"#utility.yul\":417:539   */\n              pop\n              jump\t// out\n                /* \"#utility.yul\":545:684   */\n            tag_167:\n                /* \"#utility.yul\":591:596   */\n              0x00\n                /* \"#utility.yul\":629:635   */\n              dup2\n                /* \"#utility.yul\":616:636   */\n              calldataload\n                /* \"#utility.yul\":607:636   */\n              swap1\n              pop\n                /* \"#utility.yul\":645:678   */\n              tag_216\n                /* \"#utility.yul\":672:677   */\n              dup2\n                /* \"#utility.yul\":645:678   */\n              tag_166\n              jump\t// in\n            tag_216:\n                /* \"#utility.yul\":545:684   */\n              swap3\n              swap2\n              pop\n              pop\n              jump\t// out\n                /* \"#utility.yul\":690:1019   */\n            tag_18:\n                /* \"#utility.yul\":749:755   */\n              0x00\n                /* \"#utility.yul\":798:800   */\n              0x20\n                /* \"#utility.yul\":786:795   */\n              dup3\n                /* \"#utility.yul\":777:784   */\n              dup5\n                /* \"#utility.yul\":773:796   */\n              sub\n                /* \"#utility.yul\":769:801   */\n              slt\n                /* \"#utility.yul\":766:885   */\n              iszero\n              tag_218\n              jumpi\n                /* \"#utility.yul\":804:883   */\n              tag_219\n              tag_163\n              jump\t// in\n            tag_219:\n                /* \"#utility.yul\":766:885   */\n            tag_218:\n                /* \"#utility.yul\":924:925   */\n              0x00\n                /* \"#utility.yul\":949:1002   */\n              tag_220\n                /* \"#utility.yul\":994:1001   */\n              dup5\n                /* \"#utility.yul\":985:991   */\n              dup3\n                /* \"#utility.yul\":974:983   */\n              dup6\n                /* \"#utility.yul\":970:992   */\n              add\n                /* \"#utility.yul\":949:1002   */\n              tag_167\n              jump\t// in\n            tag_220:\n                /* \"#utility.yul\":939:1002   */\n              swap2\n              pop\n                /* \"#utility.yul\":895:1012   */\n              pop\n                /* \"#utility.yul\":690:1019   */\n              swap3\n              swap2\n              pop\n              pop\n              jump\t// out\n                /* \"#utility.yul\":1025:1124   */\n            tag_168:\n                /* \"#utility.yul\":1077:1083   */\n              0x00\n                /* \"#utility.yul\":1111:1116   */\n              dup2\n                /* \"#utility.yul\":1105:1117   */\n              mload\n                /* \"#utility.yul\":1095:1117   */\n              swap1\n              pop\n                /* \"#utility.yul\":1025:1124   */\n              swap2\n              swap1\n              pop\n              jump\t// out\n                /* \"#utility.yul\":1130:1299   */\n            tag_169:\n                /* \"#utility.yul\":1214:1225   */\n              0x00\n                /* \"#utility.yul\":1248:1254   */\n              dup3\n                /* \"#utility.yul\":1243:1246   */\n              dup3\n                /* \"#utility.yul\":1236:1255   */\n              mstore\n                /* \"#utility.yul\":1288:1292   */\n              0x20\n                /* \"#utility.yul\":1283:1286   */\n              dup3\n                /* \"#utility.yul\":1279:1293   */\n              add\n                /* \"#utility.yul\":1264:1293   */\n              swap1\n              pop\n                /* \"#utility.yul\":1130:1299   */\n              swap3\n              swap2\n              pop\n              pop\n              jump\t// out\n                /* \"#utility.yul\":1305:1551   */\n            tag_170:\n                /* \"#utility.yul\":1386:1387   */\n              0x00\n                /* \"#utility.yul\":1396:1509   */\n            tag_224:\n                /* \"#utility.yul\":1410:1416   */\n              dup4\n                /* \"#utility.yul\":1407:1408   */\n              dup2\n                /* \"#utility.yul\":1404:1417   */\n              lt\n                /* \"#utility.yul\":1396:1509   */\n              iszero\n              tag_226\n              jumpi\n                /* \"#utility.yul\":1495:1496   */\n              dup1\n                /* \"#utility.yul\":1490:1493   */\n              dup3\n                /* \"#utility.yul\":1486:1497   */\n              add\n                /* \"#utility.yul\":1480:1498   */\n              mload\n                /* \"#utility.yul\":1476:1477   */\n              dup2\n                /* \"#utility.yul\":1471:1474   */\n              dup5\n                /* \"#utility.yul\":1467:1478   */\n              add\n                /* \"#utility.yul\":1460:1499   */\n              mstore\n                /* \"#utility.yul\":1432:1434   */\n              0x20\n                /* \"#utility.yul\":1429:1430   */\n              dup2\n                /* \"#utility.yul\":1425:1435   */\n              add\n                /* \"#utility.yul\":1420:1435   */\n              swap1\n              pop\n                /* \"#utility.yul\":1396:1509   */\n              jump(tag_224)\n            tag_226:\n                /* \"#utility.yul\":1543:1544   */\n              0x00\n                /* \"#utility.yul\":1534:1540   */\n              dup5\n                /* \"#utility.yul\":1529:1532   */\n              dup5\n                /* \"#utility.yul\":1525:1541   */\n              add\n                /* \"#utility.yul\":1518:1545   */\n              mstore\n                /* \"#utility.yul\":1367:1551   */\n              pop\n                /* \"#utility.yul\":1305:1551   */\n              pop\n              pop\n              pop\n              jump\t// out\n                /* \"#utility.yul\":1557:1659   */\n            tag_171:\n                /* \"#utility.yul\":1598:1604   */\n              0x00\n                /* \"#utility.yul\":1649:1651   */\n              0x1f\n                /* \"#utility.yul\":1645:1652   */\n              not\n                /* \"#utility.yul\":1640:1642   */\n              0x1f\n                /* \"#utility.yul\":1633:1638   */\n              dup4\n                /* \"#utility.yul\":1629:1643   */\n              add\n                /* \"#utility.yul\":1625:1653   */\n              and\n                /* \"#utility.yul\":1615:1653   */\n              swap1\n              pop\n                /* \"#utility.yul\":1557:1659   */\n              swap2\n              swap1\n              pop\n              jump\t// out\n                /* \"#utility.yul\":1665:2042   */\n            tag_172:\n                /* \"#utility.yul\":1753:1756   */\n              0x00\n                /* \"#utility.yul\":1781:1820   */\n              tag_229\n                /* \"#utility.yul\":1814:1819   */\n              dup3\n                /* \"#utility.yul\":1781:1820   */\n              tag_168\n              jump\t// in\n            tag_229:\n                /* \"#utility.yul\":1836:1907   */\n              tag_230\n                /* \"#utility.yul\":1900:1906   */\n              dup2\n                /* \"#utility.yul\":1895:1898   */\n              dup6\n                /* \"#utility.yul\":1836:1907   */\n              tag_169\n              jump\t// in\n            tag_230:\n                /* \"#utility.yul\":1829:1907   */\n              swap4\n              pop\n                /* \"#utility.yul\":1916:1981   */\n              tag_231\n                /* \"#utility.yul\":1974:1980   */\n              dup2\n                /* \"#utility.yul\":1969:1972   */\n              dup6\n                /* \"#utility.yul\":1962:1966   */\n              0x20\n                /* \"#utility.yul\":1955:1960   */\n              dup7\n                /* \"#utility.yul\":1951:1967   */\n              add\n                /* \"#utility.yul\":1916:1981   */\n              tag_170\n              jump\t// in\n            tag_231:\n                /* \"#utility.yul\":2006:2035   */\n              tag_232\n                /* \"#utility.yul\":2028:2034   */\n              dup2\n                /* \"#utility.yul\":2006:2035   */\n              tag_171\n              jump\t// in\n            tag_232:\n                /* \"#utility.yul\":2001:2004   */\n              dup5\n                /* \"#utility.yul\":1997:2036   */\n              add\n                /* \"#utility.yul\":1990:2036   */\n              swap2\n              pop\n                /* \"#utility.yul\":1757:2042   */\n              pop\n                /* \"#utility.yul\":1665:2042   */\n              swap3\n              swap2\n              pop\n              pop\n              jump\t// out\n                /* \"#utility.yul\":2048:2166   */\n            tag_173:\n                /* \"#utility.yul\":2135:2159   */\n              tag_234\n                /* \"#utility.yul\":2153:2158   */\n              dup2\n                /* \"#utility.yul\":2135:2159   */\n              tag_165\n              jump\t// in\n            tag_234:\n                /* \"#utility.yul\":2130:2133   */\n              dup3\n                /* \"#utility.yul\":2123:2160   */\n              mstore\n                /* \"#utility.yul\":2048:2166   */\n              pop\n              pop\n              jump\t// out\n                /* \"#utility.yul\":2172:2595   */\n            tag_21:\n                /* \"#utility.yul\":2313:2317   */\n              0x00\n                /* \"#utility.yul\":2351:2353   */\n              0x40\n                /* \"#utility.yul\":2340:2349   */\n              dup3\n                /* \"#utility.yul\":2336:2354   */\n              add\n                /* \"#utility.yul\":2328:2354   */\n              swap1\n              pop\n                /* \"#utility.yul\":2400:2409   */\n              dup2\n                /* \"#utility.yul\":2394:2398   */\n              dup2\n                /* \"#utility.yul\":2390:2410   */\n              sub\n                /* \"#utility.yul\":2386:2387   */\n              0x00\n                /* \"#utility.yul\":2375:2384   */\n              dup4\n                /* \"#utility.yul\":2371:2388   */\n              add\n                /* \"#utility.yul\":2364:2411   */\n              mstore\n                /* \"#utility.yul\":2428:2506   */\n              tag_236\n                /* \"#utility.yul\":2501:2505   */\n              dup2\n                /* \"#utility.yul\":2492:2498   */\n              dup6\n                /* \"#utility.yul\":2428:2506   */\n              tag_172\n              jump\t// in\n            tag_236:\n                /* \"#utility.yul\":2420:2506   */\n              swap1\n              pop\n                /* \"#utility.yul\":2516:2588   */\n              tag_237\n                /* \"#utility.yul\":2584:2586   */\n              0x20\n                /* \"#utility.yul\":2573:2582   */\n              dup4\n                /* \"#utility.yul\":2569:2587   */\n              add\n                /* \"#utility.yul\":2560:2566   */\n              dup5\n                /* \"#utility.yul\":2516:2588   */\n              tag_173\n              jump\t// in\n            tag_237:\n                /* \"#utility.yul\":2172:2595   */\n              swap4\n              swap3\n              pop\n              pop\n              pop\n              jump\t// out\n                /* \"#utility.yul\":2601:2727   */\n            tag_174:\n                /* \"#utility.yul\":2638:2645   */\n              0x00\n                /* \"#utility.yul\":2678:2720   */\n              0xffffffffffffffffffffffffffffffffffffffff\n                /* \"#utility.yul\":2671:2676   */\n              dup3\n                /* \"#utility.yul\":2667:2721   */\n              and\n                /* \"#utility.yul\":2656:2721   */\n              swap1\n              pop\n                /* \"#utility.yul\":2601:2727   */\n              swap2\n              swap1\n              pop\n              jump\t// out\n                /* \"#utility.yul\":2733:2829   */\n            tag_175:\n                /* \"#utility.yul\":2770:2777   */\n              0x00\n                /* \"#utility.yul\":2799:2823   */\n              tag_240\n                /* \"#utility.yul\":2817:2822   */\n              dup3\n                /* \"#utility.yul\":2799:2823   */\n              tag_174\n              jump\t// in\n            tag_240:\n                /* \"#utility.yul\":2788:2823   */\n              swap1\n              pop\n                /* \"#utility.yul\":2733:2829   */\n              swap2\n              swap1\n              pop\n              jump\t// out\n                /* \"#utility.yul\":2835:2953   */\n            tag_176:\n                /* \"#utility.yul\":2922:2946   */\n              tag_242\n                /* \"#utility.yul\":2940:2945   */\n              dup2\n                /* \"#utility.yul\":2922:2946   */\n              tag_175\n              jump\t// in\n            tag_242:\n                /* \"#utility.yul\":2917:2920   */\n              dup3\n                /* \"#utility.yul\":2910:2947   */\n              mstore\n                /* \"#utility.yul\":2835:2953   */\n              pop\n              pop\n              jump\t// out\n                /* \"#utility.yul\":2959:3181   */\n            tag_25:\n                /* \"#utility.yul\":3052:3056   */\n              0x00\n                /* \"#utility.yul\":3090:3092   */\n              0x20\n                /* \"#utility.yul\":3079:3088   */\n              dup3\n                /* \"#utility.yul\":3075:3093   */\n              add\n                /* \"#utility.yul\":3067:3093   */\n              swap1\n              pop\n                /* \"#utility.yul\":3103:3174   */\n              tag_244\n                /* \"#utility.yul\":3171:3172   */\n              0x00\n                /* \"#utility.yul\":3160:3169   */\n              dup4\n                /* \"#utility.yul\":3156:3173   */\n              add\n                /* \"#utility.yul\":3147:3153   */\n              dup5\n                /* \"#utility.yul\":3103:3174   */\n              tag_176\n              jump\t// in\n            tag_244:\n                /* \"#utility.yul\":2959:3181   */\n              swap3\n              swap2\n              pop\n              pop\n              jump\t// out\n                /* \"#utility.yul\":3187:3309   */\n            tag_177:\n                /* \"#utility.yul\":3260:3284   */\n              tag_246\n                /* \"#utility.yul\":3278:3283   */\n              dup2\n                /* \"#utility.yul\":3260:3284   */\n              tag_175\n              jump\t// in\n            tag_246:\n                /* \"#utility.yul\":3253:3258   */\n              dup2\n                /* \"#utility.yul\":3250:3285   */\n              eq\n                /* \"#utility.yul\":3240:3303   */\n              tag_247\n              jumpi\n                /* \"#utility.yul\":3299:3300   */\n              0x00\n                /* \"#utility.yul\":3296:3297   */\n              dup1\n                /* \"#utility.yul\":3289:3301   */\n              revert\n                /* \"#utility.yul\":3240:3303   */\n            tag_247:\n                /* \"#utility.yul\":3187:3309   */\n              pop\n              jump\t// out\n                /* \"#utility.yul\":3315:3454   */\n            tag_178:\n                /* \"#utility.yul\":3361:3366   */\n              0x00\n                /* \"#utility.yul\":3399:3405   */\n              dup2\n                /* \"#utility.yul\":3386:3406   */\n              calldataload\n                /* \"#utility.yul\":3377:3406   */\n              swap1\n              pop\n                /* \"#utility.yul\":3415:3448   */\n              tag_249\n                /* \"#utility.yul\":3442:3447   */\n              dup2\n                /* \"#utility.yul\":3415:3448   */\n              tag_177\n              jump\t// in\n            tag_249:\n                /* \"#utility.yul\":3315:3454   */\n              swap3\n              swap2\n              pop\n              pop\n              jump\t// out\n                /* \"#utility.yul\":3460:3789   */\n            tag_28:\n                /* \"#utility.yul\":3519:3525   */\n              0x00\n                /* \"#utility.yul\":3568:3570   */\n              0x20\n                /* \"#utility.yul\":3556:3565   */\n              dup3\n                /* \"#utility.yul\":3547:3554   */\n              dup5\n                /* \"#utility.yul\":3543:3566   */\n              sub\n                /* \"#utility.yul\":3539:3571   */\n              slt\n                /* \"#utility.yul\":3536:3655   */\n              iszero\n              tag_251\n              jumpi\n                /* \"#utility.yul\":3574:3653   */\n              tag_252\n              tag_163\n              jump\t// in\n            tag_252:\n                /* \"#utility.yul\":3536:3655   */\n            tag_251:\n                /* \"#utility.yul\":3694:3695   */\n              0x00\n                /* \"#utility.yul\":3719:3772   */\n              tag_253\n                /* \"#utility.yul\":3764:3771   */\n              dup5\n                /* \"#utility.yul\":3755:3761   */\n              dup3\n                /* \"#utility.yul\":3744:3753   */\n              dup6\n                /* \"#utility.yul\":3740:3762   */\n              add\n                /* \"#utility.yul\":3719:3772   */\n              tag_178\n              jump\t// in\n            tag_253:\n                /* \"#utility.yul\":3709:3772   */\n              swap2\n              pop\n                /* \"#utility.yul\":3665:3782   */\n              pop\n                /* \"#utility.yul\":3460:3789   */\n              swap3\n              swap2\n              pop\n              pop\n              jump\t// out\n                /* \"#utility.yul\":3795:3885   */\n            tag_179:\n                /* \"#utility.yul\":3829:3836   */\n              0x00\n                /* \"#utility.yul\":3872:3877   */\n              dup2\n                /* \"#utility.yul\":3865:3878   */\n              iszero\n                /* \"#utility.yul\":3858:3879   */\n              iszero\n                /* \"#utility.yul\":3847:3879   */\n              swap1\n              pop\n                /* \"#utility.yul\":3795:3885   */\n              swap2\n              swap1\n              pop\n              jump\t// out\n                /* \"#utility.yul\":3891:4000   */\n            tag_180:\n                /* \"#utility.yul\":3972:3993   */\n              tag_256\n                /* \"#utility.yul\":3987:3992   */\n              dup2\n                /* \"#utility.yul\":3972:3993   */\n              tag_179\n              jump\t// in\n            tag_256:\n                /* \"#utility.yul\":3967:3970   */\n              dup3\n                /* \"#utility.yul\":3960:3994   */\n              mstore\n                /* \"#utility.yul\":3891:4000   */\n              pop\n              pop\n              jump\t// out\n                /* \"#utility.yul\":4006:4216   */\n            tag_31:\n                /* \"#utility.yul\":4093:4097   */\n              0x00\n                /* \"#utility.yul\":4131:4133   */\n              0x20\n                /* \"#utility.yul\":4120:4129   */\n              dup3\n                /* \"#utility.yul\":4116:4134   */\n              add\n                /* \"#utility.yul\":4108:4134   */\n              swap1\n              pop\n                /* \"#utility.yul\":4144:4209   */\n              tag_258\n                /* \"#utility.yul\":4206:4207   */\n              0x00\n                /* \"#utility.yul\":4195:4204   */\n              dup4\n                /* \"#utility.yul\":4191:4208   */\n              add\n                /* \"#utility.yul\":4182:4188   */\n              dup5\n                /* \"#utility.yul\":4144:4209   */\n              tag_180\n              jump\t// in\n            tag_258:\n                /* \"#utility.yul\":4006:4216   */\n              swap3\n              swap2\n              pop\n              pop\n              jump\t// out\n                /* \"#utility.yul\":4222:4444   */\n            tag_35:\n                /* \"#utility.yul\":4315:4319   */\n              0x00\n                /* \"#utility.yul\":4353:4355   */\n              0x20\n                /* \"#utility.yul\":4342:4351   */\n              dup3\n                /* \"#utility.yul\":4338:4356   */\n              add\n                /* \"#utility.yul\":4330:4356   */\n              swap1\n              pop\n                /* \"#utility.yul\":4366:4437   */\n              tag_260\n                /* \"#utility.yul\":4434:4435   */\n              0x00\n                /* \"#utility.yul\":4423:4432   */\n              dup4\n                /* \"#utility.yul\":4419:4436   */\n              add\n                /* \"#utility.yul\":4410:4416   */\n              dup5\n                /* \"#utility.yul\":4366:4437   */\n              tag_173\n              jump\t// in\n            tag_260:\n                /* \"#utility.yul\":4222:4444   */\n              swap3\n              swap2\n              pop\n              pop\n              jump\t// out\n                /* \"#utility.yul\":4450:4589   */\n            tag_181:\n                /* \"#utility.yul\":4542:4548   */\n              0x00\n                /* \"#utility.yul\":4576:4581   */\n              dup2\n                /* \"#utility.yul\":4570:4582   */\n              mload\n                /* \"#utility.yul\":4560:4582   */\n              swap1\n              pop\n                /* \"#utility.yul\":4450:4589   */\n              swap2\n              swap1\n              pop\n              jump\t// out\n                /* \"#utility.yul\":4595:4804   */\n            tag_182:\n                /* \"#utility.yul\":4719:4730   */\n              0x00\n                /* \"#utility.yul\":4753:4759   */\n              dup3\n                /* \"#utility.yul\":4748:4751   */\n              dup3\n                /* \"#utility.yul\":4741:4760   */\n              mstore\n                /* \"#utility.yul\":4793:4797   */\n              0x20\n                /* \"#utility.yul\":4788:4791   */\n              dup3\n                /* \"#utility.yul\":4784:4798   */\n              add\n                /* \"#utility.yul\":4769:4798   */\n              swap1\n              pop\n                /* \"#utility.yul\":4595:4804   */\n              swap3\n              swap2\n              pop\n              pop\n              jump\t// out\n                /* \"#utility.yul\":4810:4967   */\n            tag_183:\n                /* \"#utility.yul\":4902:4906   */\n              0x00\n                /* \"#utility.yul\":4925:4928   */\n              dup2\n                /* \"#utility.yul\":4917:4928   */\n              swap1\n              pop\n                /* \"#utility.yul\":4955:4959   */\n              0x20\n                /* \"#utility.yul\":4950:4953   */\n              dup3\n                /* \"#utility.yul\":4946:4960   */\n              add\n                /* \"#utility.yul\":4938:4960   */\n              swap1\n              pop\n                /* \"#utility.yul\":4810:4967   */\n              swap2\n              swap1\n              pop\n              jump\t// out\n                /* \"#utility.yul\":4973:5132   */\n            tag_184:\n                /* \"#utility.yul\":5047:5058   */\n              0x00\n                /* \"#utility.yul\":5081:5087   */\n              dup3\n                /* \"#utility.yul\":5076:5079   */\n              dup3\n                /* \"#utility.yul\":5069:5088   */\n              mstore\n                /* \"#utility.yul\":5121:5125   */\n              0x20\n                /* \"#utility.yul\":5116:5119   */\n              dup3\n                /* \"#utility.yul\":5112:5126   */\n              add\n                /* \"#utility.yul\":5097:5126   */\n              swap1\n              pop\n                /* \"#utility.yul\":4973:5132   */\n              swap3\n              swap2\n              pop\n              pop\n              jump\t// out\n                /* \"#utility.yul\":5138:5495   */\n            tag_185:\n                /* \"#utility.yul\":5216:5219   */\n              0x00\n                /* \"#utility.yul\":5244:5283   */\n              tag_266\n                /* \"#utility.yul\":5277:5282   */\n              dup3\n                /* \"#utility.yul\":5244:5283   */\n              tag_168\n              jump\t// in\n            tag_266:\n                /* \"#utility.yul\":5299:5360   */\n              tag_267\n                /* \"#utility.yul\":5353:5359   */\n              dup2\n                /* \"#utility.yul\":5348:5351   */\n              dup6\n                /* \"#utility.yul\":5299:5360   */\n              tag_184\n              jump\t// in\n            tag_267:\n                /* \"#utility.yul\":5292:5360   */\n              swap4\n              pop\n                /* \"#utility.yul\":5369:5434   */\n              tag_268\n                /* \"#utility.yul\":5427:5433   */\n              dup2\n                /* \"#utility.yul\":5422:5425   */\n              dup6\n                /* \"#utility.yul\":5415:5419   */\n              0x20\n                /* \"#utility.yul\":5408:5413   */\n              dup7\n                /* \"#utility.yul\":5404:5420   */\n              add\n                /* \"#utility.yul\":5369:5434   */\n              tag_170\n              jump\t// in\n            tag_268:\n                /* \"#utility.yul\":5459:5488   */\n              tag_269\n                /* \"#utility.yul\":5481:5487   */\n              dup2\n                /* \"#utility.yul\":5459:5488   */\n              tag_171\n              jump\t// in\n            tag_269:\n                /* \"#utility.yul\":5454:5457   */\n              dup5\n                /* \"#utility.yul\":5450:5489   */\n              add\n                /* \"#utility.yul\":5443:5489   */\n              swap2\n              pop\n                /* \"#utility.yul\":5220:5495   */\n              pop\n                /* \"#utility.yul\":5138:5495   */\n              swap3\n              swap2\n              pop\n              pop\n              jump\t// out\n                /* \"#utility.yul\":5501:5609   */\n            tag_186:\n                /* \"#utility.yul\":5578:5602   */\n              tag_271\n                /* \"#utility.yul\":5596:5601   */\n              dup2\n                /* \"#utility.yul\":5578:5602   */\n              tag_165\n              jump\t// in\n            tag_271:\n                /* \"#utility.yul\":5573:5576   */\n              dup3\n                /* \"#utility.yul\":5566:5603   */\n              mstore\n                /* \"#utility.yul\":5501:5609   */\n              pop\n              pop\n              jump\t// out\n                /* \"#utility.yul\":5685:6286   */\n            tag_187:\n                /* \"#utility.yul\":5794:5797   */\n              0x00\n                /* \"#utility.yul\":5830:5834   */\n              0x40\n                /* \"#utility.yul\":5825:5828   */\n              dup4\n                /* \"#utility.yul\":5821:5835   */\n              add\n                /* \"#utility.yul\":5917:5921   */\n              0x00\n                /* \"#utility.yul\":5910:5915   */\n              dup4\n                /* \"#utility.yul\":5906:5922   */\n              add\n                /* \"#utility.yul\":5900:5923   */\n              mload\n                /* \"#utility.yul\":5970:5973   */\n              dup5\n                /* \"#utility.yul\":5964:5968   */\n              dup3\n                /* \"#utility.yul\":5960:5974   */\n              sub\n                /* \"#utility.yul\":5953:5957   */\n              0x00\n                /* \"#utility.yul\":5948:5951   */\n              dup7\n                /* \"#utility.yul\":5944:5958   */\n              add\n                /* \"#utility.yul\":5937:5975   */\n              mstore\n                /* \"#utility.yul\":5996:6069   */\n              tag_273\n                /* \"#utility.yul\":6064:6068   */\n              dup3\n                /* \"#utility.yul\":6050:6062   */\n              dup3\n                /* \"#utility.yul\":5996:6069   */\n              tag_185\n              jump\t// in\n            tag_273:\n                /* \"#utility.yul\":5988:6069   */\n              swap2\n              pop\n                /* \"#utility.yul\":5845:6080   */\n              pop\n                /* \"#utility.yul\":6167:6171   */\n              0x20\n                /* \"#utility.yul\":6160:6165   */\n              dup4\n                /* \"#utility.yul\":6156:6172   */\n              add\n                /* \"#utility.yul\":6150:6173   */\n              mload\n                /* \"#utility.yul\":6186:6249   */\n              tag_274\n                /* \"#utility.yul\":6243:6247   */\n              0x20\n                /* \"#utility.yul\":6238:6241   */\n              dup7\n                /* \"#utility.yul\":6234:6248   */\n              add\n                /* \"#utility.yul\":6220:6232   */\n              dup3\n                /* \"#utility.yul\":6186:6249   */\n              tag_186\n              jump\t// in\n            tag_274:\n                /* \"#utility.yul\":6090:6259   */\n              pop\n                /* \"#utility.yul\":6276:6280   */\n              dup1\n                /* \"#utility.yul\":6269:6280   */\n              swap2\n              pop\n                /* \"#utility.yul\":5799:6286   */\n              pop\n                /* \"#utility.yul\":5685:6286   */\n              swap3\n              swap2\n              pop\n              pop\n              jump\t// out\n                /* \"#utility.yul\":6292:6548   */\n            tag_188:\n                /* \"#utility.yul\":6411:6421   */\n              0x00\n                /* \"#utility.yul\":6446:6542   */\n              tag_276\n                /* \"#utility.yul\":6538:6541   */\n              dup4\n                /* \"#utility.yul\":6530:6536   */\n              dup4\n                /* \"#utility.yul\":6446:6542   */\n              tag_187\n              jump\t// in\n            tag_276:\n                /* \"#utility.yul\":6432:6542   */\n              swap1\n              pop\n                /* \"#utility.yul\":6292:6548   */\n              swap3\n              swap2\n              pop\n              pop\n              jump\t// out\n                /* \"#utility.yul\":6554:6692   */\n            tag_189:\n                /* \"#utility.yul\":6649:6653   */\n              0x00\n                /* \"#utility.yul\":6681:6685   */\n              0x20\n                /* \"#utility.yul\":6676:6679   */\n              dup3\n                /* \"#utility.yul\":6672:6686   */\n              add\n                /* \"#utility.yul\":6664:6686   */\n              swap1\n              pop\n                /* \"#utility.yul\":6554:6692   */\n              swap2\n              swap1\n              pop\n              jump\t// out\n                /* \"#utility.yul\":6772:7883   */\n            tag_190:\n                /* \"#utility.yul\":6941:6944   */\n              0x00\n                /* \"#utility.yul\":6970:7049   */\n              tag_279\n                /* \"#utility.yul\":7043:7048   */\n              dup3\n                /* \"#utility.yul\":6970:7049   */\n              tag_181\n              jump\t// in\n            tag_279:\n                /* \"#utility.yul\":7065:7176   */\n              tag_280\n                /* \"#utility.yul\":7169:7175   */\n              dup2\n                /* \"#utility.yul\":7164:7167   */\n              dup6\n                /* \"#utility.yul\":7065:7176   */\n              tag_182\n              jump\t// in\n            tag_280:\n                /* \"#utility.yul\":7058:7176   */\n              swap4\n              pop\n                /* \"#utility.yul\":7202:7205   */\n              dup4\n                /* \"#utility.yul\":7247:7251   */\n              0x20\n                /* \"#utility.yul\":7239:7245   */\n              dup3\n                /* \"#utility.yul\":7235:7252   */\n              mul\n                /* \"#utility.yul\":7230:7233   */\n              dup6\n                /* \"#utility.yul\":7226:7253   */\n              add\n                /* \"#utility.yul\":7277:7358   */\n              tag_281\n                /* \"#utility.yul\":7352:7357   */\n              dup6\n                /* \"#utility.yul\":7277:7358   */\n              tag_183\n              jump\t// in\n            tag_281:\n                /* \"#utility.yul\":7381:7388   */\n              dup1\n                /* \"#utility.yul\":7412:7413   */\n              0x00\n                /* \"#utility.yul\":7397:7838   */\n            tag_282:\n                /* \"#utility.yul\":7422:7428   */\n              dup6\n                /* \"#utility.yul\":7419:7420   */\n              dup2\n                /* \"#utility.yul\":7416:7429   */\n              lt\n                /* \"#utility.yul\":7397:7838   */\n              iszero\n              tag_284\n              jumpi\n                /* \"#utility.yul\":7493:7502   */\n              dup5\n                /* \"#utility.yul\":7487:7491   */\n              dup5\n                /* \"#utility.yul\":7483:7503   */\n              sub\n                /* \"#utility.yul\":7478:7481   */\n              dup10\n                /* \"#utility.yul\":7471:7504   */\n              mstore\n                /* \"#utility.yul\":7544:7550   */\n              dup2\n                /* \"#utility.yul\":7538:7551   */\n              mload\n                /* \"#utility.yul\":7572:7686   */\n              tag_285\n                /* \"#utility.yul\":7681:7685   */\n              dup6\n                /* \"#utility.yul\":7666:7679   */\n              dup3\n                /* \"#utility.yul\":7572:7686   */\n              tag_188\n              jump\t// in\n            tag_285:\n                /* \"#utility.yul\":7564:7686   */\n              swap5\n              pop\n                /* \"#utility.yul\":7709:7794   */\n              tag_286\n                /* \"#utility.yul\":7787:7793   */\n              dup4\n                /* \"#utility.yul\":7709:7794   */\n              tag_189\n              jump\t// in\n            tag_286:\n                /* \"#utility.yul\":7699:7794   */\n              swap3\n              pop\n                /* \"#utility.yul\":7823:7827   */\n              0x20\n                /* \"#utility.yul\":7818:7821   */\n              dup11\n                /* \"#utility.yul\":7814:7828   */\n              add\n                /* \"#utility.yul\":7807:7828   */\n              swap10\n              pop\n                /* \"#utility.yul\":7457:7838   */\n              pop\n                /* \"#utility.yul\":7444:7445   */\n              0x01\n                /* \"#utility.yul\":7441:7442   */\n              dup2\n                /* \"#utility.yul\":7437:7446   */\n              add\n                /* \"#utility.yul\":7432:7446   */\n              swap1\n              pop\n                /* \"#utility.yul\":7397:7838   */\n              jump(tag_282)\n            tag_284:\n                /* \"#utility.yul\":7401:7415   */\n              pop\n                /* \"#utility.yul\":7854:7858   */\n              dup3\n                /* \"#utility.yul\":7847:7858   */\n              swap8\n              pop\n                /* \"#utility.yul\":7874:7877   */\n              dup8\n                /* \"#utility.yul\":7867:7877   */\n              swap6\n              pop\n                /* \"#utility.yul\":6946:7883   */\n              pop\n              pop\n              pop\n              pop\n              pop\n                /* \"#utility.yul\":6772:7883   */\n              swap3\n              swap2\n              pop\n              pop\n              jump\t// out\n                /* \"#utility.yul\":7889:8362   */\n            tag_39:\n                /* \"#utility.yul\":8082:8086   */\n              0x00\n                /* \"#utility.yul\":8120:8122   */\n              0x20\n                /* \"#utility.yul\":8109:8118   */\n              dup3\n                /* \"#utility.yul\":8105:8123   */\n              add\n                /* \"#utility.yul\":8097:8123   */\n              swap1\n              pop\n                /* \"#utility.yul\":8169:8178   */\n              dup2\n                /* \"#utility.yul\":8163:8167   */\n              dup2\n                /* \"#utility.yul\":8159:8179   */\n              sub\n                /* \"#utility.yul\":8155:8156   */\n              0x00\n                /* \"#utility.yul\":8144:8153   */\n              dup4\n                /* \"#utility.yul\":8140:8157   */\n              add\n                /* \"#utility.yul\":8133:8180   */\n              mstore\n                /* \"#utility.yul\":8197:8355   */\n              tag_288\n                /* \"#utility.yul\":8350:8354   */\n              dup2\n                /* \"#utility.yul\":8341:8347   */\n              dup5\n                /* \"#utility.yul\":8197:8355   */\n              tag_190\n              jump\t// in\n            tag_288:\n                /* \"#utility.yul\":8189:8355   */\n              swap1\n              pop\n                /* \"#utility.yul\":7889:8362   */\n              swap3\n              swap2\n              pop\n              pop\n              jump\t// out\n                /* \"#utility.yul\":8368:8681   */\n            tag_46:\n                /* \"#utility.yul\":8481:8485   */\n              0x00\n                /* \"#utility.yul\":8519:8521   */\n              0x20\n                /* \"#utility.yul\":8508:8517   */\n              dup3\n                /* \"#utility.yul\":8504:8522   */\n              add\n                /* \"#utility.yul\":8496:8522   */\n              swap1\n              pop\n                /* \"#utility.yul\":8568:8577   */\n              dup2\n                /* \"#utility.yul\":8562:8566   */\n              dup2\n                /* \"#utility.yul\":8558:8578   */\n              sub\n                /* \"#utility.yul\":8554:8555   */\n              0x00\n                /* \"#utility.yul\":8543:8552   */\n              dup4\n                /* \"#utility.yul\":8539:8556   */\n              add\n                /* \"#utility.yul\":8532:8579   */\n              mstore\n                /* \"#utility.yul\":8596:8674   */\n              tag_290\n                /* \"#utility.yul\":8669:8673   */\n              dup2\n                /* \"#utility.yul\":8660:8666   */\n              dup5\n                /* \"#utility.yul\":8596:8674   */\n              tag_172\n              jump\t// in\n            tag_290:\n                /* \"#utility.yul\":8588:8674   */\n              swap1\n              pop\n                /* \"#utility.yul\":8368:8681   */\n              swap3\n              swap2\n              pop\n              pop\n              jump\t// out\n                /* \"#utility.yul\":8687:8773   */\n            tag_191:\n                /* \"#utility.yul\":8722:8729   */\n              0x00\n                /* \"#utility.yul\":8762:8766   */\n              0xff\n                /* \"#utility.yul\":8755:8760   */\n              dup3\n                /* \"#utility.yul\":8751:8767   */\n              and\n                /* \"#utility.yul\":8740:8767   */\n              swap1\n              pop\n                /* \"#utility.yul\":8687:8773   */\n              swap2\n              swap1\n              pop\n              jump\t// out\n                /* \"#utility.yul\":8779:8891   */\n            tag_192:\n                /* \"#utility.yul\":8862:8884   */\n              tag_293\n                /* \"#utility.yul\":8878:8883   */\n              dup2\n                /* \"#utility.yul\":8862:8884   */\n              tag_191\n              jump\t// in\n            tag_293:\n                /* \"#utility.yul\":8857:8860   */\n              dup3\n                /* \"#utility.yul\":8850:8885   */\n              mstore\n                /* \"#utility.yul\":8779:8891   */\n              pop\n              pop\n              jump\t// out\n                /* \"#utility.yul\":8897:9529   */\n            tag_54:\n                /* \"#utility.yul\":9086:9090   */\n              0x00\n                /* \"#utility.yul\":9124:9127   */\n              0xa0\n                /* \"#utility.yul\":9113:9122   */\n              dup3\n                /* \"#utility.yul\":9109:9128   */\n              add\n                /* \"#utility.yul\":9101:9128   */\n              swap1\n              pop\n                /* \"#utility.yul\":9138:9203   */\n              tag_295\n                /* \"#utility.yul\":9200:9201   */\n              0x00\n                /* \"#utility.yul\":9189:9198   */\n              dup4\n                /* \"#utility.yul\":9185:9202   */\n              add\n                /* \"#utility.yul\":9176:9182   */\n              dup9\n                /* \"#utility.yul\":9138:9203   */\n              tag_180\n              jump\t// in\n            tag_295:\n                /* \"#utility.yul\":9213:9279   */\n              tag_296\n                /* \"#utility.yul\":9275:9277   */\n              0x20\n                /* \"#utility.yul\":9264:9273   */\n              dup4\n                /* \"#utility.yul\":9260:9278   */\n              add\n                /* \"#utility.yul\":9251:9257   */\n              dup8\n                /* \"#utility.yul\":9213:9279   */\n              tag_180\n              jump\t// in\n            tag_296:\n                /* \"#utility.yul\":9289:9357   */\n              tag_297\n                /* \"#utility.yul\":9353:9355   */\n              0x40\n                /* \"#utility.yul\":9342:9351   */\n              dup4\n                /* \"#utility.yul\":9338:9356   */\n              add\n                /* \"#utility.yul\":9329:9335   */\n              dup7\n                /* \"#utility.yul\":9289:9357   */\n              tag_192\n              jump\t// in\n            tag_297:\n                /* \"#utility.yul\":9367:9439   */\n              tag_298\n                /* \"#utility.yul\":9435:9437   */\n              0x60\n                /* \"#utility.yul\":9424:9433   */\n              dup4\n                /* \"#utility.yul\":9420:9438   */\n              add\n                /* \"#utility.yul\":9411:9417   */\n              dup6\n                /* \"#utility.yul\":9367:9439   */\n              tag_173\n              jump\t// in\n            tag_298:\n                /* \"#utility.yul\":9449:9522   */\n              tag_299\n                /* \"#utility.yul\":9517:9520   */\n              0x80\n                /* \"#utility.yul\":9506:9515   */\n              dup4\n                /* \"#utility.yul\":9502:9521   */\n              add\n                /* \"#utility.yul\":9493:9499   */\n              dup5\n                /* \"#utility.yul\":9449:9522   */\n              tag_176\n              jump\t// in\n            tag_299:\n                /* \"#utility.yul\":8897:9529   */\n              swap7\n              swap6\n              pop\n              pop\n              pop\n              pop\n              pop\n              pop\n              jump\t// out\n                /* \"#utility.yul\":9535:9653   */\n            tag_193:\n                /* \"#utility.yul\":9606:9628   */\n              tag_301\n                /* \"#utility.yul\":9622:9627   */\n              dup2\n                /* \"#utility.yul\":9606:9628   */\n              tag_191\n              jump\t// in\n            tag_301:\n                /* \"#utility.yul\":9599:9604   */\n              dup2\n                /* \"#utility.yul\":9596:9629   */\n              eq\n                /* \"#utility.yul\":9586:9647   */\n              tag_302\n              jumpi\n                /* \"#utility.yul\":9643:9644   */\n              0x00\n                /* \"#utility.yul\":9640:9641   */\n              dup1\n                /* \"#utility.yul\":9633:9645   */\n              revert\n                /* \"#utility.yul\":9586:9647   */\n            tag_302:\n                /* \"#utility.yul\":9535:9653   */\n              pop\n              jump\t// out\n                /* \"#utility.yul\":9659:9794   */\n            tag_194:\n                /* \"#utility.yul\":9703:9708   */\n              0x00\n                /* \"#utility.yul\":9741:9747   */\n              dup2\n                /* \"#utility.yul\":9728:9748   */\n              calldataload\n                /* \"#utility.yul\":9719:9748   */\n              swap1\n              pop\n                /* \"#utility.yul\":9757:9788   */\n              tag_304\n                /* \"#utility.yul\":9782:9787   */\n              dup2\n                /* \"#utility.yul\":9757:9788   */\n              tag_193\n              jump\t// in\n            tag_304:\n                /* \"#utility.yul\":9659:9794   */\n              swap3\n              swap2\n              pop\n              pop\n              jump\t// out\n                /* \"#utility.yul\":9800:10125   */\n            tag_57:\n                /* \"#utility.yul\":9857:9863   */\n              0x00\n                /* \"#utility.yul\":9906:9908   */\n              0x20\n                /* \"#utility.yul\":9894:9903   */\n              dup3\n                /* \"#utility.yul\":9885:9892   */\n              dup5\n                /* \"#utility.yul\":9881:9904   */\n              sub\n                /* \"#utility.yul\":9877:9909   */\n              slt\n                /* \"#utility.yul\":9874:9993   */\n              iszero\n              tag_306\n              jumpi\n                /* \"#utility.yul\":9912:9991   */\n              tag_307\n              tag_163\n              jump\t// in\n            tag_307:\n                /* \"#utility.yul\":9874:9993   */\n            tag_306:\n                /* \"#utility.yul\":10032:10033   */\n              0x00\n                /* \"#utility.yul\":10057:10108   */\n              tag_308\n                /* \"#utility.yul\":10100:10107   */\n              dup5\n                /* \"#utility.yul\":10091:10097   */\n              dup3\n                /* \"#utility.yul\":10080:10089   */\n              dup6\n                /* \"#utility.yul\":10076:10098   */\n              add\n                /* \"#utility.yul\":10057:10108   */\n              tag_194\n              jump\t// in\n            tag_308:\n                /* \"#utility.yul\":10047:10108   */\n              swap2\n              pop\n                /* \"#utility.yul\":10003:10118   */\n              pop\n                /* \"#utility.yul\":9800:10125   */\n              swap3\n              swap2\n              pop\n              pop\n              jump\t// out\n                /* \"#utility.yul\":10131:10311   */\n            tag_195:\n                /* \"#utility.yul\":10179:10256   */\n              0x4e487b7100000000000000000000000000000000000000000000000000000000\n                /* \"#utility.yul\":10176:10177   */\n              0x00\n                /* \"#utility.yul\":10169:10257   */\n              mstore\n                /* \"#utility.yul\":10276:10280   */\n              0x22\n                /* \"#utility.yul\":10273:10274   */\n              0x04\n                /* \"#utility.yul\":10266:10281   */\n              mstore\n                /* \"#utility.yul\":10300:10304   */\n              0x24\n                /* \"#utility.yul\":10297:10298   */\n              0x00\n                /* \"#utility.yul\":10290:10305   */\n              revert\n                /* \"#utility.yul\":10317:10637   */\n            tag_68:\n                /* \"#utility.yul\":10361:10367   */\n              0x00\n                /* \"#utility.yul\":10398:10399   */\n              0x02\n                /* \"#utility.yul\":10392:10396   */\n              dup3\n                /* \"#utility.yul\":10388:10400   */\n              div\n                /* \"#utility.yul\":10378:10400   */\n              swap1\n              pop\n                /* \"#utility.yul\":10445:10446   */\n              0x01\n                /* \"#utility.yul\":10439:10443   */\n              dup3\n                /* \"#utility.yul\":10435:10447   */\n              and\n                /* \"#utility.yul\":10466:10484   */\n              dup1\n                /* \"#utility.yul\":10456:10537   */\n              tag_311\n              jumpi\n                /* \"#utility.yul\":10522:10526   */\n              0x7f\n                /* \"#utility.yul\":10514:10520   */\n              dup3\n                /* \"#utility.yul\":10510:10527   */\n              and\n                /* \"#utility.yul\":10500:10527   */\n              swap2\n              pop\n                /* \"#utility.yul\":10456:10537   */\n            tag_311:\n                /* \"#utility.yul\":10584:10586   */\n              0x20\n                /* \"#utility.yul\":10576:10582   */\n              dup3\n                /* \"#utility.yul\":10573:10587   */\n              lt\n                /* \"#utility.yul\":10553:10571   */\n              dup2\n                /* \"#utility.yul\":10550:10588   */\n              sub\n                /* \"#utility.yul\":10547:10631   */\n              tag_312\n              jumpi\n                /* \"#utility.yul\":10603:10621   */\n              tag_313\n              tag_195\n              jump\t// in\n            tag_313:\n                /* \"#utility.yul\":10547:10631   */\n            tag_312:\n                /* \"#utility.yul\":10368:10637   */\n              pop\n                /* \"#utility.yul\":10317:10637   */\n              swap2\n              swap1\n              pop\n              jump\t// out\n                /* \"#utility.yul\":10643:10814   */\n            tag_196:\n                /* \"#utility.yul\":10783:10806   */\n              0x446561646c696e652068617320657870697265642e0000000000000000000000\n                /* \"#utility.yul\":10779:10780   */\n              0x00\n                /* \"#utility.yul\":10771:10777   */\n              dup3\n                /* \"#utility.yul\":10767:10781   */\n              add\n                /* \"#utility.yul\":10760:10807   */\n              mstore\n                /* \"#utility.yul\":10643:10814   */\n              pop\n              jump\t// out\n                /* \"#utility.yul\":10820:11186   */\n            tag_197:\n                /* \"#utility.yul\":10962:10965   */\n              0x00\n                /* \"#utility.yul\":10983:11050   */\n              tag_316\n                /* \"#utility.yul\":11047:11049   */\n              0x15\n                /* \"#utility.yul\":11042:11045   */\n              dup4\n                /* \"#utility.yul\":10983:11050   */\n              tag_169\n              jump\t// in\n            tag_316:\n                /* \"#utility.yul\":10976:11050   */\n              swap2\n              pop\n                /* \"#utility.yul\":11059:11152   */\n              tag_317\n                /* \"#utility.yul\":11148:11151   */\n              dup3\n                /* \"#utility.yul\":11059:11152   */\n              tag_196\n              jump\t// in\n            tag_317:\n                /* \"#utility.yul\":11177:11179   */\n              0x20\n                /* \"#utility.yul\":11172:11175   */\n              dup3\n                /* \"#utility.yul\":11168:11180   */\n              add\n                /* \"#utility.yul\":11161:11180   */\n              swap1\n              pop\n                /* \"#utility.yul\":10820:11186   */\n              swap2\n              swap1\n              pop\n              jump\t// out\n                /* \"#utility.yul\":11192:11611   */\n            tag_87:\n                /* \"#utility.yul\":11358:11362   */\n              0x00\n                /* \"#utility.yul\":11396:11398   */\n              0x20\n                /* \"#utility.yul\":11385:11394   */\n              dup3\n                /* \"#utility.yul\":11381:11399   */\n              add\n                /* \"#utility.yul\":11373:11399   */\n              swap1\n              pop\n                /* \"#utility.yul\":11445:11454   */\n              dup2\n                /* \"#utility.yul\":11439:11443   */\n              dup2\n                /* \"#utility.yul\":11435:11455   */\n              sub\n                /* \"#utility.yul\":11431:11432   */\n              0x00\n                /* \"#utility.yul\":11420:11429   */\n              dup4\n                /* \"#utility.yul\":11416:11433   */\n              add\n                /* \"#utility.yul\":11409:11456   */\n              mstore\n                /* \"#utility.yul\":11473:11604   */\n              tag_319\n                /* \"#utility.yul\":11599:11603   */\n              dup2\n                /* \"#utility.yul\":11473:11604   */\n              tag_197\n              jump\t// in\n            tag_319:\n                /* \"#utility.yul\":11465:11604   */\n              swap1\n              pop\n                /* \"#utility.yul\":11192:11611   */\n              swap2\n              swap1\n              pop\n              jump\t// out\n                /* \"#utility.yul\":11617:11781   */\n            tag_198:\n                /* \"#utility.yul\":11757:11773   */\n              0x416c726561647920766f7465642e000000000000000000000000000000000000\n                /* \"#utility.yul\":11753:11754   */\n              0x00\n                /* \"#utility.yul\":11745:11751   */\n              dup3\n                /* \"#utility.yul\":11741:11755   */\n              add\n                /* \"#utility.yul\":11734:11774   */\n              mstore\n                /* \"#utility.yul\":11617:11781   */\n              pop\n              jump\t// out\n                /* \"#utility.yul\":11787:12153   */\n            tag_199:\n                /* \"#utility.yul\":11929:11932   */\n              0x00\n                /* \"#utility.yul\":11950:12017   */\n              tag_322\n                /* \"#utility.yul\":12014:12016   */\n              0x0e\n                /* \"#utility.yul\":12009:12012   */\n              dup4\n                /* \"#utility.yul\":11950:12017   */\n              tag_169\n              jump\t// in\n            tag_322:\n                /* \"#utility.yul\":11943:12017   */\n              swap2\n              pop\n                /* \"#utility.yul\":12026:12119   */\n              tag_323\n                /* \"#utility.yul\":12115:12118   */\n              dup3\n                /* \"#utility.yul\":12026:12119   */\n              tag_198\n              jump\t// in\n            tag_323:\n                /* \"#utility.yul\":12144:12146   */\n              0x20\n                /* \"#utility.yul\":12139:12142   */\n              dup3\n                /* \"#utility.yul\":12135:12147   */\n              add\n                /* \"#utility.yul\":12128:12147   */\n              swap1\n              pop\n                /* \"#utility.yul\":11787:12153   */\n              swap2\n              swap1\n              pop\n              jump\t// out\n                /* \"#utility.yul\":12159:12578   */\n            tag_91:\n                /* \"#utility.yul\":12325:12329   */\n              0x00\n                /* \"#utility.yul\":12363:12365   */\n              0x20\n                /* \"#utility.yul\":12352:12361   */\n              dup3\n                /* \"#utility.yul\":12348:12366   */\n              add\n                /* \"#utility.yul\":12340:12366   */\n              swap1\n              pop\n                /* \"#utility.yul\":12412:12421   */\n              dup2\n                /* \"#utility.yul\":12406:12410   */\n              dup2\n                /* \"#utility.yul\":12402:12422   */\n              sub\n                /* \"#utility.yul\":12398:12399   */\n              0x00\n                /* \"#utility.yul\":12387:12396   */\n              dup4\n                /* \"#utility.yul\":12383:12400   */\n              add\n                /* \"#utility.yul\":12376:12423   */\n              mstore\n                /* \"#utility.yul\":12440:12571   */\n              tag_325\n                /* \"#utility.yul\":12566:12570   */\n              dup2\n                /* \"#utility.yul\":12440:12571   */\n              tag_199\n              jump\t// in\n            tag_325:\n                /* \"#utility.yul\":12432:12571   */\n              swap1\n              pop\n                /* \"#utility.yul\":12159:12578   */\n              swap2\n              swap1\n              pop\n              jump\t// out\n                /* \"#utility.yul\":12584:12765   */\n            tag_200:\n                /* \"#utility.yul\":12724:12757   */\n              0x53656c662d64656c65676174696f6e206973206e6f7420616c6c6f7765642e00\n                /* \"#utility.yul\":12720:12721   */\n              0x00\n                /* \"#utility.yul\":12712:12718   */\n              dup3\n                /* \"#utility.yul\":12708:12722   */\n              add\n                /* \"#utility.yul\":12701:12758   */\n              mstore\n                /* \"#utility.yul\":12584:12765   */\n              pop\n              jump\t// out\n                /* \"#utility.yul\":12771:13137   */\n            tag_201:\n                /* \"#utility.yul\":12913:12916   */\n              0x00\n                /* \"#utility.yul\":12934:13001   */\n              tag_328\n                /* \"#utility.yul\":12998:13000   */\n              0x1f\n                /* \"#utility.yul\":12993:12996   */\n              dup4\n                /* \"#utility.yul\":12934:13001   */\n              tag_169\n              jump\t// in\n            tag_328:\n                /* \"#utility.yul\":12927:13001   */\n              swap2\n              pop\n                /* \"#utility.yul\":13010:13103   */\n              tag_329\n                /* \"#utility.yul\":13099:13102   */\n              dup3\n                /* \"#utility.yul\":13010:13103   */\n              tag_200\n              jump\t// in\n            tag_329:\n                /* \"#utility.yul\":13128:13130   */\n              0x20\n                /* \"#utility.yul\":13123:13126   */\n              dup3\n                /* \"#utility.yul\":13119:13131   */\n              add\n                /* \"#utility.yul\":13112:13131   */\n              swap1\n              pop\n                /* \"#utility.yul\":12771:13137   */\n              swap2\n              swap1\n              pop\n              jump\t// out\n                /* \"#utility.yul\":13143:13562   */\n            tag_94:\n                /* \"#utility.yul\":13309:13313   */\n              0x00\n                /* \"#utility.yul\":13347:13349   */\n              0x20\n                /* \"#utility.yul\":13336:13345   */\n              dup3\n                /* \"#utility.yul\":13332:13350   */\n              add\n                /* \"#utility.yul\":13324:13350   */\n              swap1\n              pop\n                /* \"#utility.yul\":13396:13405   */\n              dup2\n                /* \"#utility.yul\":13390:13394   */\n              dup2\n                /* \"#utility.yul\":13386:13406   */\n              sub\n                /* \"#utility.yul\":13382:13383   */\n              0x00\n                /* \"#utility.yul\":13371:13380   */\n              dup4\n                /* \"#utility.yul\":13367:13384   */\n              add\n                /* \"#utility.yul\":13360:13407   */\n              mstore\n                /* \"#utility.yul\":13424:13555   */\n              tag_331\n                /* \"#utility.yul\":13550:13554   */\n              dup2\n                /* \"#utility.yul\":13424:13555   */\n              tag_201\n              jump\t// in\n            tag_331:\n                /* \"#utility.yul\":13416:13555   */\n              swap1\n              pop\n                /* \"#utility.yul\":13143:13562   */\n              swap2\n              swap1\n              pop\n              jump\t// out\n                /* \"#utility.yul\":13568:13743   */\n            tag_202:\n                /* \"#utility.yul\":13708:13735   */\n              0x466f756e64206c6f6f7020696e2064656c65676174696f6e2e00000000000000\n                /* \"#utility.yul\":13704:13705   */\n              0x00\n                /* \"#utility.yul\":13696:13702   */\n              dup3\n                /* \"#utility.yul\":13692:13706   */\n              add\n                /* \"#utility.yul\":13685:13736   */\n              mstore\n                /* \"#utility.yul\":13568:13743   */\n              pop\n              jump\t// out\n                /* \"#utility.yul\":13749:14115   */\n            tag_203:\n                /* \"#utility.yul\":13891:13894   */\n              0x00\n                /* \"#utility.yul\":13912:13979   */\n              tag_334\n                /* \"#utility.yul\":13976:13978   */\n              0x19\n                /* \"#utility.yul\":13971:13974   */\n              dup4\n                /* \"#utility.yul\":13912:13979   */\n              tag_169\n              jump\t// in\n            tag_334:\n                /* \"#utility.yul\":13905:13979   */\n              swap2\n              pop\n                /* \"#utility.yul\":13988:14081   */\n              tag_335\n                /* \"#utility.yul\":14077:14080   */\n              dup3\n                /* \"#utility.yul\":13988:14081   */\n              tag_202\n              jump\t// in\n            tag_335:\n                /* \"#utility.yul\":14106:14108   */\n              0x20\n                /* \"#utility.yul\":14101:14104   */\n              dup3\n                /* \"#utility.yul\":14097:14109   */\n              add\n                /* \"#utility.yul\":14090:14109   */\n              swap1\n              pop\n                /* \"#utility.yul\":13749:14115   */\n              swap2\n              swap1\n              pop\n              jump\t// out\n                /* \"#utility.yul\":14121:14540   */\n            tag_99:\n                /* \"#utility.yul\":14287:14291   */\n              0x00\n                /* \"#utility.yul\":14325:14327   */\n              0x20\n                /* \"#utility.yul\":14314:14323   */\n              dup3\n                /* \"#utility.yul\":14310:14328   */\n              add\n                /* \"#utility.yul\":14302:14328   */\n              swap1\n              pop\n                /* \"#utility.yul\":14374:14383   */\n              dup2\n                /* \"#utility.yul\":14368:14372   */\n              dup2\n                /* \"#utility.yul\":14364:14384   */\n              sub\n                /* \"#utility.yul\":14360:14361   */\n              0x00\n                /* \"#utility.yul\":14349:14358   */\n              dup4\n                /* \"#utility.yul\":14345:14362   */\n              add\n                /* \"#utility.yul\":14338:14385   */\n              mstore\n                /* \"#utility.yul\":14402:14533   */\n              tag_337\n                /* \"#utility.yul\":14528:14532   */\n              dup2\n                /* \"#utility.yul\":14402:14533   */\n              tag_203\n              jump\t// in\n            tag_337:\n                /* \"#utility.yul\":14394:14533   */\n              swap1\n              pop\n                /* \"#utility.yul\":14121:14540   */\n              swap2\n              swap1\n              pop\n              jump\t// out\n                /* \"#utility.yul\":14546:14726   */\n            tag_204:\n                /* \"#utility.yul\":14594:14671   */\n              0x4e487b7100000000000000000000000000000000000000000000000000000000\n                /* \"#utility.yul\":14591:14592   */\n              0x00\n                /* \"#utility.yul\":14584:14672   */\n              mstore\n                /* \"#utility.yul\":14691:14695   */\n              0x11\n                /* \"#utility.yul\":14688:14689   */\n              0x04\n                /* \"#utility.yul\":14681:14696   */\n              mstore\n                /* \"#utility.yul\":14715:14719   */\n              0x24\n                /* \"#utility.yul\":14712:14713   */\n              0x00\n                /* \"#utility.yul\":14705:14720   */\n              revert\n                /* \"#utility.yul\":14732:14923   */\n            tag_102:\n                /* \"#utility.yul\":14772:14775   */\n              0x00\n                /* \"#utility.yul\":14791:14811   */\n              tag_340\n                /* \"#utility.yul\":14809:14810   */\n              dup3\n                /* \"#utility.yul\":14791:14811   */\n              tag_165\n              jump\t// in\n            tag_340:\n                /* \"#utility.yul\":14786:14811   */\n              swap2\n              pop\n                /* \"#utility.yul\":14825:14845   */\n              tag_341\n                /* \"#utility.yul\":14843:14844   */\n              dup4\n                /* \"#utility.yul\":14825:14845   */\n              tag_165\n              jump\t// in\n            tag_341:\n                /* \"#utility.yul\":14820:14845   */\n              swap3\n              pop\n                /* \"#utility.yul\":14868:14869   */\n              dup3\n                /* \"#utility.yul\":14865:14866   */\n              dup3\n                /* \"#utility.yul\":14861:14870   */\n              add\n                /* \"#utility.yul\":14854:14870   */\n              swap1\n              pop\n                /* \"#utility.yul\":14889:14892   */\n              dup1\n                /* \"#utility.yul\":14886:14887   */\n              dup3\n                /* \"#utility.yul\":14883:14893   */\n              gt\n                /* \"#utility.yul\":14880:14916   */\n              iszero\n              tag_342\n              jumpi\n                /* \"#utility.yul\":14896:14914   */\n              tag_343\n              tag_204\n              jump\t// in\n            tag_343:\n                /* \"#utility.yul\":14880:14916   */\n            tag_342:\n                /* \"#utility.yul\":14732:14923   */\n              swap3\n              swap2\n              pop\n              pop\n              jump\t// out\n                /* \"#utility.yul\":14929:15109   */\n            tag_105:\n                /* \"#utility.yul\":14977:15054   */\n              0x4e487b7100000000000000000000000000000000000000000000000000000000\n                /* \"#utility.yul\":14974:14975   */\n              0x00\n                /* \"#utility.yul\":14967:15055   */\n              mstore\n                /* \"#utility.yul\":15074:15078   */\n              0x32\n                /* \"#utility.yul\":15071:15072   */\n              0x04\n                /* \"#utility.yul\":15064:15079   */\n              mstore\n                /* \"#utility.yul\":15098:15102   */\n              0x24\n                /* \"#utility.yul\":15095:15096   */\n              0x00\n                /* \"#utility.yul\":15088:15103   */\n              revert\n                /* \"#utility.yul\":15115:15294   */\n            tag_205:\n                /* \"#utility.yul\":15255:15286   */\n              0x546869732070726f706f73616c20646f6573206e6f742065786973742e000000\n                /* \"#utility.yul\":15251:15252   */\n              0x00\n                /* \"#utility.yul\":15243:15249   */\n              dup3\n                /* \"#utility.yul\":15239:15253   */\n              add\n                /* \"#utility.yul\":15232:15287   */\n              mstore\n                /* \"#utility.yul\":15115:15294   */\n              pop\n              jump\t// out\n                /* \"#utility.yul\":15300:15666   */\n            tag_206:\n                /* \"#utility.yul\":15442:15445   */\n              0x00\n                /* \"#utility.yul\":15463:15530   */\n              tag_347\n                /* \"#utility.yul\":15527:15529   */\n              0x1d\n                /* \"#utility.yul\":15522:15525   */\n              dup4\n                /* \"#utility.yul\":15463:15530   */\n              tag_169\n              jump\t// in\n            tag_347:\n                /* \"#utility.yul\":15456:15530   */\n              swap2\n              pop\n                /* \"#utility.yul\":15539:15632   */\n              tag_348\n                /* \"#utility.yul\":15628:15631   */\n              dup3\n                /* \"#utility.yul\":15539:15632   */\n              tag_205\n              jump\t// in\n            tag_348:\n                /* \"#utility.yul\":15657:15659   */\n              0x20\n                /* \"#utility.yul\":15652:15655   */\n              dup3\n                /* \"#utility.yul\":15648:15660   */\n              add\n                /* \"#utility.yul\":15641:15660   */\n              swap1\n              pop\n                /* \"#utility.yul\":15300:15666   */\n              swap2\n              swap1\n              pop\n              jump\t// out\n                /* \"#utility.yul\":15672:16091   */\n            tag_124:\n                /* \"#utility.yul\":15838:15842   */\n              0x00\n                /* \"#utility.yul\":15876:15878   */\n              0x20\n                /* \"#utility.yul\":15865:15874   */\n              dup3\n                /* \"#utility.yul\":15861:15879   */\n              add\n                /* \"#utility.yul\":15853:15879   */\n              swap1\n              pop\n                /* \"#utility.yul\":15925:15934   */\n              dup2\n                /* \"#utility.yul\":15919:15923   */\n              dup2\n                /* \"#utility.yul\":15915:15935   */\n              sub\n                /* \"#utility.yul\":15911:15912   */\n              0x00\n                /* \"#utility.yul\":15900:15909   */\n              dup4\n                /* \"#utility.yul\":15896:15913   */\n              add\n                /* \"#utility.yul\":15889:15936   */\n              mstore\n                /* \"#utility.yul\":15953:16084   */\n              tag_350\n                /* \"#utility.yul\":16079:16083   */\n              dup2\n                /* \"#utility.yul\":15953:16084   */\n              tag_206\n              jump\t// in\n            tag_350:\n                /* \"#utility.yul\":15945:16084   */\n              swap1\n              pop\n                /* \"#utility.yul\":15672:16091   */\n              swap2\n              swap1\n              pop\n              jump\t// out\n                /* \"#utility.yul\":16097:16264   */\n            tag_161:\n                /* \"#utility.yul\":16134:16137   */\n              0x00\n                /* \"#utility.yul\":16157:16179   */\n              tag_352\n                /* \"#utility.yul\":16173:16178   */\n              dup3\n                /* \"#utility.yul\":16157:16179   */\n              tag_191\n              jump\t// in\n            tag_352:\n                /* \"#utility.yul\":16148:16179   */\n              swap2\n              pop\n                /* \"#utility.yul\":16201:16205   */\n              0xff\n                /* \"#utility.yul\":16194:16199   */\n              dup3\n                /* \"#utility.yul\":16191:16206   */\n              sub\n                /* \"#utility.yul\":16188:16229   */\n              tag_353\n              jumpi\n                /* \"#utility.yul\":16209:16227   */\n              tag_354\n              tag_204\n              jump\t// in\n            tag_354:\n                /* \"#utility.yul\":16188:16229   */\n            tag_353:\n                /* \"#utility.yul\":16256:16257   */\n              0x01\n                /* \"#utility.yul\":16249:16254   */\n              dup3\n                /* \"#utility.yul\":16245:16258   */\n              add\n                /* \"#utility.yul\":16238:16258   */\n              swap1\n              pop\n                /* \"#utility.yul\":16097:16264   */\n              swap2\n              swap1\n              pop\n              jump\t// out\n\n            auxdata: 0xa2646970667358221220f427ee41597fb3e5b777cfd4073b2136083d303c2dc07ec50a376e8117da4f5d64736f6c63430008140033\n        }\n    }\n\n    sub_1: assembly {\n            /* \"SimplePoll.sol\":2859:3886  contract PrivatePoll is SimplePoll {... */\n          mstore(0x40, 0x80)\n            /* \"SimplePoll.sol\":2901:3139  constructor(address _creator, string memory subject, string memory descr, string[] memory proposalNames, uint duration) ... */\n          callvalue\n          dup1\n          iszero\n          tag_1\n          jumpi\n          0x00\n          dup1\n          revert\n        tag_1:\n          pop\n          mload(0x40)\n          sub(codesize, bytecodeSize)\n          dup1\n          bytecodeSize\n          dup4\n          codecopy\n          dup2\n          dup2\n          add\n          0x40\n          mstore\n          dup2\n          add\n          swap1\n          tag_2\n          swap2\n          swap1\n          tag_3\n          jump\t// in\n        tag_2:\n            /* \"SimplePoll.sol\":3038:3046  _creator */\n          dup5\n            /* \"SimplePoll.sol\":3048:3055  subject */\n          dup5\n            /* \"SimplePoll.sol\":3057:3062  descr */\n          dup5\n            /* \"SimplePoll.sol\":3064:3077  proposalNames */\n          dup5\n            /* \"SimplePoll.sol\":3079:3087  duration */\n          dup5\n            /* \"SimplePoll.sol\":1601:1609  _creator */\n          dup5\n            /* \"SimplePoll.sol\":636:644  _creator */\n          dup1\n            /* \"SimplePoll.sol\":626:633  creator */\n          0x00\n          dup1\n            /* \"SimplePoll.sol\":626:644  creator = _creator */\n          0x0100\n          exp\n          dup2\n          sload\n          dup2\n          0xffffffffffffffffffffffffffffffffffffffff\n          mul\n          not\n          and\n          swap1\n          dup4\n          0xffffffffffffffffffffffffffffffffffffffff\n          and\n          mul\n          or\n          swap1\n          sstore\n          pop\n            /* \"SimplePoll.sol\":585:652  constructor(address _creator) {... */\n          pop\n            /* \"SimplePoll.sol\":1630:1637  subject */\n          dup4\n            /* \"SimplePoll.sol\":1622:1627  topic */\n          0x01\n            /* \"SimplePoll.sol\":1622:1637  topic = subject */\n          swap1\n          dup2\n          tag_9\n          swap2\n          swap1\n          tag_10\n          jump\t// in\n        tag_9:\n          pop\n            /* \"SimplePoll.sol\":1662:1667  descr */\n          dup3\n            /* \"SimplePoll.sol\":1648:1659  description */\n          0x02\n            /* \"SimplePoll.sol\":1648:1667  description = descr */\n          swap1\n          dup2\n          tag_11\n          swap2\n          swap1\n          tag_10\n          jump\t// in\n        tag_11:\n          pop\n            /* \"SimplePoll.sol\":1707:1715  duration */\n          dup1\n            /* \"SimplePoll.sol\":1689:1704  block.timestamp */\n          timestamp\n            /* \"SimplePoll.sol\":1689:1715  block.timestamp + duration */\n          tag_12\n          swap2\n          swap1\n          tag_13\n          jump\t// in\n        tag_12:\n            /* \"SimplePoll.sol\":1678:1686  deadline */\n          0x03\n            /* \"SimplePoll.sol\":1678:1715  deadline = block.timestamp + duration */\n          dup2\n          swap1\n          sstore\n          pop\n            /* \"SimplePoll.sol\":1731:1738  uint8 i */\n          0x00\n            /* \"SimplePoll.sol\":1726:1929  for (uint8 i = 0; i < proposalNames.length; i++) {... */\n        tag_14:\n            /* \"SimplePoll.sol\":1748:1761  proposalNames */\n          dup3\n            /* \"SimplePoll.sol\":1748:1768  proposalNames.length */\n          mload\n            /* \"SimplePoll.sol\":1744:1745  i */\n          dup2\n            /* \"SimplePoll.sol\":1744:1768  i < proposalNames.length */\n          0xff\n          and\n          lt\n            /* \"SimplePoll.sol\":1726:1929  for (uint8 i = 0; i < proposalNames.length; i++) {... */\n          iszero\n          tag_15\n          jumpi\n            /* \"SimplePoll.sol\":1790:1799  proposals */\n          0x04\n            /* \"SimplePoll.sol\":1805:1916  SharedStructs.Proposal({... */\n          mload(0x40)\n          dup1\n          0x40\n          add\n          0x40\n          mstore\n          dup1\n            /* \"SimplePoll.sol\":1853:1866  proposalNames */\n          dup6\n            /* \"SimplePoll.sol\":1867:1868  i */\n          dup5\n            /* \"SimplePoll.sol\":1853:1869  proposalNames[i] */\n          0xff\n          and\n          dup2\n          mload\n          dup2\n          lt\n          tag_17\n          jumpi\n          tag_18\n          tag_19\n          jump\t// in\n        tag_18:\n        tag_17:\n          0x20\n          mul\n          0x20\n          add\n          add\n          mload\n            /* \"SimplePoll.sol\":1805:1916  SharedStructs.Proposal({... */\n          dup2\n          mstore\n          0x20\n          add\n            /* \"SimplePoll.sol\":1899:1900  0 */\n          0x00\n            /* \"SimplePoll.sol\":1805:1916  SharedStructs.Proposal({... */\n          dup2\n          mstore\n          pop\n            /* \"SimplePoll.sol\":1790:1917  proposals.push(SharedStructs.Proposal({... */\n          swap1\n          dup1\n          0x01\n          dup2\n          sload\n          add\n          dup1\n          dup3\n          sstore\n          dup1\n          swap2\n          pop\n          pop\n          0x01\n          swap1\n          sub\n          swap1\n          0x00\n          mstore\n          keccak256(0x00, 0x20)\n          swap1\n          0x02\n          mul\n          add\n          0x00\n          swap1\n          swap2\n          swap1\n          swap2\n          swap1\n          swap2\n          pop\n          0x00\n          dup3\n          add\n          mload\n          dup2\n          0x00\n          add\n          swap1\n          dup2\n          tag_21\n          swap2\n          swap1\n          tag_10\n          jump\t// in\n        tag_21:\n          pop\n          0x20\n          dup3\n          add\n          mload\n          dup2\n          0x01\n          add\n          sstore\n          pop\n          pop\n            /* \"SimplePoll.sol\":1770:1773  i++ */\n          dup1\n          dup1\n          tag_22\n          swap1\n          tag_23\n          jump\t// in\n        tag_22:\n          swap2\n          pop\n          pop\n            /* \"SimplePoll.sol\":1726:1929  for (uint8 i = 0; i < proposalNames.length; i++) {... */\n          jump(tag_14)\n        tag_15:\n          pop\n            /* \"SimplePoll.sol\":1468:1936  constructor(address _creator, string memory subject, string memory descr, string[] memory proposalNames, uint duration)... */\n          pop\n          pop\n          pop\n          pop\n          pop\n            /* \"SimplePoll.sol\":3127:3131  true */\n          0x01\n            /* \"SimplePoll.sol\":3100:3106  voters */\n          0x05\n            /* \"SimplePoll.sol\":3100:3116  voters[_creator] */\n          0x00\n            /* \"SimplePoll.sol\":3107:3115  _creator */\n          dup8\n            /* \"SimplePoll.sol\":3100:3116  voters[_creator] */\n          0xffffffffffffffffffffffffffffffffffffffff\n          and\n          0xffffffffffffffffffffffffffffffffffffffff\n          and\n          dup2\n          mstore\n          0x20\n          add\n          swap1\n          dup2\n          mstore\n          0x20\n          add\n          0x00\n          keccak256\n            /* \"SimplePoll.sol\":3100:3124  voters[_creator].canVote */\n          0x00\n          add\n          0x00\n            /* \"SimplePoll.sol\":3100:3131  voters[_creator].canVote = true */\n          0x0100\n          exp\n          dup2\n          sload\n          dup2\n          0xff\n          mul\n          not\n          and\n          swap1\n          dup4\n          iszero\n          iszero\n          mul\n          or\n          swap1\n          sstore\n          pop\n            /* \"SimplePoll.sol\":2901:3139  constructor(address _creator, string memory subject, string memory descr, string[] memory proposalNames, uint duration) ... */\n          pop\n          pop\n          pop\n          pop\n          pop\n            /* \"SimplePoll.sol\":2859:3886  contract PrivatePoll is SimplePoll {... */\n          jump(tag_25)\n            /* \"#utility.yul\":7:82   */\n        tag_26:\n            /* \"#utility.yul\":40:46   */\n          0x00\n            /* \"#utility.yul\":73:75   */\n          0x40\n            /* \"#utility.yul\":67:76   */\n          mload\n            /* \"#utility.yul\":57:76   */\n          swap1\n          pop\n            /* \"#utility.yul\":7:82   */\n          swap1\n          jump\t// out\n            /* \"#utility.yul\":88:205   */\n        tag_27:\n            /* \"#utility.yul\":197:198   */\n          0x00\n            /* \"#utility.yul\":194:195   */\n          dup1\n            /* \"#utility.yul\":187:199   */\n          revert\n            /* \"#utility.yul\":211:328   */\n        tag_28:\n            /* \"#utility.yul\":320:321   */\n          0x00\n            /* \"#utility.yul\":317:318   */\n          dup1\n            /* \"#utility.yul\":310:322   */\n          revert\n            /* \"#utility.yul\":334:460   */\n        tag_29:\n            /* \"#utility.yul\":371:378   */\n          0x00\n            /* \"#utility.yul\":411:453   */\n          0xffffffffffffffffffffffffffffffffffffffff\n            /* \"#utility.yul\":404:409   */\n          dup3\n            /* \"#utility.yul\":400:454   */\n          and\n            /* \"#utility.yul\":389:454   */\n          swap1\n          pop\n            /* \"#utility.yul\":334:460   */\n          swap2\n          swap1\n          pop\n          jump\t// out\n            /* \"#utility.yul\":466:562   */\n        tag_30:\n            /* \"#utility.yul\":503:510   */\n          0x00\n            /* \"#utility.yul\":532:556   */\n          tag_76\n            /* \"#utility.yul\":550:555   */\n          dup3\n            /* \"#utility.yul\":532:556   */\n          tag_29\n          jump\t// in\n        tag_76:\n            /* \"#utility.yul\":521:556   */\n          swap1\n          pop\n            /* \"#utility.yul\":466:562   */\n          swap2\n          swap1\n          pop\n          jump\t// out\n            /* \"#utility.yul\":568:690   */\n        tag_31:\n            /* \"#utility.yul\":641:665   */\n          tag_78\n            /* \"#utility.yul\":659:664   */\n          dup2\n            /* \"#utility.yul\":641:665   */\n          tag_30\n          jump\t// in\n        tag_78:\n            /* \"#utility.yul\":634:639   */\n          dup2\n            /* \"#utility.yul\":631:666   */\n          eq\n            /* \"#utility.yul\":621:684   */\n          tag_79\n          jumpi\n            /* \"#utility.yul\":680:681   */\n          0x00\n            /* \"#utility.yul\":677:678   */\n          dup1\n            /* \"#utility.yul\":670:682   */\n          revert\n            /* \"#utility.yul\":621:684   */\n        tag_79:\n            /* \"#utility.yul\":568:690   */\n          pop\n          jump\t// out\n            /* \"#utility.yul\":696:839   */\n        tag_32:\n            /* \"#utility.yul\":753:758   */\n          0x00\n            /* \"#utility.yul\":784:790   */\n          dup2\n            /* \"#utility.yul\":778:791   */\n          mload\n            /* \"#utility.yul\":769:791   */\n          swap1\n          pop\n            /* \"#utility.yul\":800:833   */\n          tag_81\n            /* \"#utility.yul\":827:832   */\n          dup2\n            /* \"#utility.yul\":800:833   */\n          tag_31\n          jump\t// in\n        tag_81:\n            /* \"#utility.yul\":696:839   */\n          swap3\n          swap2\n          pop\n          pop\n          jump\t// out\n            /* \"#utility.yul\":845:962   */\n        tag_33:\n            /* \"#utility.yul\":954:955   */\n          0x00\n            /* \"#utility.yul\":951:952   */\n          dup1\n            /* \"#utility.yul\":944:956   */\n          revert\n            /* \"#utility.yul\":968:1085   */\n        tag_34:\n            /* \"#utility.yul\":1077:1078   */\n          0x00\n            /* \"#utility.yul\":1074:1075   */\n          dup1\n            /* \"#utility.yul\":1067:1079   */\n          revert\n            /* \"#utility.yul\":1091:1193   */\n        tag_35:\n            /* \"#utility.yul\":1132:1138   */\n          0x00\n            /* \"#utility.yul\":1183:1185   */\n          0x1f\n            /* \"#utility.yul\":1179:1186   */\n          not\n            /* \"#utility.yul\":1174:1176   */\n          0x1f\n            /* \"#utility.yul\":1167:1172   */\n          dup4\n            /* \"#utility.yul\":1163:1177   */\n          add\n            /* \"#utility.yul\":1159:1187   */\n          and\n            /* \"#utility.yul\":1149:1187   */\n          swap1\n          pop\n            /* \"#utility.yul\":1091:1193   */\n          swap2\n          swap1\n          pop\n          jump\t// out\n            /* \"#utility.yul\":1199:1379   */\n        tag_36:\n            /* \"#utility.yul\":1247:1324   */\n          0x4e487b7100000000000000000000000000000000000000000000000000000000\n            /* \"#utility.yul\":1244:1245   */\n          0x00\n            /* \"#utility.yul\":1237:1325   */\n          mstore\n            /* \"#utility.yul\":1344:1348   */\n          0x41\n            /* \"#utility.yul\":1341:1342   */\n          0x04\n            /* \"#utility.yul\":1334:1349   */\n          mstore\n            /* \"#utility.yul\":1368:1372   */\n          0x24\n            /* \"#utility.yul\":1365:1366   */\n          0x00\n            /* \"#utility.yul\":1358:1373   */\n          revert\n            /* \"#utility.yul\":1385:1666   */\n        tag_37:\n            /* \"#utility.yul\":1468:1495   */\n          tag_87\n            /* \"#utility.yul\":1490:1494   */\n          dup3\n            /* \"#utility.yul\":1468:1495   */\n          tag_35\n          jump\t// in\n        tag_87:\n            /* \"#utility.yul\":1460:1466   */\n          dup2\n            /* \"#utility.yul\":1456:1496   */\n          add\n            /* \"#utility.yul\":1598:1604   */\n          dup2\n            /* \"#utility.yul\":1586:1596   */\n          dup2\n            /* \"#utility.yul\":1583:1605   */\n          lt\n            /* \"#utility.yul\":1562:1580   */\n          0xffffffffffffffff\n            /* \"#utility.yul\":1550:1560   */\n          dup3\n            /* \"#utility.yul\":1547:1581   */\n          gt\n            /* \"#utility.yul\":1544:1606   */\n          or\n            /* \"#utility.yul\":1541:1629   */\n          iszero\n          tag_88\n          jumpi\n            /* \"#utility.yul\":1609:1627   */\n          tag_89\n          tag_36\n          jump\t// in\n        tag_89:\n            /* \"#utility.yul\":1541:1629   */\n        tag_88:\n            /* \"#utility.yul\":1649:1659   */\n          dup1\n            /* \"#utility.yul\":1645:1647   */\n          0x40\n            /* \"#utility.yul\":1638:1660   */\n          mstore\n            /* \"#utility.yul\":1428:1666   */\n          pop\n            /* \"#utility.yul\":1385:1666   */\n          pop\n          pop\n          jump\t// out\n            /* \"#utility.yul\":1672:1801   */\n        tag_38:\n            /* \"#utility.yul\":1706:1712   */\n          0x00\n            /* \"#utility.yul\":1733:1753   */\n          tag_91\n          tag_26\n          jump\t// in\n        tag_91:\n            /* \"#utility.yul\":1723:1753   */\n          swap1\n          pop\n            /* \"#utility.yul\":1762:1795   */\n          tag_92\n            /* \"#utility.yul\":1790:1794   */\n          dup3\n            /* \"#utility.yul\":1782:1788   */\n          dup3\n            /* \"#utility.yul\":1762:1795   */\n          tag_37\n          jump\t// in\n        tag_92:\n            /* \"#utility.yul\":1672:1801   */\n          swap2\n          swap1\n          pop\n          jump\t// out\n            /* \"#utility.yul\":1807:2115   */\n        tag_39:\n            /* \"#utility.yul\":1869:1873   */\n          0x00\n            /* \"#utility.yul\":1959:1977   */\n          0xffffffffffffffff\n            /* \"#utility.yul\":1951:1957   */\n          dup3\n            /* \"#utility.yul\":1948:1978   */\n          gt\n            /* \"#utility.yul\":1945:2001   */\n          iszero\n          tag_94\n          jumpi\n            /* \"#utility.yul\":1981:1999   */\n          tag_95\n          tag_36\n          jump\t// in\n        tag_95:\n            /* \"#utility.yul\":1945:2001   */\n        tag_94:\n            /* \"#utility.yul\":2019:2048   */\n          tag_96\n            /* \"#utility.yul\":2041:2047   */\n          dup3\n            /* \"#utility.yul\":2019:2048   */\n          tag_35\n          jump\t// in\n        tag_96:\n            /* \"#utility.yul\":2011:2048   */\n          swap1\n          pop\n            /* \"#utility.yul\":2103:2107   */\n          0x20\n            /* \"#utility.yul\":2097:2101   */\n          dup2\n            /* \"#utility.yul\":2093:2108   */\n          add\n            /* \"#utility.yul\":2085:2108   */\n          swap1\n          pop\n            /* \"#utility.yul\":1807:2115   */\n          swap2\n          swap1\n          pop\n          jump\t// out\n            /* \"#utility.yul\":2121:2367   */\n        tag_40:\n            /* \"#utility.yul\":2202:2203   */\n          0x00\n            /* \"#utility.yul\":2212:2325   */\n        tag_98:\n            /* \"#utility.yul\":2226:2232   */\n          dup4\n            /* \"#utility.yul\":2223:2224   */\n          dup2\n            /* \"#utility.yul\":2220:2233   */\n          lt\n            /* \"#utility.yul\":2212:2325   */\n          iszero\n          tag_100\n          jumpi\n            /* \"#utility.yul\":2311:2312   */\n          dup1\n            /* \"#utility.yul\":2306:2309   */\n          dup3\n            /* \"#utility.yul\":2302:2313   */\n          add\n            /* \"#utility.yul\":2296:2314   */\n          mload\n            /* \"#utility.yul\":2292:2293   */\n          dup2\n            /* \"#utility.yul\":2287:2290   */\n          dup5\n            /* \"#utility.yul\":2283:2294   */\n          add\n            /* \"#utility.yul\":2276:2315   */\n          mstore\n            /* \"#utility.yul\":2248:2250   */\n          0x20\n            /* \"#utility.yul\":2245:2246   */\n          dup2\n            /* \"#utility.yul\":2241:2251   */\n          add\n            /* \"#utility.yul\":2236:2251   */\n          swap1\n          pop\n            /* \"#utility.yul\":2212:2325   */\n          jump(tag_98)\n        tag_100:\n            /* \"#utility.yul\":2359:2360   */\n          0x00\n            /* \"#utility.yul\":2350:2356   */\n          dup5\n            /* \"#utility.yul\":2345:2348   */\n          dup5\n            /* \"#utility.yul\":2341:2357   */\n          add\n            /* \"#utility.yul\":2334:2361   */\n          mstore\n            /* \"#utility.yul\":2183:2367   */\n          pop\n            /* \"#utility.yul\":2121:2367   */\n          pop\n          pop\n          pop\n          jump\t// out\n            /* \"#utility.yul\":2373:2807   */\n        tag_41:\n            /* \"#utility.yul\":2462:2467   */\n          0x00\n            /* \"#utility.yul\":2487:2553   */\n          tag_102\n            /* \"#utility.yul\":2503:2552   */\n          tag_103\n            /* \"#utility.yul\":2545:2551   */\n          dup5\n            /* \"#utility.yul\":2503:2552   */\n          tag_39\n          jump\t// in\n        tag_103:\n            /* \"#utility.yul\":2487:2553   */\n          tag_38\n          jump\t// in\n        tag_102:\n            /* \"#utility.yul\":2478:2553   */\n          swap1\n          pop\n            /* \"#utility.yul\":2576:2582   */\n          dup3\n            /* \"#utility.yul\":2569:2574   */\n          dup2\n            /* \"#utility.yul\":2562:2583   */\n          mstore\n            /* \"#utility.yul\":2614:2618   */\n          0x20\n            /* \"#utility.yul\":2607:2612   */\n          dup2\n            /* \"#utility.yul\":2603:2619   */\n          add\n            /* \"#utility.yul\":2652:2655   */\n          dup5\n            /* \"#utility.yul\":2643:2649   */\n          dup5\n            /* \"#utility.yul\":2638:2641   */\n          dup5\n            /* \"#utility.yul\":2634:2650   */\n          add\n            /* \"#utility.yul\":2631:2656   */\n          gt\n            /* \"#utility.yul\":2628:2740   */\n          iszero\n          tag_104\n          jumpi\n            /* \"#utility.yul\":2659:2738   */\n          tag_105\n          tag_34\n          jump\t// in\n        tag_105:\n            /* \"#utility.yul\":2628:2740   */\n        tag_104:\n            /* \"#utility.yul\":2749:2801   */\n          tag_106\n            /* \"#utility.yul\":2794:2800   */\n          dup5\n            /* \"#utility.yul\":2789:2792   */\n          dup3\n            /* \"#utility.yul\":2784:2787   */\n          dup6\n            /* \"#utility.yul\":2749:2801   */\n          tag_40\n          jump\t// in\n        tag_106:\n            /* \"#utility.yul\":2468:2807   */\n          pop\n            /* \"#utility.yul\":2373:2807   */\n          swap4\n          swap3\n          pop\n          pop\n          pop\n          jump\t// out\n            /* \"#utility.yul\":2827:3182   */\n        tag_42:\n            /* \"#utility.yul\":2894:2899   */\n          0x00\n            /* \"#utility.yul\":2943:2946   */\n          dup3\n            /* \"#utility.yul\":2936:2940   */\n          0x1f\n            /* \"#utility.yul\":2928:2934   */\n          dup4\n            /* \"#utility.yul\":2924:2941   */\n          add\n            /* \"#utility.yul\":2920:2947   */\n          slt\n            /* \"#utility.yul\":2910:3032   */\n          tag_108\n          jumpi\n            /* \"#utility.yul\":2951:3030   */\n          tag_109\n          tag_33\n          jump\t// in\n        tag_109:\n            /* \"#utility.yul\":2910:3032   */\n        tag_108:\n            /* \"#utility.yul\":3061:3067   */\n          dup2\n            /* \"#utility.yul\":3055:3068   */\n          mload\n            /* \"#utility.yul\":3086:3176   */\n          tag_110\n            /* \"#utility.yul\":3172:3175   */\n          dup5\n            /* \"#utility.yul\":3164:3170   */\n          dup3\n            /* \"#utility.yul\":3157:3161   */\n          0x20\n            /* \"#utility.yul\":3149:3155   */\n          dup7\n            /* \"#utility.yul\":3145:3162   */\n          add\n            /* \"#utility.yul\":3086:3176   */\n          tag_41\n          jump\t// in\n        tag_110:\n            /* \"#utility.yul\":3077:3176   */\n          swap2\n          pop\n            /* \"#utility.yul\":2900:3182   */\n          pop\n            /* \"#utility.yul\":2827:3182   */\n          swap3\n          swap2\n          pop\n          pop\n          jump\t// out\n            /* \"#utility.yul\":3188:3509   */\n        tag_43:\n            /* \"#utility.yul\":3275:3279   */\n          0x00\n            /* \"#utility.yul\":3365:3383   */\n          0xffffffffffffffff\n            /* \"#utility.yul\":3357:3363   */\n          dup3\n            /* \"#utility.yul\":3354:3384   */\n          gt\n            /* \"#utility.yul\":3351:3407   */\n          iszero\n          tag_112\n          jumpi\n            /* \"#utility.yul\":3387:3405   */\n          tag_113\n          tag_36\n          jump\t// in\n        tag_113:\n            /* \"#utility.yul\":3351:3407   */\n        tag_112:\n            /* \"#utility.yul\":3437:3441   */\n          0x20\n            /* \"#utility.yul\":3429:3435   */\n          dup3\n            /* \"#utility.yul\":3425:3442   */\n          mul\n            /* \"#utility.yul\":3417:3442   */\n          swap1\n          pop\n            /* \"#utility.yul\":3497:3501   */\n          0x20\n            /* \"#utility.yul\":3491:3495   */\n          dup2\n            /* \"#utility.yul\":3487:3502   */\n          add\n            /* \"#utility.yul\":3479:3502   */\n          swap1\n          pop\n            /* \"#utility.yul\":3188:3509   */\n          swap2\n          swap1\n          pop\n          jump\t// out\n            /* \"#utility.yul\":3515:3632   */\n        tag_44:\n            /* \"#utility.yul\":3624:3625   */\n          0x00\n            /* \"#utility.yul\":3621:3622   */\n          dup1\n            /* \"#utility.yul\":3614:3626   */\n          revert\n            /* \"#utility.yul\":3654:4614   */\n        tag_45:\n            /* \"#utility.yul\":3771:3776   */\n          0x00\n            /* \"#utility.yul\":3796:3887   */\n          tag_116\n            /* \"#utility.yul\":3812:3886   */\n          tag_117\n            /* \"#utility.yul\":3879:3885   */\n          dup5\n            /* \"#utility.yul\":3812:3886   */\n          tag_43\n          jump\t// in\n        tag_117:\n            /* \"#utility.yul\":3796:3887   */\n          tag_38\n          jump\t// in\n        tag_116:\n            /* \"#utility.yul\":3787:3887   */\n          swap1\n          pop\n            /* \"#utility.yul\":3907:3912   */\n          dup1\n            /* \"#utility.yul\":3936:3942   */\n          dup4\n            /* \"#utility.yul\":3929:3934   */\n          dup3\n            /* \"#utility.yul\":3922:3943   */\n          mstore\n            /* \"#utility.yul\":3970:3974   */\n          0x20\n            /* \"#utility.yul\":3963:3968   */\n          dup3\n            /* \"#utility.yul\":3959:3975   */\n          add\n            /* \"#utility.yul\":3952:3975   */\n          swap1\n          pop\n            /* \"#utility.yul\":4023:4027   */\n          0x20\n            /* \"#utility.yul\":4015:4021   */\n          dup5\n            /* \"#utility.yul\":4011:4028   */\n          mul\n            /* \"#utility.yul\":4003:4009   */\n          dup4\n            /* \"#utility.yul\":3999:4029   */\n          add\n            /* \"#utility.yul\":4052:4055   */\n          dup6\n            /* \"#utility.yul\":4044:4050   */\n          dup2\n            /* \"#utility.yul\":4041:4056   */\n          gt\n            /* \"#utility.yul\":4038:4160   */\n          iszero\n          tag_118\n          jumpi\n            /* \"#utility.yul\":4071:4150   */\n          tag_119\n          tag_44\n          jump\t// in\n        tag_119:\n            /* \"#utility.yul\":4038:4160   */\n        tag_118:\n            /* \"#utility.yul\":4186:4192   */\n          dup4\n            /* \"#utility.yul\":4169:4608   */\n        tag_120:\n            /* \"#utility.yul\":4203:4209   */\n          dup2\n            /* \"#utility.yul\":4198:4201   */\n          dup2\n            /* \"#utility.yul\":4195:4210   */\n          lt\n            /* \"#utility.yul\":4169:4608   */\n          iszero\n          tag_122\n          jumpi\n            /* \"#utility.yul\":4285:4288   */\n          dup1\n            /* \"#utility.yul\":4279:4289   */\n          mload\n            /* \"#utility.yul\":4321:4339   */\n          0xffffffffffffffff\n            /* \"#utility.yul\":4308:4319   */\n          dup2\n            /* \"#utility.yul\":4305:4340   */\n          gt\n            /* \"#utility.yul\":4302:4424   */\n          iszero\n          tag_123\n          jumpi\n            /* \"#utility.yul\":4343:4422   */\n          tag_124\n          tag_33\n          jump\t// in\n        tag_124:\n            /* \"#utility.yul\":4302:4424   */\n        tag_123:\n            /* \"#utility.yul\":4467:4478   */\n          dup1\n            /* \"#utility.yul\":4459:4465   */\n          dup7\n            /* \"#utility.yul\":4455:4479   */\n          add\n            /* \"#utility.yul\":4505:4563   */\n          tag_125\n            /* \"#utility.yul\":4559:4562   */\n          dup10\n            /* \"#utility.yul\":4547:4557   */\n          dup3\n            /* \"#utility.yul\":4505:4563   */\n          tag_42\n          jump\t// in\n        tag_125:\n            /* \"#utility.yul\":4500:4503   */\n          dup6\n            /* \"#utility.yul\":4493:4564   */\n          mstore\n            /* \"#utility.yul\":4593:4597   */\n          0x20\n            /* \"#utility.yul\":4588:4591   */\n          dup6\n            /* \"#utility.yul\":4584:4598   */\n          add\n            /* \"#utility.yul\":4577:4598   */\n          swap5\n          pop\n            /* \"#utility.yul\":4245:4608   */\n          pop\n          pop\n            /* \"#utility.yul\":4229:4233   */\n          0x20\n            /* \"#utility.yul\":4224:4227   */\n          dup2\n            /* \"#utility.yul\":4220:4234   */\n          add\n            /* \"#utility.yul\":4213:4234   */\n          swap1\n          pop\n            /* \"#utility.yul\":4169:4608   */\n          jump(tag_120)\n        tag_122:\n            /* \"#utility.yul\":4173:4194   */\n          pop\n            /* \"#utility.yul\":3777:4614   */\n          pop\n          pop\n            /* \"#utility.yul\":3654:4614   */\n          swap4\n          swap3\n          pop\n          pop\n          pop\n          jump\t// out\n            /* \"#utility.yul\":4636:5041   */\n        tag_46:\n            /* \"#utility.yul\":4728:4733   */\n          0x00\n            /* \"#utility.yul\":4777:4780   */\n          dup3\n            /* \"#utility.yul\":4770:4774   */\n          0x1f\n            /* \"#utility.yul\":4762:4768   */\n          dup4\n            /* \"#utility.yul\":4758:4775   */\n          add\n            /* \"#utility.yul\":4754:4781   */\n          slt\n            /* \"#utility.yul\":4744:4866   */\n          tag_127\n          jumpi\n            /* \"#utility.yul\":4785:4864   */\n          tag_128\n          tag_33\n          jump\t// in\n        tag_128:\n            /* \"#utility.yul\":4744:4866   */\n        tag_127:\n            /* \"#utility.yul\":4895:4901   */\n          dup2\n            /* \"#utility.yul\":4889:4902   */\n          mload\n            /* \"#utility.yul\":4920:5035   */\n          tag_129\n            /* \"#utility.yul\":5031:5034   */\n          dup5\n            /* \"#utility.yul\":5023:5029   */\n          dup3\n            /* \"#utility.yul\":5016:5020   */\n          0x20\n            /* \"#utility.yul\":5008:5014   */\n          dup7\n            /* \"#utility.yul\":5004:5021   */\n          add\n            /* \"#utility.yul\":4920:5035   */\n          tag_45\n          jump\t// in\n        tag_129:\n            /* \"#utility.yul\":4911:5035   */\n          swap2\n          pop\n            /* \"#utility.yul\":4734:5041   */\n          pop\n            /* \"#utility.yul\":4636:5041   */\n          swap3\n          swap2\n          pop\n          pop\n          jump\t// out\n            /* \"#utility.yul\":5047:5124   */\n        tag_47:\n            /* \"#utility.yul\":5084:5091   */\n          0x00\n            /* \"#utility.yul\":5113:5118   */\n          dup2\n            /* \"#utility.yul\":5102:5118   */\n          swap1\n          pop\n            /* \"#utility.yul\":5047:5124   */\n          swap2\n          swap1\n          pop\n          jump\t// out\n            /* \"#utility.yul\":5130:5252   */\n        tag_48:\n            /* \"#utility.yul\":5203:5227   */\n          tag_132\n            /* \"#utility.yul\":5221:5226   */\n          dup2\n            /* \"#utility.yul\":5203:5227   */\n          tag_47\n          jump\t// in\n        tag_132:\n            /* \"#utility.yul\":5196:5201   */\n          dup2\n            /* \"#utility.yul\":5193:5228   */\n          eq\n            /* \"#utility.yul\":5183:5246   */\n          tag_133\n          jumpi\n            /* \"#utility.yul\":5242:5243   */\n          0x00\n            /* \"#utility.yul\":5239:5240   */\n          dup1\n            /* \"#utility.yul\":5232:5244   */\n          revert\n            /* \"#utility.yul\":5183:5246   */\n        tag_133:\n            /* \"#utility.yul\":5130:5252   */\n          pop\n          jump\t// out\n            /* \"#utility.yul\":5258:5401   */\n        tag_49:\n            /* \"#utility.yul\":5315:5320   */\n          0x00\n            /* \"#utility.yul\":5346:5352   */\n          dup2\n            /* \"#utility.yul\":5340:5353   */\n          mload\n            /* \"#utility.yul\":5331:5353   */\n          swap1\n          pop\n            /* \"#utility.yul\":5362:5395   */\n          tag_135\n            /* \"#utility.yul\":5389:5394   */\n          dup2\n            /* \"#utility.yul\":5362:5395   */\n          tag_48\n          jump\t// in\n        tag_135:\n            /* \"#utility.yul\":5258:5401   */\n          swap3\n          swap2\n          pop\n          pop\n          jump\t// out\n            /* \"#utility.yul\":5407:6953   */\n        tag_3:\n            /* \"#utility.yul\":5568:5574   */\n          0x00\n            /* \"#utility.yul\":5576:5582   */\n          dup1\n            /* \"#utility.yul\":5584:5590   */\n          0x00\n            /* \"#utility.yul\":5592:5598   */\n          dup1\n            /* \"#utility.yul\":5600:5606   */\n          0x00\n            /* \"#utility.yul\":5649:5652   */\n          0xa0\n            /* \"#utility.yul\":5637:5646   */\n          dup7\n            /* \"#utility.yul\":5628:5635   */\n          dup9\n            /* \"#utility.yul\":5624:5647   */\n          sub\n            /* \"#utility.yul\":5620:5653   */\n          slt\n            /* \"#utility.yul\":5617:5737   */\n          iszero\n          tag_137\n          jumpi\n            /* \"#utility.yul\":5656:5735   */\n          tag_138\n          tag_27\n          jump\t// in\n        tag_138:\n            /* \"#utility.yul\":5617:5737   */\n        tag_137:\n            /* \"#utility.yul\":5776:5777   */\n          0x00\n            /* \"#utility.yul\":5801:5865   */\n          tag_139\n            /* \"#utility.yul\":5857:5864   */\n          dup9\n            /* \"#utility.yul\":5848:5854   */\n          dup3\n            /* \"#utility.yul\":5837:5846   */\n          dup10\n            /* \"#utility.yul\":5833:5855   */\n          add\n            /* \"#utility.yul\":5801:5865   */\n          tag_32\n          jump\t// in\n        tag_139:\n            /* \"#utility.yul\":5791:5865   */\n          swap6\n          pop\n            /* \"#utility.yul\":5747:5875   */\n          pop\n            /* \"#utility.yul\":5935:5937   */\n          0x20\n            /* \"#utility.yul\":5924:5933   */\n          dup7\n            /* \"#utility.yul\":5920:5938   */\n          add\n            /* \"#utility.yul\":5914:5939   */\n          mload\n            /* \"#utility.yul\":5966:5984   */\n          0xffffffffffffffff\n            /* \"#utility.yul\":5958:5964   */\n          dup2\n            /* \"#utility.yul\":5955:5985   */\n          gt\n            /* \"#utility.yul\":5952:6069   */\n          iszero\n          tag_140\n          jumpi\n            /* \"#utility.yul\":5988:6067   */\n          tag_141\n          tag_28\n          jump\t// in\n        tag_141:\n            /* \"#utility.yul\":5952:6069   */\n        tag_140:\n            /* \"#utility.yul\":6093:6167   */\n          tag_142\n            /* \"#utility.yul\":6159:6166   */\n          dup9\n            /* \"#utility.yul\":6150:6156   */\n          dup3\n            /* \"#utility.yul\":6139:6148   */\n          dup10\n            /* \"#utility.yul\":6135:6157   */\n          add\n            /* \"#utility.yul\":6093:6167   */\n          tag_42\n          jump\t// in\n        tag_142:\n            /* \"#utility.yul\":6083:6167   */\n          swap5\n          pop\n            /* \"#utility.yul\":5885:6177   */\n          pop\n            /* \"#utility.yul\":6237:6239   */\n          0x40\n            /* \"#utility.yul\":6226:6235   */\n          dup7\n            /* \"#utility.yul\":6222:6240   */\n          add\n            /* \"#utility.yul\":6216:6241   */\n          mload\n            /* \"#utility.yul\":6268:6286   */\n          0xffffffffffffffff\n            /* \"#utility.yul\":6260:6266   */\n          dup2\n            /* \"#utility.yul\":6257:6287   */\n          gt\n            /* \"#utility.yul\":6254:6371   */\n          iszero\n          tag_143\n          jumpi\n            /* \"#utility.yul\":6290:6369   */\n          tag_144\n          tag_28\n          jump\t// in\n        tag_144:\n            /* \"#utility.yul\":6254:6371   */\n        tag_143:\n            /* \"#utility.yul\":6395:6469   */\n          tag_145\n            /* \"#utility.yul\":6461:6468   */\n          dup9\n            /* \"#utility.yul\":6452:6458   */\n          dup3\n            /* \"#utility.yul\":6441:6450   */\n          dup10\n            /* \"#utility.yul\":6437:6459   */\n          add\n            /* \"#utility.yul\":6395:6469   */\n          tag_42\n          jump\t// in\n        tag_145:\n            /* \"#utility.yul\":6385:6469   */\n          swap4\n          pop\n            /* \"#utility.yul\":6187:6479   */\n          pop\n            /* \"#utility.yul\":6539:6541   */\n          0x60\n            /* \"#utility.yul\":6528:6537   */\n          dup7\n            /* \"#utility.yul\":6524:6542   */\n          add\n            /* \"#utility.yul\":6518:6543   */\n          mload\n            /* \"#utility.yul\":6570:6588   */\n          0xffffffffffffffff\n            /* \"#utility.yul\":6562:6568   */\n          dup2\n            /* \"#utility.yul\":6559:6589   */\n          gt\n            /* \"#utility.yul\":6556:6673   */\n          iszero\n          tag_146\n          jumpi\n            /* \"#utility.yul\":6592:6671   */\n          tag_147\n          tag_28\n          jump\t// in\n        tag_147:\n            /* \"#utility.yul\":6556:6673   */\n        tag_146:\n            /* \"#utility.yul\":6697:6796   */\n          tag_148\n            /* \"#utility.yul\":6788:6795   */\n          dup9\n            /* \"#utility.yul\":6779:6785   */\n          dup3\n            /* \"#utility.yul\":6768:6777   */\n          dup10\n            /* \"#utility.yul\":6764:6786   */\n          add\n            /* \"#utility.yul\":6697:6796   */\n          tag_46\n          jump\t// in\n        tag_148:\n            /* \"#utility.yul\":6687:6796   */\n          swap3\n          pop\n            /* \"#utility.yul\":6489:6806   */\n          pop\n            /* \"#utility.yul\":6845:6848   */\n          0x80\n            /* \"#utility.yul\":6872:6936   */\n          tag_149\n            /* \"#utility.yul\":6928:6935   */\n          dup9\n            /* \"#utility.yul\":6919:6925   */\n          dup3\n            /* \"#utility.yul\":6908:6917   */\n          dup10\n            /* \"#utility.yul\":6904:6926   */\n          add\n            /* \"#utility.yul\":6872:6936   */\n          tag_49\n          jump\t// in\n        tag_149:\n            /* \"#utility.yul\":6862:6936   */\n          swap2\n          pop\n            /* \"#utility.yul\":6816:6946   */\n          pop\n            /* \"#utility.yul\":5407:6953   */\n          swap3\n          swap6\n          pop\n          swap3\n          swap6\n          swap1\n          swap4\n          pop\n          jump\t// out\n            /* \"#utility.yul\":6959:7058   */\n        tag_50:\n            /* \"#utility.yul\":7011:7017   */\n          0x00\n            /* \"#utility.yul\":7045:7050   */\n          dup2\n            /* \"#utility.yul\":7039:7051   */\n          mload\n            /* \"#utility.yul\":7029:7051   */\n          swap1\n          pop\n            /* \"#utility.yul\":6959:7058   */\n          swap2\n          swap1\n          pop\n          jump\t// out\n            /* \"#utility.yul\":7064:7244   */\n        tag_51:\n            /* \"#utility.yul\":7112:7189   */\n          0x4e487b7100000000000000000000000000000000000000000000000000000000\n            /* \"#utility.yul\":7109:7110   */\n          0x00\n            /* \"#utility.yul\":7102:7190   */\n          mstore\n            /* \"#utility.yul\":7209:7213   */\n          0x22\n            /* \"#utility.yul\":7206:7207   */\n          0x04\n            /* \"#utility.yul\":7199:7214   */\n          mstore\n            /* \"#utility.yul\":7233:7237   */\n          0x24\n            /* \"#utility.yul\":7230:7231   */\n          0x00\n            /* \"#utility.yul\":7223:7238   */\n          revert\n            /* \"#utility.yul\":7250:7570   */\n        tag_52:\n            /* \"#utility.yul\":7294:7300   */\n          0x00\n            /* \"#utility.yul\":7331:7332   */\n          0x02\n            /* \"#utility.yul\":7325:7329   */\n          dup3\n            /* \"#utility.yul\":7321:7333   */\n          div\n            /* \"#utility.yul\":7311:7333   */\n          swap1\n          pop\n            /* \"#utility.yul\":7378:7379   */\n          0x01\n            /* \"#utility.yul\":7372:7376   */\n          dup3\n            /* \"#utility.yul\":7368:7380   */\n          and\n            /* \"#utility.yul\":7399:7417   */\n          dup1\n            /* \"#utility.yul\":7389:7470   */\n          tag_153\n          jumpi\n            /* \"#utility.yul\":7455:7459   */\n          0x7f\n            /* \"#utility.yul\":7447:7453   */\n          dup3\n            /* \"#utility.yul\":7443:7460   */\n          and\n            /* \"#utility.yul\":7433:7460   */\n          swap2\n          pop\n            /* \"#utility.yul\":7389:7470   */\n        tag_153:\n            /* \"#utility.yul\":7517:7519   */\n          0x20\n            /* \"#utility.yul\":7509:7515   */\n          dup3\n            /* \"#utility.yul\":7506:7520   */\n          lt\n            /* \"#utility.yul\":7486:7504   */\n          dup2\n            /* \"#utility.yul\":7483:7521   */\n          sub\n            /* \"#utility.yul\":7480:7564   */\n          tag_154\n          jumpi\n            /* \"#utility.yul\":7536:7554   */\n          tag_155\n          tag_51\n          jump\t// in\n        tag_155:\n            /* \"#utility.yul\":7480:7564   */\n        tag_154:\n            /* \"#utility.yul\":7301:7570   */\n          pop\n            /* \"#utility.yul\":7250:7570   */\n          swap2\n          swap1\n          pop\n          jump\t// out\n            /* \"#utility.yul\":7576:7717   */\n        tag_53:\n            /* \"#utility.yul\":7625:7629   */\n          0x00\n            /* \"#utility.yul\":7648:7651   */\n          dup2\n            /* \"#utility.yul\":7640:7651   */\n          swap1\n          pop\n            /* \"#utility.yul\":7671:7674   */\n          dup2\n            /* \"#utility.yul\":7668:7669   */\n          0x00\n            /* \"#utility.yul\":7661:7675   */\n          mstore\n            /* \"#utility.yul\":7705:7709   */\n          0x20\n            /* \"#utility.yul\":7702:7703   */\n          0x00\n            /* \"#utility.yul\":7692:7710   */\n          keccak256\n            /* \"#utility.yul\":7684:7710   */\n          swap1\n          pop\n            /* \"#utility.yul\":7576:7717   */\n          swap2\n          swap1\n          pop\n          jump\t// out\n            /* \"#utility.yul\":7723:7816   */\n        tag_54:\n            /* \"#utility.yul\":7760:7766   */\n          0x00\n            /* \"#utility.yul\":7807:7809   */\n          0x20\n            /* \"#utility.yul\":7802:7804   */\n          0x1f\n            /* \"#utility.yul\":7795:7800   */\n          dup4\n            /* \"#utility.yul\":7791:7805   */\n          add\n            /* \"#utility.yul\":7787:7810   */\n          div\n            /* \"#utility.yul\":7777:7810   */\n          swap1\n          pop\n            /* \"#utility.yul\":7723:7816   */\n          swap2\n          swap1\n          pop\n          jump\t// out\n            /* \"#utility.yul\":7822:7929   */\n        tag_55:\n            /* \"#utility.yul\":7866:7874   */\n          0x00\n            /* \"#utility.yul\":7916:7921   */\n          dup3\n            /* \"#utility.yul\":7910:7914   */\n          dup3\n            /* \"#utility.yul\":7906:7922   */\n          shl\n            /* \"#utility.yul\":7885:7922   */\n          swap1\n          pop\n            /* \"#utility.yul\":7822:7929   */\n          swap3\n          swap2\n          pop\n          pop\n          jump\t// out\n            /* \"#utility.yul\":7935:8328   */\n        tag_56:\n            /* \"#utility.yul\":8004:8010   */\n          0x00\n            /* \"#utility.yul\":8054:8055   */\n          0x08\n            /* \"#utility.yul\":8042:8052   */\n          dup4\n            /* \"#utility.yul\":8038:8056   */\n          mul\n            /* \"#utility.yul\":8077:8174   */\n          tag_160\n            /* \"#utility.yul\":8107:8173   */\n          0xffffffffffffffffffffffffffffffffffffffffffffffffffffffffffffffff\n            /* \"#utility.yul\":8096:8105   */\n          dup3\n            /* \"#utility.yul\":8077:8174   */\n          tag_55\n          jump\t// in\n        tag_160:\n            /* \"#utility.yul\":8195:8234   */\n          tag_161\n            /* \"#utility.yul\":8225:8233   */\n          dup7\n            /* \"#utility.yul\":8214:8223   */\n          dup4\n            /* \"#utility.yul\":8195:8234   */\n          tag_55\n          jump\t// in\n        tag_161:\n            /* \"#utility.yul\":8183:8234   */\n          swap6\n          pop\n            /* \"#utility.yul\":8267:8271   */\n          dup1\n            /* \"#utility.yul\":8263:8272   */\n          not\n            /* \"#utility.yul\":8256:8261   */\n          dup5\n            /* \"#utility.yul\":8252:8273   */\n          and\n            /* \"#utility.yul\":8243:8273   */\n          swap4\n          pop\n            /* \"#utility.yul\":8316:8320   */\n          dup1\n            /* \"#utility.yul\":8306:8314   */\n          dup7\n            /* \"#utility.yul\":8302:8321   */\n          and\n            /* \"#utility.yul\":8295:8300   */\n          dup5\n            /* \"#utility.yul\":8292:8322   */\n          or\n            /* \"#utility.yul\":8282:8322   */\n          swap3\n          pop\n            /* \"#utility.yul\":8011:8328   */\n          pop\n          pop\n            /* \"#utility.yul\":7935:8328   */\n          swap4\n          swap3\n          pop\n          pop\n          pop\n          jump\t// out\n            /* \"#utility.yul\":8334:8394   */\n        tag_57:\n            /* \"#utility.yul\":8362:8365   */\n          0x00\n            /* \"#utility.yul\":8383:8388   */\n          dup2\n            /* \"#utility.yul\":8376:8388   */\n          swap1\n          pop\n            /* \"#utility.yul\":8334:8394   */\n          swap2\n          swap1\n          pop\n          jump\t// out\n            /* \"#utility.yul\":8400:8542   */\n        tag_58:\n            /* \"#utility.yul\":8450:8459   */\n          0x00\n            /* \"#utility.yul\":8483:8536   */\n          tag_164\n            /* \"#utility.yul\":8501:8535   */\n          tag_165\n            /* \"#utility.yul\":8510:8534   */\n          tag_166\n            /* \"#utility.yul\":8528:8533   */\n          dup5\n            /* \"#utility.yul\":8510:8534   */\n          tag_47\n          jump\t// in\n        tag_166:\n            /* \"#utility.yul\":8501:8535   */\n          tag_57\n          jump\t// in\n        tag_165:\n            /* \"#utility.yul\":8483:8536   */\n          tag_47\n          jump\t// in\n        tag_164:\n            /* \"#utility.yul\":8470:8536   */\n          swap1\n          pop\n            /* \"#utility.yul\":8400:8542   */\n          swap2\n          swap1\n          pop\n          jump\t// out\n            /* \"#utility.yul\":8548:8623   */\n        tag_59:\n            /* \"#utility.yul\":8591:8594   */\n          0x00\n            /* \"#utility.yul\":8612:8617   */\n          dup2\n            /* \"#utility.yul\":8605:8617   */\n          swap1\n          pop\n            /* \"#utility.yul\":8548:8623   */\n          swap2\n          swap1\n          pop\n          jump\t// out\n            /* \"#utility.yul\":8629:8898   */\n        tag_60:\n            /* \"#utility.yul\":8739:8778   */\n          tag_169\n            /* \"#utility.yul\":8770:8777   */\n          dup4\n            /* \"#utility.yul\":8739:8778   */\n          tag_58\n          jump\t// in\n        tag_169:\n            /* \"#utility.yul\":8800:8891   */\n          tag_170\n            /* \"#utility.yul\":8849:8890   */\n          tag_171\n            /* \"#utility.yul\":8873:8889   */\n          dup3\n            /* \"#utility.yul\":8849:8890   */\n          tag_59\n          jump\t// in\n        tag_171:\n            /* \"#utility.yul\":8841:8847   */\n          dup5\n            /* \"#utility.yul\":8834:8838   */\n          dup5\n            /* \"#utility.yul\":8828:8839   */\n          sload\n            /* \"#utility.yul\":8800:8891   */\n          tag_56\n          jump\t// in\n        tag_170:\n            /* \"#utility.yul\":8794:8798   */\n          dup3\n            /* \"#utility.yul\":8787:8892   */\n          sstore\n            /* \"#utility.yul\":8705:8898   */\n          pop\n            /* \"#utility.yul\":8629:8898   */\n          pop\n          pop\n          pop\n          jump\t// out\n            /* \"#utility.yul\":8904:8977   */\n        tag_61:\n            /* \"#utility.yul\":8949:8952   */\n          0x00\n            /* \"#utility.yul\":8904:8977   */\n          swap1\n          jump\t// out\n            /* \"#utility.yul\":8983:9172   */\n        tag_62:\n            /* \"#utility.yul\":9060:9092   */\n          tag_174\n          tag_61\n          jump\t// in\n        tag_174:\n            /* \"#utility.yul\":9101:9166   */\n          tag_175\n            /* \"#utility.yul\":9159:9165   */\n          dup2\n            /* \"#utility.yul\":9151:9157   */\n          dup5\n            /* \"#utility.yul\":9145:9149   */\n          dup5\n            /* \"#utility.yul\":9101:9166   */\n          tag_60\n          jump\t// in\n        tag_175:\n            /* \"#utility.yul\":9036:9172   */\n          pop\n            /* \"#utility.yul\":8983:9172   */\n          pop\n          pop\n          jump\t// out\n            /* \"#utility.yul\":9178:9364   */\n        tag_63:\n            /* \"#utility.yul\":9238:9358   */\n        tag_177:\n            /* \"#utility.yul\":9255:9258   */\n          dup2\n            /* \"#utility.yul\":9248:9253   */\n          dup2\n            /* \"#utility.yul\":9245:9259   */\n          lt\n            /* \"#utility.yul\":9238:9358   */\n          iszero\n          tag_179\n          jumpi\n            /* \"#utility.yul\":9309:9348   */\n          tag_180\n            /* \"#utility.yul\":9346:9347   */\n          0x00\n            /* \"#utility.yul\":9339:9344   */\n          dup3\n            /* \"#utility.yul\":9309:9348   */\n          tag_62\n          jump\t// in\n        tag_180:\n            /* \"#utility.yul\":9282:9283   */\n          0x01\n            /* \"#utility.yul\":9275:9280   */\n          dup2\n            /* \"#utility.yul\":9271:9284   */\n          add\n            /* \"#utility.yul\":9262:9284   */\n          swap1\n          pop\n            /* \"#utility.yul\":9238:9358   */\n          jump(tag_177)\n        tag_179:\n            /* \"#utility.yul\":9178:9364   */\n          pop\n          pop\n          jump\t// out\n            /* \"#utility.yul\":9370:9913   */\n        tag_64:\n            /* \"#utility.yul\":9471:9473   */\n          0x1f\n            /* \"#utility.yul\":9466:9469   */\n          dup3\n            /* \"#utility.yul\":9463:9474   */\n          gt\n            /* \"#utility.yul\":9460:9906   */\n          iszero\n          tag_182\n          jumpi\n            /* \"#utility.yul\":9505:9543   */\n          tag_183\n            /* \"#utility.yul\":9537:9542   */\n          dup2\n            /* \"#utility.yul\":9505:9543   */\n          tag_53\n          jump\t// in\n        tag_183:\n            /* \"#utility.yul\":9589:9618   */\n          tag_184\n            /* \"#utility.yul\":9607:9617   */\n          dup5\n            /* \"#utility.yul\":9589:9618   */\n          tag_54\n          jump\t// in\n        tag_184:\n            /* \"#utility.yul\":9579:9587   */\n          dup2\n            /* \"#utility.yul\":9575:9619   */\n          add\n            /* \"#utility.yul\":9772:9774   */\n          0x20\n            /* \"#utility.yul\":9760:9770   */\n          dup6\n            /* \"#utility.yul\":9757:9775   */\n          lt\n            /* \"#utility.yul\":9754:9803   */\n          iszero\n          tag_185\n          jumpi\n            /* \"#utility.yul\":9793:9801   */\n          dup2\n            /* \"#utility.yul\":9778:9801   */\n          swap1\n          pop\n            /* \"#utility.yul\":9754:9803   */\n        tag_185:\n            /* \"#utility.yul\":9816:9896   */\n          tag_186\n            /* \"#utility.yul\":9872:9894   */\n          tag_187\n            /* \"#utility.yul\":9890:9893   */\n          dup6\n            /* \"#utility.yul\":9872:9894   */\n          tag_54\n          jump\t// in\n        tag_187:\n            /* \"#utility.yul\":9862:9870   */\n          dup4\n            /* \"#utility.yul\":9858:9895   */\n          add\n            /* \"#utility.yul\":9845:9856   */\n          dup3\n            /* \"#utility.yul\":9816:9896   */\n          tag_63\n          jump\t// in\n        tag_186:\n            /* \"#utility.yul\":9475:9906   */\n          pop\n          pop\n            /* \"#utility.yul\":9460:9906   */\n        tag_182:\n            /* \"#utility.yul\":9370:9913   */\n          pop\n          pop\n          pop\n          jump\t// out\n            /* \"#utility.yul\":9919:10036   */\n        tag_65:\n            /* \"#utility.yul\":9973:9981   */\n          0x00\n            /* \"#utility.yul\":10023:10028   */\n          dup3\n            /* \"#utility.yul\":10017:10021   */\n          dup3\n            /* \"#utility.yul\":10013:10029   */\n          shr\n            /* \"#utility.yul\":9992:10029   */\n          swap1\n          pop\n            /* \"#utility.yul\":9919:10036   */\n          swap3\n          swap2\n          pop\n          pop\n          jump\t// out\n            /* \"#utility.yul\":10042:10211   */\n        tag_66:\n            /* \"#utility.yul\":10086:10092   */\n          0x00\n            /* \"#utility.yul\":10119:10170   */\n          tag_190\n            /* \"#utility.yul\":10167:10168   */\n          0x00\n            /* \"#utility.yul\":10163:10169   */\n          not\n            /* \"#utility.yul\":10155:10160   */\n          dup5\n            /* \"#utility.yul\":10152:10153   */\n          0x08\n            /* \"#utility.yul\":10148:10161   */\n          mul\n            /* \"#utility.yul\":10119:10170   */\n          tag_65\n          jump\t// in\n        tag_190:\n            /* \"#utility.yul\":10115:10171   */\n          not\n            /* \"#utility.yul\":10200:10204   */\n          dup1\n            /* \"#utility.yul\":10194:10198   */\n          dup4\n            /* \"#utility.yul\":10190:10205   */\n          and\n            /* \"#utility.yul\":10180:10205   */\n          swap2\n          pop\n            /* \"#utility.yul\":10093:10211   */\n          pop\n            /* \"#utility.yul\":10042:10211   */\n          swap3\n          swap2\n          pop\n          pop\n          jump\t// out\n            /* \"#utility.yul\":10216:10511   */\n        tag_67:\n            /* \"#utility.yul\":10292:10296   */\n          0x00\n            /* \"#utility.yul\":10438:10467   */\n          tag_192\n            /* \"#utility.yul\":10463:10466   */\n          dup4\n            /* \"#utility.yul\":10457:10461   */\n          dup4\n            /* \"#utility.yul\":10438:10467   */\n          tag_66\n          jump\t// in\n        tag_192:\n            /* \"#utility.yul\":10430:10467   */\n          swap2\n          pop\n            /* \"#utility.yul\":10500:10503   */\n          dup3\n            /* \"#utility.yul\":10497:10498   */\n          0x02\n            /* \"#utility.yul\":10493:10504   */\n          mul\n            /* \"#utility.yul\":10487:10491   */\n          dup3\n            /* \"#utility.yul\":10484:10505   */\n          or\n            /* \"#utility.yul\":10476:10505   */\n          swap1\n          pop\n            /* \"#utility.yul\":10216:10511   */\n          swap3\n          swap2\n          pop\n          pop\n          jump\t// out\n            /* \"#utility.yul\":10516:11911   */\n        tag_10:\n            /* \"#utility.yul\":10633:10670   */\n          tag_194\n            /* \"#utility.yul\":10666:10669   */\n          dup3\n            /* \"#utility.yul\":10633:10670   */\n          tag_50\n          jump\t// in\n        tag_194:\n            /* \"#utility.yul\":10735:10753   */\n          0xffffffffffffffff\n            /* \"#utility.yul\":10727:10733   */\n          dup2\n            /* \"#utility.yul\":10724:10754   */\n          gt\n            /* \"#utility.yul\":10721:10777   */\n          iszero\n          tag_195\n          jumpi\n            /* \"#utility.yul\":10757:10775   */\n          tag_196\n          tag_36\n          jump\t// in\n        tag_196:\n            /* \"#utility.yul\":10721:10777   */\n        tag_195:\n            /* \"#utility.yul\":10801:10839   */\n          tag_197\n            /* \"#utility.yul\":10833:10837   */\n          dup3\n            /* \"#utility.yul\":10827:10838   */\n          sload\n            /* \"#utility.yul\":10801:10839   */\n          tag_52\n          jump\t// in\n        tag_197:\n            /* \"#utility.yul\":10886:10953   */\n          tag_198\n            /* \"#utility.yul\":10946:10952   */\n          dup3\n            /* \"#utility.yul\":10938:10944   */\n          dup3\n            /* \"#utility.yul\":10932:10936   */\n          dup6\n            /* \"#utility.yul\":10886:10953   */\n          tag_64\n          jump\t// in\n        tag_198:\n            /* \"#utility.yul\":10980:10981   */\n          0x00\n            /* \"#utility.yul\":11004:11008   */\n          0x20\n            /* \"#utility.yul\":10991:11008   */\n          swap1\n          pop\n            /* \"#utility.yul\":11036:11038   */\n          0x1f\n            /* \"#utility.yul\":11028:11034   */\n          dup4\n            /* \"#utility.yul\":11025:11039   */\n          gt\n            /* \"#utility.yul\":11053:11054   */\n          0x01\n            /* \"#utility.yul\":11048:11666   */\n          dup2\n          eq\n          tag_200\n          jumpi\n            /* \"#utility.yul\":11710:11711   */\n          0x00\n            /* \"#utility.yul\":11727:11733   */\n          dup5\n            /* \"#utility.yul\":11724:11801   */\n          iszero\n          tag_201\n          jumpi\n            /* \"#utility.yul\":11776:11785   */\n          dup3\n            /* \"#utility.yul\":11771:11774   */\n          dup8\n            /* \"#utility.yul\":11767:11786   */\n          add\n            /* \"#utility.yul\":11761:11787   */\n          mload\n            /* \"#utility.yul\":11752:11787   */\n          swap1\n          pop\n            /* \"#utility.yul\":11724:11801   */\n        tag_201:\n            /* \"#utility.yul\":11827:11894   */\n          tag_202\n            /* \"#utility.yul\":11887:11893   */\n          dup6\n            /* \"#utility.yul\":11880:11885   */\n          dup3\n            /* \"#utility.yul\":11827:11894   */\n          tag_67\n          jump\t// in\n        tag_202:\n            /* \"#utility.yul\":11821:11825   */\n          dup7\n            /* \"#utility.yul\":11814:11895   */\n          sstore\n            /* \"#utility.yul\":11683:11905   */\n          pop\n            /* \"#utility.yul\":11018:11905   */\n          jump(tag_199)\n            /* \"#utility.yul\":11048:11666   */\n        tag_200:\n            /* \"#utility.yul\":11100:11104   */\n          0x1f\n            /* \"#utility.yul\":11096:11105   */\n          not\n            /* \"#utility.yul\":11088:11094   */\n          dup5\n            /* \"#utility.yul\":11084:11106   */\n          and\n            /* \"#utility.yul\":11134:11171   */\n          tag_203\n            /* \"#utility.yul\":11166:11170   */\n          dup7\n            /* \"#utility.yul\":11134:11171   */\n          tag_53\n          jump\t// in\n        tag_203:\n            /* \"#utility.yul\":11193:11194   */\n          0x00\n            /* \"#utility.yul\":11207:11415   */\n        tag_204:\n            /* \"#utility.yul\":11221:11228   */\n          dup3\n            /* \"#utility.yul\":11218:11219   */\n          dup2\n            /* \"#utility.yul\":11215:11229   */\n          lt\n            /* \"#utility.yul\":11207:11415   */\n          iszero\n          tag_206\n          jumpi\n            /* \"#utility.yul\":11300:11309   */\n          dup5\n            /* \"#utility.yul\":11295:11298   */\n          dup10\n            /* \"#utility.yul\":11291:11310   */\n          add\n            /* \"#utility.yul\":11285:11311   */\n          mload\n            /* \"#utility.yul\":11277:11283   */\n          dup3\n            /* \"#utility.yul\":11270:11312   */\n          sstore\n            /* \"#utility.yul\":11351:11352   */\n          0x01\n            /* \"#utility.yul\":11343:11349   */\n          dup3\n            /* \"#utility.yul\":11339:11353   */\n          add\n            /* \"#utility.yul\":11329:11353   */\n          swap2\n          pop\n            /* \"#utility.yul\":11398:11400   */\n          0x20\n            /* \"#utility.yul\":11387:11396   */\n          dup6\n            /* \"#utility.yul\":11383:11401   */\n          add\n            /* \"#utility.yul\":11370:11401   */\n          swap5\n          pop\n            /* \"#utility.yul\":11244:11248   */\n          0x20\n            /* \"#utility.yul\":11241:11242   */\n          dup2\n            /* \"#utility.yul\":11237:11249   */\n          add\n            /* \"#utility.yul\":11232:11249   */\n          swap1\n          pop\n            /* \"#utility.yul\":11207:11415   */\n          jump(tag_204)\n        tag_206:\n            /* \"#utility.yul\":11443:11449   */\n          dup7\n            /* \"#utility.yul\":11434:11441   */\n          dup4\n            /* \"#utility.yul\":11431:11450   */\n          lt\n            /* \"#utility.yul\":11428:11607   */\n          iszero\n          tag_207\n          jumpi\n            /* \"#utility.yul\":11501:11510   */\n          dup5\n            /* \"#utility.yul\":11496:11499   */\n          dup10\n            /* \"#utility.yul\":11492:11511   */\n          add\n            /* \"#utility.yul\":11486:11512   */\n          mload\n            /* \"#utility.yul\":11544:11592   */\n          tag_208\n            /* \"#utility.yul\":11586:11590   */\n          0x1f\n            /* \"#utility.yul\":11578:11584   */\n          dup10\n            /* \"#utility.yul\":11574:11591   */\n          and\n            /* \"#utility.yul\":11563:11572   */\n          dup3\n            /* \"#utility.yul\":11544:11592   */\n          tag_66\n          jump\t// in\n        tag_208:\n            /* \"#utility.yul\":11536:11542   */\n          dup4\n            /* \"#utility.yul\":11529:11593   */\n          sstore\n            /* \"#utility.yul\":11451:11607   */\n          pop\n            /* \"#utility.yul\":11428:11607   */\n        tag_207:\n            /* \"#utility.yul\":11653:11654   */\n          0x01\n            /* \"#utility.yul\":11649:11650   */\n          0x02\n            /* \"#utility.yul\":11641:11647   */\n          dup9\n            /* \"#utility.yul\":11637:11651   */\n          mul\n            /* \"#utility.yul\":11633:11655   */\n          add\n            /* \"#utility.yul\":11627:11631   */\n          dup9\n            /* \"#utility.yul\":11620:11656   */\n          sstore\n            /* \"#utility.yul\":11055:11666   */\n          pop\n          pop\n          pop\n            /* \"#utility.yul\":11018:11905   */\n        tag_199:\n          pop\n            /* \"#utility.yul\":10608:11911   */\n          pop\n          pop\n          pop\n            /* \"#utility.yul\":10516:11911   */\n          pop\n          pop\n          jump\t// out\n            /* \"#utility.yul\":11917:12097   */\n        tag_68:\n            /* \"#utility.yul\":11965:12042   */\n          0x4e487b7100000000000000000000000000000000000000000000000000000000\n            /* \"#utility.yul\":11962:11963   */\n          0x00\n            /* \"#utility.yul\":11955:12043   */\n          mstore\n            /* \"#utility.yul\":12062:12066   */\n          0x11\n            /* \"#utility.yul\":12059:12060   */\n          0x04\n            /* \"#utility.yul\":12052:12067   */\n          mstore\n            /* \"#utility.yul\":12086:12090   */\n          0x24\n            /* \"#utility.yul\":12083:12084   */\n          0x00\n            /* \"#utility.yul\":12076:12091   */\n          revert\n            /* \"#utility.yul\":12103:12294   */\n        tag_13:\n            /* \"#utility.yul\":12143:12146   */\n          0x00\n            /* \"#utility.yul\":12162:12182   */\n          tag_211\n            /* \"#utility.yul\":12180:12181   */\n          dup3\n            /* \"#utility.yul\":12162:12182   */\n          tag_47\n          jump\t// in\n        tag_211:\n            /* \"#utility.yul\":12157:12182   */\n          swap2\n          pop\n            /* \"#utility.yul\":12196:12216   */\n          tag_212\n            /* \"#utility.yul\":12214:12215   */\n          dup4\n            /* \"#utility.yul\":12196:12216   */\n          tag_47\n          jump\t// in\n        tag_212:\n            /* \"#utility.yul\":12191:12216   */\n          swap3\n          pop\n            /* \"#utility.yul\":12239:12240   */\n          dup3\n            /* \"#utility.yul\":12236:12237   */\n          dup3\n            /* \"#utility.yul\":12232:12241   */\n          add\n            /* \"#utility.yul\":12225:12241   */\n          swap1\n          pop\n            /* \"#utility.yul\":12260:12263   */\n          dup1\n            /* \"#utility.yul\":12257:12258   */\n          dup3\n            /* \"#utility.yul\":12254:12264   */\n          gt\n            /* \"#utility.yul\":12251:12287   */\n          iszero\n          tag_213\n          jumpi\n            /* \"#utility.yul\":12267:12285   */\n          tag_214\n          tag_68\n          jump\t// in\n        tag_214:\n            /* \"#utility.yul\":12251:12287   */\n        tag_213:\n            /* \"#utility.yul\":12103:12294   */\n          swap3\n          swap2\n          pop\n          pop\n          jump\t// out\n            /* \"#utility.yul\":12300:12480   */\n        tag_19:\n            /* \"#utility.yul\":12348:12425   */\n          0x4e487b7100000000000000000000000000000000000000000000000000000000\n            /* \"#utility.yul\":12345:12346   */\n          0x00\n            /* \"#utility.yul\":12338:12426   */\n          mstore\n            /* \"#utility.yul\":12445:12449   */\n          0x32\n            /* \"#utility.yul\":12442:12443   */\n          0x04\n            /* \"#utility.yul\":12435:12450   */\n          mstore\n            /* \"#utility.yul\":12469:12473   */\n          0x24\n            /* \"#utility.yul\":12466:12467   */\n          0x00\n            /* \"#utility.yul\":12459:12474   */\n          revert\n            /* \"#utility.yul\":12486:12572   */\n        tag_69:\n            /* \"#utility.yul\":12521:12528   */\n          0x00\n            /* \"#utility.yul\":12561:12565   */\n          0xff\n            /* \"#utility.yul\":12554:12559   */\n          dup3\n            /* \"#utility.yul\":12550:12566   */\n          and\n            /* \"#utility.yul\":12539:12566   */\n          swap1\n          pop\n            /* \"#utility.yul\":12486:12572   */\n          swap2\n          swap1\n          pop\n          jump\t// out\n            /* \"#utility.yul\":12578:12745   */\n        tag_23:\n            /* \"#utility.yul\":12615:12618   */\n          0x00\n            /* \"#utility.yul\":12638:12660   */\n          tag_218\n            /* \"#utility.yul\":12654:12659   */\n          dup3\n            /* \"#utility.yul\":12638:12660   */\n          tag_69\n          jump\t// in\n        tag_218:\n            /* \"#utility.yul\":12629:12660   */\n          swap2\n          pop\n            /* \"#utility.yul\":12682:12686   */\n          0xff\n            /* \"#utility.yul\":12675:12680   */\n          dup3\n            /* \"#utility.yul\":12672:12687   */\n          sub\n            /* \"#utility.yul\":12669:12710   */\n          tag_219\n          jumpi\n            /* \"#utility.yul\":12690:12708   */\n          tag_220\n          tag_68\n          jump\t// in\n        tag_220:\n            /* \"#utility.yul\":12669:12710   */\n        tag_219:\n            /* \"#utility.yul\":12737:12738   */\n          0x01\n            /* \"#utility.yul\":12730:12735   */\n          dup3\n            /* \"#utility.yul\":12726:12739   */\n          add\n            /* \"#utility.yul\":12719:12739   */\n          swap1\n          pop\n            /* \"#utility.yul\":12578:12745   */\n          swap2\n          swap1\n          pop\n          jump\t// out\n            /* \"SimplePoll.sol\":2859:3886  contract PrivatePoll is SimplePoll {... */\n        tag_25:\n          dataSize(sub_0)\n          dup1\n          dataOffset(sub_0)\n          0x00\n          codecopy\n          0x00\n          return\n        stop\n\n        sub_0: assembly {\n                /* \"SimplePoll.sol\":2859:3886  contract PrivatePoll is SimplePoll {... */\n              mstore(0x40, 0x80)\n              callvalue\n              dup1\n              iszero\n              tag_1\n              jumpi\n              0x00\n              dup1\n              revert\n            tag_1:\n              pop\n              jumpi(tag_2, lt(calldatasize, 0x04))\n              shr(0xe0, calldataload(0x00))\n              dup1\n              0x9145a7fc\n              gt\n              tag_15\n              jumpi\n              dup1\n              0x9145a7fc\n              eq\n              tag_9\n              jumpi\n              dup1\n              0x9e7b8d61\n              eq\n              tag_10\n              jumpi\n              dup1\n              0xa3ec138d\n              eq\n              tag_11\n              jumpi\n              dup1\n              0xb3f98adc\n              eq\n              tag_12\n              jumpi\n              dup1\n              0xbf63a577\n              eq\n              tag_13\n              jumpi\n              dup1\n              0xe2ba53f0\n              eq\n              tag_14\n              jumpi\n              jump(tag_2)\n            tag_15:\n              dup1\n              0x013cf08b\n              eq\n              tag_3\n              jumpi\n              dup1\n              0x02d05d3f\n              eq\n              tag_4\n              jumpi\n              dup1\n              0x09eef43e\n              eq\n              tag_5\n              jumpi\n              dup1\n              0x29dcb0cf\n              eq\n              tag_6\n              jumpi\n              dup1\n              0x4717f97c\n              eq\n              tag_7\n              jumpi\n              dup1\n              0x7284e416\n              eq\n              tag_8\n              jumpi\n            tag_2:\n              0x00\n              dup1\n              revert\n                /* \"SimplePoll.sol\":919:960  SharedStructs.Proposal[] public proposals */\n            tag_3:\n              tag_16\n              0x04\n              dup1\n              calldatasize\n              sub\n              dup2\n              add\n              swap1\n              tag_17\n              swap2\n              swap1\n              tag_18\n              jump\t// in\n            tag_17:\n              tag_19\n              jump\t// in\n            tag_16:\n              mload(0x40)\n              tag_20\n              swap3\n              swap2\n              swap1\n              tag_21\n              jump\t// in\n            tag_20:\n              mload(0x40)\n              dup1\n              swap2\n              sub\n              swap1\n              return\n                /* \"SimplePoll.sol\":554:576  address public creator */\n            tag_4:\n              tag_22\n              tag_23\n              jump\t// in\n            tag_22:\n              mload(0x40)\n              tag_24\n              swap2\n              swap1\n              tag_25\n              jump\t// in\n            tag_24:\n              mload(0x40)\n              dup1\n              swap2\n              sub\n              swap1\n              return\n                /* \"SimplePoll.sol\":2004:2110  function hasVoted(address voter) external view returns(bool) {... */\n            tag_5:\n              tag_26\n              0x04\n              dup1\n              calldatasize\n              sub\n              dup2\n              add\n              swap1\n              tag_27\n              swap2\n              swap1\n              tag_28\n              jump\t// in\n            tag_27:\n              tag_29\n              jump\t// in\n            tag_26:\n              mload(0x40)\n              tag_30\n              swap2\n              swap1\n              tag_31\n              jump\t// in\n            tag_30:\n              mload(0x40)\n              dup1\n              swap2\n              sub\n              swap1\n              return\n                /* \"SimplePoll.sol\":892:912  uint public deadline */\n            tag_6:\n              tag_32\n              tag_33\n              jump\t// in\n            tag_32:\n              mload(0x40)\n              tag_34\n              swap2\n              swap1\n              tag_35\n              jump\t// in\n            tag_34:\n              mload(0x40)\n              dup1\n              swap2\n              sub\n              swap1\n              return\n                /* \"SimplePoll.sol\":2233:2346  function getResults() external view returns (SharedStructs.Proposal[] memory) {... */\n            tag_7:\n              tag_36\n              tag_37\n              jump\t// in\n            tag_36:\n              mload(0x40)\n              tag_38\n              swap2\n              swap1\n              tag_39\n              jump\t// in\n            tag_38:\n              mload(0x40)\n              dup1\n              swap2\n              sub\n              swap1\n              return\n                /* \"SimplePoll.sol\":860:885  string public description */\n            tag_8:\n              tag_40\n              tag_41\n              jump\t// in\n            tag_40:\n              mload(0x40)\n              tag_42\n              swap2\n              swap1\n              tag_43\n              jump\t// in\n            tag_42:\n              mload(0x40)\n              dup1\n              swap2\n              sub\n              swap1\n              return\n                /* \"SimplePoll.sol\":2118:2225  function isDeadlineExpired() public view returns(bool) {... */\n            tag_9:\n              tag_44\n              tag_45\n              jump\t// in\n            tag_44:\n              mload(0x40)\n              tag_46\n              swap2\n              swap1\n              tag_31\n              jump\t// in\n            tag_46:\n              mload(0x40)\n              dup1\n              swap2\n              sub\n              swap1\n              return\n                /* \"SimplePoll.sol\":3242:3463  function giveRightToVote(address voter) external hasDeadlineNotExpired isCreator hasNoRightToVote(voter) {... */\n            tag_10:\n              tag_47\n              0x04\n              dup1\n              calldatasize\n              sub\n              dup2\n              add\n              swap1\n              tag_48\n              swap2\n              swap1\n              tag_28\n              jump\t// in\n            tag_48:\n              tag_49\n              jump\t// in\n            tag_47:\n              stop\n                /* \"SimplePoll.sol\":967:1020  mapping(address => SharedStructs.Voter) public voters */\n            tag_11:\n              tag_50\n              0x04\n              dup1\n              calldatasize\n              sub\n              dup2\n              add\n              swap1\n              tag_51\n              swap2\n              swap1\n              tag_28\n              jump\t// in\n            tag_51:\n              tag_52\n              jump\t// in\n            tag_50:\n              mload(0x40)\n              tag_53\n              swap6\n              swap5\n              swap4\n              swap3\n              swap2\n              swap1\n              tag_54\n              jump\t// in\n            tag_53:\n              mload(0x40)\n              dup1\n              swap2\n              sub\n              swap1\n              return\n                /* \"SimplePoll.sol\":3471:3883  function vote(uint8 proposalIndex) external override hasDeadlineNotExpired isProposalIndexCorrect(proposalIndex) {... */\n            tag_12:\n              tag_55\n              0x04\n              dup1\n              calldatasize\n              sub\n              dup2\n              add\n              swap1\n              tag_56\n              swap2\n              swap1\n              tag_57\n              jump\t// in\n            tag_56:\n              tag_58\n              jump\t// in\n            tag_55:\n              stop\n                /* \"SimplePoll.sol\":834:853  string public topic */\n            tag_13:\n              tag_59\n              tag_60\n              jump\t// in\n            tag_59:\n              mload(0x40)\n              tag_61\n              swap2\n              swap1\n              tag_43\n              jump\t// in\n            tag_61:\n              mload(0x40)\n              dup1\n              swap2\n              sub\n              swap1\n              return\n                /* \"SimplePoll.sol\":2354:2487  function winnerName() external view returns (string memory) {... */\n            tag_14:\n              tag_62\n              tag_63\n              jump\t// in\n            tag_62:\n              mload(0x40)\n              tag_64\n              swap2\n              swap1\n              tag_43\n              jump\t// in\n            tag_64:\n              mload(0x40)\n              dup1\n              swap2\n              sub\n              swap1\n              return\n                /* \"SimplePoll.sol\":919:960  SharedStructs.Proposal[] public proposals */\n            tag_19:\n              0x04\n              dup2\n              dup2\n              sload\n              dup2\n              lt\n              tag_65\n              jumpi\n              0x00\n              dup1\n              revert\n            tag_65:\n              swap1\n              0x00\n              mstore\n              keccak256(0x00, 0x20)\n              swap1\n              0x02\n              mul\n              add\n              0x00\n              swap2\n              pop\n              swap1\n              pop\n              dup1\n              0x00\n              add\n              dup1\n              sload\n              tag_67\n              swap1\n              tag_68\n              jump\t// in\n            tag_67:\n              dup1\n              0x1f\n              add\n              0x20\n              dup1\n              swap2\n              div\n              mul\n              0x20\n              add\n              mload(0x40)\n              swap1\n              dup2\n              add\n              0x40\n              mstore\n              dup1\n              swap3\n              swap2\n              swap1\n              dup2\n              dup2\n              mstore\n              0x20\n              add\n              dup3\n              dup1\n              sload\n              tag_69\n              swap1\n              tag_68\n              jump\t// in\n            tag_69:\n              dup1\n              iszero\n              tag_70\n              jumpi\n              dup1\n              0x1f\n              lt\n              tag_71\n              jumpi\n              0x0100\n              dup1\n              dup4\n              sload\n              div\n              mul\n              dup4\n              mstore\n              swap2\n              0x20\n              add\n              swap2\n              jump(tag_70)\n            tag_71:\n              dup3\n              add\n              swap2\n              swap1\n              0x00\n              mstore\n              keccak256(0x00, 0x20)\n              swap1\n            tag_72:\n              dup2\n              sload\n              dup2\n              mstore\n              swap1\n              0x01\n              add\n              swap1\n              0x20\n              add\n              dup1\n              dup4\n              gt\n              tag_72\n              jumpi\n              dup3\n              swap1\n              sub\n              0x1f\n              and\n              dup3\n              add\n              swap2\n            tag_70:\n              pop\n              pop\n              pop\n              pop\n              pop\n              swap1\n              dup1\n              0x01\n              add\n              sload\n              swap1\n              pop\n              dup3\n              jump\t// out\n                /* \"SimplePoll.sol\":554:576  address public creator */\n            tag_23:\n              0x00\n              dup1\n              sload\n              swap1\n              0x0100\n              exp\n              swap1\n              div\n              0xffffffffffffffffffffffffffffffffffffffff\n              and\n              dup2\n              jump\t// out\n                /* \"SimplePoll.sol\":2004:2110  function hasVoted(address voter) external view returns(bool) {... */\n            tag_29:\n                /* \"SimplePoll.sol\":2059:2063  bool */\n              0x00\n                /* \"SimplePoll.sol\":2083:2089  voters */\n              0x05\n                /* \"SimplePoll.sol\":2083:2096  voters[voter] */\n              0x00\n                /* \"SimplePoll.sol\":2090:2095  voter */\n              dup4\n                /* \"SimplePoll.sol\":2083:2096  voters[voter] */\n              0xffffffffffffffffffffffffffffffffffffffff\n              and\n              0xffffffffffffffffffffffffffffffffffffffff\n              and\n              dup2\n              mstore\n              0x20\n              add\n              swap1\n              dup2\n              mstore\n              0x20\n              add\n              0x00\n              keccak256\n                /* \"SimplePoll.sol\":2083:2102  voters[voter].voted */\n              0x00\n              add\n              0x01\n              swap1\n              sload\n              swap1\n              0x0100\n              exp\n              swap1\n              div\n              0xff\n              and\n                /* \"SimplePoll.sol\":2076:2102  return voters[voter].voted */\n              swap1\n              pop\n                /* \"SimplePoll.sol\":2004:2110  function hasVoted(address voter) external view returns(bool) {... */\n              swap2\n              swap1\n              pop\n              jump\t// out\n                /* \"SimplePoll.sol\":892:912  uint public deadline */\n            tag_33:\n              sload(0x03)\n              dup2\n              jump\t// out\n                /* \"SimplePoll.sol\":2233:2346  function getResults() external view returns (SharedStructs.Proposal[] memory) {... */\n            tag_37:\n                /* \"SimplePoll.sol\":2278:2309  SharedStructs.Proposal[] memory */\n              0x60\n                /* \"SimplePoll.sol\":2329:2338  proposals */\n              0x04\n                /* \"SimplePoll.sol\":2322:2338  return proposals */\n              dup1\n              sload\n              dup1\n              0x20\n              mul\n              0x20\n              add\n              mload(0x40)\n              swap1\n              dup2\n              add\n              0x40\n              mstore\n              dup1\n              swap3\n              swap2\n              swap1\n              dup2\n              dup2\n              mstore\n              0x20\n              add\n              0x00\n              swap1\n            tag_75:\n              dup3\n              dup3\n              lt\n              iszero\n              tag_76\n              jumpi\n              dup4\n              dup3\n              swap1\n              0x00\n              mstore\n              keccak256(0x00, 0x20)\n              swap1\n              0x02\n              mul\n              add\n              mload(0x40)\n              dup1\n              0x40\n              add\n              0x40\n              mstore\n              swap1\n              dup2\n              0x00\n              dup3\n              add\n              dup1\n              sload\n              tag_78\n              swap1\n              tag_68\n              jump\t// in\n            tag_78:\n              dup1\n              0x1f\n              add\n              0x20\n              dup1\n              swap2\n              div\n              mul\n              0x20\n              add\n              mload(0x40)\n              swap1\n              dup2\n              add\n              0x40\n              mstore\n              dup1\n              swap3\n              swap2\n              swap1\n              dup2\n              dup2\n              mstore\n              0x20\n              add\n              dup3\n              dup1\n              sload\n              tag_79\n              swap1\n              tag_68\n              jump\t// in\n            tag_79:\n              dup1\n              iszero\n              tag_80\n              jumpi\n              dup1\n              0x1f\n              lt\n              tag_81\n              jumpi\n              0x0100\n              dup1\n              dup4\n              sload\n              div\n              mul\n              dup4\n              mstore\n              swap2\n              0x20\n              add\n              swap2\n              jump(tag_80)\n            tag_81:\n              dup3\n              add\n              swap2\n              swap1\n              0x00\n              mstore\n              keccak256(0x00, 0x20)\n              swap1\n            tag_82:\n              dup2\n              sload\n              dup2\n              mstore\n              swap1\n              0x01\n              add\n              swap1\n              0x20\n              add\n              dup1\n              dup4\n              gt\n              tag_82\n              jumpi\n              dup3\n              swap1\n              sub\n              0x1f\n              and\n              dup3\n              add\n              swap2\n            tag_80:\n              pop\n              pop\n              pop\n              pop\n              pop\n              dup2\n              mstore\n              0x20\n              add\n              0x01\n              dup3\n              add\n              sload\n              dup2\n              mstore\n              pop\n              pop\n              dup2\n              mstore\n              0x20\n              add\n              swap1\n              0x01\n              add\n              swap1\n              jump(tag_75)\n            tag_76:\n              pop\n              pop\n              pop\n              pop\n              swap1\n              pop\n                /* \"SimplePoll.sol\":2233:2346  function getResults() external view returns (SharedStructs.Proposal[] memory) {... */\n              swap1\n              jump\t// out\n                /* \"SimplePoll.sol\":860:885  string public description */\n            tag_41:\n              0x02\n              dup1\n              sload\n              tag_83\n              swap1\n              tag_68\n              jump\t// in\n            tag_83:\n              dup1\n              0x1f\n              add\n              0x20\n              dup1\n              swap2\n              div\n              mul\n              0x20\n              add\n              mload(0x40)\n              swap1\n              dup2\n              add\n              0x40\n              mstore\n              dup1\n              swap3\n              swap2\n              swap1\n              dup2\n              dup2\n              mstore\n              0x20\n              add\n              dup3\n              dup1\n              sload\n              tag_84\n              swap1\n              tag_68\n              jump\t// in\n            tag_84:\n              dup1\n              iszero\n              tag_85\n              jumpi\n              dup1\n              0x1f\n              lt\n              tag_86\n              jumpi\n              0x0100\n              dup1\n              dup4\n              sload\n              div\n              mul\n              dup4\n              mstore\n              swap2\n              0x20\n              add\n              swap2\n              jump(tag_85)\n            tag_86:\n              dup3\n              add\n              swap2\n              swap1\n              0x00\n              mstore\n              keccak256(0x00, 0x20)\n              swap1\n            tag_87:\n              dup2\n              sload\n              dup2\n              mstore\n              swap1\n              0x01\n              add\n              swap1\n              0x20\n              add\n              dup1\n              dup4\n              gt\n              tag_87\n              jumpi\n              dup3\n              swap1\n              sub\n              0x1f\n              and\n              dup3\n              add\n              swap2\n            tag_85:\n              pop\n              pop\n              pop\n              pop\n              pop\n              dup2\n              jump\t// out\n                /* \"SimplePoll.sol\":2118:2225  function isDeadlineExpired() public view returns(bool) {... */\n            tag_45:\n                /* \"SimplePoll.sol\":2167:2171  bool */\n              0x00\n                /* \"SimplePoll.sol\":2209:2217  deadline */\n              sload(0x03)\n                /* \"SimplePoll.sol\":2191:2206  block.timestamp */\n              timestamp\n                /* \"SimplePoll.sol\":2191:2217  block.timestamp > deadline */\n              gt\n                /* \"SimplePoll.sol\":2184:2217  return block.timestamp > deadline */\n              swap1\n              pop\n                /* \"SimplePoll.sol\":2118:2225  function isDeadlineExpired() public view returns(bool) {... */\n              swap1\n              jump\t// out\n                /* \"SimplePoll.sol\":3242:3463  function giveRightToVote(address voter) external hasDeadlineNotExpired isCreator hasNoRightToVote(voter) {... */\n            tag_49:\n                /* \"SimplePoll.sol\":1395:1414  isDeadlineExpired() */\n              tag_90\n                /* \"SimplePoll.sol\":1395:1412  isDeadlineExpired */\n              tag_45\n                /* \"SimplePoll.sol\":1395:1414  isDeadlineExpired() */\n              jump\t// in\n            tag_90:\n                /* \"SimplePoll.sol\":1394:1414  !isDeadlineExpired() */\n              iszero\n                /* \"SimplePoll.sol\":1386:1440  require(!isDeadlineExpired(), \"Deadline has expired.\") */\n              tag_91\n              jumpi\n              mload(0x40)\n              0x08c379a000000000000000000000000000000000000000000000000000000000\n              dup2\n              mstore\n              0x04\n              add\n              tag_92\n              swap1\n              tag_93\n              jump\t// in\n            tag_92:\n              mload(0x40)\n              dup1\n              swap2\n              sub\n              swap1\n              revert\n            tag_91:\n                /* \"SimplePoll.sol\":714:721  creator */\n              0x00\n              dup1\n              sload\n              swap1\n              0x0100\n              exp\n              swap1\n              div\n              0xffffffffffffffffffffffffffffffffffffffff\n              and\n                /* \"SimplePoll.sol\":700:721  msg.sender == creator */\n              0xffffffffffffffffffffffffffffffffffffffff\n              and\n                /* \"SimplePoll.sol\":700:710  msg.sender */\n              caller\n                /* \"SimplePoll.sol\":700:721  msg.sender == creator */\n              0xffffffffffffffffffffffffffffffffffffffff\n              and\n              eq\n                /* \"SimplePoll.sol\":692:760  require(msg.sender == creator, \"Only creator has these privileges.\") */\n              tag_95\n              jumpi\n              mload(0x40)\n              0x08c379a000000000000000000000000000000000000000000000000000000000\n              dup2\n              mstore\n              0x04\n              add\n              tag_96\n              swap1\n              tag_97\n              jump\t// in\n            tag_96:\n              mload(0x40)\n              dup1\n              swap2\n              sub\n              swap1\n              revert\n            tag_95:\n                /* \"SimplePoll.sol\":3340:3345  voter */\n              dup1\n                /* \"SimplePoll.sol\":1090:1096  voters */\n              0x05\n                /* \"SimplePoll.sol\":1090:1103  voters[voter] */\n              0x00\n                /* \"SimplePoll.sol\":1097:1102  voter */\n              dup3\n                /* \"SimplePoll.sol\":1090:1103  voters[voter] */\n              0xffffffffffffffffffffffffffffffffffffffff\n              and\n              0xffffffffffffffffffffffffffffffffffffffff\n              and\n              dup2\n              mstore\n              0x20\n              add\n              swap1\n              dup2\n              mstore\n              0x20\n              add\n              0x00\n              keccak256\n                /* \"SimplePoll.sol\":1090:1111  voters[voter].canVote */\n              0x00\n              add\n              0x00\n              swap1\n              sload\n              swap1\n              0x0100\n              exp\n              swap1\n              div\n              0xff\n              and\n                /* \"SimplePoll.sol\":1089:1111  !voters[voter].canVote */\n              iszero\n                /* \"SimplePoll.sol\":1081:1148  require(!voters[voter].canVote, \"Voter has already right to vote.\") */\n              tag_99\n              jumpi\n              mload(0x40)\n              0x08c379a000000000000000000000000000000000000000000000000000000000\n              dup2\n              mstore\n              0x04\n              add\n              tag_100\n              swap1\n              tag_101\n              jump\t// in\n            tag_100:\n              mload(0x40)\n              dup1\n              swap2\n              sub\n              swap1\n              revert\n            tag_99:\n                /* \"SimplePoll.sol\":3382:3386  true */\n              0x01\n                /* \"SimplePoll.sol\":3358:3364  voters */\n              0x05\n                /* \"SimplePoll.sol\":3358:3371  voters[voter] */\n              0x00\n                /* \"SimplePoll.sol\":3365:3370  voter */\n              dup5\n                /* \"SimplePoll.sol\":3358:3371  voters[voter] */\n              0xffffffffffffffffffffffffffffffffffffffff\n              and\n              0xffffffffffffffffffffffffffffffffffffffff\n              and\n              dup2\n              mstore\n              0x20\n              add\n              swap1\n              dup2\n              mstore\n              0x20\n              add\n              0x00\n              keccak256\n                /* \"SimplePoll.sol\":3358:3379  voters[voter].canVote */\n              0x00\n              add\n              0x00\n                /* \"SimplePoll.sol\":3358:3386  voters[voter].canVote = true */\n              0x0100\n              exp\n              dup2\n              sload\n              dup2\n              0xff\n              mul\n              not\n              and\n              swap1\n              dup4\n              iszero\n              iszero\n              mul\n              or\n              swap1\n              sstore\n              pop\n                /* \"SimplePoll.sol\":3449:3454  voter */\n              dup2\n                /* \"SimplePoll.sol\":3402:3455  GivingRightToVote(block.timestamp, msg.sender, voter) */\n              0xffffffffffffffffffffffffffffffffffffffff\n              and\n                /* \"SimplePoll.sol\":3437:3447  msg.sender */\n              caller\n                /* \"SimplePoll.sol\":3402:3455  GivingRightToVote(block.timestamp, msg.sender, voter) */\n              0xffffffffffffffffffffffffffffffffffffffff\n              and\n                /* \"SimplePoll.sol\":3420:3435  block.timestamp */\n              timestamp\n                /* \"SimplePoll.sol\":3402:3455  GivingRightToVote(block.timestamp, msg.sender, voter) */\n              0xa4bbd98d03300dc9c6991b0f3c356eb7c69c95fc7352dcbc5cb2e949904506b2\n              mload(0x40)\n              mload(0x40)\n              dup1\n              swap2\n              sub\n              swap1\n              log4\n                /* \"SimplePoll.sol\":771:772  _ */\n              pop\n                /* \"SimplePoll.sol\":3242:3463  function giveRightToVote(address voter) external hasDeadlineNotExpired isCreator hasNoRightToVote(voter) {... */\n              pop\n              jump\t// out\n                /* \"SimplePoll.sol\":967:1020  mapping(address => SharedStructs.Voter) public voters */\n            tag_52:\n              mstore(0x20, 0x05)\n              dup1\n              0x00\n              mstore\n              keccak256(0x00, 0x40)\n              0x00\n              swap2\n              pop\n              swap1\n              pop\n              dup1\n              0x00\n              add\n              0x00\n              swap1\n              sload\n              swap1\n              0x0100\n              exp\n              swap1\n              div\n              0xff\n              and\n              swap1\n              dup1\n              0x00\n              add\n              0x01\n              swap1\n              sload\n              swap1\n              0x0100\n              exp\n              swap1\n              div\n              0xff\n              and\n              swap1\n              dup1\n              0x00\n              add\n              0x02\n              swap1\n              sload\n              swap1\n              0x0100\n              exp\n              swap1\n              div\n              0xff\n              and\n              swap1\n              dup1\n              0x01\n              add\n              sload\n              swap1\n              dup1\n              0x02\n              add\n              0x00\n              swap1\n              sload\n              swap1\n              0x0100\n              exp\n              swap1\n              div\n              0xffffffffffffffffffffffffffffffffffffffff\n              and\n              swap1\n              pop\n              dup6\n              jump\t// out\n                /* \"SimplePoll.sol\":3471:3883  function vote(uint8 proposalIndex) external override hasDeadlineNotExpired isProposalIndexCorrect(proposalIndex) {... */\n            tag_58:\n                /* \"SimplePoll.sol\":1395:1414  isDeadlineExpired() */\n              tag_104\n                /* \"SimplePoll.sol\":1395:1412  isDeadlineExpired */\n              tag_45\n                /* \"SimplePoll.sol\":1395:1414  isDeadlineExpired() */\n              jump\t// in\n            tag_104:\n                /* \"SimplePoll.sol\":1394:1414  !isDeadlineExpired() */\n              iszero\n                /* \"SimplePoll.sol\":1386:1440  require(!isDeadlineExpired(), \"Deadline has expired.\") */\n              tag_105\n              jumpi\n              mload(0x40)\n              0x08c379a000000000000000000000000000000000000000000000000000000000\n              dup2\n              mstore\n              0x04\n              add\n              tag_106\n              swap1\n              tag_93\n              jump\t// in\n            tag_106:\n              mload(0x40)\n              dup1\n              swap2\n              sub\n              swap1\n              revert\n            tag_105:\n                /* \"SimplePoll.sol\":3569:3582  proposalIndex */\n              dup1\n                /* \"SimplePoll.sol\":1264:1273  proposals */\n              0x04\n                /* \"SimplePoll.sol\":1264:1280  proposals.length */\n              dup1\n              sload\n              swap1\n              pop\n                /* \"SimplePoll.sol\":1248:1261  proposalIndex */\n              dup2\n                /* \"SimplePoll.sol\":1248:1280  proposalIndex < proposals.length */\n              0xff\n              and\n              lt\n                /* \"SimplePoll.sol\":1240:1314  require(proposalIndex < proposals.length, \"This proposal does not exist.\") */\n              tag_108\n              jumpi\n              mload(0x40)\n              0x08c379a000000000000000000000000000000000000000000000000000000000\n              dup2\n              mstore\n              0x04\n              add\n              tag_109\n              swap1\n              tag_110\n              jump\t// in\n            tag_109:\n              mload(0x40)\n              dup1\n              swap2\n              sub\n              swap1\n              revert\n            tag_108:\n                /* \"SimplePoll.sol\":3595:3629  SharedStructs.Voter storage sender */\n              0x00\n                /* \"SimplePoll.sol\":3632:3638  voters */\n              0x05\n                /* \"SimplePoll.sol\":3632:3650  voters[msg.sender] */\n              0x00\n                /* \"SimplePoll.sol\":3639:3649  msg.sender */\n              caller\n                /* \"SimplePoll.sol\":3632:3650  voters[msg.sender] */\n              0xffffffffffffffffffffffffffffffffffffffff\n              and\n              0xffffffffffffffffffffffffffffffffffffffff\n              and\n              dup2\n              mstore\n              0x20\n              add\n              swap1\n              dup2\n              mstore\n              0x20\n              add\n              0x00\n              keccak256\n                /* \"SimplePoll.sol\":3595:3650  SharedStructs.Voter storage sender = voters[msg.sender] */\n              swap1\n              pop\n                /* \"SimplePoll.sol\":3669:3675  sender */\n              dup1\n                /* \"SimplePoll.sol\":3669:3683  sender.canVote */\n              0x00\n              add\n              0x00\n              swap1\n              sload\n              swap1\n              0x0100\n              exp\n              swap1\n              div\n              0xff\n              and\n                /* \"SimplePoll.sol\":3661:3709  require(sender.canVote, \"Has no right to vote.\") */\n              tag_112\n              jumpi\n              mload(0x40)\n              0x08c379a000000000000000000000000000000000000000000000000000000000\n              dup2\n              mstore\n              0x04\n              add\n              tag_113\n              swap1\n              tag_114\n              jump\t// in\n            tag_113:\n              mload(0x40)\n              dup1\n              swap2\n              sub\n              swap1\n              revert\n            tag_112:\n                /* \"SimplePoll.sol\":3729:3735  sender */\n              dup1\n                /* \"SimplePoll.sol\":3729:3741  sender.voted */\n              0x00\n              add\n              0x01\n              swap1\n              sload\n              swap1\n              0x0100\n              exp\n              swap1\n              div\n              0xff\n              and\n                /* \"SimplePoll.sol\":3728:3741  !sender.voted */\n              iszero\n                /* \"SimplePoll.sol\":3720:3760  require(!sender.voted, \"Already voted.\") */\n              tag_115\n              jumpi\n              mload(0x40)\n              0x08c379a000000000000000000000000000000000000000000000000000000000\n              dup2\n              mstore\n              0x04\n              add\n              tag_116\n              swap1\n              tag_117\n              jump\t// in\n            tag_116:\n              mload(0x40)\n              dup1\n              swap2\n              sub\n              swap1\n              revert\n            tag_115:\n                /* \"SimplePoll.sol\":3786:3790  true */\n              0x01\n                /* \"SimplePoll.sol\":3771:3777  sender */\n              dup2\n                /* \"SimplePoll.sol\":3771:3783  sender.voted */\n              0x00\n              add\n              0x01\n                /* \"SimplePoll.sol\":3771:3790  sender.voted = true */\n              0x0100\n              exp\n              dup2\n              sload\n              dup2\n              0xff\n              mul\n              not\n              and\n              swap1\n              dup4\n              iszero\n              iszero\n              mul\n              or\n              swap1\n              sstore\n              pop\n                /* \"SimplePoll.sol\":3815:3828  proposalIndex */\n              dup3\n                /* \"SimplePoll.sol\":3801:3807  sender */\n              dup2\n                /* \"SimplePoll.sol\":3801:3812  sender.vote */\n              0x00\n              add\n              0x02\n                /* \"SimplePoll.sol\":3801:3828  sender.vote = proposalIndex */\n              0x0100\n              exp\n              dup2\n              sload\n              dup2\n              0xff\n              mul\n              not\n              and\n              swap1\n              dup4\n              0xff\n              and\n              mul\n              or\n              swap1\n              sstore\n              pop\n                /* \"SimplePoll.sol\":3839:3848  proposals */\n              0x04\n                /* \"SimplePoll.sol\":3849:3862  proposalIndex */\n              dup4\n                /* \"SimplePoll.sol\":3839:3863  proposals[proposalIndex] */\n              0xff\n              and\n              dup2\n              sload\n              dup2\n              lt\n              tag_118\n              jumpi\n              tag_119\n              tag_120\n              jump\t// in\n            tag_119:\n            tag_118:\n              swap1\n              0x00\n              mstore\n              keccak256(0x00, 0x20)\n              swap1\n              0x02\n              mul\n              add\n                /* \"SimplePoll.sol\":3839:3873  proposals[proposalIndex].voteCount */\n              0x01\n              add\n              0x00\n                /* \"SimplePoll.sol\":3839:3875  proposals[proposalIndex].voteCount++ */\n              dup2\n              sload\n              dup1\n              swap3\n              swap2\n              swap1\n              tag_122\n              swap1\n              tag_123\n              jump\t// in\n            tag_122:\n              swap2\n              swap1\n              pop\n              sstore\n              pop\n                /* \"SimplePoll.sol\":3584:3883  {... */\n              pop\n                /* \"SimplePoll.sol\":1451:1452  _ */\n              pop\n                /* \"SimplePoll.sol\":3471:3883  function vote(uint8 proposalIndex) external override hasDeadlineNotExpired isProposalIndexCorrect(proposalIndex) {... */\n              pop\n              jump\t// out\n                /* \"SimplePoll.sol\":834:853  string public topic */\n            tag_60:\n              0x01\n              dup1\n              sload\n              tag_124\n              swap1\n              tag_68\n              jump\t// in\n            tag_124:\n              dup1\n              0x1f\n              add\n              0x20\n              dup1\n              swap2\n              div\n              mul\n              0x20\n              add\n              mload(0x40)\n              swap1\n              dup2\n              add\n              0x40\n              mstore\n              dup1\n              swap3\n              swap2\n              swap1\n              dup2\n              dup2\n              mstore\n              0x20\n              add\n              dup3\n              dup1\n              sload\n              tag_125\n              swap1\n              tag_68\n              jump\t// in\n            tag_125:\n              dup1\n              iszero\n              tag_126\n              jumpi\n              dup1\n              0x1f\n              lt\n              tag_127\n              jumpi\n              0x0100\n              dup1\n              dup4\n              sload\n              div\n              mul\n              dup4\n              mstore\n              swap2\n              0x20\n              add\n              swap2\n              jump(tag_126)\n            tag_127:\n              dup3\n              add\n              swap2\n              swap1\n              0x00\n              mstore\n              keccak256(0x00, 0x20)\n              swap1\n            tag_128:\n              dup2\n              sload\n              dup2\n              mstore\n              swap1\n              0x01\n              add\n              swap1\n              0x20\n              add\n              dup1\n              dup4\n              gt\n              tag_128\n              jumpi\n              dup3\n              swap1\n              sub\n              0x1f\n              and\n              dup3\n              add\n              swap2\n            tag_126:\n              pop\n              pop\n              pop\n              pop\n              pop\n              dup2\n              jump\t// out\n                /* \"SimplePoll.sol\":2354:2487  function winnerName() external view returns (string memory) {... */\n            tag_63:\n                /* \"SimplePoll.sol\":2399:2412  string memory */\n              0x60\n                /* \"SimplePoll.sol\":2432:2441  proposals */\n              0x04\n                /* \"SimplePoll.sol\":2442:2473  determineWinningProposalIndex() */\n              tag_130\n                /* \"SimplePoll.sol\":2442:2471  determineWinningProposalIndex */\n              tag_131\n                /* \"SimplePoll.sol\":2442:2473  determineWinningProposalIndex() */\n              jump\t// in\n            tag_130:\n                /* \"SimplePoll.sol\":2432:2474  proposals[determineWinningProposalIndex()] */\n              0xff\n              and\n              dup2\n              sload\n              dup2\n              lt\n              tag_132\n              jumpi\n              tag_133\n              tag_120\n              jump\t// in\n            tag_133:\n            tag_132:\n              swap1\n              0x00\n              mstore\n              keccak256(0x00, 0x20)\n              swap1\n              0x02\n              mul\n              add\n                /* \"SimplePoll.sol\":2432:2479  proposals[determineWinningProposalIndex()].name */\n              0x00\n              add\n                /* \"SimplePoll.sol\":2425:2479  return proposals[determineWinningProposalIndex()].name */\n              dup1\n              sload\n              tag_135\n              swap1\n              tag_68\n              jump\t// in\n            tag_135:\n              dup1\n              0x1f\n              add\n              0x20\n              dup1\n              swap2\n              div\n              mul\n              0x20\n              add\n              mload(0x40)\n              swap1\n              dup2\n              add\n              0x40\n              mstore\n              dup1\n              swap3\n              swap2\n              swap1\n              dup2\n              dup2\n              mstore\n              0x20\n              add\n              dup3\n              dup1\n              sload\n              tag_136\n              swap1\n              tag_68\n              jump\t// in\n            tag_136:\n              dup1\n              iszero\n              tag_137\n              jumpi\n              dup1\n              0x1f\n              lt\n              tag_138\n              jumpi\n              0x0100\n              dup1\n              dup4\n              sload\n              div\n              mul\n              dup4\n              mstore\n              swap2\n              0x20\n              add\n              swap2\n              jump(tag_137)\n            tag_138:\n              dup3\n              add\n              swap2\n              swap1\n              0x00\n              mstore\n              keccak256(0x00, 0x20)\n              swap1\n            tag_139:\n              dup2\n              sload\n              dup2\n              mstore\n              swap1\n              0x01\n              add\n              swap1\n              0x20\n              add\n              dup1\n              dup4\n              gt\n              tag_139\n              jumpi\n              dup3\n              swap1\n              sub\n              0x1f\n              and\n              dup3\n              add\n              swap2\n            tag_137:\n              pop\n              pop\n              pop\n              pop\n              pop\n              swap1\n              pop\n                /* \"SimplePoll.sol\":2354:2487  function winnerName() external view returns (string memory) {... */\n              swap1\n              jump\t// out\n                /* \"SimplePoll.sol\":2495:2850  function determineWinningProposalIndex() private view returns (uint8 index) {... */\n            tag_131:\n                /* \"SimplePoll.sol\":2558:2569  uint8 index */\n              0x00\n                /* \"SimplePoll.sol\":2582:2604  uint _winningVoteCount */\n              dup1\n                /* \"SimplePoll.sol\":2607:2608  0 */\n              0x00\n                /* \"SimplePoll.sol\":2582:2608  uint _winningVoteCount = 0 */\n              swap1\n              pop\n                /* \"SimplePoll.sol\":2624:2631  uint8 i */\n              0x00\n                /* \"SimplePoll.sol\":2619:2843  for (uint8 i = 0; i < proposals.length; i++) {... */\n            tag_141:\n                /* \"SimplePoll.sol\":2641:2650  proposals */\n              0x04\n                /* \"SimplePoll.sol\":2641:2657  proposals.length */\n              dup1\n              sload\n              swap1\n              pop\n                /* \"SimplePoll.sol\":2637:2638  i */\n              dup2\n                /* \"SimplePoll.sol\":2637:2657  i < proposals.length */\n              0xff\n              and\n              lt\n                /* \"SimplePoll.sol\":2619:2843  for (uint8 i = 0; i < proposals.length; i++) {... */\n              iszero\n              tag_142\n              jumpi\n                /* \"SimplePoll.sol\":2708:2725  _winningVoteCount */\n              dup2\n                /* \"SimplePoll.sol\":2683:2692  proposals */\n              0x04\n                /* \"SimplePoll.sol\":2693:2694  i */\n              dup3\n                /* \"SimplePoll.sol\":2683:2695  proposals[i] */\n              0xff\n              and\n              dup2\n              sload\n              dup2\n              lt\n              tag_144\n              jumpi\n              tag_145\n              tag_120\n              jump\t// in\n            tag_145:\n            tag_144:\n              swap1\n              0x00\n              mstore\n              keccak256(0x00, 0x20)\n              swap1\n              0x02\n              mul\n              add\n                /* \"SimplePoll.sol\":2683:2705  proposals[i].voteCount */\n              0x01\n              add\n              sload\n                /* \"SimplePoll.sol\":2683:2725  proposals[i].voteCount > _winningVoteCount */\n              gt\n                /* \"SimplePoll.sol\":2679:2832  if (proposals[i].voteCount > _winningVoteCount) {... */\n              iszero\n              tag_147\n              jumpi\n                /* \"SimplePoll.sol\":2766:2775  proposals */\n              0x04\n                /* \"SimplePoll.sol\":2776:2777  i */\n              dup2\n                /* \"SimplePoll.sol\":2766:2778  proposals[i] */\n              0xff\n              and\n              dup2\n              sload\n              dup2\n              lt\n              tag_148\n              jumpi\n              tag_149\n              tag_120\n              jump\t// in\n            tag_149:\n            tag_148:\n              swap1\n              0x00\n              mstore\n              keccak256(0x00, 0x20)\n              swap1\n              0x02\n              mul\n              add\n                /* \"SimplePoll.sol\":2766:2788  proposals[i].voteCount */\n              0x01\n              add\n              sload\n                /* \"SimplePoll.sol\":2746:2788  _winningVoteCount = proposals[i].voteCount */\n              swap2\n              pop\n                /* \"SimplePoll.sol\":2815:2816  i */\n              dup1\n                /* \"SimplePoll.sol\":2807:2816  index = i */\n              swap3\n              pop\n                /* \"SimplePoll.sol\":2679:2832  if (proposals[i].voteCount > _winningVoteCount) {... */\n            tag_147:\n                /* \"SimplePoll.sol\":2659:2662  i++ */\n              dup1\n              dup1\n              tag_151\n              swap1\n              tag_152\n              jump\t// in\n            tag_151:\n              swap2\n              pop\n              pop\n                /* \"SimplePoll.sol\":2619:2843  for (uint8 i = 0; i < proposals.length; i++) {... */\n              jump(tag_141)\n            tag_142:\n              pop\n                /* \"SimplePoll.sol\":2571:2850  {... */\n              pop\n                /* \"SimplePoll.sol\":2495:2850  function determineWinningProposalIndex() private view returns (uint8 index) {... */\n              swap1\n              jump\t// out\n                /* \"#utility.yul\":88:205   */\n            tag_154:\n                /* \"#utility.yul\":197:198   */\n              0x00\n                /* \"#utility.yul\":194:195   */\n              dup1\n                /* \"#utility.yul\":187:199   */\n              revert\n                /* \"#utility.yul\":334:411   */\n            tag_156:\n                /* \"#utility.yul\":371:378   */\n              0x00\n                /* \"#utility.yul\":400:405   */\n              dup2\n                /* \"#utility.yul\":389:405   */\n              swap1\n              pop\n                /* \"#utility.yul\":334:411   */\n              swap2\n              swap1\n              pop\n              jump\t// out\n                /* \"#utility.yul\":417:539   */\n            tag_157:\n                /* \"#utility.yul\":490:514   */\n              tag_206\n                /* \"#utility.yul\":508:513   */\n              dup2\n                /* \"#utility.yul\":490:514   */\n              tag_156\n              jump\t// in\n            tag_206:\n                /* \"#utility.yul\":483:488   */\n              dup2\n                /* \"#utility.yul\":480:515   */\n              eq\n                /* \"#utility.yul\":470:533   */\n              tag_207\n              jumpi\n                /* \"#utility.yul\":529:530   */\n              0x00\n                /* \"#utility.yul\":526:527   */\n              dup1\n                /* \"#utility.yul\":519:531   */\n              revert\n                /* \"#utility.yul\":470:533   */\n            tag_207:\n                /* \"#utility.yul\":417:539   */\n              pop\n              jump\t// out\n                /* \"#utility.yul\":545:684   */\n            tag_158:\n                /* \"#utility.yul\":591:596   */\n              0x00\n                /* \"#utility.yul\":629:635   */\n              dup2\n                /* \"#utility.yul\":616:636   */\n              calldataload\n                /* \"#utility.yul\":607:636   */\n              swap1\n              pop\n                /* \"#utility.yul\":645:678   */\n              tag_209\n                /* \"#utility.yul\":672:677   */\n              dup2\n                /* \"#utility.yul\":645:678   */\n              tag_157\n              jump\t// in\n            tag_209:\n                /* \"#utility.yul\":545:684   */\n              swap3\n              swap2\n              pop\n              pop\n              jump\t// out\n                /* \"#utility.yul\":690:1019   */\n            tag_18:\n                /* \"#utility.yul\":749:755   */\n              0x00\n                /* \"#utility.yul\":798:800   */\n              0x20\n                /* \"#utility.yul\":786:795   */\n              dup3\n                /* \"#utility.yul\":777:784   */\n              dup5\n                /* \"#utility.yul\":773:796   */\n              sub\n                /* \"#utility.yul\":769:801   */\n              slt\n                /* \"#utility.yul\":766:885   */\n              iszero\n              tag_211\n              jumpi\n                /* \"#utility.yul\":804:883   */\n              tag_212\n              tag_154\n              jump\t// in\n            tag_212:\n                /* \"#utility.yul\":766:885   */\n            tag_211:\n                /* \"#utility.yul\":924:925   */\n              0x00\n                /* \"#utility.yul\":949:1002   */\n              tag_213\n                /* \"#utility.yul\":994:1001   */\n              dup5\n                /* \"#utility.yul\":985:991   */\n              dup3\n                /* \"#utility.yul\":974:983   */\n              dup6\n                /* \"#utility.yul\":970:992   */\n              add\n                /* \"#utility.yul\":949:1002   */\n              tag_158\n              jump\t// in\n            tag_213:\n                /* \"#utility.yul\":939:1002   */\n              swap2\n              pop\n                /* \"#utility.yul\":895:1012   */\n              pop\n                /* \"#utility.yul\":690:1019   */\n              swap3\n              swap2\n              pop\n              pop\n              jump\t// out\n                /* \"#utility.yul\":1025:1124   */\n            tag_159:\n                /* \"#utility.yul\":1077:1083   */\n              0x00\n                /* \"#utility.yul\":1111:1116   */\n              dup2\n                /* \"#utility.yul\":1105:1117   */\n              mload\n                /* \"#utility.yul\":1095:1117   */\n              swap1\n              pop\n                /* \"#utility.yul\":1025:1124   */\n              swap2\n              swap1\n              pop\n              jump\t// out\n                /* \"#utility.yul\":1130:1299   */\n            tag_160:\n                /* \"#utility.yul\":1214:1225   */\n              0x00\n                /* \"#utility.yul\":1248:1254   */\n              dup3\n                /* \"#utility.yul\":1243:1246   */\n              dup3\n                /* \"#utility.yul\":1236:1255   */\n              mstore\n                /* \"#utility.yul\":1288:1292   */\n              0x20\n                /* \"#utility.yul\":1283:1286   */\n              dup3\n                /* \"#utility.yul\":1279:1293   */\n              add\n                /* \"#utility.yul\":1264:1293   */\n              swap1\n              pop\n                /* \"#utility.yul\":1130:1299   */\n              swap3\n              swap2\n              pop\n              pop\n              jump\t// out\n                /* \"#utility.yul\":1305:1551   */\n            tag_161:\n                /* \"#utility.yul\":1386:1387   */\n              0x00\n                /* \"#utility.yul\":1396:1509   */\n            tag_217:\n                /* \"#utility.yul\":1410:1416   */\n              dup4\n                /* \"#utility.yul\":1407:1408   */\n              dup2\n                /* \"#utility.yul\":1404:1417   */\n              lt\n                /* \"#utility.yul\":1396:1509   */\n              iszero\n              tag_219\n              jumpi\n                /* \"#utility.yul\":1495:1496   */\n              dup1\n                /* \"#utility.yul\":1490:1493   */\n              dup3\n                /* \"#utility.yul\":1486:1497   */\n              add\n                /* \"#utility.yul\":1480:1498   */\n              mload\n                /* \"#utility.yul\":1476:1477   */\n              dup2\n                /* \"#utility.yul\":1471:1474   */\n              dup5\n                /* \"#utility.yul\":1467:1478   */\n              add\n                /* \"#utility.yul\":1460:1499   */\n              mstore\n                /* \"#utility.yul\":1432:1434   */\n              0x20\n                /* \"#utility.yul\":1429:1430   */\n              dup2\n                /* \"#utility.yul\":1425:1435   */\n              add\n                /* \"#utility.yul\":1420:1435   */\n              swap1\n              pop\n                /* \"#utility.yul\":1396:1509   */\n              jump(tag_217)\n            tag_219:\n                /* \"#utility.yul\":1543:1544   */\n              0x00\n                /* \"#utility.yul\":1534:1540   */\n              dup5\n                /* \"#utility.yul\":1529:1532   */\n              dup5\n                /* \"#utility.yul\":1525:1541   */\n              add\n                /* \"#utility.yul\":1518:1545   */\n              mstore\n                /* \"#utility.yul\":1367:1551   */\n              pop\n                /* \"#utility.yul\":1305:1551   */\n              pop\n              pop\n              pop\n              jump\t// out\n                /* \"#utility.yul\":1557:1659   */\n            tag_162:\n                /* \"#utility.yul\":1598:1604   */\n              0x00\n                /* \"#utility.yul\":1649:1651   */\n              0x1f\n                /* \"#utility.yul\":1645:1652   */\n              not\n                /* \"#utility.yul\":1640:1642   */\n              0x1f\n                /* \"#utility.yul\":1633:1638   */\n              dup4\n                /* \"#utility.yul\":1629:1643   */\n              add\n                /* \"#utility.yul\":1625:1653   */\n              and\n                /* \"#utility.yul\":1615:1653   */\n              swap1\n              pop\n                /* \"#utility.yul\":1557:1659   */\n              swap2\n              swap1\n              pop\n              jump\t// out\n                /* \"#utility.yul\":1665:2042   */\n            tag_163:\n                /* \"#utility.yul\":1753:1756   */\n              0x00\n                /* \"#utility.yul\":1781:1820   */\n              tag_222\n                /* \"#utility.yul\":1814:1819   */\n              dup3\n                /* \"#utility.yul\":1781:1820   */\n              tag_159\n              jump\t// in\n            tag_222:\n                /* \"#utility.yul\":1836:1907   */\n              tag_223\n                /* \"#utility.yul\":1900:1906   */\n              dup2\n                /* \"#utility.yul\":1895:1898   */\n              dup6\n                /* \"#utility.yul\":1836:1907   */\n              tag_160\n              jump\t// in\n            tag_223:\n                /* \"#utility.yul\":1829:1907   */\n              swap4\n              pop\n                /* \"#utility.yul\":1916:1981   */\n              tag_224\n                /* \"#utility.yul\":1974:1980   */\n              dup2\n                /* \"#utility.yul\":1969:1972   */\n              dup6\n                /* \"#utility.yul\":1962:1966   */\n              0x20\n                /* \"#utility.yul\":1955:1960   */\n              dup7\n                /* \"#utility.yul\":1951:1967   */\n              add\n                /* \"#utility.yul\":1916:1981   */\n              tag_161\n              jump\t// in\n            tag_224:\n                /* \"#utility.yul\":2006:2035   */\n              tag_225\n                /* \"#utility.yul\":2028:2034   */\n              dup2\n                /* \"#utility.yul\":2006:2035   */\n              tag_162\n              jump\t// in\n            tag_225:\n                /* \"#utility.yul\":2001:2004   */\n              dup5\n                /* \"#utility.yul\":1997:2036   */\n              add\n                /* \"#utility.yul\":1990:2036   */\n              swap2\n              pop\n                /* \"#utility.yul\":1757:2042   */\n              pop\n                /* \"#utility.yul\":1665:2042   */\n              swap3\n              swap2\n              pop\n              pop\n              jump\t// out\n                /* \"#utility.yul\":2048:2166   */\n            tag_164:\n                /* \"#utility.yul\":2135:2159   */\n              tag_227\n                /* \"#utility.yul\":2153:2158   */\n              dup2\n                /* \"#utility.yul\":2135:2159   */\n              tag_156\n              jump\t// in\n            tag_227:\n                /* \"#utility.yul\":2130:2133   */\n              dup3\n                /* \"#utility.yul\":2123:2160   */\n              mstore\n                /* \"#utility.yul\":2048:2166   */\n              pop\n              pop\n              jump\t// out\n                /* \"#utility.yul\":2172:2595   */\n            tag_21:\n                /* \"#utility.yul\":2313:2317   */\n              0x00\n                /* \"#utility.yul\":2351:2353   */\n              0x40\n                /* \"#utility.yul\":2340:2349   */\n              dup3\n                /* \"#utility.yul\":2336:2354   */\n              add\n                /* \"#utility.yul\":2328:2354   */\n              swap1\n              pop\n                /* \"#utility.yul\":2400:2409   */\n              dup2\n                /* \"#utility.yul\":2394:2398   */\n              dup2\n                /* \"#utility.yul\":2390:2410   */\n              sub\n                /* \"#utility.yul\":2386:2387   */\n              0x00\n                /* \"#utility.yul\":2375:2384   */\n              dup4\n                /* \"#utility.yul\":2371:2388   */\n              add\n                /* \"#utility.yul\":2364:2411   */\n              mstore\n                /* \"#utility.yul\":2428:2506   */\n              tag_229\n                /* \"#utility.yul\":2501:2505   */\n              dup2\n                /* \"#utility.yul\":2492:2498   */\n              dup6\n                /* \"#utility.yul\":2428:2506   */\n              tag_163\n              jump\t// in\n            tag_229:\n                /* \"#utility.yul\":2420:2506   */\n              swap1\n              pop\n                /* \"#utility.yul\":2516:2588   */\n              tag_230\n                /* \"#utility.yul\":2584:2586   */\n              0x20\n                /* \"#utility.yul\":2573:2582   */\n              dup4\n                /* \"#utility.yul\":2569:2587   */\n              add\n                /* \"#utility.yul\":2560:2566   */\n              dup5\n                /* \"#utility.yul\":2516:2588   */\n              tag_164\n              jump\t// in\n            tag_230:\n                /* \"#utility.yul\":2172:2595   */\n              swap4\n              swap3\n              pop\n              pop\n              pop\n              jump\t// out\n                /* \"#utility.yul\":2601:2727   */\n            tag_165:\n                /* \"#utility.yul\":2638:2645   */\n              0x00\n                /* \"#utility.yul\":2678:2720   */\n              0xffffffffffffffffffffffffffffffffffffffff\n                /* \"#utility.yul\":2671:2676   */\n              dup3\n                /* \"#utility.yul\":2667:2721   */\n              and\n                /* \"#utility.yul\":2656:2721   */\n              swap1\n              pop\n                /* \"#utility.yul\":2601:2727   */\n              swap2\n              swap1\n              pop\n              jump\t// out\n                /* \"#utility.yul\":2733:2829   */\n            tag_166:\n                /* \"#utility.yul\":2770:2777   */\n              0x00\n                /* \"#utility.yul\":2799:2823   */\n              tag_233\n                /* \"#utility.yul\":2817:2822   */\n              dup3\n                /* \"#utility.yul\":2799:2823   */\n              tag_165\n              jump\t// in\n            tag_233:\n                /* \"#utility.yul\":2788:2823   */\n              swap1\n              pop\n                /* \"#utility.yul\":2733:2829   */\n              swap2\n              swap1\n              pop\n              jump\t// out\n                /* \"#utility.yul\":2835:2953   */\n            tag_167:\n                /* \"#utility.yul\":2922:2946   */\n              tag_235\n                /* \"#utility.yul\":2940:2945   */\n              dup2\n                /* \"#utility.yul\":2922:2946   */\n              tag_166\n              jump\t// in\n            tag_235:\n                /* \"#utility.yul\":2917:2920   */\n              dup3\n                /* \"#utility.yul\":2910:2947   */\n              mstore\n                /* \"#utility.yul\":2835:2953   */\n              pop\n              pop\n              jump\t// out\n                /* \"#utility.yul\":2959:3181   */\n            tag_25:\n                /* \"#utility.yul\":3052:3056   */\n              0x00\n                /* \"#utility.yul\":3090:3092   */\n              0x20\n                /* \"#utility.yul\":3079:3088   */\n              dup3\n                /* \"#utility.yul\":3075:3093   */\n              add\n                /* \"#utility.yul\":3067:3093   */\n              swap1\n              pop\n                /* \"#utility.yul\":3103:3174   */\n              tag_237\n                /* \"#utility.yul\":3171:3172   */\n              0x00\n                /* \"#utility.yul\":3160:3169   */\n              dup4\n                /* \"#utility.yul\":3156:3173   */\n              add\n                /* \"#utility.yul\":3147:3153   */\n              dup5\n                /* \"#utility.yul\":3103:3174   */\n              tag_167\n              jump\t// in\n            tag_237:\n                /* \"#utility.yul\":2959:3181   */\n              swap3\n              swap2\n              pop\n              pop\n              jump\t// out\n                /* \"#utility.yul\":3187:3309   */\n            tag_168:\n                /* \"#utility.yul\":3260:3284   */\n              tag_239\n                /* \"#utility.yul\":3278:3283   */\n              dup2\n                /* \"#utility.yul\":3260:3284   */\n              tag_166\n              jump\t// in\n            tag_239:\n                /* \"#utility.yul\":3253:3258   */\n              dup2\n                /* \"#utility.yul\":3250:3285   */\n              eq\n                /* \"#utility.yul\":3240:3303   */\n              tag_240\n              jumpi\n                /* \"#utility.yul\":3299:3300   */\n              0x00\n                /* \"#utility.yul\":3296:3297   */\n              dup1\n                /* \"#utility.yul\":3289:3301   */\n              revert\n                /* \"#utility.yul\":3240:3303   */\n            tag_240:\n                /* \"#utility.yul\":3187:3309   */\n              pop\n              jump\t// out\n                /* \"#utility.yul\":3315:3454   */\n            tag_169:\n                /* \"#utility.yul\":3361:3366   */\n              0x00\n                /* \"#utility.yul\":3399:3405   */\n              dup2\n                /* \"#utility.yul\":3386:3406   */\n              calldataload\n                /* \"#utility.yul\":3377:3406   */\n              swap1\n              pop\n                /* \"#utility.yul\":3415:3448   */\n              tag_242\n                /* \"#utility.yul\":3442:3447   */\n              dup2\n                /* \"#utility.yul\":3415:3448   */\n              tag_168\n              jump\t// in\n            tag_242:\n                /* \"#utility.yul\":3315:3454   */\n              swap3\n              swap2\n              pop\n              pop\n              jump\t// out\n                /* \"#utility.yul\":3460:3789   */\n            tag_28:\n                /* \"#utility.yul\":3519:3525   */\n              0x00\n                /* \"#utility.yul\":3568:3570   */\n              0x20\n                /* \"#utility.yul\":3556:3565   */\n              dup3\n                /* \"#utility.yul\":3547:3554   */\n              dup5\n                /* \"#utility.yul\":3543:3566   */\n              sub\n                /* \"#utility.yul\":3539:3571   */\n              slt\n                /* \"#utility.yul\":3536:3655   */\n              iszero\n              tag_244\n              jumpi\n                /* \"#utility.yul\":3574:3653   */\n              tag_245\n              tag_154\n              jump\t// in\n            tag_245:\n                /* \"#utility.yul\":3536:3655   */\n            tag_244:\n                /* \"#utility.yul\":3694:3695   */\n              0x00\n                /* \"#utility.yul\":3719:3772   */\n              tag_246\n                /* \"#utility.yul\":3764:3771   */\n              dup5\n                /* \"#utility.yul\":3755:3761   */\n              dup3\n                /* \"#utility.yul\":3744:3753   */\n              dup6\n                /* \"#utility.yul\":3740:3762   */\n              add\n                /* \"#utility.yul\":3719:3772   */\n              tag_169\n              jump\t// in\n            tag_246:\n                /* \"#utility.yul\":3709:3772   */\n              swap2\n              pop\n                /* \"#utility.yul\":3665:3782   */\n              pop\n                /* \"#utility.yul\":3460:3789   */\n              swap3\n              swap2\n              pop\n              pop\n              jump\t// out\n                /* \"#utility.yul\":3795:3885   */\n            tag_170:\n                /* \"#utility.yul\":3829:3836   */\n              0x00\n                /* \"#utility.yul\":3872:3877   */\n              dup2\n                /* \"#utility.yul\":3865:3878   */\n              iszero\n                /* \"#utility.yul\":3858:3879   */\n              iszero\n                /* \"#utility.yul\":3847:3879   */\n              swap1\n              pop\n                /* \"#utility.yul\":3795:3885   */\n              swap2\n              swap1\n              pop\n              jump\t// out\n                /* \"#utility.yul\":3891:4000   */\n            tag_171:\n                /* \"#utility.yul\":3972:3993   */\n              tag_249\n                /* \"#utility.yul\":3987:3992   */\n              dup2\n                /* \"#utility.yul\":3972:3993   */\n              tag_170\n              jump\t// in\n            tag_249:\n                /* \"#utility.yul\":3967:3970   */\n              dup3\n                /* \"#utility.yul\":3960:3994   */\n              mstore\n                /* \"#utility.yul\":3891:4000   */\n              pop\n              pop\n              jump\t// out\n                /* \"#utility.yul\":4006:4216   */\n            tag_31:\n                /* \"#utility.yul\":4093:4097   */\n              0x00\n                /* \"#utility.yul\":4131:4133   */\n              0x20\n                /* \"#utility.yul\":4120:4129   */\n              dup3\n                /* \"#utility.yul\":4116:4134   */\n              add\n                /* \"#utility.yul\":4108:4134   */\n              swap1\n              pop\n                /* \"#utility.yul\":4144:4209   */\n              tag_251\n                /* \"#utility.yul\":4206:4207   */\n              0x00\n                /* \"#utility.yul\":4195:4204   */\n              dup4\n                /* \"#utility.yul\":4191:4208   */\n              add\n                /* \"#utility.yul\":4182:4188   */\n              dup5\n                /* \"#utility.yul\":4144:4209   */\n              tag_171\n              jump\t// in\n            tag_251:\n                /* \"#utility.yul\":4006:4216   */\n              swap3\n              swap2\n              pop\n              pop\n              jump\t// out\n                /* \"#utility.yul\":4222:4444   */\n            tag_35:\n                /* \"#utility.yul\":4315:4319   */\n              0x00\n                /* \"#utility.yul\":4353:4355   */\n              0x20\n                /* \"#utility.yul\":4342:4351   */\n              dup3\n                /* \"#utility.yul\":4338:4356   */\n              add\n                /* \"#utility.yul\":4330:4356   */\n              swap1\n              pop\n                /* \"#utility.yul\":4366:4437   */\n              tag_253\n                /* \"#utility.yul\":4434:4435   */\n              0x00\n                /* \"#utility.yul\":4423:4432   */\n              dup4\n                /* \"#utility.yul\":4419:4436   */\n              add\n                /* \"#utility.yul\":4410:4416   */\n              dup5\n                /* \"#utility.yul\":4366:4437   */\n              tag_164\n              jump\t// in\n            tag_253:\n                /* \"#utility.yul\":4222:4444   */\n              swap3\n              swap2\n              pop\n              pop\n              jump\t// out\n                /* \"#utility.yul\":4450:4589   */\n            tag_172:\n                /* \"#utility.yul\":4542:4548   */\n              0x00\n                /* \"#utility.yul\":4576:4581   */\n              dup2\n                /* \"#utility.yul\":4570:4582   */\n              mload\n                /* \"#utility.yul\":4560:4582   */\n              swap1\n              pop\n                /* \"#utility.yul\":4450:4589   */\n              swap2\n              swap1\n              pop\n              jump\t// out\n                /* \"#utility.yul\":4595:4804   */\n            tag_173:\n                /* \"#utility.yul\":4719:4730   */\n              0x00\n                /* \"#utility.yul\":4753:4759   */\n              dup3\n                /* \"#utility.yul\":4748:4751   */\n              dup3\n                /* \"#utility.yul\":4741:4760   */\n              mstore\n                /* \"#utility.yul\":4793:4797   */\n              0x20\n                /* \"#utility.yul\":4788:4791   */\n              dup3\n                /* \"#utility.yul\":4784:4798   */\n              add\n                /* \"#utility.yul\":4769:4798   */\n              swap1\n              pop\n                /* \"#utility.yul\":4595:4804   */\n              swap3\n              swap2\n              pop\n              pop\n              jump\t// out\n                /* \"#utility.yul\":4810:4967   */\n            tag_174:\n                /* \"#utility.yul\":4902:4906   */\n              0x00\n                /* \"#utility.yul\":4925:4928   */\n              dup2\n                /* \"#utility.yul\":4917:4928   */\n              swap1\n              pop\n                /* \"#utility.yul\":4955:4959   */\n              0x20\n                /* \"#utility.yul\":4950:4953   */\n              dup3\n                /* \"#utility.yul\":4946:4960   */\n              add\n                /* \"#utility.yul\":4938:4960   */\n              swap1\n              pop\n                /* \"#utility.yul\":4810:4967   */\n              swap2\n              swap1\n              pop\n              jump\t// out\n                /* \"#utility.yul\":4973:5132   */\n            tag_175:\n                /* \"#utility.yul\":5047:5058   */\n              0x00\n                /* \"#utility.yul\":5081:5087   */\n              dup3\n                /* \"#utility.yul\":5076:5079   */\n              dup3\n                /* \"#utility.yul\":5069:5088   */\n              mstore\n                /* \"#utility.yul\":5121:5125   */\n              0x20\n                /* \"#utility.yul\":5116:5119   */\n              dup3\n                /* \"#utility.yul\":5112:5126   */\n              add\n                /* \"#utility.yul\":5097:5126   */\n              swap1\n              pop\n                /* \"#utility.yul\":4973:5132   */\n              swap3\n              swap2\n              pop\n              pop\n              jump\t// out\n                /* \"#utility.yul\":5138:5495   */\n            tag_176:\n                /* \"#utility.yul\":5216:5219   */\n              0x00\n                /* \"#utility.yul\":5244:5283   */\n              tag_259\n                /* \"#utility.yul\":5277:5282   */\n              dup3\n                /* \"#utility.yul\":5244:5283   */\n              tag_159\n              jump\t// in\n            tag_259:\n                /* \"#utility.yul\":5299:5360   */\n              tag_260\n                /* \"#utility.yul\":5353:5359   */\n              dup2\n                /* \"#utility.yul\":5348:5351   */\n              dup6\n                /* \"#utility.yul\":5299:5360   */\n              tag_175\n              jump\t// in\n            tag_260:\n                /* \"#utility.yul\":5292:5360   */\n              swap4\n              pop\n                /* \"#utility.yul\":5369:5434   */\n              tag_261\n                /* \"#utility.yul\":5427:5433   */\n              dup2\n                /* \"#utility.yul\":5422:5425   */\n              dup6\n                /* \"#utility.yul\":5415:5419   */\n              0x20\n                /* \"#utility.yul\":5408:5413   */\n              dup7\n                /* \"#utility.yul\":5404:5420   */\n              add\n                /* \"#utility.yul\":5369:5434   */\n              tag_161\n              jump\t// in\n            tag_261:\n                /* \"#utility.yul\":5459:5488   */\n              tag_262\n                /* \"#utility.yul\":5481:5487   */\n              dup2\n                /* \"#utility.yul\":5459:5488   */\n              tag_162\n              jump\t// in\n            tag_262:\n                /* \"#utility.yul\":5454:5457   */\n              dup5\n                /* \"#utility.yul\":5450:5489   */\n              add\n                /* \"#utility.yul\":5443:5489   */\n              swap2\n              pop\n                /* \"#utility.yul\":5220:5495   */\n              pop\n                /* \"#utility.yul\":5138:5495   */\n              swap3\n              swap2\n              pop\n              pop\n              jump\t// out\n                /* \"#utility.yul\":5501:5609   */\n            tag_177:\n                /* \"#utility.yul\":5578:5602   */\n              tag_264\n                /* \"#utility.yul\":5596:5601   */\n              dup2\n                /* \"#utility.yul\":5578:5602   */\n              tag_156\n              jump\t// in\n            tag_264:\n                /* \"#utility.yul\":5573:5576   */\n              dup3\n                /* \"#utility.yul\":5566:5603   */\n              mstore\n                /* \"#utility.yul\":5501:5609   */\n              pop\n              pop\n              jump\t// out\n                /* \"#utility.yul\":5685:6286   */\n            tag_178:\n                /* \"#utility.yul\":5794:5797   */\n              0x00\n                /* \"#utility.yul\":5830:5834   */\n              0x40\n                /* \"#utility.yul\":5825:5828   */\n              dup4\n                /* \"#utility.yul\":5821:5835   */\n              add\n                /* \"#utility.yul\":5917:5921   */\n              0x00\n                /* \"#utility.yul\":5910:5915   */\n              dup4\n                /* \"#utility.yul\":5906:5922   */\n              add\n                /* \"#utility.yul\":5900:5923   */\n              mload\n                /* \"#utility.yul\":5970:5973   */\n              dup5\n                /* \"#utility.yul\":5964:5968   */\n              dup3\n                /* \"#utility.yul\":5960:5974   */\n              sub\n                /* \"#utility.yul\":5953:5957   */\n              0x00\n                /* \"#utility.yul\":5948:5951   */\n              dup7\n                /* \"#utility.yul\":5944:5958   */\n              add\n                /* \"#utility.yul\":5937:5975   */\n              mstore\n                /* \"#utility.yul\":5996:6069   */\n              tag_266\n                /* \"#utility.yul\":6064:6068   */\n              dup3\n                /* \"#utility.yul\":6050:6062   */\n              dup3\n                /* \"#utility.yul\":5996:6069   */\n              tag_176\n              jump\t// in\n            tag_266:\n                /* \"#utility.yul\":5988:6069   */\n              swap2\n              pop\n                /* \"#utility.yul\":5845:6080   */\n              pop\n                /* \"#utility.yul\":6167:6171   */\n              0x20\n                /* \"#utility.yul\":6160:6165   */\n              dup4\n                /* \"#utility.yul\":6156:6172   */\n              add\n                /* \"#utility.yul\":6150:6173   */\n              mload\n                /* \"#utility.yul\":6186:6249   */\n              tag_267\n                /* \"#utility.yul\":6243:6247   */\n              0x20\n                /* \"#utility.yul\":6238:6241   */\n              dup7\n                /* \"#utility.yul\":6234:6248   */\n              add\n                /* \"#utility.yul\":6220:6232   */\n              dup3\n                /* \"#utility.yul\":6186:6249   */\n              tag_177\n              jump\t// in\n            tag_267:\n                /* \"#utility.yul\":6090:6259   */\n              pop\n                /* \"#utility.yul\":6276:6280   */\n              dup1\n                /* \"#utility.yul\":6269:6280   */\n              swap2\n              pop\n                /* \"#utility.yul\":5799:6286   */\n              pop\n                /* \"#utility.yul\":5685:6286   */\n              swap3\n              swap2\n              pop\n              pop\n              jump\t// out\n                /* \"#utility.yul\":6292:6548   */\n            tag_179:\n                /* \"#utility.yul\":6411:6421   */\n              0x00\n                /* \"#utility.yul\":6446:6542   */\n              tag_269\n                /* \"#utility.yul\":6538:6541   */\n              dup4\n                /* \"#utility.yul\":6530:6536   */\n              dup4\n                /* \"#utility.yul\":6446:6542   */\n              tag_178\n              jump\t// in\n            tag_269:\n                /* \"#utility.yul\":6432:6542   */\n              swap1\n              pop\n                /* \"#utility.yul\":6292:6548   */\n              swap3\n              swap2\n              pop\n              pop\n              jump\t// out\n                /* \"#utility.yul\":6554:6692   */\n            tag_180:\n                /* \"#utility.yul\":6649:6653   */\n              0x00\n                /* \"#utility.yul\":6681:6685   */\n              0x20\n                /* \"#utility.yul\":6676:6679   */\n              dup3\n                /* \"#utility.yul\":6672:6686   */\n              add\n                /* \"#utility.yul\":6664:6686   */\n              swap1\n              pop\n                /* \"#utility.yul\":6554:6692   */\n              swap2\n              swap1\n              pop\n              jump\t// out\n                /* \"#utility.yul\":6772:7883   */\n            tag_181:\n                /* \"#utility.yul\":6941:6944   */\n              0x00\n                /* \"#utility.yul\":6970:7049   */\n              tag_272\n                /* \"#utility.yul\":7043:7048   */\n              dup3\n                /* \"#utility.yul\":6970:7049   */\n              tag_172\n              jump\t// in\n            tag_272:\n                /* \"#utility.yul\":7065:7176   */\n              tag_273\n                /* \"#utility.yul\":7169:7175   */\n              dup2\n                /* \"#utility.yul\":7164:7167   */\n              dup6\n                /* \"#utility.yul\":7065:7176   */\n              tag_173\n              jump\t// in\n            tag_273:\n                /* \"#utility.yul\":7058:7176   */\n              swap4\n              pop\n                /* \"#utility.yul\":7202:7205   */\n              dup4\n                /* \"#utility.yul\":7247:7251   */\n              0x20\n                /* \"#utility.yul\":7239:7245   */\n              dup3\n                /* \"#utility.yul\":7235:7252   */\n              mul\n                /* \"#utility.yul\":7230:7233   */\n              dup6\n                /* \"#utility.yul\":7226:7253   */\n              add\n                /* \"#utility.yul\":7277:7358   */\n              tag_274\n                /* \"#utility.yul\":7352:7357   */\n              dup6\n                /* \"#utility.yul\":7277:7358   */\n              tag_174\n              jump\t// in\n            tag_274:\n                /* \"#utility.yul\":7381:7388   */\n              dup1\n                /* \"#utility.yul\":7412:7413   */\n              0x00\n                /* \"#utility.yul\":7397:7838   */\n            tag_275:\n                /* \"#utility.yul\":7422:7428   */\n              dup6\n                /* \"#utility.yul\":7419:7420   */\n              dup2\n                /* \"#utility.yul\":7416:7429   */\n              lt\n                /* \"#utility.yul\":7397:7838   */\n              iszero\n              tag_277\n              jumpi\n                /* \"#utility.yul\":7493:7502   */\n              dup5\n                /* \"#utility.yul\":7487:7491   */\n              dup5\n                /* \"#utility.yul\":7483:7503   */\n              sub\n                /* \"#utility.yul\":7478:7481   */\n              dup10\n                /* \"#utility.yul\":7471:7504   */\n              mstore\n                /* \"#utility.yul\":7544:7550   */\n              dup2\n                /* \"#utility.yul\":7538:7551   */\n              mload\n                /* \"#utility.yul\":7572:7686   */\n              tag_278\n                /* \"#utility.yul\":7681:7685   */\n              dup6\n                /* \"#utility.yul\":7666:7679   */\n              dup3\n                /* \"#utility.yul\":7572:7686   */\n              tag_179\n              jump\t// in\n            tag_278:\n                /* \"#utility.yul\":7564:7686   */\n              swap5\n              pop\n                /* \"#utility.yul\":7709:7794   */\n              tag_279\n                /* \"#utility.yul\":7787:7793   */\n              dup4\n                /* \"#utility.yul\":7709:7794   */\n              tag_180\n              jump\t// in\n            tag_279:\n                /* \"#utility.yul\":7699:7794   */\n              swap3\n              pop\n                /* \"#utility.yul\":7823:7827   */\n              0x20\n                /* \"#utility.yul\":7818:7821   */\n              dup11\n                /* \"#utility.yul\":7814:7828   */\n              add\n                /* \"#utility.yul\":7807:7828   */\n              swap10\n              pop\n                /* \"#utility.yul\":7457:7838   */\n              pop\n                /* \"#utility.yul\":7444:7445   */\n              0x01\n                /* \"#utility.yul\":7441:7442   */\n              dup2\n                /* \"#utility.yul\":7437:7446   */\n              add\n                /* \"#utility.yul\":7432:7446   */\n              swap1\n              pop\n                /* \"#utility.yul\":7397:7838   */\n              jump(tag_275)\n            tag_277:\n                /* \"#utility.yul\":7401:7415   */\n              pop\n                /* \"#utility.yul\":7854:7858   */\n              dup3\n                /* \"#utility.yul\":7847:7858   */\n              swap8\n              pop\n                /* \"#utility.yul\":7874:7877   */\n              dup8\n                /* \"#utility.yul\":7867:7877   */\n              swap6\n              pop\n                /* \"#utility.yul\":6946:7883   */\n              pop\n              pop\n              pop\n              pop\n              pop\n                /* \"#utility.yul\":6772:7883   */\n              swap3\n              swap2\n              pop\n              pop\n              jump\t// out\n                /* \"#utility.yul\":7889:8362   */\n            tag_39:\n                /* \"#utility.yul\":8082:8086   */\n              0x00\n                /* \"#utility.yul\":8120:8122   */\n              0x20\n                /* \"#utility.yul\":8109:8118   */\n              dup3\n                /* \"#utility.yul\":8105:8123   */\n              add\n                /* \"#utility.yul\":8097:8123   */\n              swap1\n              pop\n                /* \"#utility.yul\":8169:8178   */\n              dup2\n                /* \"#utility.yul\":8163:8167   */\n              dup2\n                /* \"#utility.yul\":8159:8179   */\n              sub\n                /* \"#utility.yul\":8155:8156   */\n              0x00\n                /* \"#utility.yul\":8144:8153   */\n              dup4\n                /* \"#utility.yul\":8140:8157   */\n              add\n                /* \"#utility.yul\":8133:8180   */\n              mstore\n                /* \"#utility.yul\":8197:8355   */\n              tag_281\n                /* \"#utility.yul\":8350:8354   */\n              dup2\n                /* \"#utility.yul\":8341:8347   */\n              dup5\n                /* \"#utility.yul\":8197:8355   */\n              tag_181\n              jump\t// in\n            tag_281:\n                /* \"#utility.yul\":8189:8355   */\n              swap1\n              pop\n                /* \"#utility.yul\":7889:8362   */\n              swap3\n              swap2\n              pop\n              pop\n              jump\t// out\n                /* \"#utility.yul\":8368:8681   */\n            tag_43:\n                /* \"#utility.yul\":8481:8485   */\n              0x00\n                /* \"#utility.yul\":8519:8521   */\n              0x20\n                /* \"#utility.yul\":8508:8517   */\n              dup3\n                /* \"#utility.yul\":8504:8522   */\n              add\n                /* \"#utility.yul\":8496:8522   */\n              swap1\n              pop\n                /* \"#utility.yul\":8568:8577   */\n              dup2\n                /* \"#utility.yul\":8562:8566   */\n              dup2\n                /* \"#utility.yul\":8558:8578   */\n              sub\n                /* \"#utility.yul\":8554:8555   */\n              0x00\n                /* \"#utility.yul\":8543:8552   */\n              dup4\n                /* \"#utility.yul\":8539:8556   */\n              add\n                /* \"#utility.yul\":8532:8579   */\n              mstore\n                /* \"#utility.yul\":8596:8674   */\n              tag_283\n                /* \"#utility.yul\":8669:8673   */\n              dup2\n                /* \"#utility.yul\":8660:8666   */\n              dup5\n                /* \"#utility.yul\":8596:8674   */\n              tag_163\n              jump\t// in\n            tag_283:\n                /* \"#utility.yul\":8588:8674   */\n              swap1\n              pop\n                /* \"#utility.yul\":8368:8681   */\n              swap3\n              swap2\n              pop\n              pop\n              jump\t// out\n                /* \"#utility.yul\":8687:8773   */\n            tag_182:\n                /* \"#utility.yul\":8722:8729   */\n              0x00\n                /* \"#utility.yul\":8762:8766   */\n              0xff\n                /* \"#utility.yul\":8755:8760   */\n              dup3\n                /* \"#utility.yul\":8751:8767   */\n              and\n                /* \"#utility.yul\":8740:8767   */\n              swap1\n              pop\n                /* \"#utility.yul\":8687:8773   */\n              swap2\n              swap1\n              pop\n              jump\t// out\n                /* \"#utility.yul\":8779:8891   */\n            tag_183:\n                /* \"#utility.yul\":8862:8884   */\n              tag_286\n                /* \"#utility.yul\":8878:8883   */\n              dup2\n                /* \"#utility.yul\":8862:8884   */\n              tag_182\n              jump\t// in\n            tag_286:\n                /* \"#utility.yul\":8857:8860   */\n              dup3\n                /* \"#utility.yul\":8850:8885   */\n              mstore\n                /* \"#utility.yul\":8779:8891   */\n              pop\n              pop\n              jump\t// out\n                /* \"#utility.yul\":8897:9529   */\n            tag_54:\n                /* \"#utility.yul\":9086:9090   */\n              0x00\n                /* \"#utility.yul\":9124:9127   */\n              0xa0\n                /* \"#utility.yul\":9113:9122   */\n              dup3\n                /* \"#utility.yul\":9109:9128   */\n              add\n                /* \"#utility.yul\":9101:9128   */\n              swap1\n              pop\n                /* \"#utility.yul\":9138:9203   */\n              tag_288\n                /* \"#utility.yul\":9200:9201   */\n              0x00\n                /* \"#utility.yul\":9189:9198   */\n              dup4\n                /* \"#utility.yul\":9185:9202   */\n              add\n                /* \"#utility.yul\":9176:9182   */\n              dup9\n                /* \"#utility.yul\":9138:9203   */\n              tag_171\n              jump\t// in\n            tag_288:\n                /* \"#utility.yul\":9213:9279   */\n              tag_289\n                /* \"#utility.yul\":9275:9277   */\n              0x20\n                /* \"#utility.yul\":9264:9273   */\n              dup4\n                /* \"#utility.yul\":9260:9278   */\n              add\n                /* \"#utility.yul\":9251:9257   */\n              dup8\n                /* \"#utility.yul\":9213:9279   */\n              tag_171\n              jump\t// in\n            tag_289:\n                /* \"#utility.yul\":9289:9357   */\n              tag_290\n                /* \"#utility.yul\":9353:9355   */\n              0x40\n                /* \"#utility.yul\":9342:9351   */\n              dup4\n                /* \"#utility.yul\":9338:9356   */\n              add\n                /* \"#utility.yul\":9329:9335   */\n              dup7\n                /* \"#utility.yul\":9289:9357   */\n              tag_183\n              jump\t// in\n            tag_290:\n                /* \"#utility.yul\":9367:9439   */\n              tag_291\n                /* \"#utility.yul\":9435:9437   */\n              0x60\n                /* \"#utility.yul\":9424:9433   */\n              dup4\n                /* \"#utility.yul\":9420:9438   */\n              add\n                /* \"#utility.yul\":9411:9417   */\n              dup6\n                /* \"#utility.yul\":9367:9439   */\n              tag_164\n              jump\t// in\n            tag_291:\n                /* \"#utility.yul\":9449:9522   */\n              tag_292\n                /* \"#utility.yul\":9517:9520   */\n              0x80\n                /* \"#utility.yul\":9506:9515   */\n              dup4\n                /* \"#utility.yul\":9502:9521   */\n              add\n                /* \"#utility.yul\":9493:9499   */\n              dup5\n                /* \"#utility.yul\":9449:9522   */\n              tag_167\n              jump\t// in\n            tag_292:\n                /* \"#utility.yul\":8897:9529   */\n              swap7\n              swap6\n              pop\n              pop\n              pop\n              pop\n              pop\n              pop\n              jump\t// out\n                /* \"#utility.yul\":9535:9653   */\n            tag_184:\n                /* \"#utility.yul\":9606:9628   */\n              tag_294\n                /* \"#utility.yul\":9622:9627   */\n              dup2\n                /* \"#utility.yul\":9606:9628   */\n              tag_182\n              jump\t// in\n            tag_294:\n                /* \"#utility.yul\":9599:9604   */\n              dup2\n                /* \"#utility.yul\":9596:9629   */\n              eq\n                /* \"#utility.yul\":9586:9647   */\n              tag_295\n              jumpi\n                /* \"#utility.yul\":9643:9644   */\n              0x00\n                /* \"#utility.yul\":9640:9641   */\n              dup1\n                /* \"#utility.yul\":9633:9645   */\n              revert\n                /* \"#utility.yul\":9586:9647   */\n            tag_295:\n                /* \"#utility.yul\":9535:9653   */\n              pop\n              jump\t// out\n                /* \"#utility.yul\":9659:9794   */\n            tag_185:\n                /* \"#utility.yul\":9703:9708   */\n              0x00\n                /* \"#utility.yul\":9741:9747   */\n              dup2\n                /* \"#utility.yul\":9728:9748   */\n              calldataload\n                /* \"#utility.yul\":9719:9748   */\n              swap1\n              pop\n                /* \"#utility.yul\":9757:9788   */\n              tag_297\n                /* \"#utility.yul\":9782:9787   */\n              dup2\n                /* \"#utility.yul\":9757:9788   */\n              tag_184\n              jump\t// in\n            tag_297:\n                /* \"#utility.yul\":9659:9794   */\n              swap3\n              swap2\n              pop\n              pop\n              jump\t// out\n                /* \"#utility.yul\":9800:10125   */\n            tag_57:\n                /* \"#utility.yul\":9857:9863   */\n              0x00\n                /* \"#utility.yul\":9906:9908   */\n              0x20\n                /* \"#utility.yul\":9894:9903   */\n              dup3\n                /* \"#utility.yul\":9885:9892   */\n              dup5\n                /* \"#utility.yul\":9881:9904   */\n              sub\n                /* \"#utility.yul\":9877:9909   */\n              slt\n                /* \"#utility.yul\":9874:9993   */\n              iszero\n              tag_299\n              jumpi\n                /* \"#utility.yul\":9912:9991   */\n              tag_300\n              tag_154\n              jump\t// in\n            tag_300:\n                /* \"#utility.yul\":9874:9993   */\n            tag_299:\n                /* \"#utility.yul\":10032:10033   */\n              0x00\n                /* \"#utility.yul\":10057:10108   */\n              tag_301\n                /* \"#utility.yul\":10100:10107   */\n              dup5\n                /* \"#utility.yul\":10091:10097   */\n              dup3\n                /* \"#utility.yul\":10080:10089   */\n              dup6\n                /* \"#utility.yul\":10076:10098   */\n              add\n                /* \"#utility.yul\":10057:10108   */\n              tag_185\n              jump\t// in\n            tag_301:\n                /* \"#utility.yul\":10047:10108   */\n              swap2\n              pop\n                /* \"#utility.yul\":10003:10118   */\n              pop\n                /* \"#utility.yul\":9800:10125   */\n              swap3\n              swap2\n              pop\n              pop\n              jump\t// out\n                /* \"#utility.yul\":10131:10311   */\n            tag_186:\n                /* \"#utility.yul\":10179:10256   */\n              0x4e487b7100000000000000000000000000000000000000000000000000000000\n                /* \"#utility.yul\":10176:10177   */\n              0x00\n                /* \"#utility.yul\":10169:10257   */\n              mstore\n                /* \"#utility.yul\":10276:10280   */\n              0x22\n                /* \"#utility.yul\":10273:10274   */\n              0x04\n                /* \"#utility.yul\":10266:10281   */\n              mstore\n                /* \"#utility.yul\":10300:10304   */\n              0x24\n                /* \"#utility.yul\":10297:10298   */\n              0x00\n                /* \"#utility.yul\":10290:10305   */\n              revert\n                /* \"#utility.yul\":10317:10637   */\n            tag_68:\n                /* \"#utility.yul\":10361:10367   */\n              0x00\n                /* \"#utility.yul\":10398:10399   */\n              0x02\n                /* \"#utility.yul\":10392:10396   */\n              dup3\n                /* \"#utility.yul\":10388:10400   */\n              div\n                /* \"#utility.yul\":10378:10400   */\n              swap1\n              pop\n                /* \"#utility.yul\":10445:10446   */\n              0x01\n                /* \"#utility.yul\":10439:10443   */\n              dup3\n                /* \"#utility.yul\":10435:10447   */\n              and\n                /* \"#utility.yul\":10466:10484   */\n              dup1\n                /* \"#utility.yul\":10456:10537   */\n              tag_304\n              jumpi\n                /* \"#utility.yul\":10522:10526   */\n              0x7f\n                /* \"#utility.yul\":10514:10520   */\n              dup3\n                /* \"#utility.yul\":10510:10527   */\n              and\n                /* \"#utility.yul\":10500:10527   */\n              swap2\n              pop\n                /* \"#utility.yul\":10456:10537   */\n            tag_304:\n                /* \"#utility.yul\":10584:10586   */\n              0x20\n                /* \"#utility.yul\":10576:10582   */\n              dup3\n                /* \"#utility.yul\":10573:10587   */\n              lt\n                /* \"#utility.yul\":10553:10571   */\n              dup2\n                /* \"#utility.yul\":10550:10588   */\n              sub\n                /* \"#utility.yul\":10547:10631   */\n              tag_305\n              jumpi\n                /* \"#utility.yul\":10603:10621   */\n              tag_306\n              tag_186\n              jump\t// in\n            tag_306:\n                /* \"#utility.yul\":10547:10631   */\n            tag_305:\n                /* \"#utility.yul\":10368:10637   */\n              pop\n                /* \"#utility.yul\":10317:10637   */\n              swap2\n              swap1\n              pop\n              jump\t// out\n                /* \"#utility.yul\":10643:10814   */\n            tag_187:\n                /* \"#utility.yul\":10783:10806   */\n              0x446561646c696e652068617320657870697265642e0000000000000000000000\n                /* \"#utility.yul\":10779:10780   */\n              0x00\n                /* \"#utility.yul\":10771:10777   */\n              dup3\n                /* \"#utility.yul\":10767:10781   */\n              add\n                /* \"#utility.yul\":10760:10807   */\n              mstore\n                /* \"#utility.yul\":10643:10814   */\n              pop\n              jump\t// out\n                /* \"#utility.yul\":10820:11186   */\n            tag_188:\n                /* \"#utility.yul\":10962:10965   */\n              0x00\n                /* \"#utility.yul\":10983:11050   */\n              tag_309\n                /* \"#utility.yul\":11047:11049   */\n              0x15\n                /* \"#utility.yul\":11042:11045   */\n              dup4\n                /* \"#utility.yul\":10983:11050   */\n              tag_160\n              jump\t// in\n            tag_309:\n                /* \"#utility.yul\":10976:11050   */\n              swap2\n              pop\n                /* \"#utility.yul\":11059:11152   */\n              tag_310\n                /* \"#utility.yul\":11148:11151   */\n              dup3\n                /* \"#utility.yul\":11059:11152   */\n              tag_187\n              jump\t// in\n            tag_310:\n                /* \"#utility.yul\":11177:11179   */\n              0x20\n                /* \"#utility.yul\":11172:11175   */\n              dup3\n                /* \"#utility.yul\":11168:11180   */\n              add\n                /* \"#utility.yul\":11161:11180   */\n              swap1\n              pop\n                /* \"#utility.yul\":10820:11186   */\n              swap2\n              swap1\n              pop\n              jump\t// out\n                /* \"#utility.yul\":11192:11611   */\n            tag_93:\n                /* \"#utility.yul\":11358:11362   */\n              0x00\n                /* \"#utility.yul\":11396:11398   */\n              0x20\n                /* \"#utility.yul\":11385:11394   */\n              dup3\n                /* \"#utility.yul\":11381:11399   */\n              add\n                /* \"#utility.yul\":11373:11399   */\n              swap1\n              pop\n                /* \"#utility.yul\":11445:11454   */\n              dup2\n                /* \"#utility.yul\":11439:11443   */\n              dup2\n                /* \"#utility.yul\":11435:11455   */\n              sub\n                /* \"#utility.yul\":11431:11432   */\n              0x00\n                /* \"#utility.yul\":11420:11429   */\n              dup4\n                /* \"#utility.yul\":11416:11433   */\n              add\n                /* \"#utility.yul\":11409:11456   */\n              mstore\n                /* \"#utility.yul\":11473:11604   */\n              tag_312\n                /* \"#utility.yul\":11599:11603   */\n              dup2\n                /* \"#utility.yul\":11473:11604   */\n              tag_188\n              jump\t// in\n            tag_312:\n                /* \"#utility.yul\":11465:11604   */\n              swap1\n              pop\n                /* \"#utility.yul\":11192:11611   */\n              swap2\n              swap1\n              pop\n              jump\t// out\n                /* \"#utility.yul\":11617:11838   */\n            tag_189:\n                /* \"#utility.yul\":11757:11791   */\n              0x4f6e6c792063726561746f72206861732074686573652070726976696c656765\n                /* \"#utility.yul\":11753:11754   */\n              0x00\n                /* \"#utility.yul\":11745:11751   */\n              dup3\n                /* \"#utility.yul\":11741:11755   */\n              add\n                /* \"#utility.yul\":11734:11792   */\n              mstore\n                /* \"#utility.yul\":11826:11830   */\n              0x732e000000000000000000000000000000000000000000000000000000000000\n                /* \"#utility.yul\":11821:11823   */\n              0x20\n                /* \"#utility.yul\":11813:11819   */\n              dup3\n                /* \"#utility.yul\":11809:11824   */\n              add\n                /* \"#utility.yul\":11802:11831   */\n              mstore\n                /* \"#utility.yul\":11617:11838   */\n              pop\n              jump\t// out\n                /* \"#utility.yul\":11844:12210   */\n            tag_190:\n                /* \"#utility.yul\":11986:11989   */\n              0x00\n                /* \"#utility.yul\":12007:12074   */\n              tag_315\n                /* \"#utility.yul\":12071:12073   */\n              0x22\n                /* \"#utility.yul\":12066:12069   */\n              dup4\n                /* \"#utility.yul\":12007:12074   */\n              tag_160\n              jump\t// in\n            tag_315:\n                /* \"#utility.yul\":12000:12074   */\n              swap2\n              pop\n                /* \"#utility.yul\":12083:12176   */\n              tag_316\n                /* \"#utility.yul\":12172:12175   */\n              dup3\n                /* \"#utility.yul\":12083:12176   */\n              tag_189\n              jump\t// in\n            tag_316:\n                /* \"#utility.yul\":12201:12203   */\n              0x40\n                /* \"#utility.yul\":12196:12199   */\n              dup3\n                /* \"#utility.yul\":12192:12204   */\n              add\n                /* \"#utility.yul\":12185:12204   */\n              swap1\n              pop\n                /* \"#utility.yul\":11844:12210   */\n              swap2\n              swap1\n              pop\n              jump\t// out\n                /* \"#utility.yul\":12216:12635   */\n            tag_97:\n                /* \"#utility.yul\":12382:12386   */\n              0x00\n                /* \"#utility.yul\":12420:12422   */\n              0x20\n                /* \"#utility.yul\":12409:12418   */\n              dup3\n                /* \"#utility.yul\":12405:12423   */\n              add\n                /* \"#utility.yul\":12397:12423   */\n              swap1\n              pop\n                /* \"#utility.yul\":12469:12478   */\n              dup2\n                /* \"#utility.yul\":12463:12467   */\n              dup2\n                /* \"#utility.yul\":12459:12479   */\n              sub\n                /* \"#utility.yul\":12455:12456   */\n              0x00\n                /* \"#utility.yul\":12444:12453   */\n              dup4\n                /* \"#utility.yul\":12440:12457   */\n              add\n                /* \"#utility.yul\":12433:12480   */\n              mstore\n                /* \"#utility.yul\":12497:12628   */\n              tag_318\n                /* \"#utility.yul\":12623:12627   */\n              dup2\n                /* \"#utility.yul\":12497:12628   */\n              tag_190\n              jump\t// in\n            tag_318:\n                /* \"#utility.yul\":12489:12628   */\n              swap1\n              pop\n                /* \"#utility.yul\":12216:12635   */\n              swap2\n              swap1\n              pop\n              jump\t// out\n                /* \"#utility.yul\":12641:12823   */\n            tag_191:\n                /* \"#utility.yul\":12781:12815   */\n              0x566f7465722068617320616c726561647920726967687420746f20766f74652e\n                /* \"#utility.yul\":12777:12778   */\n              0x00\n                /* \"#utility.yul\":12769:12775   */\n              dup3\n                /* \"#utility.yul\":12765:12779   */\n              add\n                /* \"#utility.yul\":12758:12816   */\n              mstore\n                /* \"#utility.yul\":12641:12823   */\n              pop\n              jump\t// out\n                /* \"#utility.yul\":12829:13195   */\n            tag_192:\n                /* \"#utility.yul\":12971:12974   */\n              0x00\n                /* \"#utility.yul\":12992:13059   */\n              tag_321\n                /* \"#utility.yul\":13056:13058   */\n              0x20\n                /* \"#utility.yul\":13051:13054   */\n              dup4\n                /* \"#utility.yul\":12992:13059   */\n              tag_160\n              jump\t// in\n            tag_321:\n                /* \"#utility.yul\":12985:13059   */\n              swap2\n              pop\n                /* \"#utility.yul\":13068:13161   */\n              tag_322\n                /* \"#utility.yul\":13157:13160   */\n              dup3\n                /* \"#utility.yul\":13068:13161   */\n              tag_191\n              jump\t// in\n            tag_322:\n                /* \"#utility.yul\":13186:13188   */\n              0x20\n                /* \"#utility.yul\":13181:13184   */\n              dup3\n                /* \"#utility.yul\":13177:13189   */\n              add\n                /* \"#utility.yul\":13170:13189   */\n              swap1\n              pop\n                /* \"#utility.yul\":12829:13195   */\n              swap2\n              swap1\n              pop\n              jump\t// out\n                /* \"#utility.yul\":13201:13620   */\n            tag_101:\n                /* \"#utility.yul\":13367:13371   */\n              0x00\n                /* \"#utility.yul\":13405:13407   */\n              0x20\n                /* \"#utility.yul\":13394:13403   */\n              dup3\n                /* \"#utility.yul\":13390:13408   */\n              add\n                /* \"#utility.yul\":13382:13408   */\n              swap1\n              pop\n                /* \"#utility.yul\":13454:13463   */\n              dup2\n                /* \"#utility.yul\":13448:13452   */\n              dup2\n                /* \"#utility.yul\":13444:13464   */\n              sub\n                /* \"#utility.yul\":13440:13441   */\n              0x00\n                /* \"#utility.yul\":13429:13438   */\n              dup4\n                /* \"#utility.yul\":13425:13442   */\n              add\n                /* \"#utility.yul\":13418:13465   */\n              mstore\n                /* \"#utility.yul\":13482:13613   */\n              tag_324\n                /* \"#utility.yul\":13608:13612   */\n              dup2\n                /* \"#utility.yul\":13482:13613   */\n              tag_192\n              jump\t// in\n            tag_324:\n                /* \"#utility.yul\":13474:13613   */\n              swap1\n              pop\n                /* \"#utility.yul\":13201:13620   */\n              swap2\n              swap1\n              pop\n              jump\t// out\n                /* \"#utility.yul\":13626:13805   */\n            tag_193:\n                /* \"#utility.yul\":13766:13797   */\n              0x546869732070726f706f73616c20646f6573206e6f742065786973742e000000\n                /* \"#utility.yul\":13762:13763   */\n              0x00\n                /* \"#utility.yul\":13754:13760   */\n              dup3\n                /* \"#utility.yul\":13750:13764   */\n              add\n                /* \"#utility.yul\":13743:13798   */\n              mstore\n                /* \"#utility.yul\":13626:13805   */\n              pop\n              jump\t// out\n                /* \"#utility.yul\":13811:14177   */\n            tag_194:\n                /* \"#utility.yul\":13953:13956   */\n              0x00\n                /* \"#utility.yul\":13974:14041   */\n              tag_327\n                /* \"#utility.yul\":14038:14040   */\n              0x1d\n                /* \"#utility.yul\":14033:14036   */\n              dup4\n                /* \"#utility.yul\":13974:14041   */\n              tag_160\n              jump\t// in\n            tag_327:\n                /* \"#utility.yul\":13967:14041   */\n              swap2\n              pop\n                /* \"#utility.yul\":14050:14143   */\n              tag_328\n                /* \"#utility.yul\":14139:14142   */\n              dup3\n                /* \"#utility.yul\":14050:14143   */\n              tag_193\n              jump\t// in\n            tag_328:\n                /* \"#utility.yul\":14168:14170   */\n              0x20\n                /* \"#utility.yul\":14163:14166   */\n              dup3\n                /* \"#utility.yul\":14159:14171   */\n              add\n                /* \"#utility.yul\":14152:14171   */\n              swap1\n              pop\n                /* \"#utility.yul\":13811:14177   */\n              swap2\n              swap1\n              pop\n              jump\t// out\n                /* \"#utility.yul\":14183:14602   */\n            tag_110:\n                /* \"#utility.yul\":14349:14353   */\n              0x00\n                /* \"#utility.yul\":14387:14389   */\n              0x20\n                /* \"#utility.yul\":14376:14385   */\n              dup3\n                /* \"#utility.yul\":14372:14390   */\n              add\n                /* \"#utility.yul\":14364:14390   */\n              swap1\n              pop\n                /* \"#utility.yul\":14436:14445   */\n              dup2\n                /* \"#utility.yul\":14430:14434   */\n              dup2\n                /* \"#utility.yul\":14426:14446   */\n              sub\n                /* \"#utility.yul\":14422:14423   */\n              0x00\n                /* \"#utility.yul\":14411:14420   */\n              dup4\n                /* \"#utility.yul\":14407:14424   */\n              add\n                /* \"#utility.yul\":14400:14447   */\n              mstore\n                /* \"#utility.yul\":14464:14595   */\n              tag_330\n                /* \"#utility.yul\":14590:14594   */\n              dup2\n                /* \"#utility.yul\":14464:14595   */\n              tag_194\n              jump\t// in\n            tag_330:\n                /* \"#utility.yul\":14456:14595   */\n              swap1\n              pop\n                /* \"#utility.yul\":14183:14602   */\n              swap2\n              swap1\n              pop\n              jump\t// out\n                /* \"#utility.yul\":14608:14779   */\n            tag_195:\n                /* \"#utility.yul\":14748:14771   */\n              0x486173206e6f20726967687420746f20766f74652e0000000000000000000000\n                /* \"#utility.yul\":14744:14745   */\n              0x00\n                /* \"#utility.yul\":14736:14742   */\n              dup3\n                /* \"#utility.yul\":14732:14746   */\n              add\n                /* \"#utility.yul\":14725:14772   */\n              mstore\n                /* \"#utility.yul\":14608:14779   */\n              pop\n              jump\t// out\n                /* \"#utility.yul\":14785:15151   */\n            tag_196:\n                /* \"#utility.yul\":14927:14930   */\n              0x00\n                /* \"#utility.yul\":14948:15015   */\n              tag_333\n                /* \"#utility.yul\":15012:15014   */\n              0x15\n                /* \"#utility.yul\":15007:15010   */\n              dup4\n                /* \"#utility.yul\":14948:15015   */\n              tag_160\n              jump\t// in\n            tag_333:\n                /* \"#utility.yul\":14941:15015   */\n              swap2\n              pop\n                /* \"#utility.yul\":15024:15117   */\n              tag_334\n                /* \"#utility.yul\":15113:15116   */\n              dup3\n                /* \"#utility.yul\":15024:15117   */\n              tag_195\n              jump\t// in\n            tag_334:\n                /* \"#utility.yul\":15142:15144   */\n              0x20\n                /* \"#utility.yul\":15137:15140   */\n              dup3\n                /* \"#utility.yul\":15133:15145   */\n              add\n                /* \"#utility.yul\":15126:15145   */\n              swap1\n              pop\n                /* \"#utility.yul\":14785:15151   */\n              swap2\n              swap1\n              pop\n              jump\t// out\n                /* \"#utility.yul\":15157:15576   */\n            tag_114:\n                /* \"#utility.yul\":15323:15327   */\n              0x00\n                /* \"#utility.yul\":15361:15363   */\n              0x20\n                /* \"#utility.yul\":15350:15359   */\n              dup3\n                /* \"#utility.yul\":15346:15364   */\n              add\n                /* \"#utility.yul\":15338:15364   */\n              swap1\n              pop\n                /* \"#utility.yul\":15410:15419   */\n              dup2\n                /* \"#utility.yul\":15404:15408   */\n              dup2\n                /* \"#utility.yul\":15400:15420   */\n              sub\n                /* \"#utility.yul\":15396:15397   */\n              0x00\n                /* \"#utility.yul\":15385:15394   */\n              dup4\n                /* \"#utility.yul\":15381:15398   */\n              add\n                /* \"#utility.yul\":15374:15421   */\n              mstore\n                /* \"#utility.yul\":15438:15569   */\n              tag_336\n                /* \"#utility.yul\":15564:15568   */\n              dup2\n                /* \"#utility.yul\":15438:15569   */\n              tag_196\n              jump\t// in\n            tag_336:\n                /* \"#utility.yul\":15430:15569   */\n              swap1\n              pop\n                /* \"#utility.yul\":15157:15576   */\n              swap2\n              swap1\n              pop\n              jump\t// out\n                /* \"#utility.yul\":15582:15746   */\n            tag_197:\n                /* \"#utility.yul\":15722:15738   */\n              0x416c726561647920766f7465642e000000000000000000000000000000000000\n                /* \"#utility.yul\":15718:15719   */\n              0x00\n                /* \"#utility.yul\":15710:15716   */\n              dup3\n                /* \"#utility.yul\":15706:15720   */\n              add\n                /* \"#utility.yul\":15699:15739   */\n              mstore\n                /* \"#utility.yul\":15582:15746   */\n              pop\n              jump\t// out\n                /* \"#utility.yul\":15752:16118   */\n            tag_198:\n                /* \"#utility.yul\":15894:15897   */\n              0x00\n                /* \"#utility.yul\":15915:15982   */\n              tag_339\n                /* \"#utility.yul\":15979:15981   */\n              0x0e\n                /* \"#utility.yul\":15974:15977   */\n              dup4\n                /* \"#utility.yul\":15915:15982   */\n              tag_160\n              jump\t// in\n            tag_339:\n                /* \"#utility.yul\":15908:15982   */\n              swap2\n              pop\n                /* \"#utility.yul\":15991:16084   */\n              tag_340\n                /* \"#utility.yul\":16080:16083   */\n              dup3\n                /* \"#utility.yul\":15991:16084   */\n              tag_197\n              jump\t// in\n            tag_340:\n                /* \"#utility.yul\":16109:16111   */\n              0x20\n                /* \"#utility.yul\":16104:16107   */\n              dup3\n                /* \"#utility.yul\":16100:16112   */\n              add\n                /* \"#utility.yul\":16093:16112   */\n              swap1\n              pop\n                /* \"#utility.yul\":15752:16118   */\n              swap2\n              swap1\n              pop\n              jump\t// out\n                /* \"#utility.yul\":16124:16543   */\n            tag_117:\n                /* \"#utility.yul\":16290:16294   */\n              0x00\n                /* \"#utility.yul\":16328:16330   */\n              0x20\n                /* \"#utility.yul\":16317:16326   */\n              dup3\n                /* \"#utility.yul\":16313:16331   */\n              add\n                /* \"#utility.yul\":16305:16331   */\n              swap1\n              pop\n                /* \"#utility.yul\":16377:16386   */\n              dup2\n                /* \"#utility.yul\":16371:16375   */\n              dup2\n                /* \"#utility.yul\":16367:16387   */\n              sub\n                /* \"#utility.yul\":16363:16364   */\n              0x00\n                /* \"#utility.yul\":16352:16361   */\n              dup4\n                /* \"#utility.yul\":16348:16365   */\n              add\n                /* \"#utility.yul\":16341:16388   */\n              mstore\n                /* \"#utility.yul\":16405:16536   */\n              tag_342\n                /* \"#utility.yul\":16531:16535   */\n              dup2\n                /* \"#utility.yul\":16405:16536   */\n              tag_198\n              jump\t// in\n            tag_342:\n                /* \"#utility.yul\":16397:16536   */\n              swap1\n              pop\n                /* \"#utility.yul\":16124:16543   */\n              swap2\n              swap1\n              pop\n              jump\t// out\n                /* \"#utility.yul\":16549:16729   */\n            tag_120:\n                /* \"#utility.yul\":16597:16674   */\n              0x4e487b7100000000000000000000000000000000000000000000000000000000\n                /* \"#utility.yul\":16594:16595   */\n              0x00\n                /* \"#utility.yul\":16587:16675   */\n              mstore\n                /* \"#utility.yul\":16694:16698   */\n              0x32\n                /* \"#utility.yul\":16691:16692   */\n              0x04\n                /* \"#utility.yul\":16684:16699   */\n              mstore\n                /* \"#utility.yul\":16718:16722   */\n              0x24\n                /* \"#utility.yul\":16715:16716   */\n              0x00\n                /* \"#utility.yul\":16708:16723   */\n              revert\n                /* \"#utility.yul\":16735:16915   */\n            tag_199:\n                /* \"#utility.yul\":16783:16860   */\n              0x4e487b7100000000000000000000000000000000000000000000000000000000\n                /* \"#utility.yul\":16780:16781   */\n              0x00\n                /* \"#utility.yul\":16773:16861   */\n              mstore\n                /* \"#utility.yul\":16880:16884   */\n              0x11\n                /* \"#utility.yul\":16877:16878   */\n              0x04\n                /* \"#utility.yul\":16870:16885   */\n              mstore\n                /* \"#utility.yul\":16904:16908   */\n              0x24\n                /* \"#utility.yul\":16901:16902   */\n              0x00\n                /* \"#utility.yul\":16894:16909   */\n              revert\n                /* \"#utility.yul\":16921:17154   */\n            tag_123:\n                /* \"#utility.yul\":16960:16963   */\n              0x00\n                /* \"#utility.yul\":16983:17007   */\n              tag_346\n                /* \"#utility.yul\":17001:17006   */\n              dup3\n                /* \"#utility.yul\":16983:17007   */\n              tag_156\n              jump\t// in\n            tag_346:\n                /* \"#utility.yul\":16974:17007   */\n              swap2\n              pop\n                /* \"#utility.yul\":17029:17095   */\n              0xffffffffffffffffffffffffffffffffffffffffffffffffffffffffffffffff\n                /* \"#utility.yul\":17022:17027   */\n              dup3\n                /* \"#utility.yul\":17019:17096   */\n              sub\n                /* \"#utility.yul\":17016:17119   */\n              tag_347\n              jumpi\n                /* \"#utility.yul\":17099:17117   */\n              tag_348\n              tag_199\n              jump\t// in\n            tag_348:\n                /* \"#utility.yul\":17016:17119   */\n            tag_347:\n                /* \"#utility.yul\":17146:17147   */\n              0x01\n                /* \"#utility.yul\":17139:17144   */\n              dup3\n                /* \"#utility.yul\":17135:17148   */\n              add\n                /* \"#utility.yul\":17128:17148   */\n              swap1\n              pop\n                /* \"#utility.yul\":16921:17154   */\n              swap2\n              swap1\n              pop\n              jump\t// out\n                /* \"#utility.yul\":17160:17327   */\n            tag_152:\n                /* \"#utility.yul\":17197:17200   */\n              0x00\n                /* \"#utility.yul\":17220:17242   */\n              tag_350\n                /* \"#utility.yul\":17236:17241   */\n              dup3\n                /* \"#utility.yul\":17220:17242   */\n              tag_182\n              jump\t// in\n            tag_350:\n                /* \"#utility.yul\":17211:17242   */\n              swap2\n              pop\n                /* \"#utility.yul\":17264:17268   */\n              0xff\n                /* \"#utility.yul\":17257:17262   */\n              dup3\n                /* \"#utility.yul\":17254:17269   */\n              sub\n                /* \"#utility.yul\":17251:17292   */\n              tag_351\n              jumpi\n                /* \"#utility.yul\":17272:17290   */\n              tag_352\n              tag_199\n              jump\t// in\n            tag_352:\n                /* \"#utility.yul\":17251:17292   */\n            tag_351:\n                /* \"#utility.yul\":17319:17320   */\n              0x01\n                /* \"#utility.yul\":17312:17317   */\n              dup3\n                /* \"#utility.yul\":17308:17321   */\n              add\n                /* \"#utility.yul\":17301:17321   */\n              swap1\n              pop\n                /* \"#utility.yul\":17160:17327   */\n              swap2\n              swap1\n              pop\n              jump\t// out\n\n            auxdata: 0xa2646970667358221220809d5ba7a241627ed7437888e9d35cace5f6dcb63e27cbb444232867d651e66e64736f6c63430008140033\n        }\n    }\n\n    auxdata: 0xa2646970667358221220d2eca11435979c254960a07db4ea7386ba5c96339a72ce376ba8bb0a6b05194864736f6c63430008140033\n}\n","bytecode":{"linkReferences":{},"object":"608060405234801561000f575f80fd5b50615c838061001d5f395ff3fe608060405234801562000010575f80fd5b50600436106200009e575f3560e01c8063939c442e116200006d578063939c442e146200013c5780639e01dfbb146200015c578063ac2f00741462000194578063cd53d08e14620001ca578063f81cd4b01462000200576200009e565b80633a5ed89314620000a257806363a9492f14620000c257806377b085a214620000e4578063791acbb71462000106575b5f80fd5b620000c06004803603810190620000ba919062001378565b62000220565b005b620000cc620002d2565b604051620000db919062001580565b60405180910390f35b620000ee62000496565b604051620000fd919062001845565b60405180910390f35b6200012460048036038101906200011e9190620018a9565b62000713565b6040516200013391906200191e565b60405180910390f35b6200015a600480360381019062000154919062001378565b62000748565b005b6200017a600480360381019062000174919062001939565b620007fa565b6040516200018b939291906200197a565b60405180910390f35b620001b26004803603810190620001ac9190620019b5565b6200082c565b604051620001c19190620019f6565b60405180910390f35b620001e86004803603810190620001e29190620019b5565b62000867565b604051620001f7919062001a22565b60405180910390f35b6200021e600480360381019062000218919062001a78565b620008a3565b005b5f3385858585604051620002349062001094565b6200024495949392919062001bd6565b604051809103905ff0801580156200025e573d5f803e3d5ffd5b5090505f81908060018154018082558091505060019003905f5260205f20015f9091909190916101000a81548173ffffffffffffffffffffffffffffffffffffffff021916908373ffffffffffffffffffffffffffffffffffffffff160217905550620002cb3362000bdf565b5050505050565b60605f808054905067ffffffffffffffff811115620002f657620002f562001108565b5b604051908082528060200260200182016040528015620003255781602001602082028036833780820191505090505b5090505f5b5f805490508110156200048e575f81815481106200034d576200034c62001c46565b5b905f5260205f20015f9054906101000a900473ffffffffffffffffffffffffffffffffffffffff1673ffffffffffffffffffffffffffffffffffffffff16639145a7fc6040518163ffffffff1660e01b8152600401602060405180830381865afa158015620003be573d5f803e3d5ffd5b505050506040513d601f19601f82011682018060405250810190620003e4919062001ca2565b62000478575f8181548110620003ff57620003fe62001c46565b5b905f5260205f20015f9054906101000a900473ffffffffffffffffffffffffffffffffffffffff168282815181106200043d576200043c62001c46565b5b602002602001019073ffffffffffffffffffffffffffffffffffffffff16908173ffffffffffffffffffffffffffffffffffffffff16815250505b8080620004859062001cff565b9150506200032a565b508091505090565b60605f808054905067ffffffffffffffff811115620004ba57620004b962001108565b5b604051908082528060200260200182016040528015620004f757816020015b620004e3620010a2565b815260200190600190039081620004d95790505b5090505f5b5f805490508110156200070b575f81815481106200051f576200051e62001c46565b5b905f5260205f20015f9054906101000a900473ffffffffffffffffffffffffffffffffffffffff1673ffffffffffffffffffffffffffffffffffffffff16639145a7fc6040518163ffffffff1660e01b8152600401602060405180830381865afa15801562000590573d5f803e3d5ffd5b505050506040513d601f19601f82011682018060405250810190620005b6919062001ca2565b15620006f55760405180604001604052805f8381548110620005dd57620005dc62001c46565b5b905f5260205f20015f9054906101000a900473ffffffffffffffffffffffffffffffffffffffff1673ffffffffffffffffffffffffffffffffffffffff1681526020015f838154811062000636576200063562001c46565b5b905f5260205f20015f9054906101000a900473ffffffffffffffffffffffffffffffffffffffff1673ffffffffffffffffffffffffffffffffffffffff16634717f97c6040518163ffffffff1660e01b81526004015f60405180830381865afa158015620006a6573d5f803e3d5ffd5b505050506040513d5f823e3d601f19601f82011682018060405250810190620006d0919062001f4e565b815250828281518110620006e957620006e862001c46565b5b60200260200101819052505b8080620007029062001cff565b915050620004fc565b508091505090565b6003602052825f5260405f20602052815f5260405f20602052805f5260405f205f92509250509054906101000a900460ff1681565b5f33858585856040516200075c90620010d1565b6200076c95949392919062001bd6565b604051809103905ff08015801562000786573d5f803e3d5ffd5b5090505f81908060018154018082558091505060019003905f5260205f20015f9091909190916101000a81548173ffffffffffffffffffffffffffffffffffffffff021916908373ffffffffffffffffffffffffffffffffffffffff160217905550620007f33362000bdf565b5050505050565b6002602052805f5260405f205f91509050805f015f9054906101000a900460ff16908060010154908060020154905083565b5f81815481106200083b575f80fd5b905f5260205f20015f915054906101000a900473ffffffffffffffffffffffffffffffffffffffff1681565b6001818154811062000877575f80fd5b905f5260205f20015f915054906101000a900473ffffffffffffffffffffffffffffffffffffffff1681565b81620008af8162000ceb565b620008f1576040517f08c379a0000000000000000000000000000000000000000000000000000000008152600401620008e89062001feb565b60405180910390fd5b5f8260ff1611801562000907575060068260ff16105b62000910575f80fd5b600160035f8573ffffffffffffffffffffffffffffffffffffffff166302d05d3f6040518163ffffffff1660e01b8152600401602060405180830381865afa1580156200095f573d5f803e3d5ffd5b505050506040513d601f19601f8201168201806040525081019062000985919062002021565b73ffffffffffffffffffffffffffffffffffffffff1673ffffffffffffffffffffffffffffffffffffffff1681526020019081526020015f205f8573ffffffffffffffffffffffffffffffffffffffff1673ffffffffffffffffffffffffffffffffffffffff1681526020019081526020015f205f3373ffffffffffffffffffffffffffffffffffffffff1673ffffffffffffffffffffffffffffffffffffffff1681526020019081526020015f205f6101000a81548160ff0219169083151502179055508160ff1660025f8573ffffffffffffffffffffffffffffffffffffffff166302d05d3f6040518163ffffffff1660e01b8152600401602060405180830381865afa15801562000a9b573d5f803e3d5ffd5b505050506040513d601f19601f8201168201806040525081019062000ac1919062002021565b73ffffffffffffffffffffffffffffffffffffffff1673ffffffffffffffffffffffffffffffffffffffff1681526020019081526020015f206001015f82825462000b0d919062002051565b9250508190555060025f8473ffffffffffffffffffffffffffffffffffffffff166302d05d3f6040518163ffffffff1660e01b8152600401602060405180830381865afa15801562000b61573d5f803e3d5ffd5b505050506040513d601f19601f8201168201806040525081019062000b87919062002021565b73ffffffffffffffffffffffffffffffffffffffff1673ffffffffffffffffffffffffffffffffffffffff1681526020019081526020015f206002015f81548092919062000bd59062001cff565b9190505550505050565b60025f8273ffffffffffffffffffffffffffffffffffffffff1673ffffffffffffffffffffffffffffffffffffffff1681526020019081526020015f205f015f9054906101000a900460ff1662000ce857600160025f8373ffffffffffffffffffffffffffffffffffffffff1673ffffffffffffffffffffffffffffffffffffffff1681526020019081526020015f205f015f6101000a81548160ff021916908315150217905550600181908060018154018082558091505060019003905f5260205f20015f9091909190916101000a81548173ffffffffffffffffffffffffffffffffffffffff021916908373ffffffffffffffffffffffffffffffffffffffff1602179055505b50565b5f3373ffffffffffffffffffffffffffffffffffffffff168273ffffffffffffffffffffffffffffffffffffffff166302d05d3f6040518163ffffffff1660e01b8152600401602060405180830381865afa15801562000d4d573d5f803e3d5ffd5b505050506040513d601f19601f8201168201806040525081019062000d73919062002021565b73ffffffffffffffffffffffffffffffffffffffff16148062000e4e575060025f8373ffffffffffffffffffffffffffffffffffffffff166302d05d3f6040518163ffffffff1660e01b8152600401602060405180830381865afa15801562000dde573d5f803e3d5ffd5b505050506040513d601f19601f8201168201806040525081019062000e04919062002021565b73ffffffffffffffffffffffffffffffffffffffff1673ffffffffffffffffffffffffffffffffffffffff1681526020019081526020015f205f015f9054906101000a900460ff16155b8062000ed457508173ffffffffffffffffffffffffffffffffffffffff166309eef43e336040518263ffffffff1660e01b815260040162000e90919062001a22565b602060405180830381865afa15801562000eac573d5f803e3d5ffd5b505050506040513d601f19601f8201168201806040525081019062000ed2919062001ca2565b155b8062000f4d57508173ffffffffffffffffffffffffffffffffffffffff16639145a7fc6040518163ffffffff1660e01b8152600401602060405180830381865afa15801562000f25573d5f803e3d5ffd5b505050506040513d601f19601f8201168201806040525081019062000f4b919062001ca2565b155b1562000f5c575f90506200108f565b60035f8373ffffffffffffffffffffffffffffffffffffffff166302d05d3f6040518163ffffffff1660e01b8152600401602060405180830381865afa15801562000fa9573d5f803e3d5ffd5b505050506040513d601f19601f8201168201806040525081019062000fcf919062002021565b73ffffffffffffffffffffffffffffffffffffffff1673ffffffffffffffffffffffffffffffffffffffff1681526020019081526020015f205f8373ffffffffffffffffffffffffffffffffffffffff1673ffffffffffffffffffffffffffffffffffffffff1681526020019081526020015f205f3373ffffffffffffffffffffffffffffffffffffffff1673ffffffffffffffffffffffffffffffffffffffff1681526020019081526020015f205f9054906101000a900460ff161590505b919050565b611e61806200208c83390190565b60405180604001604052805f73ffffffffffffffffffffffffffffffffffffffff168152602001606081525090565b611d618062003eed83390190565b5f604051905090565b5f80fd5b5f80fd5b5f80fd5b5f80fd5b5f601f19601f8301169050919050565b7f4e487b71000000000000000000000000000000000000000000000000000000005f52604160045260245ffd5b6200114082620010f8565b810181811067ffffffffffffffff8211171562001162576200116162001108565b5b80604052505050565b5f62001176620010df565b905062001184828262001135565b919050565b5f67ffffffffffffffff821115620011a657620011a562001108565b5b620011b182620010f8565b9050602081019050919050565b828183375f83830152505050565b5f620011e2620011dc8462001189565b6200116b565b905082815260208101848484011115620012015762001200620010f4565b5b6200120e848285620011be565b509392505050565b5f82601f8301126200122d576200122c620010f0565b5b81356200123f848260208601620011cc565b91505092915050565b5f67ffffffffffffffff82111562001265576200126462001108565b5b602082029050602081019050919050565b5f80fd5b5f620012906200128a8462001248565b6200116b565b90508083825260208201905060208402830185811115620012b657620012b562001276565b5b835b818110156200130457803567ffffffffffffffff811115620012df57620012de620010f0565b5b808601620012ee898262001216565b85526020850194505050602081019050620012b8565b5050509392505050565b5f82601f830112620013255762001324620010f0565b5b8135620013378482602086016200127a565b91505092915050565b5f819050919050565b620013548162001340565b81146200135f575f80fd5b50565b5f81359050620013728162001349565b92915050565b5f805f8060808587031215620013935762001392620010e8565b5b5f85013567ffffffffffffffff811115620013b357620013b2620010ec565b5b620013c18782880162001216565b945050602085013567ffffffffffffffff811115620013e557620013e4620010ec565b5b620013f38782880162001216565b935050604085013567ffffffffffffffff811115620014175762001416620010ec565b5b62001425878288016200130e565b9250506060620014388782880162001362565b91505092959194509250565b5f81519050919050565b5f82825260208201905092915050565b5f819050602082019050919050565b5f73ffffffffffffffffffffffffffffffffffffffff82169050919050565b5f819050919050565b5f620014b5620014af620014a9846200146d565b6200148c565b6200146d565b9050919050565b5f620014c88262001495565b9050919050565b5f620014db82620014bc565b9050919050565b620014ed81620014cf565b82525050565b5f620015008383620014e2565b60208301905092915050565b5f602082019050919050565b5f620015248262001444565b6200153081856200144e565b93506200153d836200145e565b805f5b8381101562001573578151620015578882620014f3565b975062001564836200150c565b92505060018101905062001540565b5085935050505092915050565b5f6020820190508181035f8301526200159a818462001518565b905092915050565b5f81519050919050565b5f82825260208201905092915050565b5f819050602082019050919050565b5f81519050919050565b5f82825260208201905092915050565b5f819050602082019050919050565b5f81519050919050565b5f82825260208201905092915050565b5f5b838110156200162d57808201518184015260208101905062001610565b5f8484015250505050565b5f6200164482620015f4565b620016508185620015fe565b9350620016628185602086016200160e565b6200166d81620010f8565b840191505092915050565b620016838162001340565b82525050565b5f604083015f8301518482035f860152620016a5828262001638565b9150506020830151620016bc602086018262001678565b508091505092915050565b5f620016d4838362001689565b905092915050565b5f602082019050919050565b5f620016f482620015cb565b620017008185620015d5565b9350836020820285016200171485620015e5565b805f5b85811015620017555784840389528151620017338582620016c7565b94506200174083620016dc565b925060208a0199505060018101905062001717565b50829750879550505050505092915050565b5f604083015f8301516200177e5f860182620014e2565b5060208301518482036020860152620017988282620016e8565b9150508091505092915050565b5f620017b2838362001767565b905092915050565b5f602082019050919050565b5f620017d282620015a2565b620017de8185620015ac565b935083602082028501620017f285620015bc565b805f5b85811015620018335784840389528151620018118582620017a5565b94506200181e83620017ba565b925060208a01995050600181019050620017f5565b50829750879550505050505092915050565b5f6020820190508181035f8301526200185f8184620017c6565b905092915050565b5f62001873826200146d565b9050919050565b620018858162001867565b811462001890575f80fd5b50565b5f81359050620018a3816200187a565b92915050565b5f805f60608486031215620018c357620018c2620010e8565b5b5f620018d28682870162001893565b9350506020620018e58682870162001893565b9250506040620018f88682870162001893565b9150509250925092565b5f8115159050919050565b620019188162001902565b82525050565b5f602082019050620019335f8301846200190d565b92915050565b5f60208284031215620019515762001950620010e8565b5b5f620019608482850162001893565b91505092915050565b620019748162001340565b82525050565b5f6060820190506200198f5f8301866200190d565b6200199e602083018562001969565b620019ad604083018462001969565b949350505050565b5f60208284031215620019cd57620019cc620010e8565b5b5f620019dc8482850162001362565b91505092915050565b620019f081620014cf565b82525050565b5f60208201905062001a0b5f830184620019e5565b92915050565b62001a1c8162001867565b82525050565b5f60208201905062001a375f83018462001a11565b92915050565b5f60ff82169050919050565b62001a548162001a3d565b811462001a5f575f80fd5b50565b5f8135905062001a728162001a49565b92915050565b5f806040838503121562001a915762001a90620010e8565b5b5f62001aa08582860162001893565b925050602062001ab38582860162001a62565b9150509250929050565b5f82825260208201905092915050565b5f62001ad982620015f4565b62001ae5818562001abd565b935062001af78185602086016200160e565b62001b0281620010f8565b840191505092915050565b5f81519050919050565b5f82825260208201905092915050565b5f819050602082019050919050565b5f62001b43838362001638565b905092915050565b5f602082019050919050565b5f62001b638262001b0d565b62001b6f818562001b17565b93508360208202850162001b838562001b27565b805f5b8581101562001bc4578484038952815162001ba2858262001b36565b945062001baf8362001b4b565b925060208a0199505060018101905062001b86565b50829750879550505050505092915050565b5f60a08201905062001beb5f83018862001a11565b818103602083015262001bff818762001acd565b9050818103604083015262001c15818662001acd565b9050818103606083015262001c2b818562001b57565b905062001c3c608083018462001969565b9695505050505050565b7f4e487b71000000000000000000000000000000000000000000000000000000005f52603260045260245ffd5b62001c7e8162001902565b811462001c89575f80fd5b50565b5f8151905062001c9c8162001c73565b92915050565b5f6020828403121562001cba5762001cb9620010e8565b5b5f62001cc98482850162001c8c565b91505092915050565b7f4e487b71000000000000000000000000000000000000000000000000000000005f52601160045260245ffd5b5f62001d0b8262001340565b91507fffffffffffffffffffffffffffffffffffffffffffffffffffffffffffffffff820362001d405762001d3f62001cd2565b5b600182019050919050565b5f67ffffffffffffffff82111562001d685762001d6762001108565b5b602082029050602081019050919050565b5f80fd5b5f80fd5b5f62001d9762001d918462001189565b6200116b565b90508281526020810184848401111562001db65762001db5620010f4565b5b62001dc38482856200160e565b509392505050565b5f82601f83011262001de25762001de1620010f0565b5b815162001df484826020860162001d81565b91505092915050565b5f8151905062001e0d8162001349565b92915050565b5f6040828403121562001e2b5762001e2a62001d79565b5b62001e3760406200116b565b90505f82015167ffffffffffffffff81111562001e595762001e5862001d7d565b5b62001e678482850162001dcb565b5f83015250602062001e7c8482850162001dfd565b60208301525092915050565b5f62001e9e62001e988462001d4b565b6200116b565b9050808382526020820190506020840283018581111562001ec45762001ec362001276565b5b835b8181101562001f1257805167ffffffffffffffff81111562001eed5762001eec620010f0565b5b80860162001efc898262001e13565b8552602085019450505060208101905062001ec6565b5050509392505050565b5f82601f83011262001f335762001f32620010f0565b5b815162001f4584826020860162001e88565b91505092915050565b5f6020828403121562001f665762001f65620010e8565b5b5f82015167ffffffffffffffff81111562001f865762001f85620010ec565b5b62001f948482850162001f1c565b91505092915050565b7f43616e206e6f7420726174652e000000000000000000000000000000000000005f82015250565b5f62001fd3600d8362001abd565b915062001fe08262001f9d565b602082019050919050565b5f6020820190508181035f830152620020048162001fc5565b9050919050565b5f815190506200201b816200187a565b92915050565b5f60208284031215620020395762002038620010e8565b5b5f62002048848285016200200b565b91505092915050565b5f6200205d8262001340565b91506200206a8362001340565b925082820190508082111562002085576200208462001cd2565b5b9291505056fe608060405234801562000010575f80fd5b5060405162001e6138038062001e6183398181016040528101906200003691906200047f565b848484848484805f806101000a81548173ffffffffffffffffffffffffffffffffffffffff021916908373ffffffffffffffffffffffffffffffffffffffff1602179055505083600190816200008d91906200078e565b5082600290816200009f91906200078e565b508042620000ae91906200089f565b6003819055505f5b82518160ff161015620001585760046040518060400160405280858460ff1681518110620000e957620000e8620008d9565b5b602002602001015181526020015f815250908060018154018082558091505060019003905f5260205f2090600202015f909190919091505f820151815f0190816200013591906200078e565b5060208201518160010155505080806200014f9062000912565b915050620000b6565b50505050505050505050506200093f565b5f604051905090565b5f80fd5b5f80fd5b5f73ffffffffffffffffffffffffffffffffffffffff82169050919050565b5f620001a5826200017a565b9050919050565b620001b78162000199565b8114620001c2575f80fd5b50565b5f81519050620001d581620001ac565b92915050565b5f80fd5b5f80fd5b5f601f19601f8301169050919050565b7f4e487b71000000000000000000000000000000000000000000000000000000005f52604160045260245ffd5b6200022b82620001e3565b810181811067ffffffffffffffff821117156200024d576200024c620001f3565b5b80604052505050565b5f6200026162000169565b90506200026f828262000220565b919050565b5f67ffffffffffffffff821115620002915762000290620001f3565b5b6200029c82620001e3565b9050602081019050919050565b5f5b83811015620002c8578082015181840152602081019050620002ab565b5f8484015250505050565b5f620002e9620002e38462000274565b62000256565b905082815260208101848484011115620003085762000307620001df565b5b62000315848285620002a9565b509392505050565b5f82601f830112620003345762000333620001db565b5b815162000346848260208601620002d3565b91505092915050565b5f67ffffffffffffffff8211156200036c576200036b620001f3565b5b602082029050602081019050919050565b5f80fd5b5f6200039762000391846200034f565b62000256565b90508083825260208201905060208402830185811115620003bd57620003bc6200037d565b5b835b818110156200040b57805167ffffffffffffffff811115620003e657620003e5620001db565b5b808601620003f589826200031d565b85526020850194505050602081019050620003bf565b5050509392505050565b5f82601f8301126200042c576200042b620001db565b5b81516200043e84826020860162000381565b91505092915050565b5f819050919050565b6200045b8162000447565b811462000466575f80fd5b50565b5f81519050620004798162000450565b92915050565b5f805f805f60a086880312156200049b576200049a62000172565b5b5f620004aa88828901620001c5565b955050602086015167ffffffffffffffff811115620004ce57620004cd62000176565b5b620004dc888289016200031d565b945050604086015167ffffffffffffffff8111156200050057620004ff62000176565b5b6200050e888289016200031d565b935050606086015167ffffffffffffffff81111562000532576200053162000176565b5b620005408882890162000415565b9250506080620005538882890162000469565b9150509295509295909350565b5f81519050919050565b7f4e487b71000000000000000000000000000000000000000000000000000000005f52602260045260245ffd5b5f6002820490506001821680620005af57607f821691505b602082108103620005c557620005c46200056a565b5b50919050565b5f819050815f5260205f209050919050565b5f6020601f8301049050919050565b5f82821b905092915050565b5f60088302620006297fffffffffffffffffffffffffffffffffffffffffffffffffffffffffffffffff82620005ec565b620006358683620005ec565b95508019841693508086168417925050509392505050565b5f819050919050565b5f62000676620006706200066a8462000447565b6200064d565b62000447565b9050919050565b5f819050919050565b620006918362000656565b620006a9620006a0826200067d565b848454620005f8565b825550505050565b5f90565b620006bf620006b1565b620006cc81848462000686565b505050565b5b81811015620006f357620006e75f82620006b5565b600181019050620006d2565b5050565b601f82111562000742576200070c81620005cb565b6200071784620005dd565b8101602085101562000727578190505b6200073f6200073685620005dd565b830182620006d1565b50505b505050565b5f82821c905092915050565b5f620007645f198460080262000747565b1980831691505092915050565b5f6200077e838362000753565b9150826002028217905092915050565b620007998262000560565b67ffffffffffffffff811115620007b557620007b4620001f3565b5b620007c1825462000597565b620007ce828285620006f7565b5f60209050601f83116001811462000804575f8415620007ef578287015190505b620007fb858262000771565b8655506200086a565b601f1984166200081486620005cb565b5f5b828110156200083d5784890151825560018201915060208501945060208101905062000816565b868310156200085d578489015162000859601f89168262000753565b8355505b6001600288020188555050505b505050505050565b7f4e487b71000000000000000000000000000000000000000000000000000000005f52601160045260245ffd5b5f620008ab8262000447565b9150620008b88362000447565b9250828201905080821115620008d357620008d262000872565b5b92915050565b7f4e487b71000000000000000000000000000000000000000000000000000000005f52603260045260245ffd5b5f60ff82169050919050565b5f6200091e8262000906565b915060ff820362000934576200093362000872565b5b600182019050919050565b611514806200094d5f395ff3fe608060405234801561000f575f80fd5b50600436106100b2575f3560e01c80637284e4161161006f5780637284e4161461018d5780639145a7fc146101ab578063a3ec138d146101c9578063b3f98adc146101fd578063bf63a57714610219578063e2ba53f014610237576100b2565b8063013cf08b146100b657806302d05d3f146100e757806309eef43e1461010557806329dcb0cf146101355780634717f97c146101535780635c19a95c14610171575b5f80fd5b6100d060048036038101906100cb9190610d8c565b610255565b6040516100de929190610e50565b60405180910390f35b6100ef61030a565b6040516100fc9190610ebd565b60405180910390f35b61011f600480360381019061011a9190610f00565b61032d565b60405161012c9190610f45565b60405180910390f35b61013d610382565b60405161014a9190610f5e565b60405180910390f35b61015b610388565b60405161016891906110c3565b60405180910390f35b61018b60048036038101906101869190610f00565b61047d565b005b6101956108cc565b6040516101a291906110e3565b60405180910390f35b6101b3610958565b6040516101c09190610f45565b60405180910390f35b6101e360048036038101906101de9190610f00565b610963565b6040516101f495949392919061111e565b60405180910390f35b61021760048036038101906102129190611199565b6109d8565b005b610221610b85565b60405161022e91906110e3565b60405180910390f35b61023f610c11565b60405161024c91906110e3565b60405180910390f35b60048181548110610264575f80fd5b905f5260205f2090600202015f91509050805f018054610283906111f1565b80601f01602080910402602001604051908101604052809291908181526020018280546102af906111f1565b80156102fa5780601f106102d1576101008083540402835291602001916102fa565b820191905f5260205f20905b8154815290600101906020018083116102dd57829003601f168201915b5050505050908060010154905082565b5f8054906101000a900473ffffffffffffffffffffffffffffffffffffffff1681565b5f60055f8373ffffffffffffffffffffffffffffffffffffffff1673ffffffffffffffffffffffffffffffffffffffff1681526020019081526020015f205f0160019054906101000a900460ff169050919050565b60035481565b60606004805480602002602001604051908101604052809291908181526020015f905b82821015610474578382905f5260205f2090600202016040518060400160405290815f820180546103db906111f1565b80601f0160208091040260200160405190810160405280929190818152602001828054610407906111f1565b80156104525780601f1061042957610100808354040283529160200191610452565b820191905f5260205f20905b81548152906001019060200180831161043557829003601f168201915b50505050508152602001600182015481525050815260200190600101906103ab565b50505050905090565b610485610958565b156104c5576040517f08c379a00000000000000000000000000000000000000000000000000000000081526004016104bc9061126b565b60405180910390fd5b5f60055f3373ffffffffffffffffffffffffffffffffffffffff1673ffffffffffffffffffffffffffffffffffffffff1681526020019081526020015f209050805f0160019054906101000a900460ff1615610556576040517f08c379a000000000000000000000000000000000000000000000000000000000815260040161054d906112d3565b60405180910390fd5b3373ffffffffffffffffffffffffffffffffffffffff168273ffffffffffffffffffffffffffffffffffffffff16036105c4576040517f08c379a00000000000000000000000000000000000000000000000000000000081526004016105bb9061133b565b60405180910390fd5b5b5f73ffffffffffffffffffffffffffffffffffffffff1660055f8473ffffffffffffffffffffffffffffffffffffffff1673ffffffffffffffffffffffffffffffffffffffff1681526020019081526020015f206002015f9054906101000a900473ffffffffffffffffffffffffffffffffffffffff1673ffffffffffffffffffffffffffffffffffffffff161461072c5760055f8373ffffffffffffffffffffffffffffffffffffffff1673ffffffffffffffffffffffffffffffffffffffff1681526020019081526020015f206002015f9054906101000a900473ffffffffffffffffffffffffffffffffffffffff1691503373ffffffffffffffffffffffffffffffffffffffff168273ffffffffffffffffffffffffffffffffffffffff1603610727576040517f08c379a000000000000000000000000000000000000000000000000000000000815260040161071e906113a3565b60405180910390fd5b6105c5565b6001815f0160016101000a81548160ff02191690831515021790555081816002015f6101000a81548173ffffffffffffffffffffffffffffffffffffffff021916908373ffffffffffffffffffffffffffffffffffffffff1602179055505f60055f8473ffffffffffffffffffffffffffffffffffffffff1673ffffffffffffffffffffffffffffffffffffffff1681526020019081526020015f209050805f0160019054906101000a900460ff161561084157600182600101546107f191906113ee565b6004825f0160029054906101000a900460ff1660ff168154811061081857610817611421565b5b905f5260205f2090600202016001015f82825461083591906113ee565b9250508190555061086c565b6001826001015461085291906113ee565b816001015f82825461086491906113ee565b925050819055505b8273ffffffffffffffffffffffffffffffffffffffff163373ffffffffffffffffffffffffffffffffffffffff16427f1938da684279c3a3e042ae0800798e60f7262803cb9baab844ba3fa25ad1a68260405160405180910390a4505050565b600280546108d9906111f1565b80601f0160208091040260200160405190810160405280929190818152602001828054610905906111f1565b80156109505780601f1061092757610100808354040283529160200191610950565b820191905f5260205f20905b81548152906001019060200180831161093357829003601f168201915b505050505081565b5f6003544211905090565b6005602052805f5260405f205f91509050805f015f9054906101000a900460ff1690805f0160019054906101000a900460ff1690805f0160029054906101000a900460ff1690806001015490806002015f9054906101000a900473ffffffffffffffffffffffffffffffffffffffff16905085565b6109e0610958565b15610a20576040517f08c379a0000000000000000000000000000000000000000000000000000000008152600401610a179061126b565b60405180910390fd5b806004805490508160ff1610610a6b576040517f08c379a0000000000000000000000000000000000000000000000000000000008152600401610a6290611498565b60405180910390fd5b5f60055f3373ffffffffffffffffffffffffffffffffffffffff1673ffffffffffffffffffffffffffffffffffffffff1681526020019081526020015f209050805f0160019054906101000a900460ff1615610afc576040517f08c379a0000000000000000000000000000000000000000000000000000000008152600401610af3906112d3565b60405180910390fd5b6001815f0160016101000a81548160ff02191690831515021790555082815f0160026101000a81548160ff021916908360ff16021790555060018160010154610b4591906113ee565b60048460ff1681548110610b5c57610b5b611421565b5b905f5260205f2090600202016001015f828254610b7991906113ee565b92505081905550505050565b60018054610b92906111f1565b80601f0160208091040260200160405190810160405280929190818152602001828054610bbe906111f1565b8015610c095780601f10610be057610100808354040283529160200191610c09565b820191905f5260205f20905b815481529060010190602001808311610bec57829003601f168201915b505050505081565b60606004610c1d610ccb565b60ff1681548110610c3157610c30611421565b5b905f5260205f2090600202015f018054610c4a906111f1565b80601f0160208091040260200160405190810160405280929190818152602001828054610c76906111f1565b8015610cc15780601f10610c9857610100808354040283529160200191610cc1565b820191905f5260205f20905b815481529060010190602001808311610ca457829003601f168201915b5050505050905090565b5f805f90505f5b6004805490508160ff161015610d50578160048260ff1681548110610cfa57610cf9611421565b5b905f5260205f209060020201600101541115610d3d5760048160ff1681548110610d2757610d26611421565b5b905f5260205f2090600202016001015491508092505b8080610d48906114b6565b915050610cd2565b505090565b5f80fd5b5f819050919050565b610d6b81610d59565b8114610d75575f80fd5b50565b5f81359050610d8681610d62565b92915050565b5f60208284031215610da157610da0610d55565b5b5f610dae84828501610d78565b91505092915050565b5f81519050919050565b5f82825260208201905092915050565b5f5b83811015610dee578082015181840152602081019050610dd3565b5f8484015250505050565b5f601f19601f8301169050919050565b5f610e1382610db7565b610e1d8185610dc1565b9350610e2d818560208601610dd1565b610e3681610df9565b840191505092915050565b610e4a81610d59565b82525050565b5f6040820190508181035f830152610e688185610e09565b9050610e776020830184610e41565b9392505050565b5f73ffffffffffffffffffffffffffffffffffffffff82169050919050565b5f610ea782610e7e565b9050919050565b610eb781610e9d565b82525050565b5f602082019050610ed05f830184610eae565b92915050565b610edf81610e9d565b8114610ee9575f80fd5b50565b5f81359050610efa81610ed6565b92915050565b5f60208284031215610f1557610f14610d55565b5b5f610f2284828501610eec565b91505092915050565b5f8115159050919050565b610f3f81610f2b565b82525050565b5f602082019050610f585f830184610f36565b92915050565b5f602082019050610f715f830184610e41565b92915050565b5f81519050919050565b5f82825260208201905092915050565b5f819050602082019050919050565b5f82825260208201905092915050565b5f610fba82610db7565b610fc48185610fa0565b9350610fd4818560208601610dd1565b610fdd81610df9565b840191505092915050565b610ff181610d59565b82525050565b5f604083015f8301518482035f8601526110118282610fb0565b91505060208301516110266020860182610fe8565b508091505092915050565b5f61103c8383610ff7565b905092915050565b5f602082019050919050565b5f61105a82610f77565b6110648185610f81565b93508360208202850161107685610f91565b805f5b858110156110b157848403895281516110928582611031565b945061109d83611044565b925060208a01995050600181019050611079565b50829750879550505050505092915050565b5f6020820190508181035f8301526110db8184611050565b905092915050565b5f6020820190508181035f8301526110fb8184610e09565b905092915050565b5f60ff82169050919050565b61111881611103565b82525050565b5f60a0820190506111315f830188610f36565b61113e6020830187610f36565b61114b604083018661110f565b6111586060830185610e41565b6111656080830184610eae565b9695505050505050565b61117881611103565b8114611182575f80fd5b50565b5f813590506111938161116f565b92915050565b5f602082840312156111ae576111ad610d55565b5b5f6111bb84828501611185565b91505092915050565b7f4e487b71000000000000000000000000000000000000000000000000000000005f52602260045260245ffd5b5f600282049050600182168061120857607f821691505b60208210810361121b5761121a6111c4565b5b50919050565b7f446561646c696e652068617320657870697265642e00000000000000000000005f82015250565b5f611255601583610dc1565b915061126082611221565b602082019050919050565b5f6020820190508181035f83015261128281611249565b9050919050565b7f416c726561647920766f7465642e0000000000000000000000000000000000005f82015250565b5f6112bd600e83610dc1565b91506112c882611289565b602082019050919050565b5f6020820190508181035f8301526112ea816112b1565b9050919050565b7f53656c662d64656c65676174696f6e206973206e6f7420616c6c6f7765642e005f82015250565b5f611325601f83610dc1565b9150611330826112f1565b602082019050919050565b5f6020820190508181035f83015261135281611319565b9050919050565b7f466f756e64206c6f6f7020696e2064656c65676174696f6e2e000000000000005f82015250565b5f61138d601983610dc1565b915061139882611359565b602082019050919050565b5f6020820190508181035f8301526113ba81611381565b9050919050565b7f4e487b71000000000000000000000000000000000000000000000000000000005f52601160045260245ffd5b5f6113f882610d59565b915061140383610d59565b925082820190508082111561141b5761141a6113c1565b5b92915050565b7f4e487b71000000000000000000000000000000000000000000000000000000005f52603260045260245ffd5b7f546869732070726f706f73616c20646f6573206e6f742065786973742e0000005f82015250565b5f611482601d83610dc1565b915061148d8261144e565b602082019050919050565b5f6020820190508181035f8301526114af81611476565b9050919050565b5f6114c082611103565b915060ff82036114d3576114d26113c1565b5b60018201905091905056fea2646970667358221220f427ee41597fb3e5b777cfd4073b2136083d303c2dc07ec50a376e8117da4f5d64736f6c63430008140033608060405234801562000010575f80fd5b5060405162001d6138038062001d618339818101604052810190620000369190620004d6565b848484848484805f806101000a81548173ffffffffffffffffffffffffffffffffffffffff021916908373ffffffffffffffffffffffffffffffffffffffff1602179055505083600190816200008d9190620007e5565b5082600290816200009f9190620007e5565b508042620000ae9190620008f6565b6003819055505f5b82518160ff161015620001585760046040518060400160405280858460ff1681518110620000e957620000e862000930565b5b602002602001015181526020015f815250908060018154018082558091505060019003905f5260205f2090600202015f909190919091505f820151815f019081620001359190620007e5565b5060208201518160010155505080806200014f9062000969565b915050620000b6565b505050505050600160055f8773ffffffffffffffffffffffffffffffffffffffff1673ffffffffffffffffffffffffffffffffffffffff1681526020019081526020015f205f015f6101000a81548160ff021916908315150217905550505050505062000996565b5f604051905090565b5f80fd5b5f80fd5b5f73ffffffffffffffffffffffffffffffffffffffff82169050919050565b5f620001fc82620001d1565b9050919050565b6200020e81620001f0565b811462000219575f80fd5b50565b5f815190506200022c8162000203565b92915050565b5f80fd5b5f80fd5b5f601f19601f8301169050919050565b7f4e487b71000000000000000000000000000000000000000000000000000000005f52604160045260245ffd5b62000282826200023a565b810181811067ffffffffffffffff82111715620002a457620002a36200024a565b5b80604052505050565b5f620002b8620001c0565b9050620002c6828262000277565b919050565b5f67ffffffffffffffff821115620002e857620002e76200024a565b5b620002f3826200023a565b9050602081019050919050565b5f5b838110156200031f57808201518184015260208101905062000302565b5f8484015250505050565b5f620003406200033a84620002cb565b620002ad565b9050828152602081018484840111156200035f576200035e62000236565b5b6200036c84828562000300565b509392505050565b5f82601f8301126200038b576200038a62000232565b5b81516200039d8482602086016200032a565b91505092915050565b5f67ffffffffffffffff821115620003c357620003c26200024a565b5b602082029050602081019050919050565b5f80fd5b5f620003ee620003e884620003a6565b620002ad565b90508083825260208201905060208402830185811115620004145762000413620003d4565b5b835b818110156200046257805167ffffffffffffffff8111156200043d576200043c62000232565b5b8086016200044c898262000374565b8552602085019450505060208101905062000416565b5050509392505050565b5f82601f83011262000483576200048262000232565b5b815162000495848260208601620003d8565b91505092915050565b5f819050919050565b620004b2816200049e565b8114620004bd575f80fd5b50565b5f81519050620004d081620004a7565b92915050565b5f805f805f60a08688031215620004f257620004f1620001c9565b5b5f62000501888289016200021c565b955050602086015167ffffffffffffffff811115620005255762000524620001cd565b5b620005338882890162000374565b945050604086015167ffffffffffffffff811115620005575762000556620001cd565b5b620005658882890162000374565b935050606086015167ffffffffffffffff811115620005895762000588620001cd565b5b62000597888289016200046c565b9250506080620005aa88828901620004c0565b9150509295509295909350565b5f81519050919050565b7f4e487b71000000000000000000000000000000000000000000000000000000005f52602260045260245ffd5b5f60028204905060018216806200060657607f821691505b6020821081036200061c576200061b620005c1565b5b50919050565b5f819050815f5260205f209050919050565b5f6020601f8301049050919050565b5f82821b905092915050565b5f60088302620006807fffffffffffffffffffffffffffffffffffffffffffffffffffffffffffffffff8262000643565b6200068c868362000643565b95508019841693508086168417925050509392505050565b5f819050919050565b5f620006cd620006c7620006c1846200049e565b620006a4565b6200049e565b9050919050565b5f819050919050565b620006e883620006ad565b62000700620006f782620006d4565b8484546200064f565b825550505050565b5f90565b6200071662000708565b62000723818484620006dd565b505050565b5b818110156200074a576200073e5f826200070c565b60018101905062000729565b5050565b601f8211156200079957620007638162000622565b6200076e8462000634565b810160208510156200077e578190505b620007966200078d8562000634565b83018262000728565b50505b505050565b5f82821c905092915050565b5f620007bb5f19846008026200079e565b1980831691505092915050565b5f620007d58383620007aa565b9150826002028217905092915050565b620007f082620005b7565b67ffffffffffffffff8111156200080c576200080b6200024a565b5b620008188254620005ee565b620008258282856200074e565b5f60209050601f8311600181146200085b575f841562000846578287015190505b620008528582620007c8565b865550620008c1565b601f1984166200086b8662000622565b5f5b8281101562000894578489015182556001820191506020850194506020810190506200086d565b86831015620008b45784890151620008b0601f891682620007aa565b8355505b6001600288020188555050505b505050505050565b7f4e487b71000000000000000000000000000000000000000000000000000000005f52601160045260245ffd5b5f62000902826200049e565b91506200090f836200049e565b92508282019050808211156200092a5762000929620008c9565b5b92915050565b7f4e487b71000000000000000000000000000000000000000000000000000000005f52603260045260245ffd5b5f60ff82169050919050565b5f62000975826200095d565b915060ff82036200098b576200098a620008c9565b5b600182019050919050565b6113bd80620009a45f395ff3fe608060405234801561000f575f80fd5b50600436106100b2575f3560e01c80639145a7fc1161006f5780639145a7fc1461018f5780639e7b8d61146101ad578063a3ec138d146101c9578063b3f98adc146101fd578063bf63a57714610219578063e2ba53f014610237576100b2565b8063013cf08b146100b657806302d05d3f146100e757806309eef43e1461010557806329dcb0cf146101355780634717f97c146101535780637284e41614610171575b5f80fd5b6100d060048036038101906100cb9190610b93565b610255565b6040516100de929190610c57565b60405180910390f35b6100ef61030a565b6040516100fc9190610cc4565b60405180910390f35b61011f600480360381019061011a9190610d07565b61032d565b60405161012c9190610d4c565b60405180910390f35b61013d610382565b60405161014a9190610d65565b60405180910390f35b61015b610388565b6040516101689190610eca565b60405180910390f35b61017961047d565b6040516101869190610eea565b60405180910390f35b610197610509565b6040516101a49190610d4c565b60405180910390f35b6101c760048036038101906101c29190610d07565b610514565b005b6101e360048036038101906101de9190610d07565b61072c565b6040516101f4959493929190610f25565b60405180910390f35b61021760048036038101906102129190610fa0565b6107a1565b005b61022161098c565b60405161022e9190610eea565b60405180910390f35b61023f610a18565b60405161024c9190610eea565b60405180910390f35b60048181548110610264575f80fd5b905f5260205f2090600202015f91509050805f01805461028390610ff8565b80601f01602080910402602001604051908101604052809291908181526020018280546102af90610ff8565b80156102fa5780601f106102d1576101008083540402835291602001916102fa565b820191905f5260205f20905b8154815290600101906020018083116102dd57829003601f168201915b5050505050908060010154905082565b5f8054906101000a900473ffffffffffffffffffffffffffffffffffffffff1681565b5f60055f8373ffffffffffffffffffffffffffffffffffffffff1673ffffffffffffffffffffffffffffffffffffffff1681526020019081526020015f205f0160019054906101000a900460ff169050919050565b60035481565b60606004805480602002602001604051908101604052809291908181526020015f905b82821015610474578382905f5260205f2090600202016040518060400160405290815f820180546103db90610ff8565b80601f016020809104026020016040519081016040528092919081815260200182805461040790610ff8565b80156104525780601f1061042957610100808354040283529160200191610452565b820191905f5260205f20905b81548152906001019060200180831161043557829003601f168201915b50505050508152602001600182015481525050815260200190600101906103ab565b50505050905090565b6002805461048a90610ff8565b80601f01602080910402602001604051908101604052809291908181526020018280546104b690610ff8565b80156105015780601f106104d857610100808354040283529160200191610501565b820191905f5260205f20905b8154815290600101906020018083116104e457829003601f168201915b505050505081565b5f6003544211905090565b61051c610509565b1561055c576040517f08c379a000000000000000000000000000000000000000000000000000000000815260040161055390611072565b60405180910390fd5b5f8054906101000a900473ffffffffffffffffffffffffffffffffffffffff1673ffffffffffffffffffffffffffffffffffffffff163373ffffffffffffffffffffffffffffffffffffffff16146105e9576040517f08c379a00000000000000000000000000000000000000000000000000000000081526004016105e090611100565b60405180910390fd5b8060055f8273ffffffffffffffffffffffffffffffffffffffff1673ffffffffffffffffffffffffffffffffffffffff1681526020019081526020015f205f015f9054906101000a900460ff1615610676576040517f08c379a000000000000000000000000000000000000000000000000000000000815260040161066d90611168565b60405180910390fd5b600160055f8473ffffffffffffffffffffffffffffffffffffffff1673ffffffffffffffffffffffffffffffffffffffff1681526020019081526020015f205f015f6101000a81548160ff0219169083151502179055508173ffffffffffffffffffffffffffffffffffffffff163373ffffffffffffffffffffffffffffffffffffffff16427fa4bbd98d03300dc9c6991b0f3c356eb7c69c95fc7352dcbc5cb2e949904506b260405160405180910390a45050565b6005602052805f5260405f205f91509050805f015f9054906101000a900460ff1690805f0160019054906101000a900460ff1690805f0160029054906101000a900460ff1690806001015490806002015f9054906101000a900473ffffffffffffffffffffffffffffffffffffffff16905085565b6107a9610509565b156107e9576040517f08c379a00000000000000000000000000000000000000000000000000000000081526004016107e090611072565b60405180910390fd5b806004805490508160ff1610610834576040517f08c379a000000000000000000000000000000000000000000000000000000000815260040161082b906111d0565b60405180910390fd5b5f60055f3373ffffffffffffffffffffffffffffffffffffffff1673ffffffffffffffffffffffffffffffffffffffff1681526020019081526020015f209050805f015f9054906101000a900460ff166108c3576040517f08c379a00000000000000000000000000000000000000000000000000000000081526004016108ba90611238565b60405180910390fd5b805f0160019054906101000a900460ff1615610914576040517f08c379a000000000000000000000000000000000000000000000000000000000815260040161090b906112a0565b60405180910390fd5b6001815f0160016101000a81548160ff02191690831515021790555082815f0160026101000a81548160ff021916908360ff16021790555060048360ff1681548110610963576109626112be565b5b905f5260205f2090600202016001015f81548092919061098290611318565b9190505550505050565b6001805461099990610ff8565b80601f01602080910402602001604051908101604052809291908181526020018280546109c590610ff8565b8015610a105780601f106109e757610100808354040283529160200191610a10565b820191905f5260205f20905b8154815290600101906020018083116109f357829003601f168201915b505050505081565b60606004610a24610ad2565b60ff1681548110610a3857610a376112be565b5b905f5260205f2090600202015f018054610a5190610ff8565b80601f0160208091040260200160405190810160405280929190818152602001828054610a7d90610ff8565b8015610ac85780601f10610a9f57610100808354040283529160200191610ac8565b820191905f5260205f20905b815481529060010190602001808311610aab57829003601f168201915b5050505050905090565b5f805f90505f5b6004805490508160ff161015610b57578160048260ff1681548110610b0157610b006112be565b5b905f5260205f209060020201600101541115610b445760048160ff1681548110610b2e57610b2d6112be565b5b905f5260205f2090600202016001015491508092505b8080610b4f9061135f565b915050610ad9565b505090565b5f80fd5b5f819050919050565b610b7281610b60565b8114610b7c575f80fd5b50565b5f81359050610b8d81610b69565b92915050565b5f60208284031215610ba857610ba7610b5c565b5b5f610bb584828501610b7f565b91505092915050565b5f81519050919050565b5f82825260208201905092915050565b5f5b83811015610bf5578082015181840152602081019050610bda565b5f8484015250505050565b5f601f19601f8301169050919050565b5f610c1a82610bbe565b610c248185610bc8565b9350610c34818560208601610bd8565b610c3d81610c00565b840191505092915050565b610c5181610b60565b82525050565b5f6040820190508181035f830152610c6f8185610c10565b9050610c7e6020830184610c48565b9392505050565b5f73ffffffffffffffffffffffffffffffffffffffff82169050919050565b5f610cae82610c85565b9050919050565b610cbe81610ca4565b82525050565b5f602082019050610cd75f830184610cb5565b92915050565b610ce681610ca4565b8114610cf0575f80fd5b50565b5f81359050610d0181610cdd565b92915050565b5f60208284031215610d1c57610d1b610b5c565b5b5f610d2984828501610cf3565b91505092915050565b5f8115159050919050565b610d4681610d32565b82525050565b5f602082019050610d5f5f830184610d3d565b92915050565b5f602082019050610d785f830184610c48565b92915050565b5f81519050919050565b5f82825260208201905092915050565b5f819050602082019050919050565b5f82825260208201905092915050565b5f610dc182610bbe565b610dcb8185610da7565b9350610ddb818560208601610bd8565b610de481610c00565b840191505092915050565b610df881610b60565b82525050565b5f604083015f8301518482035f860152610e188282610db7565b9150506020830151610e2d6020860182610def565b508091505092915050565b5f610e438383610dfe565b905092915050565b5f602082019050919050565b5f610e6182610d7e565b610e6b8185610d88565b935083602082028501610e7d85610d98565b805f5b85811015610eb85784840389528151610e998582610e38565b9450610ea483610e4b565b925060208a01995050600181019050610e80565b50829750879550505050505092915050565b5f6020820190508181035f830152610ee28184610e57565b905092915050565b5f6020820190508181035f830152610f028184610c10565b905092915050565b5f60ff82169050919050565b610f1f81610f0a565b82525050565b5f60a082019050610f385f830188610d3d565b610f456020830187610d3d565b610f526040830186610f16565b610f5f6060830185610c48565b610f6c6080830184610cb5565b9695505050505050565b610f7f81610f0a565b8114610f89575f80fd5b50565b5f81359050610f9a81610f76565b92915050565b5f60208284031215610fb557610fb4610b5c565b5b5f610fc284828501610f8c565b91505092915050565b7f4e487b71000000000000000000000000000000000000000000000000000000005f52602260045260245ffd5b5f600282049050600182168061100f57607f821691505b60208210810361102257611021610fcb565b5b50919050565b7f446561646c696e652068617320657870697265642e00000000000000000000005f82015250565b5f61105c601583610bc8565b915061106782611028565b602082019050919050565b5f6020820190508181035f83015261108981611050565b9050919050565b7f4f6e6c792063726561746f72206861732074686573652070726976696c6567655f8201527f732e000000000000000000000000000000000000000000000000000000000000602082015250565b5f6110ea602283610bc8565b91506110f582611090565b604082019050919050565b5f6020820190508181035f830152611117816110de565b9050919050565b7f566f7465722068617320616c726561647920726967687420746f20766f74652e5f82015250565b5f611152602083610bc8565b915061115d8261111e565b602082019050919050565b5f6020820190508181035f83015261117f81611146565b9050919050565b7f546869732070726f706f73616c20646f6573206e6f742065786973742e0000005f82015250565b5f6111ba601d83610bc8565b91506111c582611186565b602082019050919050565b5f6020820190508181035f8301526111e7816111ae565b9050919050565b7f486173206e6f20726967687420746f20766f74652e00000000000000000000005f82015250565b5f611222601583610bc8565b915061122d826111ee565b602082019050919050565b5f6020820190508181035f83015261124f81611216565b9050919050565b7f416c726561647920766f7465642e0000000000000000000000000000000000005f82015250565b5f61128a600e83610bc8565b915061129582611256565b602082019050919050565b5f6020820190508181035f8301526112b78161127e565b9050919050565b7f4e487b71000000000000000000000000000000000000000000000000000000005f52603260045260245ffd5b7f4e487b71000000000000000000000000000000000000000000000000000000005f52601160045260245ffd5b5f61132282610b60565b91507fffffffffffffffffffffffffffffffffffffffffffffffffffffffffffffffff8203611354576113536112eb565b5b600182019050919050565b5f61136982610f0a565b915060ff820361137c5761137b6112eb565b5b60018201905091905056fea2646970667358221220809d5ba7a241627ed7437888e9d35cace5f6dcb63e27cbb444232867d651e66e64736f6c63430008140033a2646970667358221220d2eca11435979c254960a07db4ea7386ba5c96339a72ce376ba8bb0a6b05194864736f6c63430008140033","opcodes":"PUSH1 0x80 PUSH1 0x40 MSTORE CALLVALUE DUP1 ISZERO PUSH2 0xF JUMPI PUSH0 DUP1 REVERT JUMPDEST POP PUSH2 0x5C83 DUP1 PUSH2 0x1D PUSH0 CODECOPY PUSH0 RETURN INVALID PUSH1 0x80 PUSH1 0x40 MSTORE CALLVALUE DUP1 ISZERO PUSH3 0x10 JUMPI PUSH0 DUP1 REVERT JUMPDEST POP PUSH1 0x4 CALLDATASIZE LT PUSH3 0x9E JUMPI PUSH0 CALLDATALOAD PUSH1 0xE0 SHR DUP1 PUSH4 0x939C442E GT PUSH3 0x6D JUMPI DUP1 PUSH4 0x939C442E EQ PUSH3 0x13C JUMPI DUP1 PUSH4 0x9E01DFBB EQ PUSH3 0x15C JUMPI DUP1 PUSH4 0xAC2F0074 EQ PUSH3 0x194 JUMPI DUP1 PUSH4 0xCD53D08E EQ PUSH3 0x1CA JUMPI DUP1 PUSH4 0xF81CD4B0 EQ PUSH3 0x200 JUMPI PUSH3 0x9E JUMP JUMPDEST DUP1 PUSH4 0x3A5ED893 EQ PUSH3 0xA2 JUMPI DUP1 PUSH4 0x63A9492F EQ PUSH3 0xC2 JUMPI DUP1 PUSH4 0x77B085A2 EQ PUSH3 0xE4 JUMPI DUP1 PUSH4 0x791ACBB7 EQ PUSH3 0x106 JUMPI JUMPDEST PUSH0 DUP1 REVERT JUMPDEST PUSH3 0xC0 PUSH1 0x4 DUP1 CALLDATASIZE SUB DUP2 ADD SWAP1 PUSH3 0xBA SWAP2 SWAP1 PUSH3 0x1378 JUMP JUMPDEST PUSH3 0x220 JUMP JUMPDEST STOP JUMPDEST PUSH3 0xCC PUSH3 0x2D2 JUMP JUMPDEST PUSH1 0x40 MLOAD PUSH3 0xDB SWAP2 SWAP1 PUSH3 0x1580 JUMP JUMPDEST PUSH1 0x40 MLOAD DUP1 SWAP2 SUB SWAP1 RETURN JUMPDEST PUSH3 0xEE PUSH3 0x496 JUMP JUMPDEST PUSH1 0x40 MLOAD PUSH3 0xFD SWAP2 SWAP1 PUSH3 0x1845 JUMP JUMPDEST PUSH1 0x40 MLOAD DUP1 SWAP2 SUB SWAP1 RETURN JUMPDEST PUSH3 0x124 PUSH1 0x4 DUP1 CALLDATASIZE SUB DUP2 ADD SWAP1 PUSH3 0x11E SWAP2 SWAP1 PUSH3 0x18A9 JUMP JUMPDEST PUSH3 0x713 JUMP JUMPDEST PUSH1 0x40 MLOAD PUSH3 0x133 SWAP2 SWAP1 PUSH3 0x191E JUMP JUMPDEST PUSH1 0x40 MLOAD DUP1 SWAP2 SUB SWAP1 RETURN JUMPDEST PUSH3 0x15A PUSH1 0x4 DUP1 CALLDATASIZE SUB DUP2 ADD SWAP1 PUSH3 0x154 SWAP2 SWAP1 PUSH3 0x1378 JUMP JUMPDEST PUSH3 0x748 JUMP JUMPDEST STOP JUMPDEST PUSH3 0x17A PUSH1 0x4 DUP1 CALLDATASIZE SUB DUP2 ADD SWAP1 PUSH3 0x174 SWAP2 SWAP1 PUSH3 0x1939 JUMP JUMPDEST PUSH3 0x7FA JUMP JUMPDEST PUSH1 0x40 MLOAD PUSH3 0x18B SWAP4 SWAP3 SWAP2 SWAP1 PUSH3 0x197A JUMP JUMPDEST PUSH1 0x40 MLOAD DUP1 SWAP2 SUB SWAP1 RETURN JUMPDEST PUSH3 0x1B2 PUSH1 0x4 DUP1 CALLDATASIZE SUB DUP2 ADD SWAP1 PUSH3 0x1AC SWAP2 SWAP1 PUSH3 0x19B5 JUMP JUMPDEST PUSH3 0x82C JUMP JUMPDEST PUSH1 0x40 MLOAD PUSH3 0x1C1 SWAP2 SWAP1 PUSH3 0x19F6 JUMP JUMPDEST PUSH1 0x40 MLOAD DUP1 SWAP2 SUB SWAP1 RETURN JUMPDEST PUSH3 0x1E8 PUSH1 0x4 DUP1 CALLDATASIZE SUB DUP2 ADD SWAP1 PUSH3 0x1E2 SWAP2 SWAP1 PUSH3 0x19B5 JUMP JUMPDEST PUSH3 0x867 JUMP JUMPDEST PUSH1 0x40 MLOAD PUSH3 0x1F7 SWAP2 SWAP1 PUSH3 0x1A22 JUMP JUMPDEST PUSH1 0x40 MLOAD DUP1 SWAP2 SUB SWAP1 RETURN JUMPDEST PUSH3 0x21E PUSH1 0x4 DUP1 CALLDATASIZE SUB DUP2 ADD SWAP1 PUSH3 0x218 SWAP2 SWAP1 PUSH3 0x1A78 JUMP JUMPDEST PUSH3 0x8A3 JUMP JUMPDEST STOP JUMPDEST PUSH0 CALLER DUP6 DUP6 DUP6 DUP6 PUSH1 0x40 MLOAD PUSH3 0x234 SWAP1 PUSH3 0x1094 JUMP JUMPDEST PUSH3 0x244 SWAP6 SWAP5 SWAP4 SWAP3 SWAP2 SWAP1 PUSH3 0x1BD6 JUMP JUMPDEST PUSH1 0x40 MLOAD DUP1 SWAP2 SUB SWAP1 PUSH0 CREATE DUP1 ISZERO DUP1 ISZERO PUSH3 0x25E JUMPI RETURNDATASIZE PUSH0 DUP1 RETURNDATACOPY RETURNDATASIZE PUSH0 REVERT JUMPDEST POP SWAP1 POP PUSH0 DUP2 SWAP1 DUP1 PUSH1 0x1 DUP2 SLOAD ADD DUP1 DUP3 SSTORE DUP1 SWAP2 POP POP PUSH1 0x1 SWAP1 SUB SWAP1 PUSH0 MSTORE PUSH1 0x20 PUSH0 KECCAK256 ADD PUSH0 SWAP1 SWAP2 SWAP1 SWAP2 SWAP1 SWAP2 PUSH2 0x100 EXP DUP2 SLOAD DUP2 PUSH20 0xFFFFFFFFFFFFFFFFFFFFFFFFFFFFFFFFFFFFFFFF MUL NOT AND SWAP1 DUP4 PUSH20 0xFFFFFFFFFFFFFFFFFFFFFFFFFFFFFFFFFFFFFFFF AND MUL OR SWAP1 SSTORE POP PUSH3 0x2CB CALLER PUSH3 0xBDF JUMP JUMPDEST POP POP POP POP POP JUMP JUMPDEST PUSH1 0x60 PUSH0 DUP1 DUP1 SLOAD SWAP1 POP PUSH8 0xFFFFFFFFFFFFFFFF DUP2 GT ISZERO PUSH3 0x2F6 JUMPI PUSH3 0x2F5 PUSH3 0x1108 JUMP JUMPDEST JUMPDEST PUSH1 0x40 MLOAD SWAP1 DUP1 DUP3 MSTORE DUP1 PUSH1 0x20 MUL PUSH1 0x20 ADD DUP3 ADD PUSH1 0x40 MSTORE DUP1 ISZERO PUSH3 0x325 JUMPI DUP2 PUSH1 0x20 ADD PUSH1 0x20 DUP3 MUL DUP1 CALLDATASIZE DUP4 CALLDATACOPY DUP1 DUP3 ADD SWAP2 POP POP SWAP1 POP JUMPDEST POP SWAP1 POP PUSH0 JUMPDEST PUSH0 DUP1 SLOAD SWAP1 POP DUP2 LT ISZERO PUSH3 0x48E JUMPI PUSH0 DUP2 DUP2 SLOAD DUP2 LT PUSH3 0x34D JUMPI PUSH3 0x34C PUSH3 0x1C46 JUMP JUMPDEST JUMPDEST SWAP1 PUSH0 MSTORE PUSH1 0x20 PUSH0 KECCAK256 ADD PUSH0 SWAP1 SLOAD SWAP1 PUSH2 0x100 EXP SWAP1 DIV PUSH20 0xFFFFFFFFFFFFFFFFFFFFFFFFFFFFFFFFFFFFFFFF AND PUSH20 0xFFFFFFFFFFFFFFFFFFFFFFFFFFFFFFFFFFFFFFFF AND PUSH4 0x9145A7FC PUSH1 0x40 MLOAD DUP2 PUSH4 0xFFFFFFFF AND PUSH1 0xE0 SHL DUP2 MSTORE PUSH1 0x4 ADD PUSH1 0x20 PUSH1 0x40 MLOAD DUP1 DUP4 SUB DUP2 DUP7 GAS STATICCALL ISZERO DUP1 ISZERO PUSH3 0x3BE JUMPI RETURNDATASIZE PUSH0 DUP1 RETURNDATACOPY RETURNDATASIZE PUSH0 REVERT JUMPDEST POP POP POP POP PUSH1 0x40 MLOAD RETURNDATASIZE PUSH1 0x1F NOT PUSH1 0x1F DUP3 ADD AND DUP3 ADD DUP1 PUSH1 0x40 MSTORE POP DUP2 ADD SWAP1 PUSH3 0x3E4 SWAP2 SWAP1 PUSH3 0x1CA2 JUMP JUMPDEST PUSH3 0x478 JUMPI PUSH0 DUP2 DUP2 SLOAD DUP2 LT PUSH3 0x3FF JUMPI PUSH3 0x3FE PUSH3 0x1C46 JUMP JUMPDEST JUMPDEST SWAP1 PUSH0 MSTORE PUSH1 0x20 PUSH0 KECCAK256 ADD PUSH0 SWAP1 SLOAD SWAP1 PUSH2 0x100 EXP SWAP1 DIV PUSH20 0xFFFFFFFFFFFFFFFFFFFFFFFFFFFFFFFFFFFFFFFF AND DUP3 DUP3 DUP2 MLOAD DUP2 LT PUSH3 0x43D JUMPI PUSH3 0x43C PUSH3 0x1C46 JUMP JUMPDEST JUMPDEST PUSH1 0x20 MUL PUSH1 0x20 ADD ADD SWAP1 PUSH20 0xFFFFFFFFFFFFFFFFFFFFFFFFFFFFFFFFFFFFFFFF AND SWAP1 DUP2 PUSH20 0xFFFFFFFFFFFFFFFFFFFFFFFFFFFFFFFFFFFFFFFF AND DUP2 MSTORE POP POP JUMPDEST DUP1 DUP1 PUSH3 0x485 SWAP1 PUSH3 0x1CFF JUMP JUMPDEST SWAP2 POP POP PUSH3 0x32A JUMP JUMPDEST POP DUP1 SWAP2 POP POP SWAP1 JUMP JUMPDEST PUSH1 0x60 PUSH0 DUP1 DUP1 SLOAD SWAP1 POP PUSH8 0xFFFFFFFFFFFFFFFF DUP2 GT ISZERO PUSH3 0x4BA JUMPI PUSH3 0x4B9 PUSH3 0x1108 JUMP JUMPDEST JUMPDEST PUSH1 0x40 MLOAD SWAP1 DUP1 DUP3 MSTORE DUP1 PUSH1 0x20 MUL PUSH1 0x20 ADD DUP3 ADD PUSH1 0x40 MSTORE DUP1 ISZERO PUSH3 0x4F7 JUMPI DUP2 PUSH1 0x20 ADD JUMPDEST PUSH3 0x4E3 PUSH3 0x10A2 JUMP JUMPDEST DUP2 MSTORE PUSH1 0x20 ADD SWAP1 PUSH1 0x1 SWAP1 SUB SWAP1 DUP2 PUSH3 0x4D9 JUMPI SWAP1 POP JUMPDEST POP SWAP1 POP PUSH0 JUMPDEST PUSH0 DUP1 SLOAD SWAP1 POP DUP2 LT ISZERO PUSH3 0x70B JUMPI PUSH0 DUP2 DUP2 SLOAD DUP2 LT PUSH3 0x51F JUMPI PUSH3 0x51E PUSH3 0x1C46 JUMP JUMPDEST JUMPDEST SWAP1 PUSH0 MSTORE PUSH1 0x20 PUSH0 KECCAK256 ADD PUSH0 SWAP1 SLOAD SWAP1 PUSH2 0x100 EXP SWAP1 DIV PUSH20 0xFFFFFFFFFFFFFFFFFFFFFFFFFFFFFFFFFFFFFFFF AND PUSH20 0xFFFFFFFFFFFFFFFFFFFFFFFFFFFFFFFFFFFFFFFF AND PUSH4 0x9145A7FC PUSH1 0x40 MLOAD DUP2 PUSH4 0xFFFFFFFF AND PUSH1 0xE0 SHL DUP2 MSTORE PUSH1 0x4 ADD PUSH1 0x20 PUSH1 0x40 MLOAD DUP1 DUP4 SUB DUP2 DUP7 GAS STATICCALL ISZERO DUP1 ISZERO PUSH3 0x590 JUMPI RETURNDATASIZE PUSH0 DUP1 RETURNDATACOPY RETURNDATASIZE PUSH0 REVERT JUMPDEST POP POP POP POP PUSH1 0x40 MLOAD RETURNDATASIZE PUSH1 0x1F NOT PUSH1 0x1F DUP3 ADD AND DUP3 ADD DUP1 PUSH1 0x40 MSTORE POP DUP2 ADD SWAP1 PUSH3 0x5B6 SWAP2 SWAP1 PUSH3 0x1CA2 JUMP JUMPDEST ISZERO PUSH3 0x6F5 JUMPI PUSH1 0x40 MLOAD DUP1 PUSH1 0x40 ADD PUSH1 0x40 MSTORE DUP1 PUSH0 DUP4 DUP2 SLOAD DUP2 LT PUSH3 0x5DD JUMPI PUSH3 0x5DC PUSH3 0x1C46 JUMP JUMPDEST JUMPDEST SWAP1 PUSH0 MSTORE PUSH1 0x20 PUSH0 KECCAK256 ADD PUSH0 SWAP1 SLOAD SWAP1 PUSH2 0x100 EXP SWAP1 DIV PUSH20 0xFFFFFFFFFFFFFFFFFFFFFFFFFFFFFFFFFFFFFFFF AND PUSH20 0xFFFFFFFFFFFFFFFFFFFFFFFFFFFFFFFFFFFFFFFF AND DUP2 MSTORE PUSH1 0x20 ADD PUSH0 DUP4 DUP2 SLOAD DUP2 LT PUSH3 0x636 JUMPI PUSH3 0x635 PUSH3 0x1C46 JUMP JUMPDEST JUMPDEST SWAP1 PUSH0 MSTORE PUSH1 0x20 PUSH0 KECCAK256 ADD PUSH0 SWAP1 SLOAD SWAP1 PUSH2 0x100 EXP SWAP1 DIV PUSH20 0xFFFFFFFFFFFFFFFFFFFFFFFFFFFFFFFFFFFFFFFF AND PUSH20 0xFFFFFFFFFFFFFFFFFFFFFFFFFFFFFFFFFFFFFFFF AND PUSH4 0x4717F97C PUSH1 0x40 MLOAD DUP2 PUSH4 0xFFFFFFFF AND PUSH1 0xE0 SHL DUP2 MSTORE PUSH1 0x4 ADD PUSH0 PUSH1 0x40 MLOAD DUP1 DUP4 SUB DUP2 DUP7 GAS STATICCALL ISZERO DUP1 ISZERO PUSH3 0x6A6 JUMPI RETURNDATASIZE PUSH0 DUP1 RETURNDATACOPY RETURNDATASIZE PUSH0 REVERT JUMPDEST POP POP POP POP PUSH1 0x40 MLOAD RETURNDATASIZE PUSH0 DUP3 RETURNDATACOPY RETURNDATASIZE PUSH1 0x1F NOT PUSH1 0x1F DUP3 ADD AND DUP3 ADD DUP1 PUSH1 0x40 MSTORE POP DUP2 ADD SWAP1 PUSH3 0x6D0 SWAP2 SWAP1 PUSH3 0x1F4E JUMP JUMPDEST DUP2 MSTORE POP DUP3 DUP3 DUP2 MLOAD DUP2 LT PUSH3 0x6E9 JUMPI PUSH3 0x6E8 PUSH3 0x1C46 JUMP JUMPDEST JUMPDEST PUSH1 0x20 MUL PUSH1 0x20 ADD ADD DUP2 SWAP1 MSTORE POP JUMPDEST DUP1 DUP1 PUSH3 0x702 SWAP1 PUSH3 0x1CFF JUMP JUMPDEST SWAP2 POP POP PUSH3 0x4FC JUMP JUMPDEST POP DUP1 SWAP2 POP POP SWAP1 JUMP JUMPDEST PUSH1 0x3 PUSH1 0x20 MSTORE DUP3 PUSH0 MSTORE PUSH1 0x40 PUSH0 KECCAK256 PUSH1 0x20 MSTORE DUP2 PUSH0 MSTORE PUSH1 0x40 PUSH0 KECCAK256 PUSH1 0x20 MSTORE DUP1 PUSH0 MSTORE PUSH1 0x40 PUSH0 KECCAK256 PUSH0 SWAP3 POP SWAP3 POP POP SWAP1 SLOAD SWAP1 PUSH2 0x100 EXP SWAP1 DIV PUSH1 0xFF AND DUP2 JUMP JUMPDEST PUSH0 CALLER DUP6 DUP6 DUP6 DUP6 PUSH1 0x40 MLOAD PUSH3 0x75C SWAP1 PUSH3 0x10D1 JUMP JUMPDEST PUSH3 0x76C SWAP6 SWAP5 SWAP4 SWAP3 SWAP2 SWAP1 PUSH3 0x1BD6 JUMP JUMPDEST PUSH1 0x40 MLOAD DUP1 SWAP2 SUB SWAP1 PUSH0 CREATE DUP1 ISZERO DUP1 ISZERO PUSH3 0x786 JUMPI RETURNDATASIZE PUSH0 DUP1 RETURNDATACOPY RETURNDATASIZE PUSH0 REVERT JUMPDEST POP SWAP1 POP PUSH0 DUP2 SWAP1 DUP1 PUSH1 0x1 DUP2 SLOAD ADD DUP1 DUP3 SSTORE DUP1 SWAP2 POP POP PUSH1 0x1 SWAP1 SUB SWAP1 PUSH0 MSTORE PUSH1 0x20 PUSH0 KECCAK256 ADD PUSH0 SWAP1 SWAP2 SWAP1 SWAP2 SWAP1 SWAP2 PUSH2 0x100 EXP DUP2 SLOAD DUP2 PUSH20 0xFFFFFFFFFFFFFFFFFFFFFFFFFFFFFFFFFFFFFFFF MUL NOT AND SWAP1 DUP4 PUSH20 0xFFFFFFFFFFFFFFFFFFFFFFFFFFFFFFFFFFFFFFFF AND MUL OR SWAP1 SSTORE POP PUSH3 0x7F3 CALLER PUSH3 0xBDF JUMP JUMPDEST POP POP POP POP POP JUMP JUMPDEST PUSH1 0x2 PUSH1 0x20 MSTORE DUP1 PUSH0 MSTORE PUSH1 0x40 PUSH0 KECCAK256 PUSH0 SWAP2 POP SWAP1 POP DUP1 PUSH0 ADD PUSH0 SWAP1 SLOAD SWAP1 PUSH2 0x100 EXP SWAP1 DIV PUSH1 0xFF AND SWAP1 DUP1 PUSH1 0x1 ADD SLOAD SWAP1 DUP1 PUSH1 0x2 ADD SLOAD SWAP1 POP DUP4 JUMP JUMPDEST PUSH0 DUP2 DUP2 SLOAD DUP2 LT PUSH3 0x83B JUMPI PUSH0 DUP1 REVERT JUMPDEST SWAP1 PUSH0 MSTORE PUSH1 0x20 PUSH0 KECCAK256 ADD PUSH0 SWAP2 POP SLOAD SWAP1 PUSH2 0x100 EXP SWAP1 DIV PUSH20 0xFFFFFFFFFFFFFFFFFFFFFFFFFFFFFFFFFFFFFFFF AND DUP2 JUMP JUMPDEST PUSH1 0x1 DUP2 DUP2 SLOAD DUP2 LT PUSH3 0x877 JUMPI PUSH0 DUP1 REVERT JUMPDEST SWAP1 PUSH0 MSTORE PUSH1 0x20 PUSH0 KECCAK256 ADD PUSH0 SWAP2 POP SLOAD SWAP1 PUSH2 0x100 EXP SWAP1 DIV PUSH20 0xFFFFFFFFFFFFFFFFFFFFFFFFFFFFFFFFFFFFFFFF AND DUP2 JUMP JUMPDEST DUP2 PUSH3 0x8AF DUP2 PUSH3 0xCEB JUMP JUMPDEST PUSH3 0x8F1 JUMPI PUSH1 0x40 MLOAD PUSH32 0x8C379A000000000000000000000000000000000000000000000000000000000 DUP2 MSTORE PUSH1 0x4 ADD PUSH3 0x8E8 SWAP1 PUSH3 0x1FEB JUMP JUMPDEST PUSH1 0x40 MLOAD DUP1 SWAP2 SUB SWAP1 REVERT JUMPDEST PUSH0 DUP3 PUSH1 0xFF AND GT DUP1 ISZERO PUSH3 0x907 JUMPI POP PUSH1 0x6 DUP3 PUSH1 0xFF AND LT JUMPDEST PUSH3 0x910 JUMPI PUSH0 DUP1 REVERT JUMPDEST PUSH1 0x1 PUSH1 0x3 PUSH0 DUP6 PUSH20 0xFFFFFFFFFFFFFFFFFFFFFFFFFFFFFFFFFFFFFFFF AND PUSH4 0x2D05D3F PUSH1 0x40 MLOAD DUP2 PUSH4 0xFFFFFFFF AND PUSH1 0xE0 SHL DUP2 MSTORE PUSH1 0x4 ADD PUSH1 0x20 PUSH1 0x40 MLOAD DUP1 DUP4 SUB DUP2 DUP7 GAS STATICCALL ISZERO DUP1 ISZERO PUSH3 0x95F JUMPI RETURNDATASIZE PUSH0 DUP1 RETURNDATACOPY RETURNDATASIZE PUSH0 REVERT JUMPDEST POP POP POP POP PUSH1 0x40 MLOAD RETURNDATASIZE PUSH1 0x1F NOT PUSH1 0x1F DUP3 ADD AND DUP3 ADD DUP1 PUSH1 0x40 MSTORE POP DUP2 ADD SWAP1 PUSH3 0x985 SWAP2 SWAP1 PUSH3 0x2021 JUMP JUMPDEST PUSH20 0xFFFFFFFFFFFFFFFFFFFFFFFFFFFFFFFFFFFFFFFF AND PUSH20 0xFFFFFFFFFFFFFFFFFFFFFFFFFFFFFFFFFFFFFFFF AND DUP2 MSTORE PUSH1 0x20 ADD SWAP1 DUP2 MSTORE PUSH1 0x20 ADD PUSH0 KECCAK256 PUSH0 DUP6 PUSH20 0xFFFFFFFFFFFFFFFFFFFFFFFFFFFFFFFFFFFFFFFF AND PUSH20 0xFFFFFFFFFFFFFFFFFFFFFFFFFFFFFFFFFFFFFFFF AND DUP2 MSTORE PUSH1 0x20 ADD SWAP1 DUP2 MSTORE PUSH1 0x20 ADD PUSH0 KECCAK256 PUSH0 CALLER PUSH20 0xFFFFFFFFFFFFFFFFFFFFFFFFFFFFFFFFFFFFFFFF AND PUSH20 0xFFFFFFFFFFFFFFFFFFFFFFFFFFFFFFFFFFFFFFFF AND DUP2 MSTORE PUSH1 0x20 ADD SWAP1 DUP2 MSTORE PUSH1 0x20 ADD PUSH0 KECCAK256 PUSH0 PUSH2 0x100 EXP DUP2 SLOAD DUP2 PUSH1 0xFF MUL NOT AND SWAP1 DUP4 ISZERO ISZERO MUL OR SWAP1 SSTORE POP DUP2 PUSH1 0xFF AND PUSH1 0x2 PUSH0 DUP6 PUSH20 0xFFFFFFFFFFFFFFFFFFFFFFFFFFFFFFFFFFFFFFFF AND PUSH4 0x2D05D3F PUSH1 0x40 MLOAD DUP2 PUSH4 0xFFFFFFFF AND PUSH1 0xE0 SHL DUP2 MSTORE PUSH1 0x4 ADD PUSH1 0x20 PUSH1 0x40 MLOAD DUP1 DUP4 SUB DUP2 DUP7 GAS STATICCALL ISZERO DUP1 ISZERO PUSH3 0xA9B JUMPI RETURNDATASIZE PUSH0 DUP1 RETURNDATACOPY RETURNDATASIZE PUSH0 REVERT JUMPDEST POP POP POP POP PUSH1 0x40 MLOAD RETURNDATASIZE PUSH1 0x1F NOT PUSH1 0x1F DUP3 ADD AND DUP3 ADD DUP1 PUSH1 0x40 MSTORE POP DUP2 ADD SWAP1 PUSH3 0xAC1 SWAP2 SWAP1 PUSH3 0x2021 JUMP JUMPDEST PUSH20 0xFFFFFFFFFFFFFFFFFFFFFFFFFFFFFFFFFFFFFFFF AND PUSH20 0xFFFFFFFFFFFFFFFFFFFFFFFFFFFFFFFFFFFFFFFF AND DUP2 MSTORE PUSH1 0x20 ADD SWAP1 DUP2 MSTORE PUSH1 0x20 ADD PUSH0 KECCAK256 PUSH1 0x1 ADD PUSH0 DUP3 DUP3 SLOAD PUSH3 0xB0D SWAP2 SWAP1 PUSH3 0x2051 JUMP JUMPDEST SWAP3 POP POP DUP2 SWAP1 SSTORE POP PUSH1 0x2 PUSH0 DUP5 PUSH20 0xFFFFFFFFFFFFFFFFFFFFFFFFFFFFFFFFFFFFFFFF AND PUSH4 0x2D05D3F PUSH1 0x40 MLOAD DUP2 PUSH4 0xFFFFFFFF AND PUSH1 0xE0 SHL DUP2 MSTORE PUSH1 0x4 ADD PUSH1 0x20 PUSH1 0x40 MLOAD DUP1 DUP4 SUB DUP2 DUP7 GAS STATICCALL ISZERO DUP1 ISZERO PUSH3 0xB61 JUMPI RETURNDATASIZE PUSH0 DUP1 RETURNDATACOPY RETURNDATASIZE PUSH0 REVERT JUMPDEST POP POP POP POP PUSH1 0x40 MLOAD RETURNDATASIZE PUSH1 0x1F NOT PUSH1 0x1F DUP3 ADD AND DUP3 ADD DUP1 PUSH1 0x40 MSTORE POP DUP2 ADD SWAP1 PUSH3 0xB87 SWAP2 SWAP1 PUSH3 0x2021 JUMP JUMPDEST PUSH20 0xFFFFFFFFFFFFFFFFFFFFFFFFFFFFFFFFFFFFFFFF AND PUSH20 0xFFFFFFFFFFFFFFFFFFFFFFFFFFFFFFFFFFFFFFFF AND DUP2 MSTORE PUSH1 0x20 ADD SWAP1 DUP2 MSTORE PUSH1 0x20 ADD PUSH0 KECCAK256 PUSH1 0x2 ADD PUSH0 DUP2 SLOAD DUP1 SWAP3 SWAP2 SWAP1 PUSH3 0xBD5 SWAP1 PUSH3 0x1CFF JUMP JUMPDEST SWAP2 SWAP1 POP SSTORE POP POP POP POP JUMP JUMPDEST PUSH1 0x2 PUSH0 DUP3 PUSH20 0xFFFFFFFFFFFFFFFFFFFFFFFFFFFFFFFFFFFFFFFF AND PUSH20 0xFFFFFFFFFFFFFFFFFFFFFFFFFFFFFFFFFFFFFFFF AND DUP2 MSTORE PUSH1 0x20 ADD SWAP1 DUP2 MSTORE PUSH1 0x20 ADD PUSH0 KECCAK256 PUSH0 ADD PUSH0 SWAP1 SLOAD SWAP1 PUSH2 0x100 EXP SWAP1 DIV PUSH1 0xFF AND PUSH3 0xCE8 JUMPI PUSH1 0x1 PUSH1 0x2 PUSH0 DUP4 PUSH20 0xFFFFFFFFFFFFFFFFFFFFFFFFFFFFFFFFFFFFFFFF AND PUSH20 0xFFFFFFFFFFFFFFFFFFFFFFFFFFFFFFFFFFFFFFFF AND DUP2 MSTORE PUSH1 0x20 ADD SWAP1 DUP2 MSTORE PUSH1 0x20 ADD PUSH0 KECCAK256 PUSH0 ADD PUSH0 PUSH2 0x100 EXP DUP2 SLOAD DUP2 PUSH1 0xFF MUL NOT AND SWAP1 DUP4 ISZERO ISZERO MUL OR SWAP1 SSTORE POP PUSH1 0x1 DUP2 SWAP1 DUP1 PUSH1 0x1 DUP2 SLOAD ADD DUP1 DUP3 SSTORE DUP1 SWAP2 POP POP PUSH1 0x1 SWAP1 SUB SWAP1 PUSH0 MSTORE PUSH1 0x20 PUSH0 KECCAK256 ADD PUSH0 SWAP1 SWAP2 SWAP1 SWAP2 SWAP1 SWAP2 PUSH2 0x100 EXP DUP2 SLOAD DUP2 PUSH20 0xFFFFFFFFFFFFFFFFFFFFFFFFFFFFFFFFFFFFFFFF MUL NOT AND SWAP1 DUP4 PUSH20 0xFFFFFFFFFFFFFFFFFFFFFFFFFFFFFFFFFFFFFFFF AND MUL OR SWAP1 SSTORE POP JUMPDEST POP JUMP JUMPDEST PUSH0 CALLER PUSH20 0xFFFFFFFFFFFFFFFFFFFFFFFFFFFFFFFFFFFFFFFF AND DUP3 PUSH20 0xFFFFFFFFFFFFFFFFFFFFFFFFFFFFFFFFFFFFFFFF AND PUSH4 0x2D05D3F PUSH1 0x40 MLOAD DUP2 PUSH4 0xFFFFFFFF AND PUSH1 0xE0 SHL DUP2 MSTORE PUSH1 0x4 ADD PUSH1 0x20 PUSH1 0x40 MLOAD DUP1 DUP4 SUB DUP2 DUP7 GAS STATICCALL ISZERO DUP1 ISZERO PUSH3 0xD4D JUMPI RETURNDATASIZE PUSH0 DUP1 RETURNDATACOPY RETURNDATASIZE PUSH0 REVERT JUMPDEST POP POP POP POP PUSH1 0x40 MLOAD RETURNDATASIZE PUSH1 0x1F NOT PUSH1 0x1F DUP3 ADD AND DUP3 ADD DUP1 PUSH1 0x40 MSTORE POP DUP2 ADD SWAP1 PUSH3 0xD73 SWAP2 SWAP1 PUSH3 0x2021 JUMP JUMPDEST PUSH20 0xFFFFFFFFFFFFFFFFFFFFFFFFFFFFFFFFFFFFFFFF AND EQ DUP1 PUSH3 0xE4E JUMPI POP PUSH1 0x2 PUSH0 DUP4 PUSH20 0xFFFFFFFFFFFFFFFFFFFFFFFFFFFFFFFFFFFFFFFF AND PUSH4 0x2D05D3F PUSH1 0x40 MLOAD DUP2 PUSH4 0xFFFFFFFF AND PUSH1 0xE0 SHL DUP2 MSTORE PUSH1 0x4 ADD PUSH1 0x20 PUSH1 0x40 MLOAD DUP1 DUP4 SUB DUP2 DUP7 GAS STATICCALL ISZERO DUP1 ISZERO PUSH3 0xDDE JUMPI RETURNDATASIZE PUSH0 DUP1 RETURNDATACOPY RETURNDATASIZE PUSH0 REVERT JUMPDEST POP POP POP POP PUSH1 0x40 MLOAD RETURNDATASIZE PUSH1 0x1F NOT PUSH1 0x1F DUP3 ADD AND DUP3 ADD DUP1 PUSH1 0x40 MSTORE POP DUP2 ADD SWAP1 PUSH3 0xE04 SWAP2 SWAP1 PUSH3 0x2021 JUMP JUMPDEST PUSH20 0xFFFFFFFFFFFFFFFFFFFFFFFFFFFFFFFFFFFFFFFF AND PUSH20 0xFFFFFFFFFFFFFFFFFFFFFFFFFFFFFFFFFFFFFFFF AND DUP2 MSTORE PUSH1 0x20 ADD SWAP1 DUP2 MSTORE PUSH1 0x20 ADD PUSH0 KECCAK256 PUSH0 ADD PUSH0 SWAP1 SLOAD SWAP1 PUSH2 0x100 EXP SWAP1 DIV PUSH1 0xFF AND ISZERO JUMPDEST DUP1 PUSH3 0xED4 JUMPI POP DUP2 PUSH20 0xFFFFFFFFFFFFFFFFFFFFFFFFFFFFFFFFFFFFFFFF AND PUSH4 0x9EEF43E CALLER PUSH1 0x40 MLOAD DUP3 PUSH4 0xFFFFFFFF AND PUSH1 0xE0 SHL DUP2 MSTORE PUSH1 0x4 ADD PUSH3 0xE90 SWAP2 SWAP1 PUSH3 0x1A22 JUMP JUMPDEST PUSH1 0x20 PUSH1 0x40 MLOAD DUP1 DUP4 SUB DUP2 DUP7 GAS STATICCALL ISZERO DUP1 ISZERO PUSH3 0xEAC JUMPI RETURNDATASIZE PUSH0 DUP1 RETURNDATACOPY RETURNDATASIZE PUSH0 REVERT JUMPDEST POP POP POP POP PUSH1 0x40 MLOAD RETURNDATASIZE PUSH1 0x1F NOT PUSH1 0x1F DUP3 ADD AND DUP3 ADD DUP1 PUSH1 0x40 MSTORE POP DUP2 ADD SWAP1 PUSH3 0xED2 SWAP2 SWAP1 PUSH3 0x1CA2 JUMP JUMPDEST ISZERO JUMPDEST DUP1 PUSH3 0xF4D JUMPI POP DUP2 PUSH20 0xFFFFFFFFFFFFFFFFFFFFFFFFFFFFFFFFFFFFFFFF AND PUSH4 0x9145A7FC PUSH1 0x40 MLOAD DUP2 PUSH4 0xFFFFFFFF AND PUSH1 0xE0 SHL DUP2 MSTORE PUSH1 0x4 ADD PUSH1 0x20 PUSH1 0x40 MLOAD DUP1 DUP4 SUB DUP2 DUP7 GAS STATICCALL ISZERO DUP1 ISZERO PUSH3 0xF25 JUMPI RETURNDATASIZE PUSH0 DUP1 RETURNDATACOPY RETURNDATASIZE PUSH0 REVERT JUMPDEST POP POP POP POP PUSH1 0x40 MLOAD RETURNDATASIZE PUSH1 0x1F NOT PUSH1 0x1F DUP3 ADD AND DUP3 ADD DUP1 PUSH1 0x40 MSTORE POP DUP2 ADD SWAP1 PUSH3 0xF4B SWAP2 SWAP1 PUSH3 0x1CA2 JUMP JUMPDEST ISZERO JUMPDEST ISZERO PUSH3 0xF5C JUMPI PUSH0 SWAP1 POP PUSH3 0x108F JUMP JUMPDEST PUSH1 0x3 PUSH0 DUP4 PUSH20 0xFFFFFFFFFFFFFFFFFFFFFFFFFFFFFFFFFFFFFFFF AND PUSH4 0x2D05D3F PUSH1 0x40 MLOAD DUP2 PUSH4 0xFFFFFFFF AND PUSH1 0xE0 SHL DUP2 MSTORE PUSH1 0x4 ADD PUSH1 0x20 PUSH1 0x40 MLOAD DUP1 DUP4 SUB DUP2 DUP7 GAS STATICCALL ISZERO DUP1 ISZERO PUSH3 0xFA9 JUMPI RETURNDATASIZE PUSH0 DUP1 RETURNDATACOPY RETURNDATASIZE PUSH0 REVERT JUMPDEST POP POP POP POP PUSH1 0x40 MLOAD RETURNDATASIZE PUSH1 0x1F NOT PUSH1 0x1F DUP3 ADD AND DUP3 ADD DUP1 PUSH1 0x40 MSTORE POP DUP2 ADD SWAP1 PUSH3 0xFCF SWAP2 SWAP1 PUSH3 0x2021 JUMP JUMPDEST PUSH20 0xFFFFFFFFFFFFFFFFFFFFFFFFFFFFFFFFFFFFFFFF AND PUSH20 0xFFFFFFFFFFFFFFFFFFFFFFFFFFFFFFFFFFFFFFFF AND DUP2 MSTORE PUSH1 0x20 ADD SWAP1 DUP2 MSTORE PUSH1 0x20 ADD PUSH0 KECCAK256 PUSH0 DUP4 PUSH20 0xFFFFFFFFFFFFFFFFFFFFFFFFFFFFFFFFFFFFFFFF AND PUSH20 0xFFFFFFFFFFFFFFFFFFFFFFFFFFFFFFFFFFFFFFFF AND DUP2 MSTORE PUSH1 0x20 ADD SWAP1 DUP2 MSTORE PUSH1 0x20 ADD PUSH0 KECCAK256 PUSH0 CALLER PUSH20 0xFFFFFFFFFFFFFFFFFFFFFFFFFFFFFFFFFFFFFFFF AND PUSH20 0xFFFFFFFFFFFFFFFFFFFFFFFFFFFFFFFFFFFFFFFF AND DUP2 MSTORE PUSH1 0x20 ADD SWAP1 DUP2 MSTORE PUSH1 0x20 ADD PUSH0 KECCAK256 PUSH0 SWAP1 SLOAD SWAP1 PUSH2 0x100 EXP SWAP1 DIV PUSH1 0xFF AND ISZERO SWAP1 POP JUMPDEST SWAP2 SWAP1 POP JUMP JUMPDEST PUSH2 0x1E61 DUP1 PUSH3 0x208C DUP4 CODECOPY ADD SWAP1 JUMP JUMPDEST PUSH1 0x40 MLOAD DUP1 PUSH1 0x40 ADD PUSH1 0x40 MSTORE DUP1 PUSH0 PUSH20 0xFFFFFFFFFFFFFFFFFFFFFFFFFFFFFFFFFFFFFFFF AND DUP2 MSTORE PUSH1 0x20 ADD PUSH1 0x60 DUP2 MSTORE POP SWAP1 JUMP JUMPDEST PUSH2 0x1D61 DUP1 PUSH3 0x3EED DUP4 CODECOPY ADD SWAP1 JUMP JUMPDEST PUSH0 PUSH1 0x40 MLOAD SWAP1 POP SWAP1 JUMP JUMPDEST PUSH0 DUP1 REVERT JUMPDEST PUSH0 DUP1 REVERT JUMPDEST PUSH0 DUP1 REVERT JUMPDEST PUSH0 DUP1 REVERT JUMPDEST PUSH0 PUSH1 0x1F NOT PUSH1 0x1F DUP4 ADD AND SWAP1 POP SWAP2 SWAP1 POP JUMP JUMPDEST PUSH32 0x4E487B7100000000000000000000000000000000000000000000000000000000 PUSH0 MSTORE PUSH1 0x41 PUSH1 0x4 MSTORE PUSH1 0x24 PUSH0 REVERT JUMPDEST PUSH3 0x1140 DUP3 PUSH3 0x10F8 JUMP JUMPDEST DUP2 ADD DUP2 DUP2 LT PUSH8 0xFFFFFFFFFFFFFFFF DUP3 GT OR ISZERO PUSH3 0x1162 JUMPI PUSH3 0x1161 PUSH3 0x1108 JUMP JUMPDEST JUMPDEST DUP1 PUSH1 0x40 MSTORE POP POP POP JUMP JUMPDEST PUSH0 PUSH3 0x1176 PUSH3 0x10DF JUMP JUMPDEST SWAP1 POP PUSH3 0x1184 DUP3 DUP3 PUSH3 0x1135 JUMP JUMPDEST SWAP2 SWAP1 POP JUMP JUMPDEST PUSH0 PUSH8 0xFFFFFFFFFFFFFFFF DUP3 GT ISZERO PUSH3 0x11A6 JUMPI PUSH3 0x11A5 PUSH3 0x1108 JUMP JUMPDEST JUMPDEST PUSH3 0x11B1 DUP3 PUSH3 0x10F8 JUMP JUMPDEST SWAP1 POP PUSH1 0x20 DUP2 ADD SWAP1 POP SWAP2 SWAP1 POP JUMP JUMPDEST DUP3 DUP2 DUP4 CALLDATACOPY PUSH0 DUP4 DUP4 ADD MSTORE POP POP POP JUMP JUMPDEST PUSH0 PUSH3 0x11E2 PUSH3 0x11DC DUP5 PUSH3 0x1189 JUMP JUMPDEST PUSH3 0x116B JUMP JUMPDEST SWAP1 POP DUP3 DUP2 MSTORE PUSH1 0x20 DUP2 ADD DUP5 DUP5 DUP5 ADD GT ISZERO PUSH3 0x1201 JUMPI PUSH3 0x1200 PUSH3 0x10F4 JUMP JUMPDEST JUMPDEST PUSH3 0x120E DUP5 DUP3 DUP6 PUSH3 0x11BE JUMP JUMPDEST POP SWAP4 SWAP3 POP POP POP JUMP JUMPDEST PUSH0 DUP3 PUSH1 0x1F DUP4 ADD SLT PUSH3 0x122D JUMPI PUSH3 0x122C PUSH3 0x10F0 JUMP JUMPDEST JUMPDEST DUP2 CALLDATALOAD PUSH3 0x123F DUP5 DUP3 PUSH1 0x20 DUP7 ADD PUSH3 0x11CC JUMP JUMPDEST SWAP2 POP POP SWAP3 SWAP2 POP POP JUMP JUMPDEST PUSH0 PUSH8 0xFFFFFFFFFFFFFFFF DUP3 GT ISZERO PUSH3 0x1265 JUMPI PUSH3 0x1264 PUSH3 0x1108 JUMP JUMPDEST JUMPDEST PUSH1 0x20 DUP3 MUL SWAP1 POP PUSH1 0x20 DUP2 ADD SWAP1 POP SWAP2 SWAP1 POP JUMP JUMPDEST PUSH0 DUP1 REVERT JUMPDEST PUSH0 PUSH3 0x1290 PUSH3 0x128A DUP5 PUSH3 0x1248 JUMP JUMPDEST PUSH3 0x116B JUMP JUMPDEST SWAP1 POP DUP1 DUP4 DUP3 MSTORE PUSH1 0x20 DUP3 ADD SWAP1 POP PUSH1 0x20 DUP5 MUL DUP4 ADD DUP6 DUP2 GT ISZERO PUSH3 0x12B6 JUMPI PUSH3 0x12B5 PUSH3 0x1276 JUMP JUMPDEST JUMPDEST DUP4 JUMPDEST DUP2 DUP2 LT ISZERO PUSH3 0x1304 JUMPI DUP1 CALLDATALOAD PUSH8 0xFFFFFFFFFFFFFFFF DUP2 GT ISZERO PUSH3 0x12DF JUMPI PUSH3 0x12DE PUSH3 0x10F0 JUMP JUMPDEST JUMPDEST DUP1 DUP7 ADD PUSH3 0x12EE DUP10 DUP3 PUSH3 0x1216 JUMP JUMPDEST DUP6 MSTORE PUSH1 0x20 DUP6 ADD SWAP5 POP POP POP PUSH1 0x20 DUP2 ADD SWAP1 POP PUSH3 0x12B8 JUMP JUMPDEST POP POP POP SWAP4 SWAP3 POP POP POP JUMP JUMPDEST PUSH0 DUP3 PUSH1 0x1F DUP4 ADD SLT PUSH3 0x1325 JUMPI PUSH3 0x1324 PUSH3 0x10F0 JUMP JUMPDEST JUMPDEST DUP2 CALLDATALOAD PUSH3 0x1337 DUP5 DUP3 PUSH1 0x20 DUP7 ADD PUSH3 0x127A JUMP JUMPDEST SWAP2 POP POP SWAP3 SWAP2 POP POP JUMP JUMPDEST PUSH0 DUP2 SWAP1 POP SWAP2 SWAP1 POP JUMP JUMPDEST PUSH3 0x1354 DUP2 PUSH3 0x1340 JUMP JUMPDEST DUP2 EQ PUSH3 0x135F JUMPI PUSH0 DUP1 REVERT JUMPDEST POP JUMP JUMPDEST PUSH0 DUP2 CALLDATALOAD SWAP1 POP PUSH3 0x1372 DUP2 PUSH3 0x1349 JUMP JUMPDEST SWAP3 SWAP2 POP POP JUMP JUMPDEST PUSH0 DUP1 PUSH0 DUP1 PUSH1 0x80 DUP6 DUP8 SUB SLT ISZERO PUSH3 0x1393 JUMPI PUSH3 0x1392 PUSH3 0x10E8 JUMP JUMPDEST JUMPDEST PUSH0 DUP6 ADD CALLDATALOAD PUSH8 0xFFFFFFFFFFFFFFFF DUP2 GT ISZERO PUSH3 0x13B3 JUMPI PUSH3 0x13B2 PUSH3 0x10EC JUMP JUMPDEST JUMPDEST PUSH3 0x13C1 DUP8 DUP3 DUP9 ADD PUSH3 0x1216 JUMP JUMPDEST SWAP5 POP POP PUSH1 0x20 DUP6 ADD CALLDATALOAD PUSH8 0xFFFFFFFFFFFFFFFF DUP2 GT ISZERO PUSH3 0x13E5 JUMPI PUSH3 0x13E4 PUSH3 0x10EC JUMP JUMPDEST JUMPDEST PUSH3 0x13F3 DUP8 DUP3 DUP9 ADD PUSH3 0x1216 JUMP JUMPDEST SWAP4 POP POP PUSH1 0x40 DUP6 ADD CALLDATALOAD PUSH8 0xFFFFFFFFFFFFFFFF DUP2 GT ISZERO PUSH3 0x1417 JUMPI PUSH3 0x1416 PUSH3 0x10EC JUMP JUMPDEST JUMPDEST PUSH3 0x1425 DUP8 DUP3 DUP9 ADD PUSH3 0x130E JUMP JUMPDEST SWAP3 POP POP PUSH1 0x60 PUSH3 0x1438 DUP8 DUP3 DUP9 ADD PUSH3 0x1362 JUMP JUMPDEST SWAP2 POP POP SWAP3 SWAP6 SWAP2 SWAP5 POP SWAP3 POP JUMP JUMPDEST PUSH0 DUP2 MLOAD SWAP1 POP SWAP2 SWAP1 POP JUMP JUMPDEST PUSH0 DUP3 DUP3 MSTORE PUSH1 0x20 DUP3 ADD SWAP1 POP SWAP3 SWAP2 POP POP JUMP JUMPDEST PUSH0 DUP2 SWAP1 POP PUSH1 0x20 DUP3 ADD SWAP1 POP SWAP2 SWAP1 POP JUMP JUMPDEST PUSH0 PUSH20 0xFFFFFFFFFFFFFFFFFFFFFFFFFFFFFFFFFFFFFFFF DUP3 AND SWAP1 POP SWAP2 SWAP1 POP JUMP JUMPDEST PUSH0 DUP2 SWAP1 POP SWAP2 SWAP1 POP JUMP JUMPDEST PUSH0 PUSH3 0x14B5 PUSH3 0x14AF PUSH3 0x14A9 DUP5 PUSH3 0x146D JUMP JUMPDEST PUSH3 0x148C JUMP JUMPDEST PUSH3 0x146D JUMP JUMPDEST SWAP1 POP SWAP2 SWAP1 POP JUMP JUMPDEST PUSH0 PUSH3 0x14C8 DUP3 PUSH3 0x1495 JUMP JUMPDEST SWAP1 POP SWAP2 SWAP1 POP JUMP JUMPDEST PUSH0 PUSH3 0x14DB DUP3 PUSH3 0x14BC JUMP JUMPDEST SWAP1 POP SWAP2 SWAP1 POP JUMP JUMPDEST PUSH3 0x14ED DUP2 PUSH3 0x14CF JUMP JUMPDEST DUP3 MSTORE POP POP JUMP JUMPDEST PUSH0 PUSH3 0x1500 DUP4 DUP4 PUSH3 0x14E2 JUMP JUMPDEST PUSH1 0x20 DUP4 ADD SWAP1 POP SWAP3 SWAP2 POP POP JUMP JUMPDEST PUSH0 PUSH1 0x20 DUP3 ADD SWAP1 POP SWAP2 SWAP1 POP JUMP JUMPDEST PUSH0 PUSH3 0x1524 DUP3 PUSH3 0x1444 JUMP JUMPDEST PUSH3 0x1530 DUP2 DUP6 PUSH3 0x144E JUMP JUMPDEST SWAP4 POP PUSH3 0x153D DUP4 PUSH3 0x145E JUMP JUMPDEST DUP1 PUSH0 JUMPDEST DUP4 DUP2 LT ISZERO PUSH3 0x1573 JUMPI DUP2 MLOAD PUSH3 0x1557 DUP9 DUP3 PUSH3 0x14F3 JUMP JUMPDEST SWAP8 POP PUSH3 0x1564 DUP4 PUSH3 0x150C JUMP JUMPDEST SWAP3 POP POP PUSH1 0x1 DUP2 ADD SWAP1 POP PUSH3 0x1540 JUMP JUMPDEST POP DUP6 SWAP4 POP POP POP POP SWAP3 SWAP2 POP POP JUMP JUMPDEST PUSH0 PUSH1 0x20 DUP3 ADD SWAP1 POP DUP2 DUP2 SUB PUSH0 DUP4 ADD MSTORE PUSH3 0x159A DUP2 DUP5 PUSH3 0x1518 JUMP JUMPDEST SWAP1 POP SWAP3 SWAP2 POP POP JUMP JUMPDEST PUSH0 DUP2 MLOAD SWAP1 POP SWAP2 SWAP1 POP JUMP JUMPDEST PUSH0 DUP3 DUP3 MSTORE PUSH1 0x20 DUP3 ADD SWAP1 POP SWAP3 SWAP2 POP POP JUMP JUMPDEST PUSH0 DUP2 SWAP1 POP PUSH1 0x20 DUP3 ADD SWAP1 POP SWAP2 SWAP1 POP JUMP JUMPDEST PUSH0 DUP2 MLOAD SWAP1 POP SWAP2 SWAP1 POP JUMP JUMPDEST PUSH0 DUP3 DUP3 MSTORE PUSH1 0x20 DUP3 ADD SWAP1 POP SWAP3 SWAP2 POP POP JUMP JUMPDEST PUSH0 DUP2 SWAP1 POP PUSH1 0x20 DUP3 ADD SWAP1 POP SWAP2 SWAP1 POP JUMP JUMPDEST PUSH0 DUP2 MLOAD SWAP1 POP SWAP2 SWAP1 POP JUMP JUMPDEST PUSH0 DUP3 DUP3 MSTORE PUSH1 0x20 DUP3 ADD SWAP1 POP SWAP3 SWAP2 POP POP JUMP JUMPDEST PUSH0 JUMPDEST DUP4 DUP2 LT ISZERO PUSH3 0x162D JUMPI DUP1 DUP3 ADD MLOAD DUP2 DUP5 ADD MSTORE PUSH1 0x20 DUP2 ADD SWAP1 POP PUSH3 0x1610 JUMP JUMPDEST PUSH0 DUP5 DUP5 ADD MSTORE POP POP POP POP JUMP JUMPDEST PUSH0 PUSH3 0x1644 DUP3 PUSH3 0x15F4 JUMP JUMPDEST PUSH3 0x1650 DUP2 DUP6 PUSH3 0x15FE JUMP JUMPDEST SWAP4 POP PUSH3 0x1662 DUP2 DUP6 PUSH1 0x20 DUP7 ADD PUSH3 0x160E JUMP JUMPDEST PUSH3 0x166D DUP2 PUSH3 0x10F8 JUMP JUMPDEST DUP5 ADD SWAP2 POP POP SWAP3 SWAP2 POP POP JUMP JUMPDEST PUSH3 0x1683 DUP2 PUSH3 0x1340 JUMP JUMPDEST DUP3 MSTORE POP POP JUMP JUMPDEST PUSH0 PUSH1 0x40 DUP4 ADD PUSH0 DUP4 ADD MLOAD DUP5 DUP3 SUB PUSH0 DUP7 ADD MSTORE PUSH3 0x16A5 DUP3 DUP3 PUSH3 0x1638 JUMP JUMPDEST SWAP2 POP POP PUSH1 0x20 DUP4 ADD MLOAD PUSH3 0x16BC PUSH1 0x20 DUP7 ADD DUP3 PUSH3 0x1678 JUMP JUMPDEST POP DUP1 SWAP2 POP POP SWAP3 SWAP2 POP POP JUMP JUMPDEST PUSH0 PUSH3 0x16D4 DUP4 DUP4 PUSH3 0x1689 JUMP JUMPDEST SWAP1 POP SWAP3 SWAP2 POP POP JUMP JUMPDEST PUSH0 PUSH1 0x20 DUP3 ADD SWAP1 POP SWAP2 SWAP1 POP JUMP JUMPDEST PUSH0 PUSH3 0x16F4 DUP3 PUSH3 0x15CB JUMP JUMPDEST PUSH3 0x1700 DUP2 DUP6 PUSH3 0x15D5 JUMP JUMPDEST SWAP4 POP DUP4 PUSH1 0x20 DUP3 MUL DUP6 ADD PUSH3 0x1714 DUP6 PUSH3 0x15E5 JUMP JUMPDEST DUP1 PUSH0 JUMPDEST DUP6 DUP2 LT ISZERO PUSH3 0x1755 JUMPI DUP5 DUP5 SUB DUP10 MSTORE DUP2 MLOAD PUSH3 0x1733 DUP6 DUP3 PUSH3 0x16C7 JUMP JUMPDEST SWAP5 POP PUSH3 0x1740 DUP4 PUSH3 0x16DC JUMP JUMPDEST SWAP3 POP PUSH1 0x20 DUP11 ADD SWAP10 POP POP PUSH1 0x1 DUP2 ADD SWAP1 POP PUSH3 0x1717 JUMP JUMPDEST POP DUP3 SWAP8 POP DUP8 SWAP6 POP POP POP POP POP POP SWAP3 SWAP2 POP POP JUMP JUMPDEST PUSH0 PUSH1 0x40 DUP4 ADD PUSH0 DUP4 ADD MLOAD PUSH3 0x177E PUSH0 DUP7 ADD DUP3 PUSH3 0x14E2 JUMP JUMPDEST POP PUSH1 0x20 DUP4 ADD MLOAD DUP5 DUP3 SUB PUSH1 0x20 DUP7 ADD MSTORE PUSH3 0x1798 DUP3 DUP3 PUSH3 0x16E8 JUMP JUMPDEST SWAP2 POP POP DUP1 SWAP2 POP POP SWAP3 SWAP2 POP POP JUMP JUMPDEST PUSH0 PUSH3 0x17B2 DUP4 DUP4 PUSH3 0x1767 JUMP JUMPDEST SWAP1 POP SWAP3 SWAP2 POP POP JUMP JUMPDEST PUSH0 PUSH1 0x20 DUP3 ADD SWAP1 POP SWAP2 SWAP1 POP JUMP JUMPDEST PUSH0 PUSH3 0x17D2 DUP3 PUSH3 0x15A2 JUMP JUMPDEST PUSH3 0x17DE DUP2 DUP6 PUSH3 0x15AC JUMP JUMPDEST SWAP4 POP DUP4 PUSH1 0x20 DUP3 MUL DUP6 ADD PUSH3 0x17F2 DUP6 PUSH3 0x15BC JUMP JUMPDEST DUP1 PUSH0 JUMPDEST DUP6 DUP2 LT ISZERO PUSH3 0x1833 JUMPI DUP5 DUP5 SUB DUP10 MSTORE DUP2 MLOAD PUSH3 0x1811 DUP6 DUP3 PUSH3 0x17A5 JUMP JUMPDEST SWAP5 POP PUSH3 0x181E DUP4 PUSH3 0x17BA JUMP JUMPDEST SWAP3 POP PUSH1 0x20 DUP11 ADD SWAP10 POP POP PUSH1 0x1 DUP2 ADD SWAP1 POP PUSH3 0x17F5 JUMP JUMPDEST POP DUP3 SWAP8 POP DUP8 SWAP6 POP POP POP POP POP POP SWAP3 SWAP2 POP POP JUMP JUMPDEST PUSH0 PUSH1 0x20 DUP3 ADD SWAP1 POP DUP2 DUP2 SUB PUSH0 DUP4 ADD MSTORE PUSH3 0x185F DUP2 DUP5 PUSH3 0x17C6 JUMP JUMPDEST SWAP1 POP SWAP3 SWAP2 POP POP JUMP JUMPDEST PUSH0 PUSH3 0x1873 DUP3 PUSH3 0x146D JUMP JUMPDEST SWAP1 POP SWAP2 SWAP1 POP JUMP JUMPDEST PUSH3 0x1885 DUP2 PUSH3 0x1867 JUMP JUMPDEST DUP2 EQ PUSH3 0x1890 JUMPI PUSH0 DUP1 REVERT JUMPDEST POP JUMP JUMPDEST PUSH0 DUP2 CALLDATALOAD SWAP1 POP PUSH3 0x18A3 DUP2 PUSH3 0x187A JUMP JUMPDEST SWAP3 SWAP2 POP POP JUMP JUMPDEST PUSH0 DUP1 PUSH0 PUSH1 0x60 DUP5 DUP7 SUB SLT ISZERO PUSH3 0x18C3 JUMPI PUSH3 0x18C2 PUSH3 0x10E8 JUMP JUMPDEST JUMPDEST PUSH0 PUSH3 0x18D2 DUP7 DUP3 DUP8 ADD PUSH3 0x1893 JUMP JUMPDEST SWAP4 POP POP PUSH1 0x20 PUSH3 0x18E5 DUP7 DUP3 DUP8 ADD PUSH3 0x1893 JUMP JUMPDEST SWAP3 POP POP PUSH1 0x40 PUSH3 0x18F8 DUP7 DUP3 DUP8 ADD PUSH3 0x1893 JUMP JUMPDEST SWAP2 POP POP SWAP3 POP SWAP3 POP SWAP3 JUMP JUMPDEST PUSH0 DUP2 ISZERO ISZERO SWAP1 POP SWAP2 SWAP1 POP JUMP JUMPDEST PUSH3 0x1918 DUP2 PUSH3 0x1902 JUMP JUMPDEST DUP3 MSTORE POP POP JUMP JUMPDEST PUSH0 PUSH1 0x20 DUP3 ADD SWAP1 POP PUSH3 0x1933 PUSH0 DUP4 ADD DUP5 PUSH3 0x190D JUMP JUMPDEST SWAP3 SWAP2 POP POP JUMP JUMPDEST PUSH0 PUSH1 0x20 DUP3 DUP5 SUB SLT ISZERO PUSH3 0x1951 JUMPI PUSH3 0x1950 PUSH3 0x10E8 JUMP JUMPDEST JUMPDEST PUSH0 PUSH3 0x1960 DUP5 DUP3 DUP6 ADD PUSH3 0x1893 JUMP JUMPDEST SWAP2 POP POP SWAP3 SWAP2 POP POP JUMP JUMPDEST PUSH3 0x1974 DUP2 PUSH3 0x1340 JUMP JUMPDEST DUP3 MSTORE POP POP JUMP JUMPDEST PUSH0 PUSH1 0x60 DUP3 ADD SWAP1 POP PUSH3 0x198F PUSH0 DUP4 ADD DUP7 PUSH3 0x190D JUMP JUMPDEST PUSH3 0x199E PUSH1 0x20 DUP4 ADD DUP6 PUSH3 0x1969 JUMP JUMPDEST PUSH3 0x19AD PUSH1 0x40 DUP4 ADD DUP5 PUSH3 0x1969 JUMP JUMPDEST SWAP5 SWAP4 POP POP POP POP JUMP JUMPDEST PUSH0 PUSH1 0x20 DUP3 DUP5 SUB SLT ISZERO PUSH3 0x19CD JUMPI PUSH3 0x19CC PUSH3 0x10E8 JUMP JUMPDEST JUMPDEST PUSH0 PUSH3 0x19DC DUP5 DUP3 DUP6 ADD PUSH3 0x1362 JUMP JUMPDEST SWAP2 POP POP SWAP3 SWAP2 POP POP JUMP JUMPDEST PUSH3 0x19F0 DUP2 PUSH3 0x14CF JUMP JUMPDEST DUP3 MSTORE POP POP JUMP JUMPDEST PUSH0 PUSH1 0x20 DUP3 ADD SWAP1 POP PUSH3 0x1A0B PUSH0 DUP4 ADD DUP5 PUSH3 0x19E5 JUMP JUMPDEST SWAP3 SWAP2 POP POP JUMP JUMPDEST PUSH3 0x1A1C DUP2 PUSH3 0x1867 JUMP JUMPDEST DUP3 MSTORE POP POP JUMP JUMPDEST PUSH0 PUSH1 0x20 DUP3 ADD SWAP1 POP PUSH3 0x1A37 PUSH0 DUP4 ADD DUP5 PUSH3 0x1A11 JUMP JUMPDEST SWAP3 SWAP2 POP POP JUMP JUMPDEST PUSH0 PUSH1 0xFF DUP3 AND SWAP1 POP SWAP2 SWAP1 POP JUMP JUMPDEST PUSH3 0x1A54 DUP2 PUSH3 0x1A3D JUMP JUMPDEST DUP2 EQ PUSH3 0x1A5F JUMPI PUSH0 DUP1 REVERT JUMPDEST POP JUMP JUMPDEST PUSH0 DUP2 CALLDATALOAD SWAP1 POP PUSH3 0x1A72 DUP2 PUSH3 0x1A49 JUMP JUMPDEST SWAP3 SWAP2 POP POP JUMP JUMPDEST PUSH0 DUP1 PUSH1 0x40 DUP4 DUP6 SUB SLT ISZERO PUSH3 0x1A91 JUMPI PUSH3 0x1A90 PUSH3 0x10E8 JUMP JUMPDEST JUMPDEST PUSH0 PUSH3 0x1AA0 DUP6 DUP3 DUP7 ADD PUSH3 0x1893 JUMP JUMPDEST SWAP3 POP POP PUSH1 0x20 PUSH3 0x1AB3 DUP6 DUP3 DUP7 ADD PUSH3 0x1A62 JUMP JUMPDEST SWAP2 POP POP SWAP3 POP SWAP3 SWAP1 POP JUMP JUMPDEST PUSH0 DUP3 DUP3 MSTORE PUSH1 0x20 DUP3 ADD SWAP1 POP SWAP3 SWAP2 POP POP JUMP JUMPDEST PUSH0 PUSH3 0x1AD9 DUP3 PUSH3 0x15F4 JUMP JUMPDEST PUSH3 0x1AE5 DUP2 DUP6 PUSH3 0x1ABD JUMP JUMPDEST SWAP4 POP PUSH3 0x1AF7 DUP2 DUP6 PUSH1 0x20 DUP7 ADD PUSH3 0x160E JUMP JUMPDEST PUSH3 0x1B02 DUP2 PUSH3 0x10F8 JUMP JUMPDEST DUP5 ADD SWAP2 POP POP SWAP3 SWAP2 POP POP JUMP JUMPDEST PUSH0 DUP2 MLOAD SWAP1 POP SWAP2 SWAP1 POP JUMP JUMPDEST PUSH0 DUP3 DUP3 MSTORE PUSH1 0x20 DUP3 ADD SWAP1 POP SWAP3 SWAP2 POP POP JUMP JUMPDEST PUSH0 DUP2 SWAP1 POP PUSH1 0x20 DUP3 ADD SWAP1 POP SWAP2 SWAP1 POP JUMP JUMPDEST PUSH0 PUSH3 0x1B43 DUP4 DUP4 PUSH3 0x1638 JUMP JUMPDEST SWAP1 POP SWAP3 SWAP2 POP POP JUMP JUMPDEST PUSH0 PUSH1 0x20 DUP3 ADD SWAP1 POP SWAP2 SWAP1 POP JUMP JUMPDEST PUSH0 PUSH3 0x1B63 DUP3 PUSH3 0x1B0D JUMP JUMPDEST PUSH3 0x1B6F DUP2 DUP6 PUSH3 0x1B17 JUMP JUMPDEST SWAP4 POP DUP4 PUSH1 0x20 DUP3 MUL DUP6 ADD PUSH3 0x1B83 DUP6 PUSH3 0x1B27 JUMP JUMPDEST DUP1 PUSH0 JUMPDEST DUP6 DUP2 LT ISZERO PUSH3 0x1BC4 JUMPI DUP5 DUP5 SUB DUP10 MSTORE DUP2 MLOAD PUSH3 0x1BA2 DUP6 DUP3 PUSH3 0x1B36 JUMP JUMPDEST SWAP5 POP PUSH3 0x1BAF DUP4 PUSH3 0x1B4B JUMP JUMPDEST SWAP3 POP PUSH1 0x20 DUP11 ADD SWAP10 POP POP PUSH1 0x1 DUP2 ADD SWAP1 POP PUSH3 0x1B86 JUMP JUMPDEST POP DUP3 SWAP8 POP DUP8 SWAP6 POP POP POP POP POP POP SWAP3 SWAP2 POP POP JUMP JUMPDEST PUSH0 PUSH1 0xA0 DUP3 ADD SWAP1 POP PUSH3 0x1BEB PUSH0 DUP4 ADD DUP9 PUSH3 0x1A11 JUMP JUMPDEST DUP2 DUP2 SUB PUSH1 0x20 DUP4 ADD MSTORE PUSH3 0x1BFF DUP2 DUP8 PUSH3 0x1ACD JUMP JUMPDEST SWAP1 POP DUP2 DUP2 SUB PUSH1 0x40 DUP4 ADD MSTORE PUSH3 0x1C15 DUP2 DUP7 PUSH3 0x1ACD JUMP JUMPDEST SWAP1 POP DUP2 DUP2 SUB PUSH1 0x60 DUP4 ADD MSTORE PUSH3 0x1C2B DUP2 DUP6 PUSH3 0x1B57 JUMP JUMPDEST SWAP1 POP PUSH3 0x1C3C PUSH1 0x80 DUP4 ADD DUP5 PUSH3 0x1969 JUMP JUMPDEST SWAP7 SWAP6 POP POP POP POP POP POP JUMP JUMPDEST PUSH32 0x4E487B7100000000000000000000000000000000000000000000000000000000 PUSH0 MSTORE PUSH1 0x32 PUSH1 0x4 MSTORE PUSH1 0x24 PUSH0 REVERT JUMPDEST PUSH3 0x1C7E DUP2 PUSH3 0x1902 JUMP JUMPDEST DUP2 EQ PUSH3 0x1C89 JUMPI PUSH0 DUP1 REVERT JUMPDEST POP JUMP JUMPDEST PUSH0 DUP2 MLOAD SWAP1 POP PUSH3 0x1C9C DUP2 PUSH3 0x1C73 JUMP JUMPDEST SWAP3 SWAP2 POP POP JUMP JUMPDEST PUSH0 PUSH1 0x20 DUP3 DUP5 SUB SLT ISZERO PUSH3 0x1CBA JUMPI PUSH3 0x1CB9 PUSH3 0x10E8 JUMP JUMPDEST JUMPDEST PUSH0 PUSH3 0x1CC9 DUP5 DUP3 DUP6 ADD PUSH3 0x1C8C JUMP JUMPDEST SWAP2 POP POP SWAP3 SWAP2 POP POP JUMP JUMPDEST PUSH32 0x4E487B7100000000000000000000000000000000000000000000000000000000 PUSH0 MSTORE PUSH1 0x11 PUSH1 0x4 MSTORE PUSH1 0x24 PUSH0 REVERT JUMPDEST PUSH0 PUSH3 0x1D0B DUP3 PUSH3 0x1340 JUMP JUMPDEST SWAP2 POP PUSH32 0xFFFFFFFFFFFFFFFFFFFFFFFFFFFFFFFFFFFFFFFFFFFFFFFFFFFFFFFFFFFFFFFF DUP3 SUB PUSH3 0x1D40 JUMPI PUSH3 0x1D3F PUSH3 0x1CD2 JUMP JUMPDEST JUMPDEST PUSH1 0x1 DUP3 ADD SWAP1 POP SWAP2 SWAP1 POP JUMP JUMPDEST PUSH0 PUSH8 0xFFFFFFFFFFFFFFFF DUP3 GT ISZERO PUSH3 0x1D68 JUMPI PUSH3 0x1D67 PUSH3 0x1108 JUMP JUMPDEST JUMPDEST PUSH1 0x20 DUP3 MUL SWAP1 POP PUSH1 0x20 DUP2 ADD SWAP1 POP SWAP2 SWAP1 POP JUMP JUMPDEST PUSH0 DUP1 REVERT JUMPDEST PUSH0 DUP1 REVERT JUMPDEST PUSH0 PUSH3 0x1D97 PUSH3 0x1D91 DUP5 PUSH3 0x1189 JUMP JUMPDEST PUSH3 0x116B JUMP JUMPDEST SWAP1 POP DUP3 DUP2 MSTORE PUSH1 0x20 DUP2 ADD DUP5 DUP5 DUP5 ADD GT ISZERO PUSH3 0x1DB6 JUMPI PUSH3 0x1DB5 PUSH3 0x10F4 JUMP JUMPDEST JUMPDEST PUSH3 0x1DC3 DUP5 DUP3 DUP6 PUSH3 0x160E JUMP JUMPDEST POP SWAP4 SWAP3 POP POP POP JUMP JUMPDEST PUSH0 DUP3 PUSH1 0x1F DUP4 ADD SLT PUSH3 0x1DE2 JUMPI PUSH3 0x1DE1 PUSH3 0x10F0 JUMP JUMPDEST JUMPDEST DUP2 MLOAD PUSH3 0x1DF4 DUP5 DUP3 PUSH1 0x20 DUP7 ADD PUSH3 0x1D81 JUMP JUMPDEST SWAP2 POP POP SWAP3 SWAP2 POP POP JUMP JUMPDEST PUSH0 DUP2 MLOAD SWAP1 POP PUSH3 0x1E0D DUP2 PUSH3 0x1349 JUMP JUMPDEST SWAP3 SWAP2 POP POP JUMP JUMPDEST PUSH0 PUSH1 0x40 DUP3 DUP5 SUB SLT ISZERO PUSH3 0x1E2B JUMPI PUSH3 0x1E2A PUSH3 0x1D79 JUMP JUMPDEST JUMPDEST PUSH3 0x1E37 PUSH1 0x40 PUSH3 0x116B JUMP JUMPDEST SWAP1 POP PUSH0 DUP3 ADD MLOAD PUSH8 0xFFFFFFFFFFFFFFFF DUP2 GT ISZERO PUSH3 0x1E59 JUMPI PUSH3 0x1E58 PUSH3 0x1D7D JUMP JUMPDEST JUMPDEST PUSH3 0x1E67 DUP5 DUP3 DUP6 ADD PUSH3 0x1DCB JUMP JUMPDEST PUSH0 DUP4 ADD MSTORE POP PUSH1 0x20 PUSH3 0x1E7C DUP5 DUP3 DUP6 ADD PUSH3 0x1DFD JUMP JUMPDEST PUSH1 0x20 DUP4 ADD MSTORE POP SWAP3 SWAP2 POP POP JUMP JUMPDEST PUSH0 PUSH3 0x1E9E PUSH3 0x1E98 DUP5 PUSH3 0x1D4B JUMP JUMPDEST PUSH3 0x116B JUMP JUMPDEST SWAP1 POP DUP1 DUP4 DUP3 MSTORE PUSH1 0x20 DUP3 ADD SWAP1 POP PUSH1 0x20 DUP5 MUL DUP4 ADD DUP6 DUP2 GT ISZERO PUSH3 0x1EC4 JUMPI PUSH3 0x1EC3 PUSH3 0x1276 JUMP JUMPDEST JUMPDEST DUP4 JUMPDEST DUP2 DUP2 LT ISZERO PUSH3 0x1F12 JUMPI DUP1 MLOAD PUSH8 0xFFFFFFFFFFFFFFFF DUP2 GT ISZERO PUSH3 0x1EED JUMPI PUSH3 0x1EEC PUSH3 0x10F0 JUMP JUMPDEST JUMPDEST DUP1 DUP7 ADD PUSH3 0x1EFC DUP10 DUP3 PUSH3 0x1E13 JUMP JUMPDEST DUP6 MSTORE PUSH1 0x20 DUP6 ADD SWAP5 POP POP POP PUSH1 0x20 DUP2 ADD SWAP1 POP PUSH3 0x1EC6 JUMP JUMPDEST POP POP POP SWAP4 SWAP3 POP POP POP JUMP JUMPDEST PUSH0 DUP3 PUSH1 0x1F DUP4 ADD SLT PUSH3 0x1F33 JUMPI PUSH3 0x1F32 PUSH3 0x10F0 JUMP JUMPDEST JUMPDEST DUP2 MLOAD PUSH3 0x1F45 DUP5 DUP3 PUSH1 0x20 DUP7 ADD PUSH3 0x1E88 JUMP JUMPDEST SWAP2 POP POP SWAP3 SWAP2 POP POP JUMP JUMPDEST PUSH0 PUSH1 0x20 DUP3 DUP5 SUB SLT ISZERO PUSH3 0x1F66 JUMPI PUSH3 0x1F65 PUSH3 0x10E8 JUMP JUMPDEST JUMPDEST PUSH0 DUP3 ADD MLOAD PUSH8 0xFFFFFFFFFFFFFFFF DUP2 GT ISZERO PUSH3 0x1F86 JUMPI PUSH3 0x1F85 PUSH3 0x10EC JUMP JUMPDEST JUMPDEST PUSH3 0x1F94 DUP5 DUP3 DUP6 ADD PUSH3 0x1F1C JUMP JUMPDEST SWAP2 POP POP SWAP3 SWAP2 POP POP JUMP JUMPDEST PUSH32 0x43616E206E6F7420726174652E00000000000000000000000000000000000000 PUSH0 DUP3 ADD MSTORE POP JUMP JUMPDEST PUSH0 PUSH3 0x1FD3 PUSH1 0xD DUP4 PUSH3 0x1ABD JUMP JUMPDEST SWAP2 POP PUSH3 0x1FE0 DUP3 PUSH3 0x1F9D JUMP JUMPDEST PUSH1 0x20 DUP3 ADD SWAP1 POP SWAP2 SWAP1 POP JUMP JUMPDEST PUSH0 PUSH1 0x20 DUP3 ADD SWAP1 POP DUP2 DUP2 SUB PUSH0 DUP4 ADD MSTORE PUSH3 0x2004 DUP2 PUSH3 0x1FC5 JUMP JUMPDEST SWAP1 POP SWAP2 SWAP1 POP JUMP JUMPDEST PUSH0 DUP2 MLOAD SWAP1 POP PUSH3 0x201B DUP2 PUSH3 0x187A JUMP JUMPDEST SWAP3 SWAP2 POP POP JUMP JUMPDEST PUSH0 PUSH1 0x20 DUP3 DUP5 SUB SLT ISZERO PUSH3 0x2039 JUMPI PUSH3 0x2038 PUSH3 0x10E8 JUMP JUMPDEST JUMPDEST PUSH0 PUSH3 0x2048 DUP5 DUP3 DUP6 ADD PUSH3 0x200B JUMP JUMPDEST SWAP2 POP POP SWAP3 SWAP2 POP POP JUMP JUMPDEST PUSH0 PUSH3 0x205D DUP3 PUSH3 0x1340 JUMP JUMPDEST SWAP2 POP PUSH3 0x206A DUP4 PUSH3 0x1340 JUMP JUMPDEST SWAP3 POP DUP3 DUP3 ADD SWAP1 POP DUP1 DUP3 GT ISZERO PUSH3 0x2085 JUMPI PUSH3 0x2084 PUSH3 0x1CD2 JUMP JUMPDEST JUMPDEST SWAP3 SWAP2 POP POP JUMP INVALID PUSH1 0x80 PUSH1 0x40 MSTORE CALLVALUE DUP1 ISZERO PUSH3 0x10 JUMPI PUSH0 DUP1 REVERT JUMPDEST POP PUSH1 0x40 MLOAD PUSH3 0x1E61 CODESIZE SUB DUP1 PUSH3 0x1E61 DUP4 CODECOPY DUP2 DUP2 ADD PUSH1 0x40 MSTORE DUP2 ADD SWAP1 PUSH3 0x36 SWAP2 SWAP1 PUSH3 0x47F JUMP JUMPDEST DUP5 DUP5 DUP5 DUP5 DUP5 DUP5 DUP1 PUSH0 DUP1 PUSH2 0x100 EXP DUP2 SLOAD DUP2 PUSH20 0xFFFFFFFFFFFFFFFFFFFFFFFFFFFFFFFFFFFFFFFF MUL NOT AND SWAP1 DUP4 PUSH20 0xFFFFFFFFFFFFFFFFFFFFFFFFFFFFFFFFFFFFFFFF AND MUL OR SWAP1 SSTORE POP POP DUP4 PUSH1 0x1 SWAP1 DUP2 PUSH3 0x8D SWAP2 SWAP1 PUSH3 0x78E JUMP JUMPDEST POP DUP3 PUSH1 0x2 SWAP1 DUP2 PUSH3 0x9F SWAP2 SWAP1 PUSH3 0x78E JUMP JUMPDEST POP DUP1 TIMESTAMP PUSH3 0xAE SWAP2 SWAP1 PUSH3 0x89F JUMP JUMPDEST PUSH1 0x3 DUP2 SWAP1 SSTORE POP PUSH0 JUMPDEST DUP3 MLOAD DUP2 PUSH1 0xFF AND LT ISZERO PUSH3 0x158 JUMPI PUSH1 0x4 PUSH1 0x40 MLOAD DUP1 PUSH1 0x40 ADD PUSH1 0x40 MSTORE DUP1 DUP6 DUP5 PUSH1 0xFF AND DUP2 MLOAD DUP2 LT PUSH3 0xE9 JUMPI PUSH3 0xE8 PUSH3 0x8D9 JUMP JUMPDEST JUMPDEST PUSH1 0x20 MUL PUSH1 0x20 ADD ADD MLOAD DUP2 MSTORE PUSH1 0x20 ADD PUSH0 DUP2 MSTORE POP SWAP1 DUP1 PUSH1 0x1 DUP2 SLOAD ADD DUP1 DUP3 SSTORE DUP1 SWAP2 POP POP PUSH1 0x1 SWAP1 SUB SWAP1 PUSH0 MSTORE PUSH1 0x20 PUSH0 KECCAK256 SWAP1 PUSH1 0x2 MUL ADD PUSH0 SWAP1 SWAP2 SWAP1 SWAP2 SWAP1 SWAP2 POP PUSH0 DUP3 ADD MLOAD DUP2 PUSH0 ADD SWAP1 DUP2 PUSH3 0x135 SWAP2 SWAP1 PUSH3 0x78E JUMP JUMPDEST POP PUSH1 0x20 DUP3 ADD MLOAD DUP2 PUSH1 0x1 ADD SSTORE POP POP DUP1 DUP1 PUSH3 0x14F SWAP1 PUSH3 0x912 JUMP JUMPDEST SWAP2 POP POP PUSH3 0xB6 JUMP JUMPDEST POP POP POP POP POP POP POP POP POP POP POP PUSH3 0x93F JUMP JUMPDEST PUSH0 PUSH1 0x40 MLOAD SWAP1 POP SWAP1 JUMP JUMPDEST PUSH0 DUP1 REVERT JUMPDEST PUSH0 DUP1 REVERT JUMPDEST PUSH0 PUSH20 0xFFFFFFFFFFFFFFFFFFFFFFFFFFFFFFFFFFFFFFFF DUP3 AND SWAP1 POP SWAP2 SWAP1 POP JUMP JUMPDEST PUSH0 PUSH3 0x1A5 DUP3 PUSH3 0x17A JUMP JUMPDEST SWAP1 POP SWAP2 SWAP1 POP JUMP JUMPDEST PUSH3 0x1B7 DUP2 PUSH3 0x199 JUMP JUMPDEST DUP2 EQ PUSH3 0x1C2 JUMPI PUSH0 DUP1 REVERT JUMPDEST POP JUMP JUMPDEST PUSH0 DUP2 MLOAD SWAP1 POP PUSH3 0x1D5 DUP2 PUSH3 0x1AC JUMP JUMPDEST SWAP3 SWAP2 POP POP JUMP JUMPDEST PUSH0 DUP1 REVERT JUMPDEST PUSH0 DUP1 REVERT JUMPDEST PUSH0 PUSH1 0x1F NOT PUSH1 0x1F DUP4 ADD AND SWAP1 POP SWAP2 SWAP1 POP JUMP JUMPDEST PUSH32 0x4E487B7100000000000000000000000000000000000000000000000000000000 PUSH0 MSTORE PUSH1 0x41 PUSH1 0x4 MSTORE PUSH1 0x24 PUSH0 REVERT JUMPDEST PUSH3 0x22B DUP3 PUSH3 0x1E3 JUMP JUMPDEST DUP2 ADD DUP2 DUP2 LT PUSH8 0xFFFFFFFFFFFFFFFF DUP3 GT OR ISZERO PUSH3 0x24D JUMPI PUSH3 0x24C PUSH3 0x1F3 JUMP JUMPDEST JUMPDEST DUP1 PUSH1 0x40 MSTORE POP POP POP JUMP JUMPDEST PUSH0 PUSH3 0x261 PUSH3 0x169 JUMP JUMPDEST SWAP1 POP PUSH3 0x26F DUP3 DUP3 PUSH3 0x220 JUMP JUMPDEST SWAP2 SWAP1 POP JUMP JUMPDEST PUSH0 PUSH8 0xFFFFFFFFFFFFFFFF DUP3 GT ISZERO PUSH3 0x291 JUMPI PUSH3 0x290 PUSH3 0x1F3 JUMP JUMPDEST JUMPDEST PUSH3 0x29C DUP3 PUSH3 0x1E3 JUMP JUMPDEST SWAP1 POP PUSH1 0x20 DUP2 ADD SWAP1 POP SWAP2 SWAP1 POP JUMP JUMPDEST PUSH0 JUMPDEST DUP4 DUP2 LT ISZERO PUSH3 0x2C8 JUMPI DUP1 DUP3 ADD MLOAD DUP2 DUP5 ADD MSTORE PUSH1 0x20 DUP2 ADD SWAP1 POP PUSH3 0x2AB JUMP JUMPDEST PUSH0 DUP5 DUP5 ADD MSTORE POP POP POP POP JUMP JUMPDEST PUSH0 PUSH3 0x2E9 PUSH3 0x2E3 DUP5 PUSH3 0x274 JUMP JUMPDEST PUSH3 0x256 JUMP JUMPDEST SWAP1 POP DUP3 DUP2 MSTORE PUSH1 0x20 DUP2 ADD DUP5 DUP5 DUP5 ADD GT ISZERO PUSH3 0x308 JUMPI PUSH3 0x307 PUSH3 0x1DF JUMP JUMPDEST JUMPDEST PUSH3 0x315 DUP5 DUP3 DUP6 PUSH3 0x2A9 JUMP JUMPDEST POP SWAP4 SWAP3 POP POP POP JUMP JUMPDEST PUSH0 DUP3 PUSH1 0x1F DUP4 ADD SLT PUSH3 0x334 JUMPI PUSH3 0x333 PUSH3 0x1DB JUMP JUMPDEST JUMPDEST DUP2 MLOAD PUSH3 0x346 DUP5 DUP3 PUSH1 0x20 DUP7 ADD PUSH3 0x2D3 JUMP JUMPDEST SWAP2 POP POP SWAP3 SWAP2 POP POP JUMP JUMPDEST PUSH0 PUSH8 0xFFFFFFFFFFFFFFFF DUP3 GT ISZERO PUSH3 0x36C JUMPI PUSH3 0x36B PUSH3 0x1F3 JUMP JUMPDEST JUMPDEST PUSH1 0x20 DUP3 MUL SWAP1 POP PUSH1 0x20 DUP2 ADD SWAP1 POP SWAP2 SWAP1 POP JUMP JUMPDEST PUSH0 DUP1 REVERT JUMPDEST PUSH0 PUSH3 0x397 PUSH3 0x391 DUP5 PUSH3 0x34F JUMP JUMPDEST PUSH3 0x256 JUMP JUMPDEST SWAP1 POP DUP1 DUP4 DUP3 MSTORE PUSH1 0x20 DUP3 ADD SWAP1 POP PUSH1 0x20 DUP5 MUL DUP4 ADD DUP6 DUP2 GT ISZERO PUSH3 0x3BD JUMPI PUSH3 0x3BC PUSH3 0x37D JUMP JUMPDEST JUMPDEST DUP4 JUMPDEST DUP2 DUP2 LT ISZERO PUSH3 0x40B JUMPI DUP1 MLOAD PUSH8 0xFFFFFFFFFFFFFFFF DUP2 GT ISZERO PUSH3 0x3E6 JUMPI PUSH3 0x3E5 PUSH3 0x1DB JUMP JUMPDEST JUMPDEST DUP1 DUP7 ADD PUSH3 0x3F5 DUP10 DUP3 PUSH3 0x31D JUMP JUMPDEST DUP6 MSTORE PUSH1 0x20 DUP6 ADD SWAP5 POP POP POP PUSH1 0x20 DUP2 ADD SWAP1 POP PUSH3 0x3BF JUMP JUMPDEST POP POP POP SWAP4 SWAP3 POP POP POP JUMP JUMPDEST PUSH0 DUP3 PUSH1 0x1F DUP4 ADD SLT PUSH3 0x42C JUMPI PUSH3 0x42B PUSH3 0x1DB JUMP JUMPDEST JUMPDEST DUP2 MLOAD PUSH3 0x43E DUP5 DUP3 PUSH1 0x20 DUP7 ADD PUSH3 0x381 JUMP JUMPDEST SWAP2 POP POP SWAP3 SWAP2 POP POP JUMP JUMPDEST PUSH0 DUP2 SWAP1 POP SWAP2 SWAP1 POP JUMP JUMPDEST PUSH3 0x45B DUP2 PUSH3 0x447 JUMP JUMPDEST DUP2 EQ PUSH3 0x466 JUMPI PUSH0 DUP1 REVERT JUMPDEST POP JUMP JUMPDEST PUSH0 DUP2 MLOAD SWAP1 POP PUSH3 0x479 DUP2 PUSH3 0x450 JUMP JUMPDEST SWAP3 SWAP2 POP POP JUMP JUMPDEST PUSH0 DUP1 PUSH0 DUP1 PUSH0 PUSH1 0xA0 DUP7 DUP9 SUB SLT ISZERO PUSH3 0x49B JUMPI PUSH3 0x49A PUSH3 0x172 JUMP JUMPDEST JUMPDEST PUSH0 PUSH3 0x4AA DUP9 DUP3 DUP10 ADD PUSH3 0x1C5 JUMP JUMPDEST SWAP6 POP POP PUSH1 0x20 DUP7 ADD MLOAD PUSH8 0xFFFFFFFFFFFFFFFF DUP2 GT ISZERO PUSH3 0x4CE JUMPI PUSH3 0x4CD PUSH3 0x176 JUMP JUMPDEST JUMPDEST PUSH3 0x4DC DUP9 DUP3 DUP10 ADD PUSH3 0x31D JUMP JUMPDEST SWAP5 POP POP PUSH1 0x40 DUP7 ADD MLOAD PUSH8 0xFFFFFFFFFFFFFFFF DUP2 GT ISZERO PUSH3 0x500 JUMPI PUSH3 0x4FF PUSH3 0x176 JUMP JUMPDEST JUMPDEST PUSH3 0x50E DUP9 DUP3 DUP10 ADD PUSH3 0x31D JUMP JUMPDEST SWAP4 POP POP PUSH1 0x60 DUP7 ADD MLOAD PUSH8 0xFFFFFFFFFFFFFFFF DUP2 GT ISZERO PUSH3 0x532 JUMPI PUSH3 0x531 PUSH3 0x176 JUMP JUMPDEST JUMPDEST PUSH3 0x540 DUP9 DUP3 DUP10 ADD PUSH3 0x415 JUMP JUMPDEST SWAP3 POP POP PUSH1 0x80 PUSH3 0x553 DUP9 DUP3 DUP10 ADD PUSH3 0x469 JUMP JUMPDEST SWAP2 POP POP SWAP3 SWAP6 POP SWAP3 SWAP6 SWAP1 SWAP4 POP JUMP JUMPDEST PUSH0 DUP2 MLOAD SWAP1 POP SWAP2 SWAP1 POP JUMP JUMPDEST PUSH32 0x4E487B7100000000000000000000000000000000000000000000000000000000 PUSH0 MSTORE PUSH1 0x22 PUSH1 0x4 MSTORE PUSH1 0x24 PUSH0 REVERT JUMPDEST PUSH0 PUSH1 0x2 DUP3 DIV SWAP1 POP PUSH1 0x1 DUP3 AND DUP1 PUSH3 0x5AF JUMPI PUSH1 0x7F DUP3 AND SWAP2 POP JUMPDEST PUSH1 0x20 DUP3 LT DUP2 SUB PUSH3 0x5C5 JUMPI PUSH3 0x5C4 PUSH3 0x56A JUMP JUMPDEST JUMPDEST POP SWAP2 SWAP1 POP JUMP JUMPDEST PUSH0 DUP2 SWAP1 POP DUP2 PUSH0 MSTORE PUSH1 0x20 PUSH0 KECCAK256 SWAP1 POP SWAP2 SWAP1 POP JUMP JUMPDEST PUSH0 PUSH1 0x20 PUSH1 0x1F DUP4 ADD DIV SWAP1 POP SWAP2 SWAP1 POP JUMP JUMPDEST PUSH0 DUP3 DUP3 SHL SWAP1 POP SWAP3 SWAP2 POP POP JUMP JUMPDEST PUSH0 PUSH1 0x8 DUP4 MUL PUSH3 0x629 PUSH32 0xFFFFFFFFFFFFFFFFFFFFFFFFFFFFFFFFFFFFFFFFFFFFFFFFFFFFFFFFFFFFFFFF DUP3 PUSH3 0x5EC JUMP JUMPDEST PUSH3 0x635 DUP7 DUP4 PUSH3 0x5EC JUMP JUMPDEST SWAP6 POP DUP1 NOT DUP5 AND SWAP4 POP DUP1 DUP7 AND DUP5 OR SWAP3 POP POP POP SWAP4 SWAP3 POP POP POP JUMP JUMPDEST PUSH0 DUP2 SWAP1 POP SWAP2 SWAP1 POP JUMP JUMPDEST PUSH0 PUSH3 0x676 PUSH3 0x670 PUSH3 0x66A DUP5 PUSH3 0x447 JUMP JUMPDEST PUSH3 0x64D JUMP JUMPDEST PUSH3 0x447 JUMP JUMPDEST SWAP1 POP SWAP2 SWAP1 POP JUMP JUMPDEST PUSH0 DUP2 SWAP1 POP SWAP2 SWAP1 POP JUMP JUMPDEST PUSH3 0x691 DUP4 PUSH3 0x656 JUMP JUMPDEST PUSH3 0x6A9 PUSH3 0x6A0 DUP3 PUSH3 0x67D JUMP JUMPDEST DUP5 DUP5 SLOAD PUSH3 0x5F8 JUMP JUMPDEST DUP3 SSTORE POP POP POP POP JUMP JUMPDEST PUSH0 SWAP1 JUMP JUMPDEST PUSH3 0x6BF PUSH3 0x6B1 JUMP JUMPDEST PUSH3 0x6CC DUP2 DUP5 DUP5 PUSH3 0x686 JUMP JUMPDEST POP POP POP JUMP JUMPDEST JUMPDEST DUP2 DUP2 LT ISZERO PUSH3 0x6F3 JUMPI PUSH3 0x6E7 PUSH0 DUP3 PUSH3 0x6B5 JUMP JUMPDEST PUSH1 0x1 DUP2 ADD SWAP1 POP PUSH3 0x6D2 JUMP JUMPDEST POP POP JUMP JUMPDEST PUSH1 0x1F DUP3 GT ISZERO PUSH3 0x742 JUMPI PUSH3 0x70C DUP2 PUSH3 0x5CB JUMP JUMPDEST PUSH3 0x717 DUP5 PUSH3 0x5DD JUMP JUMPDEST DUP2 ADD PUSH1 0x20 DUP6 LT ISZERO PUSH3 0x727 JUMPI DUP2 SWAP1 POP JUMPDEST PUSH3 0x73F PUSH3 0x736 DUP6 PUSH3 0x5DD JUMP JUMPDEST DUP4 ADD DUP3 PUSH3 0x6D1 JUMP JUMPDEST POP POP JUMPDEST POP POP POP JUMP JUMPDEST PUSH0 DUP3 DUP3 SHR SWAP1 POP SWAP3 SWAP2 POP POP JUMP JUMPDEST PUSH0 PUSH3 0x764 PUSH0 NOT DUP5 PUSH1 0x8 MUL PUSH3 0x747 JUMP JUMPDEST NOT DUP1 DUP4 AND SWAP2 POP POP SWAP3 SWAP2 POP POP JUMP JUMPDEST PUSH0 PUSH3 0x77E DUP4 DUP4 PUSH3 0x753 JUMP JUMPDEST SWAP2 POP DUP3 PUSH1 0x2 MUL DUP3 OR SWAP1 POP SWAP3 SWAP2 POP POP JUMP JUMPDEST PUSH3 0x799 DUP3 PUSH3 0x560 JUMP JUMPDEST PUSH8 0xFFFFFFFFFFFFFFFF DUP2 GT ISZERO PUSH3 0x7B5 JUMPI PUSH3 0x7B4 PUSH3 0x1F3 JUMP JUMPDEST JUMPDEST PUSH3 0x7C1 DUP3 SLOAD PUSH3 0x597 JUMP JUMPDEST PUSH3 0x7CE DUP3 DUP3 DUP6 PUSH3 0x6F7 JUMP JUMPDEST PUSH0 PUSH1 0x20 SWAP1 POP PUSH1 0x1F DUP4 GT PUSH1 0x1 DUP2 EQ PUSH3 0x804 JUMPI PUSH0 DUP5 ISZERO PUSH3 0x7EF JUMPI DUP3 DUP8 ADD MLOAD SWAP1 POP JUMPDEST PUSH3 0x7FB DUP6 DUP3 PUSH3 0x771 JUMP JUMPDEST DUP7 SSTORE POP PUSH3 0x86A JUMP JUMPDEST PUSH1 0x1F NOT DUP5 AND PUSH3 0x814 DUP7 PUSH3 0x5CB JUMP JUMPDEST PUSH0 JUMPDEST DUP3 DUP2 LT ISZERO PUSH3 0x83D JUMPI DUP5 DUP10 ADD MLOAD DUP3 SSTORE PUSH1 0x1 DUP3 ADD SWAP2 POP PUSH1 0x20 DUP6 ADD SWAP5 POP PUSH1 0x20 DUP2 ADD SWAP1 POP PUSH3 0x816 JUMP JUMPDEST DUP7 DUP4 LT ISZERO PUSH3 0x85D JUMPI DUP5 DUP10 ADD MLOAD PUSH3 0x859 PUSH1 0x1F DUP10 AND DUP3 PUSH3 0x753 JUMP JUMPDEST DUP4 SSTORE POP JUMPDEST PUSH1 0x1 PUSH1 0x2 DUP9 MUL ADD DUP9 SSTORE POP POP POP JUMPDEST POP POP POP POP POP POP JUMP JUMPDEST PUSH32 0x4E487B7100000000000000000000000000000000000000000000000000000000 PUSH0 MSTORE PUSH1 0x11 PUSH1 0x4 MSTORE PUSH1 0x24 PUSH0 REVERT JUMPDEST PUSH0 PUSH3 0x8AB DUP3 PUSH3 0x447 JUMP JUMPDEST SWAP2 POP PUSH3 0x8B8 DUP4 PUSH3 0x447 JUMP JUMPDEST SWAP3 POP DUP3 DUP3 ADD SWAP1 POP DUP1 DUP3 GT ISZERO PUSH3 0x8D3 JUMPI PUSH3 0x8D2 PUSH3 0x872 JUMP JUMPDEST JUMPDEST SWAP3 SWAP2 POP POP JUMP JUMPDEST PUSH32 0x4E487B7100000000000000000000000000000000000000000000000000000000 PUSH0 MSTORE PUSH1 0x32 PUSH1 0x4 MSTORE PUSH1 0x24 PUSH0 REVERT JUMPDEST PUSH0 PUSH1 0xFF DUP3 AND SWAP1 POP SWAP2 SWAP1 POP JUMP JUMPDEST PUSH0 PUSH3 0x91E DUP3 PUSH3 0x906 JUMP JUMPDEST SWAP2 POP PUSH1 0xFF DUP3 SUB PUSH3 0x934 JUMPI PUSH3 0x933 PUSH3 0x872 JUMP JUMPDEST JUMPDEST PUSH1 0x1 DUP3 ADD SWAP1 POP SWAP2 SWAP1 POP JUMP JUMPDEST PUSH2 0x1514 DUP1 PUSH3 0x94D PUSH0 CODECOPY PUSH0 RETURN INVALID PUSH1 0x80 PUSH1 0x40 MSTORE CALLVALUE DUP1 ISZERO PUSH2 0xF JUMPI PUSH0 DUP1 REVERT JUMPDEST POP PUSH1 0x4 CALLDATASIZE LT PUSH2 0xB2 JUMPI PUSH0 CALLDATALOAD PUSH1 0xE0 SHR DUP1 PUSH4 0x7284E416 GT PUSH2 0x6F JUMPI DUP1 PUSH4 0x7284E416 EQ PUSH2 0x18D JUMPI DUP1 PUSH4 0x9145A7FC EQ PUSH2 0x1AB JUMPI DUP1 PUSH4 0xA3EC138D EQ PUSH2 0x1C9 JUMPI DUP1 PUSH4 0xB3F98ADC EQ PUSH2 0x1FD JUMPI DUP1 PUSH4 0xBF63A577 EQ PUSH2 0x219 JUMPI DUP1 PUSH4 0xE2BA53F0 EQ PUSH2 0x237 JUMPI PUSH2 0xB2 JUMP JUMPDEST DUP1 PUSH4 0x13CF08B EQ PUSH2 0xB6 JUMPI DUP1 PUSH4 0x2D05D3F EQ PUSH2 0xE7 JUMPI DUP1 PUSH4 0x9EEF43E EQ PUSH2 0x105 JUMPI DUP1 PUSH4 0x29DCB0CF EQ PUSH2 0x135 JUMPI DUP1 PUSH4 0x4717F97C EQ PUSH2 0x153 JUMPI DUP1 PUSH4 0x5C19A95C EQ PUSH2 0x171 JUMPI JUMPDEST PUSH0 DUP1 REVERT JUMPDEST PUSH2 0xD0 PUSH1 0x4 DUP1 CALLDATASIZE SUB DUP2 ADD SWAP1 PUSH2 0xCB SWAP2 SWAP1 PUSH2 0xD8C JUMP JUMPDEST PUSH2 0x255 JUMP JUMPDEST PUSH1 0x40 MLOAD PUSH2 0xDE SWAP3 SWAP2 SWAP1 PUSH2 0xE50 JUMP JUMPDEST PUSH1 0x40 MLOAD DUP1 SWAP2 SUB SWAP1 RETURN JUMPDEST PUSH2 0xEF PUSH2 0x30A JUMP JUMPDEST PUSH1 0x40 MLOAD PUSH2 0xFC SWAP2 SWAP1 PUSH2 0xEBD JUMP JUMPDEST PUSH1 0x40 MLOAD DUP1 SWAP2 SUB SWAP1 RETURN JUMPDEST PUSH2 0x11F PUSH1 0x4 DUP1 CALLDATASIZE SUB DUP2 ADD SWAP1 PUSH2 0x11A SWAP2 SWAP1 PUSH2 0xF00 JUMP JUMPDEST PUSH2 0x32D JUMP JUMPDEST PUSH1 0x40 MLOAD PUSH2 0x12C SWAP2 SWAP1 PUSH2 0xF45 JUMP JUMPDEST PUSH1 0x40 MLOAD DUP1 SWAP2 SUB SWAP1 RETURN JUMPDEST PUSH2 0x13D PUSH2 0x382 JUMP JUMPDEST PUSH1 0x40 MLOAD PUSH2 0x14A SWAP2 SWAP1 PUSH2 0xF5E JUMP JUMPDEST PUSH1 0x40 MLOAD DUP1 SWAP2 SUB SWAP1 RETURN JUMPDEST PUSH2 0x15B PUSH2 0x388 JUMP JUMPDEST PUSH1 0x40 MLOAD PUSH2 0x168 SWAP2 SWAP1 PUSH2 0x10C3 JUMP JUMPDEST PUSH1 0x40 MLOAD DUP1 SWAP2 SUB SWAP1 RETURN JUMPDEST PUSH2 0x18B PUSH1 0x4 DUP1 CALLDATASIZE SUB DUP2 ADD SWAP1 PUSH2 0x186 SWAP2 SWAP1 PUSH2 0xF00 JUMP JUMPDEST PUSH2 0x47D JUMP JUMPDEST STOP JUMPDEST PUSH2 0x195 PUSH2 0x8CC JUMP JUMPDEST PUSH1 0x40 MLOAD PUSH2 0x1A2 SWAP2 SWAP1 PUSH2 0x10E3 JUMP JUMPDEST PUSH1 0x40 MLOAD DUP1 SWAP2 SUB SWAP1 RETURN JUMPDEST PUSH2 0x1B3 PUSH2 0x958 JUMP JUMPDEST PUSH1 0x40 MLOAD PUSH2 0x1C0 SWAP2 SWAP1 PUSH2 0xF45 JUMP JUMPDEST PUSH1 0x40 MLOAD DUP1 SWAP2 SUB SWAP1 RETURN JUMPDEST PUSH2 0x1E3 PUSH1 0x4 DUP1 CALLDATASIZE SUB DUP2 ADD SWAP1 PUSH2 0x1DE SWAP2 SWAP1 PUSH2 0xF00 JUMP JUMPDEST PUSH2 0x963 JUMP JUMPDEST PUSH1 0x40 MLOAD PUSH2 0x1F4 SWAP6 SWAP5 SWAP4 SWAP3 SWAP2 SWAP1 PUSH2 0x111E JUMP JUMPDEST PUSH1 0x40 MLOAD DUP1 SWAP2 SUB SWAP1 RETURN JUMPDEST PUSH2 0x217 PUSH1 0x4 DUP1 CALLDATASIZE SUB DUP2 ADD SWAP1 PUSH2 0x212 SWAP2 SWAP1 PUSH2 0x1199 JUMP JUMPDEST PUSH2 0x9D8 JUMP JUMPDEST STOP JUMPDEST PUSH2 0x221 PUSH2 0xB85 JUMP JUMPDEST PUSH1 0x40 MLOAD PUSH2 0x22E SWAP2 SWAP1 PUSH2 0x10E3 JUMP JUMPDEST PUSH1 0x40 MLOAD DUP1 SWAP2 SUB SWAP1 RETURN JUMPDEST PUSH2 0x23F PUSH2 0xC11 JUMP JUMPDEST PUSH1 0x40 MLOAD PUSH2 0x24C SWAP2 SWAP1 PUSH2 0x10E3 JUMP JUMPDEST PUSH1 0x40 MLOAD DUP1 SWAP2 SUB SWAP1 RETURN JUMPDEST PUSH1 0x4 DUP2 DUP2 SLOAD DUP2 LT PUSH2 0x264 JUMPI PUSH0 DUP1 REVERT JUMPDEST SWAP1 PUSH0 MSTORE PUSH1 0x20 PUSH0 KECCAK256 SWAP1 PUSH1 0x2 MUL ADD PUSH0 SWAP2 POP SWAP1 POP DUP1 PUSH0 ADD DUP1 SLOAD PUSH2 0x283 SWAP1 PUSH2 0x11F1 JUMP JUMPDEST DUP1 PUSH1 0x1F ADD PUSH1 0x20 DUP1 SWAP2 DIV MUL PUSH1 0x20 ADD PUSH1 0x40 MLOAD SWAP1 DUP2 ADD PUSH1 0x40 MSTORE DUP1 SWAP3 SWAP2 SWAP1 DUP2 DUP2 MSTORE PUSH1 0x20 ADD DUP3 DUP1 SLOAD PUSH2 0x2AF SWAP1 PUSH2 0x11F1 JUMP JUMPDEST DUP1 ISZERO PUSH2 0x2FA JUMPI DUP1 PUSH1 0x1F LT PUSH2 0x2D1 JUMPI PUSH2 0x100 DUP1 DUP4 SLOAD DIV MUL DUP4 MSTORE SWAP2 PUSH1 0x20 ADD SWAP2 PUSH2 0x2FA JUMP JUMPDEST DUP3 ADD SWAP2 SWAP1 PUSH0 MSTORE PUSH1 0x20 PUSH0 KECCAK256 SWAP1 JUMPDEST DUP2 SLOAD DUP2 MSTORE SWAP1 PUSH1 0x1 ADD SWAP1 PUSH1 0x20 ADD DUP1 DUP4 GT PUSH2 0x2DD JUMPI DUP3 SWAP1 SUB PUSH1 0x1F AND DUP3 ADD SWAP2 JUMPDEST POP POP POP POP POP SWAP1 DUP1 PUSH1 0x1 ADD SLOAD SWAP1 POP DUP3 JUMP JUMPDEST PUSH0 DUP1 SLOAD SWAP1 PUSH2 0x100 EXP SWAP1 DIV PUSH20 0xFFFFFFFFFFFFFFFFFFFFFFFFFFFFFFFFFFFFFFFF AND DUP2 JUMP JUMPDEST PUSH0 PUSH1 0x5 PUSH0 DUP4 PUSH20 0xFFFFFFFFFFFFFFFFFFFFFFFFFFFFFFFFFFFFFFFF AND PUSH20 0xFFFFFFFFFFFFFFFFFFFFFFFFFFFFFFFFFFFFFFFF AND DUP2 MSTORE PUSH1 0x20 ADD SWAP1 DUP2 MSTORE PUSH1 0x20 ADD PUSH0 KECCAK256 PUSH0 ADD PUSH1 0x1 SWAP1 SLOAD SWAP1 PUSH2 0x100 EXP SWAP1 DIV PUSH1 0xFF AND SWAP1 POP SWAP2 SWAP1 POP JUMP JUMPDEST PUSH1 0x3 SLOAD DUP2 JUMP JUMPDEST PUSH1 0x60 PUSH1 0x4 DUP1 SLOAD DUP1 PUSH1 0x20 MUL PUSH1 0x20 ADD PUSH1 0x40 MLOAD SWAP1 DUP2 ADD PUSH1 0x40 MSTORE DUP1 SWAP3 SWAP2 SWAP1 DUP2 DUP2 MSTORE PUSH1 0x20 ADD PUSH0 SWAP1 JUMPDEST DUP3 DUP3 LT ISZERO PUSH2 0x474 JUMPI DUP4 DUP3 SWAP1 PUSH0 MSTORE PUSH1 0x20 PUSH0 KECCAK256 SWAP1 PUSH1 0x2 MUL ADD PUSH1 0x40 MLOAD DUP1 PUSH1 0x40 ADD PUSH1 0x40 MSTORE SWAP1 DUP2 PUSH0 DUP3 ADD DUP1 SLOAD PUSH2 0x3DB SWAP1 PUSH2 0x11F1 JUMP JUMPDEST DUP1 PUSH1 0x1F ADD PUSH1 0x20 DUP1 SWAP2 DIV MUL PUSH1 0x20 ADD PUSH1 0x40 MLOAD SWAP1 DUP2 ADD PUSH1 0x40 MSTORE DUP1 SWAP3 SWAP2 SWAP1 DUP2 DUP2 MSTORE PUSH1 0x20 ADD DUP3 DUP1 SLOAD PUSH2 0x407 SWAP1 PUSH2 0x11F1 JUMP JUMPDEST DUP1 ISZERO PUSH2 0x452 JUMPI DUP1 PUSH1 0x1F LT PUSH2 0x429 JUMPI PUSH2 0x100 DUP1 DUP4 SLOAD DIV MUL DUP4 MSTORE SWAP2 PUSH1 0x20 ADD SWAP2 PUSH2 0x452 JUMP JUMPDEST DUP3 ADD SWAP2 SWAP1 PUSH0 MSTORE PUSH1 0x20 PUSH0 KECCAK256 SWAP1 JUMPDEST DUP2 SLOAD DUP2 MSTORE SWAP1 PUSH1 0x1 ADD SWAP1 PUSH1 0x20 ADD DUP1 DUP4 GT PUSH2 0x435 JUMPI DUP3 SWAP1 SUB PUSH1 0x1F AND DUP3 ADD SWAP2 JUMPDEST POP POP POP POP POP DUP2 MSTORE PUSH1 0x20 ADD PUSH1 0x1 DUP3 ADD SLOAD DUP2 MSTORE POP POP DUP2 MSTORE PUSH1 0x20 ADD SWAP1 PUSH1 0x1 ADD SWAP1 PUSH2 0x3AB JUMP JUMPDEST POP POP POP POP SWAP1 POP SWAP1 JUMP JUMPDEST PUSH2 0x485 PUSH2 0x958 JUMP JUMPDEST ISZERO PUSH2 0x4C5 JUMPI PUSH1 0x40 MLOAD PUSH32 0x8C379A000000000000000000000000000000000000000000000000000000000 DUP2 MSTORE PUSH1 0x4 ADD PUSH2 0x4BC SWAP1 PUSH2 0x126B JUMP JUMPDEST PUSH1 0x40 MLOAD DUP1 SWAP2 SUB SWAP1 REVERT JUMPDEST PUSH0 PUSH1 0x5 PUSH0 CALLER PUSH20 0xFFFFFFFFFFFFFFFFFFFFFFFFFFFFFFFFFFFFFFFF AND PUSH20 0xFFFFFFFFFFFFFFFFFFFFFFFFFFFFFFFFFFFFFFFF AND DUP2 MSTORE PUSH1 0x20 ADD SWAP1 DUP2 MSTORE PUSH1 0x20 ADD PUSH0 KECCAK256 SWAP1 POP DUP1 PUSH0 ADD PUSH1 0x1 SWAP1 SLOAD SWAP1 PUSH2 0x100 EXP SWAP1 DIV PUSH1 0xFF AND ISZERO PUSH2 0x556 JUMPI PUSH1 0x40 MLOAD PUSH32 0x8C379A000000000000000000000000000000000000000000000000000000000 DUP2 MSTORE PUSH1 0x4 ADD PUSH2 0x54D SWAP1 PUSH2 0x12D3 JUMP JUMPDEST PUSH1 0x40 MLOAD DUP1 SWAP2 SUB SWAP1 REVERT JUMPDEST CALLER PUSH20 0xFFFFFFFFFFFFFFFFFFFFFFFFFFFFFFFFFFFFFFFF AND DUP3 PUSH20 0xFFFFFFFFFFFFFFFFFFFFFFFFFFFFFFFFFFFFFFFF AND SUB PUSH2 0x5C4 JUMPI PUSH1 0x40 MLOAD PUSH32 0x8C379A000000000000000000000000000000000000000000000000000000000 DUP2 MSTORE PUSH1 0x4 ADD PUSH2 0x5BB SWAP1 PUSH2 0x133B JUMP JUMPDEST PUSH1 0x40 MLOAD DUP1 SWAP2 SUB SWAP1 REVERT JUMPDEST JUMPDEST PUSH0 PUSH20 0xFFFFFFFFFFFFFFFFFFFFFFFFFFFFFFFFFFFFFFFF AND PUSH1 0x5 PUSH0 DUP5 PUSH20 0xFFFFFFFFFFFFFFFFFFFFFFFFFFFFFFFFFFFFFFFF AND PUSH20 0xFFFFFFFFFFFFFFFFFFFFFFFFFFFFFFFFFFFFFFFF AND DUP2 MSTORE PUSH1 0x20 ADD SWAP1 DUP2 MSTORE PUSH1 0x20 ADD PUSH0 KECCAK256 PUSH1 0x2 ADD PUSH0 SWAP1 SLOAD SWAP1 PUSH2 0x100 EXP SWAP1 DIV PUSH20 0xFFFFFFFFFFFFFFFFFFFFFFFFFFFFFFFFFFFFFFFF AND PUSH20 0xFFFFFFFFFFFFFFFFFFFFFFFFFFFFFFFFFFFFFFFF AND EQ PUSH2 0x72C JUMPI PUSH1 0x5 PUSH0 DUP4 PUSH20 0xFFFFFFFFFFFFFFFFFFFFFFFFFFFFFFFFFFFFFFFF AND PUSH20 0xFFFFFFFFFFFFFFFFFFFFFFFFFFFFFFFFFFFFFFFF AND DUP2 MSTORE PUSH1 0x20 ADD SWAP1 DUP2 MSTORE PUSH1 0x20 ADD PUSH0 KECCAK256 PUSH1 0x2 ADD PUSH0 SWAP1 SLOAD SWAP1 PUSH2 0x100 EXP SWAP1 DIV PUSH20 0xFFFFFFFFFFFFFFFFFFFFFFFFFFFFFFFFFFFFFFFF AND SWAP2 POP CALLER PUSH20 0xFFFFFFFFFFFFFFFFFFFFFFFFFFFFFFFFFFFFFFFF AND DUP3 PUSH20 0xFFFFFFFFFFFFFFFFFFFFFFFFFFFFFFFFFFFFFFFF AND SUB PUSH2 0x727 JUMPI PUSH1 0x40 MLOAD PUSH32 0x8C379A000000000000000000000000000000000000000000000000000000000 DUP2 MSTORE PUSH1 0x4 ADD PUSH2 0x71E SWAP1 PUSH2 0x13A3 JUMP JUMPDEST PUSH1 0x40 MLOAD DUP1 SWAP2 SUB SWAP1 REVERT JUMPDEST PUSH2 0x5C5 JUMP JUMPDEST PUSH1 0x1 DUP2 PUSH0 ADD PUSH1 0x1 PUSH2 0x100 EXP DUP2 SLOAD DUP2 PUSH1 0xFF MUL NOT AND SWAP1 DUP4 ISZERO ISZERO MUL OR SWAP1 SSTORE POP DUP2 DUP2 PUSH1 0x2 ADD PUSH0 PUSH2 0x100 EXP DUP2 SLOAD DUP2 PUSH20 0xFFFFFFFFFFFFFFFFFFFFFFFFFFFFFFFFFFFFFFFF MUL NOT AND SWAP1 DUP4 PUSH20 0xFFFFFFFFFFFFFFFFFFFFFFFFFFFFFFFFFFFFFFFF AND MUL OR SWAP1 SSTORE POP PUSH0 PUSH1 0x5 PUSH0 DUP5 PUSH20 0xFFFFFFFFFFFFFFFFFFFFFFFFFFFFFFFFFFFFFFFF AND PUSH20 0xFFFFFFFFFFFFFFFFFFFFFFFFFFFFFFFFFFFFFFFF AND DUP2 MSTORE PUSH1 0x20 ADD SWAP1 DUP2 MSTORE PUSH1 0x20 ADD PUSH0 KECCAK256 SWAP1 POP DUP1 PUSH0 ADD PUSH1 0x1 SWAP1 SLOAD SWAP1 PUSH2 0x100 EXP SWAP1 DIV PUSH1 0xFF AND ISZERO PUSH2 0x841 JUMPI PUSH1 0x1 DUP3 PUSH1 0x1 ADD SLOAD PUSH2 0x7F1 SWAP2 SWAP1 PUSH2 0x13EE JUMP JUMPDEST PUSH1 0x4 DUP3 PUSH0 ADD PUSH1 0x2 SWAP1 SLOAD SWAP1 PUSH2 0x100 EXP SWAP1 DIV PUSH1 0xFF AND PUSH1 0xFF AND DUP2 SLOAD DUP2 LT PUSH2 0x818 JUMPI PUSH2 0x817 PUSH2 0x1421 JUMP JUMPDEST JUMPDEST SWAP1 PUSH0 MSTORE PUSH1 0x20 PUSH0 KECCAK256 SWAP1 PUSH1 0x2 MUL ADD PUSH1 0x1 ADD PUSH0 DUP3 DUP3 SLOAD PUSH2 0x835 SWAP2 SWAP1 PUSH2 0x13EE JUMP JUMPDEST SWAP3 POP POP DUP2 SWAP1 SSTORE POP PUSH2 0x86C JUMP JUMPDEST PUSH1 0x1 DUP3 PUSH1 0x1 ADD SLOAD PUSH2 0x852 SWAP2 SWAP1 PUSH2 0x13EE JUMP JUMPDEST DUP2 PUSH1 0x1 ADD PUSH0 DUP3 DUP3 SLOAD PUSH2 0x864 SWAP2 SWAP1 PUSH2 0x13EE JUMP JUMPDEST SWAP3 POP POP DUP2 SWAP1 SSTORE POP JUMPDEST DUP3 PUSH20 0xFFFFFFFFFFFFFFFFFFFFFFFFFFFFFFFFFFFFFFFF AND CALLER PUSH20 0xFFFFFFFFFFFFFFFFFFFFFFFFFFFFFFFFFFFFFFFF AND TIMESTAMP PUSH32 0x1938DA684279C3A3E042AE0800798E60F7262803CB9BAAB844BA3FA25AD1A682 PUSH1 0x40 MLOAD PUSH1 0x40 MLOAD DUP1 SWAP2 SUB SWAP1 LOG4 POP POP POP JUMP JUMPDEST PUSH1 0x2 DUP1 SLOAD PUSH2 0x8D9 SWAP1 PUSH2 0x11F1 JUMP JUMPDEST DUP1 PUSH1 0x1F ADD PUSH1 0x20 DUP1 SWAP2 DIV MUL PUSH1 0x20 ADD PUSH1 0x40 MLOAD SWAP1 DUP2 ADD PUSH1 0x40 MSTORE DUP1 SWAP3 SWAP2 SWAP1 DUP2 DUP2 MSTORE PUSH1 0x20 ADD DUP3 DUP1 SLOAD PUSH2 0x905 SWAP1 PUSH2 0x11F1 JUMP JUMPDEST DUP1 ISZERO PUSH2 0x950 JUMPI DUP1 PUSH1 0x1F LT PUSH2 0x927 JUMPI PUSH2 0x100 DUP1 DUP4 SLOAD DIV MUL DUP4 MSTORE SWAP2 PUSH1 0x20 ADD SWAP2 PUSH2 0x950 JUMP JUMPDEST DUP3 ADD SWAP2 SWAP1 PUSH0 MSTORE PUSH1 0x20 PUSH0 KECCAK256 SWAP1 JUMPDEST DUP2 SLOAD DUP2 MSTORE SWAP1 PUSH1 0x1 ADD SWAP1 PUSH1 0x20 ADD DUP1 DUP4 GT PUSH2 0x933 JUMPI DUP3 SWAP1 SUB PUSH1 0x1F AND DUP3 ADD SWAP2 JUMPDEST POP POP POP POP POP DUP2 JUMP JUMPDEST PUSH0 PUSH1 0x3 SLOAD TIMESTAMP GT SWAP1 POP SWAP1 JUMP JUMPDEST PUSH1 0x5 PUSH1 0x20 MSTORE DUP1 PUSH0 MSTORE PUSH1 0x40 PUSH0 KECCAK256 PUSH0 SWAP2 POP SWAP1 POP DUP1 PUSH0 ADD PUSH0 SWAP1 SLOAD SWAP1 PUSH2 0x100 EXP SWAP1 DIV PUSH1 0xFF AND SWAP1 DUP1 PUSH0 ADD PUSH1 0x1 SWAP1 SLOAD SWAP1 PUSH2 0x100 EXP SWAP1 DIV PUSH1 0xFF AND SWAP1 DUP1 PUSH0 ADD PUSH1 0x2 SWAP1 SLOAD SWAP1 PUSH2 0x100 EXP SWAP1 DIV PUSH1 0xFF AND SWAP1 DUP1 PUSH1 0x1 ADD SLOAD SWAP1 DUP1 PUSH1 0x2 ADD PUSH0 SWAP1 SLOAD SWAP1 PUSH2 0x100 EXP SWAP1 DIV PUSH20 0xFFFFFFFFFFFFFFFFFFFFFFFFFFFFFFFFFFFFFFFF AND SWAP1 POP DUP6 JUMP JUMPDEST PUSH2 0x9E0 PUSH2 0x958 JUMP JUMPDEST ISZERO PUSH2 0xA20 JUMPI PUSH1 0x40 MLOAD PUSH32 0x8C379A000000000000000000000000000000000000000000000000000000000 DUP2 MSTORE PUSH1 0x4 ADD PUSH2 0xA17 SWAP1 PUSH2 0x126B JUMP JUMPDEST PUSH1 0x40 MLOAD DUP1 SWAP2 SUB SWAP1 REVERT JUMPDEST DUP1 PUSH1 0x4 DUP1 SLOAD SWAP1 POP DUP2 PUSH1 0xFF AND LT PUSH2 0xA6B JUMPI PUSH1 0x40 MLOAD PUSH32 0x8C379A000000000000000000000000000000000000000000000000000000000 DUP2 MSTORE PUSH1 0x4 ADD PUSH2 0xA62 SWAP1 PUSH2 0x1498 JUMP JUMPDEST PUSH1 0x40 MLOAD DUP1 SWAP2 SUB SWAP1 REVERT JUMPDEST PUSH0 PUSH1 0x5 PUSH0 CALLER PUSH20 0xFFFFFFFFFFFFFFFFFFFFFFFFFFFFFFFFFFFFFFFF AND PUSH20 0xFFFFFFFFFFFFFFFFFFFFFFFFFFFFFFFFFFFFFFFF AND DUP2 MSTORE PUSH1 0x20 ADD SWAP1 DUP2 MSTORE PUSH1 0x20 ADD PUSH0 KECCAK256 SWAP1 POP DUP1 PUSH0 ADD PUSH1 0x1 SWAP1 SLOAD SWAP1 PUSH2 0x100 EXP SWAP1 DIV PUSH1 0xFF AND ISZERO PUSH2 0xAFC JUMPI PUSH1 0x40 MLOAD PUSH32 0x8C379A000000000000000000000000000000000000000000000000000000000 DUP2 MSTORE PUSH1 0x4 ADD PUSH2 0xAF3 SWAP1 PUSH2 0x12D3 JUMP JUMPDEST PUSH1 0x40 MLOAD DUP1 SWAP2 SUB SWAP1 REVERT JUMPDEST PUSH1 0x1 DUP2 PUSH0 ADD PUSH1 0x1 PUSH2 0x100 EXP DUP2 SLOAD DUP2 PUSH1 0xFF MUL NOT AND SWAP1 DUP4 ISZERO ISZERO MUL OR SWAP1 SSTORE POP DUP3 DUP2 PUSH0 ADD PUSH1 0x2 PUSH2 0x100 EXP DUP2 SLOAD DUP2 PUSH1 0xFF MUL NOT AND SWAP1 DUP4 PUSH1 0xFF AND MUL OR SWAP1 SSTORE POP PUSH1 0x1 DUP2 PUSH1 0x1 ADD SLOAD PUSH2 0xB45 SWAP2 SWAP1 PUSH2 0x13EE JUMP JUMPDEST PUSH1 0x4 DUP5 PUSH1 0xFF AND DUP2 SLOAD DUP2 LT PUSH2 0xB5C JUMPI PUSH2 0xB5B PUSH2 0x1421 JUMP JUMPDEST JUMPDEST SWAP1 PUSH0 MSTORE PUSH1 0x20 PUSH0 KECCAK256 SWAP1 PUSH1 0x2 MUL ADD PUSH1 0x1 ADD PUSH0 DUP3 DUP3 SLOAD PUSH2 0xB79 SWAP2 SWAP1 PUSH2 0x13EE JUMP JUMPDEST SWAP3 POP POP DUP2 SWAP1 SSTORE POP POP POP POP JUMP JUMPDEST PUSH1 0x1 DUP1 SLOAD PUSH2 0xB92 SWAP1 PUSH2 0x11F1 JUMP JUMPDEST DUP1 PUSH1 0x1F ADD PUSH1 0x20 DUP1 SWAP2 DIV MUL PUSH1 0x20 ADD PUSH1 0x40 MLOAD SWAP1 DUP2 ADD PUSH1 0x40 MSTORE DUP1 SWAP3 SWAP2 SWAP1 DUP2 DUP2 MSTORE PUSH1 0x20 ADD DUP3 DUP1 SLOAD PUSH2 0xBBE SWAP1 PUSH2 0x11F1 JUMP JUMPDEST DUP1 ISZERO PUSH2 0xC09 JUMPI DUP1 PUSH1 0x1F LT PUSH2 0xBE0 JUMPI PUSH2 0x100 DUP1 DUP4 SLOAD DIV MUL DUP4 MSTORE SWAP2 PUSH1 0x20 ADD SWAP2 PUSH2 0xC09 JUMP JUMPDEST DUP3 ADD SWAP2 SWAP1 PUSH0 MSTORE PUSH1 0x20 PUSH0 KECCAK256 SWAP1 JUMPDEST DUP2 SLOAD DUP2 MSTORE SWAP1 PUSH1 0x1 ADD SWAP1 PUSH1 0x20 ADD DUP1 DUP4 GT PUSH2 0xBEC JUMPI DUP3 SWAP1 SUB PUSH1 0x1F AND DUP3 ADD SWAP2 JUMPDEST POP POP POP POP POP DUP2 JUMP JUMPDEST PUSH1 0x60 PUSH1 0x4 PUSH2 0xC1D PUSH2 0xCCB JUMP JUMPDEST PUSH1 0xFF AND DUP2 SLOAD DUP2 LT PUSH2 0xC31 JUMPI PUSH2 0xC30 PUSH2 0x1421 JUMP JUMPDEST JUMPDEST SWAP1 PUSH0 MSTORE PUSH1 0x20 PUSH0 KECCAK256 SWAP1 PUSH1 0x2 MUL ADD PUSH0 ADD DUP1 SLOAD PUSH2 0xC4A SWAP1 PUSH2 0x11F1 JUMP JUMPDEST DUP1 PUSH1 0x1F ADD PUSH1 0x20 DUP1 SWAP2 DIV MUL PUSH1 0x20 ADD PUSH1 0x40 MLOAD SWAP1 DUP2 ADD PUSH1 0x40 MSTORE DUP1 SWAP3 SWAP2 SWAP1 DUP2 DUP2 MSTORE PUSH1 0x20 ADD DUP3 DUP1 SLOAD PUSH2 0xC76 SWAP1 PUSH2 0x11F1 JUMP JUMPDEST DUP1 ISZERO PUSH2 0xCC1 JUMPI DUP1 PUSH1 0x1F LT PUSH2 0xC98 JUMPI PUSH2 0x100 DUP1 DUP4 SLOAD DIV MUL DUP4 MSTORE SWAP2 PUSH1 0x20 ADD SWAP2 PUSH2 0xCC1 JUMP JUMPDEST DUP3 ADD SWAP2 SWAP1 PUSH0 MSTORE PUSH1 0x20 PUSH0 KECCAK256 SWAP1 JUMPDEST DUP2 SLOAD DUP2 MSTORE SWAP1 PUSH1 0x1 ADD SWAP1 PUSH1 0x20 ADD DUP1 DUP4 GT PUSH2 0xCA4 JUMPI DUP3 SWAP1 SUB PUSH1 0x1F AND DUP3 ADD SWAP2 JUMPDEST POP POP POP POP POP SWAP1 POP SWAP1 JUMP JUMPDEST PUSH0 DUP1 PUSH0 SWAP1 POP PUSH0 JUMPDEST PUSH1 0x4 DUP1 SLOAD SWAP1 POP DUP2 PUSH1 0xFF AND LT ISZERO PUSH2 0xD50 JUMPI DUP2 PUSH1 0x4 DUP3 PUSH1 0xFF AND DUP2 SLOAD DUP2 LT PUSH2 0xCFA JUMPI PUSH2 0xCF9 PUSH2 0x1421 JUMP JUMPDEST JUMPDEST SWAP1 PUSH0 MSTORE PUSH1 0x20 PUSH0 KECCAK256 SWAP1 PUSH1 0x2 MUL ADD PUSH1 0x1 ADD SLOAD GT ISZERO PUSH2 0xD3D JUMPI PUSH1 0x4 DUP2 PUSH1 0xFF AND DUP2 SLOAD DUP2 LT PUSH2 0xD27 JUMPI PUSH2 0xD26 PUSH2 0x1421 JUMP JUMPDEST JUMPDEST SWAP1 PUSH0 MSTORE PUSH1 0x20 PUSH0 KECCAK256 SWAP1 PUSH1 0x2 MUL ADD PUSH1 0x1 ADD SLOAD SWAP2 POP DUP1 SWAP3 POP JUMPDEST DUP1 DUP1 PUSH2 0xD48 SWAP1 PUSH2 0x14B6 JUMP JUMPDEST SWAP2 POP POP PUSH2 0xCD2 JUMP JUMPDEST POP POP SWAP1 JUMP JUMPDEST PUSH0 DUP1 REVERT JUMPDEST PUSH0 DUP2 SWAP1 POP SWAP2 SWAP1 POP JUMP JUMPDEST PUSH2 0xD6B DUP2 PUSH2 0xD59 JUMP JUMPDEST DUP2 EQ PUSH2 0xD75 JUMPI PUSH0 DUP1 REVERT JUMPDEST POP JUMP JUMPDEST PUSH0 DUP2 CALLDATALOAD SWAP1 POP PUSH2 0xD86 DUP2 PUSH2 0xD62 JUMP JUMPDEST SWAP3 SWAP2 POP POP JUMP JUMPDEST PUSH0 PUSH1 0x20 DUP3 DUP5 SUB SLT ISZERO PUSH2 0xDA1 JUMPI PUSH2 0xDA0 PUSH2 0xD55 JUMP JUMPDEST JUMPDEST PUSH0 PUSH2 0xDAE DUP5 DUP3 DUP6 ADD PUSH2 0xD78 JUMP JUMPDEST SWAP2 POP POP SWAP3 SWAP2 POP POP JUMP JUMPDEST PUSH0 DUP2 MLOAD SWAP1 POP SWAP2 SWAP1 POP JUMP JUMPDEST PUSH0 DUP3 DUP3 MSTORE PUSH1 0x20 DUP3 ADD SWAP1 POP SWAP3 SWAP2 POP POP JUMP JUMPDEST PUSH0 JUMPDEST DUP4 DUP2 LT ISZERO PUSH2 0xDEE JUMPI DUP1 DUP3 ADD MLOAD DUP2 DUP5 ADD MSTORE PUSH1 0x20 DUP2 ADD SWAP1 POP PUSH2 0xDD3 JUMP JUMPDEST PUSH0 DUP5 DUP5 ADD MSTORE POP POP POP POP JUMP JUMPDEST PUSH0 PUSH1 0x1F NOT PUSH1 0x1F DUP4 ADD AND SWAP1 POP SWAP2 SWAP1 POP JUMP JUMPDEST PUSH0 PUSH2 0xE13 DUP3 PUSH2 0xDB7 JUMP JUMPDEST PUSH2 0xE1D DUP2 DUP6 PUSH2 0xDC1 JUMP JUMPDEST SWAP4 POP PUSH2 0xE2D DUP2 DUP6 PUSH1 0x20 DUP7 ADD PUSH2 0xDD1 JUMP JUMPDEST PUSH2 0xE36 DUP2 PUSH2 0xDF9 JUMP JUMPDEST DUP5 ADD SWAP2 POP POP SWAP3 SWAP2 POP POP JUMP JUMPDEST PUSH2 0xE4A DUP2 PUSH2 0xD59 JUMP JUMPDEST DUP3 MSTORE POP POP JUMP JUMPDEST PUSH0 PUSH1 0x40 DUP3 ADD SWAP1 POP DUP2 DUP2 SUB PUSH0 DUP4 ADD MSTORE PUSH2 0xE68 DUP2 DUP6 PUSH2 0xE09 JUMP JUMPDEST SWAP1 POP PUSH2 0xE77 PUSH1 0x20 DUP4 ADD DUP5 PUSH2 0xE41 JUMP JUMPDEST SWAP4 SWAP3 POP POP POP JUMP JUMPDEST PUSH0 PUSH20 0xFFFFFFFFFFFFFFFFFFFFFFFFFFFFFFFFFFFFFFFF DUP3 AND SWAP1 POP SWAP2 SWAP1 POP JUMP JUMPDEST PUSH0 PUSH2 0xEA7 DUP3 PUSH2 0xE7E JUMP JUMPDEST SWAP1 POP SWAP2 SWAP1 POP JUMP JUMPDEST PUSH2 0xEB7 DUP2 PUSH2 0xE9D JUMP JUMPDEST DUP3 MSTORE POP POP JUMP JUMPDEST PUSH0 PUSH1 0x20 DUP3 ADD SWAP1 POP PUSH2 0xED0 PUSH0 DUP4 ADD DUP5 PUSH2 0xEAE JUMP JUMPDEST SWAP3 SWAP2 POP POP JUMP JUMPDEST PUSH2 0xEDF DUP2 PUSH2 0xE9D JUMP JUMPDEST DUP2 EQ PUSH2 0xEE9 JUMPI PUSH0 DUP1 REVERT JUMPDEST POP JUMP JUMPDEST PUSH0 DUP2 CALLDATALOAD SWAP1 POP PUSH2 0xEFA DUP2 PUSH2 0xED6 JUMP JUMPDEST SWAP3 SWAP2 POP POP JUMP JUMPDEST PUSH0 PUSH1 0x20 DUP3 DUP5 SUB SLT ISZERO PUSH2 0xF15 JUMPI PUSH2 0xF14 PUSH2 0xD55 JUMP JUMPDEST JUMPDEST PUSH0 PUSH2 0xF22 DUP5 DUP3 DUP6 ADD PUSH2 0xEEC JUMP JUMPDEST SWAP2 POP POP SWAP3 SWAP2 POP POP JUMP JUMPDEST PUSH0 DUP2 ISZERO ISZERO SWAP1 POP SWAP2 SWAP1 POP JUMP JUMPDEST PUSH2 0xF3F DUP2 PUSH2 0xF2B JUMP JUMPDEST DUP3 MSTORE POP POP JUMP JUMPDEST PUSH0 PUSH1 0x20 DUP3 ADD SWAP1 POP PUSH2 0xF58 PUSH0 DUP4 ADD DUP5 PUSH2 0xF36 JUMP JUMPDEST SWAP3 SWAP2 POP POP JUMP JUMPDEST PUSH0 PUSH1 0x20 DUP3 ADD SWAP1 POP PUSH2 0xF71 PUSH0 DUP4 ADD DUP5 PUSH2 0xE41 JUMP JUMPDEST SWAP3 SWAP2 POP POP JUMP JUMPDEST PUSH0 DUP2 MLOAD SWAP1 POP SWAP2 SWAP1 POP JUMP JUMPDEST PUSH0 DUP3 DUP3 MSTORE PUSH1 0x20 DUP3 ADD SWAP1 POP SWAP3 SWAP2 POP POP JUMP JUMPDEST PUSH0 DUP2 SWAP1 POP PUSH1 0x20 DUP3 ADD SWAP1 POP SWAP2 SWAP1 POP JUMP JUMPDEST PUSH0 DUP3 DUP3 MSTORE PUSH1 0x20 DUP3 ADD SWAP1 POP SWAP3 SWAP2 POP POP JUMP JUMPDEST PUSH0 PUSH2 0xFBA DUP3 PUSH2 0xDB7 JUMP JUMPDEST PUSH2 0xFC4 DUP2 DUP6 PUSH2 0xFA0 JUMP JUMPDEST SWAP4 POP PUSH2 0xFD4 DUP2 DUP6 PUSH1 0x20 DUP7 ADD PUSH2 0xDD1 JUMP JUMPDEST PUSH2 0xFDD DUP2 PUSH2 0xDF9 JUMP JUMPDEST DUP5 ADD SWAP2 POP POP SWAP3 SWAP2 POP POP JUMP JUMPDEST PUSH2 0xFF1 DUP2 PUSH2 0xD59 JUMP JUMPDEST DUP3 MSTORE POP POP JUMP JUMPDEST PUSH0 PUSH1 0x40 DUP4 ADD PUSH0 DUP4 ADD MLOAD DUP5 DUP3 SUB PUSH0 DUP7 ADD MSTORE PUSH2 0x1011 DUP3 DUP3 PUSH2 0xFB0 JUMP JUMPDEST SWAP2 POP POP PUSH1 0x20 DUP4 ADD MLOAD PUSH2 0x1026 PUSH1 0x20 DUP7 ADD DUP3 PUSH2 0xFE8 JUMP JUMPDEST POP DUP1 SWAP2 POP POP SWAP3 SWAP2 POP POP JUMP JUMPDEST PUSH0 PUSH2 0x103C DUP4 DUP4 PUSH2 0xFF7 JUMP JUMPDEST SWAP1 POP SWAP3 SWAP2 POP POP JUMP JUMPDEST PUSH0 PUSH1 0x20 DUP3 ADD SWAP1 POP SWAP2 SWAP1 POP JUMP JUMPDEST PUSH0 PUSH2 0x105A DUP3 PUSH2 0xF77 JUMP JUMPDEST PUSH2 0x1064 DUP2 DUP6 PUSH2 0xF81 JUMP JUMPDEST SWAP4 POP DUP4 PUSH1 0x20 DUP3 MUL DUP6 ADD PUSH2 0x1076 DUP6 PUSH2 0xF91 JUMP JUMPDEST DUP1 PUSH0 JUMPDEST DUP6 DUP2 LT ISZERO PUSH2 0x10B1 JUMPI DUP5 DUP5 SUB DUP10 MSTORE DUP2 MLOAD PUSH2 0x1092 DUP6 DUP3 PUSH2 0x1031 JUMP JUMPDEST SWAP5 POP PUSH2 0x109D DUP4 PUSH2 0x1044 JUMP JUMPDEST SWAP3 POP PUSH1 0x20 DUP11 ADD SWAP10 POP POP PUSH1 0x1 DUP2 ADD SWAP1 POP PUSH2 0x1079 JUMP JUMPDEST POP DUP3 SWAP8 POP DUP8 SWAP6 POP POP POP POP POP POP SWAP3 SWAP2 POP POP JUMP JUMPDEST PUSH0 PUSH1 0x20 DUP3 ADD SWAP1 POP DUP2 DUP2 SUB PUSH0 DUP4 ADD MSTORE PUSH2 0x10DB DUP2 DUP5 PUSH2 0x1050 JUMP JUMPDEST SWAP1 POP SWAP3 SWAP2 POP POP JUMP JUMPDEST PUSH0 PUSH1 0x20 DUP3 ADD SWAP1 POP DUP2 DUP2 SUB PUSH0 DUP4 ADD MSTORE PUSH2 0x10FB DUP2 DUP5 PUSH2 0xE09 JUMP JUMPDEST SWAP1 POP SWAP3 SWAP2 POP POP JUMP JUMPDEST PUSH0 PUSH1 0xFF DUP3 AND SWAP1 POP SWAP2 SWAP1 POP JUMP JUMPDEST PUSH2 0x1118 DUP2 PUSH2 0x1103 JUMP JUMPDEST DUP3 MSTORE POP POP JUMP JUMPDEST PUSH0 PUSH1 0xA0 DUP3 ADD SWAP1 POP PUSH2 0x1131 PUSH0 DUP4 ADD DUP9 PUSH2 0xF36 JUMP JUMPDEST PUSH2 0x113E PUSH1 0x20 DUP4 ADD DUP8 PUSH2 0xF36 JUMP JUMPDEST PUSH2 0x114B PUSH1 0x40 DUP4 ADD DUP7 PUSH2 0x110F JUMP JUMPDEST PUSH2 0x1158 PUSH1 0x60 DUP4 ADD DUP6 PUSH2 0xE41 JUMP JUMPDEST PUSH2 0x1165 PUSH1 0x80 DUP4 ADD DUP5 PUSH2 0xEAE JUMP JUMPDEST SWAP7 SWAP6 POP POP POP POP POP POP JUMP JUMPDEST PUSH2 0x1178 DUP2 PUSH2 0x1103 JUMP JUMPDEST DUP2 EQ PUSH2 0x1182 JUMPI PUSH0 DUP1 REVERT JUMPDEST POP JUMP JUMPDEST PUSH0 DUP2 CALLDATALOAD SWAP1 POP PUSH2 0x1193 DUP2 PUSH2 0x116F JUMP JUMPDEST SWAP3 SWAP2 POP POP JUMP JUMPDEST PUSH0 PUSH1 0x20 DUP3 DUP5 SUB SLT ISZERO PUSH2 0x11AE JUMPI PUSH2 0x11AD PUSH2 0xD55 JUMP JUMPDEST JUMPDEST PUSH0 PUSH2 0x11BB DUP5 DUP3 DUP6 ADD PUSH2 0x1185 JUMP JUMPDEST SWAP2 POP POP SWAP3 SWAP2 POP POP JUMP JUMPDEST PUSH32 0x4E487B7100000000000000000000000000000000000000000000000000000000 PUSH0 MSTORE PUSH1 0x22 PUSH1 0x4 MSTORE PUSH1 0x24 PUSH0 REVERT JUMPDEST PUSH0 PUSH1 0x2 DUP3 DIV SWAP1 POP PUSH1 0x1 DUP3 AND DUP1 PUSH2 0x1208 JUMPI PUSH1 0x7F DUP3 AND SWAP2 POP JUMPDEST PUSH1 0x20 DUP3 LT DUP2 SUB PUSH2 0x121B JUMPI PUSH2 0x121A PUSH2 0x11C4 JUMP JUMPDEST JUMPDEST POP SWAP2 SWAP1 POP JUMP JUMPDEST PUSH32 0x446561646C696E652068617320657870697265642E0000000000000000000000 PUSH0 DUP3 ADD MSTORE POP JUMP JUMPDEST PUSH0 PUSH2 0x1255 PUSH1 0x15 DUP4 PUSH2 0xDC1 JUMP JUMPDEST SWAP2 POP PUSH2 0x1260 DUP3 PUSH2 0x1221 JUMP JUMPDEST PUSH1 0x20 DUP3 ADD SWAP1 POP SWAP2 SWAP1 POP JUMP JUMPDEST PUSH0 PUSH1 0x20 DUP3 ADD SWAP1 POP DUP2 DUP2 SUB PUSH0 DUP4 ADD MSTORE PUSH2 0x1282 DUP2 PUSH2 0x1249 JUMP JUMPDEST SWAP1 POP SWAP2 SWAP1 POP JUMP JUMPDEST PUSH32 0x416C726561647920766F7465642E000000000000000000000000000000000000 PUSH0 DUP3 ADD MSTORE POP JUMP JUMPDEST PUSH0 PUSH2 0x12BD PUSH1 0xE DUP4 PUSH2 0xDC1 JUMP JUMPDEST SWAP2 POP PUSH2 0x12C8 DUP3 PUSH2 0x1289 JUMP JUMPDEST PUSH1 0x20 DUP3 ADD SWAP1 POP SWAP2 SWAP1 POP JUMP JUMPDEST PUSH0 PUSH1 0x20 DUP3 ADD SWAP1 POP DUP2 DUP2 SUB PUSH0 DUP4 ADD MSTORE PUSH2 0x12EA DUP2 PUSH2 0x12B1 JUMP JUMPDEST SWAP1 POP SWAP2 SWAP1 POP JUMP JUMPDEST PUSH32 0x53656C662D64656C65676174696F6E206973206E6F7420616C6C6F7765642E00 PUSH0 DUP3 ADD MSTORE POP JUMP JUMPDEST PUSH0 PUSH2 0x1325 PUSH1 0x1F DUP4 PUSH2 0xDC1 JUMP JUMPDEST SWAP2 POP PUSH2 0x1330 DUP3 PUSH2 0x12F1 JUMP JUMPDEST PUSH1 0x20 DUP3 ADD SWAP1 POP SWAP2 SWAP1 POP JUMP JUMPDEST PUSH0 PUSH1 0x20 DUP3 ADD SWAP1 POP DUP2 DUP2 SUB PUSH0 DUP4 ADD MSTORE PUSH2 0x1352 DUP2 PUSH2 0x1319 JUMP JUMPDEST SWAP1 POP SWAP2 SWAP1 POP JUMP JUMPDEST PUSH32 0x466F756E64206C6F6F7020696E2064656C65676174696F6E2E00000000000000 PUSH0 DUP3 ADD MSTORE POP JUMP JUMPDEST PUSH0 PUSH2 0x138D PUSH1 0x19 DUP4 PUSH2 0xDC1 JUMP JUMPDEST SWAP2 POP PUSH2 0x1398 DUP3 PUSH2 0x1359 JUMP JUMPDEST PUSH1 0x20 DUP3 ADD SWAP1 POP SWAP2 SWAP1 POP JUMP JUMPDEST PUSH0 PUSH1 0x20 DUP3 ADD SWAP1 POP DUP2 DUP2 SUB PUSH0 DUP4 ADD MSTORE PUSH2 0x13BA DUP2 PUSH2 0x1381 JUMP JUMPDEST SWAP1 POP SWAP2 SWAP1 POP JUMP JUMPDEST PUSH32 0x4E487B7100000000000000000000000000000000000000000000000000000000 PUSH0 MSTORE PUSH1 0x11 PUSH1 0x4 MSTORE PUSH1 0x24 PUSH0 REVERT JUMPDEST PUSH0 PUSH2 0x13F8 DUP3 PUSH2 0xD59 JUMP JUMPDEST SWAP2 POP PUSH2 0x1403 DUP4 PUSH2 0xD59 JUMP JUMPDEST SWAP3 POP DUP3 DUP3 ADD SWAP1 POP DUP1 DUP3 GT ISZERO PUSH2 0x141B JUMPI PUSH2 0x141A PUSH2 0x13C1 JUMP JUMPDEST JUMPDEST SWAP3 SWAP2 POP POP JUMP JUMPDEST PUSH32 0x4E487B7100000000000000000000000000000000000000000000000000000000 PUSH0 MSTORE PUSH1 0x32 PUSH1 0x4 MSTORE PUSH1 0x24 PUSH0 REVERT JUMPDEST PUSH32 0x546869732070726F706F73616C20646F6573206E6F742065786973742E000000 PUSH0 DUP3 ADD MSTORE POP JUMP JUMPDEST PUSH0 PUSH2 0x1482 PUSH1 0x1D DUP4 PUSH2 0xDC1 JUMP JUMPDEST SWAP2 POP PUSH2 0x148D DUP3 PUSH2 0x144E JUMP JUMPDEST PUSH1 0x20 DUP3 ADD SWAP1 POP SWAP2 SWAP1 POP JUMP JUMPDEST PUSH0 PUSH1 0x20 DUP3 ADD SWAP1 POP DUP2 DUP2 SUB PUSH0 DUP4 ADD MSTORE PUSH2 0x14AF DUP2 PUSH2 0x1476 JUMP JUMPDEST SWAP1 POP SWAP2 SWAP1 POP JUMP JUMPDEST PUSH0 PUSH2 0x14C0 DUP3 PUSH2 0x1103 JUMP JUMPDEST SWAP2 POP PUSH1 0xFF DUP3 SUB PUSH2 0x14D3 JUMPI PUSH2 0x14D2 PUSH2 0x13C1 JUMP JUMPDEST JUMPDEST PUSH1 0x1 DUP3 ADD SWAP1 POP SWAP2 SWAP1 POP JUMP INVALID LOG2 PUSH5 0x6970667358 0x22 SLT KECCAK256 DELEGATECALL 0x27 0xEE COINBASE MSIZE PUSH32 0xB3E5B777CFD4073B2136083D303C2DC07EC50A376E8117DA4F5D64736F6C6343 STOP ADDMOD EQ STOP CALLER PUSH1 0x80 PUSH1 0x40 MSTORE CALLVALUE DUP1 ISZERO PUSH3 0x10 JUMPI PUSH0 DUP1 REVERT JUMPDEST POP PUSH1 0x40 MLOAD PUSH3 0x1D61 CODESIZE SUB DUP1 PUSH3 0x1D61 DUP4 CODECOPY DUP2 DUP2 ADD PUSH1 0x40 MSTORE DUP2 ADD SWAP1 PUSH3 0x36 SWAP2 SWAP1 PUSH3 0x4D6 JUMP JUMPDEST DUP5 DUP5 DUP5 DUP5 DUP5 DUP5 DUP1 PUSH0 DUP1 PUSH2 0x100 EXP DUP2 SLOAD DUP2 PUSH20 0xFFFFFFFFFFFFFFFFFFFFFFFFFFFFFFFFFFFFFFFF MUL NOT AND SWAP1 DUP4 PUSH20 0xFFFFFFFFFFFFFFFFFFFFFFFFFFFFFFFFFFFFFFFF AND MUL OR SWAP1 SSTORE POP POP DUP4 PUSH1 0x1 SWAP1 DUP2 PUSH3 0x8D SWAP2 SWAP1 PUSH3 0x7E5 JUMP JUMPDEST POP DUP3 PUSH1 0x2 SWAP1 DUP2 PUSH3 0x9F SWAP2 SWAP1 PUSH3 0x7E5 JUMP JUMPDEST POP DUP1 TIMESTAMP PUSH3 0xAE SWAP2 SWAP1 PUSH3 0x8F6 JUMP JUMPDEST PUSH1 0x3 DUP2 SWAP1 SSTORE POP PUSH0 JUMPDEST DUP3 MLOAD DUP2 PUSH1 0xFF AND LT ISZERO PUSH3 0x158 JUMPI PUSH1 0x4 PUSH1 0x40 MLOAD DUP1 PUSH1 0x40 ADD PUSH1 0x40 MSTORE DUP1 DUP6 DUP5 PUSH1 0xFF AND DUP2 MLOAD DUP2 LT PUSH3 0xE9 JUMPI PUSH3 0xE8 PUSH3 0x930 JUMP JUMPDEST JUMPDEST PUSH1 0x20 MUL PUSH1 0x20 ADD ADD MLOAD DUP2 MSTORE PUSH1 0x20 ADD PUSH0 DUP2 MSTORE POP SWAP1 DUP1 PUSH1 0x1 DUP2 SLOAD ADD DUP1 DUP3 SSTORE DUP1 SWAP2 POP POP PUSH1 0x1 SWAP1 SUB SWAP1 PUSH0 MSTORE PUSH1 0x20 PUSH0 KECCAK256 SWAP1 PUSH1 0x2 MUL ADD PUSH0 SWAP1 SWAP2 SWAP1 SWAP2 SWAP1 SWAP2 POP PUSH0 DUP3 ADD MLOAD DUP2 PUSH0 ADD SWAP1 DUP2 PUSH3 0x135 SWAP2 SWAP1 PUSH3 0x7E5 JUMP JUMPDEST POP PUSH1 0x20 DUP3 ADD MLOAD DUP2 PUSH1 0x1 ADD SSTORE POP POP DUP1 DUP1 PUSH3 0x14F SWAP1 PUSH3 0x969 JUMP JUMPDEST SWAP2 POP POP PUSH3 0xB6 JUMP JUMPDEST POP POP POP POP POP POP PUSH1 0x1 PUSH1 0x5 PUSH0 DUP8 PUSH20 0xFFFFFFFFFFFFFFFFFFFFFFFFFFFFFFFFFFFFFFFF AND PUSH20 0xFFFFFFFFFFFFFFFFFFFFFFFFFFFFFFFFFFFFFFFF AND DUP2 MSTORE PUSH1 0x20 ADD SWAP1 DUP2 MSTORE PUSH1 0x20 ADD PUSH0 KECCAK256 PUSH0 ADD PUSH0 PUSH2 0x100 EXP DUP2 SLOAD DUP2 PUSH1 0xFF MUL NOT AND SWAP1 DUP4 ISZERO ISZERO MUL OR SWAP1 SSTORE POP POP POP POP POP POP PUSH3 0x996 JUMP JUMPDEST PUSH0 PUSH1 0x40 MLOAD SWAP1 POP SWAP1 JUMP JUMPDEST PUSH0 DUP1 REVERT JUMPDEST PUSH0 DUP1 REVERT JUMPDEST PUSH0 PUSH20 0xFFFFFFFFFFFFFFFFFFFFFFFFFFFFFFFFFFFFFFFF DUP3 AND SWAP1 POP SWAP2 SWAP1 POP JUMP JUMPDEST PUSH0 PUSH3 0x1FC DUP3 PUSH3 0x1D1 JUMP JUMPDEST SWAP1 POP SWAP2 SWAP1 POP JUMP JUMPDEST PUSH3 0x20E DUP2 PUSH3 0x1F0 JUMP JUMPDEST DUP2 EQ PUSH3 0x219 JUMPI PUSH0 DUP1 REVERT JUMPDEST POP JUMP JUMPDEST PUSH0 DUP2 MLOAD SWAP1 POP PUSH3 0x22C DUP2 PUSH3 0x203 JUMP JUMPDEST SWAP3 SWAP2 POP POP JUMP JUMPDEST PUSH0 DUP1 REVERT JUMPDEST PUSH0 DUP1 REVERT JUMPDEST PUSH0 PUSH1 0x1F NOT PUSH1 0x1F DUP4 ADD AND SWAP1 POP SWAP2 SWAP1 POP JUMP JUMPDEST PUSH32 0x4E487B7100000000000000000000000000000000000000000000000000000000 PUSH0 MSTORE PUSH1 0x41 PUSH1 0x4 MSTORE PUSH1 0x24 PUSH0 REVERT JUMPDEST PUSH3 0x282 DUP3 PUSH3 0x23A JUMP JUMPDEST DUP2 ADD DUP2 DUP2 LT PUSH8 0xFFFFFFFFFFFFFFFF DUP3 GT OR ISZERO PUSH3 0x2A4 JUMPI PUSH3 0x2A3 PUSH3 0x24A JUMP JUMPDEST JUMPDEST DUP1 PUSH1 0x40 MSTORE POP POP POP JUMP JUMPDEST PUSH0 PUSH3 0x2B8 PUSH3 0x1C0 JUMP JUMPDEST SWAP1 POP PUSH3 0x2C6 DUP3 DUP3 PUSH3 0x277 JUMP JUMPDEST SWAP2 SWAP1 POP JUMP JUMPDEST PUSH0 PUSH8 0xFFFFFFFFFFFFFFFF DUP3 GT ISZERO PUSH3 0x2E8 JUMPI PUSH3 0x2E7 PUSH3 0x24A JUMP JUMPDEST JUMPDEST PUSH3 0x2F3 DUP3 PUSH3 0x23A JUMP JUMPDEST SWAP1 POP PUSH1 0x20 DUP2 ADD SWAP1 POP SWAP2 SWAP1 POP JUMP JUMPDEST PUSH0 JUMPDEST DUP4 DUP2 LT ISZERO PUSH3 0x31F JUMPI DUP1 DUP3 ADD MLOAD DUP2 DUP5 ADD MSTORE PUSH1 0x20 DUP2 ADD SWAP1 POP PUSH3 0x302 JUMP JUMPDEST PUSH0 DUP5 DUP5 ADD MSTORE POP POP POP POP JUMP JUMPDEST PUSH0 PUSH3 0x340 PUSH3 0x33A DUP5 PUSH3 0x2CB JUMP JUMPDEST PUSH3 0x2AD JUMP JUMPDEST SWAP1 POP DUP3 DUP2 MSTORE PUSH1 0x20 DUP2 ADD DUP5 DUP5 DUP5 ADD GT ISZERO PUSH3 0x35F JUMPI PUSH3 0x35E PUSH3 0x236 JUMP JUMPDEST JUMPDEST PUSH3 0x36C DUP5 DUP3 DUP6 PUSH3 0x300 JUMP JUMPDEST POP SWAP4 SWAP3 POP POP POP JUMP JUMPDEST PUSH0 DUP3 PUSH1 0x1F DUP4 ADD SLT PUSH3 0x38B JUMPI PUSH3 0x38A PUSH3 0x232 JUMP JUMPDEST JUMPDEST DUP2 MLOAD PUSH3 0x39D DUP5 DUP3 PUSH1 0x20 DUP7 ADD PUSH3 0x32A JUMP JUMPDEST SWAP2 POP POP SWAP3 SWAP2 POP POP JUMP JUMPDEST PUSH0 PUSH8 0xFFFFFFFFFFFFFFFF DUP3 GT ISZERO PUSH3 0x3C3 JUMPI PUSH3 0x3C2 PUSH3 0x24A JUMP JUMPDEST JUMPDEST PUSH1 0x20 DUP3 MUL SWAP1 POP PUSH1 0x20 DUP2 ADD SWAP1 POP SWAP2 SWAP1 POP JUMP JUMPDEST PUSH0 DUP1 REVERT JUMPDEST PUSH0 PUSH3 0x3EE PUSH3 0x3E8 DUP5 PUSH3 0x3A6 JUMP JUMPDEST PUSH3 0x2AD JUMP JUMPDEST SWAP1 POP DUP1 DUP4 DUP3 MSTORE PUSH1 0x20 DUP3 ADD SWAP1 POP PUSH1 0x20 DUP5 MUL DUP4 ADD DUP6 DUP2 GT ISZERO PUSH3 0x414 JUMPI PUSH3 0x413 PUSH3 0x3D4 JUMP JUMPDEST JUMPDEST DUP4 JUMPDEST DUP2 DUP2 LT ISZERO PUSH3 0x462 JUMPI DUP1 MLOAD PUSH8 0xFFFFFFFFFFFFFFFF DUP2 GT ISZERO PUSH3 0x43D JUMPI PUSH3 0x43C PUSH3 0x232 JUMP JUMPDEST JUMPDEST DUP1 DUP7 ADD PUSH3 0x44C DUP10 DUP3 PUSH3 0x374 JUMP JUMPDEST DUP6 MSTORE PUSH1 0x20 DUP6 ADD SWAP5 POP POP POP PUSH1 0x20 DUP2 ADD SWAP1 POP PUSH3 0x416 JUMP JUMPDEST POP POP POP SWAP4 SWAP3 POP POP POP JUMP JUMPDEST PUSH0 DUP3 PUSH1 0x1F DUP4 ADD SLT PUSH3 0x483 JUMPI PUSH3 0x482 PUSH3 0x232 JUMP JUMPDEST JUMPDEST DUP2 MLOAD PUSH3 0x495 DUP5 DUP3 PUSH1 0x20 DUP7 ADD PUSH3 0x3D8 JUMP JUMPDEST SWAP2 POP POP SWAP3 SWAP2 POP POP JUMP JUMPDEST PUSH0 DUP2 SWAP1 POP SWAP2 SWAP1 POP JUMP JUMPDEST PUSH3 0x4B2 DUP2 PUSH3 0x49E JUMP JUMPDEST DUP2 EQ PUSH3 0x4BD JUMPI PUSH0 DUP1 REVERT JUMPDEST POP JUMP JUMPDEST PUSH0 DUP2 MLOAD SWAP1 POP PUSH3 0x4D0 DUP2 PUSH3 0x4A7 JUMP JUMPDEST SWAP3 SWAP2 POP POP JUMP JUMPDEST PUSH0 DUP1 PUSH0 DUP1 PUSH0 PUSH1 0xA0 DUP7 DUP9 SUB SLT ISZERO PUSH3 0x4F2 JUMPI PUSH3 0x4F1 PUSH3 0x1C9 JUMP JUMPDEST JUMPDEST PUSH0 PUSH3 0x501 DUP9 DUP3 DUP10 ADD PUSH3 0x21C JUMP JUMPDEST SWAP6 POP POP PUSH1 0x20 DUP7 ADD MLOAD PUSH8 0xFFFFFFFFFFFFFFFF DUP2 GT ISZERO PUSH3 0x525 JUMPI PUSH3 0x524 PUSH3 0x1CD JUMP JUMPDEST JUMPDEST PUSH3 0x533 DUP9 DUP3 DUP10 ADD PUSH3 0x374 JUMP JUMPDEST SWAP5 POP POP PUSH1 0x40 DUP7 ADD MLOAD PUSH8 0xFFFFFFFFFFFFFFFF DUP2 GT ISZERO PUSH3 0x557 JUMPI PUSH3 0x556 PUSH3 0x1CD JUMP JUMPDEST JUMPDEST PUSH3 0x565 DUP9 DUP3 DUP10 ADD PUSH3 0x374 JUMP JUMPDEST SWAP4 POP POP PUSH1 0x60 DUP7 ADD MLOAD PUSH8 0xFFFFFFFFFFFFFFFF DUP2 GT ISZERO PUSH3 0x589 JUMPI PUSH3 0x588 PUSH3 0x1CD JUMP JUMPDEST JUMPDEST PUSH3 0x597 DUP9 DUP3 DUP10 ADD PUSH3 0x46C JUMP JUMPDEST SWAP3 POP POP PUSH1 0x80 PUSH3 0x5AA DUP9 DUP3 DUP10 ADD PUSH3 0x4C0 JUMP JUMPDEST SWAP2 POP POP SWAP3 SWAP6 POP SWAP3 SWAP6 SWAP1 SWAP4 POP JUMP JUMPDEST PUSH0 DUP2 MLOAD SWAP1 POP SWAP2 SWAP1 POP JUMP JUMPDEST PUSH32 0x4E487B7100000000000000000000000000000000000000000000000000000000 PUSH0 MSTORE PUSH1 0x22 PUSH1 0x4 MSTORE PUSH1 0x24 PUSH0 REVERT JUMPDEST PUSH0 PUSH1 0x2 DUP3 DIV SWAP1 POP PUSH1 0x1 DUP3 AND DUP1 PUSH3 0x606 JUMPI PUSH1 0x7F DUP3 AND SWAP2 POP JUMPDEST PUSH1 0x20 DUP3 LT DUP2 SUB PUSH3 0x61C JUMPI PUSH3 0x61B PUSH3 0x5C1 JUMP JUMPDEST JUMPDEST POP SWAP2 SWAP1 POP JUMP JUMPDEST PUSH0 DUP2 SWAP1 POP DUP2 PUSH0 MSTORE PUSH1 0x20 PUSH0 KECCAK256 SWAP1 POP SWAP2 SWAP1 POP JUMP JUMPDEST PUSH0 PUSH1 0x20 PUSH1 0x1F DUP4 ADD DIV SWAP1 POP SWAP2 SWAP1 POP JUMP JUMPDEST PUSH0 DUP3 DUP3 SHL SWAP1 POP SWAP3 SWAP2 POP POP JUMP JUMPDEST PUSH0 PUSH1 0x8 DUP4 MUL PUSH3 0x680 PUSH32 0xFFFFFFFFFFFFFFFFFFFFFFFFFFFFFFFFFFFFFFFFFFFFFFFFFFFFFFFFFFFFFFFF DUP3 PUSH3 0x643 JUMP JUMPDEST PUSH3 0x68C DUP7 DUP4 PUSH3 0x643 JUMP JUMPDEST SWAP6 POP DUP1 NOT DUP5 AND SWAP4 POP DUP1 DUP7 AND DUP5 OR SWAP3 POP POP POP SWAP4 SWAP3 POP POP POP JUMP JUMPDEST PUSH0 DUP2 SWAP1 POP SWAP2 SWAP1 POP JUMP JUMPDEST PUSH0 PUSH3 0x6CD PUSH3 0x6C7 PUSH3 0x6C1 DUP5 PUSH3 0x49E JUMP JUMPDEST PUSH3 0x6A4 JUMP JUMPDEST PUSH3 0x49E JUMP JUMPDEST SWAP1 POP SWAP2 SWAP1 POP JUMP JUMPDEST PUSH0 DUP2 SWAP1 POP SWAP2 SWAP1 POP JUMP JUMPDEST PUSH3 0x6E8 DUP4 PUSH3 0x6AD JUMP JUMPDEST PUSH3 0x700 PUSH3 0x6F7 DUP3 PUSH3 0x6D4 JUMP JUMPDEST DUP5 DUP5 SLOAD PUSH3 0x64F JUMP JUMPDEST DUP3 SSTORE POP POP POP POP JUMP JUMPDEST PUSH0 SWAP1 JUMP JUMPDEST PUSH3 0x716 PUSH3 0x708 JUMP JUMPDEST PUSH3 0x723 DUP2 DUP5 DUP5 PUSH3 0x6DD JUMP JUMPDEST POP POP POP JUMP JUMPDEST JUMPDEST DUP2 DUP2 LT ISZERO PUSH3 0x74A JUMPI PUSH3 0x73E PUSH0 DUP3 PUSH3 0x70C JUMP JUMPDEST PUSH1 0x1 DUP2 ADD SWAP1 POP PUSH3 0x729 JUMP JUMPDEST POP POP JUMP JUMPDEST PUSH1 0x1F DUP3 GT ISZERO PUSH3 0x799 JUMPI PUSH3 0x763 DUP2 PUSH3 0x622 JUMP JUMPDEST PUSH3 0x76E DUP5 PUSH3 0x634 JUMP JUMPDEST DUP2 ADD PUSH1 0x20 DUP6 LT ISZERO PUSH3 0x77E JUMPI DUP2 SWAP1 POP JUMPDEST PUSH3 0x796 PUSH3 0x78D DUP6 PUSH3 0x634 JUMP JUMPDEST DUP4 ADD DUP3 PUSH3 0x728 JUMP JUMPDEST POP POP JUMPDEST POP POP POP JUMP JUMPDEST PUSH0 DUP3 DUP3 SHR SWAP1 POP SWAP3 SWAP2 POP POP JUMP JUMPDEST PUSH0 PUSH3 0x7BB PUSH0 NOT DUP5 PUSH1 0x8 MUL PUSH3 0x79E JUMP JUMPDEST NOT DUP1 DUP4 AND SWAP2 POP POP SWAP3 SWAP2 POP POP JUMP JUMPDEST PUSH0 PUSH3 0x7D5 DUP4 DUP4 PUSH3 0x7AA JUMP JUMPDEST SWAP2 POP DUP3 PUSH1 0x2 MUL DUP3 OR SWAP1 POP SWAP3 SWAP2 POP POP JUMP JUMPDEST PUSH3 0x7F0 DUP3 PUSH3 0x5B7 JUMP JUMPDEST PUSH8 0xFFFFFFFFFFFFFFFF DUP2 GT ISZERO PUSH3 0x80C JUMPI PUSH3 0x80B PUSH3 0x24A JUMP JUMPDEST JUMPDEST PUSH3 0x818 DUP3 SLOAD PUSH3 0x5EE JUMP JUMPDEST PUSH3 0x825 DUP3 DUP3 DUP6 PUSH3 0x74E JUMP JUMPDEST PUSH0 PUSH1 0x20 SWAP1 POP PUSH1 0x1F DUP4 GT PUSH1 0x1 DUP2 EQ PUSH3 0x85B JUMPI PUSH0 DUP5 ISZERO PUSH3 0x846 JUMPI DUP3 DUP8 ADD MLOAD SWAP1 POP JUMPDEST PUSH3 0x852 DUP6 DUP3 PUSH3 0x7C8 JUMP JUMPDEST DUP7 SSTORE POP PUSH3 0x8C1 JUMP JUMPDEST PUSH1 0x1F NOT DUP5 AND PUSH3 0x86B DUP7 PUSH3 0x622 JUMP JUMPDEST PUSH0 JUMPDEST DUP3 DUP2 LT ISZERO PUSH3 0x894 JUMPI DUP5 DUP10 ADD MLOAD DUP3 SSTORE PUSH1 0x1 DUP3 ADD SWAP2 POP PUSH1 0x20 DUP6 ADD SWAP5 POP PUSH1 0x20 DUP2 ADD SWAP1 POP PUSH3 0x86D JUMP JUMPDEST DUP7 DUP4 LT ISZERO PUSH3 0x8B4 JUMPI DUP5 DUP10 ADD MLOAD PUSH3 0x8B0 PUSH1 0x1F DUP10 AND DUP3 PUSH3 0x7AA JUMP JUMPDEST DUP4 SSTORE POP JUMPDEST PUSH1 0x1 PUSH1 0x2 DUP9 MUL ADD DUP9 SSTORE POP POP POP JUMPDEST POP POP POP POP POP POP JUMP JUMPDEST PUSH32 0x4E487B7100000000000000000000000000000000000000000000000000000000 PUSH0 MSTORE PUSH1 0x11 PUSH1 0x4 MSTORE PUSH1 0x24 PUSH0 REVERT JUMPDEST PUSH0 PUSH3 0x902 DUP3 PUSH3 0x49E JUMP JUMPDEST SWAP2 POP PUSH3 0x90F DUP4 PUSH3 0x49E JUMP JUMPDEST SWAP3 POP DUP3 DUP3 ADD SWAP1 POP DUP1 DUP3 GT ISZERO PUSH3 0x92A JUMPI PUSH3 0x929 PUSH3 0x8C9 JUMP JUMPDEST JUMPDEST SWAP3 SWAP2 POP POP JUMP JUMPDEST PUSH32 0x4E487B7100000000000000000000000000000000000000000000000000000000 PUSH0 MSTORE PUSH1 0x32 PUSH1 0x4 MSTORE PUSH1 0x24 PUSH0 REVERT JUMPDEST PUSH0 PUSH1 0xFF DUP3 AND SWAP1 POP SWAP2 SWAP1 POP JUMP JUMPDEST PUSH0 PUSH3 0x975 DUP3 PUSH3 0x95D JUMP JUMPDEST SWAP2 POP PUSH1 0xFF DUP3 SUB PUSH3 0x98B JUMPI PUSH3 0x98A PUSH3 0x8C9 JUMP JUMPDEST JUMPDEST PUSH1 0x1 DUP3 ADD SWAP1 POP SWAP2 SWAP1 POP JUMP JUMPDEST PUSH2 0x13BD DUP1 PUSH3 0x9A4 PUSH0 CODECOPY PUSH0 RETURN INVALID PUSH1 0x80 PUSH1 0x40 MSTORE CALLVALUE DUP1 ISZERO PUSH2 0xF JUMPI PUSH0 DUP1 REVERT JUMPDEST POP PUSH1 0x4 CALLDATASIZE LT PUSH2 0xB2 JUMPI PUSH0 CALLDATALOAD PUSH1 0xE0 SHR DUP1 PUSH4 0x9145A7FC GT PUSH2 0x6F JUMPI DUP1 PUSH4 0x9145A7FC EQ PUSH2 0x18F JUMPI DUP1 PUSH4 0x9E7B8D61 EQ PUSH2 0x1AD JUMPI DUP1 PUSH4 0xA3EC138D EQ PUSH2 0x1C9 JUMPI DUP1 PUSH4 0xB3F98ADC EQ PUSH2 0x1FD JUMPI DUP1 PUSH4 0xBF63A577 EQ PUSH2 0x219 JUMPI DUP1 PUSH4 0xE2BA53F0 EQ PUSH2 0x237 JUMPI PUSH2 0xB2 JUMP JUMPDEST DUP1 PUSH4 0x13CF08B EQ PUSH2 0xB6 JUMPI DUP1 PUSH4 0x2D05D3F EQ PUSH2 0xE7 JUMPI DUP1 PUSH4 0x9EEF43E EQ PUSH2 0x105 JUMPI DUP1 PUSH4 0x29DCB0CF EQ PUSH2 0x135 JUMPI DUP1 PUSH4 0x4717F97C EQ PUSH2 0x153 JUMPI DUP1 PUSH4 0x7284E416 EQ PUSH2 0x171 JUMPI JUMPDEST PUSH0 DUP1 REVERT JUMPDEST PUSH2 0xD0 PUSH1 0x4 DUP1 CALLDATASIZE SUB DUP2 ADD SWAP1 PUSH2 0xCB SWAP2 SWAP1 PUSH2 0xB93 JUMP JUMPDEST PUSH2 0x255 JUMP JUMPDEST PUSH1 0x40 MLOAD PUSH2 0xDE SWAP3 SWAP2 SWAP1 PUSH2 0xC57 JUMP JUMPDEST PUSH1 0x40 MLOAD DUP1 SWAP2 SUB SWAP1 RETURN JUMPDEST PUSH2 0xEF PUSH2 0x30A JUMP JUMPDEST PUSH1 0x40 MLOAD PUSH2 0xFC SWAP2 SWAP1 PUSH2 0xCC4 JUMP JUMPDEST PUSH1 0x40 MLOAD DUP1 SWAP2 SUB SWAP1 RETURN JUMPDEST PUSH2 0x11F PUSH1 0x4 DUP1 CALLDATASIZE SUB DUP2 ADD SWAP1 PUSH2 0x11A SWAP2 SWAP1 PUSH2 0xD07 JUMP JUMPDEST PUSH2 0x32D JUMP JUMPDEST PUSH1 0x40 MLOAD PUSH2 0x12C SWAP2 SWAP1 PUSH2 0xD4C JUMP JUMPDEST PUSH1 0x40 MLOAD DUP1 SWAP2 SUB SWAP1 RETURN JUMPDEST PUSH2 0x13D PUSH2 0x382 JUMP JUMPDEST PUSH1 0x40 MLOAD PUSH2 0x14A SWAP2 SWAP1 PUSH2 0xD65 JUMP JUMPDEST PUSH1 0x40 MLOAD DUP1 SWAP2 SUB SWAP1 RETURN JUMPDEST PUSH2 0x15B PUSH2 0x388 JUMP JUMPDEST PUSH1 0x40 MLOAD PUSH2 0x168 SWAP2 SWAP1 PUSH2 0xECA JUMP JUMPDEST PUSH1 0x40 MLOAD DUP1 SWAP2 SUB SWAP1 RETURN JUMPDEST PUSH2 0x179 PUSH2 0x47D JUMP JUMPDEST PUSH1 0x40 MLOAD PUSH2 0x186 SWAP2 SWAP1 PUSH2 0xEEA JUMP JUMPDEST PUSH1 0x40 MLOAD DUP1 SWAP2 SUB SWAP1 RETURN JUMPDEST PUSH2 0x197 PUSH2 0x509 JUMP JUMPDEST PUSH1 0x40 MLOAD PUSH2 0x1A4 SWAP2 SWAP1 PUSH2 0xD4C JUMP JUMPDEST PUSH1 0x40 MLOAD DUP1 SWAP2 SUB SWAP1 RETURN JUMPDEST PUSH2 0x1C7 PUSH1 0x4 DUP1 CALLDATASIZE SUB DUP2 ADD SWAP1 PUSH2 0x1C2 SWAP2 SWAP1 PUSH2 0xD07 JUMP JUMPDEST PUSH2 0x514 JUMP JUMPDEST STOP JUMPDEST PUSH2 0x1E3 PUSH1 0x4 DUP1 CALLDATASIZE SUB DUP2 ADD SWAP1 PUSH2 0x1DE SWAP2 SWAP1 PUSH2 0xD07 JUMP JUMPDEST PUSH2 0x72C JUMP JUMPDEST PUSH1 0x40 MLOAD PUSH2 0x1F4 SWAP6 SWAP5 SWAP4 SWAP3 SWAP2 SWAP1 PUSH2 0xF25 JUMP JUMPDEST PUSH1 0x40 MLOAD DUP1 SWAP2 SUB SWAP1 RETURN JUMPDEST PUSH2 0x217 PUSH1 0x4 DUP1 CALLDATASIZE SUB DUP2 ADD SWAP1 PUSH2 0x212 SWAP2 SWAP1 PUSH2 0xFA0 JUMP JUMPDEST PUSH2 0x7A1 JUMP JUMPDEST STOP JUMPDEST PUSH2 0x221 PUSH2 0x98C JUMP JUMPDEST PUSH1 0x40 MLOAD PUSH2 0x22E SWAP2 SWAP1 PUSH2 0xEEA JUMP JUMPDEST PUSH1 0x40 MLOAD DUP1 SWAP2 SUB SWAP1 RETURN JUMPDEST PUSH2 0x23F PUSH2 0xA18 JUMP JUMPDEST PUSH1 0x40 MLOAD PUSH2 0x24C SWAP2 SWAP1 PUSH2 0xEEA JUMP JUMPDEST PUSH1 0x40 MLOAD DUP1 SWAP2 SUB SWAP1 RETURN JUMPDEST PUSH1 0x4 DUP2 DUP2 SLOAD DUP2 LT PUSH2 0x264 JUMPI PUSH0 DUP1 REVERT JUMPDEST SWAP1 PUSH0 MSTORE PUSH1 0x20 PUSH0 KECCAK256 SWAP1 PUSH1 0x2 MUL ADD PUSH0 SWAP2 POP SWAP1 POP DUP1 PUSH0 ADD DUP1 SLOAD PUSH2 0x283 SWAP1 PUSH2 0xFF8 JUMP JUMPDEST DUP1 PUSH1 0x1F ADD PUSH1 0x20 DUP1 SWAP2 DIV MUL PUSH1 0x20 ADD PUSH1 0x40 MLOAD SWAP1 DUP2 ADD PUSH1 0x40 MSTORE DUP1 SWAP3 SWAP2 SWAP1 DUP2 DUP2 MSTORE PUSH1 0x20 ADD DUP3 DUP1 SLOAD PUSH2 0x2AF SWAP1 PUSH2 0xFF8 JUMP JUMPDEST DUP1 ISZERO PUSH2 0x2FA JUMPI DUP1 PUSH1 0x1F LT PUSH2 0x2D1 JUMPI PUSH2 0x100 DUP1 DUP4 SLOAD DIV MUL DUP4 MSTORE SWAP2 PUSH1 0x20 ADD SWAP2 PUSH2 0x2FA JUMP JUMPDEST DUP3 ADD SWAP2 SWAP1 PUSH0 MSTORE PUSH1 0x20 PUSH0 KECCAK256 SWAP1 JUMPDEST DUP2 SLOAD DUP2 MSTORE SWAP1 PUSH1 0x1 ADD SWAP1 PUSH1 0x20 ADD DUP1 DUP4 GT PUSH2 0x2DD JUMPI DUP3 SWAP1 SUB PUSH1 0x1F AND DUP3 ADD SWAP2 JUMPDEST POP POP POP POP POP SWAP1 DUP1 PUSH1 0x1 ADD SLOAD SWAP1 POP DUP3 JUMP JUMPDEST PUSH0 DUP1 SLOAD SWAP1 PUSH2 0x100 EXP SWAP1 DIV PUSH20 0xFFFFFFFFFFFFFFFFFFFFFFFFFFFFFFFFFFFFFFFF AND DUP2 JUMP JUMPDEST PUSH0 PUSH1 0x5 PUSH0 DUP4 PUSH20 0xFFFFFFFFFFFFFFFFFFFFFFFFFFFFFFFFFFFFFFFF AND PUSH20 0xFFFFFFFFFFFFFFFFFFFFFFFFFFFFFFFFFFFFFFFF AND DUP2 MSTORE PUSH1 0x20 ADD SWAP1 DUP2 MSTORE PUSH1 0x20 ADD PUSH0 KECCAK256 PUSH0 ADD PUSH1 0x1 SWAP1 SLOAD SWAP1 PUSH2 0x100 EXP SWAP1 DIV PUSH1 0xFF AND SWAP1 POP SWAP2 SWAP1 POP JUMP JUMPDEST PUSH1 0x3 SLOAD DUP2 JUMP JUMPDEST PUSH1 0x60 PUSH1 0x4 DUP1 SLOAD DUP1 PUSH1 0x20 MUL PUSH1 0x20 ADD PUSH1 0x40 MLOAD SWAP1 DUP2 ADD PUSH1 0x40 MSTORE DUP1 SWAP3 SWAP2 SWAP1 DUP2 DUP2 MSTORE PUSH1 0x20 ADD PUSH0 SWAP1 JUMPDEST DUP3 DUP3 LT ISZERO PUSH2 0x474 JUMPI DUP4 DUP3 SWAP1 PUSH0 MSTORE PUSH1 0x20 PUSH0 KECCAK256 SWAP1 PUSH1 0x2 MUL ADD PUSH1 0x40 MLOAD DUP1 PUSH1 0x40 ADD PUSH1 0x40 MSTORE SWAP1 DUP2 PUSH0 DUP3 ADD DUP1 SLOAD PUSH2 0x3DB SWAP1 PUSH2 0xFF8 JUMP JUMPDEST DUP1 PUSH1 0x1F ADD PUSH1 0x20 DUP1 SWAP2 DIV MUL PUSH1 0x20 ADD PUSH1 0x40 MLOAD SWAP1 DUP2 ADD PUSH1 0x40 MSTORE DUP1 SWAP3 SWAP2 SWAP1 DUP2 DUP2 MSTORE PUSH1 0x20 ADD DUP3 DUP1 SLOAD PUSH2 0x407 SWAP1 PUSH2 0xFF8 JUMP JUMPDEST DUP1 ISZERO PUSH2 0x452 JUMPI DUP1 PUSH1 0x1F LT PUSH2 0x429 JUMPI PUSH2 0x100 DUP1 DUP4 SLOAD DIV MUL DUP4 MSTORE SWAP2 PUSH1 0x20 ADD SWAP2 PUSH2 0x452 JUMP JUMPDEST DUP3 ADD SWAP2 SWAP1 PUSH0 MSTORE PUSH1 0x20 PUSH0 KECCAK256 SWAP1 JUMPDEST DUP2 SLOAD DUP2 MSTORE SWAP1 PUSH1 0x1 ADD SWAP1 PUSH1 0x20 ADD DUP1 DUP4 GT PUSH2 0x435 JUMPI DUP3 SWAP1 SUB PUSH1 0x1F AND DUP3 ADD SWAP2 JUMPDEST POP POP POP POP POP DUP2 MSTORE PUSH1 0x20 ADD PUSH1 0x1 DUP3 ADD SLOAD DUP2 MSTORE POP POP DUP2 MSTORE PUSH1 0x20 ADD SWAP1 PUSH1 0x1 ADD SWAP1 PUSH2 0x3AB JUMP JUMPDEST POP POP POP POP SWAP1 POP SWAP1 JUMP JUMPDEST PUSH1 0x2 DUP1 SLOAD PUSH2 0x48A SWAP1 PUSH2 0xFF8 JUMP JUMPDEST DUP1 PUSH1 0x1F ADD PUSH1 0x20 DUP1 SWAP2 DIV MUL PUSH1 0x20 ADD PUSH1 0x40 MLOAD SWAP1 DUP2 ADD PUSH1 0x40 MSTORE DUP1 SWAP3 SWAP2 SWAP1 DUP2 DUP2 MSTORE PUSH1 0x20 ADD DUP3 DUP1 SLOAD PUSH2 0x4B6 SWAP1 PUSH2 0xFF8 JUMP JUMPDEST DUP1 ISZERO PUSH2 0x501 JUMPI DUP1 PUSH1 0x1F LT PUSH2 0x4D8 JUMPI PUSH2 0x100 DUP1 DUP4 SLOAD DIV MUL DUP4 MSTORE SWAP2 PUSH1 0x20 ADD SWAP2 PUSH2 0x501 JUMP JUMPDEST DUP3 ADD SWAP2 SWAP1 PUSH0 MSTORE PUSH1 0x20 PUSH0 KECCAK256 SWAP1 JUMPDEST DUP2 SLOAD DUP2 MSTORE SWAP1 PUSH1 0x1 ADD SWAP1 PUSH1 0x20 ADD DUP1 DUP4 GT PUSH2 0x4E4 JUMPI DUP3 SWAP1 SUB PUSH1 0x1F AND DUP3 ADD SWAP2 JUMPDEST POP POP POP POP POP DUP2 JUMP JUMPDEST PUSH0 PUSH1 0x3 SLOAD TIMESTAMP GT SWAP1 POP SWAP1 JUMP JUMPDEST PUSH2 0x51C PUSH2 0x509 JUMP JUMPDEST ISZERO PUSH2 0x55C JUMPI PUSH1 0x40 MLOAD PUSH32 0x8C379A000000000000000000000000000000000000000000000000000000000 DUP2 MSTORE PUSH1 0x4 ADD PUSH2 0x553 SWAP1 PUSH2 0x1072 JUMP JUMPDEST PUSH1 0x40 MLOAD DUP1 SWAP2 SUB SWAP1 REVERT JUMPDEST PUSH0 DUP1 SLOAD SWAP1 PUSH2 0x100 EXP SWAP1 DIV PUSH20 0xFFFFFFFFFFFFFFFFFFFFFFFFFFFFFFFFFFFFFFFF AND PUSH20 0xFFFFFFFFFFFFFFFFFFFFFFFFFFFFFFFFFFFFFFFF AND CALLER PUSH20 0xFFFFFFFFFFFFFFFFFFFFFFFFFFFFFFFFFFFFFFFF AND EQ PUSH2 0x5E9 JUMPI PUSH1 0x40 MLOAD PUSH32 0x8C379A000000000000000000000000000000000000000000000000000000000 DUP2 MSTORE PUSH1 0x4 ADD PUSH2 0x5E0 SWAP1 PUSH2 0x1100 JUMP JUMPDEST PUSH1 0x40 MLOAD DUP1 SWAP2 SUB SWAP1 REVERT JUMPDEST DUP1 PUSH1 0x5 PUSH0 DUP3 PUSH20 0xFFFFFFFFFFFFFFFFFFFFFFFFFFFFFFFFFFFFFFFF AND PUSH20 0xFFFFFFFFFFFFFFFFFFFFFFFFFFFFFFFFFFFFFFFF AND DUP2 MSTORE PUSH1 0x20 ADD SWAP1 DUP2 MSTORE PUSH1 0x20 ADD PUSH0 KECCAK256 PUSH0 ADD PUSH0 SWAP1 SLOAD SWAP1 PUSH2 0x100 EXP SWAP1 DIV PUSH1 0xFF AND ISZERO PUSH2 0x676 JUMPI PUSH1 0x40 MLOAD PUSH32 0x8C379A000000000000000000000000000000000000000000000000000000000 DUP2 MSTORE PUSH1 0x4 ADD PUSH2 0x66D SWAP1 PUSH2 0x1168 JUMP JUMPDEST PUSH1 0x40 MLOAD DUP1 SWAP2 SUB SWAP1 REVERT JUMPDEST PUSH1 0x1 PUSH1 0x5 PUSH0 DUP5 PUSH20 0xFFFFFFFFFFFFFFFFFFFFFFFFFFFFFFFFFFFFFFFF AND PUSH20 0xFFFFFFFFFFFFFFFFFFFFFFFFFFFFFFFFFFFFFFFF AND DUP2 MSTORE PUSH1 0x20 ADD SWAP1 DUP2 MSTORE PUSH1 0x20 ADD PUSH0 KECCAK256 PUSH0 ADD PUSH0 PUSH2 0x100 EXP DUP2 SLOAD DUP2 PUSH1 0xFF MUL NOT AND SWAP1 DUP4 ISZERO ISZERO MUL OR SWAP1 SSTORE POP DUP2 PUSH20 0xFFFFFFFFFFFFFFFFFFFFFFFFFFFFFFFFFFFFFFFF AND CALLER PUSH20 0xFFFFFFFFFFFFFFFFFFFFFFFFFFFFFFFFFFFFFFFF AND TIMESTAMP PUSH32 0xA4BBD98D03300DC9C6991B0F3C356EB7C69C95FC7352DCBC5CB2E949904506B2 PUSH1 0x40 MLOAD PUSH1 0x40 MLOAD DUP1 SWAP2 SUB SWAP1 LOG4 POP POP JUMP JUMPDEST PUSH1 0x5 PUSH1 0x20 MSTORE DUP1 PUSH0 MSTORE PUSH1 0x40 PUSH0 KECCAK256 PUSH0 SWAP2 POP SWAP1 POP DUP1 PUSH0 ADD PUSH0 SWAP1 SLOAD SWAP1 PUSH2 0x100 EXP SWAP1 DIV PUSH1 0xFF AND SWAP1 DUP1 PUSH0 ADD PUSH1 0x1 SWAP1 SLOAD SWAP1 PUSH2 0x100 EXP SWAP1 DIV PUSH1 0xFF AND SWAP1 DUP1 PUSH0 ADD PUSH1 0x2 SWAP1 SLOAD SWAP1 PUSH2 0x100 EXP SWAP1 DIV PUSH1 0xFF AND SWAP1 DUP1 PUSH1 0x1 ADD SLOAD SWAP1 DUP1 PUSH1 0x2 ADD PUSH0 SWAP1 SLOAD SWAP1 PUSH2 0x100 EXP SWAP1 DIV PUSH20 0xFFFFFFFFFFFFFFFFFFFFFFFFFFFFFFFFFFFFFFFF AND SWAP1 POP DUP6 JUMP JUMPDEST PUSH2 0x7A9 PUSH2 0x509 JUMP JUMPDEST ISZERO PUSH2 0x7E9 JUMPI PUSH1 0x40 MLOAD PUSH32 0x8C379A000000000000000000000000000000000000000000000000000000000 DUP2 MSTORE PUSH1 0x4 ADD PUSH2 0x7E0 SWAP1 PUSH2 0x1072 JUMP JUMPDEST PUSH1 0x40 MLOAD DUP1 SWAP2 SUB SWAP1 REVERT JUMPDEST DUP1 PUSH1 0x4 DUP1 SLOAD SWAP1 POP DUP2 PUSH1 0xFF AND LT PUSH2 0x834 JUMPI PUSH1 0x40 MLOAD PUSH32 0x8C379A000000000000000000000000000000000000000000000000000000000 DUP2 MSTORE PUSH1 0x4 ADD PUSH2 0x82B SWAP1 PUSH2 0x11D0 JUMP JUMPDEST PUSH1 0x40 MLOAD DUP1 SWAP2 SUB SWAP1 REVERT JUMPDEST PUSH0 PUSH1 0x5 PUSH0 CALLER PUSH20 0xFFFFFFFFFFFFFFFFFFFFFFFFFFFFFFFFFFFFFFFF AND PUSH20 0xFFFFFFFFFFFFFFFFFFFFFFFFFFFFFFFFFFFFFFFF AND DUP2 MSTORE PUSH1 0x20 ADD SWAP1 DUP2 MSTORE PUSH1 0x20 ADD PUSH0 KECCAK256 SWAP1 POP DUP1 PUSH0 ADD PUSH0 SWAP1 SLOAD SWAP1 PUSH2 0x100 EXP SWAP1 DIV PUSH1 0xFF AND PUSH2 0x8C3 JUMPI PUSH1 0x40 MLOAD PUSH32 0x8C379A000000000000000000000000000000000000000000000000000000000 DUP2 MSTORE PUSH1 0x4 ADD PUSH2 0x8BA SWAP1 PUSH2 0x1238 JUMP JUMPDEST PUSH1 0x40 MLOAD DUP1 SWAP2 SUB SWAP1 REVERT JUMPDEST DUP1 PUSH0 ADD PUSH1 0x1 SWAP1 SLOAD SWAP1 PUSH2 0x100 EXP SWAP1 DIV PUSH1 0xFF AND ISZERO PUSH2 0x914 JUMPI PUSH1 0x40 MLOAD PUSH32 0x8C379A000000000000000000000000000000000000000000000000000000000 DUP2 MSTORE PUSH1 0x4 ADD PUSH2 0x90B SWAP1 PUSH2 0x12A0 JUMP JUMPDEST PUSH1 0x40 MLOAD DUP1 SWAP2 SUB SWAP1 REVERT JUMPDEST PUSH1 0x1 DUP2 PUSH0 ADD PUSH1 0x1 PUSH2 0x100 EXP DUP2 SLOAD DUP2 PUSH1 0xFF MUL NOT AND SWAP1 DUP4 ISZERO ISZERO MUL OR SWAP1 SSTORE POP DUP3 DUP2 PUSH0 ADD PUSH1 0x2 PUSH2 0x100 EXP DUP2 SLOAD DUP2 PUSH1 0xFF MUL NOT AND SWAP1 DUP4 PUSH1 0xFF AND MUL OR SWAP1 SSTORE POP PUSH1 0x4 DUP4 PUSH1 0xFF AND DUP2 SLOAD DUP2 LT PUSH2 0x963 JUMPI PUSH2 0x962 PUSH2 0x12BE JUMP JUMPDEST JUMPDEST SWAP1 PUSH0 MSTORE PUSH1 0x20 PUSH0 KECCAK256 SWAP1 PUSH1 0x2 MUL ADD PUSH1 0x1 ADD PUSH0 DUP2 SLOAD DUP1 SWAP3 SWAP2 SWAP1 PUSH2 0x982 SWAP1 PUSH2 0x1318 JUMP JUMPDEST SWAP2 SWAP1 POP SSTORE POP POP POP POP JUMP JUMPDEST PUSH1 0x1 DUP1 SLOAD PUSH2 0x999 SWAP1 PUSH2 0xFF8 JUMP JUMPDEST DUP1 PUSH1 0x1F ADD PUSH1 0x20 DUP1 SWAP2 DIV MUL PUSH1 0x20 ADD PUSH1 0x40 MLOAD SWAP1 DUP2 ADD PUSH1 0x40 MSTORE DUP1 SWAP3 SWAP2 SWAP1 DUP2 DUP2 MSTORE PUSH1 0x20 ADD DUP3 DUP1 SLOAD PUSH2 0x9C5 SWAP1 PUSH2 0xFF8 JUMP JUMPDEST DUP1 ISZERO PUSH2 0xA10 JUMPI DUP1 PUSH1 0x1F LT PUSH2 0x9E7 JUMPI PUSH2 0x100 DUP1 DUP4 SLOAD DIV MUL DUP4 MSTORE SWAP2 PUSH1 0x20 ADD SWAP2 PUSH2 0xA10 JUMP JUMPDEST DUP3 ADD SWAP2 SWAP1 PUSH0 MSTORE PUSH1 0x20 PUSH0 KECCAK256 SWAP1 JUMPDEST DUP2 SLOAD DUP2 MSTORE SWAP1 PUSH1 0x1 ADD SWAP1 PUSH1 0x20 ADD DUP1 DUP4 GT PUSH2 0x9F3 JUMPI DUP3 SWAP1 SUB PUSH1 0x1F AND DUP3 ADD SWAP2 JUMPDEST POP POP POP POP POP DUP2 JUMP JUMPDEST PUSH1 0x60 PUSH1 0x4 PUSH2 0xA24 PUSH2 0xAD2 JUMP JUMPDEST PUSH1 0xFF AND DUP2 SLOAD DUP2 LT PUSH2 0xA38 JUMPI PUSH2 0xA37 PUSH2 0x12BE JUMP JUMPDEST JUMPDEST SWAP1 PUSH0 MSTORE PUSH1 0x20 PUSH0 KECCAK256 SWAP1 PUSH1 0x2 MUL ADD PUSH0 ADD DUP1 SLOAD PUSH2 0xA51 SWAP1 PUSH2 0xFF8 JUMP JUMPDEST DUP1 PUSH1 0x1F ADD PUSH1 0x20 DUP1 SWAP2 DIV MUL PUSH1 0x20 ADD PUSH1 0x40 MLOAD SWAP1 DUP2 ADD PUSH1 0x40 MSTORE DUP1 SWAP3 SWAP2 SWAP1 DUP2 DUP2 MSTORE PUSH1 0x20 ADD DUP3 DUP1 SLOAD PUSH2 0xA7D SWAP1 PUSH2 0xFF8 JUMP JUMPDEST DUP1 ISZERO PUSH2 0xAC8 JUMPI DUP1 PUSH1 0x1F LT PUSH2 0xA9F JUMPI PUSH2 0x100 DUP1 DUP4 SLOAD DIV MUL DUP4 MSTORE SWAP2 PUSH1 0x20 ADD SWAP2 PUSH2 0xAC8 JUMP JUMPDEST DUP3 ADD SWAP2 SWAP1 PUSH0 MSTORE PUSH1 0x20 PUSH0 KECCAK256 SWAP1 JUMPDEST DUP2 SLOAD DUP2 MSTORE SWAP1 PUSH1 0x1 ADD SWAP1 PUSH1 0x20 ADD DUP1 DUP4 GT PUSH2 0xAAB JUMPI DUP3 SWAP1 SUB PUSH1 0x1F AND DUP3 ADD SWAP2 JUMPDEST POP POP POP POP POP SWAP1 POP SWAP1 JUMP JUMPDEST PUSH0 DUP1 PUSH0 SWAP1 POP PUSH0 JUMPDEST PUSH1 0x4 DUP1 SLOAD SWAP1 POP DUP2 PUSH1 0xFF AND LT ISZERO PUSH2 0xB57 JUMPI DUP2 PUSH1 0x4 DUP3 PUSH1 0xFF AND DUP2 SLOAD DUP2 LT PUSH2 0xB01 JUMPI PUSH2 0xB00 PUSH2 0x12BE JUMP JUMPDEST JUMPDEST SWAP1 PUSH0 MSTORE PUSH1 0x20 PUSH0 KECCAK256 SWAP1 PUSH1 0x2 MUL ADD PUSH1 0x1 ADD SLOAD GT ISZERO PUSH2 0xB44 JUMPI PUSH1 0x4 DUP2 PUSH1 0xFF AND DUP2 SLOAD DUP2 LT PUSH2 0xB2E JUMPI PUSH2 0xB2D PUSH2 0x12BE JUMP JUMPDEST JUMPDEST SWAP1 PUSH0 MSTORE PUSH1 0x20 PUSH0 KECCAK256 SWAP1 PUSH1 0x2 MUL ADD PUSH1 0x1 ADD SLOAD SWAP2 POP DUP1 SWAP3 POP JUMPDEST DUP1 DUP1 PUSH2 0xB4F SWAP1 PUSH2 0x135F JUMP JUMPDEST SWAP2 POP POP PUSH2 0xAD9 JUMP JUMPDEST POP POP SWAP1 JUMP JUMPDEST PUSH0 DUP1 REVERT JUMPDEST PUSH0 DUP2 SWAP1 POP SWAP2 SWAP1 POP JUMP JUMPDEST PUSH2 0xB72 DUP2 PUSH2 0xB60 JUMP JUMPDEST DUP2 EQ PUSH2 0xB7C JUMPI PUSH0 DUP1 REVERT JUMPDEST POP JUMP JUMPDEST PUSH0 DUP2 CALLDATALOAD SWAP1 POP PUSH2 0xB8D DUP2 PUSH2 0xB69 JUMP JUMPDEST SWAP3 SWAP2 POP POP JUMP JUMPDEST PUSH0 PUSH1 0x20 DUP3 DUP5 SUB SLT ISZERO PUSH2 0xBA8 JUMPI PUSH2 0xBA7 PUSH2 0xB5C JUMP JUMPDEST JUMPDEST PUSH0 PUSH2 0xBB5 DUP5 DUP3 DUP6 ADD PUSH2 0xB7F JUMP JUMPDEST SWAP2 POP POP SWAP3 SWAP2 POP POP JUMP JUMPDEST PUSH0 DUP2 MLOAD SWAP1 POP SWAP2 SWAP1 POP JUMP JUMPDEST PUSH0 DUP3 DUP3 MSTORE PUSH1 0x20 DUP3 ADD SWAP1 POP SWAP3 SWAP2 POP POP JUMP JUMPDEST PUSH0 JUMPDEST DUP4 DUP2 LT ISZERO PUSH2 0xBF5 JUMPI DUP1 DUP3 ADD MLOAD DUP2 DUP5 ADD MSTORE PUSH1 0x20 DUP2 ADD SWAP1 POP PUSH2 0xBDA JUMP JUMPDEST PUSH0 DUP5 DUP5 ADD MSTORE POP POP POP POP JUMP JUMPDEST PUSH0 PUSH1 0x1F NOT PUSH1 0x1F DUP4 ADD AND SWAP1 POP SWAP2 SWAP1 POP JUMP JUMPDEST PUSH0 PUSH2 0xC1A DUP3 PUSH2 0xBBE JUMP JUMPDEST PUSH2 0xC24 DUP2 DUP6 PUSH2 0xBC8 JUMP JUMPDEST SWAP4 POP PUSH2 0xC34 DUP2 DUP6 PUSH1 0x20 DUP7 ADD PUSH2 0xBD8 JUMP JUMPDEST PUSH2 0xC3D DUP2 PUSH2 0xC00 JUMP JUMPDEST DUP5 ADD SWAP2 POP POP SWAP3 SWAP2 POP POP JUMP JUMPDEST PUSH2 0xC51 DUP2 PUSH2 0xB60 JUMP JUMPDEST DUP3 MSTORE POP POP JUMP JUMPDEST PUSH0 PUSH1 0x40 DUP3 ADD SWAP1 POP DUP2 DUP2 SUB PUSH0 DUP4 ADD MSTORE PUSH2 0xC6F DUP2 DUP6 PUSH2 0xC10 JUMP JUMPDEST SWAP1 POP PUSH2 0xC7E PUSH1 0x20 DUP4 ADD DUP5 PUSH2 0xC48 JUMP JUMPDEST SWAP4 SWAP3 POP POP POP JUMP JUMPDEST PUSH0 PUSH20 0xFFFFFFFFFFFFFFFFFFFFFFFFFFFFFFFFFFFFFFFF DUP3 AND SWAP1 POP SWAP2 SWAP1 POP JUMP JUMPDEST PUSH0 PUSH2 0xCAE DUP3 PUSH2 0xC85 JUMP JUMPDEST SWAP1 POP SWAP2 SWAP1 POP JUMP JUMPDEST PUSH2 0xCBE DUP2 PUSH2 0xCA4 JUMP JUMPDEST DUP3 MSTORE POP POP JUMP JUMPDEST PUSH0 PUSH1 0x20 DUP3 ADD SWAP1 POP PUSH2 0xCD7 PUSH0 DUP4 ADD DUP5 PUSH2 0xCB5 JUMP JUMPDEST SWAP3 SWAP2 POP POP JUMP JUMPDEST PUSH2 0xCE6 DUP2 PUSH2 0xCA4 JUMP JUMPDEST DUP2 EQ PUSH2 0xCF0 JUMPI PUSH0 DUP1 REVERT JUMPDEST POP JUMP JUMPDEST PUSH0 DUP2 CALLDATALOAD SWAP1 POP PUSH2 0xD01 DUP2 PUSH2 0xCDD JUMP JUMPDEST SWAP3 SWAP2 POP POP JUMP JUMPDEST PUSH0 PUSH1 0x20 DUP3 DUP5 SUB SLT ISZERO PUSH2 0xD1C JUMPI PUSH2 0xD1B PUSH2 0xB5C JUMP JUMPDEST JUMPDEST PUSH0 PUSH2 0xD29 DUP5 DUP3 DUP6 ADD PUSH2 0xCF3 JUMP JUMPDEST SWAP2 POP POP SWAP3 SWAP2 POP POP JUMP JUMPDEST PUSH0 DUP2 ISZERO ISZERO SWAP1 POP SWAP2 SWAP1 POP JUMP JUMPDEST PUSH2 0xD46 DUP2 PUSH2 0xD32 JUMP JUMPDEST DUP3 MSTORE POP POP JUMP JUMPDEST PUSH0 PUSH1 0x20 DUP3 ADD SWAP1 POP PUSH2 0xD5F PUSH0 DUP4 ADD DUP5 PUSH2 0xD3D JUMP JUMPDEST SWAP3 SWAP2 POP POP JUMP JUMPDEST PUSH0 PUSH1 0x20 DUP3 ADD SWAP1 POP PUSH2 0xD78 PUSH0 DUP4 ADD DUP5 PUSH2 0xC48 JUMP JUMPDEST SWAP3 SWAP2 POP POP JUMP JUMPDEST PUSH0 DUP2 MLOAD SWAP1 POP SWAP2 SWAP1 POP JUMP JUMPDEST PUSH0 DUP3 DUP3 MSTORE PUSH1 0x20 DUP3 ADD SWAP1 POP SWAP3 SWAP2 POP POP JUMP JUMPDEST PUSH0 DUP2 SWAP1 POP PUSH1 0x20 DUP3 ADD SWAP1 POP SWAP2 SWAP1 POP JUMP JUMPDEST PUSH0 DUP3 DUP3 MSTORE PUSH1 0x20 DUP3 ADD SWAP1 POP SWAP3 SWAP2 POP POP JUMP JUMPDEST PUSH0 PUSH2 0xDC1 DUP3 PUSH2 0xBBE JUMP JUMPDEST PUSH2 0xDCB DUP2 DUP6 PUSH2 0xDA7 JUMP JUMPDEST SWAP4 POP PUSH2 0xDDB DUP2 DUP6 PUSH1 0x20 DUP7 ADD PUSH2 0xBD8 JUMP JUMPDEST PUSH2 0xDE4 DUP2 PUSH2 0xC00 JUMP JUMPDEST DUP5 ADD SWAP2 POP POP SWAP3 SWAP2 POP POP JUMP JUMPDEST PUSH2 0xDF8 DUP2 PUSH2 0xB60 JUMP JUMPDEST DUP3 MSTORE POP POP JUMP JUMPDEST PUSH0 PUSH1 0x40 DUP4 ADD PUSH0 DUP4 ADD MLOAD DUP5 DUP3 SUB PUSH0 DUP7 ADD MSTORE PUSH2 0xE18 DUP3 DUP3 PUSH2 0xDB7 JUMP JUMPDEST SWAP2 POP POP PUSH1 0x20 DUP4 ADD MLOAD PUSH2 0xE2D PUSH1 0x20 DUP7 ADD DUP3 PUSH2 0xDEF JUMP JUMPDEST POP DUP1 SWAP2 POP POP SWAP3 SWAP2 POP POP JUMP JUMPDEST PUSH0 PUSH2 0xE43 DUP4 DUP4 PUSH2 0xDFE JUMP JUMPDEST SWAP1 POP SWAP3 SWAP2 POP POP JUMP JUMPDEST PUSH0 PUSH1 0x20 DUP3 ADD SWAP1 POP SWAP2 SWAP1 POP JUMP JUMPDEST PUSH0 PUSH2 0xE61 DUP3 PUSH2 0xD7E JUMP JUMPDEST PUSH2 0xE6B DUP2 DUP6 PUSH2 0xD88 JUMP JUMPDEST SWAP4 POP DUP4 PUSH1 0x20 DUP3 MUL DUP6 ADD PUSH2 0xE7D DUP6 PUSH2 0xD98 JUMP JUMPDEST DUP1 PUSH0 JUMPDEST DUP6 DUP2 LT ISZERO PUSH2 0xEB8 JUMPI DUP5 DUP5 SUB DUP10 MSTORE DUP2 MLOAD PUSH2 0xE99 DUP6 DUP3 PUSH2 0xE38 JUMP JUMPDEST SWAP5 POP PUSH2 0xEA4 DUP4 PUSH2 0xE4B JUMP JUMPDEST SWAP3 POP PUSH1 0x20 DUP11 ADD SWAP10 POP POP PUSH1 0x1 DUP2 ADD SWAP1 POP PUSH2 0xE80 JUMP JUMPDEST POP DUP3 SWAP8 POP DUP8 SWAP6 POP POP POP POP POP POP SWAP3 SWAP2 POP POP JUMP JUMPDEST PUSH0 PUSH1 0x20 DUP3 ADD SWAP1 POP DUP2 DUP2 SUB PUSH0 DUP4 ADD MSTORE PUSH2 0xEE2 DUP2 DUP5 PUSH2 0xE57 JUMP JUMPDEST SWAP1 POP SWAP3 SWAP2 POP POP JUMP JUMPDEST PUSH0 PUSH1 0x20 DUP3 ADD SWAP1 POP DUP2 DUP2 SUB PUSH0 DUP4 ADD MSTORE PUSH2 0xF02 DUP2 DUP5 PUSH2 0xC10 JUMP JUMPDEST SWAP1 POP SWAP3 SWAP2 POP POP JUMP JUMPDEST PUSH0 PUSH1 0xFF DUP3 AND SWAP1 POP SWAP2 SWAP1 POP JUMP JUMPDEST PUSH2 0xF1F DUP2 PUSH2 0xF0A JUMP JUMPDEST DUP3 MSTORE POP POP JUMP JUMPDEST PUSH0 PUSH1 0xA0 DUP3 ADD SWAP1 POP PUSH2 0xF38 PUSH0 DUP4 ADD DUP9 PUSH2 0xD3D JUMP JUMPDEST PUSH2 0xF45 PUSH1 0x20 DUP4 ADD DUP8 PUSH2 0xD3D JUMP JUMPDEST PUSH2 0xF52 PUSH1 0x40 DUP4 ADD DUP7 PUSH2 0xF16 JUMP JUMPDEST PUSH2 0xF5F PUSH1 0x60 DUP4 ADD DUP6 PUSH2 0xC48 JUMP JUMPDEST PUSH2 0xF6C PUSH1 0x80 DUP4 ADD DUP5 PUSH2 0xCB5 JUMP JUMPDEST SWAP7 SWAP6 POP POP POP POP POP POP JUMP JUMPDEST PUSH2 0xF7F DUP2 PUSH2 0xF0A JUMP JUMPDEST DUP2 EQ PUSH2 0xF89 JUMPI PUSH0 DUP1 REVERT JUMPDEST POP JUMP JUMPDEST PUSH0 DUP2 CALLDATALOAD SWAP1 POP PUSH2 0xF9A DUP2 PUSH2 0xF76 JUMP JUMPDEST SWAP3 SWAP2 POP POP JUMP JUMPDEST PUSH0 PUSH1 0x20 DUP3 DUP5 SUB SLT ISZERO PUSH2 0xFB5 JUMPI PUSH2 0xFB4 PUSH2 0xB5C JUMP JUMPDEST JUMPDEST PUSH0 PUSH2 0xFC2 DUP5 DUP3 DUP6 ADD PUSH2 0xF8C JUMP JUMPDEST SWAP2 POP POP SWAP3 SWAP2 POP POP JUMP JUMPDEST PUSH32 0x4E487B7100000000000000000000000000000000000000000000000000000000 PUSH0 MSTORE PUSH1 0x22 PUSH1 0x4 MSTORE PUSH1 0x24 PUSH0 REVERT JUMPDEST PUSH0 PUSH1 0x2 DUP3 DIV SWAP1 POP PUSH1 0x1 DUP3 AND DUP1 PUSH2 0x100F JUMPI PUSH1 0x7F DUP3 AND SWAP2 POP JUMPDEST PUSH1 0x20 DUP3 LT DUP2 SUB PUSH2 0x1022 JUMPI PUSH2 0x1021 PUSH2 0xFCB JUMP JUMPDEST JUMPDEST POP SWAP2 SWAP1 POP JUMP JUMPDEST PUSH32 0x446561646C696E652068617320657870697265642E0000000000000000000000 PUSH0 DUP3 ADD MSTORE POP JUMP JUMPDEST PUSH0 PUSH2 0x105C PUSH1 0x15 DUP4 PUSH2 0xBC8 JUMP JUMPDEST SWAP2 POP PUSH2 0x1067 DUP3 PUSH2 0x1028 JUMP JUMPDEST PUSH1 0x20 DUP3 ADD SWAP1 POP SWAP2 SWAP1 POP JUMP JUMPDEST PUSH0 PUSH1 0x20 DUP3 ADD SWAP1 POP DUP2 DUP2 SUB PUSH0 DUP4 ADD MSTORE PUSH2 0x1089 DUP2 PUSH2 0x1050 JUMP JUMPDEST SWAP1 POP SWAP2 SWAP1 POP JUMP JUMPDEST PUSH32 0x4F6E6C792063726561746F72206861732074686573652070726976696C656765 PUSH0 DUP3 ADD MSTORE PUSH32 0x732E000000000000000000000000000000000000000000000000000000000000 PUSH1 0x20 DUP3 ADD MSTORE POP JUMP JUMPDEST PUSH0 PUSH2 0x10EA PUSH1 0x22 DUP4 PUSH2 0xBC8 JUMP JUMPDEST SWAP2 POP PUSH2 0x10F5 DUP3 PUSH2 0x1090 JUMP JUMPDEST PUSH1 0x40 DUP3 ADD SWAP1 POP SWAP2 SWAP1 POP JUMP JUMPDEST PUSH0 PUSH1 0x20 DUP3 ADD SWAP1 POP DUP2 DUP2 SUB PUSH0 DUP4 ADD MSTORE PUSH2 0x1117 DUP2 PUSH2 0x10DE JUMP JUMPDEST SWAP1 POP SWAP2 SWAP1 POP JUMP JUMPDEST PUSH32 0x566F7465722068617320616C726561647920726967687420746F20766F74652E PUSH0 DUP3 ADD MSTORE POP JUMP JUMPDEST PUSH0 PUSH2 0x1152 PUSH1 0x20 DUP4 PUSH2 0xBC8 JUMP JUMPDEST SWAP2 POP PUSH2 0x115D DUP3 PUSH2 0x111E JUMP JUMPDEST PUSH1 0x20 DUP3 ADD SWAP1 POP SWAP2 SWAP1 POP JUMP JUMPDEST PUSH0 PUSH1 0x20 DUP3 ADD SWAP1 POP DUP2 DUP2 SUB PUSH0 DUP4 ADD MSTORE PUSH2 0x117F DUP2 PUSH2 0x1146 JUMP JUMPDEST SWAP1 POP SWAP2 SWAP1 POP JUMP JUMPDEST PUSH32 0x546869732070726F706F73616C20646F6573206E6F742065786973742E000000 PUSH0 DUP3 ADD MSTORE POP JUMP JUMPDEST PUSH0 PUSH2 0x11BA PUSH1 0x1D DUP4 PUSH2 0xBC8 JUMP JUMPDEST SWAP2 POP PUSH2 0x11C5 DUP3 PUSH2 0x1186 JUMP JUMPDEST PUSH1 0x20 DUP3 ADD SWAP1 POP SWAP2 SWAP1 POP JUMP JUMPDEST PUSH0 PUSH1 0x20 DUP3 ADD SWAP1 POP DUP2 DUP2 SUB PUSH0 DUP4 ADD MSTORE PUSH2 0x11E7 DUP2 PUSH2 0x11AE JUMP JUMPDEST SWAP1 POP SWAP2 SWAP1 POP JUMP JUMPDEST PUSH32 0x486173206E6F20726967687420746F20766F74652E0000000000000000000000 PUSH0 DUP3 ADD MSTORE POP JUMP JUMPDEST PUSH0 PUSH2 0x1222 PUSH1 0x15 DUP4 PUSH2 0xBC8 JUMP JUMPDEST SWAP2 POP PUSH2 0x122D DUP3 PUSH2 0x11EE JUMP JUMPDEST PUSH1 0x20 DUP3 ADD SWAP1 POP SWAP2 SWAP1 POP JUMP JUMPDEST PUSH0 PUSH1 0x20 DUP3 ADD SWAP1 POP DUP2 DUP2 SUB PUSH0 DUP4 ADD MSTORE PUSH2 0x124F DUP2 PUSH2 0x1216 JUMP JUMPDEST SWAP1 POP SWAP2 SWAP1 POP JUMP JUMPDEST PUSH32 0x416C726561647920766F7465642E000000000000000000000000000000000000 PUSH0 DUP3 ADD MSTORE POP JUMP JUMPDEST PUSH0 PUSH2 0x128A PUSH1 0xE DUP4 PUSH2 0xBC8 JUMP JUMPDEST SWAP2 POP PUSH2 0x1295 DUP3 PUSH2 0x1256 JUMP JUMPDEST PUSH1 0x20 DUP3 ADD SWAP1 POP SWAP2 SWAP1 POP JUMP JUMPDEST PUSH0 PUSH1 0x20 DUP3 ADD SWAP1 POP DUP2 DUP2 SUB PUSH0 DUP4 ADD MSTORE PUSH2 0x12B7 DUP2 PUSH2 0x127E JUMP JUMPDEST SWAP1 POP SWAP2 SWAP1 POP JUMP JUMPDEST PUSH32 0x4E487B7100000000000000000000000000000000000000000000000000000000 PUSH0 MSTORE PUSH1 0x32 PUSH1 0x4 MSTORE PUSH1 0x24 PUSH0 REVERT JUMPDEST PUSH32 0x4E487B7100000000000000000000000000000000000000000000000000000000 PUSH0 MSTORE PUSH1 0x11 PUSH1 0x4 MSTORE PUSH1 0x24 PUSH0 REVERT JUMPDEST PUSH0 PUSH2 0x1322 DUP3 PUSH2 0xB60 JUMP JUMPDEST SWAP2 POP PUSH32 0xFFFFFFFFFFFFFFFFFFFFFFFFFFFFFFFFFFFFFFFFFFFFFFFFFFFFFFFFFFFFFFFF DUP3 SUB PUSH2 0x1354 JUMPI PUSH2 0x1353 PUSH2 0x12EB JUMP JUMPDEST JUMPDEST PUSH1 0x1 DUP3 ADD SWAP1 POP SWAP2 SWAP1 POP JUMP JUMPDEST PUSH0 PUSH2 0x1369 DUP3 PUSH2 0xF0A JUMP JUMPDEST SWAP2 POP PUSH1 0xFF DUP3 SUB PUSH2 0x137C JUMPI PUSH2 0x137B PUSH2 0x12EB JUMP JUMPDEST JUMPDEST PUSH1 0x1 DUP3 ADD SWAP1 POP SWAP2 SWAP1 POP JUMP INVALID LOG2 PUSH5 0x6970667358 0x22 SLT KECCAK256 DUP1 SWAP14 JUMPDEST 0xA7 LOG2 COINBASE PUSH3 0x7ED743 PUSH25 0x88E9D35CACE5F6DCB63E27CBB444232867D651E66E64736F6C PUSH4 0x43000814 STOP CALLER LOG2 PUSH5 0x6970667358 0x22 SLT KECCAK256 0xD2 0xEC LOG1 EQ CALLDATALOAD SWAP8 SWAP13 0x25 0x49 PUSH1 0xA0 PUSH30 0xB4EA7386BA5C96339A72CE376BA8BB0A6B05194864736F6C634300081400 CALLER "},"gasEstimates":{"creation":{"codeDepositCost":"4736600","executionCost":"5567","totalCost":"4742167"},"external":{"createPrivatePoll(string,string,string[],uint256)":"infinite","createPublicPoll(string,string,string[],uint256)":"infinite","creators(uint256)":"5010","getActivePolls()":"infinite","getNonActivePollResults()":"infinite","hasRated(address,address,address)":"infinite","polls(uint256)":"infinite","rate(address,uint8)":"infinite","ratings(address)":"infinite"},"internal":{"canSenderRate(address)":"infinite","tryAddCreator(address)":"75197"}},"methodIdentifiers":{"createPrivatePoll(string,string,string[],uint256)":"939c442e","createPublicPoll(string,string,string[],uint256)":"3a5ed893","creators(uint256)":"cd53d08e","getActivePolls()":"63a9492f","getNonActivePollResults()":"77b085a2","hasRated(address,address,address)":"791acbb7","polls(uint256)":"ac2f0074","rate(address,uint8)":"f81cd4b0","ratings(address)":"9e01dfbb"}},"storageLayout":{"storage":[{"astId":6,"contract":"Polls.sol:Polls","label":"polls","offset":0,"slot":"0","type":"t_array(t_contract(SimplePoll)635)dyn_storage"},{"astId":9,"contract":"Polls.sol:Polls","label":"creators","offset":0,"slot":"1","type":"t_array(t_address)dyn_storage"},{"astId":14,"contract":"Polls.sol:Polls","label":"ratings","offset":0,"slot":"2","type":"t_mapping(t_address,t_struct(Creator)392_storage)"},{"astId":22,"contract":"Polls.sol:Polls","label":"hasRated","offset":0,"slot":"3","type":"t_mapping(t_address,t_mapping(t_address,t_mapping(t_address,t_bool)))"}],"types":{"t_address":{"encoding":"inplace","label":"address","numberOfBytes":"20"},"t_array(t_address)dyn_storage":{"base":"t_address","encoding":"dynamic_array","label":"address[]","numberOfBytes":"32"},"t_array(t_contract(SimplePoll)635)dyn_storage":{"base":"t_contract(SimplePoll)635","encoding":"dynamic_array","label":"contract SimplePoll[]","numberOfBytes":"32"},"t_bool":{"encoding":"inplace","label":"bool","numberOfBytes":"1"},"t_contract(SimplePoll)635":{"encoding":"inplace","label":"contract SimplePoll","numberOfBytes":"20"},"t_mapping(t_address,t_bool)":{"encoding":"mapping","key":"t_address","label":"mapping(address => bool)","numberOfBytes":"32","value":"t_bool"},"t_mapping(t_address,t_mapping(t_address,t_bool))":{"encoding":"mapping","key":"t_address","label":"mapping(address => mapping(address => bool))","numberOfBytes":"32","value":"t_mapping(t_address,t_bool)"},"t_mapping(t_address,t_mapping(t_address,t_mapping(t_address,t_bool)))":{"encoding":"mapping","key":"t_address","label":"mapping(address => mapping(address => mapping(address => bool)))","numberOfBytes":"32","value":"t_mapping(t_address,t_mapping(t_address,t_bool))"},"t_mapping(t_address,t_struct(Creator)392_storage)":{"encoding":"mapping","key":"t_address","label":"mapping(address => struct SharedStructs.Creator)","numberOfBytes":"32","value":"t_struct(Creator)392_storage"},"t_struct(Creator)392_storage":{"encoding":"inplace","label":"struct SharedStructs.Creator","members":[{"astId":387,"contract":"Polls.sol:Polls","label":"active","offset":0,"slot":"0","type":"t_bool"},{"astId":389,"contract":"Polls.sol:Polls","label":"totalRate","offset":0,"slot":"1","type":"t_uint256"},{"astId":391,"contract":"Polls.sol:Polls","label":"rateNumber","offset":0,"slot":"2","type":"t_uint256"}],"numberOfBytes":"96"},"t_uint256":{"encoding":"inplace","label":"uint256","numberOfBytes":"32"}}},"userdoc":{"kind":"user","methods":{},"version":1}}