{"abi":[{"inputs":[{"internalType":"address","name":"_creator","type":"address"},{"internalType":"string","name":"subject","type":"string"},{"internalType":"string","name":"descr","type":"string"},{"internalType":"string[]","name":"proposalNames","type":"string[]"},{"internalType":"uint256","name":"duration","type":"uint256"}],"stateMutability":"nonpayable","type":"constructor"},{"anonymous":false,"inputs":[{"indexed":true,"internalType":"uint256","name":"date","type":"uint256"},{"indexed":true,"internalType":"address","name":"_from","type":"address"},{"indexed":true,"internalType":"address","name":"_to","type":"address"}],"name":"GivingRightToVote","type":"event"},{"inputs":[],"name":"creator","outputs":[{"internalType":"address","name":"","type":"address"}],"stateMutability":"view","type":"function"},{"inputs":[],"name":"deadline","outputs":[{"internalType":"uint256","name":"","type":"uint256"}],"stateMutability":"view","type":"function"},{"inputs":[],"name":"description","outputs":[{"internalType":"string","name":"","type":"string"}],"stateMutability":"view","type":"function"},{"inputs":[],"name":"getResults","outputs":[{"components":[{"internalType":"string","name":"name","type":"string"},{"internalType":"uint256","name":"voteCount","type":"uint256"}],"internalType":"struct SharedStructs.Proposal[]","name":"","type":"tuple[]"}],"stateMutability":"view","type":"function"},{"inputs":[{"internalType":"address","name":"voter","type":"address"}],"name":"giveRightToVote","outputs":[],"stateMutability":"nonpayable","type":"function"},{"inputs":[{"internalType":"address","name":"voter","type":"address"}],"name":"hasVoted","outputs":[{"internalType":"bool","name":"","type":"bool"}],"stateMutability":"view","type":"function"},{"inputs":[],"name":"isDeadlineExpired","outputs":[{"internalType":"bool","name":"","type":"bool"}],"stateMutability":"view","type":"function"},{"inputs":[{"internalType":"uint256","name":"","type":"uint256"}],"name":"proposals","outputs":[{"internalType":"string","name":"name","type":"string"},{"internalType":"uint256","name":"voteCount","type":"uint256"}],"stateMutability":"view","type":"function"},{"inputs":[],"name":"topic","outputs":[{"internalType":"string","name":"","type":"string"}],"stateMutability":"view","type":"function"},{"inputs":[{"internalType":"uint8","name":"proposalIndex","type":"uint8"}],"name":"vote","outputs":[],"stateMutability":"nonpayable","type":"function"},{"inputs":[{"internalType":"address","name":"","type":"address"}],"name":"voters","outputs":[{"internalType":"bool","name":"canVote","type":"bool"},{"internalType":"bool","name":"voted","type":"bool"},{"internalType":"uint8","name":"vote","type":"uint8"},{"internalType":"uint256","name":"delegatingVotesNumber","type":"uint256"},{"internalType":"address","name":"delegate","type":"address"}],"stateMutability":"view","type":"function"},{"inputs":[],"name":"winnerName","outputs":[{"internalType":"string","name":"","type":"string"}],"stateMutability":"view","type":"function"}],"devdoc":{"kind":"dev","methods":{},"version":1},"evm":{"assembly":"    /* \"SimplePoll.sol\":2859:3886  contract PrivatePoll is SimplePoll {... */\n  mstore(0x40, 0x80)\n    /* \"SimplePoll.sol\":2901:3139  constructor(address _creator, string memory subject, string memory descr, string[] memory proposalNames, uint duration) ... */\n  callvalue\n  dup1\n  iszero\n  tag_1\n  jumpi\n  0x00\n  dup1\n  revert\ntag_1:\n  pop\n  mload(0x40)\n  sub(codesize, bytecodeSize)\n  dup1\n  bytecodeSize\n  dup4\n  codecopy\n  dup2\n  dup2\n  add\n  0x40\n  mstore\n  dup2\n  add\n  swap1\n  tag_2\n  swap2\n  swap1\n  tag_3\n  jump\t// in\ntag_2:\n    /* \"SimplePoll.sol\":3038:3046  _creator */\n  dup5\n    /* \"SimplePoll.sol\":3048:3055  subject */\n  dup5\n    /* \"SimplePoll.sol\":3057:3062  descr */\n  dup5\n    /* \"SimplePoll.sol\":3064:3077  proposalNames */\n  dup5\n    /* \"SimplePoll.sol\":3079:3087  duration */\n  dup5\n    /* \"SimplePoll.sol\":1601:1609  _creator */\n  dup5\n    /* \"SimplePoll.sol\":636:644  _creator */\n  dup1\n    /* \"SimplePoll.sol\":626:633  creator */\n  0x00\n  dup1\n    /* \"SimplePoll.sol\":626:644  creator = _creator */\n  0x0100\n  exp\n  dup2\n  sload\n  dup2\n  0xffffffffffffffffffffffffffffffffffffffff\n  mul\n  not\n  and\n  swap1\n  dup4\n  0xffffffffffffffffffffffffffffffffffffffff\n  and\n  mul\n  or\n  swap1\n  sstore\n  pop\n    /* \"SimplePoll.sol\":585:652  constructor(address _creator) {... */\n  pop\n    /* \"SimplePoll.sol\":1630:1637  subject */\n  dup4\n    /* \"SimplePoll.sol\":1622:1627  topic */\n  0x01\n    /* \"SimplePoll.sol\":1622:1637  topic = subject */\n  swap1\n  dup2\n  tag_9\n  swap2\n  swap1\n  tag_10\n  jump\t// in\ntag_9:\n  pop\n    /* \"SimplePoll.sol\":1662:1667  descr */\n  dup3\n    /* \"SimplePoll.sol\":1648:1659  description */\n  0x02\n    /* \"SimplePoll.sol\":1648:1667  description = descr */\n  swap1\n  dup2\n  tag_11\n  swap2\n  swap1\n  tag_10\n  jump\t// in\ntag_11:\n  pop\n    /* \"SimplePoll.sol\":1707:1715  duration */\n  dup1\n    /* \"SimplePoll.sol\":1689:1704  block.timestamp */\n  timestamp\n    /* \"SimplePoll.sol\":1689:1715  block.timestamp + duration */\n  tag_12\n  swap2\n  swap1\n  tag_13\n  jump\t// in\ntag_12:\n    /* \"SimplePoll.sol\":1678:1686  deadline */\n  0x03\n    /* \"SimplePoll.sol\":1678:1715  deadline = block.timestamp + duration */\n  dup2\n  swap1\n  sstore\n  pop\n    /* \"SimplePoll.sol\":1731:1738  uint8 i */\n  0x00\n    /* \"SimplePoll.sol\":1726:1929  for (uint8 i = 0; i < proposalNames.length; i++) {... */\ntag_14:\n    /* \"SimplePoll.sol\":1748:1761  proposalNames */\n  dup3\n    /* \"SimplePoll.sol\":1748:1768  proposalNames.length */\n  mload\n    /* \"SimplePoll.sol\":1744:1745  i */\n  dup2\n    /* \"SimplePoll.sol\":1744:1768  i < proposalNames.length */\n  0xff\n  and\n  lt\n    /* \"SimplePoll.sol\":1726:1929  for (uint8 i = 0; i < proposalNames.length; i++) {... */\n  iszero\n  tag_15\n  jumpi\n    /* \"SimplePoll.sol\":1790:1799  proposals */\n  0x04\n    /* \"SimplePoll.sol\":1805:1916  SharedStructs.Proposal({... */\n  mload(0x40)\n  dup1\n  0x40\n  add\n  0x40\n  mstore\n  dup1\n    /* \"SimplePoll.sol\":1853:1866  proposalNames */\n  dup6\n    /* \"SimplePoll.sol\":1867:1868  i */\n  dup5\n    /* \"SimplePoll.sol\":1853:1869  proposalNames[i] */\n  0xff\n  and\n  dup2\n  mload\n  dup2\n  lt\n  tag_17\n  jumpi\n  tag_18\n  tag_19\n  jump\t// in\ntag_18:\ntag_17:\n  0x20\n  mul\n  0x20\n  add\n  add\n  mload\n    /* \"SimplePoll.sol\":1805:1916  SharedStructs.Proposal({... */\n  dup2\n  mstore\n  0x20\n  add\n    /* \"SimplePoll.sol\":1899:1900  0 */\n  0x00\n    /* \"SimplePoll.sol\":1805:1916  SharedStructs.Proposal({... */\n  dup2\n  mstore\n  pop\n    /* \"SimplePoll.sol\":1790:1917  proposals.push(SharedStructs.Proposal({... */\n  swap1\n  dup1\n  0x01\n  dup2\n  sload\n  add\n  dup1\n  dup3\n  sstore\n  dup1\n  swap2\n  pop\n  pop\n  0x01\n  swap1\n  sub\n  swap1\n  0x00\n  mstore\n  keccak256(0x00, 0x20)\n  swap1\n  0x02\n  mul\n  add\n  0x00\n  swap1\n  swap2\n  swap1\n  swap2\n  swap1\n  swap2\n  pop\n  0x00\n  dup3\n  add\n  mload\n  dup2\n  0x00\n  add\n  swap1\n  dup2\n  tag_21\n  swap2\n  swap1\n  tag_10\n  jump\t// in\ntag_21:\n  pop\n  0x20\n  dup3\n  add\n  mload\n  dup2\n  0x01\n  add\n  sstore\n  pop\n  pop\n    /* \"SimplePoll.sol\":1770:1773  i++ */\n  dup1\n  dup1\n  tag_22\n  swap1\n  tag_23\n  jump\t// in\ntag_22:\n  swap2\n  pop\n  pop\n    /* \"SimplePoll.sol\":1726:1929  for (uint8 i = 0; i < proposalNames.length; i++) {... */\n  jump(tag_14)\ntag_15:\n  pop\n    /* \"SimplePoll.sol\":1468:1936  constructor(address _creator, string memory subject, string memory descr, string[] memory proposalNames, uint duration)... */\n  pop\n  pop\n  pop\n  pop\n  pop\n    /* \"SimplePoll.sol\":3127:3131  true */\n  0x01\n    /* \"SimplePoll.sol\":3100:3106  voters */\n  0x05\n    /* \"SimplePoll.sol\":3100:3116  voters[_creator] */\n  0x00\n    /* \"SimplePoll.sol\":3107:3115  _creator */\n  dup8\n    /* \"SimplePoll.sol\":3100:3116  voters[_creator] */\n  0xffffffffffffffffffffffffffffffffffffffff\n  and\n  0xffffffffffffffffffffffffffffffffffffffff\n  and\n  dup2\n  mstore\n  0x20\n  add\n  swap1\n  dup2\n  mstore\n  0x20\n  add\n  0x00\n  keccak256\n    /* \"SimplePoll.sol\":3100:3124  voters[_creator].canVote */\n  0x00\n  add\n  0x00\n    /* \"SimplePoll.sol\":3100:3131  voters[_creator].canVote = true */\n  0x0100\n  exp\n  dup2\n  sload\n  dup2\n  0xff\n  mul\n  not\n  and\n  swap1\n  dup4\n  iszero\n  iszero\n  mul\n  or\n  swap1\n  sstore\n  pop\n    /* \"SimplePoll.sol\":2901:3139  constructor(address _creator, string memory subject, string memory descr, string[] memory proposalNames, uint duration) ... */\n  pop\n  pop\n  pop\n  pop\n  pop\n    /* \"SimplePoll.sol\":2859:3886  contract PrivatePoll is SimplePoll {... */\n  jump(tag_25)\n    /* \"#utility.yul\":7:82   */\ntag_26:\n    /* \"#utility.yul\":40:46   */\n  0x00\n    /* \"#utility.yul\":73:75   */\n  0x40\n    /* \"#utility.yul\":67:76   */\n  mload\n    /* \"#utility.yul\":57:76   */\n  swap1\n  pop\n    /* \"#utility.yul\":7:82   */\n  swap1\n  jump\t// out\n    /* \"#utility.yul\":88:205   */\ntag_27:\n    /* \"#utility.yul\":197:198   */\n  0x00\n    /* \"#utility.yul\":194:195   */\n  dup1\n    /* \"#utility.yul\":187:199   */\n  revert\n    /* \"#utility.yul\":211:328   */\ntag_28:\n    /* \"#utility.yul\":320:321   */\n  0x00\n    /* \"#utility.yul\":317:318   */\n  dup1\n    /* \"#utility.yul\":310:322   */\n  revert\n    /* \"#utility.yul\":334:460   */\ntag_29:\n    /* \"#utility.yul\":371:378   */\n  0x00\n    /* \"#utility.yul\":411:453   */\n  0xffffffffffffffffffffffffffffffffffffffff\n    /* \"#utility.yul\":404:409   */\n  dup3\n    /* \"#utility.yul\":400:454   */\n  and\n    /* \"#utility.yul\":389:454   */\n  swap1\n  pop\n    /* \"#utility.yul\":334:460   */\n  swap2\n  swap1\n  pop\n  jump\t// out\n    /* \"#utility.yul\":466:562   */\ntag_30:\n    /* \"#utility.yul\":503:510   */\n  0x00\n    /* \"#utility.yul\":532:556   */\n  tag_76\n    /* \"#utility.yul\":550:555   */\n  dup3\n    /* \"#utility.yul\":532:556   */\n  tag_29\n  jump\t// in\ntag_76:\n    /* \"#utility.yul\":521:556   */\n  swap1\n  pop\n    /* \"#utility.yul\":466:562   */\n  swap2\n  swap1\n  pop\n  jump\t// out\n    /* \"#utility.yul\":568:690   */\ntag_31:\n    /* \"#utility.yul\":641:665   */\n  tag_78\n    /* \"#utility.yul\":659:664   */\n  dup2\n    /* \"#utility.yul\":641:665   */\n  tag_30\n  jump\t// in\ntag_78:\n    /* \"#utility.yul\":634:639   */\n  dup2\n    /* \"#utility.yul\":631:666   */\n  eq\n    /* \"#utility.yul\":621:684   */\n  tag_79\n  jumpi\n    /* \"#utility.yul\":680:681   */\n  0x00\n    /* \"#utility.yul\":677:678   */\n  dup1\n    /* \"#utility.yul\":670:682   */\n  revert\n    /* \"#utility.yul\":621:684   */\ntag_79:\n    /* \"#utility.yul\":568:690   */\n  pop\n  jump\t// out\n    /* \"#utility.yul\":696:839   */\ntag_32:\n    /* \"#utility.yul\":753:758   */\n  0x00\n    /* \"#utility.yul\":784:790   */\n  dup2\n    /* \"#utility.yul\":778:791   */\n  mload\n    /* \"#utility.yul\":769:791   */\n  swap1\n  pop\n    /* \"#utility.yul\":800:833   */\n  tag_81\n    /* \"#utility.yul\":827:832   */\n  dup2\n    /* \"#utility.yul\":800:833   */\n  tag_31\n  jump\t// in\ntag_81:\n    /* \"#utility.yul\":696:839   */\n  swap3\n  swap2\n  pop\n  pop\n  jump\t// out\n    /* \"#utility.yul\":845:962   */\ntag_33:\n    /* \"#utility.yul\":954:955   */\n  0x00\n    /* \"#utility.yul\":951:952   */\n  dup1\n    /* \"#utility.yul\":944:956   */\n  revert\n    /* \"#utility.yul\":968:1085   */\ntag_34:\n    /* \"#utility.yul\":1077:1078   */\n  0x00\n    /* \"#utility.yul\":1074:1075   */\n  dup1\n    /* \"#utility.yul\":1067:1079   */\n  revert\n    /* \"#utility.yul\":1091:1193   */\ntag_35:\n    /* \"#utility.yul\":1132:1138   */\n  0x00\n    /* \"#utility.yul\":1183:1185   */\n  0x1f\n    /* \"#utility.yul\":1179:1186   */\n  not\n    /* \"#utility.yul\":1174:1176   */\n  0x1f\n    /* \"#utility.yul\":1167:1172   */\n  dup4\n    /* \"#utility.yul\":1163:1177   */\n  add\n    /* \"#utility.yul\":1159:1187   */\n  and\n    /* \"#utility.yul\":1149:1187   */\n  swap1\n  pop\n    /* \"#utility.yul\":1091:1193   */\n  swap2\n  swap1\n  pop\n  jump\t// out\n    /* \"#utility.yul\":1199:1379   */\ntag_36:\n    /* \"#utility.yul\":1247:1324   */\n  0x4e487b7100000000000000000000000000000000000000000000000000000000\n    /* \"#utility.yul\":1244:1245   */\n  0x00\n    /* \"#utility.yul\":1237:1325   */\n  mstore\n    /* \"#utility.yul\":1344:1348   */\n  0x41\n    /* \"#utility.yul\":1341:1342   */\n  0x04\n    /* \"#utility.yul\":1334:1349   */\n  mstore\n    /* \"#utility.yul\":1368:1372   */\n  0x24\n    /* \"#utility.yul\":1365:1366   */\n  0x00\n    /* \"#utility.yul\":1358:1373   */\n  revert\n    /* \"#utility.yul\":1385:1666   */\ntag_37:\n    /* \"#utility.yul\":1468:1495   */\n  tag_87\n    /* \"#utility.yul\":1490:1494   */\n  dup3\n    /* \"#utility.yul\":1468:1495   */\n  tag_35\n  jump\t// in\ntag_87:\n    /* \"#utility.yul\":1460:1466   */\n  dup2\n    /* \"#utility.yul\":1456:1496   */\n  add\n    /* \"#utility.yul\":1598:1604   */\n  dup2\n    /* \"#utility.yul\":1586:1596   */\n  dup2\n    /* \"#utility.yul\":1583:1605   */\n  lt\n    /* \"#utility.yul\":1562:1580   */\n  0xffffffffffffffff\n    /* \"#utility.yul\":1550:1560   */\n  dup3\n    /* \"#utility.yul\":1547:1581   */\n  gt\n    /* \"#utility.yul\":1544:1606   */\n  or\n    /* \"#utility.yul\":1541:1629   */\n  iszero\n  tag_88\n  jumpi\n    /* \"#utility.yul\":1609:1627   */\n  tag_89\n  tag_36\n  jump\t// in\ntag_89:\n    /* \"#utility.yul\":1541:1629   */\ntag_88:\n    /* \"#utility.yul\":1649:1659   */\n  dup1\n    /* \"#utility.yul\":1645:1647   */\n  0x40\n    /* \"#utility.yul\":1638:1660   */\n  mstore\n    /* \"#utility.yul\":1428:1666   */\n  pop\n    /* \"#utility.yul\":1385:1666   */\n  pop\n  pop\n  jump\t// out\n    /* \"#utility.yul\":1672:1801   */\ntag_38:\n    /* \"#utility.yul\":1706:1712   */\n  0x00\n    /* \"#utility.yul\":1733:1753   */\n  tag_91\n  tag_26\n  jump\t// in\ntag_91:\n    /* \"#utility.yul\":1723:1753   */\n  swap1\n  pop\n    /* \"#utility.yul\":1762:1795   */\n  tag_92\n    /* \"#utility.yul\":1790:1794   */\n  dup3\n    /* \"#utility.yul\":1782:1788   */\n  dup3\n    /* \"#utility.yul\":1762:1795   */\n  tag_37\n  jump\t// in\ntag_92:\n    /* \"#utility.yul\":1672:1801   */\n  swap2\n  swap1\n  pop\n  jump\t// out\n    /* \"#utility.yul\":1807:2115   */\ntag_39:\n    /* \"#utility.yul\":1869:1873   */\n  0x00\n    /* \"#utility.yul\":1959:1977   */\n  0xffffffffffffffff\n    /* \"#utility.yul\":1951:1957   */\n  dup3\n    /* \"#utility.yul\":1948:1978   */\n  gt\n    /* \"#utility.yul\":1945:2001   */\n  iszero\n  tag_94\n  jumpi\n    /* \"#utility.yul\":1981:1999   */\n  tag_95\n  tag_36\n  jump\t// in\ntag_95:\n    /* \"#utility.yul\":1945:2001   */\ntag_94:\n    /* \"#utility.yul\":2019:2048   */\n  tag_96\n    /* \"#utility.yul\":2041:2047   */\n  dup3\n    /* \"#utility.yul\":2019:2048   */\n  tag_35\n  jump\t// in\ntag_96:\n    /* \"#utility.yul\":2011:2048   */\n  swap1\n  pop\n    /* \"#utility.yul\":2103:2107   */\n  0x20\n    /* \"#utility.yul\":2097:2101   */\n  dup2\n    /* \"#utility.yul\":2093:2108   */\n  add\n    /* \"#utility.yul\":2085:2108   */\n  swap1\n  pop\n    /* \"#utility.yul\":1807:2115   */\n  swap2\n  swap1\n  pop\n  jump\t// out\n    /* \"#utility.yul\":2121:2367   */\ntag_40:\n    /* \"#utility.yul\":2202:2203   */\n  0x00\n    /* \"#utility.yul\":2212:2325   */\ntag_98:\n    /* \"#utility.yul\":2226:2232   */\n  dup4\n    /* \"#utility.yul\":2223:2224   */\n  dup2\n    /* \"#utility.yul\":2220:2233   */\n  lt\n    /* \"#utility.yul\":2212:2325   */\n  iszero\n  tag_100\n  jumpi\n    /* \"#utility.yul\":2311:2312   */\n  dup1\n    /* \"#utility.yul\":2306:2309   */\n  dup3\n    /* \"#utility.yul\":2302:2313   */\n  add\n    /* \"#utility.yul\":2296:2314   */\n  mload\n    /* \"#utility.yul\":2292:2293   */\n  dup2\n    /* \"#utility.yul\":2287:2290   */\n  dup5\n    /* \"#utility.yul\":2283:2294   */\n  add\n    /* \"#utility.yul\":2276:2315   */\n  mstore\n    /* \"#utility.yul\":2248:2250   */\n  0x20\n    /* \"#utility.yul\":2245:2246   */\n  dup2\n    /* \"#utility.yul\":2241:2251   */\n  add\n    /* \"#utility.yul\":2236:2251   */\n  swap1\n  pop\n    /* \"#utility.yul\":2212:2325   */\n  jump(tag_98)\ntag_100:\n    /* \"#utility.yul\":2359:2360   */\n  0x00\n    /* \"#utility.yul\":2350:2356   */\n  dup5\n    /* \"#utility.yul\":2345:2348   */\n  dup5\n    /* \"#utility.yul\":2341:2357   */\n  add\n    /* \"#utility.yul\":2334:2361   */\n  mstore\n    /* \"#utility.yul\":2183:2367   */\n  pop\n    /* \"#utility.yul\":2121:2367   */\n  pop\n  pop\n  pop\n  jump\t// out\n    /* \"#utility.yul\":2373:2807   */\ntag_41:\n    /* \"#utility.yul\":2462:2467   */\n  0x00\n    /* \"#utility.yul\":2487:2553   */\n  tag_102\n    /* \"#utility.yul\":2503:2552   */\n  tag_103\n    /* \"#utility.yul\":2545:2551   */\n  dup5\n    /* \"#utility.yul\":2503:2552   */\n  tag_39\n  jump\t// in\ntag_103:\n    /* \"#utility.yul\":2487:2553   */\n  tag_38\n  jump\t// in\ntag_102:\n    /* \"#utility.yul\":2478:2553   */\n  swap1\n  pop\n    /* \"#utility.yul\":2576:2582   */\n  dup3\n    /* \"#utility.yul\":2569:2574   */\n  dup2\n    /* \"#utility.yul\":2562:2583   */\n  mstore\n    /* \"#utility.yul\":2614:2618   */\n  0x20\n    /* \"#utility.yul\":2607:2612   */\n  dup2\n    /* \"#utility.yul\":2603:2619   */\n  add\n    /* \"#utility.yul\":2652:2655   */\n  dup5\n    /* \"#utility.yul\":2643:2649   */\n  dup5\n    /* \"#utility.yul\":2638:2641   */\n  dup5\n    /* \"#utility.yul\":2634:2650   */\n  add\n    /* \"#utility.yul\":2631:2656   */\n  gt\n    /* \"#utility.yul\":2628:2740   */\n  iszero\n  tag_104\n  jumpi\n    /* \"#utility.yul\":2659:2738   */\n  tag_105\n  tag_34\n  jump\t// in\ntag_105:\n    /* \"#utility.yul\":2628:2740   */\ntag_104:\n    /* \"#utility.yul\":2749:2801   */\n  tag_106\n    /* \"#utility.yul\":2794:2800   */\n  dup5\n    /* \"#utility.yul\":2789:2792   */\n  dup3\n    /* \"#utility.yul\":2784:2787   */\n  dup6\n    /* \"#utility.yul\":2749:2801   */\n  tag_40\n  jump\t// in\ntag_106:\n    /* \"#utility.yul\":2468:2807   */\n  pop\n    /* \"#utility.yul\":2373:2807   */\n  swap4\n  swap3\n  pop\n  pop\n  pop\n  jump\t// out\n    /* \"#utility.yul\":2827:3182   */\ntag_42:\n    /* \"#utility.yul\":2894:2899   */\n  0x00\n    /* \"#utility.yul\":2943:2946   */\n  dup3\n    /* \"#utility.yul\":2936:2940   */\n  0x1f\n    /* \"#utility.yul\":2928:2934   */\n  dup4\n    /* \"#utility.yul\":2924:2941   */\n  add\n    /* \"#utility.yul\":2920:2947   */\n  slt\n    /* \"#utility.yul\":2910:3032   */\n  tag_108\n  jumpi\n    /* \"#utility.yul\":2951:3030   */\n  tag_109\n  tag_33\n  jump\t// in\ntag_109:\n    /* \"#utility.yul\":2910:3032   */\ntag_108:\n    /* \"#utility.yul\":3061:3067   */\n  dup2\n    /* \"#utility.yul\":3055:3068   */\n  mload\n    /* \"#utility.yul\":3086:3176   */\n  tag_110\n    /* \"#utility.yul\":3172:3175   */\n  dup5\n    /* \"#utility.yul\":3164:3170   */\n  dup3\n    /* \"#utility.yul\":3157:3161   */\n  0x20\n    /* \"#utility.yul\":3149:3155   */\n  dup7\n    /* \"#utility.yul\":3145:3162   */\n  add\n    /* \"#utility.yul\":3086:3176   */\n  tag_41\n  jump\t// in\ntag_110:\n    /* \"#utility.yul\":3077:3176   */\n  swap2\n  pop\n    /* \"#utility.yul\":2900:3182   */\n  pop\n    /* \"#utility.yul\":2827:3182   */\n  swap3\n  swap2\n  pop\n  pop\n  jump\t// out\n    /* \"#utility.yul\":3188:3509   */\ntag_43:\n    /* \"#utility.yul\":3275:3279   */\n  0x00\n    /* \"#utility.yul\":3365:3383   */\n  0xffffffffffffffff\n    /* \"#utility.yul\":3357:3363   */\n  dup3\n    /* \"#utility.yul\":3354:3384   */\n  gt\n    /* \"#utility.yul\":3351:3407   */\n  iszero\n  tag_112\n  jumpi\n    /* \"#utility.yul\":3387:3405   */\n  tag_113\n  tag_36\n  jump\t// in\ntag_113:\n    /* \"#utility.yul\":3351:3407   */\ntag_112:\n    /* \"#utility.yul\":3437:3441   */\n  0x20\n    /* \"#utility.yul\":3429:3435   */\n  dup3\n    /* \"#utility.yul\":3425:3442   */\n  mul\n    /* \"#utility.yul\":3417:3442   */\n  swap1\n  pop\n    /* \"#utility.yul\":3497:3501   */\n  0x20\n    /* \"#utility.yul\":3491:3495   */\n  dup2\n    /* \"#utility.yul\":3487:3502   */\n  add\n    /* \"#utility.yul\":3479:3502   */\n  swap1\n  pop\n    /* \"#utility.yul\":3188:3509   */\n  swap2\n  swap1\n  pop\n  jump\t// out\n    /* \"#utility.yul\":3515:3632   */\ntag_44:\n    /* \"#utility.yul\":3624:3625   */\n  0x00\n    /* \"#utility.yul\":3621:3622   */\n  dup1\n    /* \"#utility.yul\":3614:3626   */\n  revert\n    /* \"#utility.yul\":3654:4614   */\ntag_45:\n    /* \"#utility.yul\":3771:3776   */\n  0x00\n    /* \"#utility.yul\":3796:3887   */\n  tag_116\n    /* \"#utility.yul\":3812:3886   */\n  tag_117\n    /* \"#utility.yul\":3879:3885   */\n  dup5\n    /* \"#utility.yul\":3812:3886   */\n  tag_43\n  jump\t// in\ntag_117:\n    /* \"#utility.yul\":3796:3887   */\n  tag_38\n  jump\t// in\ntag_116:\n    /* \"#utility.yul\":3787:3887   */\n  swap1\n  pop\n    /* \"#utility.yul\":3907:3912   */\n  dup1\n    /* \"#utility.yul\":3936:3942   */\n  dup4\n    /* \"#utility.yul\":3929:3934   */\n  dup3\n    /* \"#utility.yul\":3922:3943   */\n  mstore\n    /* \"#utility.yul\":3970:3974   */\n  0x20\n    /* \"#utility.yul\":3963:3968   */\n  dup3\n    /* \"#utility.yul\":3959:3975   */\n  add\n    /* \"#utility.yul\":3952:3975   */\n  swap1\n  pop\n    /* \"#utility.yul\":4023:4027   */\n  0x20\n    /* \"#utility.yul\":4015:4021   */\n  dup5\n    /* \"#utility.yul\":4011:4028   */\n  mul\n    /* \"#utility.yul\":4003:4009   */\n  dup4\n    /* \"#utility.yul\":3999:4029   */\n  add\n    /* \"#utility.yul\":4052:4055   */\n  dup6\n    /* \"#utility.yul\":4044:4050   */\n  dup2\n    /* \"#utility.yul\":4041:4056   */\n  gt\n    /* \"#utility.yul\":4038:4160   */\n  iszero\n  tag_118\n  jumpi\n    /* \"#utility.yul\":4071:4150   */\n  tag_119\n  tag_44\n  jump\t// in\ntag_119:\n    /* \"#utility.yul\":4038:4160   */\ntag_118:\n    /* \"#utility.yul\":4186:4192   */\n  dup4\n    /* \"#utility.yul\":4169:4608   */\ntag_120:\n    /* \"#utility.yul\":4203:4209   */\n  dup2\n    /* \"#utility.yul\":4198:4201   */\n  dup2\n    /* \"#utility.yul\":4195:4210   */\n  lt\n    /* \"#utility.yul\":4169:4608   */\n  iszero\n  tag_122\n  jumpi\n    /* \"#utility.yul\":4285:4288   */\n  dup1\n    /* \"#utility.yul\":4279:4289   */\n  mload\n    /* \"#utility.yul\":4321:4339   */\n  0xffffffffffffffff\n    /* \"#utility.yul\":4308:4319   */\n  dup2\n    /* \"#utility.yul\":4305:4340   */\n  gt\n    /* \"#utility.yul\":4302:4424   */\n  iszero\n  tag_123\n  jumpi\n    /* \"#utility.yul\":4343:4422   */\n  tag_124\n  tag_33\n  jump\t// in\ntag_124:\n    /* \"#utility.yul\":4302:4424   */\ntag_123:\n    /* \"#utility.yul\":4467:4478   */\n  dup1\n    /* \"#utility.yul\":4459:4465   */\n  dup7\n    /* \"#utility.yul\":4455:4479   */\n  add\n    /* \"#utility.yul\":4505:4563   */\n  tag_125\n    /* \"#utility.yul\":4559:4562   */\n  dup10\n    /* \"#utility.yul\":4547:4557   */\n  dup3\n    /* \"#utility.yul\":4505:4563   */\n  tag_42\n  jump\t// in\ntag_125:\n    /* \"#utility.yul\":4500:4503   */\n  dup6\n    /* \"#utility.yul\":4493:4564   */\n  mstore\n    /* \"#utility.yul\":4593:4597   */\n  0x20\n    /* \"#utility.yul\":4588:4591   */\n  dup6\n    /* \"#utility.yul\":4584:4598   */\n  add\n    /* \"#utility.yul\":4577:4598   */\n  swap5\n  pop\n    /* \"#utility.yul\":4245:4608   */\n  pop\n  pop\n    /* \"#utility.yul\":4229:4233   */\n  0x20\n    /* \"#utility.yul\":4224:4227   */\n  dup2\n    /* \"#utility.yul\":4220:4234   */\n  add\n    /* \"#utility.yul\":4213:4234   */\n  swap1\n  pop\n    /* \"#utility.yul\":4169:4608   */\n  jump(tag_120)\ntag_122:\n    /* \"#utility.yul\":4173:4194   */\n  pop\n    /* \"#utility.yul\":3777:4614   */\n  pop\n  pop\n    /* \"#utility.yul\":3654:4614   */\n  swap4\n  swap3\n  pop\n  pop\n  pop\n  jump\t// out\n    /* \"#utility.yul\":4636:5041   */\ntag_46:\n    /* \"#utility.yul\":4728:4733   */\n  0x00\n    /* \"#utility.yul\":4777:4780   */\n  dup3\n    /* \"#utility.yul\":4770:4774   */\n  0x1f\n    /* \"#utility.yul\":4762:4768   */\n  dup4\n    /* \"#utility.yul\":4758:4775   */\n  add\n    /* \"#utility.yul\":4754:4781   */\n  slt\n    /* \"#utility.yul\":4744:4866   */\n  tag_127\n  jumpi\n    /* \"#utility.yul\":4785:4864   */\n  tag_128\n  tag_33\n  jump\t// in\ntag_128:\n    /* \"#utility.yul\":4744:4866   */\ntag_127:\n    /* \"#utility.yul\":4895:4901   */\n  dup2\n    /* \"#utility.yul\":4889:4902   */\n  mload\n    /* \"#utility.yul\":4920:5035   */\n  tag_129\n    /* \"#utility.yul\":5031:5034   */\n  dup5\n    /* \"#utility.yul\":5023:5029   */\n  dup3\n    /* \"#utility.yul\":5016:5020   */\n  0x20\n    /* \"#utility.yul\":5008:5014   */\n  dup7\n    /* \"#utility.yul\":5004:5021   */\n  add\n    /* \"#utility.yul\":4920:5035   */\n  tag_45\n  jump\t// in\ntag_129:\n    /* \"#utility.yul\":4911:5035   */\n  swap2\n  pop\n    /* \"#utility.yul\":4734:5041   */\n  pop\n    /* \"#utility.yul\":4636:5041   */\n  swap3\n  swap2\n  pop\n  pop\n  jump\t// out\n    /* \"#utility.yul\":5047:5124   */\ntag_47:\n    /* \"#utility.yul\":5084:5091   */\n  0x00\n    /* \"#utility.yul\":5113:5118   */\n  dup2\n    /* \"#utility.yul\":5102:5118   */\n  swap1\n  pop\n    /* \"#utility.yul\":5047:5124   */\n  swap2\n  swap1\n  pop\n  jump\t// out\n    /* \"#utility.yul\":5130:5252   */\ntag_48:\n    /* \"#utility.yul\":5203:5227   */\n  tag_132\n    /* \"#utility.yul\":5221:5226   */\n  dup2\n    /* \"#utility.yul\":5203:5227   */\n  tag_47\n  jump\t// in\ntag_132:\n    /* \"#utility.yul\":5196:5201   */\n  dup2\n    /* \"#utility.yul\":5193:5228   */\n  eq\n    /* \"#utility.yul\":5183:5246   */\n  tag_133\n  jumpi\n    /* \"#utility.yul\":5242:5243   */\n  0x00\n    /* \"#utility.yul\":5239:5240   */\n  dup1\n    /* \"#utility.yul\":5232:5244   */\n  revert\n    /* \"#utility.yul\":5183:5246   */\ntag_133:\n    /* \"#utility.yul\":5130:5252   */\n  pop\n  jump\t// out\n    /* \"#utility.yul\":5258:5401   */\ntag_49:\n    /* \"#utility.yul\":5315:5320   */\n  0x00\n    /* \"#utility.yul\":5346:5352   */\n  dup2\n    /* \"#utility.yul\":5340:5353   */\n  mload\n    /* \"#utility.yul\":5331:5353   */\n  swap1\n  pop\n    /* \"#utility.yul\":5362:5395   */\n  tag_135\n    /* \"#utility.yul\":5389:5394   */\n  dup2\n    /* \"#utility.yul\":5362:5395   */\n  tag_48\n  jump\t// in\ntag_135:\n    /* \"#utility.yul\":5258:5401   */\n  swap3\n  swap2\n  pop\n  pop\n  jump\t// out\n    /* \"#utility.yul\":5407:6953   */\ntag_3:\n    /* \"#utility.yul\":5568:5574   */\n  0x00\n    /* \"#utility.yul\":5576:5582   */\n  dup1\n    /* \"#utility.yul\":5584:5590   */\n  0x00\n    /* \"#utility.yul\":5592:5598   */\n  dup1\n    /* \"#utility.yul\":5600:5606   */\n  0x00\n    /* \"#utility.yul\":5649:5652   */\n  0xa0\n    /* \"#utility.yul\":5637:5646   */\n  dup7\n    /* \"#utility.yul\":5628:5635   */\n  dup9\n    /* \"#utility.yul\":5624:5647   */\n  sub\n    /* \"#utility.yul\":5620:5653   */\n  slt\n    /* \"#utility.yul\":5617:5737   */\n  iszero\n  tag_137\n  jumpi\n    /* \"#utility.yul\":5656:5735   */\n  tag_138\n  tag_27\n  jump\t// in\ntag_138:\n    /* \"#utility.yul\":5617:5737   */\ntag_137:\n    /* \"#utility.yul\":5776:5777   */\n  0x00\n    /* \"#utility.yul\":5801:5865   */\n  tag_139\n    /* \"#utility.yul\":5857:5864   */\n  dup9\n    /* \"#utility.yul\":5848:5854   */\n  dup3\n    /* \"#utility.yul\":5837:5846   */\n  dup10\n    /* \"#utility.yul\":5833:5855   */\n  add\n    /* \"#utility.yul\":5801:5865   */\n  tag_32\n  jump\t// in\ntag_139:\n    /* \"#utility.yul\":5791:5865   */\n  swap6\n  pop\n    /* \"#utility.yul\":5747:5875   */\n  pop\n    /* \"#utility.yul\":5935:5937   */\n  0x20\n    /* \"#utility.yul\":5924:5933   */\n  dup7\n    /* \"#utility.yul\":5920:5938   */\n  add\n    /* \"#utility.yul\":5914:5939   */\n  mload\n    /* \"#utility.yul\":5966:5984   */\n  0xffffffffffffffff\n    /* \"#utility.yul\":5958:5964   */\n  dup2\n    /* \"#utility.yul\":5955:5985   */\n  gt\n    /* \"#utility.yul\":5952:6069   */\n  iszero\n  tag_140\n  jumpi\n    /* \"#utility.yul\":5988:6067   */\n  tag_141\n  tag_28\n  jump\t// in\ntag_141:\n    /* \"#utility.yul\":5952:6069   */\ntag_140:\n    /* \"#utility.yul\":6093:6167   */\n  tag_142\n    /* \"#utility.yul\":6159:6166   */\n  dup9\n    /* \"#utility.yul\":6150:6156   */\n  dup3\n    /* \"#utility.yul\":6139:6148   */\n  dup10\n    /* \"#utility.yul\":6135:6157   */\n  add\n    /* \"#utility.yul\":6093:6167   */\n  tag_42\n  jump\t// in\ntag_142:\n    /* \"#utility.yul\":6083:6167   */\n  swap5\n  pop\n    /* \"#utility.yul\":5885:6177   */\n  pop\n    /* \"#utility.yul\":6237:6239   */\n  0x40\n    /* \"#utility.yul\":6226:6235   */\n  dup7\n    /* \"#utility.yul\":6222:6240   */\n  add\n    /* \"#utility.yul\":6216:6241   */\n  mload\n    /* \"#utility.yul\":6268:6286   */\n  0xffffffffffffffff\n    /* \"#utility.yul\":6260:6266   */\n  dup2\n    /* \"#utility.yul\":6257:6287   */\n  gt\n    /* \"#utility.yul\":6254:6371   */\n  iszero\n  tag_143\n  jumpi\n    /* \"#utility.yul\":6290:6369   */\n  tag_144\n  tag_28\n  jump\t// in\ntag_144:\n    /* \"#utility.yul\":6254:6371   */\ntag_143:\n    /* \"#utility.yul\":6395:6469   */\n  tag_145\n    /* \"#utility.yul\":6461:6468   */\n  dup9\n    /* \"#utility.yul\":6452:6458   */\n  dup3\n    /* \"#utility.yul\":6441:6450   */\n  dup10\n    /* \"#utility.yul\":6437:6459   */\n  add\n    /* \"#utility.yul\":6395:6469   */\n  tag_42\n  jump\t// in\ntag_145:\n    /* \"#utility.yul\":6385:6469   */\n  swap4\n  pop\n    /* \"#utility.yul\":6187:6479   */\n  pop\n    /* \"#utility.yul\":6539:6541   */\n  0x60\n    /* \"#utility.yul\":6528:6537   */\n  dup7\n    /* \"#utility.yul\":6524:6542   */\n  add\n    /* \"#utility.yul\":6518:6543   */\n  mload\n    /* \"#utility.yul\":6570:6588   */\n  0xffffffffffffffff\n    /* \"#utility.yul\":6562:6568   */\n  dup2\n    /* \"#utility.yul\":6559:6589   */\n  gt\n    /* \"#utility.yul\":6556:6673   */\n  iszero\n  tag_146\n  jumpi\n    /* \"#utility.yul\":6592:6671   */\n  tag_147\n  tag_28\n  jump\t// in\ntag_147:\n    /* \"#utility.yul\":6556:6673   */\ntag_146:\n    /* \"#utility.yul\":6697:6796   */\n  tag_148\n    /* \"#utility.yul\":6788:6795   */\n  dup9\n    /* \"#utility.yul\":6779:6785   */\n  dup3\n    /* \"#utility.yul\":6768:6777   */\n  dup10\n    /* \"#utility.yul\":6764:6786   */\n  add\n    /* \"#utility.yul\":6697:6796   */\n  tag_46\n  jump\t// in\ntag_148:\n    /* \"#utility.yul\":6687:6796   */\n  swap3\n  pop\n    /* \"#utility.yul\":6489:6806   */\n  pop\n    /* \"#utility.yul\":6845:6848   */\n  0x80\n    /* \"#utility.yul\":6872:6936   */\n  tag_149\n    /* \"#utility.yul\":6928:6935   */\n  dup9\n    /* \"#utility.yul\":6919:6925   */\n  dup3\n    /* \"#utility.yul\":6908:6917   */\n  dup10\n    /* \"#utility.yul\":6904:6926   */\n  add\n    /* \"#utility.yul\":6872:6936   */\n  tag_49\n  jump\t// in\ntag_149:\n    /* \"#utility.yul\":6862:6936   */\n  swap2\n  pop\n    /* \"#utility.yul\":6816:6946   */\n  pop\n    /* \"#utility.yul\":5407:6953   */\n  swap3\n  swap6\n  pop\n  swap3\n  swap6\n  swap1\n  swap4\n  pop\n  jump\t// out\n    /* \"#utility.yul\":6959:7058   */\ntag_50:\n    /* \"#utility.yul\":7011:7017   */\n  0x00\n    /* \"#utility.yul\":7045:7050   */\n  dup2\n    /* \"#utility.yul\":7039:7051   */\n  mload\n    /* \"#utility.yul\":7029:7051   */\n  swap1\n  pop\n    /* \"#utility.yul\":6959:7058   */\n  swap2\n  swap1\n  pop\n  jump\t// out\n    /* \"#utility.yul\":7064:7244   */\ntag_51:\n    /* \"#utility.yul\":7112:7189   */\n  0x4e487b7100000000000000000000000000000000000000000000000000000000\n    /* \"#utility.yul\":7109:7110   */\n  0x00\n    /* \"#utility.yul\":7102:7190   */\n  mstore\n    /* \"#utility.yul\":7209:7213   */\n  0x22\n    /* \"#utility.yul\":7206:7207   */\n  0x04\n    /* \"#utility.yul\":7199:7214   */\n  mstore\n    /* \"#utility.yul\":7233:7237   */\n  0x24\n    /* \"#utility.yul\":7230:7231   */\n  0x00\n    /* \"#utility.yul\":7223:7238   */\n  revert\n    /* \"#utility.yul\":7250:7570   */\ntag_52:\n    /* \"#utility.yul\":7294:7300   */\n  0x00\n    /* \"#utility.yul\":7331:7332   */\n  0x02\n    /* \"#utility.yul\":7325:7329   */\n  dup3\n    /* \"#utility.yul\":7321:7333   */\n  div\n    /* \"#utility.yul\":7311:7333   */\n  swap1\n  pop\n    /* \"#utility.yul\":7378:7379   */\n  0x01\n    /* \"#utility.yul\":7372:7376   */\n  dup3\n    /* \"#utility.yul\":7368:7380   */\n  and\n    /* \"#utility.yul\":7399:7417   */\n  dup1\n    /* \"#utility.yul\":7389:7470   */\n  tag_153\n  jumpi\n    /* \"#utility.yul\":7455:7459   */\n  0x7f\n    /* \"#utility.yul\":7447:7453   */\n  dup3\n    /* \"#utility.yul\":7443:7460   */\n  and\n    /* \"#utility.yul\":7433:7460   */\n  swap2\n  pop\n    /* \"#utility.yul\":7389:7470   */\ntag_153:\n    /* \"#utility.yul\":7517:7519   */\n  0x20\n    /* \"#utility.yul\":7509:7515   */\n  dup3\n    /* \"#utility.yul\":7506:7520   */\n  lt\n    /* \"#utility.yul\":7486:7504   */\n  dup2\n    /* \"#utility.yul\":7483:7521   */\n  sub\n    /* \"#utility.yul\":7480:7564   */\n  tag_154\n  jumpi\n    /* \"#utility.yul\":7536:7554   */\n  tag_155\n  tag_51\n  jump\t// in\ntag_155:\n    /* \"#utility.yul\":7480:7564   */\ntag_154:\n    /* \"#utility.yul\":7301:7570   */\n  pop\n    /* \"#utility.yul\":7250:7570   */\n  swap2\n  swap1\n  pop\n  jump\t// out\n    /* \"#utility.yul\":7576:7717   */\ntag_53:\n    /* \"#utility.yul\":7625:7629   */\n  0x00\n    /* \"#utility.yul\":7648:7651   */\n  dup2\n    /* \"#utility.yul\":7640:7651   */\n  swap1\n  pop\n    /* \"#utility.yul\":7671:7674   */\n  dup2\n    /* \"#utility.yul\":7668:7669   */\n  0x00\n    /* \"#utility.yul\":7661:7675   */\n  mstore\n    /* \"#utility.yul\":7705:7709   */\n  0x20\n    /* \"#utility.yul\":7702:7703   */\n  0x00\n    /* \"#utility.yul\":7692:7710   */\n  keccak256\n    /* \"#utility.yul\":7684:7710   */\n  swap1\n  pop\n    /* \"#utility.yul\":7576:7717   */\n  swap2\n  swap1\n  pop\n  jump\t// out\n    /* \"#utility.yul\":7723:7816   */\ntag_54:\n    /* \"#utility.yul\":7760:7766   */\n  0x00\n    /* \"#utility.yul\":7807:7809   */\n  0x20\n    /* \"#utility.yul\":7802:7804   */\n  0x1f\n    /* \"#utility.yul\":7795:7800   */\n  dup4\n    /* \"#utility.yul\":7791:7805   */\n  add\n    /* \"#utility.yul\":7787:7810   */\n  div\n    /* \"#utility.yul\":7777:7810   */\n  swap1\n  pop\n    /* \"#utility.yul\":7723:7816   */\n  swap2\n  swap1\n  pop\n  jump\t// out\n    /* \"#utility.yul\":7822:7929   */\ntag_55:\n    /* \"#utility.yul\":7866:7874   */\n  0x00\n    /* \"#utility.yul\":7916:7921   */\n  dup3\n    /* \"#utility.yul\":7910:7914   */\n  dup3\n    /* \"#utility.yul\":7906:7922   */\n  shl\n    /* \"#utility.yul\":7885:7922   */\n  swap1\n  pop\n    /* \"#utility.yul\":7822:7929   */\n  swap3\n  swap2\n  pop\n  pop\n  jump\t// out\n    /* \"#utility.yul\":7935:8328   */\ntag_56:\n    /* \"#utility.yul\":8004:8010   */\n  0x00\n    /* \"#utility.yul\":8054:8055   */\n  0x08\n    /* \"#utility.yul\":8042:8052   */\n  dup4\n    /* \"#utility.yul\":8038:8056   */\n  mul\n    /* \"#utility.yul\":8077:8174   */\n  tag_160\n    /* \"#utility.yul\":8107:8173   */\n  0xffffffffffffffffffffffffffffffffffffffffffffffffffffffffffffffff\n    /* \"#utility.yul\":8096:8105   */\n  dup3\n    /* \"#utility.yul\":8077:8174   */\n  tag_55\n  jump\t// in\ntag_160:\n    /* \"#utility.yul\":8195:8234   */\n  tag_161\n    /* \"#utility.yul\":8225:8233   */\n  dup7\n    /* \"#utility.yul\":8214:8223   */\n  dup4\n    /* \"#utility.yul\":8195:8234   */\n  tag_55\n  jump\t// in\ntag_161:\n    /* \"#utility.yul\":8183:8234   */\n  swap6\n  pop\n    /* \"#utility.yul\":8267:8271   */\n  dup1\n    /* \"#utility.yul\":8263:8272   */\n  not\n    /* \"#utility.yul\":8256:8261   */\n  dup5\n    /* \"#utility.yul\":8252:8273   */\n  and\n    /* \"#utility.yul\":8243:8273   */\n  swap4\n  pop\n    /* \"#utility.yul\":8316:8320   */\n  dup1\n    /* \"#utility.yul\":8306:8314   */\n  dup7\n    /* \"#utility.yul\":8302:8321   */\n  and\n    /* \"#utility.yul\":8295:8300   */\n  dup5\n    /* \"#utility.yul\":8292:8322   */\n  or\n    /* \"#utility.yul\":8282:8322   */\n  swap3\n  pop\n    /* \"#utility.yul\":8011:8328   */\n  pop\n  pop\n    /* \"#utility.yul\":7935:8328   */\n  swap4\n  swap3\n  pop\n  pop\n  pop\n  jump\t// out\n    /* \"#utility.yul\":8334:8394   */\ntag_57:\n    /* \"#utility.yul\":8362:8365   */\n  0x00\n    /* \"#utility.yul\":8383:8388   */\n  dup2\n    /* \"#utility.yul\":8376:8388   */\n  swap1\n  pop\n    /* \"#utility.yul\":8334:8394   */\n  swap2\n  swap1\n  pop\n  jump\t// out\n    /* \"#utility.yul\":8400:8542   */\ntag_58:\n    /* \"#utility.yul\":8450:8459   */\n  0x00\n    /* \"#utility.yul\":8483:8536   */\n  tag_164\n    /* \"#utility.yul\":8501:8535   */\n  tag_165\n    /* \"#utility.yul\":8510:8534   */\n  tag_166\n    /* \"#utility.yul\":8528:8533   */\n  dup5\n    /* \"#utility.yul\":8510:8534   */\n  tag_47\n  jump\t// in\ntag_166:\n    /* \"#utility.yul\":8501:8535   */\n  tag_57\n  jump\t// in\ntag_165:\n    /* \"#utility.yul\":8483:8536   */\n  tag_47\n  jump\t// in\ntag_164:\n    /* \"#utility.yul\":8470:8536   */\n  swap1\n  pop\n    /* \"#utility.yul\":8400:8542   */\n  swap2\n  swap1\n  pop\n  jump\t// out\n    /* \"#utility.yul\":8548:8623   */\ntag_59:\n    /* \"#utility.yul\":8591:8594   */\n  0x00\n    /* \"#utility.yul\":8612:8617   */\n  dup2\n    /* \"#utility.yul\":8605:8617   */\n  swap1\n  pop\n    /* \"#utility.yul\":8548:8623   */\n  swap2\n  swap1\n  pop\n  jump\t// out\n    /* \"#utility.yul\":8629:8898   */\ntag_60:\n    /* \"#utility.yul\":8739:8778   */\n  tag_169\n    /* \"#utility.yul\":8770:8777   */\n  dup4\n    /* \"#utility.yul\":8739:8778   */\n  tag_58\n  jump\t// in\ntag_169:\n    /* \"#utility.yul\":8800:8891   */\n  tag_170\n    /* \"#utility.yul\":8849:8890   */\n  tag_171\n    /* \"#utility.yul\":8873:8889   */\n  dup3\n    /* \"#utility.yul\":8849:8890   */\n  tag_59\n  jump\t// in\ntag_171:\n    /* \"#utility.yul\":8841:8847   */\n  dup5\n    /* \"#utility.yul\":8834:8838   */\n  dup5\n    /* \"#utility.yul\":8828:8839   */\n  sload\n    /* \"#utility.yul\":8800:8891   */\n  tag_56\n  jump\t// in\ntag_170:\n    /* \"#utility.yul\":8794:8798   */\n  dup3\n    /* \"#utility.yul\":8787:8892   */\n  sstore\n    /* \"#utility.yul\":8705:8898   */\n  pop\n    /* \"#utility.yul\":8629:8898   */\n  pop\n  pop\n  pop\n  jump\t// out\n    /* \"#utility.yul\":8904:8977   */\ntag_61:\n    /* \"#utility.yul\":8949:8952   */\n  0x00\n    /* \"#utility.yul\":8904:8977   */\n  swap1\n  jump\t// out\n    /* \"#utility.yul\":8983:9172   */\ntag_62:\n    /* \"#utility.yul\":9060:9092   */\n  tag_174\n  tag_61\n  jump\t// in\ntag_174:\n    /* \"#utility.yul\":9101:9166   */\n  tag_175\n    /* \"#utility.yul\":9159:9165   */\n  dup2\n    /* \"#utility.yul\":9151:9157   */\n  dup5\n    /* \"#utility.yul\":9145:9149   */\n  dup5\n    /* \"#utility.yul\":9101:9166   */\n  tag_60\n  jump\t// in\ntag_175:\n    /* \"#utility.yul\":9036:9172   */\n  pop\n    /* \"#utility.yul\":8983:9172   */\n  pop\n  pop\n  jump\t// out\n    /* \"#utility.yul\":9178:9364   */\ntag_63:\n    /* \"#utility.yul\":9238:9358   */\ntag_177:\n    /* \"#utility.yul\":9255:9258   */\n  dup2\n    /* \"#utility.yul\":9248:9253   */\n  dup2\n    /* \"#utility.yul\":9245:9259   */\n  lt\n    /* \"#utility.yul\":9238:9358   */\n  iszero\n  tag_179\n  jumpi\n    /* \"#utility.yul\":9309:9348   */\n  tag_180\n    /* \"#utility.yul\":9346:9347   */\n  0x00\n    /* \"#utility.yul\":9339:9344   */\n  dup3\n    /* \"#utility.yul\":9309:9348   */\n  tag_62\n  jump\t// in\ntag_180:\n    /* \"#utility.yul\":9282:9283   */\n  0x01\n    /* \"#utility.yul\":9275:9280   */\n  dup2\n    /* \"#utility.yul\":9271:9284   */\n  add\n    /* \"#utility.yul\":9262:9284   */\n  swap1\n  pop\n    /* \"#utility.yul\":9238:9358   */\n  jump(tag_177)\ntag_179:\n    /* \"#utility.yul\":9178:9364   */\n  pop\n  pop\n  jump\t// out\n    /* \"#utility.yul\":9370:9913   */\ntag_64:\n    /* \"#utility.yul\":9471:9473   */\n  0x1f\n    /* \"#utility.yul\":9466:9469   */\n  dup3\n    /* \"#utility.yul\":9463:9474   */\n  gt\n    /* \"#utility.yul\":9460:9906   */\n  iszero\n  tag_182\n  jumpi\n    /* \"#utility.yul\":9505:9543   */\n  tag_183\n    /* \"#utility.yul\":9537:9542   */\n  dup2\n    /* \"#utility.yul\":9505:9543   */\n  tag_53\n  jump\t// in\ntag_183:\n    /* \"#utility.yul\":9589:9618   */\n  tag_184\n    /* \"#utility.yul\":9607:9617   */\n  dup5\n    /* \"#utility.yul\":9589:9618   */\n  tag_54\n  jump\t// in\ntag_184:\n    /* \"#utility.yul\":9579:9587   */\n  dup2\n    /* \"#utility.yul\":9575:9619   */\n  add\n    /* \"#utility.yul\":9772:9774   */\n  0x20\n    /* \"#utility.yul\":9760:9770   */\n  dup6\n    /* \"#utility.yul\":9757:9775   */\n  lt\n    /* \"#utility.yul\":9754:9803   */\n  iszero\n  tag_185\n  jumpi\n    /* \"#utility.yul\":9793:9801   */\n  dup2\n    /* \"#utility.yul\":9778:9801   */\n  swap1\n  pop\n    /* \"#utility.yul\":9754:9803   */\ntag_185:\n    /* \"#utility.yul\":9816:9896   */\n  tag_186\n    /* \"#utility.yul\":9872:9894   */\n  tag_187\n    /* \"#utility.yul\":9890:9893   */\n  dup6\n    /* \"#utility.yul\":9872:9894   */\n  tag_54\n  jump\t// in\ntag_187:\n    /* \"#utility.yul\":9862:9870   */\n  dup4\n    /* \"#utility.yul\":9858:9895   */\n  add\n    /* \"#utility.yul\":9845:9856   */\n  dup3\n    /* \"#utility.yul\":9816:9896   */\n  tag_63\n  jump\t// in\ntag_186:\n    /* \"#utility.yul\":9475:9906   */\n  pop\n  pop\n    /* \"#utility.yul\":9460:9906   */\ntag_182:\n    /* \"#utility.yul\":9370:9913   */\n  pop\n  pop\n  pop\n  jump\t// out\n    /* \"#utility.yul\":9919:10036   */\ntag_65:\n    /* \"#utility.yul\":9973:9981   */\n  0x00\n    /* \"#utility.yul\":10023:10028   */\n  dup3\n    /* \"#utility.yul\":10017:10021   */\n  dup3\n    /* \"#utility.yul\":10013:10029   */\n  shr\n    /* \"#utility.yul\":9992:10029   */\n  swap1\n  pop\n    /* \"#utility.yul\":9919:10036   */\n  swap3\n  swap2\n  pop\n  pop\n  jump\t// out\n    /* \"#utility.yul\":10042:10211   */\ntag_66:\n    /* \"#utility.yul\":10086:10092   */\n  0x00\n    /* \"#utility.yul\":10119:10170   */\n  tag_190\n    /* \"#utility.yul\":10167:10168   */\n  0x00\n    /* \"#utility.yul\":10163:10169   */\n  not\n    /* \"#utility.yul\":10155:10160   */\n  dup5\n    /* \"#utility.yul\":10152:10153   */\n  0x08\n    /* \"#utility.yul\":10148:10161   */\n  mul\n    /* \"#utility.yul\":10119:10170   */\n  tag_65\n  jump\t// in\ntag_190:\n    /* \"#utility.yul\":10115:10171   */\n  not\n    /* \"#utility.yul\":10200:10204   */\n  dup1\n    /* \"#utility.yul\":10194:10198   */\n  dup4\n    /* \"#utility.yul\":10190:10205   */\n  and\n    /* \"#utility.yul\":10180:10205   */\n  swap2\n  pop\n    /* \"#utility.yul\":10093:10211   */\n  pop\n    /* \"#utility.yul\":10042:10211   */\n  swap3\n  swap2\n  pop\n  pop\n  jump\t// out\n    /* \"#utility.yul\":10216:10511   */\ntag_67:\n    /* \"#utility.yul\":10292:10296   */\n  0x00\n    /* \"#utility.yul\":10438:10467   */\n  tag_192\n    /* \"#utility.yul\":10463:10466   */\n  dup4\n    /* \"#utility.yul\":10457:10461   */\n  dup4\n    /* \"#utility.yul\":10438:10467   */\n  tag_66\n  jump\t// in\ntag_192:\n    /* \"#utility.yul\":10430:10467   */\n  swap2\n  pop\n    /* \"#utility.yul\":10500:10503   */\n  dup3\n    /* \"#utility.yul\":10497:10498   */\n  0x02\n    /* \"#utility.yul\":10493:10504   */\n  mul\n    /* \"#utility.yul\":10487:10491   */\n  dup3\n    /* \"#utility.yul\":10484:10505   */\n  or\n    /* \"#utility.yul\":10476:10505   */\n  swap1\n  pop\n    /* \"#utility.yul\":10216:10511   */\n  swap3\n  swap2\n  pop\n  pop\n  jump\t// out\n    /* \"#utility.yul\":10516:11911   */\ntag_10:\n    /* \"#utility.yul\":10633:10670   */\n  tag_194\n    /* \"#utility.yul\":10666:10669   */\n  dup3\n    /* \"#utility.yul\":10633:10670   */\n  tag_50\n  jump\t// in\ntag_194:\n    /* \"#utility.yul\":10735:10753   */\n  0xffffffffffffffff\n    /* \"#utility.yul\":10727:10733   */\n  dup2\n    /* \"#utility.yul\":10724:10754   */\n  gt\n    /* \"#utility.yul\":10721:10777   */\n  iszero\n  tag_195\n  jumpi\n    /* \"#utility.yul\":10757:10775   */\n  tag_196\n  tag_36\n  jump\t// in\ntag_196:\n    /* \"#utility.yul\":10721:10777   */\ntag_195:\n    /* \"#utility.yul\":10801:10839   */\n  tag_197\n    /* \"#utility.yul\":10833:10837   */\n  dup3\n    /* \"#utility.yul\":10827:10838   */\n  sload\n    /* \"#utility.yul\":10801:10839   */\n  tag_52\n  jump\t// in\ntag_197:\n    /* \"#utility.yul\":10886:10953   */\n  tag_198\n    /* \"#utility.yul\":10946:10952   */\n  dup3\n    /* \"#utility.yul\":10938:10944   */\n  dup3\n    /* \"#utility.yul\":10932:10936   */\n  dup6\n    /* \"#utility.yul\":10886:10953   */\n  tag_64\n  jump\t// in\ntag_198:\n    /* \"#utility.yul\":10980:10981   */\n  0x00\n    /* \"#utility.yul\":11004:11008   */\n  0x20\n    /* \"#utility.yul\":10991:11008   */\n  swap1\n  pop\n    /* \"#utility.yul\":11036:11038   */\n  0x1f\n    /* \"#utility.yul\":11028:11034   */\n  dup4\n    /* \"#utility.yul\":11025:11039   */\n  gt\n    /* \"#utility.yul\":11053:11054   */\n  0x01\n    /* \"#utility.yul\":11048:11666   */\n  dup2\n  eq\n  tag_200\n  jumpi\n    /* \"#utility.yul\":11710:11711   */\n  0x00\n    /* \"#utility.yul\":11727:11733   */\n  dup5\n    /* \"#utility.yul\":11724:11801   */\n  iszero\n  tag_201\n  jumpi\n    /* \"#utility.yul\":11776:11785   */\n  dup3\n    /* \"#utility.yul\":11771:11774   */\n  dup8\n    /* \"#utility.yul\":11767:11786   */\n  add\n    /* \"#utility.yul\":11761:11787   */\n  mload\n    /* \"#utility.yul\":11752:11787   */\n  swap1\n  pop\n    /* \"#utility.yul\":11724:11801   */\ntag_201:\n    /* \"#utility.yul\":11827:11894   */\n  tag_202\n    /* \"#utility.yul\":11887:11893   */\n  dup6\n    /* \"#utility.yul\":11880:11885   */\n  dup3\n    /* \"#utility.yul\":11827:11894   */\n  tag_67\n  jump\t// in\ntag_202:\n    /* \"#utility.yul\":11821:11825   */\n  dup7\n    /* \"#utility.yul\":11814:11895   */\n  sstore\n    /* \"#utility.yul\":11683:11905   */\n  pop\n    /* \"#utility.yul\":11018:11905   */\n  jump(tag_199)\n    /* \"#utility.yul\":11048:11666   */\ntag_200:\n    /* \"#utility.yul\":11100:11104   */\n  0x1f\n    /* \"#utility.yul\":11096:11105   */\n  not\n    /* \"#utility.yul\":11088:11094   */\n  dup5\n    /* \"#utility.yul\":11084:11106   */\n  and\n    /* \"#utility.yul\":11134:11171   */\n  tag_203\n    /* \"#utility.yul\":11166:11170   */\n  dup7\n    /* \"#utility.yul\":11134:11171   */\n  tag_53\n  jump\t// in\ntag_203:\n    /* \"#utility.yul\":11193:11194   */\n  0x00\n    /* \"#utility.yul\":11207:11415   */\ntag_204:\n    /* \"#utility.yul\":11221:11228   */\n  dup3\n    /* \"#utility.yul\":11218:11219   */\n  dup2\n    /* \"#utility.yul\":11215:11229   */\n  lt\n    /* \"#utility.yul\":11207:11415   */\n  iszero\n  tag_206\n  jumpi\n    /* \"#utility.yul\":11300:11309   */\n  dup5\n    /* \"#utility.yul\":11295:11298   */\n  dup10\n    /* \"#utility.yul\":11291:11310   */\n  add\n    /* \"#utility.yul\":11285:11311   */\n  mload\n    /* \"#utility.yul\":11277:11283   */\n  dup3\n    /* \"#utility.yul\":11270:11312   */\n  sstore\n    /* \"#utility.yul\":11351:11352   */\n  0x01\n    /* \"#utility.yul\":11343:11349   */\n  dup3\n    /* \"#utility.yul\":11339:11353   */\n  add\n    /* \"#utility.yul\":11329:11353   */\n  swap2\n  pop\n    /* \"#utility.yul\":11398:11400   */\n  0x20\n    /* \"#utility.yul\":11387:11396   */\n  dup6\n    /* \"#utility.yul\":11383:11401   */\n  add\n    /* \"#utility.yul\":11370:11401   */\n  swap5\n  pop\n    /* \"#utility.yul\":11244:11248   */\n  0x20\n    /* \"#utility.yul\":11241:11242   */\n  dup2\n    /* \"#utility.yul\":11237:11249   */\n  add\n    /* \"#utility.yul\":11232:11249   */\n  swap1\n  pop\n    /* \"#utility.yul\":11207:11415   */\n  jump(tag_204)\ntag_206:\n    /* \"#utility.yul\":11443:11449   */\n  dup7\n    /* \"#utility.yul\":11434:11441   */\n  dup4\n    /* \"#utility.yul\":11431:11450   */\n  lt\n    /* \"#utility.yul\":11428:11607   */\n  iszero\n  tag_207\n  jumpi\n    /* \"#utility.yul\":11501:11510   */\n  dup5\n    /* \"#utility.yul\":11496:11499   */\n  dup10\n    /* \"#utility.yul\":11492:11511   */\n  add\n    /* \"#utility.yul\":11486:11512   */\n  mload\n    /* \"#utility.yul\":11544:11592   */\n  tag_208\n    /* \"#utility.yul\":11586:11590   */\n  0x1f\n    /* \"#utility.yul\":11578:11584   */\n  dup10\n    /* \"#utility.yul\":11574:11591   */\n  and\n    /* \"#utility.yul\":11563:11572   */\n  dup3\n    /* \"#utility.yul\":11544:11592   */\n  tag_66\n  jump\t// in\ntag_208:\n    /* \"#utility.yul\":11536:11542   */\n  dup4\n    /* \"#utility.yul\":11529:11593   */\n  sstore\n    /* \"#utility.yul\":11451:11607   */\n  pop\n    /* \"#utility.yul\":11428:11607   */\ntag_207:\n    /* \"#utility.yul\":11653:11654   */\n  0x01\n    /* \"#utility.yul\":11649:11650   */\n  0x02\n    /* \"#utility.yul\":11641:11647   */\n  dup9\n    /* \"#utility.yul\":11637:11651   */\n  mul\n    /* \"#utility.yul\":11633:11655   */\n  add\n    /* \"#utility.yul\":11627:11631   */\n  dup9\n    /* \"#utility.yul\":11620:11656   */\n  sstore\n    /* \"#utility.yul\":11055:11666   */\n  pop\n  pop\n  pop\n    /* \"#utility.yul\":11018:11905   */\ntag_199:\n  pop\n    /* \"#utility.yul\":10608:11911   */\n  pop\n  pop\n  pop\n    /* \"#utility.yul\":10516:11911   */\n  pop\n  pop\n  jump\t// out\n    /* \"#utility.yul\":11917:12097   */\ntag_68:\n    /* \"#utility.yul\":11965:12042   */\n  0x4e487b7100000000000000000000000000000000000000000000000000000000\n    /* \"#utility.yul\":11962:11963   */\n  0x00\n    /* \"#utility.yul\":11955:12043   */\n  mstore\n    /* \"#utility.yul\":12062:12066   */\n  0x11\n    /* \"#utility.yul\":12059:12060   */\n  0x04\n    /* \"#utility.yul\":12052:12067   */\n  mstore\n    /* \"#utility.yul\":12086:12090   */\n  0x24\n    /* \"#utility.yul\":12083:12084   */\n  0x00\n    /* \"#utility.yul\":12076:12091   */\n  revert\n    /* \"#utility.yul\":12103:12294   */\ntag_13:\n    /* \"#utility.yul\":12143:12146   */\n  0x00\n    /* \"#utility.yul\":12162:12182   */\n  tag_211\n    /* \"#utility.yul\":12180:12181   */\n  dup3\n    /* \"#utility.yul\":12162:12182   */\n  tag_47\n  jump\t// in\ntag_211:\n    /* \"#utility.yul\":12157:12182   */\n  swap2\n  pop\n    /* \"#utility.yul\":12196:12216   */\n  tag_212\n    /* \"#utility.yul\":12214:12215   */\n  dup4\n    /* \"#utility.yul\":12196:12216   */\n  tag_47\n  jump\t// in\ntag_212:\n    /* \"#utility.yul\":12191:12216   */\n  swap3\n  pop\n    /* \"#utility.yul\":12239:12240   */\n  dup3\n    /* \"#utility.yul\":12236:12237   */\n  dup3\n    /* \"#utility.yul\":12232:12241   */\n  add\n    /* \"#utility.yul\":12225:12241   */\n  swap1\n  pop\n    /* \"#utility.yul\":12260:12263   */\n  dup1\n    /* \"#utility.yul\":12257:12258   */\n  dup3\n    /* \"#utility.yul\":12254:12264   */\n  gt\n    /* \"#utility.yul\":12251:12287   */\n  iszero\n  tag_213\n  jumpi\n    /* \"#utility.yul\":12267:12285   */\n  tag_214\n  tag_68\n  jump\t// in\ntag_214:\n    /* \"#utility.yul\":12251:12287   */\ntag_213:\n    /* \"#utility.yul\":12103:12294   */\n  swap3\n  swap2\n  pop\n  pop\n  jump\t// out\n    /* \"#utility.yul\":12300:12480   */\ntag_19:\n    /* \"#utility.yul\":12348:12425   */\n  0x4e487b7100000000000000000000000000000000000000000000000000000000\n    /* \"#utility.yul\":12345:12346   */\n  0x00\n    /* \"#utility.yul\":12338:12426   */\n  mstore\n    /* \"#utility.yul\":12445:12449   */\n  0x32\n    /* \"#utility.yul\":12442:12443   */\n  0x04\n    /* \"#utility.yul\":12435:12450   */\n  mstore\n    /* \"#utility.yul\":12469:12473   */\n  0x24\n    /* \"#utility.yul\":12466:12467   */\n  0x00\n    /* \"#utility.yul\":12459:12474   */\n  revert\n    /* \"#utility.yul\":12486:12572   */\ntag_69:\n    /* \"#utility.yul\":12521:12528   */\n  0x00\n    /* \"#utility.yul\":12561:12565   */\n  0xff\n    /* \"#utility.yul\":12554:12559   */\n  dup3\n    /* \"#utility.yul\":12550:12566   */\n  and\n    /* \"#utility.yul\":12539:12566   */\n  swap1\n  pop\n    /* \"#utility.yul\":12486:12572   */\n  swap2\n  swap1\n  pop\n  jump\t// out\n    /* \"#utility.yul\":12578:12745   */\ntag_23:\n    /* \"#utility.yul\":12615:12618   */\n  0x00\n    /* \"#utility.yul\":12638:12660   */\n  tag_218\n    /* \"#utility.yul\":12654:12659   */\n  dup3\n    /* \"#utility.yul\":12638:12660   */\n  tag_69\n  jump\t// in\ntag_218:\n    /* \"#utility.yul\":12629:12660   */\n  swap2\n  pop\n    /* \"#utility.yul\":12682:12686   */\n  0xff\n    /* \"#utility.yul\":12675:12680   */\n  dup3\n    /* \"#utility.yul\":12672:12687   */\n  sub\n    /* \"#utility.yul\":12669:12710   */\n  tag_219\n  jumpi\n    /* \"#utility.yul\":12690:12708   */\n  tag_220\n  tag_68\n  jump\t// in\ntag_220:\n    /* \"#utility.yul\":12669:12710   */\ntag_219:\n    /* \"#utility.yul\":12737:12738   */\n  0x01\n    /* \"#utility.yul\":12730:12735   */\n  dup3\n    /* \"#utility.yul\":12726:12739   */\n  add\n    /* \"#utility.yul\":12719:12739   */\n  swap1\n  pop\n    /* \"#utility.yul\":12578:12745   */\n  swap2\n  swap1\n  pop\n  jump\t// out\n    /* \"SimplePoll.sol\":2859:3886  contract PrivatePoll is SimplePoll {... */\ntag_25:\n  dataSize(sub_0)\n  dup1\n  dataOffset(sub_0)\n  0x00\n  codecopy\n  0x00\n  return\nstop\n\nsub_0: assembly {\n        /* \"SimplePoll.sol\":2859:3886  contract PrivatePoll is SimplePoll {... */\n      mstore(0x40, 0x80)\n      callvalue\n      dup1\n      iszero\n      tag_1\n      jumpi\n      0x00\n      dup1\n      revert\n    tag_1:\n      pop\n      jumpi(tag_2, lt(calldatasize, 0x04))\n      shr(0xe0, calldataload(0x00))\n      dup1\n      0x9145a7fc\n      gt\n      tag_15\n      jumpi\n      dup1\n      0x9145a7fc\n      eq\n      tag_9\n      jumpi\n      dup1\n      0x9e7b8d61\n      eq\n      tag_10\n      jumpi\n      dup1\n      0xa3ec138d\n      eq\n      tag_11\n      jumpi\n      dup1\n      0xb3f98adc\n      eq\n      tag_12\n      jumpi\n      dup1\n      0xbf63a577\n      eq\n      tag_13\n      jumpi\n      dup1\n      0xe2ba53f0\n      eq\n      tag_14\n      jumpi\n      jump(tag_2)\n    tag_15:\n      dup1\n      0x013cf08b\n      eq\n      tag_3\n      jumpi\n      dup1\n      0x02d05d3f\n      eq\n      tag_4\n      jumpi\n      dup1\n      0x09eef43e\n      eq\n      tag_5\n      jumpi\n      dup1\n      0x29dcb0cf\n      eq\n      tag_6\n      jumpi\n      dup1\n      0x4717f97c\n      eq\n      tag_7\n      jumpi\n      dup1\n      0x7284e416\n      eq\n      tag_8\n      jumpi\n    tag_2:\n      0x00\n      dup1\n      revert\n        /* \"SimplePoll.sol\":919:960  SharedStructs.Proposal[] public proposals */\n    tag_3:\n      tag_16\n      0x04\n      dup1\n      calldatasize\n      sub\n      dup2\n      add\n      swap1\n      tag_17\n      swap2\n      swap1\n      tag_18\n      jump\t// in\n    tag_17:\n      tag_19\n      jump\t// in\n    tag_16:\n      mload(0x40)\n      tag_20\n      swap3\n      swap2\n      swap1\n      tag_21\n      jump\t// in\n    tag_20:\n      mload(0x40)\n      dup1\n      swap2\n      sub\n      swap1\n      return\n        /* \"SimplePoll.sol\":554:576  address public creator */\n    tag_4:\n      tag_22\n      tag_23\n      jump\t// in\n    tag_22:\n      mload(0x40)\n      tag_24\n      swap2\n      swap1\n      tag_25\n      jump\t// in\n    tag_24:\n      mload(0x40)\n      dup1\n      swap2\n      sub\n      swap1\n      return\n        /* \"SimplePoll.sol\":2004:2110  function hasVoted(address voter) external view returns(bool) {... */\n    tag_5:\n      tag_26\n      0x04\n      dup1\n      calldatasize\n      sub\n      dup2\n      add\n      swap1\n      tag_27\n      swap2\n      swap1\n      tag_28\n      jump\t// in\n    tag_27:\n      tag_29\n      jump\t// in\n    tag_26:\n      mload(0x40)\n      tag_30\n      swap2\n      swap1\n      tag_31\n      jump\t// in\n    tag_30:\n      mload(0x40)\n      dup1\n      swap2\n      sub\n      swap1\n      return\n        /* \"SimplePoll.sol\":892:912  uint public deadline */\n    tag_6:\n      tag_32\n      tag_33\n      jump\t// in\n    tag_32:\n      mload(0x40)\n      tag_34\n      swap2\n      swap1\n      tag_35\n      jump\t// in\n    tag_34:\n      mload(0x40)\n      dup1\n      swap2\n      sub\n      swap1\n      return\n        /* \"SimplePoll.sol\":2233:2346  function getResults() external view returns (SharedStructs.Proposal[] memory) {... */\n    tag_7:\n      tag_36\n      tag_37\n      jump\t// in\n    tag_36:\n      mload(0x40)\n      tag_38\n      swap2\n      swap1\n      tag_39\n      jump\t// in\n    tag_38:\n      mload(0x40)\n      dup1\n      swap2\n      sub\n      swap1\n      return\n        /* \"SimplePoll.sol\":860:885  string public description */\n    tag_8:\n      tag_40\n      tag_41\n      jump\t// in\n    tag_40:\n      mload(0x40)\n      tag_42\n      swap2\n      swap1\n      tag_43\n      jump\t// in\n    tag_42:\n      mload(0x40)\n      dup1\n      swap2\n      sub\n      swap1\n      return\n        /* \"SimplePoll.sol\":2118:2225  function isDeadlineExpired() public view returns(bool) {... */\n    tag_9:\n      tag_44\n      tag_45\n      jump\t// in\n    tag_44:\n      mload(0x40)\n      tag_46\n      swap2\n      swap1\n      tag_31\n      jump\t// in\n    tag_46:\n      mload(0x40)\n      dup1\n      swap2\n      sub\n      swap1\n      return\n        /* \"SimplePoll.sol\":3242:3463  function giveRightToVote(address voter) external hasDeadlineNotExpired isCreator hasNoRightToVote(voter) {... */\n    tag_10:\n      tag_47\n      0x04\n      dup1\n      calldatasize\n      sub\n      dup2\n      add\n      swap1\n      tag_48\n      swap2\n      swap1\n      tag_28\n      jump\t// in\n    tag_48:\n      tag_49\n      jump\t// in\n    tag_47:\n      stop\n        /* \"SimplePoll.sol\":967:1020  mapping(address => SharedStructs.Voter) public voters */\n    tag_11:\n      tag_50\n      0x04\n      dup1\n      calldatasize\n      sub\n      dup2\n      add\n      swap1\n      tag_51\n      swap2\n      swap1\n      tag_28\n      jump\t// in\n    tag_51:\n      tag_52\n      jump\t// in\n    tag_50:\n      mload(0x40)\n      tag_53\n      swap6\n      swap5\n      swap4\n      swap3\n      swap2\n      swap1\n      tag_54\n      jump\t// in\n    tag_53:\n      mload(0x40)\n      dup1\n      swap2\n      sub\n      swap1\n      return\n        /* \"SimplePoll.sol\":3471:3883  function vote(uint8 proposalIndex) external override hasDeadlineNotExpired isProposalIndexCorrect(proposalIndex) {... */\n    tag_12:\n      tag_55\n      0x04\n      dup1\n      calldatasize\n      sub\n      dup2\n      add\n      swap1\n      tag_56\n      swap2\n      swap1\n      tag_57\n      jump\t// in\n    tag_56:\n      tag_58\n      jump\t// in\n    tag_55:\n      stop\n        /* \"SimplePoll.sol\":834:853  string public topic */\n    tag_13:\n      tag_59\n      tag_60\n      jump\t// in\n    tag_59:\n      mload(0x40)\n      tag_61\n      swap2\n      swap1\n      tag_43\n      jump\t// in\n    tag_61:\n      mload(0x40)\n      dup1\n      swap2\n      sub\n      swap1\n      return\n        /* \"SimplePoll.sol\":2354:2487  function winnerName() external view returns (string memory) {... */\n    tag_14:\n      tag_62\n      tag_63\n      jump\t// in\n    tag_62:\n      mload(0x40)\n      tag_64\n      swap2\n      swap1\n      tag_43\n      jump\t// in\n    tag_64:\n      mload(0x40)\n      dup1\n      swap2\n      sub\n      swap1\n      return\n        /* \"SimplePoll.sol\":919:960  SharedStructs.Proposal[] public proposals */\n    tag_19:\n      0x04\n      dup2\n      dup2\n      sload\n      dup2\n      lt\n      tag_65\n      jumpi\n      0x00\n      dup1\n      revert\n    tag_65:\n      swap1\n      0x00\n      mstore\n      keccak256(0x00, 0x20)\n      swap1\n      0x02\n      mul\n      add\n      0x00\n      swap2\n      pop\n      swap1\n      pop\n      dup1\n      0x00\n      add\n      dup1\n      sload\n      tag_67\n      swap1\n      tag_68\n      jump\t// in\n    tag_67:\n      dup1\n      0x1f\n      add\n      0x20\n      dup1\n      swap2\n      div\n      mul\n      0x20\n      add\n      mload(0x40)\n      swap1\n      dup2\n      add\n      0x40\n      mstore\n      dup1\n      swap3\n      swap2\n      swap1\n      dup2\n      dup2\n      mstore\n      0x20\n      add\n      dup3\n      dup1\n      sload\n      tag_69\n      swap1\n      tag_68\n      jump\t// in\n    tag_69:\n      dup1\n      iszero\n      tag_70\n      jumpi\n      dup1\n      0x1f\n      lt\n      tag_71\n      jumpi\n      0x0100\n      dup1\n      dup4\n      sload\n      div\n      mul\n      dup4\n      mstore\n      swap2\n      0x20\n      add\n      swap2\n      jump(tag_70)\n    tag_71:\n      dup3\n      add\n      swap2\n      swap1\n      0x00\n      mstore\n      keccak256(0x00, 0x20)\n      swap1\n    tag_72:\n      dup2\n      sload\n      dup2\n      mstore\n      swap1\n      0x01\n      add\n      swap1\n      0x20\n      add\n      dup1\n      dup4\n      gt\n      tag_72\n      jumpi\n      dup3\n      swap1\n      sub\n      0x1f\n      and\n      dup3\n      add\n      swap2\n    tag_70:\n      pop\n      pop\n      pop\n      pop\n      pop\n      swap1\n      dup1\n      0x01\n      add\n      sload\n      swap1\n      pop\n      dup3\n      jump\t// out\n        /* \"SimplePoll.sol\":554:576  address public creator */\n    tag_23:\n      0x00\n      dup1\n      sload\n      swap1\n      0x0100\n      exp\n      swap1\n      div\n      0xffffffffffffffffffffffffffffffffffffffff\n      and\n      dup2\n      jump\t// out\n        /* \"SimplePoll.sol\":2004:2110  function hasVoted(address voter) external view returns(bool) {... */\n    tag_29:\n        /* \"SimplePoll.sol\":2059:2063  bool */\n      0x00\n        /* \"SimplePoll.sol\":2083:2089  voters */\n      0x05\n        /* \"SimplePoll.sol\":2083:2096  voters[voter] */\n      0x00\n        /* \"SimplePoll.sol\":2090:2095  voter */\n      dup4\n        /* \"SimplePoll.sol\":2083:2096  voters[voter] */\n      0xffffffffffffffffffffffffffffffffffffffff\n      and\n      0xffffffffffffffffffffffffffffffffffffffff\n      and\n      dup2\n      mstore\n      0x20\n      add\n      swap1\n      dup2\n      mstore\n      0x20\n      add\n      0x00\n      keccak256\n        /* \"SimplePoll.sol\":2083:2102  voters[voter].voted */\n      0x00\n      add\n      0x01\n      swap1\n      sload\n      swap1\n      0x0100\n      exp\n      swap1\n      div\n      0xff\n      and\n        /* \"SimplePoll.sol\":2076:2102  return voters[voter].voted */\n      swap1\n      pop\n        /* \"SimplePoll.sol\":2004:2110  function hasVoted(address voter) external view returns(bool) {... */\n      swap2\n      swap1\n      pop\n      jump\t// out\n        /* \"SimplePoll.sol\":892:912  uint public deadline */\n    tag_33:\n      sload(0x03)\n      dup2\n      jump\t// out\n        /* \"SimplePoll.sol\":2233:2346  function getResults() external view returns (SharedStructs.Proposal[] memory) {... */\n    tag_37:\n        /* \"SimplePoll.sol\":2278:2309  SharedStructs.Proposal[] memory */\n      0x60\n        /* \"SimplePoll.sol\":2329:2338  proposals */\n      0x04\n        /* \"SimplePoll.sol\":2322:2338  return proposals */\n      dup1\n      sload\n      dup1\n      0x20\n      mul\n      0x20\n      add\n      mload(0x40)\n      swap1\n      dup2\n      add\n      0x40\n      mstore\n      dup1\n      swap3\n      swap2\n      swap1\n      dup2\n      dup2\n      mstore\n      0x20\n      add\n      0x00\n      swap1\n    tag_75:\n      dup3\n      dup3\n      lt\n      iszero\n      tag_76\n      jumpi\n      dup4\n      dup3\n      swap1\n      0x00\n      mstore\n      keccak256(0x00, 0x20)\n      swap1\n      0x02\n      mul\n      add\n      mload(0x40)\n      dup1\n      0x40\n      add\n      0x40\n      mstore\n      swap1\n      dup2\n      0x00\n      dup3\n      add\n      dup1\n      sload\n      tag_78\n      swap1\n      tag_68\n      jump\t// in\n    tag_78:\n      dup1\n      0x1f\n      add\n      0x20\n      dup1\n      swap2\n      div\n      mul\n      0x20\n      add\n      mload(0x40)\n      swap1\n      dup2\n      add\n      0x40\n      mstore\n      dup1\n      swap3\n      swap2\n      swap1\n      dup2\n      dup2\n      mstore\n      0x20\n      add\n      dup3\n      dup1\n      sload\n      tag_79\n      swap1\n      tag_68\n      jump\t// in\n    tag_79:\n      dup1\n      iszero\n      tag_80\n      jumpi\n      dup1\n      0x1f\n      lt\n      tag_81\n      jumpi\n      0x0100\n      dup1\n      dup4\n      sload\n      div\n      mul\n      dup4\n      mstore\n      swap2\n      0x20\n      add\n      swap2\n      jump(tag_80)\n    tag_81:\n      dup3\n      add\n      swap2\n      swap1\n      0x00\n      mstore\n      keccak256(0x00, 0x20)\n      swap1\n    tag_82:\n      dup2\n      sload\n      dup2\n      mstore\n      swap1\n      0x01\n      add\n      swap1\n      0x20\n      add\n      dup1\n      dup4\n      gt\n      tag_82\n      jumpi\n      dup3\n      swap1\n      sub\n      0x1f\n      and\n      dup3\n      add\n      swap2\n    tag_80:\n      pop\n      pop\n      pop\n      pop\n      pop\n      dup2\n      mstore\n      0x20\n      add\n      0x01\n      dup3\n      add\n      sload\n      dup2\n      mstore\n      pop\n      pop\n      dup2\n      mstore\n      0x20\n      add\n      swap1\n      0x01\n      add\n      swap1\n      jump(tag_75)\n    tag_76:\n      pop\n      pop\n      pop\n      pop\n      swap1\n      pop\n        /* \"SimplePoll.sol\":2233:2346  function getResults() external view returns (SharedStructs.Proposal[] memory) {... */\n      swap1\n      jump\t// out\n        /* \"SimplePoll.sol\":860:885  string public description */\n    tag_41:\n      0x02\n      dup1\n      sload\n      tag_83\n      swap1\n      tag_68\n      jump\t// in\n    tag_83:\n      dup1\n      0x1f\n      add\n      0x20\n      dup1\n      swap2\n      div\n      mul\n      0x20\n      add\n      mload(0x40)\n      swap1\n      dup2\n      add\n      0x40\n      mstore\n      dup1\n      swap3\n      swap2\n      swap1\n      dup2\n      dup2\n      mstore\n      0x20\n      add\n      dup3\n      dup1\n      sload\n      tag_84\n      swap1\n      tag_68\n      jump\t// in\n    tag_84:\n      dup1\n      iszero\n      tag_85\n      jumpi\n      dup1\n      0x1f\n      lt\n      tag_86\n      jumpi\n      0x0100\n      dup1\n      dup4\n      sload\n      div\n      mul\n      dup4\n      mstore\n      swap2\n      0x20\n      add\n      swap2\n      jump(tag_85)\n    tag_86:\n      dup3\n      add\n      swap2\n      swap1\n      0x00\n      mstore\n      keccak256(0x00, 0x20)\n      swap1\n    tag_87:\n      dup2\n      sload\n      dup2\n      mstore\n      swap1\n      0x01\n      add\n      swap1\n      0x20\n      add\n      dup1\n      dup4\n      gt\n      tag_87\n      jumpi\n      dup3\n      swap1\n      sub\n      0x1f\n      and\n      dup3\n      add\n      swap2\n    tag_85:\n      pop\n      pop\n      pop\n      pop\n      pop\n      dup2\n      jump\t// out\n        /* \"SimplePoll.sol\":2118:2225  function isDeadlineExpired() public view returns(bool) {... */\n    tag_45:\n        /* \"SimplePoll.sol\":2167:2171  bool */\n      0x00\n        /* \"SimplePoll.sol\":2209:2217  deadline */\n      sload(0x03)\n        /* \"SimplePoll.sol\":2191:2206  block.timestamp */\n      timestamp\n        /* \"SimplePoll.sol\":2191:2217  block.timestamp > deadline */\n      gt\n        /* \"SimplePoll.sol\":2184:2217  return block.timestamp > deadline */\n      swap1\n      pop\n        /* \"SimplePoll.sol\":2118:2225  function isDeadlineExpired() public view returns(bool) {... */\n      swap1\n      jump\t// out\n        /* \"SimplePoll.sol\":3242:3463  function giveRightToVote(address voter) external hasDeadlineNotExpired isCreator hasNoRightToVote(voter) {... */\n    tag_49:\n        /* \"SimplePoll.sol\":1395:1414  isDeadlineExpired() */\n      tag_90\n        /* \"SimplePoll.sol\":1395:1412  isDeadlineExpired */\n      tag_45\n        /* \"SimplePoll.sol\":1395:1414  isDeadlineExpired() */\n      jump\t// in\n    tag_90:\n        /* \"SimplePoll.sol\":1394:1414  !isDeadlineExpired() */\n      iszero\n        /* \"SimplePoll.sol\":1386:1440  require(!isDeadlineExpired(), \"Deadline has expired.\") */\n      tag_91\n      jumpi\n      mload(0x40)\n      0x08c379a000000000000000000000000000000000000000000000000000000000\n      dup2\n      mstore\n      0x04\n      add\n      tag_92\n      swap1\n      tag_93\n      jump\t// in\n    tag_92:\n      mload(0x40)\n      dup1\n      swap2\n      sub\n      swap1\n      revert\n    tag_91:\n        /* \"SimplePoll.sol\":714:721  creator */\n      0x00\n      dup1\n      sload\n      swap1\n      0x0100\n      exp\n      swap1\n      div\n      0xffffffffffffffffffffffffffffffffffffffff\n      and\n        /* \"SimplePoll.sol\":700:721  msg.sender == creator */\n      0xffffffffffffffffffffffffffffffffffffffff\n      and\n        /* \"SimplePoll.sol\":700:710  msg.sender */\n      caller\n        /* \"SimplePoll.sol\":700:721  msg.sender == creator */\n      0xffffffffffffffffffffffffffffffffffffffff\n      and\n      eq\n        /* \"SimplePoll.sol\":692:760  require(msg.sender == creator, \"Only creator has these privileges.\") */\n      tag_95\n      jumpi\n      mload(0x40)\n      0x08c379a000000000000000000000000000000000000000000000000000000000\n      dup2\n      mstore\n      0x04\n      add\n      tag_96\n      swap1\n      tag_97\n      jump\t// in\n    tag_96:\n      mload(0x40)\n      dup1\n      swap2\n      sub\n      swap1\n      revert\n    tag_95:\n        /* \"SimplePoll.sol\":3340:3345  voter */\n      dup1\n        /* \"SimplePoll.sol\":1090:1096  voters */\n      0x05\n        /* \"SimplePoll.sol\":1090:1103  voters[voter] */\n      0x00\n        /* \"SimplePoll.sol\":1097:1102  voter */\n      dup3\n        /* \"SimplePoll.sol\":1090:1103  voters[voter] */\n      0xffffffffffffffffffffffffffffffffffffffff\n      and\n      0xffffffffffffffffffffffffffffffffffffffff\n      and\n      dup2\n      mstore\n      0x20\n      add\n      swap1\n      dup2\n      mstore\n      0x20\n      add\n      0x00\n      keccak256\n        /* \"SimplePoll.sol\":1090:1111  voters[voter].canVote */\n      0x00\n      add\n      0x00\n      swap1\n      sload\n      swap1\n      0x0100\n      exp\n      swap1\n      div\n      0xff\n      and\n        /* \"SimplePoll.sol\":1089:1111  !voters[voter].canVote */\n      iszero\n        /* \"SimplePoll.sol\":1081:1148  require(!voters[voter].canVote, \"Voter has already right to vote.\") */\n      tag_99\n      jumpi\n      mload(0x40)\n      0x08c379a000000000000000000000000000000000000000000000000000000000\n      dup2\n      mstore\n      0x04\n      add\n      tag_100\n      swap1\n      tag_101\n      jump\t// in\n    tag_100:\n      mload(0x40)\n      dup1\n      swap2\n      sub\n      swap1\n      revert\n    tag_99:\n        /* \"SimplePoll.sol\":3382:3386  true */\n      0x01\n        /* \"SimplePoll.sol\":3358:3364  voters */\n      0x05\n        /* \"SimplePoll.sol\":3358:3371  voters[voter] */\n      0x00\n        /* \"SimplePoll.sol\":3365:3370  voter */\n      dup5\n        /* \"SimplePoll.sol\":3358:3371  voters[voter] */\n      0xffffffffffffffffffffffffffffffffffffffff\n      and\n      0xffffffffffffffffffffffffffffffffffffffff\n      and\n      dup2\n      mstore\n      0x20\n      add\n      swap1\n      dup2\n      mstore\n      0x20\n      add\n      0x00\n      keccak256\n        /* \"SimplePoll.sol\":3358:3379  voters[voter].canVote */\n      0x00\n      add\n      0x00\n        /* \"SimplePoll.sol\":3358:3386  voters[voter].canVote = true */\n      0x0100\n      exp\n      dup2\n      sload\n      dup2\n      0xff\n      mul\n      not\n      and\n      swap1\n      dup4\n      iszero\n      iszero\n      mul\n      or\n      swap1\n      sstore\n      pop\n        /* \"SimplePoll.sol\":3449:3454  voter */\n      dup2\n        /* \"SimplePoll.sol\":3402:3455  GivingRightToVote(block.timestamp, msg.sender, voter) */\n      0xffffffffffffffffffffffffffffffffffffffff\n      and\n        /* \"SimplePoll.sol\":3437:3447  msg.sender */\n      caller\n        /* \"SimplePoll.sol\":3402:3455  GivingRightToVote(block.timestamp, msg.sender, voter) */\n      0xffffffffffffffffffffffffffffffffffffffff\n      and\n        /* \"SimplePoll.sol\":3420:3435  block.timestamp */\n      timestamp\n        /* \"SimplePoll.sol\":3402:3455  GivingRightToVote(block.timestamp, msg.sender, voter) */\n      0xa4bbd98d03300dc9c6991b0f3c356eb7c69c95fc7352dcbc5cb2e949904506b2\n      mload(0x40)\n      mload(0x40)\n      dup1\n      swap2\n      sub\n      swap1\n      log4\n        /* \"SimplePoll.sol\":771:772  _ */\n      pop\n        /* \"SimplePoll.sol\":3242:3463  function giveRightToVote(address voter) external hasDeadlineNotExpired isCreator hasNoRightToVote(voter) {... */\n      pop\n      jump\t// out\n        /* \"SimplePoll.sol\":967:1020  mapping(address => SharedStructs.Voter) public voters */\n    tag_52:\n      mstore(0x20, 0x05)\n      dup1\n      0x00\n      mstore\n      keccak256(0x00, 0x40)\n      0x00\n      swap2\n      pop\n      swap1\n      pop\n      dup1\n      0x00\n      add\n      0x00\n      swap1\n      sload\n      swap1\n      0x0100\n      exp\n      swap1\n      div\n      0xff\n      and\n      swap1\n      dup1\n      0x00\n      add\n      0x01\n      swap1\n      sload\n      swap1\n      0x0100\n      exp\n      swap1\n      div\n      0xff\n      and\n      swap1\n      dup1\n      0x00\n      add\n      0x02\n      swap1\n      sload\n      swap1\n      0x0100\n      exp\n      swap1\n      div\n      0xff\n      and\n      swap1\n      dup1\n      0x01\n      add\n      sload\n      swap1\n      dup1\n      0x02\n      add\n      0x00\n      swap1\n      sload\n      swap1\n      0x0100\n      exp\n      swap1\n      div\n      0xffffffffffffffffffffffffffffffffffffffff\n      and\n      swap1\n      pop\n      dup6\n      jump\t// out\n        /* \"SimplePoll.sol\":3471:3883  function vote(uint8 proposalIndex) external override hasDeadlineNotExpired isProposalIndexCorrect(proposalIndex) {... */\n    tag_58:\n        /* \"SimplePoll.sol\":1395:1414  isDeadlineExpired() */\n      tag_104\n        /* \"SimplePoll.sol\":1395:1412  isDeadlineExpired */\n      tag_45\n        /* \"SimplePoll.sol\":1395:1414  isDeadlineExpired() */\n      jump\t// in\n    tag_104:\n        /* \"SimplePoll.sol\":1394:1414  !isDeadlineExpired() */\n      iszero\n        /* \"SimplePoll.sol\":1386:1440  require(!isDeadlineExpired(), \"Deadline has expired.\") */\n      tag_105\n      jumpi\n      mload(0x40)\n      0x08c379a000000000000000000000000000000000000000000000000000000000\n      dup2\n      mstore\n      0x04\n      add\n      tag_106\n      swap1\n      tag_93\n      jump\t// in\n    tag_106:\n      mload(0x40)\n      dup1\n      swap2\n      sub\n      swap1\n      revert\n    tag_105:\n        /* \"SimplePoll.sol\":3569:3582  proposalIndex */\n      dup1\n        /* \"SimplePoll.sol\":1264:1273  proposals */\n      0x04\n        /* \"SimplePoll.sol\":1264:1280  proposals.length */\n      dup1\n      sload\n      swap1\n      pop\n        /* \"SimplePoll.sol\":1248:1261  proposalIndex */\n      dup2\n        /* \"SimplePoll.sol\":1248:1280  proposalIndex < proposals.length */\n      0xff\n      and\n      lt\n        /* \"SimplePoll.sol\":1240:1314  require(proposalIndex < proposals.length, \"This proposal does not exist.\") */\n      tag_108\n      jumpi\n      mload(0x40)\n      0x08c379a000000000000000000000000000000000000000000000000000000000\n      dup2\n      mstore\n      0x04\n      add\n      tag_109\n      swap1\n      tag_110\n      jump\t// in\n    tag_109:\n      mload(0x40)\n      dup1\n      swap2\n      sub\n      swap1\n      revert\n    tag_108:\n        /* \"SimplePoll.sol\":3595:3629  SharedStructs.Voter storage sender */\n      0x00\n        /* \"SimplePoll.sol\":3632:3638  voters */\n      0x05\n        /* \"SimplePoll.sol\":3632:3650  voters[msg.sender] */\n      0x00\n        /* \"SimplePoll.sol\":3639:3649  msg.sender */\n      caller\n        /* \"SimplePoll.sol\":3632:3650  voters[msg.sender] */\n      0xffffffffffffffffffffffffffffffffffffffff\n      and\n      0xffffffffffffffffffffffffffffffffffffffff\n      and\n      dup2\n      mstore\n      0x20\n      add\n      swap1\n      dup2\n      mstore\n      0x20\n      add\n      0x00\n      keccak256\n        /* \"SimplePoll.sol\":3595:3650  SharedStructs.Voter storage sender = voters[msg.sender] */\n      swap1\n      pop\n        /* \"SimplePoll.sol\":3669:3675  sender */\n      dup1\n        /* \"SimplePoll.sol\":3669:3683  sender.canVote */\n      0x00\n      add\n      0x00\n      swap1\n      sload\n      swap1\n      0x0100\n      exp\n      swap1\n      div\n      0xff\n      and\n        /* \"SimplePoll.sol\":3661:3709  require(sender.canVote, \"Has no right to vote.\") */\n      tag_112\n      jumpi\n      mload(0x40)\n      0x08c379a000000000000000000000000000000000000000000000000000000000\n      dup2\n      mstore\n      0x04\n      add\n      tag_113\n      swap1\n      tag_114\n      jump\t// in\n    tag_113:\n      mload(0x40)\n      dup1\n      swap2\n      sub\n      swap1\n      revert\n    tag_112:\n        /* \"SimplePoll.sol\":3729:3735  sender */\n      dup1\n        /* \"SimplePoll.sol\":3729:3741  sender.voted */\n      0x00\n      add\n      0x01\n      swap1\n      sload\n      swap1\n      0x0100\n      exp\n      swap1\n      div\n      0xff\n      and\n        /* \"SimplePoll.sol\":3728:3741  !sender.voted */\n      iszero\n        /* \"SimplePoll.sol\":3720:3760  require(!sender.voted, \"Already voted.\") */\n      tag_115\n      jumpi\n      mload(0x40)\n      0x08c379a000000000000000000000000000000000000000000000000000000000\n      dup2\n      mstore\n      0x04\n      add\n      tag_116\n      swap1\n      tag_117\n      jump\t// in\n    tag_116:\n      mload(0x40)\n      dup1\n      swap2\n      sub\n      swap1\n      revert\n    tag_115:\n        /* \"SimplePoll.sol\":3786:3790  true */\n      0x01\n        /* \"SimplePoll.sol\":3771:3777  sender */\n      dup2\n        /* \"SimplePoll.sol\":3771:3783  sender.voted */\n      0x00\n      add\n      0x01\n        /* \"SimplePoll.sol\":3771:3790  sender.voted = true */\n      0x0100\n      exp\n      dup2\n      sload\n      dup2\n      0xff\n      mul\n      not\n      and\n      swap1\n      dup4\n      iszero\n      iszero\n      mul\n      or\n      swap1\n      sstore\n      pop\n        /* \"SimplePoll.sol\":3815:3828  proposalIndex */\n      dup3\n        /* \"SimplePoll.sol\":3801:3807  sender */\n      dup2\n        /* \"SimplePoll.sol\":3801:3812  sender.vote */\n      0x00\n      add\n      0x02\n        /* \"SimplePoll.sol\":3801:3828  sender.vote = proposalIndex */\n      0x0100\n      exp\n      dup2\n      sload\n      dup2\n      0xff\n      mul\n      not\n      and\n      swap1\n      dup4\n      0xff\n      and\n      mul\n      or\n      swap1\n      sstore\n      pop\n        /* \"SimplePoll.sol\":3839:3848  proposals */\n      0x04\n        /* \"SimplePoll.sol\":3849:3862  proposalIndex */\n      dup4\n        /* \"SimplePoll.sol\":3839:3863  proposals[proposalIndex] */\n      0xff\n      and\n      dup2\n      sload\n      dup2\n      lt\n      tag_118\n      jumpi\n      tag_119\n      tag_120\n      jump\t// in\n    tag_119:\n    tag_118:\n      swap1\n      0x00\n      mstore\n      keccak256(0x00, 0x20)\n      swap1\n      0x02\n      mul\n      add\n        /* \"SimplePoll.sol\":3839:3873  proposals[proposalIndex].voteCount */\n      0x01\n      add\n      0x00\n        /* \"SimplePoll.sol\":3839:3875  proposals[proposalIndex].voteCount++ */\n      dup2\n      sload\n      dup1\n      swap3\n      swap2\n      swap1\n      tag_122\n      swap1\n      tag_123\n      jump\t// in\n    tag_122:\n      swap2\n      swap1\n      pop\n      sstore\n      pop\n        /* \"SimplePoll.sol\":3584:3883  {... */\n      pop\n        /* \"SimplePoll.sol\":1451:1452  _ */\n      pop\n        /* \"SimplePoll.sol\":3471:3883  function vote(uint8 proposalIndex) external override hasDeadlineNotExpired isProposalIndexCorrect(proposalIndex) {... */\n      pop\n      jump\t// out\n        /* \"SimplePoll.sol\":834:853  string public topic */\n    tag_60:\n      0x01\n      dup1\n      sload\n      tag_124\n      swap1\n      tag_68\n      jump\t// in\n    tag_124:\n      dup1\n      0x1f\n      add\n      0x20\n      dup1\n      swap2\n      div\n      mul\n      0x20\n      add\n      mload(0x40)\n      swap1\n      dup2\n      add\n      0x40\n      mstore\n      dup1\n      swap3\n      swap2\n      swap1\n      dup2\n      dup2\n      mstore\n      0x20\n      add\n      dup3\n      dup1\n      sload\n      tag_125\n      swap1\n      tag_68\n      jump\t// in\n    tag_125:\n      dup1\n      iszero\n      tag_126\n      jumpi\n      dup1\n      0x1f\n      lt\n      tag_127\n      jumpi\n      0x0100\n      dup1\n      dup4\n      sload\n      div\n      mul\n      dup4\n      mstore\n      swap2\n      0x20\n      add\n      swap2\n      jump(tag_126)\n    tag_127:\n      dup3\n      add\n      swap2\n      swap1\n      0x00\n      mstore\n      keccak256(0x00, 0x20)\n      swap1\n    tag_128:\n      dup2\n      sload\n      dup2\n      mstore\n      swap1\n      0x01\n      add\n      swap1\n      0x20\n      add\n      dup1\n      dup4\n      gt\n      tag_128\n      jumpi\n      dup3\n      swap1\n      sub\n      0x1f\n      and\n      dup3\n      add\n      swap2\n    tag_126:\n      pop\n      pop\n      pop\n      pop\n      pop\n      dup2\n      jump\t// out\n        /* \"SimplePoll.sol\":2354:2487  function winnerName() external view returns (string memory) {... */\n    tag_63:\n        /* \"SimplePoll.sol\":2399:2412  string memory */\n      0x60\n        /* \"SimplePoll.sol\":2432:2441  proposals */\n      0x04\n        /* \"SimplePoll.sol\":2442:2473  determineWinningProposalIndex() */\n      tag_130\n        /* \"SimplePoll.sol\":2442:2471  determineWinningProposalIndex */\n      tag_131\n        /* \"SimplePoll.sol\":2442:2473  determineWinningProposalIndex() */\n      jump\t// in\n    tag_130:\n        /* \"SimplePoll.sol\":2432:2474  proposals[determineWinningProposalIndex()] */\n      0xff\n      and\n      dup2\n      sload\n      dup2\n      lt\n      tag_132\n      jumpi\n      tag_133\n      tag_120\n      jump\t// in\n    tag_133:\n    tag_132:\n      swap1\n      0x00\n      mstore\n      keccak256(0x00, 0x20)\n      swap1\n      0x02\n      mul\n      add\n        /* \"SimplePoll.sol\":2432:2479  proposals[determineWinningProposalIndex()].name */\n      0x00\n      add\n        /* \"SimplePoll.sol\":2425:2479  return proposals[determineWinningProposalIndex()].name */\n      dup1\n      sload\n      tag_135\n      swap1\n      tag_68\n      jump\t// in\n    tag_135:\n      dup1\n      0x1f\n      add\n      0x20\n      dup1\n      swap2\n      div\n      mul\n      0x20\n      add\n      mload(0x40)\n      swap1\n      dup2\n      add\n      0x40\n      mstore\n      dup1\n      swap3\n      swap2\n      swap1\n      dup2\n      dup2\n      mstore\n      0x20\n      add\n      dup3\n      dup1\n      sload\n      tag_136\n      swap1\n      tag_68\n      jump\t// in\n    tag_136:\n      dup1\n      iszero\n      tag_137\n      jumpi\n      dup1\n      0x1f\n      lt\n      tag_138\n      jumpi\n      0x0100\n      dup1\n      dup4\n      sload\n      div\n      mul\n      dup4\n      mstore\n      swap2\n      0x20\n      add\n      swap2\n      jump(tag_137)\n    tag_138:\n      dup3\n      add\n      swap2\n      swap1\n      0x00\n      mstore\n      keccak256(0x00, 0x20)\n      swap1\n    tag_139:\n      dup2\n      sload\n      dup2\n      mstore\n      swap1\n      0x01\n      add\n      swap1\n      0x20\n      add\n      dup1\n      dup4\n      gt\n      tag_139\n      jumpi\n      dup3\n      swap1\n      sub\n      0x1f\n      and\n      dup3\n      add\n      swap2\n    tag_137:\n      pop\n      pop\n      pop\n      pop\n      pop\n      swap1\n      pop\n        /* \"SimplePoll.sol\":2354:2487  function winnerName() external view returns (string memory) {... */\n      swap1\n      jump\t// out\n        /* \"SimplePoll.sol\":2495:2850  function determineWinningProposalIndex() private view returns (uint8 index) {... */\n    tag_131:\n        /* \"SimplePoll.sol\":2558:2569  uint8 index */\n      0x00\n        /* \"SimplePoll.sol\":2582:2604  uint _winningVoteCount */\n      dup1\n        /* \"SimplePoll.sol\":2607:2608  0 */\n      0x00\n        /* \"SimplePoll.sol\":2582:2608  uint _winningVoteCount = 0 */\n      swap1\n      pop\n        /* \"SimplePoll.sol\":2624:2631  uint8 i */\n      0x00\n        /* \"SimplePoll.sol\":2619:2843  for (uint8 i = 0; i < proposals.length; i++) {... */\n    tag_141:\n        /* \"SimplePoll.sol\":2641:2650  proposals */\n      0x04\n        /* \"SimplePoll.sol\":2641:2657  proposals.length */\n      dup1\n      sload\n      swap1\n      pop\n        /* \"SimplePoll.sol\":2637:2638  i */\n      dup2\n        /* \"SimplePoll.sol\":2637:2657  i < proposals.length */\n      0xff\n      and\n      lt\n        /* \"SimplePoll.sol\":2619:2843  for (uint8 i = 0; i < proposals.length; i++) {... */\n      iszero\n      tag_142\n      jumpi\n        /* \"SimplePoll.sol\":2708:2725  _winningVoteCount */\n      dup2\n        /* \"SimplePoll.sol\":2683:2692  proposals */\n      0x04\n        /* \"SimplePoll.sol\":2693:2694  i */\n      dup3\n        /* \"SimplePoll.sol\":2683:2695  proposals[i] */\n      0xff\n      and\n      dup2\n      sload\n      dup2\n      lt\n      tag_144\n      jumpi\n      tag_145\n      tag_120\n      jump\t// in\n    tag_145:\n    tag_144:\n      swap1\n      0x00\n      mstore\n      keccak256(0x00, 0x20)\n      swap1\n      0x02\n      mul\n      add\n        /* \"SimplePoll.sol\":2683:2705  proposals[i].voteCount */\n      0x01\n      add\n      sload\n        /* \"SimplePoll.sol\":2683:2725  proposals[i].voteCount > _winningVoteCount */\n      gt\n        /* \"SimplePoll.sol\":2679:2832  if (proposals[i].voteCount > _winningVoteCount) {... */\n      iszero\n      tag_147\n      jumpi\n        /* \"SimplePoll.sol\":2766:2775  proposals */\n      0x04\n        /* \"SimplePoll.sol\":2776:2777  i */\n      dup2\n        /* \"SimplePoll.sol\":2766:2778  proposals[i] */\n      0xff\n      and\n      dup2\n      sload\n      dup2\n      lt\n      tag_148\n      jumpi\n      tag_149\n      tag_120\n      jump\t// in\n    tag_149:\n    tag_148:\n      swap1\n      0x00\n      mstore\n      keccak256(0x00, 0x20)\n      swap1\n      0x02\n      mul\n      add\n        /* \"SimplePoll.sol\":2766:2788  proposals[i].voteCount */\n      0x01\n      add\n      sload\n        /* \"SimplePoll.sol\":2746:2788  _winningVoteCount = proposals[i].voteCount */\n      swap2\n      pop\n        /* \"SimplePoll.sol\":2815:2816  i */\n      dup1\n        /* \"SimplePoll.sol\":2807:2816  index = i */\n      swap3\n      pop\n        /* \"SimplePoll.sol\":2679:2832  if (proposals[i].voteCount > _winningVoteCount) {... */\n    tag_147:\n        /* \"SimplePoll.sol\":2659:2662  i++ */\n      dup1\n      dup1\n      tag_151\n      swap1\n      tag_152\n      jump\t// in\n    tag_151:\n      swap2\n      pop\n      pop\n        /* \"SimplePoll.sol\":2619:2843  for (uint8 i = 0; i < proposals.length; i++) {... */\n      jump(tag_141)\n    tag_142:\n      pop\n        /* \"SimplePoll.sol\":2571:2850  {... */\n      pop\n        /* \"SimplePoll.sol\":2495:2850  function determineWinningProposalIndex() private view returns (uint8 index) {... */\n      swap1\n      jump\t// out\n        /* \"#utility.yul\":88:205   */\n    tag_154:\n        /* \"#utility.yul\":197:198   */\n      0x00\n        /* \"#utility.yul\":194:195   */\n      dup1\n        /* \"#utility.yul\":187:199   */\n      revert\n        /* \"#utility.yul\":334:411   */\n    tag_156:\n        /* \"#utility.yul\":371:378   */\n      0x00\n        /* \"#utility.yul\":400:405   */\n      dup2\n        /* \"#utility.yul\":389:405   */\n      swap1\n      pop\n        /* \"#utility.yul\":334:411   */\n      swap2\n      swap1\n      pop\n      jump\t// out\n        /* \"#utility.yul\":417:539   */\n    tag_157:\n        /* \"#utility.yul\":490:514   */\n      tag_206\n        /* \"#utility.yul\":508:513   */\n      dup2\n        /* \"#utility.yul\":490:514   */\n      tag_156\n      jump\t// in\n    tag_206:\n        /* \"#utility.yul\":483:488   */\n      dup2\n        /* \"#utility.yul\":480:515   */\n      eq\n        /* \"#utility.yul\":470:533   */\n      tag_207\n      jumpi\n        /* \"#utility.yul\":529:530   */\n      0x00\n        /* \"#utility.yul\":526:527   */\n      dup1\n        /* \"#utility.yul\":519:531   */\n      revert\n        /* \"#utility.yul\":470:533   */\n    tag_207:\n        /* \"#utility.yul\":417:539   */\n      pop\n      jump\t// out\n        /* \"#utility.yul\":545:684   */\n    tag_158:\n        /* \"#utility.yul\":591:596   */\n      0x00\n        /* \"#utility.yul\":629:635   */\n      dup2\n        /* \"#utility.yul\":616:636   */\n      calldataload\n        /* \"#utility.yul\":607:636   */\n      swap1\n      pop\n        /* \"#utility.yul\":645:678   */\n      tag_209\n        /* \"#utility.yul\":672:677   */\n      dup2\n        /* \"#utility.yul\":645:678   */\n      tag_157\n      jump\t// in\n    tag_209:\n        /* \"#utility.yul\":545:684   */\n      swap3\n      swap2\n      pop\n      pop\n      jump\t// out\n        /* \"#utility.yul\":690:1019   */\n    tag_18:\n        /* \"#utility.yul\":749:755   */\n      0x00\n        /* \"#utility.yul\":798:800   */\n      0x20\n        /* \"#utility.yul\":786:795   */\n      dup3\n        /* \"#utility.yul\":777:784   */\n      dup5\n        /* \"#utility.yul\":773:796   */\n      sub\n        /* \"#utility.yul\":769:801   */\n      slt\n        /* \"#utility.yul\":766:885   */\n      iszero\n      tag_211\n      jumpi\n        /* \"#utility.yul\":804:883   */\n      tag_212\n      tag_154\n      jump\t// in\n    tag_212:\n        /* \"#utility.yul\":766:885   */\n    tag_211:\n        /* \"#utility.yul\":924:925   */\n      0x00\n        /* \"#utility.yul\":949:1002   */\n      tag_213\n        /* \"#utility.yul\":994:1001   */\n      dup5\n        /* \"#utility.yul\":985:991   */\n      dup3\n        /* \"#utility.yul\":974:983   */\n      dup6\n        /* \"#utility.yul\":970:992   */\n      add\n        /* \"#utility.yul\":949:1002   */\n      tag_158\n      jump\t// in\n    tag_213:\n        /* \"#utility.yul\":939:1002   */\n      swap2\n      pop\n        /* \"#utility.yul\":895:1012   */\n      pop\n        /* \"#utility.yul\":690:1019   */\n      swap3\n      swap2\n      pop\n      pop\n      jump\t// out\n        /* \"#utility.yul\":1025:1124   */\n    tag_159:\n        /* \"#utility.yul\":1077:1083   */\n      0x00\n        /* \"#utility.yul\":1111:1116   */\n      dup2\n        /* \"#utility.yul\":1105:1117   */\n      mload\n        /* \"#utility.yul\":1095:1117   */\n      swap1\n      pop\n        /* \"#utility.yul\":1025:1124   */\n      swap2\n      swap1\n      pop\n      jump\t// out\n        /* \"#utility.yul\":1130:1299   */\n    tag_160:\n        /* \"#utility.yul\":1214:1225   */\n      0x00\n        /* \"#utility.yul\":1248:1254   */\n      dup3\n        /* \"#utility.yul\":1243:1246   */\n      dup3\n        /* \"#utility.yul\":1236:1255   */\n      mstore\n        /* \"#utility.yul\":1288:1292   */\n      0x20\n        /* \"#utility.yul\":1283:1286   */\n      dup3\n        /* \"#utility.yul\":1279:1293   */\n      add\n        /* \"#utility.yul\":1264:1293   */\n      swap1\n      pop\n        /* \"#utility.yul\":1130:1299   */\n      swap3\n      swap2\n      pop\n      pop\n      jump\t// out\n        /* \"#utility.yul\":1305:1551   */\n    tag_161:\n        /* \"#utility.yul\":1386:1387   */\n      0x00\n        /* \"#utility.yul\":1396:1509   */\n    tag_217:\n        /* \"#utility.yul\":1410:1416   */\n      dup4\n        /* \"#utility.yul\":1407:1408   */\n      dup2\n        /* \"#utility.yul\":1404:1417   */\n      lt\n        /* \"#utility.yul\":1396:1509   */\n      iszero\n      tag_219\n      jumpi\n        /* \"#utility.yul\":1495:1496   */\n      dup1\n        /* \"#utility.yul\":1490:1493   */\n      dup3\n        /* \"#utility.yul\":1486:1497   */\n      add\n        /* \"#utility.yul\":1480:1498   */\n      mload\n        /* \"#utility.yul\":1476:1477   */\n      dup2\n        /* \"#utility.yul\":1471:1474   */\n      dup5\n        /* \"#utility.yul\":1467:1478   */\n      add\n        /* \"#utility.yul\":1460:1499   */\n      mstore\n        /* \"#utility.yul\":1432:1434   */\n      0x20\n        /* \"#utility.yul\":1429:1430   */\n      dup2\n        /* \"#utility.yul\":1425:1435   */\n      add\n        /* \"#utility.yul\":1420:1435   */\n      swap1\n      pop\n        /* \"#utility.yul\":1396:1509   */\n      jump(tag_217)\n    tag_219:\n        /* \"#utility.yul\":1543:1544   */\n      0x00\n        /* \"#utility.yul\":1534:1540   */\n      dup5\n        /* \"#utility.yul\":1529:1532   */\n      dup5\n        /* \"#utility.yul\":1525:1541   */\n      add\n        /* \"#utility.yul\":1518:1545   */\n      mstore\n        /* \"#utility.yul\":1367:1551   */\n      pop\n        /* \"#utility.yul\":1305:1551   */\n      pop\n      pop\n      pop\n      jump\t// out\n        /* \"#utility.yul\":1557:1659   */\n    tag_162:\n        /* \"#utility.yul\":1598:1604   */\n      0x00\n        /* \"#utility.yul\":1649:1651   */\n      0x1f\n        /* \"#utility.yul\":1645:1652   */\n      not\n        /* \"#utility.yul\":1640:1642   */\n      0x1f\n        /* \"#utility.yul\":1633:1638   */\n      dup4\n        /* \"#utility.yul\":1629:1643   */\n      add\n        /* \"#utility.yul\":1625:1653   */\n      and\n        /* \"#utility.yul\":1615:1653   */\n      swap1\n      pop\n        /* \"#utility.yul\":1557:1659   */\n      swap2\n      swap1\n      pop\n      jump\t// out\n        /* \"#utility.yul\":1665:2042   */\n    tag_163:\n        /* \"#utility.yul\":1753:1756   */\n      0x00\n        /* \"#utility.yul\":1781:1820   */\n      tag_222\n        /* \"#utility.yul\":1814:1819   */\n      dup3\n        /* \"#utility.yul\":1781:1820   */\n      tag_159\n      jump\t// in\n    tag_222:\n        /* \"#utility.yul\":1836:1907   */\n      tag_223\n        /* \"#utility.yul\":1900:1906   */\n      dup2\n        /* \"#utility.yul\":1895:1898   */\n      dup6\n        /* \"#utility.yul\":1836:1907   */\n      tag_160\n      jump\t// in\n    tag_223:\n        /* \"#utility.yul\":1829:1907   */\n      swap4\n      pop\n        /* \"#utility.yul\":1916:1981   */\n      tag_224\n        /* \"#utility.yul\":1974:1980   */\n      dup2\n        /* \"#utility.yul\":1969:1972   */\n      dup6\n        /* \"#utility.yul\":1962:1966   */\n      0x20\n        /* \"#utility.yul\":1955:1960   */\n      dup7\n        /* \"#utility.yul\":1951:1967   */\n      add\n        /* \"#utility.yul\":1916:1981   */\n      tag_161\n      jump\t// in\n    tag_224:\n        /* \"#utility.yul\":2006:2035   */\n      tag_225\n        /* \"#utility.yul\":2028:2034   */\n      dup2\n        /* \"#utility.yul\":2006:2035   */\n      tag_162\n      jump\t// in\n    tag_225:\n        /* \"#utility.yul\":2001:2004   */\n      dup5\n        /* \"#utility.yul\":1997:2036   */\n      add\n        /* \"#utility.yul\":1990:2036   */\n      swap2\n      pop\n        /* \"#utility.yul\":1757:2042   */\n      pop\n        /* \"#utility.yul\":1665:2042   */\n      swap3\n      swap2\n      pop\n      pop\n      jump\t// out\n        /* \"#utility.yul\":2048:2166   */\n    tag_164:\n        /* \"#utility.yul\":2135:2159   */\n      tag_227\n        /* \"#utility.yul\":2153:2158   */\n      dup2\n        /* \"#utility.yul\":2135:2159   */\n      tag_156\n      jump\t// in\n    tag_227:\n        /* \"#utility.yul\":2130:2133   */\n      dup3\n        /* \"#utility.yul\":2123:2160   */\n      mstore\n        /* \"#utility.yul\":2048:2166   */\n      pop\n      pop\n      jump\t// out\n        /* \"#utility.yul\":2172:2595   */\n    tag_21:\n        /* \"#utility.yul\":2313:2317   */\n      0x00\n        /* \"#utility.yul\":2351:2353   */\n      0x40\n        /* \"#utility.yul\":2340:2349   */\n      dup3\n        /* \"#utility.yul\":2336:2354   */\n      add\n        /* \"#utility.yul\":2328:2354   */\n      swap1\n      pop\n        /* \"#utility.yul\":2400:2409   */\n      dup2\n        /* \"#utility.yul\":2394:2398   */\n      dup2\n        /* \"#utility.yul\":2390:2410   */\n      sub\n        /* \"#utility.yul\":2386:2387   */\n      0x00\n        /* \"#utility.yul\":2375:2384   */\n      dup4\n        /* \"#utility.yul\":2371:2388   */\n      add\n        /* \"#utility.yul\":2364:2411   */\n      mstore\n        /* \"#utility.yul\":2428:2506   */\n      tag_229\n        /* \"#utility.yul\":2501:2505   */\n      dup2\n        /* \"#utility.yul\":2492:2498   */\n      dup6\n        /* \"#utility.yul\":2428:2506   */\n      tag_163\n      jump\t// in\n    tag_229:\n        /* \"#utility.yul\":2420:2506   */\n      swap1\n      pop\n        /* \"#utility.yul\":2516:2588   */\n      tag_230\n        /* \"#utility.yul\":2584:2586   */\n      0x20\n        /* \"#utility.yul\":2573:2582   */\n      dup4\n        /* \"#utility.yul\":2569:2587   */\n      add\n        /* \"#utility.yul\":2560:2566   */\n      dup5\n        /* \"#utility.yul\":2516:2588   */\n      tag_164\n      jump\t// in\n    tag_230:\n        /* \"#utility.yul\":2172:2595   */\n      swap4\n      swap3\n      pop\n      pop\n      pop\n      jump\t// out\n        /* \"#utility.yul\":2601:2727   */\n    tag_165:\n        /* \"#utility.yul\":2638:2645   */\n      0x00\n        /* \"#utility.yul\":2678:2720   */\n      0xffffffffffffffffffffffffffffffffffffffff\n        /* \"#utility.yul\":2671:2676   */\n      dup3\n        /* \"#utility.yul\":2667:2721   */\n      and\n        /* \"#utility.yul\":2656:2721   */\n      swap1\n      pop\n        /* \"#utility.yul\":2601:2727   */\n      swap2\n      swap1\n      pop\n      jump\t// out\n        /* \"#utility.yul\":2733:2829   */\n    tag_166:\n        /* \"#utility.yul\":2770:2777   */\n      0x00\n        /* \"#utility.yul\":2799:2823   */\n      tag_233\n        /* \"#utility.yul\":2817:2822   */\n      dup3\n        /* \"#utility.yul\":2799:2823   */\n      tag_165\n      jump\t// in\n    tag_233:\n        /* \"#utility.yul\":2788:2823   */\n      swap1\n      pop\n        /* \"#utility.yul\":2733:2829   */\n      swap2\n      swap1\n      pop\n      jump\t// out\n        /* \"#utility.yul\":2835:2953   */\n    tag_167:\n        /* \"#utility.yul\":2922:2946   */\n      tag_235\n        /* \"#utility.yul\":2940:2945   */\n      dup2\n        /* \"#utility.yul\":2922:2946   */\n      tag_166\n      jump\t// in\n    tag_235:\n        /* \"#utility.yul\":2917:2920   */\n      dup3\n        /* \"#utility.yul\":2910:2947   */\n      mstore\n        /* \"#utility.yul\":2835:2953   */\n      pop\n      pop\n      jump\t// out\n        /* \"#utility.yul\":2959:3181   */\n    tag_25:\n        /* \"#utility.yul\":3052:3056   */\n      0x00\n        /* \"#utility.yul\":3090:3092   */\n      0x20\n        /* \"#utility.yul\":3079:3088   */\n      dup3\n        /* \"#utility.yul\":3075:3093   */\n      add\n        /* \"#utility.yul\":3067:3093   */\n      swap1\n      pop\n        /* \"#utility.yul\":3103:3174   */\n      tag_237\n        /* \"#utility.yul\":3171:3172   */\n      0x00\n        /* \"#utility.yul\":3160:3169   */\n      dup4\n        /* \"#utility.yul\":3156:3173   */\n      add\n        /* \"#utility.yul\":3147:3153   */\n      dup5\n        /* \"#utility.yul\":3103:3174   */\n      tag_167\n      jump\t// in\n    tag_237:\n        /* \"#utility.yul\":2959:3181   */\n      swap3\n      swap2\n      pop\n      pop\n      jump\t// out\n        /* \"#utility.yul\":3187:3309   */\n    tag_168:\n        /* \"#utility.yul\":3260:3284   */\n      tag_239\n        /* \"#utility.yul\":3278:3283   */\n      dup2\n        /* \"#utility.yul\":3260:3284   */\n      tag_166\n      jump\t// in\n    tag_239:\n        /* \"#utility.yul\":3253:3258   */\n      dup2\n        /* \"#utility.yul\":3250:3285   */\n      eq\n        /* \"#utility.yul\":3240:3303   */\n      tag_240\n      jumpi\n        /* \"#utility.yul\":3299:3300   */\n      0x00\n        /* \"#utility.yul\":3296:3297   */\n      dup1\n        /* \"#utility.yul\":3289:3301   */\n      revert\n        /* \"#utility.yul\":3240:3303   */\n    tag_240:\n        /* \"#utility.yul\":3187:3309   */\n      pop\n      jump\t// out\n        /* \"#utility.yul\":3315:3454   */\n    tag_169:\n        /* \"#utility.yul\":3361:3366   */\n      0x00\n        /* \"#utility.yul\":3399:3405   */\n      dup2\n        /* \"#utility.yul\":3386:3406   */\n      calldataload\n        /* \"#utility.yul\":3377:3406   */\n      swap1\n      pop\n        /* \"#utility.yul\":3415:3448   */\n      tag_242\n        /* \"#utility.yul\":3442:3447   */\n      dup2\n        /* \"#utility.yul\":3415:3448   */\n      tag_168\n      jump\t// in\n    tag_242:\n        /* \"#utility.yul\":3315:3454   */\n      swap3\n      swap2\n      pop\n      pop\n      jump\t// out\n        /* \"#utility.yul\":3460:3789   */\n    tag_28:\n        /* \"#utility.yul\":3519:3525   */\n      0x00\n        /* \"#utility.yul\":3568:3570   */\n      0x20\n        /* \"#utility.yul\":3556:3565   */\n      dup3\n        /* \"#utility.yul\":3547:3554   */\n      dup5\n        /* \"#utility.yul\":3543:3566   */\n      sub\n        /* \"#utility.yul\":3539:3571   */\n      slt\n        /* \"#utility.yul\":3536:3655   */\n      iszero\n      tag_244\n      jumpi\n        /* \"#utility.yul\":3574:3653   */\n      tag_245\n      tag_154\n      jump\t// in\n    tag_245:\n        /* \"#utility.yul\":3536:3655   */\n    tag_244:\n        /* \"#utility.yul\":3694:3695   */\n      0x00\n        /* \"#utility.yul\":3719:3772   */\n      tag_246\n        /* \"#utility.yul\":3764:3771   */\n      dup5\n        /* \"#utility.yul\":3755:3761   */\n      dup3\n        /* \"#utility.yul\":3744:3753   */\n      dup6\n        /* \"#utility.yul\":3740:3762   */\n      add\n        /* \"#utility.yul\":3719:3772   */\n      tag_169\n      jump\t// in\n    tag_246:\n        /* \"#utility.yul\":3709:3772   */\n      swap2\n      pop\n        /* \"#utility.yul\":3665:3782   */\n      pop\n        /* \"#utility.yul\":3460:3789   */\n      swap3\n      swap2\n      pop\n      pop\n      jump\t// out\n        /* \"#utility.yul\":3795:3885   */\n    tag_170:\n        /* \"#utility.yul\":3829:3836   */\n      0x00\n        /* \"#utility.yul\":3872:3877   */\n      dup2\n        /* \"#utility.yul\":3865:3878   */\n      iszero\n        /* \"#utility.yul\":3858:3879   */\n      iszero\n        /* \"#utility.yul\":3847:3879   */\n      swap1\n      pop\n        /* \"#utility.yul\":3795:3885   */\n      swap2\n      swap1\n      pop\n      jump\t// out\n        /* \"#utility.yul\":3891:4000   */\n    tag_171:\n        /* \"#utility.yul\":3972:3993   */\n      tag_249\n        /* \"#utility.yul\":3987:3992   */\n      dup2\n        /* \"#utility.yul\":3972:3993   */\n      tag_170\n      jump\t// in\n    tag_249:\n        /* \"#utility.yul\":3967:3970   */\n      dup3\n        /* \"#utility.yul\":3960:3994   */\n      mstore\n        /* \"#utility.yul\":3891:4000   */\n      pop\n      pop\n      jump\t// out\n        /* \"#utility.yul\":4006:4216   */\n    tag_31:\n        /* \"#utility.yul\":4093:4097   */\n      0x00\n        /* \"#utility.yul\":4131:4133   */\n      0x20\n        /* \"#utility.yul\":4120:4129   */\n      dup3\n        /* \"#utility.yul\":4116:4134   */\n      add\n        /* \"#utility.yul\":4108:4134   */\n      swap1\n      pop\n        /* \"#utility.yul\":4144:4209   */\n      tag_251\n        /* \"#utility.yul\":4206:4207   */\n      0x00\n        /* \"#utility.yul\":4195:4204   */\n      dup4\n        /* \"#utility.yul\":4191:4208   */\n      add\n        /* \"#utility.yul\":4182:4188   */\n      dup5\n        /* \"#utility.yul\":4144:4209   */\n      tag_171\n      jump\t// in\n    tag_251:\n        /* \"#utility.yul\":4006:4216   */\n      swap3\n      swap2\n      pop\n      pop\n      jump\t// out\n        /* \"#utility.yul\":4222:4444   */\n    tag_35:\n        /* \"#utility.yul\":4315:4319   */\n      0x00\n        /* \"#utility.yul\":4353:4355   */\n      0x20\n        /* \"#utility.yul\":4342:4351   */\n      dup3\n        /* \"#utility.yul\":4338:4356   */\n      add\n        /* \"#utility.yul\":4330:4356   */\n      swap1\n      pop\n        /* \"#utility.yul\":4366:4437   */\n      tag_253\n        /* \"#utility.yul\":4434:4435   */\n      0x00\n        /* \"#utility.yul\":4423:4432   */\n      dup4\n        /* \"#utility.yul\":4419:4436   */\n      add\n        /* \"#utility.yul\":4410:4416   */\n      dup5\n        /* \"#utility.yul\":4366:4437   */\n      tag_164\n      jump\t// in\n    tag_253:\n        /* \"#utility.yul\":4222:4444   */\n      swap3\n      swap2\n      pop\n      pop\n      jump\t// out\n        /* \"#utility.yul\":4450:4589   */\n    tag_172:\n        /* \"#utility.yul\":4542:4548   */\n      0x00\n        /* \"#utility.yul\":4576:4581   */\n      dup2\n        /* \"#utility.yul\":4570:4582   */\n      mload\n        /* \"#utility.yul\":4560:4582   */\n      swap1\n      pop\n        /* \"#utility.yul\":4450:4589   */\n      swap2\n      swap1\n      pop\n      jump\t// out\n        /* \"#utility.yul\":4595:4804   */\n    tag_173:\n        /* \"#utility.yul\":4719:4730   */\n      0x00\n        /* \"#utility.yul\":4753:4759   */\n      dup3\n        /* \"#utility.yul\":4748:4751   */\n      dup3\n        /* \"#utility.yul\":4741:4760   */\n      mstore\n        /* \"#utility.yul\":4793:4797   */\n      0x20\n        /* \"#utility.yul\":4788:4791   */\n      dup3\n        /* \"#utility.yul\":4784:4798   */\n      add\n        /* \"#utility.yul\":4769:4798   */\n      swap1\n      pop\n        /* \"#utility.yul\":4595:4804   */\n      swap3\n      swap2\n      pop\n      pop\n      jump\t// out\n        /* \"#utility.yul\":4810:4967   */\n    tag_174:\n        /* \"#utility.yul\":4902:4906   */\n      0x00\n        /* \"#utility.yul\":4925:4928   */\n      dup2\n        /* \"#utility.yul\":4917:4928   */\n      swap1\n      pop\n        /* \"#utility.yul\":4955:4959   */\n      0x20\n        /* \"#utility.yul\":4950:4953   */\n      dup3\n        /* \"#utility.yul\":4946:4960   */\n      add\n        /* \"#utility.yul\":4938:4960   */\n      swap1\n      pop\n        /* \"#utility.yul\":4810:4967   */\n      swap2\n      swap1\n      pop\n      jump\t// out\n        /* \"#utility.yul\":4973:5132   */\n    tag_175:\n        /* \"#utility.yul\":5047:5058   */\n      0x00\n        /* \"#utility.yul\":5081:5087   */\n      dup3\n        /* \"#utility.yul\":5076:5079   */\n      dup3\n        /* \"#utility.yul\":5069:5088   */\n      mstore\n        /* \"#utility.yul\":5121:5125   */\n      0x20\n        /* \"#utility.yul\":5116:5119   */\n      dup3\n        /* \"#utility.yul\":5112:5126   */\n      add\n        /* \"#utility.yul\":5097:5126   */\n      swap1\n      pop\n        /* \"#utility.yul\":4973:5132   */\n      swap3\n      swap2\n      pop\n      pop\n      jump\t// out\n        /* \"#utility.yul\":5138:5495   */\n    tag_176:\n        /* \"#utility.yul\":5216:5219   */\n      0x00\n        /* \"#utility.yul\":5244:5283   */\n      tag_259\n        /* \"#utility.yul\":5277:5282   */\n      dup3\n        /* \"#utility.yul\":5244:5283   */\n      tag_159\n      jump\t// in\n    tag_259:\n        /* \"#utility.yul\":5299:5360   */\n      tag_260\n        /* \"#utility.yul\":5353:5359   */\n      dup2\n        /* \"#utility.yul\":5348:5351   */\n      dup6\n        /* \"#utility.yul\":5299:5360   */\n      tag_175\n      jump\t// in\n    tag_260:\n        /* \"#utility.yul\":5292:5360   */\n      swap4\n      pop\n        /* \"#utility.yul\":5369:5434   */\n      tag_261\n        /* \"#utility.yul\":5427:5433   */\n      dup2\n        /* \"#utility.yul\":5422:5425   */\n      dup6\n        /* \"#utility.yul\":5415:5419   */\n      0x20\n        /* \"#utility.yul\":5408:5413   */\n      dup7\n        /* \"#utility.yul\":5404:5420   */\n      add\n        /* \"#utility.yul\":5369:5434   */\n      tag_161\n      jump\t// in\n    tag_261:\n        /* \"#utility.yul\":5459:5488   */\n      tag_262\n        /* \"#utility.yul\":5481:5487   */\n      dup2\n        /* \"#utility.yul\":5459:5488   */\n      tag_162\n      jump\t// in\n    tag_262:\n        /* \"#utility.yul\":5454:5457   */\n      dup5\n        /* \"#utility.yul\":5450:5489   */\n      add\n        /* \"#utility.yul\":5443:5489   */\n      swap2\n      pop\n        /* \"#utility.yul\":5220:5495   */\n      pop\n        /* \"#utility.yul\":5138:5495   */\n      swap3\n      swap2\n      pop\n      pop\n      jump\t// out\n        /* \"#utility.yul\":5501:5609   */\n    tag_177:\n        /* \"#utility.yul\":5578:5602   */\n      tag_264\n        /* \"#utility.yul\":5596:5601   */\n      dup2\n        /* \"#utility.yul\":5578:5602   */\n      tag_156\n      jump\t// in\n    tag_264:\n        /* \"#utility.yul\":5573:5576   */\n      dup3\n        /* \"#utility.yul\":5566:5603   */\n      mstore\n        /* \"#utility.yul\":5501:5609   */\n      pop\n      pop\n      jump\t// out\n        /* \"#utility.yul\":5685:6286   */\n    tag_178:\n        /* \"#utility.yul\":5794:5797   */\n      0x00\n        /* \"#utility.yul\":5830:5834   */\n      0x40\n        /* \"#utility.yul\":5825:5828   */\n      dup4\n        /* \"#utility.yul\":5821:5835   */\n      add\n        /* \"#utility.yul\":5917:5921   */\n      0x00\n        /* \"#utility.yul\":5910:5915   */\n      dup4\n        /* \"#utility.yul\":5906:5922   */\n      add\n        /* \"#utility.yul\":5900:5923   */\n      mload\n        /* \"#utility.yul\":5970:5973   */\n      dup5\n        /* \"#utility.yul\":5964:5968   */\n      dup3\n        /* \"#utility.yul\":5960:5974   */\n      sub\n        /* \"#utility.yul\":5953:5957   */\n      0x00\n        /* \"#utility.yul\":5948:5951   */\n      dup7\n        /* \"#utility.yul\":5944:5958   */\n      add\n        /* \"#utility.yul\":5937:5975   */\n      mstore\n        /* \"#utility.yul\":5996:6069   */\n      tag_266\n        /* \"#utility.yul\":6064:6068   */\n      dup3\n        /* \"#utility.yul\":6050:6062   */\n      dup3\n        /* \"#utility.yul\":5996:6069   */\n      tag_176\n      jump\t// in\n    tag_266:\n        /* \"#utility.yul\":5988:6069   */\n      swap2\n      pop\n        /* \"#utility.yul\":5845:6080   */\n      pop\n        /* \"#utility.yul\":6167:6171   */\n      0x20\n        /* \"#utility.yul\":6160:6165   */\n      dup4\n        /* \"#utility.yul\":6156:6172   */\n      add\n        /* \"#utility.yul\":6150:6173   */\n      mload\n        /* \"#utility.yul\":6186:6249   */\n      tag_267\n        /* \"#utility.yul\":6243:6247   */\n      0x20\n        /* \"#utility.yul\":6238:6241   */\n      dup7\n        /* \"#utility.yul\":6234:6248   */\n      add\n        /* \"#utility.yul\":6220:6232   */\n      dup3\n        /* \"#utility.yul\":6186:6249   */\n      tag_177\n      jump\t// in\n    tag_267:\n        /* \"#utility.yul\":6090:6259   */\n      pop\n        /* \"#utility.yul\":6276:6280   */\n      dup1\n        /* \"#utility.yul\":6269:6280   */\n      swap2\n      pop\n        /* \"#utility.yul\":5799:6286   */\n      pop\n        /* \"#utility.yul\":5685:6286   */\n      swap3\n      swap2\n      pop\n      pop\n      jump\t// out\n        /* \"#utility.yul\":6292:6548   */\n    tag_179:\n        /* \"#utility.yul\":6411:6421   */\n      0x00\n        /* \"#utility.yul\":6446:6542   */\n      tag_269\n        /* \"#utility.yul\":6538:6541   */\n      dup4\n        /* \"#utility.yul\":6530:6536   */\n      dup4\n        /* \"#utility.yul\":6446:6542   */\n      tag_178\n      jump\t// in\n    tag_269:\n        /* \"#utility.yul\":6432:6542   */\n      swap1\n      pop\n        /* \"#utility.yul\":6292:6548   */\n      swap3\n      swap2\n      pop\n      pop\n      jump\t// out\n        /* \"#utility.yul\":6554:6692   */\n    tag_180:\n        /* \"#utility.yul\":6649:6653   */\n      0x00\n        /* \"#utility.yul\":6681:6685   */\n      0x20\n        /* \"#utility.yul\":6676:6679   */\n      dup3\n        /* \"#utility.yul\":6672:6686   */\n      add\n        /* \"#utility.yul\":6664:6686   */\n      swap1\n      pop\n        /* \"#utility.yul\":6554:6692   */\n      swap2\n      swap1\n      pop\n      jump\t// out\n        /* \"#utility.yul\":6772:7883   */\n    tag_181:\n        /* \"#utility.yul\":6941:6944   */\n      0x00\n        /* \"#utility.yul\":6970:7049   */\n      tag_272\n        /* \"#utility.yul\":7043:7048   */\n      dup3\n        /* \"#utility.yul\":6970:7049   */\n      tag_172\n      jump\t// in\n    tag_272:\n        /* \"#utility.yul\":7065:7176   */\n      tag_273\n        /* \"#utility.yul\":7169:7175   */\n      dup2\n        /* \"#utility.yul\":7164:7167   */\n      dup6\n        /* \"#utility.yul\":7065:7176   */\n      tag_173\n      jump\t// in\n    tag_273:\n        /* \"#utility.yul\":7058:7176   */\n      swap4\n      pop\n        /* \"#utility.yul\":7202:7205   */\n      dup4\n        /* \"#utility.yul\":7247:7251   */\n      0x20\n        /* \"#utility.yul\":7239:7245   */\n      dup3\n        /* \"#utility.yul\":7235:7252   */\n      mul\n        /* \"#utility.yul\":7230:7233   */\n      dup6\n        /* \"#utility.yul\":7226:7253   */\n      add\n        /* \"#utility.yul\":7277:7358   */\n      tag_274\n        /* \"#utility.yul\":7352:7357   */\n      dup6\n        /* \"#utility.yul\":7277:7358   */\n      tag_174\n      jump\t// in\n    tag_274:\n        /* \"#utility.yul\":7381:7388   */\n      dup1\n        /* \"#utility.yul\":7412:7413   */\n      0x00\n        /* \"#utility.yul\":7397:7838   */\n    tag_275:\n        /* \"#utility.yul\":7422:7428   */\n      dup6\n        /* \"#utility.yul\":7419:7420   */\n      dup2\n        /* \"#utility.yul\":7416:7429   */\n      lt\n        /* \"#utility.yul\":7397:7838   */\n      iszero\n      tag_277\n      jumpi\n        /* \"#utility.yul\":7493:7502   */\n      dup5\n        /* \"#utility.yul\":7487:7491   */\n      dup5\n        /* \"#utility.yul\":7483:7503   */\n      sub\n        /* \"#utility.yul\":7478:7481   */\n      dup10\n        /* \"#utility.yul\":7471:7504   */\n      mstore\n        /* \"#utility.yul\":7544:7550   */\n      dup2\n        /* \"#utility.yul\":7538:7551   */\n      mload\n        /* \"#utility.yul\":7572:7686   */\n      tag_278\n        /* \"#utility.yul\":7681:7685   */\n      dup6\n        /* \"#utility.yul\":7666:7679   */\n      dup3\n        /* \"#utility.yul\":7572:7686   */\n      tag_179\n      jump\t// in\n    tag_278:\n        /* \"#utility.yul\":7564:7686   */\n      swap5\n      pop\n        /* \"#utility.yul\":7709:7794   */\n      tag_279\n        /* \"#utility.yul\":7787:7793   */\n      dup4\n        /* \"#utility.yul\":7709:7794   */\n      tag_180\n      jump\t// in\n    tag_279:\n        /* \"#utility.yul\":7699:7794   */\n      swap3\n      pop\n        /* \"#utility.yul\":7823:7827   */\n      0x20\n        /* \"#utility.yul\":7818:7821   */\n      dup11\n        /* \"#utility.yul\":7814:7828   */\n      add\n        /* \"#utility.yul\":7807:7828   */\n      swap10\n      pop\n        /* \"#utility.yul\":7457:7838   */\n      pop\n        /* \"#utility.yul\":7444:7445   */\n      0x01\n        /* \"#utility.yul\":7441:7442   */\n      dup2\n        /* \"#utility.yul\":7437:7446   */\n      add\n        /* \"#utility.yul\":7432:7446   */\n      swap1\n      pop\n        /* \"#utility.yul\":7397:7838   */\n      jump(tag_275)\n    tag_277:\n        /* \"#utility.yul\":7401:7415   */\n      pop\n        /* \"#utility.yul\":7854:7858   */\n      dup3\n        /* \"#utility.yul\":7847:7858   */\n      swap8\n      pop\n        /* \"#utility.yul\":7874:7877   */\n      dup8\n        /* \"#utility.yul\":7867:7877   */\n      swap6\n      pop\n        /* \"#utility.yul\":6946:7883   */\n      pop\n      pop\n      pop\n      pop\n      pop\n        /* \"#utility.yul\":6772:7883   */\n      swap3\n      swap2\n      pop\n      pop\n      jump\t// out\n        /* \"#utility.yul\":7889:8362   */\n    tag_39:\n        /* \"#utility.yul\":8082:8086   */\n      0x00\n        /* \"#utility.yul\":8120:8122   */\n      0x20\n        /* \"#utility.yul\":8109:8118   */\n      dup3\n        /* \"#utility.yul\":8105:8123   */\n      add\n        /* \"#utility.yul\":8097:8123   */\n      swap1\n      pop\n        /* \"#utility.yul\":8169:8178   */\n      dup2\n        /* \"#utility.yul\":8163:8167   */\n      dup2\n        /* \"#utility.yul\":8159:8179   */\n      sub\n        /* \"#utility.yul\":8155:8156   */\n      0x00\n        /* \"#utility.yul\":8144:8153   */\n      dup4\n        /* \"#utility.yul\":8140:8157   */\n      add\n        /* \"#utility.yul\":8133:8180   */\n      mstore\n        /* \"#utility.yul\":8197:8355   */\n      tag_281\n        /* \"#utility.yul\":8350:8354   */\n      dup2\n        /* \"#utility.yul\":8341:8347   */\n      dup5\n        /* \"#utility.yul\":8197:8355   */\n      tag_181\n      jump\t// in\n    tag_281:\n        /* \"#utility.yul\":8189:8355   */\n      swap1\n      pop\n        /* \"#utility.yul\":7889:8362   */\n      swap3\n      swap2\n      pop\n      pop\n      jump\t// out\n        /* \"#utility.yul\":8368:8681   */\n    tag_43:\n        /* \"#utility.yul\":8481:8485   */\n      0x00\n        /* \"#utility.yul\":8519:8521   */\n      0x20\n        /* \"#utility.yul\":8508:8517   */\n      dup3\n        /* \"#utility.yul\":8504:8522   */\n      add\n        /* \"#utility.yul\":8496:8522   */\n      swap1\n      pop\n        /* \"#utility.yul\":8568:8577   */\n      dup2\n        /* \"#utility.yul\":8562:8566   */\n      dup2\n        /* \"#utility.yul\":8558:8578   */\n      sub\n        /* \"#utility.yul\":8554:8555   */\n      0x00\n        /* \"#utility.yul\":8543:8552   */\n      dup4\n        /* \"#utility.yul\":8539:8556   */\n      add\n        /* \"#utility.yul\":8532:8579   */\n      mstore\n        /* \"#utility.yul\":8596:8674   */\n      tag_283\n        /* \"#utility.yul\":8669:8673   */\n      dup2\n        /* \"#utility.yul\":8660:8666   */\n      dup5\n        /* \"#utility.yul\":8596:8674   */\n      tag_163\n      jump\t// in\n    tag_283:\n        /* \"#utility.yul\":8588:8674   */\n      swap1\n      pop\n        /* \"#utility.yul\":8368:8681   */\n      swap3\n      swap2\n      pop\n      pop\n      jump\t// out\n        /* \"#utility.yul\":8687:8773   */\n    tag_182:\n        /* \"#utility.yul\":8722:8729   */\n      0x00\n        /* \"#utility.yul\":8762:8766   */\n      0xff\n        /* \"#utility.yul\":8755:8760   */\n      dup3\n        /* \"#utility.yul\":8751:8767   */\n      and\n        /* \"#utility.yul\":8740:8767   */\n      swap1\n      pop\n        /* \"#utility.yul\":8687:8773   */\n      swap2\n      swap1\n      pop\n      jump\t// out\n        /* \"#utility.yul\":8779:8891   */\n    tag_183:\n        /* \"#utility.yul\":8862:8884   */\n      tag_286\n        /* \"#utility.yul\":8878:8883   */\n      dup2\n        /* \"#utility.yul\":8862:8884   */\n      tag_182\n      jump\t// in\n    tag_286:\n        /* \"#utility.yul\":8857:8860   */\n      dup3\n        /* \"#utility.yul\":8850:8885   */\n      mstore\n        /* \"#utility.yul\":8779:8891   */\n      pop\n      pop\n      jump\t// out\n        /* \"#utility.yul\":8897:9529   */\n    tag_54:\n        /* \"#utility.yul\":9086:9090   */\n      0x00\n        /* \"#utility.yul\":9124:9127   */\n      0xa0\n        /* \"#utility.yul\":9113:9122   */\n      dup3\n        /* \"#utility.yul\":9109:9128   */\n      add\n        /* \"#utility.yul\":9101:9128   */\n      swap1\n      pop\n        /* \"#utility.yul\":9138:9203   */\n      tag_288\n        /* \"#utility.yul\":9200:9201   */\n      0x00\n        /* \"#utility.yul\":9189:9198   */\n      dup4\n        /* \"#utility.yul\":9185:9202   */\n      add\n        /* \"#utility.yul\":9176:9182   */\n      dup9\n        /* \"#utility.yul\":9138:9203   */\n      tag_171\n      jump\t// in\n    tag_288:\n        /* \"#utility.yul\":9213:9279   */\n      tag_289\n        /* \"#utility.yul\":9275:9277   */\n      0x20\n        /* \"#utility.yul\":9264:9273   */\n      dup4\n        /* \"#utility.yul\":9260:9278   */\n      add\n        /* \"#utility.yul\":9251:9257   */\n      dup8\n        /* \"#utility.yul\":9213:9279   */\n      tag_171\n      jump\t// in\n    tag_289:\n        /* \"#utility.yul\":9289:9357   */\n      tag_290\n        /* \"#utility.yul\":9353:9355   */\n      0x40\n        /* \"#utility.yul\":9342:9351   */\n      dup4\n        /* \"#utility.yul\":9338:9356   */\n      add\n        /* \"#utility.yul\":9329:9335   */\n      dup7\n        /* \"#utility.yul\":9289:9357   */\n      tag_183\n      jump\t// in\n    tag_290:\n        /* \"#utility.yul\":9367:9439   */\n      tag_291\n        /* \"#utility.yul\":9435:9437   */\n      0x60\n        /* \"#utility.yul\":9424:9433   */\n      dup4\n        /* \"#utility.yul\":9420:9438   */\n      add\n        /* \"#utility.yul\":9411:9417   */\n      dup6\n        /* \"#utility.yul\":9367:9439   */\n      tag_164\n      jump\t// in\n    tag_291:\n        /* \"#utility.yul\":9449:9522   */\n      tag_292\n        /* \"#utility.yul\":9517:9520   */\n      0x80\n        /* \"#utility.yul\":9506:9515   */\n      dup4\n        /* \"#utility.yul\":9502:9521   */\n      add\n        /* \"#utility.yul\":9493:9499   */\n      dup5\n        /* \"#utility.yul\":9449:9522   */\n      tag_167\n      jump\t// in\n    tag_292:\n        /* \"#utility.yul\":8897:9529   */\n      swap7\n      swap6\n      pop\n      pop\n      pop\n      pop\n      pop\n      pop\n      jump\t// out\n        /* \"#utility.yul\":9535:9653   */\n    tag_184:\n        /* \"#utility.yul\":9606:9628   */\n      tag_294\n        /* \"#utility.yul\":9622:9627   */\n      dup2\n        /* \"#utility.yul\":9606:9628   */\n      tag_182\n      jump\t// in\n    tag_294:\n        /* \"#utility.yul\":9599:9604   */\n      dup2\n        /* \"#utility.yul\":9596:9629   */\n      eq\n        /* \"#utility.yul\":9586:9647   */\n      tag_295\n      jumpi\n        /* \"#utility.yul\":9643:9644   */\n      0x00\n        /* \"#utility.yul\":9640:9641   */\n      dup1\n        /* \"#utility.yul\":9633:9645   */\n      revert\n        /* \"#utility.yul\":9586:9647   */\n    tag_295:\n        /* \"#utility.yul\":9535:9653   */\n      pop\n      jump\t// out\n        /* \"#utility.yul\":9659:9794   */\n    tag_185:\n        /* \"#utility.yul\":9703:9708   */\n      0x00\n        /* \"#utility.yul\":9741:9747   */\n      dup2\n        /* \"#utility.yul\":9728:9748   */\n      calldataload\n        /* \"#utility.yul\":9719:9748   */\n      swap1\n      pop\n        /* \"#utility.yul\":9757:9788   */\n      tag_297\n        /* \"#utility.yul\":9782:9787   */\n      dup2\n        /* \"#utility.yul\":9757:9788   */\n      tag_184\n      jump\t// in\n    tag_297:\n        /* \"#utility.yul\":9659:9794   */\n      swap3\n      swap2\n      pop\n      pop\n      jump\t// out\n        /* \"#utility.yul\":9800:10125   */\n    tag_57:\n        /* \"#utility.yul\":9857:9863   */\n      0x00\n        /* \"#utility.yul\":9906:9908   */\n      0x20\n        /* \"#utility.yul\":9894:9903   */\n      dup3\n        /* \"#utility.yul\":9885:9892   */\n      dup5\n        /* \"#utility.yul\":9881:9904   */\n      sub\n        /* \"#utility.yul\":9877:9909   */\n      slt\n        /* \"#utility.yul\":9874:9993   */\n      iszero\n      tag_299\n      jumpi\n        /* \"#utility.yul\":9912:9991   */\n      tag_300\n      tag_154\n      jump\t// in\n    tag_300:\n        /* \"#utility.yul\":9874:9993   */\n    tag_299:\n        /* \"#utility.yul\":10032:10033   */\n      0x00\n        /* \"#utility.yul\":10057:10108   */\n      tag_301\n        /* \"#utility.yul\":10100:10107   */\n      dup5\n        /* \"#utility.yul\":10091:10097   */\n      dup3\n        /* \"#utility.yul\":10080:10089   */\n      dup6\n        /* \"#utility.yul\":10076:10098   */\n      add\n        /* \"#utility.yul\":10057:10108   */\n      tag_185\n      jump\t// in\n    tag_301:\n        /* \"#utility.yul\":10047:10108   */\n      swap2\n      pop\n        /* \"#utility.yul\":10003:10118   */\n      pop\n        /* \"#utility.yul\":9800:10125   */\n      swap3\n      swap2\n      pop\n      pop\n      jump\t// out\n        /* \"#utility.yul\":10131:10311   */\n    tag_186:\n        /* \"#utility.yul\":10179:10256   */\n      0x4e487b7100000000000000000000000000000000000000000000000000000000\n        /* \"#utility.yul\":10176:10177   */\n      0x00\n        /* \"#utility.yul\":10169:10257   */\n      mstore\n        /* \"#utility.yul\":10276:10280   */\n      0x22\n        /* \"#utility.yul\":10273:10274   */\n      0x04\n        /* \"#utility.yul\":10266:10281   */\n      mstore\n        /* \"#utility.yul\":10300:10304   */\n      0x24\n        /* \"#utility.yul\":10297:10298   */\n      0x00\n        /* \"#utility.yul\":10290:10305   */\n      revert\n        /* \"#utility.yul\":10317:10637   */\n    tag_68:\n        /* \"#utility.yul\":10361:10367   */\n      0x00\n        /* \"#utility.yul\":10398:10399   */\n      0x02\n        /* \"#utility.yul\":10392:10396   */\n      dup3\n        /* \"#utility.yul\":10388:10400   */\n      div\n        /* \"#utility.yul\":10378:10400   */\n      swap1\n      pop\n        /* \"#utility.yul\":10445:10446   */\n      0x01\n        /* \"#utility.yul\":10439:10443   */\n      dup3\n        /* \"#utility.yul\":10435:10447   */\n      and\n        /* \"#utility.yul\":10466:10484   */\n      dup1\n        /* \"#utility.yul\":10456:10537   */\n      tag_304\n      jumpi\n        /* \"#utility.yul\":10522:10526   */\n      0x7f\n        /* \"#utility.yul\":10514:10520   */\n      dup3\n        /* \"#utility.yul\":10510:10527   */\n      and\n        /* \"#utility.yul\":10500:10527   */\n      swap2\n      pop\n        /* \"#utility.yul\":10456:10537   */\n    tag_304:\n        /* \"#utility.yul\":10584:10586   */\n      0x20\n        /* \"#utility.yul\":10576:10582   */\n      dup3\n        /* \"#utility.yul\":10573:10587   */\n      lt\n        /* \"#utility.yul\":10553:10571   */\n      dup2\n        /* \"#utility.yul\":10550:10588   */\n      sub\n        /* \"#utility.yul\":10547:10631   */\n      tag_305\n      jumpi\n        /* \"#utility.yul\":10603:10621   */\n      tag_306\n      tag_186\n      jump\t// in\n    tag_306:\n        /* \"#utility.yul\":10547:10631   */\n    tag_305:\n        /* \"#utility.yul\":10368:10637   */\n      pop\n        /* \"#utility.yul\":10317:10637   */\n      swap2\n      swap1\n      pop\n      jump\t// out\n        /* \"#utility.yul\":10643:10814   */\n    tag_187:\n        /* \"#utility.yul\":10783:10806   */\n      0x446561646c696e652068617320657870697265642e0000000000000000000000\n        /* \"#utility.yul\":10779:10780   */\n      0x00\n        /* \"#utility.yul\":10771:10777   */\n      dup3\n        /* \"#utility.yul\":10767:10781   */\n      add\n        /* \"#utility.yul\":10760:10807   */\n      mstore\n        /* \"#utility.yul\":10643:10814   */\n      pop\n      jump\t// out\n        /* \"#utility.yul\":10820:11186   */\n    tag_188:\n        /* \"#utility.yul\":10962:10965   */\n      0x00\n        /* \"#utility.yul\":10983:11050   */\n      tag_309\n        /* \"#utility.yul\":11047:11049   */\n      0x15\n        /* \"#utility.yul\":11042:11045   */\n      dup4\n        /* \"#utility.yul\":10983:11050   */\n      tag_160\n      jump\t// in\n    tag_309:\n        /* \"#utility.yul\":10976:11050   */\n      swap2\n      pop\n        /* \"#utility.yul\":11059:11152   */\n      tag_310\n        /* \"#utility.yul\":11148:11151   */\n      dup3\n        /* \"#utility.yul\":11059:11152   */\n      tag_187\n      jump\t// in\n    tag_310:\n        /* \"#utility.yul\":11177:11179   */\n      0x20\n        /* \"#utility.yul\":11172:11175   */\n      dup3\n        /* \"#utility.yul\":11168:11180   */\n      add\n        /* \"#utility.yul\":11161:11180   */\n      swap1\n      pop\n        /* \"#utility.yul\":10820:11186   */\n      swap2\n      swap1\n      pop\n      jump\t// out\n        /* \"#utility.yul\":11192:11611   */\n    tag_93:\n        /* \"#utility.yul\":11358:11362   */\n      0x00\n        /* \"#utility.yul\":11396:11398   */\n      0x20\n        /* \"#utility.yul\":11385:11394   */\n      dup3\n        /* \"#utility.yul\":11381:11399   */\n      add\n        /* \"#utility.yul\":11373:11399   */\n      swap1\n      pop\n        /* \"#utility.yul\":11445:11454   */\n      dup2\n        /* \"#utility.yul\":11439:11443   */\n      dup2\n        /* \"#utility.yul\":11435:11455   */\n      sub\n        /* \"#utility.yul\":11431:11432   */\n      0x00\n        /* \"#utility.yul\":11420:11429   */\n      dup4\n        /* \"#utility.yul\":11416:11433   */\n      add\n        /* \"#utility.yul\":11409:11456   */\n      mstore\n        /* \"#utility.yul\":11473:11604   */\n      tag_312\n        /* \"#utility.yul\":11599:11603   */\n      dup2\n        /* \"#utility.yul\":11473:11604   */\n      tag_188\n      jump\t// in\n    tag_312:\n        /* \"#utility.yul\":11465:11604   */\n      swap1\n      pop\n        /* \"#utility.yul\":11192:11611   */\n      swap2\n      swap1\n      pop\n      jump\t// out\n        /* \"#utility.yul\":11617:11838   */\n    tag_189:\n        /* \"#utility.yul\":11757:11791   */\n      0x4f6e6c792063726561746f72206861732074686573652070726976696c656765\n        /* \"#utility.yul\":11753:11754   */\n      0x00\n        /* \"#utility.yul\":11745:11751   */\n      dup3\n        /* \"#utility.yul\":11741:11755   */\n      add\n        /* \"#utility.yul\":11734:11792   */\n      mstore\n        /* \"#utility.yul\":11826:11830   */\n      0x732e000000000000000000000000000000000000000000000000000000000000\n        /* \"#utility.yul\":11821:11823   */\n      0x20\n        /* \"#utility.yul\":11813:11819   */\n      dup3\n        /* \"#utility.yul\":11809:11824   */\n      add\n        /* \"#utility.yul\":11802:11831   */\n      mstore\n        /* \"#utility.yul\":11617:11838   */\n      pop\n      jump\t// out\n        /* \"#utility.yul\":11844:12210   */\n    tag_190:\n        /* \"#utility.yul\":11986:11989   */\n      0x00\n        /* \"#utility.yul\":12007:12074   */\n      tag_315\n        /* \"#utility.yul\":12071:12073   */\n      0x22\n        /* \"#utility.yul\":12066:12069   */\n      dup4\n        /* \"#utility.yul\":12007:12074   */\n      tag_160\n      jump\t// in\n    tag_315:\n        /* \"#utility.yul\":12000:12074   */\n      swap2\n      pop\n        /* \"#utility.yul\":12083:12176   */\n      tag_316\n        /* \"#utility.yul\":12172:12175   */\n      dup3\n        /* \"#utility.yul\":12083:12176   */\n      tag_189\n      jump\t// in\n    tag_316:\n        /* \"#utility.yul\":12201:12203   */\n      0x40\n        /* \"#utility.yul\":12196:12199   */\n      dup3\n        /* \"#utility.yul\":12192:12204   */\n      add\n        /* \"#utility.yul\":12185:12204   */\n      swap1\n      pop\n        /* \"#utility.yul\":11844:12210   */\n      swap2\n      swap1\n      pop\n      jump\t// out\n        /* \"#utility.yul\":12216:12635   */\n    tag_97:\n        /* \"#utility.yul\":12382:12386   */\n      0x00\n        /* \"#utility.yul\":12420:12422   */\n      0x20\n        /* \"#utility.yul\":12409:12418   */\n      dup3\n        /* \"#utility.yul\":12405:12423   */\n      add\n        /* \"#utility.yul\":12397:12423   */\n      swap1\n      pop\n        /* \"#utility.yul\":12469:12478   */\n      dup2\n        /* \"#utility.yul\":12463:12467   */\n      dup2\n        /* \"#utility.yul\":12459:12479   */\n      sub\n        /* \"#utility.yul\":12455:12456   */\n      0x00\n        /* \"#utility.yul\":12444:12453   */\n      dup4\n        /* \"#utility.yul\":12440:12457   */\n      add\n        /* \"#utility.yul\":12433:12480   */\n      mstore\n        /* \"#utility.yul\":12497:12628   */\n      tag_318\n        /* \"#utility.yul\":12623:12627   */\n      dup2\n        /* \"#utility.yul\":12497:12628   */\n      tag_190\n      jump\t// in\n    tag_318:\n        /* \"#utility.yul\":12489:12628   */\n      swap1\n      pop\n        /* \"#utility.yul\":12216:12635   */\n      swap2\n      swap1\n      pop\n      jump\t// out\n        /* \"#utility.yul\":12641:12823   */\n    tag_191:\n        /* \"#utility.yul\":12781:12815   */\n      0x566f7465722068617320616c726561647920726967687420746f20766f74652e\n        /* \"#utility.yul\":12777:12778   */\n      0x00\n        /* \"#utility.yul\":12769:12775   */\n      dup3\n        /* \"#utility.yul\":12765:12779   */\n      add\n        /* \"#utility.yul\":12758:12816   */\n      mstore\n        /* \"#utility.yul\":12641:12823   */\n      pop\n      jump\t// out\n        /* \"#utility.yul\":12829:13195   */\n    tag_192:\n        /* \"#utility.yul\":12971:12974   */\n      0x00\n        /* \"#utility.yul\":12992:13059   */\n      tag_321\n        /* \"#utility.yul\":13056:13058   */\n      0x20\n        /* \"#utility.yul\":13051:13054   */\n      dup4\n        /* \"#utility.yul\":12992:13059   */\n      tag_160\n      jump\t// in\n    tag_321:\n        /* \"#utility.yul\":12985:13059   */\n      swap2\n      pop\n        /* \"#utility.yul\":13068:13161   */\n      tag_322\n        /* \"#utility.yul\":13157:13160   */\n      dup3\n        /* \"#utility.yul\":13068:13161   */\n      tag_191\n      jump\t// in\n    tag_322:\n        /* \"#utility.yul\":13186:13188   */\n      0x20\n        /* \"#utility.yul\":13181:13184   */\n      dup3\n        /* \"#utility.yul\":13177:13189   */\n      add\n        /* \"#utility.yul\":13170:13189   */\n      swap1\n      pop\n        /* \"#utility.yul\":12829:13195   */\n      swap2\n      swap1\n      pop\n      jump\t// out\n        /* \"#utility.yul\":13201:13620   */\n    tag_101:\n        /* \"#utility.yul\":13367:13371   */\n      0x00\n        /* \"#utility.yul\":13405:13407   */\n      0x20\n        /* \"#utility.yul\":13394:13403   */\n      dup3\n        /* \"#utility.yul\":13390:13408   */\n      add\n        /* \"#utility.yul\":13382:13408   */\n      swap1\n      pop\n        /* \"#utility.yul\":13454:13463   */\n      dup2\n        /* \"#utility.yul\":13448:13452   */\n      dup2\n        /* \"#utility.yul\":13444:13464   */\n      sub\n        /* \"#utility.yul\":13440:13441   */\n      0x00\n        /* \"#utility.yul\":13429:13438   */\n      dup4\n        /* \"#utility.yul\":13425:13442   */\n      add\n        /* \"#utility.yul\":13418:13465   */\n      mstore\n        /* \"#utility.yul\":13482:13613   */\n      tag_324\n        /* \"#utility.yul\":13608:13612   */\n      dup2\n        /* \"#utility.yul\":13482:13613   */\n      tag_192\n      jump\t// in\n    tag_324:\n        /* \"#utility.yul\":13474:13613   */\n      swap1\n      pop\n        /* \"#utility.yul\":13201:13620   */\n      swap2\n      swap1\n      pop\n      jump\t// out\n        /* \"#utility.yul\":13626:13805   */\n    tag_193:\n        /* \"#utility.yul\":13766:13797   */\n      0x546869732070726f706f73616c20646f6573206e6f742065786973742e000000\n        /* \"#utility.yul\":13762:13763   */\n      0x00\n        /* \"#utility.yul\":13754:13760   */\n      dup3\n        /* \"#utility.yul\":13750:13764   */\n      add\n        /* \"#utility.yul\":13743:13798   */\n      mstore\n        /* \"#utility.yul\":13626:13805   */\n      pop\n      jump\t// out\n        /* \"#utility.yul\":13811:14177   */\n    tag_194:\n        /* \"#utility.yul\":13953:13956   */\n      0x00\n        /* \"#utility.yul\":13974:14041   */\n      tag_327\n        /* \"#utility.yul\":14038:14040   */\n      0x1d\n        /* \"#utility.yul\":14033:14036   */\n      dup4\n        /* \"#utility.yul\":13974:14041   */\n      tag_160\n      jump\t// in\n    tag_327:\n        /* \"#utility.yul\":13967:14041   */\n      swap2\n      pop\n        /* \"#utility.yul\":14050:14143   */\n      tag_328\n        /* \"#utility.yul\":14139:14142   */\n      dup3\n        /* \"#utility.yul\":14050:14143   */\n      tag_193\n      jump\t// in\n    tag_328:\n        /* \"#utility.yul\":14168:14170   */\n      0x20\n        /* \"#utility.yul\":14163:14166   */\n      dup3\n        /* \"#utility.yul\":14159:14171   */\n      add\n        /* \"#utility.yul\":14152:14171   */\n      swap1\n      pop\n        /* \"#utility.yul\":13811:14177   */\n      swap2\n      swap1\n      pop\n      jump\t// out\n        /* \"#utility.yul\":14183:14602   */\n    tag_110:\n        /* \"#utility.yul\":14349:14353   */\n      0x00\n        /* \"#utility.yul\":14387:14389   */\n      0x20\n        /* \"#utility.yul\":14376:14385   */\n      dup3\n        /* \"#utility.yul\":14372:14390   */\n      add\n        /* \"#utility.yul\":14364:14390   */\n      swap1\n      pop\n        /* \"#utility.yul\":14436:14445   */\n      dup2\n        /* \"#utility.yul\":14430:14434   */\n      dup2\n        /* \"#utility.yul\":14426:14446   */\n      sub\n        /* \"#utility.yul\":14422:14423   */\n      0x00\n        /* \"#utility.yul\":14411:14420   */\n      dup4\n        /* \"#utility.yul\":14407:14424   */\n      add\n        /* \"#utility.yul\":14400:14447   */\n      mstore\n        /* \"#utility.yul\":14464:14595   */\n      tag_330\n        /* \"#utility.yul\":14590:14594   */\n      dup2\n        /* \"#utility.yul\":14464:14595   */\n      tag_194\n      jump\t// in\n    tag_330:\n        /* \"#utility.yul\":14456:14595   */\n      swap1\n      pop\n        /* \"#utility.yul\":14183:14602   */\n      swap2\n      swap1\n      pop\n      jump\t// out\n        /* \"#utility.yul\":14608:14779   */\n    tag_195:\n        /* \"#utility.yul\":14748:14771   */\n      0x486173206e6f20726967687420746f20766f74652e0000000000000000000000\n        /* \"#utility.yul\":14744:14745   */\n      0x00\n        /* \"#utility.yul\":14736:14742   */\n      dup3\n        /* \"#utility.yul\":14732:14746   */\n      add\n        /* \"#utility.yul\":14725:14772   */\n      mstore\n        /* \"#utility.yul\":14608:14779   */\n      pop\n      jump\t// out\n        /* \"#utility.yul\":14785:15151   */\n    tag_196:\n        /* \"#utility.yul\":14927:14930   */\n      0x00\n        /* \"#utility.yul\":14948:15015   */\n      tag_333\n        /* \"#utility.yul\":15012:15014   */\n      0x15\n        /* \"#utility.yul\":15007:15010   */\n      dup4\n        /* \"#utility.yul\":14948:15015   */\n      tag_160\n      jump\t// in\n    tag_333:\n        /* \"#utility.yul\":14941:15015   */\n      swap2\n      pop\n        /* \"#utility.yul\":15024:15117   */\n      tag_334\n        /* \"#utility.yul\":15113:15116   */\n      dup3\n        /* \"#utility.yul\":15024:15117   */\n      tag_195\n      jump\t// in\n    tag_334:\n        /* \"#utility.yul\":15142:15144   */\n      0x20\n        /* \"#utility.yul\":15137:15140   */\n      dup3\n        /* \"#utility.yul\":15133:15145   */\n      add\n        /* \"#utility.yul\":15126:15145   */\n      swap1\n      pop\n        /* \"#utility.yul\":14785:15151   */\n      swap2\n      swap1\n      pop\n      jump\t// out\n        /* \"#utility.yul\":15157:15576   */\n    tag_114:\n        /* \"#utility.yul\":15323:15327   */\n      0x00\n        /* \"#utility.yul\":15361:15363   */\n      0x20\n        /* \"#utility.yul\":15350:15359   */\n      dup3\n        /* \"#utility.yul\":15346:15364   */\n      add\n        /* \"#utility.yul\":15338:15364   */\n      swap1\n      pop\n        /* \"#utility.yul\":15410:15419   */\n      dup2\n        /* \"#utility.yul\":15404:15408   */\n      dup2\n        /* \"#utility.yul\":15400:15420   */\n      sub\n        /* \"#utility.yul\":15396:15397   */\n      0x00\n        /* \"#utility.yul\":15385:15394   */\n      dup4\n        /* \"#utility.yul\":15381:15398   */\n      add\n        /* \"#utility.yul\":15374:15421   */\n      mstore\n        /* \"#utility.yul\":15438:15569   */\n      tag_336\n        /* \"#utility.yul\":15564:15568   */\n      dup2\n        /* \"#utility.yul\":15438:15569   */\n      tag_196\n      jump\t// in\n    tag_336:\n        /* \"#utility.yul\":15430:15569   */\n      swap1\n      pop\n        /* \"#utility.yul\":15157:15576   */\n      swap2\n      swap1\n      pop\n      jump\t// out\n        /* \"#utility.yul\":15582:15746   */\n    tag_197:\n        /* \"#utility.yul\":15722:15738   */\n      0x416c726561647920766f7465642e000000000000000000000000000000000000\n        /* \"#utility.yul\":15718:15719   */\n      0x00\n        /* \"#utility.yul\":15710:15716   */\n      dup3\n        /* \"#utility.yul\":15706:15720   */\n      add\n        /* \"#utility.yul\":15699:15739   */\n      mstore\n        /* \"#utility.yul\":15582:15746   */\n      pop\n      jump\t// out\n        /* \"#utility.yul\":15752:16118   */\n    tag_198:\n        /* \"#utility.yul\":15894:15897   */\n      0x00\n        /* \"#utility.yul\":15915:15982   */\n      tag_339\n        /* \"#utility.yul\":15979:15981   */\n      0x0e\n        /* \"#utility.yul\":15974:15977   */\n      dup4\n        /* \"#utility.yul\":15915:15982   */\n      tag_160\n      jump\t// in\n    tag_339:\n        /* \"#utility.yul\":15908:15982   */\n      swap2\n      pop\n        /* \"#utility.yul\":15991:16084   */\n      tag_340\n        /* \"#utility.yul\":16080:16083   */\n      dup3\n        /* \"#utility.yul\":15991:16084   */\n      tag_197\n      jump\t// in\n    tag_340:\n        /* \"#utility.yul\":16109:16111   */\n      0x20\n        /* \"#utility.yul\":16104:16107   */\n      dup3\n        /* \"#utility.yul\":16100:16112   */\n      add\n        /* \"#utility.yul\":16093:16112   */\n      swap1\n      pop\n        /* \"#utility.yul\":15752:16118   */\n      swap2\n      swap1\n      pop\n      jump\t// out\n        /* \"#utility.yul\":16124:16543   */\n    tag_117:\n        /* \"#utility.yul\":16290:16294   */\n      0x00\n        /* \"#utility.yul\":16328:16330   */\n      0x20\n        /* \"#utility.yul\":16317:16326   */\n      dup3\n        /* \"#utility.yul\":16313:16331   */\n      add\n        /* \"#utility.yul\":16305:16331   */\n      swap1\n      pop\n        /* \"#utility.yul\":16377:16386   */\n      dup2\n        /* \"#utility.yul\":16371:16375   */\n      dup2\n        /* \"#utility.yul\":16367:16387   */\n      sub\n        /* \"#utility.yul\":16363:16364   */\n      0x00\n        /* \"#utility.yul\":16352:16361   */\n      dup4\n        /* \"#utility.yul\":16348:16365   */\n      add\n        /* \"#utility.yul\":16341:16388   */\n      mstore\n        /* \"#utility.yul\":16405:16536   */\n      tag_342\n        /* \"#utility.yul\":16531:16535   */\n      dup2\n        /* \"#utility.yul\":16405:16536   */\n      tag_198\n      jump\t// in\n    tag_342:\n        /* \"#utility.yul\":16397:16536   */\n      swap1\n      pop\n        /* \"#utility.yul\":16124:16543   */\n      swap2\n      swap1\n      pop\n      jump\t// out\n        /* \"#utility.yul\":16549:16729   */\n    tag_120:\n        /* \"#utility.yul\":16597:16674   */\n      0x4e487b7100000000000000000000000000000000000000000000000000000000\n        /* \"#utility.yul\":16594:16595   */\n      0x00\n        /* \"#utility.yul\":16587:16675   */\n      mstore\n        /* \"#utility.yul\":16694:16698   */\n      0x32\n        /* \"#utility.yul\":16691:16692   */\n      0x04\n        /* \"#utility.yul\":16684:16699   */\n      mstore\n        /* \"#utility.yul\":16718:16722   */\n      0x24\n        /* \"#utility.yul\":16715:16716   */\n      0x00\n        /* \"#utility.yul\":16708:16723   */\n      revert\n        /* \"#utility.yul\":16735:16915   */\n    tag_199:\n        /* \"#utility.yul\":16783:16860   */\n      0x4e487b7100000000000000000000000000000000000000000000000000000000\n        /* \"#utility.yul\":16780:16781   */\n      0x00\n        /* \"#utility.yul\":16773:16861   */\n      mstore\n        /* \"#utility.yul\":16880:16884   */\n      0x11\n        /* \"#utility.yul\":16877:16878   */\n      0x04\n        /* \"#utility.yul\":16870:16885   */\n      mstore\n        /* \"#utility.yul\":16904:16908   */\n      0x24\n        /* \"#utility.yul\":16901:16902   */\n      0x00\n        /* \"#utility.yul\":16894:16909   */\n      revert\n        /* \"#utility.yul\":16921:17154   */\n    tag_123:\n        /* \"#utility.yul\":16960:16963   */\n      0x00\n        /* \"#utility.yul\":16983:17007   */\n      tag_346\n        /* \"#utility.yul\":17001:17006   */\n      dup3\n        /* \"#utility.yul\":16983:17007   */\n      tag_156\n      jump\t// in\n    tag_346:\n        /* \"#utility.yul\":16974:17007   */\n      swap2\n      pop\n        /* \"#utility.yul\":17029:17095   */\n      0xffffffffffffffffffffffffffffffffffffffffffffffffffffffffffffffff\n        /* \"#utility.yul\":17022:17027   */\n      dup3\n        /* \"#utility.yul\":17019:17096   */\n      sub\n        /* \"#utility.yul\":17016:17119   */\n      tag_347\n      jumpi\n        /* \"#utility.yul\":17099:17117   */\n      tag_348\n      tag_199\n      jump\t// in\n    tag_348:\n        /* \"#utility.yul\":17016:17119   */\n    tag_347:\n        /* \"#utility.yul\":17146:17147   */\n      0x01\n        /* \"#utility.yul\":17139:17144   */\n      dup3\n        /* \"#utility.yul\":17135:17148   */\n      add\n        /* \"#utility.yul\":17128:17148   */\n      swap1\n      pop\n        /* \"#utility.yul\":16921:17154   */\n      swap2\n      swap1\n      pop\n      jump\t// out\n        /* \"#utility.yul\":17160:17327   */\n    tag_152:\n        /* \"#utility.yul\":17197:17200   */\n      0x00\n        /* \"#utility.yul\":17220:17242   */\n      tag_350\n        /* \"#utility.yul\":17236:17241   */\n      dup3\n        /* \"#utility.yul\":17220:17242   */\n      tag_182\n      jump\t// in\n    tag_350:\n        /* \"#utility.yul\":17211:17242   */\n      swap2\n      pop\n        /* \"#utility.yul\":17264:17268   */\n      0xff\n        /* \"#utility.yul\":17257:17262   */\n      dup3\n        /* \"#utility.yul\":17254:17269   */\n      sub\n        /* \"#utility.yul\":17251:17292   */\n      tag_351\n      jumpi\n        /* \"#utility.yul\":17272:17290   */\n      tag_352\n      tag_199\n      jump\t// in\n    tag_352:\n        /* \"#utility.yul\":17251:17292   */\n    tag_351:\n        /* \"#utility.yul\":17319:17320   */\n      0x01\n        /* \"#utility.yul\":17312:17317   */\n      dup3\n        /* \"#utility.yul\":17308:17321   */\n      add\n        /* \"#utility.yul\":17301:17321   */\n      swap1\n      pop\n        /* \"#utility.yul\":17160:17327   */\n      swap2\n      swap1\n      pop\n      jump\t// out\n\n    auxdata: 0xa2646970667358221220809d5ba7a241627ed7437888e9d35cace5f6dcb63e27cbb444232867d651e66e64736f6c63430008140033\n}\n","bytecode":{"linkReferences":{},"object":"608060405234801562000010575f80fd5b5060405162001d6138038062001d618339818101604052810190620000369190620004d6565b848484848484805f806101000a81548173ffffffffffffffffffffffffffffffffffffffff021916908373ffffffffffffffffffffffffffffffffffffffff1602179055505083600190816200008d9190620007e5565b5082600290816200009f9190620007e5565b508042620000ae9190620008f6565b6003819055505f5b82518160ff161015620001585760046040518060400160405280858460ff1681518110620000e957620000e862000930565b5b602002602001015181526020015f815250908060018154018082558091505060019003905f5260205f2090600202015f909190919091505f820151815f019081620001359190620007e5565b5060208201518160010155505080806200014f9062000969565b915050620000b6565b505050505050600160055f8773ffffffffffffffffffffffffffffffffffffffff1673ffffffffffffffffffffffffffffffffffffffff1681526020019081526020015f205f015f6101000a81548160ff021916908315150217905550505050505062000996565b5f604051905090565b5f80fd5b5f80fd5b5f73ffffffffffffffffffffffffffffffffffffffff82169050919050565b5f620001fc82620001d1565b9050919050565b6200020e81620001f0565b811462000219575f80fd5b50565b5f815190506200022c8162000203565b92915050565b5f80fd5b5f80fd5b5f601f19601f8301169050919050565b7f4e487b71000000000000000000000000000000000000000000000000000000005f52604160045260245ffd5b62000282826200023a565b810181811067ffffffffffffffff82111715620002a457620002a36200024a565b5b80604052505050565b5f620002b8620001c0565b9050620002c6828262000277565b919050565b5f67ffffffffffffffff821115620002e857620002e76200024a565b5b620002f3826200023a565b9050602081019050919050565b5f5b838110156200031f57808201518184015260208101905062000302565b5f8484015250505050565b5f620003406200033a84620002cb565b620002ad565b9050828152602081018484840111156200035f576200035e62000236565b5b6200036c84828562000300565b509392505050565b5f82601f8301126200038b576200038a62000232565b5b81516200039d8482602086016200032a565b91505092915050565b5f67ffffffffffffffff821115620003c357620003c26200024a565b5b602082029050602081019050919050565b5f80fd5b5f620003ee620003e884620003a6565b620002ad565b90508083825260208201905060208402830185811115620004145762000413620003d4565b5b835b818110156200046257805167ffffffffffffffff8111156200043d576200043c62000232565b5b8086016200044c898262000374565b8552602085019450505060208101905062000416565b5050509392505050565b5f82601f83011262000483576200048262000232565b5b815162000495848260208601620003d8565b91505092915050565b5f819050919050565b620004b2816200049e565b8114620004bd575f80fd5b50565b5f81519050620004d081620004a7565b92915050565b5f805f805f60a08688031215620004f257620004f1620001c9565b5b5f62000501888289016200021c565b955050602086015167ffffffffffffffff811115620005255762000524620001cd565b5b620005338882890162000374565b945050604086015167ffffffffffffffff811115620005575762000556620001cd565b5b620005658882890162000374565b935050606086015167ffffffffffffffff811115620005895762000588620001cd565b5b62000597888289016200046c565b9250506080620005aa88828901620004c0565b9150509295509295909350565b5f81519050919050565b7f4e487b71000000000000000000000000000000000000000000000000000000005f52602260045260245ffd5b5f60028204905060018216806200060657607f821691505b6020821081036200061c576200061b620005c1565b5b50919050565b5f819050815f5260205f209050919050565b5f6020601f8301049050919050565b5f82821b905092915050565b5f60088302620006807fffffffffffffffffffffffffffffffffffffffffffffffffffffffffffffffff8262000643565b6200068c868362000643565b95508019841693508086168417925050509392505050565b5f819050919050565b5f620006cd620006c7620006c1846200049e565b620006a4565b6200049e565b9050919050565b5f819050919050565b620006e883620006ad565b62000700620006f782620006d4565b8484546200064f565b825550505050565b5f90565b6200071662000708565b62000723818484620006dd565b505050565b5b818110156200074a576200073e5f826200070c565b60018101905062000729565b5050565b601f8211156200079957620007638162000622565b6200076e8462000634565b810160208510156200077e578190505b620007966200078d8562000634565b83018262000728565b50505b505050565b5f82821c905092915050565b5f620007bb5f19846008026200079e565b1980831691505092915050565b5f620007d58383620007aa565b9150826002028217905092915050565b620007f082620005b7565b67ffffffffffffffff8111156200080c576200080b6200024a565b5b620008188254620005ee565b620008258282856200074e565b5f60209050601f8311600181146200085b575f841562000846578287015190505b620008528582620007c8565b865550620008c1565b601f1984166200086b8662000622565b5f5b8281101562000894578489015182556001820191506020850194506020810190506200086d565b86831015620008b45784890151620008b0601f891682620007aa565b8355505b6001600288020188555050505b505050505050565b7f4e487b71000000000000000000000000000000000000000000000000000000005f52601160045260245ffd5b5f62000902826200049e565b91506200090f836200049e565b92508282019050808211156200092a5762000929620008c9565b5b92915050565b7f4e487b71000000000000000000000000000000000000000000000000000000005f52603260045260245ffd5b5f60ff82169050919050565b5f62000975826200095d565b915060ff82036200098b576200098a620008c9565b5b600182019050919050565b6113bd80620009a45f395ff3fe608060405234801561000f575f80fd5b50600436106100b2575f3560e01c80639145a7fc1161006f5780639145a7fc1461018f5780639e7b8d61146101ad578063a3ec138d146101c9578063b3f98adc146101fd578063bf63a57714610219578063e2ba53f014610237576100b2565b8063013cf08b146100b657806302d05d3f146100e757806309eef43e1461010557806329dcb0cf146101355780634717f97c146101535780637284e41614610171575b5f80fd5b6100d060048036038101906100cb9190610b93565b610255565b6040516100de929190610c57565b60405180910390f35b6100ef61030a565b6040516100fc9190610cc4565b60405180910390f35b61011f600480360381019061011a9190610d07565b61032d565b60405161012c9190610d4c565b60405180910390f35b61013d610382565b60405161014a9190610d65565b60405180910390f35b61015b610388565b6040516101689190610eca565b60405180910390f35b61017961047d565b6040516101869190610eea565b60405180910390f35b610197610509565b6040516101a49190610d4c565b60405180910390f35b6101c760048036038101906101c29190610d07565b610514565b005b6101e360048036038101906101de9190610d07565b61072c565b6040516101f4959493929190610f25565b60405180910390f35b61021760048036038101906102129190610fa0565b6107a1565b005b61022161098c565b60405161022e9190610eea565b60405180910390f35b61023f610a18565b60405161024c9190610eea565b60405180910390f35b60048181548110610264575f80fd5b905f5260205f2090600202015f91509050805f01805461028390610ff8565b80601f01602080910402602001604051908101604052809291908181526020018280546102af90610ff8565b80156102fa5780601f106102d1576101008083540402835291602001916102fa565b820191905f5260205f20905b8154815290600101906020018083116102dd57829003601f168201915b5050505050908060010154905082565b5f8054906101000a900473ffffffffffffffffffffffffffffffffffffffff1681565b5f60055f8373ffffffffffffffffffffffffffffffffffffffff1673ffffffffffffffffffffffffffffffffffffffff1681526020019081526020015f205f0160019054906101000a900460ff169050919050565b60035481565b60606004805480602002602001604051908101604052809291908181526020015f905b82821015610474578382905f5260205f2090600202016040518060400160405290815f820180546103db90610ff8565b80601f016020809104026020016040519081016040528092919081815260200182805461040790610ff8565b80156104525780601f1061042957610100808354040283529160200191610452565b820191905f5260205f20905b81548152906001019060200180831161043557829003601f168201915b50505050508152602001600182015481525050815260200190600101906103ab565b50505050905090565b6002805461048a90610ff8565b80601f01602080910402602001604051908101604052809291908181526020018280546104b690610ff8565b80156105015780601f106104d857610100808354040283529160200191610501565b820191905f5260205f20905b8154815290600101906020018083116104e457829003601f168201915b505050505081565b5f6003544211905090565b61051c610509565b1561055c576040517f08c379a000000000000000000000000000000000000000000000000000000000815260040161055390611072565b60405180910390fd5b5f8054906101000a900473ffffffffffffffffffffffffffffffffffffffff1673ffffffffffffffffffffffffffffffffffffffff163373ffffffffffffffffffffffffffffffffffffffff16146105e9576040517f08c379a00000000000000000000000000000000000000000000000000000000081526004016105e090611100565b60405180910390fd5b8060055f8273ffffffffffffffffffffffffffffffffffffffff1673ffffffffffffffffffffffffffffffffffffffff1681526020019081526020015f205f015f9054906101000a900460ff1615610676576040517f08c379a000000000000000000000000000000000000000000000000000000000815260040161066d90611168565b60405180910390fd5b600160055f8473ffffffffffffffffffffffffffffffffffffffff1673ffffffffffffffffffffffffffffffffffffffff1681526020019081526020015f205f015f6101000a81548160ff0219169083151502179055508173ffffffffffffffffffffffffffffffffffffffff163373ffffffffffffffffffffffffffffffffffffffff16427fa4bbd98d03300dc9c6991b0f3c356eb7c69c95fc7352dcbc5cb2e949904506b260405160405180910390a45050565b6005602052805f5260405f205f91509050805f015f9054906101000a900460ff1690805f0160019054906101000a900460ff1690805f0160029054906101000a900460ff1690806001015490806002015f9054906101000a900473ffffffffffffffffffffffffffffffffffffffff16905085565b6107a9610509565b156107e9576040517f08c379a00000000000000000000000000000000000000000000000000000000081526004016107e090611072565b60405180910390fd5b806004805490508160ff1610610834576040517f08c379a000000000000000000000000000000000000000000000000000000000815260040161082b906111d0565b60405180910390fd5b5f60055f3373ffffffffffffffffffffffffffffffffffffffff1673ffffffffffffffffffffffffffffffffffffffff1681526020019081526020015f209050805f015f9054906101000a900460ff166108c3576040517f08c379a00000000000000000000000000000000000000000000000000000000081526004016108ba90611238565b60405180910390fd5b805f0160019054906101000a900460ff1615610914576040517f08c379a000000000000000000000000000000000000000000000000000000000815260040161090b906112a0565b60405180910390fd5b6001815f0160016101000a81548160ff02191690831515021790555082815f0160026101000a81548160ff021916908360ff16021790555060048360ff1681548110610963576109626112be565b5b905f5260205f2090600202016001015f81548092919061098290611318565b9190505550505050565b6001805461099990610ff8565b80601f01602080910402602001604051908101604052809291908181526020018280546109c590610ff8565b8015610a105780601f106109e757610100808354040283529160200191610a10565b820191905f5260205f20905b8154815290600101906020018083116109f357829003601f168201915b505050505081565b60606004610a24610ad2565b60ff1681548110610a3857610a376112be565b5b905f5260205f2090600202015f018054610a5190610ff8565b80601f0160208091040260200160405190810160405280929190818152602001828054610a7d90610ff8565b8015610ac85780601f10610a9f57610100808354040283529160200191610ac8565b820191905f5260205f20905b815481529060010190602001808311610aab57829003601f168201915b5050505050905090565b5f805f90505f5b6004805490508160ff161015610b57578160048260ff1681548110610b0157610b006112be565b5b905f5260205f209060020201600101541115610b445760048160ff1681548110610b2e57610b2d6112be565b5b905f5260205f2090600202016001015491508092505b8080610b4f9061135f565b915050610ad9565b505090565b5f80fd5b5f819050919050565b610b7281610b60565b8114610b7c575f80fd5b50565b5f81359050610b8d81610b69565b92915050565b5f60208284031215610ba857610ba7610b5c565b5b5f610bb584828501610b7f565b91505092915050565b5f81519050919050565b5f82825260208201905092915050565b5f5b83811015610bf5578082015181840152602081019050610bda565b5f8484015250505050565b5f601f19601f8301169050919050565b5f610c1a82610bbe565b610c248185610bc8565b9350610c34818560208601610bd8565b610c3d81610c00565b840191505092915050565b610c5181610b60565b82525050565b5f6040820190508181035f830152610c6f8185610c10565b9050610c7e6020830184610c48565b9392505050565b5f73ffffffffffffffffffffffffffffffffffffffff82169050919050565b5f610cae82610c85565b9050919050565b610cbe81610ca4565b82525050565b5f602082019050610cd75f830184610cb5565b92915050565b610ce681610ca4565b8114610cf0575f80fd5b50565b5f81359050610d0181610cdd565b92915050565b5f60208284031215610d1c57610d1b610b5c565b5b5f610d2984828501610cf3565b91505092915050565b5f8115159050919050565b610d4681610d32565b82525050565b5f602082019050610d5f5f830184610d3d565b92915050565b5f602082019050610d785f830184610c48565b92915050565b5f81519050919050565b5f82825260208201905092915050565b5f819050602082019050919050565b5f82825260208201905092915050565b5f610dc182610bbe565b610dcb8185610da7565b9350610ddb818560208601610bd8565b610de481610c00565b840191505092915050565b610df881610b60565b82525050565b5f604083015f8301518482035f860152610e188282610db7565b9150506020830151610e2d6020860182610def565b508091505092915050565b5f610e438383610dfe565b905092915050565b5f602082019050919050565b5f610e6182610d7e565b610e6b8185610d88565b935083602082028501610e7d85610d98565b805f5b85811015610eb85784840389528151610e998582610e38565b9450610ea483610e4b565b925060208a01995050600181019050610e80565b50829750879550505050505092915050565b5f6020820190508181035f830152610ee28184610e57565b905092915050565b5f6020820190508181035f830152610f028184610c10565b905092915050565b5f60ff82169050919050565b610f1f81610f0a565b82525050565b5f60a082019050610f385f830188610d3d565b610f456020830187610d3d565b610f526040830186610f16565b610f5f6060830185610c48565b610f6c6080830184610cb5565b9695505050505050565b610f7f81610f0a565b8114610f89575f80fd5b50565b5f81359050610f9a81610f76565b92915050565b5f60208284031215610fb557610fb4610b5c565b5b5f610fc284828501610f8c565b91505092915050565b7f4e487b71000000000000000000000000000000000000000000000000000000005f52602260045260245ffd5b5f600282049050600182168061100f57607f821691505b60208210810361102257611021610fcb565b5b50919050565b7f446561646c696e652068617320657870697265642e00000000000000000000005f82015250565b5f61105c601583610bc8565b915061106782611028565b602082019050919050565b5f6020820190508181035f83015261108981611050565b9050919050565b7f4f6e6c792063726561746f72206861732074686573652070726976696c6567655f8201527f732e000000000000000000000000000000000000000000000000000000000000602082015250565b5f6110ea602283610bc8565b91506110f582611090565b604082019050919050565b5f6020820190508181035f830152611117816110de565b9050919050565b7f566f7465722068617320616c726561647920726967687420746f20766f74652e5f82015250565b5f611152602083610bc8565b915061115d8261111e565b602082019050919050565b5f6020820190508181035f83015261117f81611146565b9050919050565b7f546869732070726f706f73616c20646f6573206e6f742065786973742e0000005f82015250565b5f6111ba601d83610bc8565b91506111c582611186565b602082019050919050565b5f6020820190508181035f8301526111e7816111ae565b9050919050565b7f486173206e6f20726967687420746f20766f74652e00000000000000000000005f82015250565b5f611222601583610bc8565b915061122d826111ee565b602082019050919050565b5f6020820190508181035f83015261124f81611216565b9050919050565b7f416c726561647920766f7465642e0000000000000000000000000000000000005f82015250565b5f61128a600e83610bc8565b915061129582611256565b602082019050919050565b5f6020820190508181035f8301526112b78161127e565b9050919050565b7f4e487b71000000000000000000000000000000000000000000000000000000005f52603260045260245ffd5b7f4e487b71000000000000000000000000000000000000000000000000000000005f52601160045260245ffd5b5f61132282610b60565b91507fffffffffffffffffffffffffffffffffffffffffffffffffffffffffffffffff8203611354576113536112eb565b5b600182019050919050565b5f61136982610f0a565b915060ff820361137c5761137b6112eb565b5b60018201905091905056fea2646970667358221220809d5ba7a241627ed7437888e9d35cace5f6dcb63e27cbb444232867d651e66e64736f6c63430008140033","opcodes":"PUSH1 0x80 PUSH1 0x40 MSTORE CALLVALUE DUP1 ISZERO PUSH3 0x10 JUMPI PUSH0 DUP1 REVERT JUMPDEST POP PUSH1 0x40 MLOAD PUSH3 0x1D61 CODESIZE SUB DUP1 PUSH3 0x1D61 DUP4 CODECOPY DUP2 DUP2 ADD PUSH1 0x40 MSTORE DUP2 ADD SWAP1 PUSH3 0x36 SWAP2 SWAP1 PUSH3 0x4D6 JUMP JUMPDEST DUP5 DUP5 DUP5 DUP5 DUP5 DUP5 DUP1 PUSH0 DUP1 PUSH2 0x100 EXP DUP2 SLOAD DUP2 PUSH20 0xFFFFFFFFFFFFFFFFFFFFFFFFFFFFFFFFFFFFFFFF MUL NOT AND SWAP1 DUP4 PUSH20 0xFFFFFFFFFFFFFFFFFFFFFFFFFFFFFFFFFFFFFFFF AND MUL OR SWAP1 SSTORE POP POP DUP4 PUSH1 0x1 SWAP1 DUP2 PUSH3 0x8D SWAP2 SWAP1 PUSH3 0x7E5 JUMP JUMPDEST POP DUP3 PUSH1 0x2 SWAP1 DUP2 PUSH3 0x9F SWAP2 SWAP1 PUSH3 0x7E5 JUMP JUMPDEST POP DUP1 TIMESTAMP PUSH3 0xAE SWAP2 SWAP1 PUSH3 0x8F6 JUMP JUMPDEST PUSH1 0x3 DUP2 SWAP1 SSTORE POP PUSH0 JUMPDEST DUP3 MLOAD DUP2 PUSH1 0xFF AND LT ISZERO PUSH3 0x158 JUMPI PUSH1 0x4 PUSH1 0x40 MLOAD DUP1 PUSH1 0x40 ADD PUSH1 0x40 MSTORE DUP1 DUP6 DUP5 PUSH1 0xFF AND DUP2 MLOAD DUP2 LT PUSH3 0xE9 JUMPI PUSH3 0xE8 PUSH3 0x930 JUMP JUMPDEST JUMPDEST PUSH1 0x20 MUL PUSH1 0x20 ADD ADD MLOAD DUP2 MSTORE PUSH1 0x20 ADD PUSH0 DUP2 MSTORE POP SWAP1 DUP1 PUSH1 0x1 DUP2 SLOAD ADD DUP1 DUP3 SSTORE DUP1 SWAP2 POP POP PUSH1 0x1 SWAP1 SUB SWAP1 PUSH0 MSTORE PUSH1 0x20 PUSH0 KECCAK256 SWAP1 PUSH1 0x2 MUL ADD PUSH0 SWAP1 SWAP2 SWAP1 SWAP2 SWAP1 SWAP2 POP PUSH0 DUP3 ADD MLOAD DUP2 PUSH0 ADD SWAP1 DUP2 PUSH3 0x135 SWAP2 SWAP1 PUSH3 0x7E5 JUMP JUMPDEST POP PUSH1 0x20 DUP3 ADD MLOAD DUP2 PUSH1 0x1 ADD SSTORE POP POP DUP1 DUP1 PUSH3 0x14F SWAP1 PUSH3 0x969 JUMP JUMPDEST SWAP2 POP POP PUSH3 0xB6 JUMP JUMPDEST POP POP POP POP POP POP PUSH1 0x1 PUSH1 0x5 PUSH0 DUP8 PUSH20 0xFFFFFFFFFFFFFFFFFFFFFFFFFFFFFFFFFFFFFFFF AND PUSH20 0xFFFFFFFFFFFFFFFFFFFFFFFFFFFFFFFFFFFFFFFF AND DUP2 MSTORE PUSH1 0x20 ADD SWAP1 DUP2 MSTORE PUSH1 0x20 ADD PUSH0 KECCAK256 PUSH0 ADD PUSH0 PUSH2 0x100 EXP DUP2 SLOAD DUP2 PUSH1 0xFF MUL NOT AND SWAP1 DUP4 ISZERO ISZERO MUL OR SWAP1 SSTORE POP POP POP POP POP POP PUSH3 0x996 JUMP JUMPDEST PUSH0 PUSH1 0x40 MLOAD SWAP1 POP SWAP1 JUMP JUMPDEST PUSH0 DUP1 REVERT JUMPDEST PUSH0 DUP1 REVERT JUMPDEST PUSH0 PUSH20 0xFFFFFFFFFFFFFFFFFFFFFFFFFFFFFFFFFFFFFFFF DUP3 AND SWAP1 POP SWAP2 SWAP1 POP JUMP JUMPDEST PUSH0 PUSH3 0x1FC DUP3 PUSH3 0x1D1 JUMP JUMPDEST SWAP1 POP SWAP2 SWAP1 POP JUMP JUMPDEST PUSH3 0x20E DUP2 PUSH3 0x1F0 JUMP JUMPDEST DUP2 EQ PUSH3 0x219 JUMPI PUSH0 DUP1 REVERT JUMPDEST POP JUMP JUMPDEST PUSH0 DUP2 MLOAD SWAP1 POP PUSH3 0x22C DUP2 PUSH3 0x203 JUMP JUMPDEST SWAP3 SWAP2 POP POP JUMP JUMPDEST PUSH0 DUP1 REVERT JUMPDEST PUSH0 DUP1 REVERT JUMPDEST PUSH0 PUSH1 0x1F NOT PUSH1 0x1F DUP4 ADD AND SWAP1 POP SWAP2 SWAP1 POP JUMP JUMPDEST PUSH32 0x4E487B7100000000000000000000000000000000000000000000000000000000 PUSH0 MSTORE PUSH1 0x41 PUSH1 0x4 MSTORE PUSH1 0x24 PUSH0 REVERT JUMPDEST PUSH3 0x282 DUP3 PUSH3 0x23A JUMP JUMPDEST DUP2 ADD DUP2 DUP2 LT PUSH8 0xFFFFFFFFFFFFFFFF DUP3 GT OR ISZERO PUSH3 0x2A4 JUMPI PUSH3 0x2A3 PUSH3 0x24A JUMP JUMPDEST JUMPDEST DUP1 PUSH1 0x40 MSTORE POP POP POP JUMP JUMPDEST PUSH0 PUSH3 0x2B8 PUSH3 0x1C0 JUMP JUMPDEST SWAP1 POP PUSH3 0x2C6 DUP3 DUP3 PUSH3 0x277 JUMP JUMPDEST SWAP2 SWAP1 POP JUMP JUMPDEST PUSH0 PUSH8 0xFFFFFFFFFFFFFFFF DUP3 GT ISZERO PUSH3 0x2E8 JUMPI PUSH3 0x2E7 PUSH3 0x24A JUMP JUMPDEST JUMPDEST PUSH3 0x2F3 DUP3 PUSH3 0x23A JUMP JUMPDEST SWAP1 POP PUSH1 0x20 DUP2 ADD SWAP1 POP SWAP2 SWAP1 POP JUMP JUMPDEST PUSH0 JUMPDEST DUP4 DUP2 LT ISZERO PUSH3 0x31F JUMPI DUP1 DUP3 ADD MLOAD DUP2 DUP5 ADD MSTORE PUSH1 0x20 DUP2 ADD SWAP1 POP PUSH3 0x302 JUMP JUMPDEST PUSH0 DUP5 DUP5 ADD MSTORE POP POP POP POP JUMP JUMPDEST PUSH0 PUSH3 0x340 PUSH3 0x33A DUP5 PUSH3 0x2CB JUMP JUMPDEST PUSH3 0x2AD JUMP JUMPDEST SWAP1 POP DUP3 DUP2 MSTORE PUSH1 0x20 DUP2 ADD DUP5 DUP5 DUP5 ADD GT ISZERO PUSH3 0x35F JUMPI PUSH3 0x35E PUSH3 0x236 JUMP JUMPDEST JUMPDEST PUSH3 0x36C DUP5 DUP3 DUP6 PUSH3 0x300 JUMP JUMPDEST POP SWAP4 SWAP3 POP POP POP JUMP JUMPDEST PUSH0 DUP3 PUSH1 0x1F DUP4 ADD SLT PUSH3 0x38B JUMPI PUSH3 0x38A PUSH3 0x232 JUMP JUMPDEST JUMPDEST DUP2 MLOAD PUSH3 0x39D DUP5 DUP3 PUSH1 0x20 DUP7 ADD PUSH3 0x32A JUMP JUMPDEST SWAP2 POP POP SWAP3 SWAP2 POP POP JUMP JUMPDEST PUSH0 PUSH8 0xFFFFFFFFFFFFFFFF DUP3 GT ISZERO PUSH3 0x3C3 JUMPI PUSH3 0x3C2 PUSH3 0x24A JUMP JUMPDEST JUMPDEST PUSH1 0x20 DUP3 MUL SWAP1 POP PUSH1 0x20 DUP2 ADD SWAP1 POP SWAP2 SWAP1 POP JUMP JUMPDEST PUSH0 DUP1 REVERT JUMPDEST PUSH0 PUSH3 0x3EE PUSH3 0x3E8 DUP5 PUSH3 0x3A6 JUMP JUMPDEST PUSH3 0x2AD JUMP JUMPDEST SWAP1 POP DUP1 DUP4 DUP3 MSTORE PUSH1 0x20 DUP3 ADD SWAP1 POP PUSH1 0x20 DUP5 MUL DUP4 ADD DUP6 DUP2 GT ISZERO PUSH3 0x414 JUMPI PUSH3 0x413 PUSH3 0x3D4 JUMP JUMPDEST JUMPDEST DUP4 JUMPDEST DUP2 DUP2 LT ISZERO PUSH3 0x462 JUMPI DUP1 MLOAD PUSH8 0xFFFFFFFFFFFFFFFF DUP2 GT ISZERO PUSH3 0x43D JUMPI PUSH3 0x43C PUSH3 0x232 JUMP JUMPDEST JUMPDEST DUP1 DUP7 ADD PUSH3 0x44C DUP10 DUP3 PUSH3 0x374 JUMP JUMPDEST DUP6 MSTORE PUSH1 0x20 DUP6 ADD SWAP5 POP POP POP PUSH1 0x20 DUP2 ADD SWAP1 POP PUSH3 0x416 JUMP JUMPDEST POP POP POP SWAP4 SWAP3 POP POP POP JUMP JUMPDEST PUSH0 DUP3 PUSH1 0x1F DUP4 ADD SLT PUSH3 0x483 JUMPI PUSH3 0x482 PUSH3 0x232 JUMP JUMPDEST JUMPDEST DUP2 MLOAD PUSH3 0x495 DUP5 DUP3 PUSH1 0x20 DUP7 ADD PUSH3 0x3D8 JUMP JUMPDEST SWAP2 POP POP SWAP3 SWAP2 POP POP JUMP JUMPDEST PUSH0 DUP2 SWAP1 POP SWAP2 SWAP1 POP JUMP JUMPDEST PUSH3 0x4B2 DUP2 PUSH3 0x49E JUMP JUMPDEST DUP2 EQ PUSH3 0x4BD JUMPI PUSH0 DUP1 REVERT JUMPDEST POP JUMP JUMPDEST PUSH0 DUP2 MLOAD SWAP1 POP PUSH3 0x4D0 DUP2 PUSH3 0x4A7 JUMP JUMPDEST SWAP3 SWAP2 POP POP JUMP JUMPDEST PUSH0 DUP1 PUSH0 DUP1 PUSH0 PUSH1 0xA0 DUP7 DUP9 SUB SLT ISZERO PUSH3 0x4F2 JUMPI PUSH3 0x4F1 PUSH3 0x1C9 JUMP JUMPDEST JUMPDEST PUSH0 PUSH3 0x501 DUP9 DUP3 DUP10 ADD PUSH3 0x21C JUMP JUMPDEST SWAP6 POP POP PUSH1 0x20 DUP7 ADD MLOAD PUSH8 0xFFFFFFFFFFFFFFFF DUP2 GT ISZERO PUSH3 0x525 JUMPI PUSH3 0x524 PUSH3 0x1CD JUMP JUMPDEST JUMPDEST PUSH3 0x533 DUP9 DUP3 DUP10 ADD PUSH3 0x374 JUMP JUMPDEST SWAP5 POP POP PUSH1 0x40 DUP7 ADD MLOAD PUSH8 0xFFFFFFFFFFFFFFFF DUP2 GT ISZERO PUSH3 0x557 JUMPI PUSH3 0x556 PUSH3 0x1CD JUMP JUMPDEST JUMPDEST PUSH3 0x565 DUP9 DUP3 DUP10 ADD PUSH3 0x374 JUMP JUMPDEST SWAP4 POP POP PUSH1 0x60 DUP7 ADD MLOAD PUSH8 0xFFFFFFFFFFFFFFFF DUP2 GT ISZERO PUSH3 0x589 JUMPI PUSH3 0x588 PUSH3 0x1CD JUMP JUMPDEST JUMPDEST PUSH3 0x597 DUP9 DUP3 DUP10 ADD PUSH3 0x46C JUMP JUMPDEST SWAP3 POP POP PUSH1 0x80 PUSH3 0x5AA DUP9 DUP3 DUP10 ADD PUSH3 0x4C0 JUMP JUMPDEST SWAP2 POP POP SWAP3 SWAP6 POP SWAP3 SWAP6 SWAP1 SWAP4 POP JUMP JUMPDEST PUSH0 DUP2 MLOAD SWAP1 POP SWAP2 SWAP1 POP JUMP JUMPDEST PUSH32 0x4E487B7100000000000000000000000000000000000000000000000000000000 PUSH0 MSTORE PUSH1 0x22 PUSH1 0x4 MSTORE PUSH1 0x24 PUSH0 REVERT JUMPDEST PUSH0 PUSH1 0x2 DUP3 DIV SWAP1 POP PUSH1 0x1 DUP3 AND DUP1 PUSH3 0x606 JUMPI PUSH1 0x7F DUP3 AND SWAP2 POP JUMPDEST PUSH1 0x20 DUP3 LT DUP2 SUB PUSH3 0x61C JUMPI PUSH3 0x61B PUSH3 0x5C1 JUMP JUMPDEST JUMPDEST POP SWAP2 SWAP1 POP JUMP JUMPDEST PUSH0 DUP2 SWAP1 POP DUP2 PUSH0 MSTORE PUSH1 0x20 PUSH0 KECCAK256 SWAP1 POP SWAP2 SWAP1 POP JUMP JUMPDEST PUSH0 PUSH1 0x20 PUSH1 0x1F DUP4 ADD DIV SWAP1 POP SWAP2 SWAP1 POP JUMP JUMPDEST PUSH0 DUP3 DUP3 SHL SWAP1 POP SWAP3 SWAP2 POP POP JUMP JUMPDEST PUSH0 PUSH1 0x8 DUP4 MUL PUSH3 0x680 PUSH32 0xFFFFFFFFFFFFFFFFFFFFFFFFFFFFFFFFFFFFFFFFFFFFFFFFFFFFFFFFFFFFFFFF DUP3 PUSH3 0x643 JUMP JUMPDEST PUSH3 0x68C DUP7 DUP4 PUSH3 0x643 JUMP JUMPDEST SWAP6 POP DUP1 NOT DUP5 AND SWAP4 POP DUP1 DUP7 AND DUP5 OR SWAP3 POP POP POP SWAP4 SWAP3 POP POP POP JUMP JUMPDEST PUSH0 DUP2 SWAP1 POP SWAP2 SWAP1 POP JUMP JUMPDEST PUSH0 PUSH3 0x6CD PUSH3 0x6C7 PUSH3 0x6C1 DUP5 PUSH3 0x49E JUMP JUMPDEST PUSH3 0x6A4 JUMP JUMPDEST PUSH3 0x49E JUMP JUMPDEST SWAP1 POP SWAP2 SWAP1 POP JUMP JUMPDEST PUSH0 DUP2 SWAP1 POP SWAP2 SWAP1 POP JUMP JUMPDEST PUSH3 0x6E8 DUP4 PUSH3 0x6AD JUMP JUMPDEST PUSH3 0x700 PUSH3 0x6F7 DUP3 PUSH3 0x6D4 JUMP JUMPDEST DUP5 DUP5 SLOAD PUSH3 0x64F JUMP JUMPDEST DUP3 SSTORE POP POP POP POP JUMP JUMPDEST PUSH0 SWAP1 JUMP JUMPDEST PUSH3 0x716 PUSH3 0x708 JUMP JUMPDEST PUSH3 0x723 DUP2 DUP5 DUP5 PUSH3 0x6DD JUMP JUMPDEST POP POP POP JUMP JUMPDEST JUMPDEST DUP2 DUP2 LT ISZERO PUSH3 0x74A JUMPI PUSH3 0x73E PUSH0 DUP3 PUSH3 0x70C JUMP JUMPDEST PUSH1 0x1 DUP2 ADD SWAP1 POP PUSH3 0x729 JUMP JUMPDEST POP POP JUMP JUMPDEST PUSH1 0x1F DUP3 GT ISZERO PUSH3 0x799 JUMPI PUSH3 0x763 DUP2 PUSH3 0x622 JUMP JUMPDEST PUSH3 0x76E DUP5 PUSH3 0x634 JUMP JUMPDEST DUP2 ADD PUSH1 0x20 DUP6 LT ISZERO PUSH3 0x77E JUMPI DUP2 SWAP1 POP JUMPDEST PUSH3 0x796 PUSH3 0x78D DUP6 PUSH3 0x634 JUMP JUMPDEST DUP4 ADD DUP3 PUSH3 0x728 JUMP JUMPDEST POP POP JUMPDEST POP POP POP JUMP JUMPDEST PUSH0 DUP3 DUP3 SHR SWAP1 POP SWAP3 SWAP2 POP POP JUMP JUMPDEST PUSH0 PUSH3 0x7BB PUSH0 NOT DUP5 PUSH1 0x8 MUL PUSH3 0x79E JUMP JUMPDEST NOT DUP1 DUP4 AND SWAP2 POP POP SWAP3 SWAP2 POP POP JUMP JUMPDEST PUSH0 PUSH3 0x7D5 DUP4 DUP4 PUSH3 0x7AA JUMP JUMPDEST SWAP2 POP DUP3 PUSH1 0x2 MUL DUP3 OR SWAP1 POP SWAP3 SWAP2 POP POP JUMP JUMPDEST PUSH3 0x7F0 DUP3 PUSH3 0x5B7 JUMP JUMPDEST PUSH8 0xFFFFFFFFFFFFFFFF DUP2 GT ISZERO PUSH3 0x80C JUMPI PUSH3 0x80B PUSH3 0x24A JUMP JUMPDEST JUMPDEST PUSH3 0x818 DUP3 SLOAD PUSH3 0x5EE JUMP JUMPDEST PUSH3 0x825 DUP3 DUP3 DUP6 PUSH3 0x74E JUMP JUMPDEST PUSH0 PUSH1 0x20 SWAP1 POP PUSH1 0x1F DUP4 GT PUSH1 0x1 DUP2 EQ PUSH3 0x85B JUMPI PUSH0 DUP5 ISZERO PUSH3 0x846 JUMPI DUP3 DUP8 ADD MLOAD SWAP1 POP JUMPDEST PUSH3 0x852 DUP6 DUP3 PUSH3 0x7C8 JUMP JUMPDEST DUP7 SSTORE POP PUSH3 0x8C1 JUMP JUMPDEST PUSH1 0x1F NOT DUP5 AND PUSH3 0x86B DUP7 PUSH3 0x622 JUMP JUMPDEST PUSH0 JUMPDEST DUP3 DUP2 LT ISZERO PUSH3 0x894 JUMPI DUP5 DUP10 ADD MLOAD DUP3 SSTORE PUSH1 0x1 DUP3 ADD SWAP2 POP PUSH1 0x20 DUP6 ADD SWAP5 POP PUSH1 0x20 DUP2 ADD SWAP1 POP PUSH3 0x86D JUMP JUMPDEST DUP7 DUP4 LT ISZERO PUSH3 0x8B4 JUMPI DUP5 DUP10 ADD MLOAD PUSH3 0x8B0 PUSH1 0x1F DUP10 AND DUP3 PUSH3 0x7AA JUMP JUMPDEST DUP4 SSTORE POP JUMPDEST PUSH1 0x1 PUSH1 0x2 DUP9 MUL ADD DUP9 SSTORE POP POP POP JUMPDEST POP POP POP POP POP POP JUMP JUMPDEST PUSH32 0x4E487B7100000000000000000000000000000000000000000000000000000000 PUSH0 MSTORE PUSH1 0x11 PUSH1 0x4 MSTORE PUSH1 0x24 PUSH0 REVERT JUMPDEST PUSH0 PUSH3 0x902 DUP3 PUSH3 0x49E JUMP JUMPDEST SWAP2 POP PUSH3 0x90F DUP4 PUSH3 0x49E JUMP JUMPDEST SWAP3 POP DUP3 DUP3 ADD SWAP1 POP DUP1 DUP3 GT ISZERO PUSH3 0x92A JUMPI PUSH3 0x929 PUSH3 0x8C9 JUMP JUMPDEST JUMPDEST SWAP3 SWAP2 POP POP JUMP JUMPDEST PUSH32 0x4E487B7100000000000000000000000000000000000000000000000000000000 PUSH0 MSTORE PUSH1 0x32 PUSH1 0x4 MSTORE PUSH1 0x24 PUSH0 REVERT JUMPDEST PUSH0 PUSH1 0xFF DUP3 AND SWAP1 POP SWAP2 SWAP1 POP JUMP JUMPDEST PUSH0 PUSH3 0x975 DUP3 PUSH3 0x95D JUMP JUMPDEST SWAP2 POP PUSH1 0xFF DUP3 SUB PUSH3 0x98B JUMPI PUSH3 0x98A PUSH3 0x8C9 JUMP JUMPDEST JUMPDEST PUSH1 0x1 DUP3 ADD SWAP1 POP SWAP2 SWAP1 POP JUMP JUMPDEST PUSH2 0x13BD DUP1 PUSH3 0x9A4 PUSH0 CODECOPY PUSH0 RETURN INVALID PUSH1 0x80 PUSH1 0x40 MSTORE CALLVALUE DUP1 ISZERO PUSH2 0xF JUMPI PUSH0 DUP1 REVERT JUMPDEST POP PUSH1 0x4 CALLDATASIZE LT PUSH2 0xB2 JUMPI PUSH0 CALLDATALOAD PUSH1 0xE0 SHR DUP1 PUSH4 0x9145A7FC GT PUSH2 0x6F JUMPI DUP1 PUSH4 0x9145A7FC EQ PUSH2 0x18F JUMPI DUP1 PUSH4 0x9E7B8D61 EQ PUSH2 0x1AD JUMPI DUP1 PUSH4 0xA3EC138D EQ PUSH2 0x1C9 JUMPI DUP1 PUSH4 0xB3F98ADC EQ PUSH2 0x1FD JUMPI DUP1 PUSH4 0xBF63A577 EQ PUSH2 0x219 JUMPI DUP1 PUSH4 0xE2BA53F0 EQ PUSH2 0x237 JUMPI PUSH2 0xB2 JUMP JUMPDEST DUP1 PUSH4 0x13CF08B EQ PUSH2 0xB6 JUMPI DUP1 PUSH4 0x2D05D3F EQ PUSH2 0xE7 JUMPI DUP1 PUSH4 0x9EEF43E EQ PUSH2 0x105 JUMPI DUP1 PUSH4 0x29DCB0CF EQ PUSH2 0x135 JUMPI DUP1 PUSH4 0x4717F97C EQ PUSH2 0x153 JUMPI DUP1 PUSH4 0x7284E416 EQ PUSH2 0x171 JUMPI JUMPDEST PUSH0 DUP1 REVERT JUMPDEST PUSH2 0xD0 PUSH1 0x4 DUP1 CALLDATASIZE SUB DUP2 ADD SWAP1 PUSH2 0xCB SWAP2 SWAP1 PUSH2 0xB93 JUMP JUMPDEST PUSH2 0x255 JUMP JUMPDEST PUSH1 0x40 MLOAD PUSH2 0xDE SWAP3 SWAP2 SWAP1 PUSH2 0xC57 JUMP JUMPDEST PUSH1 0x40 MLOAD DUP1 SWAP2 SUB SWAP1 RETURN JUMPDEST PUSH2 0xEF PUSH2 0x30A JUMP JUMPDEST PUSH1 0x40 MLOAD PUSH2 0xFC SWAP2 SWAP1 PUSH2 0xCC4 JUMP JUMPDEST PUSH1 0x40 MLOAD DUP1 SWAP2 SUB SWAP1 RETURN JUMPDEST PUSH2 0x11F PUSH1 0x4 DUP1 CALLDATASIZE SUB DUP2 ADD SWAP1 PUSH2 0x11A SWAP2 SWAP1 PUSH2 0xD07 JUMP JUMPDEST PUSH2 0x32D JUMP JUMPDEST PUSH1 0x40 MLOAD PUSH2 0x12C SWAP2 SWAP1 PUSH2 0xD4C JUMP JUMPDEST PUSH1 0x40 MLOAD DUP1 SWAP2 SUB SWAP1 RETURN JUMPDEST PUSH2 0x13D PUSH2 0x382 JUMP JUMPDEST PUSH1 0x40 MLOAD PUSH2 0x14A SWAP2 SWAP1 PUSH2 0xD65 JUMP JUMPDEST PUSH1 0x40 MLOAD DUP1 SWAP2 SUB SWAP1 RETURN JUMPDEST PUSH2 0x15B PUSH2 0x388 JUMP JUMPDEST PUSH1 0x40 MLOAD PUSH2 0x168 SWAP2 SWAP1 PUSH2 0xECA JUMP JUMPDEST PUSH1 0x40 MLOAD DUP1 SWAP2 SUB SWAP1 RETURN JUMPDEST PUSH2 0x179 PUSH2 0x47D JUMP JUMPDEST PUSH1 0x40 MLOAD PUSH2 0x186 SWAP2 SWAP1 PUSH2 0xEEA JUMP JUMPDEST PUSH1 0x40 MLOAD DUP1 SWAP2 SUB SWAP1 RETURN JUMPDEST PUSH2 0x197 PUSH2 0x509 JUMP JUMPDEST PUSH1 0x40 MLOAD PUSH2 0x1A4 SWAP2 SWAP1 PUSH2 0xD4C JUMP JUMPDEST PUSH1 0x40 MLOAD DUP1 SWAP2 SUB SWAP1 RETURN JUMPDEST PUSH2 0x1C7 PUSH1 0x4 DUP1 CALLDATASIZE SUB DUP2 ADD SWAP1 PUSH2 0x1C2 SWAP2 SWAP1 PUSH2 0xD07 JUMP JUMPDEST PUSH2 0x514 JUMP JUMPDEST STOP JUMPDEST PUSH2 0x1E3 PUSH1 0x4 DUP1 CALLDATASIZE SUB DUP2 ADD SWAP1 PUSH2 0x1DE SWAP2 SWAP1 PUSH2 0xD07 JUMP JUMPDEST PUSH2 0x72C JUMP JUMPDEST PUSH1 0x40 MLOAD PUSH2 0x1F4 SWAP6 SWAP5 SWAP4 SWAP3 SWAP2 SWAP1 PUSH2 0xF25 JUMP JUMPDEST PUSH1 0x40 MLOAD DUP1 SWAP2 SUB SWAP1 RETURN JUMPDEST PUSH2 0x217 PUSH1 0x4 DUP1 CALLDATASIZE SUB DUP2 ADD SWAP1 PUSH2 0x212 SWAP2 SWAP1 PUSH2 0xFA0 JUMP JUMPDEST PUSH2 0x7A1 JUMP JUMPDEST STOP JUMPDEST PUSH2 0x221 PUSH2 0x98C JUMP JUMPDEST PUSH1 0x40 MLOAD PUSH2 0x22E SWAP2 SWAP1 PUSH2 0xEEA JUMP JUMPDEST PUSH1 0x40 MLOAD DUP1 SWAP2 SUB SWAP1 RETURN JUMPDEST PUSH2 0x23F PUSH2 0xA18 JUMP JUMPDEST PUSH1 0x40 MLOAD PUSH2 0x24C SWAP2 SWAP1 PUSH2 0xEEA JUMP JUMPDEST PUSH1 0x40 MLOAD DUP1 SWAP2 SUB SWAP1 RETURN JUMPDEST PUSH1 0x4 DUP2 DUP2 SLOAD DUP2 LT PUSH2 0x264 JUMPI PUSH0 DUP1 REVERT JUMPDEST SWAP1 PUSH0 MSTORE PUSH1 0x20 PUSH0 KECCAK256 SWAP1 PUSH1 0x2 MUL ADD PUSH0 SWAP2 POP SWAP1 POP DUP1 PUSH0 ADD DUP1 SLOAD PUSH2 0x283 SWAP1 PUSH2 0xFF8 JUMP JUMPDEST DUP1 PUSH1 0x1F ADD PUSH1 0x20 DUP1 SWAP2 DIV MUL PUSH1 0x20 ADD PUSH1 0x40 MLOAD SWAP1 DUP2 ADD PUSH1 0x40 MSTORE DUP1 SWAP3 SWAP2 SWAP1 DUP2 DUP2 MSTORE PUSH1 0x20 ADD DUP3 DUP1 SLOAD PUSH2 0x2AF SWAP1 PUSH2 0xFF8 JUMP JUMPDEST DUP1 ISZERO PUSH2 0x2FA JUMPI DUP1 PUSH1 0x1F LT PUSH2 0x2D1 JUMPI PUSH2 0x100 DUP1 DUP4 SLOAD DIV MUL DUP4 MSTORE SWAP2 PUSH1 0x20 ADD SWAP2 PUSH2 0x2FA JUMP JUMPDEST DUP3 ADD SWAP2 SWAP1 PUSH0 MSTORE PUSH1 0x20 PUSH0 KECCAK256 SWAP1 JUMPDEST DUP2 SLOAD DUP2 MSTORE SWAP1 PUSH1 0x1 ADD SWAP1 PUSH1 0x20 ADD DUP1 DUP4 GT PUSH2 0x2DD JUMPI DUP3 SWAP1 SUB PUSH1 0x1F AND DUP3 ADD SWAP2 JUMPDEST POP POP POP POP POP SWAP1 DUP1 PUSH1 0x1 ADD SLOAD SWAP1 POP DUP3 JUMP JUMPDEST PUSH0 DUP1 SLOAD SWAP1 PUSH2 0x100 EXP SWAP1 DIV PUSH20 0xFFFFFFFFFFFFFFFFFFFFFFFFFFFFFFFFFFFFFFFF AND DUP2 JUMP JUMPDEST PUSH0 PUSH1 0x5 PUSH0 DUP4 PUSH20 0xFFFFFFFFFFFFFFFFFFFFFFFFFFFFFFFFFFFFFFFF AND PUSH20 0xFFFFFFFFFFFFFFFFFFFFFFFFFFFFFFFFFFFFFFFF AND DUP2 MSTORE PUSH1 0x20 ADD SWAP1 DUP2 MSTORE PUSH1 0x20 ADD PUSH0 KECCAK256 PUSH0 ADD PUSH1 0x1 SWAP1 SLOAD SWAP1 PUSH2 0x100 EXP SWAP1 DIV PUSH1 0xFF AND SWAP1 POP SWAP2 SWAP1 POP JUMP JUMPDEST PUSH1 0x3 SLOAD DUP2 JUMP JUMPDEST PUSH1 0x60 PUSH1 0x4 DUP1 SLOAD DUP1 PUSH1 0x20 MUL PUSH1 0x20 ADD PUSH1 0x40 MLOAD SWAP1 DUP2 ADD PUSH1 0x40 MSTORE DUP1 SWAP3 SWAP2 SWAP1 DUP2 DUP2 MSTORE PUSH1 0x20 ADD PUSH0 SWAP1 JUMPDEST DUP3 DUP3 LT ISZERO PUSH2 0x474 JUMPI DUP4 DUP3 SWAP1 PUSH0 MSTORE PUSH1 0x20 PUSH0 KECCAK256 SWAP1 PUSH1 0x2 MUL ADD PUSH1 0x40 MLOAD DUP1 PUSH1 0x40 ADD PUSH1 0x40 MSTORE SWAP1 DUP2 PUSH0 DUP3 ADD DUP1 SLOAD PUSH2 0x3DB SWAP1 PUSH2 0xFF8 JUMP JUMPDEST DUP1 PUSH1 0x1F ADD PUSH1 0x20 DUP1 SWAP2 DIV MUL PUSH1 0x20 ADD PUSH1 0x40 MLOAD SWAP1 DUP2 ADD PUSH1 0x40 MSTORE DUP1 SWAP3 SWAP2 SWAP1 DUP2 DUP2 MSTORE PUSH1 0x20 ADD DUP3 DUP1 SLOAD PUSH2 0x407 SWAP1 PUSH2 0xFF8 JUMP JUMPDEST DUP1 ISZERO PUSH2 0x452 JUMPI DUP1 PUSH1 0x1F LT PUSH2 0x429 JUMPI PUSH2 0x100 DUP1 DUP4 SLOAD DIV MUL DUP4 MSTORE SWAP2 PUSH1 0x20 ADD SWAP2 PUSH2 0x452 JUMP JUMPDEST DUP3 ADD SWAP2 SWAP1 PUSH0 MSTORE PUSH1 0x20 PUSH0 KECCAK256 SWAP1 JUMPDEST DUP2 SLOAD DUP2 MSTORE SWAP1 PUSH1 0x1 ADD SWAP1 PUSH1 0x20 ADD DUP1 DUP4 GT PUSH2 0x435 JUMPI DUP3 SWAP1 SUB PUSH1 0x1F AND DUP3 ADD SWAP2 JUMPDEST POP POP POP POP POP DUP2 MSTORE PUSH1 0x20 ADD PUSH1 0x1 DUP3 ADD SLOAD DUP2 MSTORE POP POP DUP2 MSTORE PUSH1 0x20 ADD SWAP1 PUSH1 0x1 ADD SWAP1 PUSH2 0x3AB JUMP JUMPDEST POP POP POP POP SWAP1 POP SWAP1 JUMP JUMPDEST PUSH1 0x2 DUP1 SLOAD PUSH2 0x48A SWAP1 PUSH2 0xFF8 JUMP JUMPDEST DUP1 PUSH1 0x1F ADD PUSH1 0x20 DUP1 SWAP2 DIV MUL PUSH1 0x20 ADD PUSH1 0x40 MLOAD SWAP1 DUP2 ADD PUSH1 0x40 MSTORE DUP1 SWAP3 SWAP2 SWAP1 DUP2 DUP2 MSTORE PUSH1 0x20 ADD DUP3 DUP1 SLOAD PUSH2 0x4B6 SWAP1 PUSH2 0xFF8 JUMP JUMPDEST DUP1 ISZERO PUSH2 0x501 JUMPI DUP1 PUSH1 0x1F LT PUSH2 0x4D8 JUMPI PUSH2 0x100 DUP1 DUP4 SLOAD DIV MUL DUP4 MSTORE SWAP2 PUSH1 0x20 ADD SWAP2 PUSH2 0x501 JUMP JUMPDEST DUP3 ADD SWAP2 SWAP1 PUSH0 MSTORE PUSH1 0x20 PUSH0 KECCAK256 SWAP1 JUMPDEST DUP2 SLOAD DUP2 MSTORE SWAP1 PUSH1 0x1 ADD SWAP1 PUSH1 0x20 ADD DUP1 DUP4 GT PUSH2 0x4E4 JUMPI DUP3 SWAP1 SUB PUSH1 0x1F AND DUP3 ADD SWAP2 JUMPDEST POP POP POP POP POP DUP2 JUMP JUMPDEST PUSH0 PUSH1 0x3 SLOAD TIMESTAMP GT SWAP1 POP SWAP1 JUMP JUMPDEST PUSH2 0x51C PUSH2 0x509 JUMP JUMPDEST ISZERO PUSH2 0x55C JUMPI PUSH1 0x40 MLOAD PUSH32 0x8C379A000000000000000000000000000000000000000000000000000000000 DUP2 MSTORE PUSH1 0x4 ADD PUSH2 0x553 SWAP1 PUSH2 0x1072 JUMP JUMPDEST PUSH1 0x40 MLOAD DUP1 SWAP2 SUB SWAP1 REVERT JUMPDEST PUSH0 DUP1 SLOAD SWAP1 PUSH2 0x100 EXP SWAP1 DIV PUSH20 0xFFFFFFFFFFFFFFFFFFFFFFFFFFFFFFFFFFFFFFFF AND PUSH20 0xFFFFFFFFFFFFFFFFFFFFFFFFFFFFFFFFFFFFFFFF AND CALLER PUSH20 0xFFFFFFFFFFFFFFFFFFFFFFFFFFFFFFFFFFFFFFFF AND EQ PUSH2 0x5E9 JUMPI PUSH1 0x40 MLOAD PUSH32 0x8C379A000000000000000000000000000000000000000000000000000000000 DUP2 MSTORE PUSH1 0x4 ADD PUSH2 0x5E0 SWAP1 PUSH2 0x1100 JUMP JUMPDEST PUSH1 0x40 MLOAD DUP1 SWAP2 SUB SWAP1 REVERT JUMPDEST DUP1 PUSH1 0x5 PUSH0 DUP3 PUSH20 0xFFFFFFFFFFFFFFFFFFFFFFFFFFFFFFFFFFFFFFFF AND PUSH20 0xFFFFFFFFFFFFFFFFFFFFFFFFFFFFFFFFFFFFFFFF AND DUP2 MSTORE PUSH1 0x20 ADD SWAP1 DUP2 MSTORE PUSH1 0x20 ADD PUSH0 KECCAK256 PUSH0 ADD PUSH0 SWAP1 SLOAD SWAP1 PUSH2 0x100 EXP SWAP1 DIV PUSH1 0xFF AND ISZERO PUSH2 0x676 JUMPI PUSH1 0x40 MLOAD PUSH32 0x8C379A000000000000000000000000000000000000000000000000000000000 DUP2 MSTORE PUSH1 0x4 ADD PUSH2 0x66D SWAP1 PUSH2 0x1168 JUMP JUMPDEST PUSH1 0x40 MLOAD DUP1 SWAP2 SUB SWAP1 REVERT JUMPDEST PUSH1 0x1 PUSH1 0x5 PUSH0 DUP5 PUSH20 0xFFFFFFFFFFFFFFFFFFFFFFFFFFFFFFFFFFFFFFFF AND PUSH20 0xFFFFFFFFFFFFFFFFFFFFFFFFFFFFFFFFFFFFFFFF AND DUP2 MSTORE PUSH1 0x20 ADD SWAP1 DUP2 MSTORE PUSH1 0x20 ADD PUSH0 KECCAK256 PUSH0 ADD PUSH0 PUSH2 0x100 EXP DUP2 SLOAD DUP2 PUSH1 0xFF MUL NOT AND SWAP1 DUP4 ISZERO ISZERO MUL OR SWAP1 SSTORE POP DUP2 PUSH20 0xFFFFFFFFFFFFFFFFFFFFFFFFFFFFFFFFFFFFFFFF AND CALLER PUSH20 0xFFFFFFFFFFFFFFFFFFFFFFFFFFFFFFFFFFFFFFFF AND TIMESTAMP PUSH32 0xA4BBD98D03300DC9C6991B0F3C356EB7C69C95FC7352DCBC5CB2E949904506B2 PUSH1 0x40 MLOAD PUSH1 0x40 MLOAD DUP1 SWAP2 SUB SWAP1 LOG4 POP POP JUMP JUMPDEST PUSH1 0x5 PUSH1 0x20 MSTORE DUP1 PUSH0 MSTORE PUSH1 0x40 PUSH0 KECCAK256 PUSH0 SWAP2 POP SWAP1 POP DUP1 PUSH0 ADD PUSH0 SWAP1 SLOAD SWAP1 PUSH2 0x100 EXP SWAP1 DIV PUSH1 0xFF AND SWAP1 DUP1 PUSH0 ADD PUSH1 0x1 SWAP1 SLOAD SWAP1 PUSH2 0x100 EXP SWAP1 DIV PUSH1 0xFF AND SWAP1 DUP1 PUSH0 ADD PUSH1 0x2 SWAP1 SLOAD SWAP1 PUSH2 0x100 EXP SWAP1 DIV PUSH1 0xFF AND SWAP1 DUP1 PUSH1 0x1 ADD SLOAD SWAP1 DUP1 PUSH1 0x2 ADD PUSH0 SWAP1 SLOAD SWAP1 PUSH2 0x100 EXP SWAP1 DIV PUSH20 0xFFFFFFFFFFFFFFFFFFFFFFFFFFFFFFFFFFFFFFFF AND SWAP1 POP DUP6 JUMP JUMPDEST PUSH2 0x7A9 PUSH2 0x509 JUMP JUMPDEST ISZERO PUSH2 0x7E9 JUMPI PUSH1 0x40 MLOAD PUSH32 0x8C379A000000000000000000000000000000000000000000000000000000000 DUP2 MSTORE PUSH1 0x4 ADD PUSH2 0x7E0 SWAP1 PUSH2 0x1072 JUMP JUMPDEST PUSH1 0x40 MLOAD DUP1 SWAP2 SUB SWAP1 REVERT JUMPDEST DUP1 PUSH1 0x4 DUP1 SLOAD SWAP1 POP DUP2 PUSH1 0xFF AND LT PUSH2 0x834 JUMPI PUSH1 0x40 MLOAD PUSH32 0x8C379A000000000000000000000000000000000000000000000000000000000 DUP2 MSTORE PUSH1 0x4 ADD PUSH2 0x82B SWAP1 PUSH2 0x11D0 JUMP JUMPDEST PUSH1 0x40 MLOAD DUP1 SWAP2 SUB SWAP1 REVERT JUMPDEST PUSH0 PUSH1 0x5 PUSH0 CALLER PUSH20 0xFFFFFFFFFFFFFFFFFFFFFFFFFFFFFFFFFFFFFFFF AND PUSH20 0xFFFFFFFFFFFFFFFFFFFFFFFFFFFFFFFFFFFFFFFF AND DUP2 MSTORE PUSH1 0x20 ADD SWAP1 DUP2 MSTORE PUSH1 0x20 ADD PUSH0 KECCAK256 SWAP1 POP DUP1 PUSH0 ADD PUSH0 SWAP1 SLOAD SWAP1 PUSH2 0x100 EXP SWAP1 DIV PUSH1 0xFF AND PUSH2 0x8C3 JUMPI PUSH1 0x40 MLOAD PUSH32 0x8C379A000000000000000000000000000000000000000000000000000000000 DUP2 MSTORE PUSH1 0x4 ADD PUSH2 0x8BA SWAP1 PUSH2 0x1238 JUMP JUMPDEST PUSH1 0x40 MLOAD DUP1 SWAP2 SUB SWAP1 REVERT JUMPDEST DUP1 PUSH0 ADD PUSH1 0x1 SWAP1 SLOAD SWAP1 PUSH2 0x100 EXP SWAP1 DIV PUSH1 0xFF AND ISZERO PUSH2 0x914 JUMPI PUSH1 0x40 MLOAD PUSH32 0x8C379A000000000000000000000000000000000000000000000000000000000 DUP2 MSTORE PUSH1 0x4 ADD PUSH2 0x90B SWAP1 PUSH2 0x12A0 JUMP JUMPDEST PUSH1 0x40 MLOAD DUP1 SWAP2 SUB SWAP1 REVERT JUMPDEST PUSH1 0x1 DUP2 PUSH0 ADD PUSH1 0x1 PUSH2 0x100 EXP DUP2 SLOAD DUP2 PUSH1 0xFF MUL NOT AND SWAP1 DUP4 ISZERO ISZERO MUL OR SWAP1 SSTORE POP DUP3 DUP2 PUSH0 ADD PUSH1 0x2 PUSH2 0x100 EXP DUP2 SLOAD DUP2 PUSH1 0xFF MUL NOT AND SWAP1 DUP4 PUSH1 0xFF AND MUL OR SWAP1 SSTORE POP PUSH1 0x4 DUP4 PUSH1 0xFF AND DUP2 SLOAD DUP2 LT PUSH2 0x963 JUMPI PUSH2 0x962 PUSH2 0x12BE JUMP JUMPDEST JUMPDEST SWAP1 PUSH0 MSTORE PUSH1 0x20 PUSH0 KECCAK256 SWAP1 PUSH1 0x2 MUL ADD PUSH1 0x1 ADD PUSH0 DUP2 SLOAD DUP1 SWAP3 SWAP2 SWAP1 PUSH2 0x982 SWAP1 PUSH2 0x1318 JUMP JUMPDEST SWAP2 SWAP1 POP SSTORE POP POP POP POP JUMP JUMPDEST PUSH1 0x1 DUP1 SLOAD PUSH2 0x999 SWAP1 PUSH2 0xFF8 JUMP JUMPDEST DUP1 PUSH1 0x1F ADD PUSH1 0x20 DUP1 SWAP2 DIV MUL PUSH1 0x20 ADD PUSH1 0x40 MLOAD SWAP1 DUP2 ADD PUSH1 0x40 MSTORE DUP1 SWAP3 SWAP2 SWAP1 DUP2 DUP2 MSTORE PUSH1 0x20 ADD DUP3 DUP1 SLOAD PUSH2 0x9C5 SWAP1 PUSH2 0xFF8 JUMP JUMPDEST DUP1 ISZERO PUSH2 0xA10 JUMPI DUP1 PUSH1 0x1F LT PUSH2 0x9E7 JUMPI PUSH2 0x100 DUP1 DUP4 SLOAD DIV MUL DUP4 MSTORE SWAP2 PUSH1 0x20 ADD SWAP2 PUSH2 0xA10 JUMP JUMPDEST DUP3 ADD SWAP2 SWAP1 PUSH0 MSTORE PUSH1 0x20 PUSH0 KECCAK256 SWAP1 JUMPDEST DUP2 SLOAD DUP2 MSTORE SWAP1 PUSH1 0x1 ADD SWAP1 PUSH1 0x20 ADD DUP1 DUP4 GT PUSH2 0x9F3 JUMPI DUP3 SWAP1 SUB PUSH1 0x1F AND DUP3 ADD SWAP2 JUMPDEST POP POP POP POP POP DUP2 JUMP JUMPDEST PUSH1 0x60 PUSH1 0x4 PUSH2 0xA24 PUSH2 0xAD2 JUMP JUMPDEST PUSH1 0xFF AND DUP2 SLOAD DUP2 LT PUSH2 0xA38 JUMPI PUSH2 0xA37 PUSH2 0x12BE JUMP JUMPDEST JUMPDEST SWAP1 PUSH0 MSTORE PUSH1 0x20 PUSH0 KECCAK256 SWAP1 PUSH1 0x2 MUL ADD PUSH0 ADD DUP1 SLOAD PUSH2 0xA51 SWAP1 PUSH2 0xFF8 JUMP JUMPDEST DUP1 PUSH1 0x1F ADD PUSH1 0x20 DUP1 SWAP2 DIV MUL PUSH1 0x20 ADD PUSH1 0x40 MLOAD SWAP1 DUP2 ADD PUSH1 0x40 MSTORE DUP1 SWAP3 SWAP2 SWAP1 DUP2 DUP2 MSTORE PUSH1 0x20 ADD DUP3 DUP1 SLOAD PUSH2 0xA7D SWAP1 PUSH2 0xFF8 JUMP JUMPDEST DUP1 ISZERO PUSH2 0xAC8 JUMPI DUP1 PUSH1 0x1F LT PUSH2 0xA9F JUMPI PUSH2 0x100 DUP1 DUP4 SLOAD DIV MUL DUP4 MSTORE SWAP2 PUSH1 0x20 ADD SWAP2 PUSH2 0xAC8 JUMP JUMPDEST DUP3 ADD SWAP2 SWAP1 PUSH0 MSTORE PUSH1 0x20 PUSH0 KECCAK256 SWAP1 JUMPDEST DUP2 SLOAD DUP2 MSTORE SWAP1 PUSH1 0x1 ADD SWAP1 PUSH1 0x20 ADD DUP1 DUP4 GT PUSH2 0xAAB JUMPI DUP3 SWAP1 SUB PUSH1 0x1F AND DUP3 ADD SWAP2 JUMPDEST POP POP POP POP POP SWAP1 POP SWAP1 JUMP JUMPDEST PUSH0 DUP1 PUSH0 SWAP1 POP PUSH0 JUMPDEST PUSH1 0x4 DUP1 SLOAD SWAP1 POP DUP2 PUSH1 0xFF AND LT ISZERO PUSH2 0xB57 JUMPI DUP2 PUSH1 0x4 DUP3 PUSH1 0xFF AND DUP2 SLOAD DUP2 LT PUSH2 0xB01 JUMPI PUSH2 0xB00 PUSH2 0x12BE JUMP JUMPDEST JUMPDEST SWAP1 PUSH0 MSTORE PUSH1 0x20 PUSH0 KECCAK256 SWAP1 PUSH1 0x2 MUL ADD PUSH1 0x1 ADD SLOAD GT ISZERO PUSH2 0xB44 JUMPI PUSH1 0x4 DUP2 PUSH1 0xFF AND DUP2 SLOAD DUP2 LT PUSH2 0xB2E JUMPI PUSH2 0xB2D PUSH2 0x12BE JUMP JUMPDEST JUMPDEST SWAP1 PUSH0 MSTORE PUSH1 0x20 PUSH0 KECCAK256 SWAP1 PUSH1 0x2 MUL ADD PUSH1 0x1 ADD SLOAD SWAP2 POP DUP1 SWAP3 POP JUMPDEST DUP1 DUP1 PUSH2 0xB4F SWAP1 PUSH2 0x135F JUMP JUMPDEST SWAP2 POP POP PUSH2 0xAD9 JUMP JUMPDEST POP POP SWAP1 JUMP JUMPDEST PUSH0 DUP1 REVERT JUMPDEST PUSH0 DUP2 SWAP1 POP SWAP2 SWAP1 POP JUMP JUMPDEST PUSH2 0xB72 DUP2 PUSH2 0xB60 JUMP JUMPDEST DUP2 EQ PUSH2 0xB7C JUMPI PUSH0 DUP1 REVERT JUMPDEST POP JUMP JUMPDEST PUSH0 DUP2 CALLDATALOAD SWAP1 POP PUSH2 0xB8D DUP2 PUSH2 0xB69 JUMP JUMPDEST SWAP3 SWAP2 POP POP JUMP JUMPDEST PUSH0 PUSH1 0x20 DUP3 DUP5 SUB SLT ISZERO PUSH2 0xBA8 JUMPI PUSH2 0xBA7 PUSH2 0xB5C JUMP JUMPDEST JUMPDEST PUSH0 PUSH2 0xBB5 DUP5 DUP3 DUP6 ADD PUSH2 0xB7F JUMP JUMPDEST SWAP2 POP POP SWAP3 SWAP2 POP POP JUMP JUMPDEST PUSH0 DUP2 MLOAD SWAP1 POP SWAP2 SWAP1 POP JUMP JUMPDEST PUSH0 DUP3 DUP3 MSTORE PUSH1 0x20 DUP3 ADD SWAP1 POP SWAP3 SWAP2 POP POP JUMP JUMPDEST PUSH0 JUMPDEST DUP4 DUP2 LT ISZERO PUSH2 0xBF5 JUMPI DUP1 DUP3 ADD MLOAD DUP2 DUP5 ADD MSTORE PUSH1 0x20 DUP2 ADD SWAP1 POP PUSH2 0xBDA JUMP JUMPDEST PUSH0 DUP5 DUP5 ADD MSTORE POP POP POP POP JUMP JUMPDEST PUSH0 PUSH1 0x1F NOT PUSH1 0x1F DUP4 ADD AND SWAP1 POP SWAP2 SWAP1 POP JUMP JUMPDEST PUSH0 PUSH2 0xC1A DUP3 PUSH2 0xBBE JUMP JUMPDEST PUSH2 0xC24 DUP2 DUP6 PUSH2 0xBC8 JUMP JUMPDEST SWAP4 POP PUSH2 0xC34 DUP2 DUP6 PUSH1 0x20 DUP7 ADD PUSH2 0xBD8 JUMP JUMPDEST PUSH2 0xC3D DUP2 PUSH2 0xC00 JUMP JUMPDEST DUP5 ADD SWAP2 POP POP SWAP3 SWAP2 POP POP JUMP JUMPDEST PUSH2 0xC51 DUP2 PUSH2 0xB60 JUMP JUMPDEST DUP3 MSTORE POP POP JUMP JUMPDEST PUSH0 PUSH1 0x40 DUP3 ADD SWAP1 POP DUP2 DUP2 SUB PUSH0 DUP4 ADD MSTORE PUSH2 0xC6F DUP2 DUP6 PUSH2 0xC10 JUMP JUMPDEST SWAP1 POP PUSH2 0xC7E PUSH1 0x20 DUP4 ADD DUP5 PUSH2 0xC48 JUMP JUMPDEST SWAP4 SWAP3 POP POP POP JUMP JUMPDEST PUSH0 PUSH20 0xFFFFFFFFFFFFFFFFFFFFFFFFFFFFFFFFFFFFFFFF DUP3 AND SWAP1 POP SWAP2 SWAP1 POP JUMP JUMPDEST PUSH0 PUSH2 0xCAE DUP3 PUSH2 0xC85 JUMP JUMPDEST SWAP1 POP SWAP2 SWAP1 POP JUMP JUMPDEST PUSH2 0xCBE DUP2 PUSH2 0xCA4 JUMP JUMPDEST DUP3 MSTORE POP POP JUMP JUMPDEST PUSH0 PUSH1 0x20 DUP3 ADD SWAP1 POP PUSH2 0xCD7 PUSH0 DUP4 ADD DUP5 PUSH2 0xCB5 JUMP JUMPDEST SWAP3 SWAP2 POP POP JUMP JUMPDEST PUSH2 0xCE6 DUP2 PUSH2 0xCA4 JUMP JUMPDEST DUP2 EQ PUSH2 0xCF0 JUMPI PUSH0 DUP1 REVERT JUMPDEST POP JUMP JUMPDEST PUSH0 DUP2 CALLDATALOAD SWAP1 POP PUSH2 0xD01 DUP2 PUSH2 0xCDD JUMP JUMPDEST SWAP3 SWAP2 POP POP JUMP JUMPDEST PUSH0 PUSH1 0x20 DUP3 DUP5 SUB SLT ISZERO PUSH2 0xD1C JUMPI PUSH2 0xD1B PUSH2 0xB5C JUMP JUMPDEST JUMPDEST PUSH0 PUSH2 0xD29 DUP5 DUP3 DUP6 ADD PUSH2 0xCF3 JUMP JUMPDEST SWAP2 POP POP SWAP3 SWAP2 POP POP JUMP JUMPDEST PUSH0 DUP2 ISZERO ISZERO SWAP1 POP SWAP2 SWAP1 POP JUMP JUMPDEST PUSH2 0xD46 DUP2 PUSH2 0xD32 JUMP JUMPDEST DUP3 MSTORE POP POP JUMP JUMPDEST PUSH0 PUSH1 0x20 DUP3 ADD SWAP1 POP PUSH2 0xD5F PUSH0 DUP4 ADD DUP5 PUSH2 0xD3D JUMP JUMPDEST SWAP3 SWAP2 POP POP JUMP JUMPDEST PUSH0 PUSH1 0x20 DUP3 ADD SWAP1 POP PUSH2 0xD78 PUSH0 DUP4 ADD DUP5 PUSH2 0xC48 JUMP JUMPDEST SWAP3 SWAP2 POP POP JUMP JUMPDEST PUSH0 DUP2 MLOAD SWAP1 POP SWAP2 SWAP1 POP JUMP JUMPDEST PUSH0 DUP3 DUP3 MSTORE PUSH1 0x20 DUP3 ADD SWAP1 POP SWAP3 SWAP2 POP POP JUMP JUMPDEST PUSH0 DUP2 SWAP1 POP PUSH1 0x20 DUP3 ADD SWAP1 POP SWAP2 SWAP1 POP JUMP JUMPDEST PUSH0 DUP3 DUP3 MSTORE PUSH1 0x20 DUP3 ADD SWAP1 POP SWAP3 SWAP2 POP POP JUMP JUMPDEST PUSH0 PUSH2 0xDC1 DUP3 PUSH2 0xBBE JUMP JUMPDEST PUSH2 0xDCB DUP2 DUP6 PUSH2 0xDA7 JUMP JUMPDEST SWAP4 POP PUSH2 0xDDB DUP2 DUP6 PUSH1 0x20 DUP7 ADD PUSH2 0xBD8 JUMP JUMPDEST PUSH2 0xDE4 DUP2 PUSH2 0xC00 JUMP JUMPDEST DUP5 ADD SWAP2 POP POP SWAP3 SWAP2 POP POP JUMP JUMPDEST PUSH2 0xDF8 DUP2 PUSH2 0xB60 JUMP JUMPDEST DUP3 MSTORE POP POP JUMP JUMPDEST PUSH0 PUSH1 0x40 DUP4 ADD PUSH0 DUP4 ADD MLOAD DUP5 DUP3 SUB PUSH0 DUP7 ADD MSTORE PUSH2 0xE18 DUP3 DUP3 PUSH2 0xDB7 JUMP JUMPDEST SWAP2 POP POP PUSH1 0x20 DUP4 ADD MLOAD PUSH2 0xE2D PUSH1 0x20 DUP7 ADD DUP3 PUSH2 0xDEF JUMP JUMPDEST POP DUP1 SWAP2 POP POP SWAP3 SWAP2 POP POP JUMP JUMPDEST PUSH0 PUSH2 0xE43 DUP4 DUP4 PUSH2 0xDFE JUMP JUMPDEST SWAP1 POP SWAP3 SWAP2 POP POP JUMP JUMPDEST PUSH0 PUSH1 0x20 DUP3 ADD SWAP1 POP SWAP2 SWAP1 POP JUMP JUMPDEST PUSH0 PUSH2 0xE61 DUP3 PUSH2 0xD7E JUMP JUMPDEST PUSH2 0xE6B DUP2 DUP6 PUSH2 0xD88 JUMP JUMPDEST SWAP4 POP DUP4 PUSH1 0x20 DUP3 MUL DUP6 ADD PUSH2 0xE7D DUP6 PUSH2 0xD98 JUMP JUMPDEST DUP1 PUSH0 JUMPDEST DUP6 DUP2 LT ISZERO PUSH2 0xEB8 JUMPI DUP5 DUP5 SUB DUP10 MSTORE DUP2 MLOAD PUSH2 0xE99 DUP6 DUP3 PUSH2 0xE38 JUMP JUMPDEST SWAP5 POP PUSH2 0xEA4 DUP4 PUSH2 0xE4B JUMP JUMPDEST SWAP3 POP PUSH1 0x20 DUP11 ADD SWAP10 POP POP PUSH1 0x1 DUP2 ADD SWAP1 POP PUSH2 0xE80 JUMP JUMPDEST POP DUP3 SWAP8 POP DUP8 SWAP6 POP POP POP POP POP POP SWAP3 SWAP2 POP POP JUMP JUMPDEST PUSH0 PUSH1 0x20 DUP3 ADD SWAP1 POP DUP2 DUP2 SUB PUSH0 DUP4 ADD MSTORE PUSH2 0xEE2 DUP2 DUP5 PUSH2 0xE57 JUMP JUMPDEST SWAP1 POP SWAP3 SWAP2 POP POP JUMP JUMPDEST PUSH0 PUSH1 0x20 DUP3 ADD SWAP1 POP DUP2 DUP2 SUB PUSH0 DUP4 ADD MSTORE PUSH2 0xF02 DUP2 DUP5 PUSH2 0xC10 JUMP JUMPDEST SWAP1 POP SWAP3 SWAP2 POP POP JUMP JUMPDEST PUSH0 PUSH1 0xFF DUP3 AND SWAP1 POP SWAP2 SWAP1 POP JUMP JUMPDEST PUSH2 0xF1F DUP2 PUSH2 0xF0A JUMP JUMPDEST DUP3 MSTORE POP POP JUMP JUMPDEST PUSH0 PUSH1 0xA0 DUP3 ADD SWAP1 POP PUSH2 0xF38 PUSH0 DUP4 ADD DUP9 PUSH2 0xD3D JUMP JUMPDEST PUSH2 0xF45 PUSH1 0x20 DUP4 ADD DUP8 PUSH2 0xD3D JUMP JUMPDEST PUSH2 0xF52 PUSH1 0x40 DUP4 ADD DUP7 PUSH2 0xF16 JUMP JUMPDEST PUSH2 0xF5F PUSH1 0x60 DUP4 ADD DUP6 PUSH2 0xC48 JUMP JUMPDEST PUSH2 0xF6C PUSH1 0x80 DUP4 ADD DUP5 PUSH2 0xCB5 JUMP JUMPDEST SWAP7 SWAP6 POP POP POP POP POP POP JUMP JUMPDEST PUSH2 0xF7F DUP2 PUSH2 0xF0A JUMP JUMPDEST DUP2 EQ PUSH2 0xF89 JUMPI PUSH0 DUP1 REVERT JUMPDEST POP JUMP JUMPDEST PUSH0 DUP2 CALLDATALOAD SWAP1 POP PUSH2 0xF9A DUP2 PUSH2 0xF76 JUMP JUMPDEST SWAP3 SWAP2 POP POP JUMP JUMPDEST PUSH0 PUSH1 0x20 DUP3 DUP5 SUB SLT ISZERO PUSH2 0xFB5 JUMPI PUSH2 0xFB4 PUSH2 0xB5C JUMP JUMPDEST JUMPDEST PUSH0 PUSH2 0xFC2 DUP5 DUP3 DUP6 ADD PUSH2 0xF8C JUMP JUMPDEST SWAP2 POP POP SWAP3 SWAP2 POP POP JUMP JUMPDEST PUSH32 0x4E487B7100000000000000000000000000000000000000000000000000000000 PUSH0 MSTORE PUSH1 0x22 PUSH1 0x4 MSTORE PUSH1 0x24 PUSH0 REVERT JUMPDEST PUSH0 PUSH1 0x2 DUP3 DIV SWAP1 POP PUSH1 0x1 DUP3 AND DUP1 PUSH2 0x100F JUMPI PUSH1 0x7F DUP3 AND SWAP2 POP JUMPDEST PUSH1 0x20 DUP3 LT DUP2 SUB PUSH2 0x1022 JUMPI PUSH2 0x1021 PUSH2 0xFCB JUMP JUMPDEST JUMPDEST POP SWAP2 SWAP1 POP JUMP JUMPDEST PUSH32 0x446561646C696E652068617320657870697265642E0000000000000000000000 PUSH0 DUP3 ADD MSTORE POP JUMP JUMPDEST PUSH0 PUSH2 0x105C PUSH1 0x15 DUP4 PUSH2 0xBC8 JUMP JUMPDEST SWAP2 POP PUSH2 0x1067 DUP3 PUSH2 0x1028 JUMP JUMPDEST PUSH1 0x20 DUP3 ADD SWAP1 POP SWAP2 SWAP1 POP JUMP JUMPDEST PUSH0 PUSH1 0x20 DUP3 ADD SWAP1 POP DUP2 DUP2 SUB PUSH0 DUP4 ADD MSTORE PUSH2 0x1089 DUP2 PUSH2 0x1050 JUMP JUMPDEST SWAP1 POP SWAP2 SWAP1 POP JUMP JUMPDEST PUSH32 0x4F6E6C792063726561746F72206861732074686573652070726976696C656765 PUSH0 DUP3 ADD MSTORE PUSH32 0x732E000000000000000000000000000000000000000000000000000000000000 PUSH1 0x20 DUP3 ADD MSTORE POP JUMP JUMPDEST PUSH0 PUSH2 0x10EA PUSH1 0x22 DUP4 PUSH2 0xBC8 JUMP JUMPDEST SWAP2 POP PUSH2 0x10F5 DUP3 PUSH2 0x1090 JUMP JUMPDEST PUSH1 0x40 DUP3 ADD SWAP1 POP SWAP2 SWAP1 POP JUMP JUMPDEST PUSH0 PUSH1 0x20 DUP3 ADD SWAP1 POP DUP2 DUP2 SUB PUSH0 DUP4 ADD MSTORE PUSH2 0x1117 DUP2 PUSH2 0x10DE JUMP JUMPDEST SWAP1 POP SWAP2 SWAP1 POP JUMP JUMPDEST PUSH32 0x566F7465722068617320616C726561647920726967687420746F20766F74652E PUSH0 DUP3 ADD MSTORE POP JUMP JUMPDEST PUSH0 PUSH2 0x1152 PUSH1 0x20 DUP4 PUSH2 0xBC8 JUMP JUMPDEST SWAP2 POP PUSH2 0x115D DUP3 PUSH2 0x111E JUMP JUMPDEST PUSH1 0x20 DUP3 ADD SWAP1 POP SWAP2 SWAP1 POP JUMP JUMPDEST PUSH0 PUSH1 0x20 DUP3 ADD SWAP1 POP DUP2 DUP2 SUB PUSH0 DUP4 ADD MSTORE PUSH2 0x117F DUP2 PUSH2 0x1146 JUMP JUMPDEST SWAP1 POP SWAP2 SWAP1 POP JUMP JUMPDEST PUSH32 0x546869732070726F706F73616C20646F6573206E6F742065786973742E000000 PUSH0 DUP3 ADD MSTORE POP JUMP JUMPDEST PUSH0 PUSH2 0x11BA PUSH1 0x1D DUP4 PUSH2 0xBC8 JUMP JUMPDEST SWAP2 POP PUSH2 0x11C5 DUP3 PUSH2 0x1186 JUMP JUMPDEST PUSH1 0x20 DUP3 ADD SWAP1 POP SWAP2 SWAP1 POP JUMP JUMPDEST PUSH0 PUSH1 0x20 DUP3 ADD SWAP1 POP DUP2 DUP2 SUB PUSH0 DUP4 ADD MSTORE PUSH2 0x11E7 DUP2 PUSH2 0x11AE JUMP JUMPDEST SWAP1 POP SWAP2 SWAP1 POP JUMP JUMPDEST PUSH32 0x486173206E6F20726967687420746F20766F74652E0000000000000000000000 PUSH0 DUP3 ADD MSTORE POP JUMP JUMPDEST PUSH0 PUSH2 0x1222 PUSH1 0x15 DUP4 PUSH2 0xBC8 JUMP JUMPDEST SWAP2 POP PUSH2 0x122D DUP3 PUSH2 0x11EE JUMP JUMPDEST PUSH1 0x20 DUP3 ADD SWAP1 POP SWAP2 SWAP1 POP JUMP JUMPDEST PUSH0 PUSH1 0x20 DUP3 ADD SWAP1 POP DUP2 DUP2 SUB PUSH0 DUP4 ADD MSTORE PUSH2 0x124F DUP2 PUSH2 0x1216 JUMP JUMPDEST SWAP1 POP SWAP2 SWAP1 POP JUMP JUMPDEST PUSH32 0x416C726561647920766F7465642E000000000000000000000000000000000000 PUSH0 DUP3 ADD MSTORE POP JUMP JUMPDEST PUSH0 PUSH2 0x128A PUSH1 0xE DUP4 PUSH2 0xBC8 JUMP JUMPDEST SWAP2 POP PUSH2 0x1295 DUP3 PUSH2 0x1256 JUMP JUMPDEST PUSH1 0x20 DUP3 ADD SWAP1 POP SWAP2 SWAP1 POP JUMP JUMPDEST PUSH0 PUSH1 0x20 DUP3 ADD SWAP1 POP DUP2 DUP2 SUB PUSH0 DUP4 ADD MSTORE PUSH2 0x12B7 DUP2 PUSH2 0x127E JUMP JUMPDEST SWAP1 POP SWAP2 SWAP1 POP JUMP JUMPDEST PUSH32 0x4E487B7100000000000000000000000000000000000000000000000000000000 PUSH0 MSTORE PUSH1 0x32 PUSH1 0x4 MSTORE PUSH1 0x24 PUSH0 REVERT JUMPDEST PUSH32 0x4E487B7100000000000000000000000000000000000000000000000000000000 PUSH0 MSTORE PUSH1 0x11 PUSH1 0x4 MSTORE PUSH1 0x24 PUSH0 REVERT JUMPDEST PUSH0 PUSH2 0x1322 DUP3 PUSH2 0xB60 JUMP JUMPDEST SWAP2 POP PUSH32 0xFFFFFFFFFFFFFFFFFFFFFFFFFFFFFFFFFFFFFFFFFFFFFFFFFFFFFFFFFFFFFFFF DUP3 SUB PUSH2 0x1354 JUMPI PUSH2 0x1353 PUSH2 0x12EB JUMP JUMPDEST JUMPDEST PUSH1 0x1 DUP3 ADD SWAP1 POP SWAP2 SWAP1 POP JUMP JUMPDEST PUSH0 PUSH2 0x1369 DUP3 PUSH2 0xF0A JUMP JUMPDEST SWAP2 POP PUSH1 0xFF DUP3 SUB PUSH2 0x137C JUMPI PUSH2 0x137B PUSH2 0x12EB JUMP JUMPDEST JUMPDEST PUSH1 0x1 DUP3 ADD SWAP1 POP SWAP2 SWAP1 POP JUMP INVALID LOG2 PUSH5 0x6970667358 0x22 SLT KECCAK256 DUP1 SWAP14 JUMPDEST 0xA7 LOG2 COINBASE PUSH3 0x7ED743 PUSH25 0x88E9D35CACE5F6DCB63E27CBB444232867D651E66E64736F6C PUSH4 0x43000814 STOP CALLER "},"gasEstimates":{"creation":{"codeDepositCost":"1010600","executionCost":"infinite","totalCost":"infinite"},"external":{"creator()":"2528","deadline()":"2492","description()":"infinite","getResults()":"infinite","giveRightToVote(address)":"33329","hasVoted(address)":"2971","isDeadlineExpired()":"2443","proposals(uint256)":"infinite","topic()":"infinite","vote(uint8)":"84440","voters(address)":"infinite","winnerName()":"infinite"}},"methodIdentifiers":{"creator()":"02d05d3f","deadline()":"29dcb0cf","description()":"7284e416","getResults()":"4717f97c","giveRightToVote(address)":"9e7b8d61","hasVoted(address)":"09eef43e","isDeadlineExpired()":"9145a7fc","proposals(uint256)":"013cf08b","topic()":"bf63a577","vote(uint8)":"b3f98adc","voters(address)":"a3ec138d","winnerName()":"e2ba53f0"}},"storageLayout":{"storage":[{"astId":403,"contract":"SimplePoll.sol:PrivatePoll","label":"creator","offset":0,"slot":"0","type":"t_address"},{"astId":430,"contract":"SimplePoll.sol:PrivatePoll","label":"topic","offset":0,"slot":"1","type":"t_string_storage"},{"astId":432,"contract":"SimplePoll.sol:PrivatePoll","label":"description","offset":0,"slot":"2","type":"t_string_storage"},{"astId":434,"contract":"SimplePoll.sol:PrivatePoll","label":"deadline","offset":0,"slot":"3","type":"t_uint256"},{"astId":438,"contract":"SimplePoll.sol:PrivatePoll","label":"proposals","offset":0,"slot":"4","type":"t_array(t_struct(Proposal)385_storage)dyn_storage"},{"astId":443,"contract":"SimplePoll.sol:PrivatePoll","label":"voters","offset":0,"slot":"5","type":"t_mapping(t_address,t_struct(Voter)380_storage)"}],"types":{"t_address":{"encoding":"inplace","label":"address","numberOfBytes":"20"},"t_array(t_struct(Proposal)385_storage)dyn_storage":{"base":"t_struct(Proposal)385_storage","encoding":"dynamic_array","label":"struct SharedStructs.Proposal[]","numberOfBytes":"32"},"t_bool":{"encoding":"inplace","label":"bool","numberOfBytes":"1"},"t_mapping(t_address,t_struct(Voter)380_storage)":{"encoding":"mapping","key":"t_address","label":"mapping(address => struct SharedStructs.Voter)","numberOfBytes":"32","value":"t_struct(Voter)380_storage"},"t_string_storage":{"encoding":"bytes","label":"string","numberOfBytes":"32"},"t_struct(Proposal)385_storage":{"encoding":"inplace","label":"struct SharedStructs.Proposal","members":[{"astId":382,"contract":"SimplePoll.sol:PrivatePoll","label":"name","offset":0,"slot":"0","type":"t_string_storage"},{"astId":384,"contract":"SimplePoll.sol:PrivatePoll","label":"voteCount","offset":0,"slot":"1","type":"t_uint256"}],"numberOfBytes":"64"},"t_struct(Voter)380_storage":{"encoding":"inplace","label":"struct SharedStructs.Voter","members":[{"astId":371,"contract":"SimplePoll.sol:PrivatePoll","label":"canVote","offset":0,"slot":"0","type":"t_bool"},{"astId":373,"contract":"SimplePoll.sol:PrivatePoll","label":"voted","offset":1,"slot":"0","type":"t_bool"},{"astId":375,"contract":"SimplePoll.sol:PrivatePoll","label":"vote","offset":2,"slot":"0","type":"t_uint8"},{"astId":377,"contract":"SimplePoll.sol:PrivatePoll","label":"delegatingVotesNumber","offset":0,"slot":"1","type":"t_uint256"},{"astId":379,"contract":"SimplePoll.sol:PrivatePoll","label":"delegate","offset":0,"slot":"2","type":"t_address"}],"numberOfBytes":"96"},"t_uint256":{"encoding":"inplace","label":"uint256","numberOfBytes":"32"},"t_uint8":{"encoding":"inplace","label":"uint8","numberOfBytes":"1"}}},"userdoc":{"kind":"user","methods":{},"version":1}}