{"abi":[{"inputs":[{"internalType":"address","name":"_creator","type":"address"},{"internalType":"string","name":"subject","type":"string"},{"internalType":"string","name":"descr","type":"string"},{"internalType":"string[]","name":"proposalNames","type":"string[]"},{"internalType":"uint256","name":"duration","type":"uint256"}],"stateMutability":"nonpayable","type":"constructor"},{"anonymous":false,"inputs":[{"indexed":true,"internalType":"uint256","name":"date","type":"uint256"},{"indexed":true,"internalType":"address","name":"_from","type":"address"},{"indexed":true,"internalType":"address","name":"_to","type":"address"}],"name":"Delegating","type":"event"},{"inputs":[],"name":"creator","outputs":[{"internalType":"address","name":"","type":"address"}],"stateMutability":"view","type":"function"},{"inputs":[],"name":"deadline","outputs":[{"internalType":"uint256","name":"","type":"uint256"}],"stateMutability":"view","type":"function"},{"inputs":[{"internalType":"address","name":"to","type":"address"}],"name":"delegate","outputs":[],"stateMutability":"nonpayable","type":"function"},{"inputs":[],"name":"description","outputs":[{"internalType":"string","name":"","type":"string"}],"stateMutability":"view","type":"function"},{"inputs":[],"name":"getResults","outputs":[{"components":[{"internalType":"string","name":"name","type":"string"},{"internalType":"uint256","name":"voteCount","type":"uint256"}],"internalType":"struct SharedStructs.Proposal[]","name":"","type":"tuple[]"}],"stateMutability":"view","type":"function"},{"inputs":[{"internalType":"address","name":"voter","type":"address"}],"name":"hasVoted","outputs":[{"internalType":"bool","name":"","type":"bool"}],"stateMutability":"view","type":"function"},{"inputs":[],"name":"isDeadlineExpired","outputs":[{"internalType":"bool","name":"","type":"bool"}],"stateMutability":"view","type":"function"},{"inputs":[{"internalType":"uint256","name":"","type":"uint256"}],"name":"proposals","outputs":[{"internalType":"string","name":"name","type":"string"},{"internalType":"uint256","name":"voteCount","type":"uint256"}],"stateMutability":"view","type":"function"},{"inputs":[],"name":"topic","outputs":[{"internalType":"string","name":"","type":"string"}],"stateMutability":"view","type":"function"},{"inputs":[{"internalType":"uint8","name":"proposalIndex","type":"uint8"}],"name":"vote","outputs":[],"stateMutability":"nonpayable","type":"function"},{"inputs":[{"internalType":"address","name":"","type":"address"}],"name":"voters","outputs":[{"internalType":"bool","name":"canVote","type":"bool"},{"internalType":"bool","name":"voted","type":"bool"},{"internalType":"uint8","name":"vote","type":"uint8"},{"internalType":"uint256","name":"delegatingVotesNumber","type":"uint256"},{"internalType":"address","name":"delegate","type":"address"}],"stateMutability":"view","type":"function"},{"inputs":[],"name":"winnerName","outputs":[{"internalType":"string","name":"","type":"string"}],"stateMutability":"view","type":"function"}],"devdoc":{"kind":"dev","methods":{},"version":1},"evm":{"assembly":"    /* \"SimplePoll.sol\":3890:5480  contract PublicPoll is SimplePoll {... */\n  mstore(0x40, 0x80)\n    /* \"SimplePoll.sol\":3931:4121  constructor(address _creator, string memory subject, string memory descr, string[] memory proposalNames, uint duration) ... */\n  callvalue\n  dup1\n  iszero\n  tag_1\n  jumpi\n  0x00\n  dup1\n  revert\ntag_1:\n  pop\n  mload(0x40)\n  sub(codesize, bytecodeSize)\n  dup1\n  bytecodeSize\n  dup4\n  codecopy\n  dup2\n  dup2\n  add\n  0x40\n  mstore\n  dup2\n  add\n  swap1\n  tag_2\n  swap2\n  swap1\n  tag_3\n  jump\t// in\ntag_2:\n    /* \"SimplePoll.sol\":4068:4076  _creator */\n  dup5\n    /* \"SimplePoll.sol\":4078:4085  subject */\n  dup5\n    /* \"SimplePoll.sol\":4087:4092  descr */\n  dup5\n    /* \"SimplePoll.sol\":4094:4107  proposalNames */\n  dup5\n    /* \"SimplePoll.sol\":4109:4117  duration */\n  dup5\n    /* \"SimplePoll.sol\":1601:1609  _creator */\n  dup5\n    /* \"SimplePoll.sol\":636:644  _creator */\n  dup1\n    /* \"SimplePoll.sol\":626:633  creator */\n  0x00\n  dup1\n    /* \"SimplePoll.sol\":626:644  creator = _creator */\n  0x0100\n  exp\n  dup2\n  sload\n  dup2\n  0xffffffffffffffffffffffffffffffffffffffff\n  mul\n  not\n  and\n  swap1\n  dup4\n  0xffffffffffffffffffffffffffffffffffffffff\n  and\n  mul\n  or\n  swap1\n  sstore\n  pop\n    /* \"SimplePoll.sol\":585:652  constructor(address _creator) {... */\n  pop\n    /* \"SimplePoll.sol\":1630:1637  subject */\n  dup4\n    /* \"SimplePoll.sol\":1622:1627  topic */\n  0x01\n    /* \"SimplePoll.sol\":1622:1637  topic = subject */\n  swap1\n  dup2\n  tag_9\n  swap2\n  swap1\n  tag_10\n  jump\t// in\ntag_9:\n  pop\n    /* \"SimplePoll.sol\":1662:1667  descr */\n  dup3\n    /* \"SimplePoll.sol\":1648:1659  description */\n  0x02\n    /* \"SimplePoll.sol\":1648:1667  description = descr */\n  swap1\n  dup2\n  tag_11\n  swap2\n  swap1\n  tag_10\n  jump\t// in\ntag_11:\n  pop\n    /* \"SimplePoll.sol\":1707:1715  duration */\n  dup1\n    /* \"SimplePoll.sol\":1689:1704  block.timestamp */\n  timestamp\n    /* \"SimplePoll.sol\":1689:1715  block.timestamp + duration */\n  tag_12\n  swap2\n  swap1\n  tag_13\n  jump\t// in\ntag_12:\n    /* \"SimplePoll.sol\":1678:1686  deadline */\n  0x03\n    /* \"SimplePoll.sol\":1678:1715  deadline = block.timestamp + duration */\n  dup2\n  swap1\n  sstore\n  pop\n    /* \"SimplePoll.sol\":1731:1738  uint8 i */\n  0x00\n    /* \"SimplePoll.sol\":1726:1929  for (uint8 i = 0; i < proposalNames.length; i++) {... */\ntag_14:\n    /* \"SimplePoll.sol\":1748:1761  proposalNames */\n  dup3\n    /* \"SimplePoll.sol\":1748:1768  proposalNames.length */\n  mload\n    /* \"SimplePoll.sol\":1744:1745  i */\n  dup2\n    /* \"SimplePoll.sol\":1744:1768  i < proposalNames.length */\n  0xff\n  and\n  lt\n    /* \"SimplePoll.sol\":1726:1929  for (uint8 i = 0; i < proposalNames.length; i++) {... */\n  iszero\n  tag_15\n  jumpi\n    /* \"SimplePoll.sol\":1790:1799  proposals */\n  0x04\n    /* \"SimplePoll.sol\":1805:1916  SharedStructs.Proposal({... */\n  mload(0x40)\n  dup1\n  0x40\n  add\n  0x40\n  mstore\n  dup1\n    /* \"SimplePoll.sol\":1853:1866  proposalNames */\n  dup6\n    /* \"SimplePoll.sol\":1867:1868  i */\n  dup5\n    /* \"SimplePoll.sol\":1853:1869  proposalNames[i] */\n  0xff\n  and\n  dup2\n  mload\n  dup2\n  lt\n  tag_17\n  jumpi\n  tag_18\n  tag_19\n  jump\t// in\ntag_18:\ntag_17:\n  0x20\n  mul\n  0x20\n  add\n  add\n  mload\n    /* \"SimplePoll.sol\":1805:1916  SharedStructs.Proposal({... */\n  dup2\n  mstore\n  0x20\n  add\n    /* \"SimplePoll.sol\":1899:1900  0 */\n  0x00\n    /* \"SimplePoll.sol\":1805:1916  SharedStructs.Proposal({... */\n  dup2\n  mstore\n  pop\n    /* \"SimplePoll.sol\":1790:1917  proposals.push(SharedStructs.Proposal({... */\n  swap1\n  dup1\n  0x01\n  dup2\n  sload\n  add\n  dup1\n  dup3\n  sstore\n  dup1\n  swap2\n  pop\n  pop\n  0x01\n  swap1\n  sub\n  swap1\n  0x00\n  mstore\n  keccak256(0x00, 0x20)\n  swap1\n  0x02\n  mul\n  add\n  0x00\n  swap1\n  swap2\n  swap1\n  swap2\n  swap1\n  swap2\n  pop\n  0x00\n  dup3\n  add\n  mload\n  dup2\n  0x00\n  add\n  swap1\n  dup2\n  tag_21\n  swap2\n  swap1\n  tag_10\n  jump\t// in\ntag_21:\n  pop\n  0x20\n  dup3\n  add\n  mload\n  dup2\n  0x01\n  add\n  sstore\n  pop\n  pop\n    /* \"SimplePoll.sol\":1770:1773  i++ */\n  dup1\n  dup1\n  tag_22\n  swap1\n  tag_23\n  jump\t// in\ntag_22:\n  swap2\n  pop\n  pop\n    /* \"SimplePoll.sol\":1726:1929  for (uint8 i = 0; i < proposalNames.length; i++) {... */\n  jump(tag_14)\ntag_15:\n  pop\n    /* \"SimplePoll.sol\":1468:1936  constructor(address _creator, string memory subject, string memory descr, string[] memory proposalNames, uint duration)... */\n  pop\n  pop\n  pop\n  pop\n  pop\n    /* \"SimplePoll.sol\":3931:4121  constructor(address _creator, string memory subject, string memory descr, string[] memory proposalNames, uint duration) ... */\n  pop\n  pop\n  pop\n  pop\n  pop\n    /* \"SimplePoll.sol\":3890:5480  contract PublicPoll is SimplePoll {... */\n  jump(tag_25)\n    /* \"#utility.yul\":7:82   */\ntag_26:\n    /* \"#utility.yul\":40:46   */\n  0x00\n    /* \"#utility.yul\":73:75   */\n  0x40\n    /* \"#utility.yul\":67:76   */\n  mload\n    /* \"#utility.yul\":57:76   */\n  swap1\n  pop\n    /* \"#utility.yul\":7:82   */\n  swap1\n  jump\t// out\n    /* \"#utility.yul\":88:205   */\ntag_27:\n    /* \"#utility.yul\":197:198   */\n  0x00\n    /* \"#utility.yul\":194:195   */\n  dup1\n    /* \"#utility.yul\":187:199   */\n  revert\n    /* \"#utility.yul\":211:328   */\ntag_28:\n    /* \"#utility.yul\":320:321   */\n  0x00\n    /* \"#utility.yul\":317:318   */\n  dup1\n    /* \"#utility.yul\":310:322   */\n  revert\n    /* \"#utility.yul\":334:460   */\ntag_29:\n    /* \"#utility.yul\":371:378   */\n  0x00\n    /* \"#utility.yul\":411:453   */\n  0xffffffffffffffffffffffffffffffffffffffff\n    /* \"#utility.yul\":404:409   */\n  dup3\n    /* \"#utility.yul\":400:454   */\n  and\n    /* \"#utility.yul\":389:454   */\n  swap1\n  pop\n    /* \"#utility.yul\":334:460   */\n  swap2\n  swap1\n  pop\n  jump\t// out\n    /* \"#utility.yul\":466:562   */\ntag_30:\n    /* \"#utility.yul\":503:510   */\n  0x00\n    /* \"#utility.yul\":532:556   */\n  tag_76\n    /* \"#utility.yul\":550:555   */\n  dup3\n    /* \"#utility.yul\":532:556   */\n  tag_29\n  jump\t// in\ntag_76:\n    /* \"#utility.yul\":521:556   */\n  swap1\n  pop\n    /* \"#utility.yul\":466:562   */\n  swap2\n  swap1\n  pop\n  jump\t// out\n    /* \"#utility.yul\":568:690   */\ntag_31:\n    /* \"#utility.yul\":641:665   */\n  tag_78\n    /* \"#utility.yul\":659:664   */\n  dup2\n    /* \"#utility.yul\":641:665   */\n  tag_30\n  jump\t// in\ntag_78:\n    /* \"#utility.yul\":634:639   */\n  dup2\n    /* \"#utility.yul\":631:666   */\n  eq\n    /* \"#utility.yul\":621:684   */\n  tag_79\n  jumpi\n    /* \"#utility.yul\":680:681   */\n  0x00\n    /* \"#utility.yul\":677:678   */\n  dup1\n    /* \"#utility.yul\":670:682   */\n  revert\n    /* \"#utility.yul\":621:684   */\ntag_79:\n    /* \"#utility.yul\":568:690   */\n  pop\n  jump\t// out\n    /* \"#utility.yul\":696:839   */\ntag_32:\n    /* \"#utility.yul\":753:758   */\n  0x00\n    /* \"#utility.yul\":784:790   */\n  dup2\n    /* \"#utility.yul\":778:791   */\n  mload\n    /* \"#utility.yul\":769:791   */\n  swap1\n  pop\n    /* \"#utility.yul\":800:833   */\n  tag_81\n    /* \"#utility.yul\":827:832   */\n  dup2\n    /* \"#utility.yul\":800:833   */\n  tag_31\n  jump\t// in\ntag_81:\n    /* \"#utility.yul\":696:839   */\n  swap3\n  swap2\n  pop\n  pop\n  jump\t// out\n    /* \"#utility.yul\":845:962   */\ntag_33:\n    /* \"#utility.yul\":954:955   */\n  0x00\n    /* \"#utility.yul\":951:952   */\n  dup1\n    /* \"#utility.yul\":944:956   */\n  revert\n    /* \"#utility.yul\":968:1085   */\ntag_34:\n    /* \"#utility.yul\":1077:1078   */\n  0x00\n    /* \"#utility.yul\":1074:1075   */\n  dup1\n    /* \"#utility.yul\":1067:1079   */\n  revert\n    /* \"#utility.yul\":1091:1193   */\ntag_35:\n    /* \"#utility.yul\":1132:1138   */\n  0x00\n    /* \"#utility.yul\":1183:1185   */\n  0x1f\n    /* \"#utility.yul\":1179:1186   */\n  not\n    /* \"#utility.yul\":1174:1176   */\n  0x1f\n    /* \"#utility.yul\":1167:1172   */\n  dup4\n    /* \"#utility.yul\":1163:1177   */\n  add\n    /* \"#utility.yul\":1159:1187   */\n  and\n    /* \"#utility.yul\":1149:1187   */\n  swap1\n  pop\n    /* \"#utility.yul\":1091:1193   */\n  swap2\n  swap1\n  pop\n  jump\t// out\n    /* \"#utility.yul\":1199:1379   */\ntag_36:\n    /* \"#utility.yul\":1247:1324   */\n  0x4e487b7100000000000000000000000000000000000000000000000000000000\n    /* \"#utility.yul\":1244:1245   */\n  0x00\n    /* \"#utility.yul\":1237:1325   */\n  mstore\n    /* \"#utility.yul\":1344:1348   */\n  0x41\n    /* \"#utility.yul\":1341:1342   */\n  0x04\n    /* \"#utility.yul\":1334:1349   */\n  mstore\n    /* \"#utility.yul\":1368:1372   */\n  0x24\n    /* \"#utility.yul\":1365:1366   */\n  0x00\n    /* \"#utility.yul\":1358:1373   */\n  revert\n    /* \"#utility.yul\":1385:1666   */\ntag_37:\n    /* \"#utility.yul\":1468:1495   */\n  tag_87\n    /* \"#utility.yul\":1490:1494   */\n  dup3\n    /* \"#utility.yul\":1468:1495   */\n  tag_35\n  jump\t// in\ntag_87:\n    /* \"#utility.yul\":1460:1466   */\n  dup2\n    /* \"#utility.yul\":1456:1496   */\n  add\n    /* \"#utility.yul\":1598:1604   */\n  dup2\n    /* \"#utility.yul\":1586:1596   */\n  dup2\n    /* \"#utility.yul\":1583:1605   */\n  lt\n    /* \"#utility.yul\":1562:1580   */\n  0xffffffffffffffff\n    /* \"#utility.yul\":1550:1560   */\n  dup3\n    /* \"#utility.yul\":1547:1581   */\n  gt\n    /* \"#utility.yul\":1544:1606   */\n  or\n    /* \"#utility.yul\":1541:1629   */\n  iszero\n  tag_88\n  jumpi\n    /* \"#utility.yul\":1609:1627   */\n  tag_89\n  tag_36\n  jump\t// in\ntag_89:\n    /* \"#utility.yul\":1541:1629   */\ntag_88:\n    /* \"#utility.yul\":1649:1659   */\n  dup1\n    /* \"#utility.yul\":1645:1647   */\n  0x40\n    /* \"#utility.yul\":1638:1660   */\n  mstore\n    /* \"#utility.yul\":1428:1666   */\n  pop\n    /* \"#utility.yul\":1385:1666   */\n  pop\n  pop\n  jump\t// out\n    /* \"#utility.yul\":1672:1801   */\ntag_38:\n    /* \"#utility.yul\":1706:1712   */\n  0x00\n    /* \"#utility.yul\":1733:1753   */\n  tag_91\n  tag_26\n  jump\t// in\ntag_91:\n    /* \"#utility.yul\":1723:1753   */\n  swap1\n  pop\n    /* \"#utility.yul\":1762:1795   */\n  tag_92\n    /* \"#utility.yul\":1790:1794   */\n  dup3\n    /* \"#utility.yul\":1782:1788   */\n  dup3\n    /* \"#utility.yul\":1762:1795   */\n  tag_37\n  jump\t// in\ntag_92:\n    /* \"#utility.yul\":1672:1801   */\n  swap2\n  swap1\n  pop\n  jump\t// out\n    /* \"#utility.yul\":1807:2115   */\ntag_39:\n    /* \"#utility.yul\":1869:1873   */\n  0x00\n    /* \"#utility.yul\":1959:1977   */\n  0xffffffffffffffff\n    /* \"#utility.yul\":1951:1957   */\n  dup3\n    /* \"#utility.yul\":1948:1978   */\n  gt\n    /* \"#utility.yul\":1945:2001   */\n  iszero\n  tag_94\n  jumpi\n    /* \"#utility.yul\":1981:1999   */\n  tag_95\n  tag_36\n  jump\t// in\ntag_95:\n    /* \"#utility.yul\":1945:2001   */\ntag_94:\n    /* \"#utility.yul\":2019:2048   */\n  tag_96\n    /* \"#utility.yul\":2041:2047   */\n  dup3\n    /* \"#utility.yul\":2019:2048   */\n  tag_35\n  jump\t// in\ntag_96:\n    /* \"#utility.yul\":2011:2048   */\n  swap1\n  pop\n    /* \"#utility.yul\":2103:2107   */\n  0x20\n    /* \"#utility.yul\":2097:2101   */\n  dup2\n    /* \"#utility.yul\":2093:2108   */\n  add\n    /* \"#utility.yul\":2085:2108   */\n  swap1\n  pop\n    /* \"#utility.yul\":1807:2115   */\n  swap2\n  swap1\n  pop\n  jump\t// out\n    /* \"#utility.yul\":2121:2367   */\ntag_40:\n    /* \"#utility.yul\":2202:2203   */\n  0x00\n    /* \"#utility.yul\":2212:2325   */\ntag_98:\n    /* \"#utility.yul\":2226:2232   */\n  dup4\n    /* \"#utility.yul\":2223:2224   */\n  dup2\n    /* \"#utility.yul\":2220:2233   */\n  lt\n    /* \"#utility.yul\":2212:2325   */\n  iszero\n  tag_100\n  jumpi\n    /* \"#utility.yul\":2311:2312   */\n  dup1\n    /* \"#utility.yul\":2306:2309   */\n  dup3\n    /* \"#utility.yul\":2302:2313   */\n  add\n    /* \"#utility.yul\":2296:2314   */\n  mload\n    /* \"#utility.yul\":2292:2293   */\n  dup2\n    /* \"#utility.yul\":2287:2290   */\n  dup5\n    /* \"#utility.yul\":2283:2294   */\n  add\n    /* \"#utility.yul\":2276:2315   */\n  mstore\n    /* \"#utility.yul\":2248:2250   */\n  0x20\n    /* \"#utility.yul\":2245:2246   */\n  dup2\n    /* \"#utility.yul\":2241:2251   */\n  add\n    /* \"#utility.yul\":2236:2251   */\n  swap1\n  pop\n    /* \"#utility.yul\":2212:2325   */\n  jump(tag_98)\ntag_100:\n    /* \"#utility.yul\":2359:2360   */\n  0x00\n    /* \"#utility.yul\":2350:2356   */\n  dup5\n    /* \"#utility.yul\":2345:2348   */\n  dup5\n    /* \"#utility.yul\":2341:2357   */\n  add\n    /* \"#utility.yul\":2334:2361   */\n  mstore\n    /* \"#utility.yul\":2183:2367   */\n  pop\n    /* \"#utility.yul\":2121:2367   */\n  pop\n  pop\n  pop\n  jump\t// out\n    /* \"#utility.yul\":2373:2807   */\ntag_41:\n    /* \"#utility.yul\":2462:2467   */\n  0x00\n    /* \"#utility.yul\":2487:2553   */\n  tag_102\n    /* \"#utility.yul\":2503:2552   */\n  tag_103\n    /* \"#utility.yul\":2545:2551   */\n  dup5\n    /* \"#utility.yul\":2503:2552   */\n  tag_39\n  jump\t// in\ntag_103:\n    /* \"#utility.yul\":2487:2553   */\n  tag_38\n  jump\t// in\ntag_102:\n    /* \"#utility.yul\":2478:2553   */\n  swap1\n  pop\n    /* \"#utility.yul\":2576:2582   */\n  dup3\n    /* \"#utility.yul\":2569:2574   */\n  dup2\n    /* \"#utility.yul\":2562:2583   */\n  mstore\n    /* \"#utility.yul\":2614:2618   */\n  0x20\n    /* \"#utility.yul\":2607:2612   */\n  dup2\n    /* \"#utility.yul\":2603:2619   */\n  add\n    /* \"#utility.yul\":2652:2655   */\n  dup5\n    /* \"#utility.yul\":2643:2649   */\n  dup5\n    /* \"#utility.yul\":2638:2641   */\n  dup5\n    /* \"#utility.yul\":2634:2650   */\n  add\n    /* \"#utility.yul\":2631:2656   */\n  gt\n    /* \"#utility.yul\":2628:2740   */\n  iszero\n  tag_104\n  jumpi\n    /* \"#utility.yul\":2659:2738   */\n  tag_105\n  tag_34\n  jump\t// in\ntag_105:\n    /* \"#utility.yul\":2628:2740   */\ntag_104:\n    /* \"#utility.yul\":2749:2801   */\n  tag_106\n    /* \"#utility.yul\":2794:2800   */\n  dup5\n    /* \"#utility.yul\":2789:2792   */\n  dup3\n    /* \"#utility.yul\":2784:2787   */\n  dup6\n    /* \"#utility.yul\":2749:2801   */\n  tag_40\n  jump\t// in\ntag_106:\n    /* \"#utility.yul\":2468:2807   */\n  pop\n    /* \"#utility.yul\":2373:2807   */\n  swap4\n  swap3\n  pop\n  pop\n  pop\n  jump\t// out\n    /* \"#utility.yul\":2827:3182   */\ntag_42:\n    /* \"#utility.yul\":2894:2899   */\n  0x00\n    /* \"#utility.yul\":2943:2946   */\n  dup3\n    /* \"#utility.yul\":2936:2940   */\n  0x1f\n    /* \"#utility.yul\":2928:2934   */\n  dup4\n    /* \"#utility.yul\":2924:2941   */\n  add\n    /* \"#utility.yul\":2920:2947   */\n  slt\n    /* \"#utility.yul\":2910:3032   */\n  tag_108\n  jumpi\n    /* \"#utility.yul\":2951:3030   */\n  tag_109\n  tag_33\n  jump\t// in\ntag_109:\n    /* \"#utility.yul\":2910:3032   */\ntag_108:\n    /* \"#utility.yul\":3061:3067   */\n  dup2\n    /* \"#utility.yul\":3055:3068   */\n  mload\n    /* \"#utility.yul\":3086:3176   */\n  tag_110\n    /* \"#utility.yul\":3172:3175   */\n  dup5\n    /* \"#utility.yul\":3164:3170   */\n  dup3\n    /* \"#utility.yul\":3157:3161   */\n  0x20\n    /* \"#utility.yul\":3149:3155   */\n  dup7\n    /* \"#utility.yul\":3145:3162   */\n  add\n    /* \"#utility.yul\":3086:3176   */\n  tag_41\n  jump\t// in\ntag_110:\n    /* \"#utility.yul\":3077:3176   */\n  swap2\n  pop\n    /* \"#utility.yul\":2900:3182   */\n  pop\n    /* \"#utility.yul\":2827:3182   */\n  swap3\n  swap2\n  pop\n  pop\n  jump\t// out\n    /* \"#utility.yul\":3188:3509   */\ntag_43:\n    /* \"#utility.yul\":3275:3279   */\n  0x00\n    /* \"#utility.yul\":3365:3383   */\n  0xffffffffffffffff\n    /* \"#utility.yul\":3357:3363   */\n  dup3\n    /* \"#utility.yul\":3354:3384   */\n  gt\n    /* \"#utility.yul\":3351:3407   */\n  iszero\n  tag_112\n  jumpi\n    /* \"#utility.yul\":3387:3405   */\n  tag_113\n  tag_36\n  jump\t// in\ntag_113:\n    /* \"#utility.yul\":3351:3407   */\ntag_112:\n    /* \"#utility.yul\":3437:3441   */\n  0x20\n    /* \"#utility.yul\":3429:3435   */\n  dup3\n    /* \"#utility.yul\":3425:3442   */\n  mul\n    /* \"#utility.yul\":3417:3442   */\n  swap1\n  pop\n    /* \"#utility.yul\":3497:3501   */\n  0x20\n    /* \"#utility.yul\":3491:3495   */\n  dup2\n    /* \"#utility.yul\":3487:3502   */\n  add\n    /* \"#utility.yul\":3479:3502   */\n  swap1\n  pop\n    /* \"#utility.yul\":3188:3509   */\n  swap2\n  swap1\n  pop\n  jump\t// out\n    /* \"#utility.yul\":3515:3632   */\ntag_44:\n    /* \"#utility.yul\":3624:3625   */\n  0x00\n    /* \"#utility.yul\":3621:3622   */\n  dup1\n    /* \"#utility.yul\":3614:3626   */\n  revert\n    /* \"#utility.yul\":3654:4614   */\ntag_45:\n    /* \"#utility.yul\":3771:3776   */\n  0x00\n    /* \"#utility.yul\":3796:3887   */\n  tag_116\n    /* \"#utility.yul\":3812:3886   */\n  tag_117\n    /* \"#utility.yul\":3879:3885   */\n  dup5\n    /* \"#utility.yul\":3812:3886   */\n  tag_43\n  jump\t// in\ntag_117:\n    /* \"#utility.yul\":3796:3887   */\n  tag_38\n  jump\t// in\ntag_116:\n    /* \"#utility.yul\":3787:3887   */\n  swap1\n  pop\n    /* \"#utility.yul\":3907:3912   */\n  dup1\n    /* \"#utility.yul\":3936:3942   */\n  dup4\n    /* \"#utility.yul\":3929:3934   */\n  dup3\n    /* \"#utility.yul\":3922:3943   */\n  mstore\n    /* \"#utility.yul\":3970:3974   */\n  0x20\n    /* \"#utility.yul\":3963:3968   */\n  dup3\n    /* \"#utility.yul\":3959:3975   */\n  add\n    /* \"#utility.yul\":3952:3975   */\n  swap1\n  pop\n    /* \"#utility.yul\":4023:4027   */\n  0x20\n    /* \"#utility.yul\":4015:4021   */\n  dup5\n    /* \"#utility.yul\":4011:4028   */\n  mul\n    /* \"#utility.yul\":4003:4009   */\n  dup4\n    /* \"#utility.yul\":3999:4029   */\n  add\n    /* \"#utility.yul\":4052:4055   */\n  dup6\n    /* \"#utility.yul\":4044:4050   */\n  dup2\n    /* \"#utility.yul\":4041:4056   */\n  gt\n    /* \"#utility.yul\":4038:4160   */\n  iszero\n  tag_118\n  jumpi\n    /* \"#utility.yul\":4071:4150   */\n  tag_119\n  tag_44\n  jump\t// in\ntag_119:\n    /* \"#utility.yul\":4038:4160   */\ntag_118:\n    /* \"#utility.yul\":4186:4192   */\n  dup4\n    /* \"#utility.yul\":4169:4608   */\ntag_120:\n    /* \"#utility.yul\":4203:4209   */\n  dup2\n    /* \"#utility.yul\":4198:4201   */\n  dup2\n    /* \"#utility.yul\":4195:4210   */\n  lt\n    /* \"#utility.yul\":4169:4608   */\n  iszero\n  tag_122\n  jumpi\n    /* \"#utility.yul\":4285:4288   */\n  dup1\n    /* \"#utility.yul\":4279:4289   */\n  mload\n    /* \"#utility.yul\":4321:4339   */\n  0xffffffffffffffff\n    /* \"#utility.yul\":4308:4319   */\n  dup2\n    /* \"#utility.yul\":4305:4340   */\n  gt\n    /* \"#utility.yul\":4302:4424   */\n  iszero\n  tag_123\n  jumpi\n    /* \"#utility.yul\":4343:4422   */\n  tag_124\n  tag_33\n  jump\t// in\ntag_124:\n    /* \"#utility.yul\":4302:4424   */\ntag_123:\n    /* \"#utility.yul\":4467:4478   */\n  dup1\n    /* \"#utility.yul\":4459:4465   */\n  dup7\n    /* \"#utility.yul\":4455:4479   */\n  add\n    /* \"#utility.yul\":4505:4563   */\n  tag_125\n    /* \"#utility.yul\":4559:4562   */\n  dup10\n    /* \"#utility.yul\":4547:4557   */\n  dup3\n    /* \"#utility.yul\":4505:4563   */\n  tag_42\n  jump\t// in\ntag_125:\n    /* \"#utility.yul\":4500:4503   */\n  dup6\n    /* \"#utility.yul\":4493:4564   */\n  mstore\n    /* \"#utility.yul\":4593:4597   */\n  0x20\n    /* \"#utility.yul\":4588:4591   */\n  dup6\n    /* \"#utility.yul\":4584:4598   */\n  add\n    /* \"#utility.yul\":4577:4598   */\n  swap5\n  pop\n    /* \"#utility.yul\":4245:4608   */\n  pop\n  pop\n    /* \"#utility.yul\":4229:4233   */\n  0x20\n    /* \"#utility.yul\":4224:4227   */\n  dup2\n    /* \"#utility.yul\":4220:4234   */\n  add\n    /* \"#utility.yul\":4213:4234   */\n  swap1\n  pop\n    /* \"#utility.yul\":4169:4608   */\n  jump(tag_120)\ntag_122:\n    /* \"#utility.yul\":4173:4194   */\n  pop\n    /* \"#utility.yul\":3777:4614   */\n  pop\n  pop\n    /* \"#utility.yul\":3654:4614   */\n  swap4\n  swap3\n  pop\n  pop\n  pop\n  jump\t// out\n    /* \"#utility.yul\":4636:5041   */\ntag_46:\n    /* \"#utility.yul\":4728:4733   */\n  0x00\n    /* \"#utility.yul\":4777:4780   */\n  dup3\n    /* \"#utility.yul\":4770:4774   */\n  0x1f\n    /* \"#utility.yul\":4762:4768   */\n  dup4\n    /* \"#utility.yul\":4758:4775   */\n  add\n    /* \"#utility.yul\":4754:4781   */\n  slt\n    /* \"#utility.yul\":4744:4866   */\n  tag_127\n  jumpi\n    /* \"#utility.yul\":4785:4864   */\n  tag_128\n  tag_33\n  jump\t// in\ntag_128:\n    /* \"#utility.yul\":4744:4866   */\ntag_127:\n    /* \"#utility.yul\":4895:4901   */\n  dup2\n    /* \"#utility.yul\":4889:4902   */\n  mload\n    /* \"#utility.yul\":4920:5035   */\n  tag_129\n    /* \"#utility.yul\":5031:5034   */\n  dup5\n    /* \"#utility.yul\":5023:5029   */\n  dup3\n    /* \"#utility.yul\":5016:5020   */\n  0x20\n    /* \"#utility.yul\":5008:5014   */\n  dup7\n    /* \"#utility.yul\":5004:5021   */\n  add\n    /* \"#utility.yul\":4920:5035   */\n  tag_45\n  jump\t// in\ntag_129:\n    /* \"#utility.yul\":4911:5035   */\n  swap2\n  pop\n    /* \"#utility.yul\":4734:5041   */\n  pop\n    /* \"#utility.yul\":4636:5041   */\n  swap3\n  swap2\n  pop\n  pop\n  jump\t// out\n    /* \"#utility.yul\":5047:5124   */\ntag_47:\n    /* \"#utility.yul\":5084:5091   */\n  0x00\n    /* \"#utility.yul\":5113:5118   */\n  dup2\n    /* \"#utility.yul\":5102:5118   */\n  swap1\n  pop\n    /* \"#utility.yul\":5047:5124   */\n  swap2\n  swap1\n  pop\n  jump\t// out\n    /* \"#utility.yul\":5130:5252   */\ntag_48:\n    /* \"#utility.yul\":5203:5227   */\n  tag_132\n    /* \"#utility.yul\":5221:5226   */\n  dup2\n    /* \"#utility.yul\":5203:5227   */\n  tag_47\n  jump\t// in\ntag_132:\n    /* \"#utility.yul\":5196:5201   */\n  dup2\n    /* \"#utility.yul\":5193:5228   */\n  eq\n    /* \"#utility.yul\":5183:5246   */\n  tag_133\n  jumpi\n    /* \"#utility.yul\":5242:5243   */\n  0x00\n    /* \"#utility.yul\":5239:5240   */\n  dup1\n    /* \"#utility.yul\":5232:5244   */\n  revert\n    /* \"#utility.yul\":5183:5246   */\ntag_133:\n    /* \"#utility.yul\":5130:5252   */\n  pop\n  jump\t// out\n    /* \"#utility.yul\":5258:5401   */\ntag_49:\n    /* \"#utility.yul\":5315:5320   */\n  0x00\n    /* \"#utility.yul\":5346:5352   */\n  dup2\n    /* \"#utility.yul\":5340:5353   */\n  mload\n    /* \"#utility.yul\":5331:5353   */\n  swap1\n  pop\n    /* \"#utility.yul\":5362:5395   */\n  tag_135\n    /* \"#utility.yul\":5389:5394   */\n  dup2\n    /* \"#utility.yul\":5362:5395   */\n  tag_48\n  jump\t// in\ntag_135:\n    /* \"#utility.yul\":5258:5401   */\n  swap3\n  swap2\n  pop\n  pop\n  jump\t// out\n    /* \"#utility.yul\":5407:6953   */\ntag_3:\n    /* \"#utility.yul\":5568:5574   */\n  0x00\n    /* \"#utility.yul\":5576:5582   */\n  dup1\n    /* \"#utility.yul\":5584:5590   */\n  0x00\n    /* \"#utility.yul\":5592:5598   */\n  dup1\n    /* \"#utility.yul\":5600:5606   */\n  0x00\n    /* \"#utility.yul\":5649:5652   */\n  0xa0\n    /* \"#utility.yul\":5637:5646   */\n  dup7\n    /* \"#utility.yul\":5628:5635   */\n  dup9\n    /* \"#utility.yul\":5624:5647   */\n  sub\n    /* \"#utility.yul\":5620:5653   */\n  slt\n    /* \"#utility.yul\":5617:5737   */\n  iszero\n  tag_137\n  jumpi\n    /* \"#utility.yul\":5656:5735   */\n  tag_138\n  tag_27\n  jump\t// in\ntag_138:\n    /* \"#utility.yul\":5617:5737   */\ntag_137:\n    /* \"#utility.yul\":5776:5777   */\n  0x00\n    /* \"#utility.yul\":5801:5865   */\n  tag_139\n    /* \"#utility.yul\":5857:5864   */\n  dup9\n    /* \"#utility.yul\":5848:5854   */\n  dup3\n    /* \"#utility.yul\":5837:5846   */\n  dup10\n    /* \"#utility.yul\":5833:5855   */\n  add\n    /* \"#utility.yul\":5801:5865   */\n  tag_32\n  jump\t// in\ntag_139:\n    /* \"#utility.yul\":5791:5865   */\n  swap6\n  pop\n    /* \"#utility.yul\":5747:5875   */\n  pop\n    /* \"#utility.yul\":5935:5937   */\n  0x20\n    /* \"#utility.yul\":5924:5933   */\n  dup7\n    /* \"#utility.yul\":5920:5938   */\n  add\n    /* \"#utility.yul\":5914:5939   */\n  mload\n    /* \"#utility.yul\":5966:5984   */\n  0xffffffffffffffff\n    /* \"#utility.yul\":5958:5964   */\n  dup2\n    /* \"#utility.yul\":5955:5985   */\n  gt\n    /* \"#utility.yul\":5952:6069   */\n  iszero\n  tag_140\n  jumpi\n    /* \"#utility.yul\":5988:6067   */\n  tag_141\n  tag_28\n  jump\t// in\ntag_141:\n    /* \"#utility.yul\":5952:6069   */\ntag_140:\n    /* \"#utility.yul\":6093:6167   */\n  tag_142\n    /* \"#utility.yul\":6159:6166   */\n  dup9\n    /* \"#utility.yul\":6150:6156   */\n  dup3\n    /* \"#utility.yul\":6139:6148   */\n  dup10\n    /* \"#utility.yul\":6135:6157   */\n  add\n    /* \"#utility.yul\":6093:6167   */\n  tag_42\n  jump\t// in\ntag_142:\n    /* \"#utility.yul\":6083:6167   */\n  swap5\n  pop\n    /* \"#utility.yul\":5885:6177   */\n  pop\n    /* \"#utility.yul\":6237:6239   */\n  0x40\n    /* \"#utility.yul\":6226:6235   */\n  dup7\n    /* \"#utility.yul\":6222:6240   */\n  add\n    /* \"#utility.yul\":6216:6241   */\n  mload\n    /* \"#utility.yul\":6268:6286   */\n  0xffffffffffffffff\n    /* \"#utility.yul\":6260:6266   */\n  dup2\n    /* \"#utility.yul\":6257:6287   */\n  gt\n    /* \"#utility.yul\":6254:6371   */\n  iszero\n  tag_143\n  jumpi\n    /* \"#utility.yul\":6290:6369   */\n  tag_144\n  tag_28\n  jump\t// in\ntag_144:\n    /* \"#utility.yul\":6254:6371   */\ntag_143:\n    /* \"#utility.yul\":6395:6469   */\n  tag_145\n    /* \"#utility.yul\":6461:6468   */\n  dup9\n    /* \"#utility.yul\":6452:6458   */\n  dup3\n    /* \"#utility.yul\":6441:6450   */\n  dup10\n    /* \"#utility.yul\":6437:6459   */\n  add\n    /* \"#utility.yul\":6395:6469   */\n  tag_42\n  jump\t// in\ntag_145:\n    /* \"#utility.yul\":6385:6469   */\n  swap4\n  pop\n    /* \"#utility.yul\":6187:6479   */\n  pop\n    /* \"#utility.yul\":6539:6541   */\n  0x60\n    /* \"#utility.yul\":6528:6537   */\n  dup7\n    /* \"#utility.yul\":6524:6542   */\n  add\n    /* \"#utility.yul\":6518:6543   */\n  mload\n    /* \"#utility.yul\":6570:6588   */\n  0xffffffffffffffff\n    /* \"#utility.yul\":6562:6568   */\n  dup2\n    /* \"#utility.yul\":6559:6589   */\n  gt\n    /* \"#utility.yul\":6556:6673   */\n  iszero\n  tag_146\n  jumpi\n    /* \"#utility.yul\":6592:6671   */\n  tag_147\n  tag_28\n  jump\t// in\ntag_147:\n    /* \"#utility.yul\":6556:6673   */\ntag_146:\n    /* \"#utility.yul\":6697:6796   */\n  tag_148\n    /* \"#utility.yul\":6788:6795   */\n  dup9\n    /* \"#utility.yul\":6779:6785   */\n  dup3\n    /* \"#utility.yul\":6768:6777   */\n  dup10\n    /* \"#utility.yul\":6764:6786   */\n  add\n    /* \"#utility.yul\":6697:6796   */\n  tag_46\n  jump\t// in\ntag_148:\n    /* \"#utility.yul\":6687:6796   */\n  swap3\n  pop\n    /* \"#utility.yul\":6489:6806   */\n  pop\n    /* \"#utility.yul\":6845:6848   */\n  0x80\n    /* \"#utility.yul\":6872:6936   */\n  tag_149\n    /* \"#utility.yul\":6928:6935   */\n  dup9\n    /* \"#utility.yul\":6919:6925   */\n  dup3\n    /* \"#utility.yul\":6908:6917   */\n  dup10\n    /* \"#utility.yul\":6904:6926   */\n  add\n    /* \"#utility.yul\":6872:6936   */\n  tag_49\n  jump\t// in\ntag_149:\n    /* \"#utility.yul\":6862:6936   */\n  swap2\n  pop\n    /* \"#utility.yul\":6816:6946   */\n  pop\n    /* \"#utility.yul\":5407:6953   */\n  swap3\n  swap6\n  pop\n  swap3\n  swap6\n  swap1\n  swap4\n  pop\n  jump\t// out\n    /* \"#utility.yul\":6959:7058   */\ntag_50:\n    /* \"#utility.yul\":7011:7017   */\n  0x00\n    /* \"#utility.yul\":7045:7050   */\n  dup2\n    /* \"#utility.yul\":7039:7051   */\n  mload\n    /* \"#utility.yul\":7029:7051   */\n  swap1\n  pop\n    /* \"#utility.yul\":6959:7058   */\n  swap2\n  swap1\n  pop\n  jump\t// out\n    /* \"#utility.yul\":7064:7244   */\ntag_51:\n    /* \"#utility.yul\":7112:7189   */\n  0x4e487b7100000000000000000000000000000000000000000000000000000000\n    /* \"#utility.yul\":7109:7110   */\n  0x00\n    /* \"#utility.yul\":7102:7190   */\n  mstore\n    /* \"#utility.yul\":7209:7213   */\n  0x22\n    /* \"#utility.yul\":7206:7207   */\n  0x04\n    /* \"#utility.yul\":7199:7214   */\n  mstore\n    /* \"#utility.yul\":7233:7237   */\n  0x24\n    /* \"#utility.yul\":7230:7231   */\n  0x00\n    /* \"#utility.yul\":7223:7238   */\n  revert\n    /* \"#utility.yul\":7250:7570   */\ntag_52:\n    /* \"#utility.yul\":7294:7300   */\n  0x00\n    /* \"#utility.yul\":7331:7332   */\n  0x02\n    /* \"#utility.yul\":7325:7329   */\n  dup3\n    /* \"#utility.yul\":7321:7333   */\n  div\n    /* \"#utility.yul\":7311:7333   */\n  swap1\n  pop\n    /* \"#utility.yul\":7378:7379   */\n  0x01\n    /* \"#utility.yul\":7372:7376   */\n  dup3\n    /* \"#utility.yul\":7368:7380   */\n  and\n    /* \"#utility.yul\":7399:7417   */\n  dup1\n    /* \"#utility.yul\":7389:7470   */\n  tag_153\n  jumpi\n    /* \"#utility.yul\":7455:7459   */\n  0x7f\n    /* \"#utility.yul\":7447:7453   */\n  dup3\n    /* \"#utility.yul\":7443:7460   */\n  and\n    /* \"#utility.yul\":7433:7460   */\n  swap2\n  pop\n    /* \"#utility.yul\":7389:7470   */\ntag_153:\n    /* \"#utility.yul\":7517:7519   */\n  0x20\n    /* \"#utility.yul\":7509:7515   */\n  dup3\n    /* \"#utility.yul\":7506:7520   */\n  lt\n    /* \"#utility.yul\":7486:7504   */\n  dup2\n    /* \"#utility.yul\":7483:7521   */\n  sub\n    /* \"#utility.yul\":7480:7564   */\n  tag_154\n  jumpi\n    /* \"#utility.yul\":7536:7554   */\n  tag_155\n  tag_51\n  jump\t// in\ntag_155:\n    /* \"#utility.yul\":7480:7564   */\ntag_154:\n    /* \"#utility.yul\":7301:7570   */\n  pop\n    /* \"#utility.yul\":7250:7570   */\n  swap2\n  swap1\n  pop\n  jump\t// out\n    /* \"#utility.yul\":7576:7717   */\ntag_53:\n    /* \"#utility.yul\":7625:7629   */\n  0x00\n    /* \"#utility.yul\":7648:7651   */\n  dup2\n    /* \"#utility.yul\":7640:7651   */\n  swap1\n  pop\n    /* \"#utility.yul\":7671:7674   */\n  dup2\n    /* \"#utility.yul\":7668:7669   */\n  0x00\n    /* \"#utility.yul\":7661:7675   */\n  mstore\n    /* \"#utility.yul\":7705:7709   */\n  0x20\n    /* \"#utility.yul\":7702:7703   */\n  0x00\n    /* \"#utility.yul\":7692:7710   */\n  keccak256\n    /* \"#utility.yul\":7684:7710   */\n  swap1\n  pop\n    /* \"#utility.yul\":7576:7717   */\n  swap2\n  swap1\n  pop\n  jump\t// out\n    /* \"#utility.yul\":7723:7816   */\ntag_54:\n    /* \"#utility.yul\":7760:7766   */\n  0x00\n    /* \"#utility.yul\":7807:7809   */\n  0x20\n    /* \"#utility.yul\":7802:7804   */\n  0x1f\n    /* \"#utility.yul\":7795:7800   */\n  dup4\n    /* \"#utility.yul\":7791:7805   */\n  add\n    /* \"#utility.yul\":7787:7810   */\n  div\n    /* \"#utility.yul\":7777:7810   */\n  swap1\n  pop\n    /* \"#utility.yul\":7723:7816   */\n  swap2\n  swap1\n  pop\n  jump\t// out\n    /* \"#utility.yul\":7822:7929   */\ntag_55:\n    /* \"#utility.yul\":7866:7874   */\n  0x00\n    /* \"#utility.yul\":7916:7921   */\n  dup3\n    /* \"#utility.yul\":7910:7914   */\n  dup3\n    /* \"#utility.yul\":7906:7922   */\n  shl\n    /* \"#utility.yul\":7885:7922   */\n  swap1\n  pop\n    /* \"#utility.yul\":7822:7929   */\n  swap3\n  swap2\n  pop\n  pop\n  jump\t// out\n    /* \"#utility.yul\":7935:8328   */\ntag_56:\n    /* \"#utility.yul\":8004:8010   */\n  0x00\n    /* \"#utility.yul\":8054:8055   */\n  0x08\n    /* \"#utility.yul\":8042:8052   */\n  dup4\n    /* \"#utility.yul\":8038:8056   */\n  mul\n    /* \"#utility.yul\":8077:8174   */\n  tag_160\n    /* \"#utility.yul\":8107:8173   */\n  0xffffffffffffffffffffffffffffffffffffffffffffffffffffffffffffffff\n    /* \"#utility.yul\":8096:8105   */\n  dup3\n    /* \"#utility.yul\":8077:8174   */\n  tag_55\n  jump\t// in\ntag_160:\n    /* \"#utility.yul\":8195:8234   */\n  tag_161\n    /* \"#utility.yul\":8225:8233   */\n  dup7\n    /* \"#utility.yul\":8214:8223   */\n  dup4\n    /* \"#utility.yul\":8195:8234   */\n  tag_55\n  jump\t// in\ntag_161:\n    /* \"#utility.yul\":8183:8234   */\n  swap6\n  pop\n    /* \"#utility.yul\":8267:8271   */\n  dup1\n    /* \"#utility.yul\":8263:8272   */\n  not\n    /* \"#utility.yul\":8256:8261   */\n  dup5\n    /* \"#utility.yul\":8252:8273   */\n  and\n    /* \"#utility.yul\":8243:8273   */\n  swap4\n  pop\n    /* \"#utility.yul\":8316:8320   */\n  dup1\n    /* \"#utility.yul\":8306:8314   */\n  dup7\n    /* \"#utility.yul\":8302:8321   */\n  and\n    /* \"#utility.yul\":8295:8300   */\n  dup5\n    /* \"#utility.yul\":8292:8322   */\n  or\n    /* \"#utility.yul\":8282:8322   */\n  swap3\n  pop\n    /* \"#utility.yul\":8011:8328   */\n  pop\n  pop\n    /* \"#utility.yul\":7935:8328   */\n  swap4\n  swap3\n  pop\n  pop\n  pop\n  jump\t// out\n    /* \"#utility.yul\":8334:8394   */\ntag_57:\n    /* \"#utility.yul\":8362:8365   */\n  0x00\n    /* \"#utility.yul\":8383:8388   */\n  dup2\n    /* \"#utility.yul\":8376:8388   */\n  swap1\n  pop\n    /* \"#utility.yul\":8334:8394   */\n  swap2\n  swap1\n  pop\n  jump\t// out\n    /* \"#utility.yul\":8400:8542   */\ntag_58:\n    /* \"#utility.yul\":8450:8459   */\n  0x00\n    /* \"#utility.yul\":8483:8536   */\n  tag_164\n    /* \"#utility.yul\":8501:8535   */\n  tag_165\n    /* \"#utility.yul\":8510:8534   */\n  tag_166\n    /* \"#utility.yul\":8528:8533   */\n  dup5\n    /* \"#utility.yul\":8510:8534   */\n  tag_47\n  jump\t// in\ntag_166:\n    /* \"#utility.yul\":8501:8535   */\n  tag_57\n  jump\t// in\ntag_165:\n    /* \"#utility.yul\":8483:8536   */\n  tag_47\n  jump\t// in\ntag_164:\n    /* \"#utility.yul\":8470:8536   */\n  swap1\n  pop\n    /* \"#utility.yul\":8400:8542   */\n  swap2\n  swap1\n  pop\n  jump\t// out\n    /* \"#utility.yul\":8548:8623   */\ntag_59:\n    /* \"#utility.yul\":8591:8594   */\n  0x00\n    /* \"#utility.yul\":8612:8617   */\n  dup2\n    /* \"#utility.yul\":8605:8617   */\n  swap1\n  pop\n    /* \"#utility.yul\":8548:8623   */\n  swap2\n  swap1\n  pop\n  jump\t// out\n    /* \"#utility.yul\":8629:8898   */\ntag_60:\n    /* \"#utility.yul\":8739:8778   */\n  tag_169\n    /* \"#utility.yul\":8770:8777   */\n  dup4\n    /* \"#utility.yul\":8739:8778   */\n  tag_58\n  jump\t// in\ntag_169:\n    /* \"#utility.yul\":8800:8891   */\n  tag_170\n    /* \"#utility.yul\":8849:8890   */\n  tag_171\n    /* \"#utility.yul\":8873:8889   */\n  dup3\n    /* \"#utility.yul\":8849:8890   */\n  tag_59\n  jump\t// in\ntag_171:\n    /* \"#utility.yul\":8841:8847   */\n  dup5\n    /* \"#utility.yul\":8834:8838   */\n  dup5\n    /* \"#utility.yul\":8828:8839   */\n  sload\n    /* \"#utility.yul\":8800:8891   */\n  tag_56\n  jump\t// in\ntag_170:\n    /* \"#utility.yul\":8794:8798   */\n  dup3\n    /* \"#utility.yul\":8787:8892   */\n  sstore\n    /* \"#utility.yul\":8705:8898   */\n  pop\n    /* \"#utility.yul\":8629:8898   */\n  pop\n  pop\n  pop\n  jump\t// out\n    /* \"#utility.yul\":8904:8977   */\ntag_61:\n    /* \"#utility.yul\":8949:8952   */\n  0x00\n    /* \"#utility.yul\":8904:8977   */\n  swap1\n  jump\t// out\n    /* \"#utility.yul\":8983:9172   */\ntag_62:\n    /* \"#utility.yul\":9060:9092   */\n  tag_174\n  tag_61\n  jump\t// in\ntag_174:\n    /* \"#utility.yul\":9101:9166   */\n  tag_175\n    /* \"#utility.yul\":9159:9165   */\n  dup2\n    /* \"#utility.yul\":9151:9157   */\n  dup5\n    /* \"#utility.yul\":9145:9149   */\n  dup5\n    /* \"#utility.yul\":9101:9166   */\n  tag_60\n  jump\t// in\ntag_175:\n    /* \"#utility.yul\":9036:9172   */\n  pop\n    /* \"#utility.yul\":8983:9172   */\n  pop\n  pop\n  jump\t// out\n    /* \"#utility.yul\":9178:9364   */\ntag_63:\n    /* \"#utility.yul\":9238:9358   */\ntag_177:\n    /* \"#utility.yul\":9255:9258   */\n  dup2\n    /* \"#utility.yul\":9248:9253   */\n  dup2\n    /* \"#utility.yul\":9245:9259   */\n  lt\n    /* \"#utility.yul\":9238:9358   */\n  iszero\n  tag_179\n  jumpi\n    /* \"#utility.yul\":9309:9348   */\n  tag_180\n    /* \"#utility.yul\":9346:9347   */\n  0x00\n    /* \"#utility.yul\":9339:9344   */\n  dup3\n    /* \"#utility.yul\":9309:9348   */\n  tag_62\n  jump\t// in\ntag_180:\n    /* \"#utility.yul\":9282:9283   */\n  0x01\n    /* \"#utility.yul\":9275:9280   */\n  dup2\n    /* \"#utility.yul\":9271:9284   */\n  add\n    /* \"#utility.yul\":9262:9284   */\n  swap1\n  pop\n    /* \"#utility.yul\":9238:9358   */\n  jump(tag_177)\ntag_179:\n    /* \"#utility.yul\":9178:9364   */\n  pop\n  pop\n  jump\t// out\n    /* \"#utility.yul\":9370:9913   */\ntag_64:\n    /* \"#utility.yul\":9471:9473   */\n  0x1f\n    /* \"#utility.yul\":9466:9469   */\n  dup3\n    /* \"#utility.yul\":9463:9474   */\n  gt\n    /* \"#utility.yul\":9460:9906   */\n  iszero\n  tag_182\n  jumpi\n    /* \"#utility.yul\":9505:9543   */\n  tag_183\n    /* \"#utility.yul\":9537:9542   */\n  dup2\n    /* \"#utility.yul\":9505:9543   */\n  tag_53\n  jump\t// in\ntag_183:\n    /* \"#utility.yul\":9589:9618   */\n  tag_184\n    /* \"#utility.yul\":9607:9617   */\n  dup5\n    /* \"#utility.yul\":9589:9618   */\n  tag_54\n  jump\t// in\ntag_184:\n    /* \"#utility.yul\":9579:9587   */\n  dup2\n    /* \"#utility.yul\":9575:9619   */\n  add\n    /* \"#utility.yul\":9772:9774   */\n  0x20\n    /* \"#utility.yul\":9760:9770   */\n  dup6\n    /* \"#utility.yul\":9757:9775   */\n  lt\n    /* \"#utility.yul\":9754:9803   */\n  iszero\n  tag_185\n  jumpi\n    /* \"#utility.yul\":9793:9801   */\n  dup2\n    /* \"#utility.yul\":9778:9801   */\n  swap1\n  pop\n    /* \"#utility.yul\":9754:9803   */\ntag_185:\n    /* \"#utility.yul\":9816:9896   */\n  tag_186\n    /* \"#utility.yul\":9872:9894   */\n  tag_187\n    /* \"#utility.yul\":9890:9893   */\n  dup6\n    /* \"#utility.yul\":9872:9894   */\n  tag_54\n  jump\t// in\ntag_187:\n    /* \"#utility.yul\":9862:9870   */\n  dup4\n    /* \"#utility.yul\":9858:9895   */\n  add\n    /* \"#utility.yul\":9845:9856   */\n  dup3\n    /* \"#utility.yul\":9816:9896   */\n  tag_63\n  jump\t// in\ntag_186:\n    /* \"#utility.yul\":9475:9906   */\n  pop\n  pop\n    /* \"#utility.yul\":9460:9906   */\ntag_182:\n    /* \"#utility.yul\":9370:9913   */\n  pop\n  pop\n  pop\n  jump\t// out\n    /* \"#utility.yul\":9919:10036   */\ntag_65:\n    /* \"#utility.yul\":9973:9981   */\n  0x00\n    /* \"#utility.yul\":10023:10028   */\n  dup3\n    /* \"#utility.yul\":10017:10021   */\n  dup3\n    /* \"#utility.yul\":10013:10029   */\n  shr\n    /* \"#utility.yul\":9992:10029   */\n  swap1\n  pop\n    /* \"#utility.yul\":9919:10036   */\n  swap3\n  swap2\n  pop\n  pop\n  jump\t// out\n    /* \"#utility.yul\":10042:10211   */\ntag_66:\n    /* \"#utility.yul\":10086:10092   */\n  0x00\n    /* \"#utility.yul\":10119:10170   */\n  tag_190\n    /* \"#utility.yul\":10167:10168   */\n  0x00\n    /* \"#utility.yul\":10163:10169   */\n  not\n    /* \"#utility.yul\":10155:10160   */\n  dup5\n    /* \"#utility.yul\":10152:10153   */\n  0x08\n    /* \"#utility.yul\":10148:10161   */\n  mul\n    /* \"#utility.yul\":10119:10170   */\n  tag_65\n  jump\t// in\ntag_190:\n    /* \"#utility.yul\":10115:10171   */\n  not\n    /* \"#utility.yul\":10200:10204   */\n  dup1\n    /* \"#utility.yul\":10194:10198   */\n  dup4\n    /* \"#utility.yul\":10190:10205   */\n  and\n    /* \"#utility.yul\":10180:10205   */\n  swap2\n  pop\n    /* \"#utility.yul\":10093:10211   */\n  pop\n    /* \"#utility.yul\":10042:10211   */\n  swap3\n  swap2\n  pop\n  pop\n  jump\t// out\n    /* \"#utility.yul\":10216:10511   */\ntag_67:\n    /* \"#utility.yul\":10292:10296   */\n  0x00\n    /* \"#utility.yul\":10438:10467   */\n  tag_192\n    /* \"#utility.yul\":10463:10466   */\n  dup4\n    /* \"#utility.yul\":10457:10461   */\n  dup4\n    /* \"#utility.yul\":10438:10467   */\n  tag_66\n  jump\t// in\ntag_192:\n    /* \"#utility.yul\":10430:10467   */\n  swap2\n  pop\n    /* \"#utility.yul\":10500:10503   */\n  dup3\n    /* \"#utility.yul\":10497:10498   */\n  0x02\n    /* \"#utility.yul\":10493:10504   */\n  mul\n    /* \"#utility.yul\":10487:10491   */\n  dup3\n    /* \"#utility.yul\":10484:10505   */\n  or\n    /* \"#utility.yul\":10476:10505   */\n  swap1\n  pop\n    /* \"#utility.yul\":10216:10511   */\n  swap3\n  swap2\n  pop\n  pop\n  jump\t// out\n    /* \"#utility.yul\":10516:11911   */\ntag_10:\n    /* \"#utility.yul\":10633:10670   */\n  tag_194\n    /* \"#utility.yul\":10666:10669   */\n  dup3\n    /* \"#utility.yul\":10633:10670   */\n  tag_50\n  jump\t// in\ntag_194:\n    /* \"#utility.yul\":10735:10753   */\n  0xffffffffffffffff\n    /* \"#utility.yul\":10727:10733   */\n  dup2\n    /* \"#utility.yul\":10724:10754   */\n  gt\n    /* \"#utility.yul\":10721:10777   */\n  iszero\n  tag_195\n  jumpi\n    /* \"#utility.yul\":10757:10775   */\n  tag_196\n  tag_36\n  jump\t// in\ntag_196:\n    /* \"#utility.yul\":10721:10777   */\ntag_195:\n    /* \"#utility.yul\":10801:10839   */\n  tag_197\n    /* \"#utility.yul\":10833:10837   */\n  dup3\n    /* \"#utility.yul\":10827:10838   */\n  sload\n    /* \"#utility.yul\":10801:10839   */\n  tag_52\n  jump\t// in\ntag_197:\n    /* \"#utility.yul\":10886:10953   */\n  tag_198\n    /* \"#utility.yul\":10946:10952   */\n  dup3\n    /* \"#utility.yul\":10938:10944   */\n  dup3\n    /* \"#utility.yul\":10932:10936   */\n  dup6\n    /* \"#utility.yul\":10886:10953   */\n  tag_64\n  jump\t// in\ntag_198:\n    /* \"#utility.yul\":10980:10981   */\n  0x00\n    /* \"#utility.yul\":11004:11008   */\n  0x20\n    /* \"#utility.yul\":10991:11008   */\n  swap1\n  pop\n    /* \"#utility.yul\":11036:11038   */\n  0x1f\n    /* \"#utility.yul\":11028:11034   */\n  dup4\n    /* \"#utility.yul\":11025:11039   */\n  gt\n    /* \"#utility.yul\":11053:11054   */\n  0x01\n    /* \"#utility.yul\":11048:11666   */\n  dup2\n  eq\n  tag_200\n  jumpi\n    /* \"#utility.yul\":11710:11711   */\n  0x00\n    /* \"#utility.yul\":11727:11733   */\n  dup5\n    /* \"#utility.yul\":11724:11801   */\n  iszero\n  tag_201\n  jumpi\n    /* \"#utility.yul\":11776:11785   */\n  dup3\n    /* \"#utility.yul\":11771:11774   */\n  dup8\n    /* \"#utility.yul\":11767:11786   */\n  add\n    /* \"#utility.yul\":11761:11787   */\n  mload\n    /* \"#utility.yul\":11752:11787   */\n  swap1\n  pop\n    /* \"#utility.yul\":11724:11801   */\ntag_201:\n    /* \"#utility.yul\":11827:11894   */\n  tag_202\n    /* \"#utility.yul\":11887:11893   */\n  dup6\n    /* \"#utility.yul\":11880:11885   */\n  dup3\n    /* \"#utility.yul\":11827:11894   */\n  tag_67\n  jump\t// in\ntag_202:\n    /* \"#utility.yul\":11821:11825   */\n  dup7\n    /* \"#utility.yul\":11814:11895   */\n  sstore\n    /* \"#utility.yul\":11683:11905   */\n  pop\n    /* \"#utility.yul\":11018:11905   */\n  jump(tag_199)\n    /* \"#utility.yul\":11048:11666   */\ntag_200:\n    /* \"#utility.yul\":11100:11104   */\n  0x1f\n    /* \"#utility.yul\":11096:11105   */\n  not\n    /* \"#utility.yul\":11088:11094   */\n  dup5\n    /* \"#utility.yul\":11084:11106   */\n  and\n    /* \"#utility.yul\":11134:11171   */\n  tag_203\n    /* \"#utility.yul\":11166:11170   */\n  dup7\n    /* \"#utility.yul\":11134:11171   */\n  tag_53\n  jump\t// in\ntag_203:\n    /* \"#utility.yul\":11193:11194   */\n  0x00\n    /* \"#utility.yul\":11207:11415   */\ntag_204:\n    /* \"#utility.yul\":11221:11228   */\n  dup3\n    /* \"#utility.yul\":11218:11219   */\n  dup2\n    /* \"#utility.yul\":11215:11229   */\n  lt\n    /* \"#utility.yul\":11207:11415   */\n  iszero\n  tag_206\n  jumpi\n    /* \"#utility.yul\":11300:11309   */\n  dup5\n    /* \"#utility.yul\":11295:11298   */\n  dup10\n    /* \"#utility.yul\":11291:11310   */\n  add\n    /* \"#utility.yul\":11285:11311   */\n  mload\n    /* \"#utility.yul\":11277:11283   */\n  dup3\n    /* \"#utility.yul\":11270:11312   */\n  sstore\n    /* \"#utility.yul\":11351:11352   */\n  0x01\n    /* \"#utility.yul\":11343:11349   */\n  dup3\n    /* \"#utility.yul\":11339:11353   */\n  add\n    /* \"#utility.yul\":11329:11353   */\n  swap2\n  pop\n    /* \"#utility.yul\":11398:11400   */\n  0x20\n    /* \"#utility.yul\":11387:11396   */\n  dup6\n    /* \"#utility.yul\":11383:11401   */\n  add\n    /* \"#utility.yul\":11370:11401   */\n  swap5\n  pop\n    /* \"#utility.yul\":11244:11248   */\n  0x20\n    /* \"#utility.yul\":11241:11242   */\n  dup2\n    /* \"#utility.yul\":11237:11249   */\n  add\n    /* \"#utility.yul\":11232:11249   */\n  swap1\n  pop\n    /* \"#utility.yul\":11207:11415   */\n  jump(tag_204)\ntag_206:\n    /* \"#utility.yul\":11443:11449   */\n  dup7\n    /* \"#utility.yul\":11434:11441   */\n  dup4\n    /* \"#utility.yul\":11431:11450   */\n  lt\n    /* \"#utility.yul\":11428:11607   */\n  iszero\n  tag_207\n  jumpi\n    /* \"#utility.yul\":11501:11510   */\n  dup5\n    /* \"#utility.yul\":11496:11499   */\n  dup10\n    /* \"#utility.yul\":11492:11511   */\n  add\n    /* \"#utility.yul\":11486:11512   */\n  mload\n    /* \"#utility.yul\":11544:11592   */\n  tag_208\n    /* \"#utility.yul\":11586:11590   */\n  0x1f\n    /* \"#utility.yul\":11578:11584   */\n  dup10\n    /* \"#utility.yul\":11574:11591   */\n  and\n    /* \"#utility.yul\":11563:11572   */\n  dup3\n    /* \"#utility.yul\":11544:11592   */\n  tag_66\n  jump\t// in\ntag_208:\n    /* \"#utility.yul\":11536:11542   */\n  dup4\n    /* \"#utility.yul\":11529:11593   */\n  sstore\n    /* \"#utility.yul\":11451:11607   */\n  pop\n    /* \"#utility.yul\":11428:11607   */\ntag_207:\n    /* \"#utility.yul\":11653:11654   */\n  0x01\n    /* \"#utility.yul\":11649:11650   */\n  0x02\n    /* \"#utility.yul\":11641:11647   */\n  dup9\n    /* \"#utility.yul\":11637:11651   */\n  mul\n    /* \"#utility.yul\":11633:11655   */\n  add\n    /* \"#utility.yul\":11627:11631   */\n  dup9\n    /* \"#utility.yul\":11620:11656   */\n  sstore\n    /* \"#utility.yul\":11055:11666   */\n  pop\n  pop\n  pop\n    /* \"#utility.yul\":11018:11905   */\ntag_199:\n  pop\n    /* \"#utility.yul\":10608:11911   */\n  pop\n  pop\n  pop\n    /* \"#utility.yul\":10516:11911   */\n  pop\n  pop\n  jump\t// out\n    /* \"#utility.yul\":11917:12097   */\ntag_68:\n    /* \"#utility.yul\":11965:12042   */\n  0x4e487b7100000000000000000000000000000000000000000000000000000000\n    /* \"#utility.yul\":11962:11963   */\n  0x00\n    /* \"#utility.yul\":11955:12043   */\n  mstore\n    /* \"#utility.yul\":12062:12066   */\n  0x11\n    /* \"#utility.yul\":12059:12060   */\n  0x04\n    /* \"#utility.yul\":12052:12067   */\n  mstore\n    /* \"#utility.yul\":12086:12090   */\n  0x24\n    /* \"#utility.yul\":12083:12084   */\n  0x00\n    /* \"#utility.yul\":12076:12091   */\n  revert\n    /* \"#utility.yul\":12103:12294   */\ntag_13:\n    /* \"#utility.yul\":12143:12146   */\n  0x00\n    /* \"#utility.yul\":12162:12182   */\n  tag_211\n    /* \"#utility.yul\":12180:12181   */\n  dup3\n    /* \"#utility.yul\":12162:12182   */\n  tag_47\n  jump\t// in\ntag_211:\n    /* \"#utility.yul\":12157:12182   */\n  swap2\n  pop\n    /* \"#utility.yul\":12196:12216   */\n  tag_212\n    /* \"#utility.yul\":12214:12215   */\n  dup4\n    /* \"#utility.yul\":12196:12216   */\n  tag_47\n  jump\t// in\ntag_212:\n    /* \"#utility.yul\":12191:12216   */\n  swap3\n  pop\n    /* \"#utility.yul\":12239:12240   */\n  dup3\n    /* \"#utility.yul\":12236:12237   */\n  dup3\n    /* \"#utility.yul\":12232:12241   */\n  add\n    /* \"#utility.yul\":12225:12241   */\n  swap1\n  pop\n    /* \"#utility.yul\":12260:12263   */\n  dup1\n    /* \"#utility.yul\":12257:12258   */\n  dup3\n    /* \"#utility.yul\":12254:12264   */\n  gt\n    /* \"#utility.yul\":12251:12287   */\n  iszero\n  tag_213\n  jumpi\n    /* \"#utility.yul\":12267:12285   */\n  tag_214\n  tag_68\n  jump\t// in\ntag_214:\n    /* \"#utility.yul\":12251:12287   */\ntag_213:\n    /* \"#utility.yul\":12103:12294   */\n  swap3\n  swap2\n  pop\n  pop\n  jump\t// out\n    /* \"#utility.yul\":12300:12480   */\ntag_19:\n    /* \"#utility.yul\":12348:12425   */\n  0x4e487b7100000000000000000000000000000000000000000000000000000000\n    /* \"#utility.yul\":12345:12346   */\n  0x00\n    /* \"#utility.yul\":12338:12426   */\n  mstore\n    /* \"#utility.yul\":12445:12449   */\n  0x32\n    /* \"#utility.yul\":12442:12443   */\n  0x04\n    /* \"#utility.yul\":12435:12450   */\n  mstore\n    /* \"#utility.yul\":12469:12473   */\n  0x24\n    /* \"#utility.yul\":12466:12467   */\n  0x00\n    /* \"#utility.yul\":12459:12474   */\n  revert\n    /* \"#utility.yul\":12486:12572   */\ntag_69:\n    /* \"#utility.yul\":12521:12528   */\n  0x00\n    /* \"#utility.yul\":12561:12565   */\n  0xff\n    /* \"#utility.yul\":12554:12559   */\n  dup3\n    /* \"#utility.yul\":12550:12566   */\n  and\n    /* \"#utility.yul\":12539:12566   */\n  swap1\n  pop\n    /* \"#utility.yul\":12486:12572   */\n  swap2\n  swap1\n  pop\n  jump\t// out\n    /* \"#utility.yul\":12578:12745   */\ntag_23:\n    /* \"#utility.yul\":12615:12618   */\n  0x00\n    /* \"#utility.yul\":12638:12660   */\n  tag_218\n    /* \"#utility.yul\":12654:12659   */\n  dup3\n    /* \"#utility.yul\":12638:12660   */\n  tag_69\n  jump\t// in\ntag_218:\n    /* \"#utility.yul\":12629:12660   */\n  swap2\n  pop\n    /* \"#utility.yul\":12682:12686   */\n  0xff\n    /* \"#utility.yul\":12675:12680   */\n  dup3\n    /* \"#utility.yul\":12672:12687   */\n  sub\n    /* \"#utility.yul\":12669:12710   */\n  tag_219\n  jumpi\n    /* \"#utility.yul\":12690:12708   */\n  tag_220\n  tag_68\n  jump\t// in\ntag_220:\n    /* \"#utility.yul\":12669:12710   */\ntag_219:\n    /* \"#utility.yul\":12737:12738   */\n  0x01\n    /* \"#utility.yul\":12730:12735   */\n  dup3\n    /* \"#utility.yul\":12726:12739   */\n  add\n    /* \"#utility.yul\":12719:12739   */\n  swap1\n  pop\n    /* \"#utility.yul\":12578:12745   */\n  swap2\n  swap1\n  pop\n  jump\t// out\n    /* \"SimplePoll.sol\":3890:5480  contract PublicPoll is SimplePoll {... */\ntag_25:\n  dataSize(sub_0)\n  dup1\n  dataOffset(sub_0)\n  0x00\n  codecopy\n  0x00\n  return\nstop\n\nsub_0: assembly {\n        /* \"SimplePoll.sol\":3890:5480  contract PublicPoll is SimplePoll {... */\n      mstore(0x40, 0x80)\n      callvalue\n      dup1\n      iszero\n      tag_1\n      jumpi\n      0x00\n      dup1\n      revert\n    tag_1:\n      pop\n      jumpi(tag_2, lt(calldatasize, 0x04))\n      shr(0xe0, calldataload(0x00))\n      dup1\n      0x7284e416\n      gt\n      tag_15\n      jumpi\n      dup1\n      0x7284e416\n      eq\n      tag_9\n      jumpi\n      dup1\n      0x9145a7fc\n      eq\n      tag_10\n      jumpi\n      dup1\n      0xa3ec138d\n      eq\n      tag_11\n      jumpi\n      dup1\n      0xb3f98adc\n      eq\n      tag_12\n      jumpi\n      dup1\n      0xbf63a577\n      eq\n      tag_13\n      jumpi\n      dup1\n      0xe2ba53f0\n      eq\n      tag_14\n      jumpi\n      jump(tag_2)\n    tag_15:\n      dup1\n      0x013cf08b\n      eq\n      tag_3\n      jumpi\n      dup1\n      0x02d05d3f\n      eq\n      tag_4\n      jumpi\n      dup1\n      0x09eef43e\n      eq\n      tag_5\n      jumpi\n      dup1\n      0x29dcb0cf\n      eq\n      tag_6\n      jumpi\n      dup1\n      0x4717f97c\n      eq\n      tag_7\n      jumpi\n      dup1\n      0x5c19a95c\n      eq\n      tag_8\n      jumpi\n    tag_2:\n      0x00\n      dup1\n      revert\n        /* \"SimplePoll.sol\":919:960  SharedStructs.Proposal[] public proposals */\n    tag_3:\n      tag_16\n      0x04\n      dup1\n      calldatasize\n      sub\n      dup2\n      add\n      swap1\n      tag_17\n      swap2\n      swap1\n      tag_18\n      jump\t// in\n    tag_17:\n      tag_19\n      jump\t// in\n    tag_16:\n      mload(0x40)\n      tag_20\n      swap3\n      swap2\n      swap1\n      tag_21\n      jump\t// in\n    tag_20:\n      mload(0x40)\n      dup1\n      swap2\n      sub\n      swap1\n      return\n        /* \"SimplePoll.sol\":554:576  address public creator */\n    tag_4:\n      tag_22\n      tag_23\n      jump\t// in\n    tag_22:\n      mload(0x40)\n      tag_24\n      swap2\n      swap1\n      tag_25\n      jump\t// in\n    tag_24:\n      mload(0x40)\n      dup1\n      swap2\n      sub\n      swap1\n      return\n        /* \"SimplePoll.sol\":2004:2110  function hasVoted(address voter) external view returns(bool) {... */\n    tag_5:\n      tag_26\n      0x04\n      dup1\n      calldatasize\n      sub\n      dup2\n      add\n      swap1\n      tag_27\n      swap2\n      swap1\n      tag_28\n      jump\t// in\n    tag_27:\n      tag_29\n      jump\t// in\n    tag_26:\n      mload(0x40)\n      tag_30\n      swap2\n      swap1\n      tag_31\n      jump\t// in\n    tag_30:\n      mload(0x40)\n      dup1\n      swap2\n      sub\n      swap1\n      return\n        /* \"SimplePoll.sol\":892:912  uint public deadline */\n    tag_6:\n      tag_32\n      tag_33\n      jump\t// in\n    tag_32:\n      mload(0x40)\n      tag_34\n      swap2\n      swap1\n      tag_35\n      jump\t// in\n    tag_34:\n      mload(0x40)\n      dup1\n      swap2\n      sub\n      swap1\n      return\n        /* \"SimplePoll.sol\":2233:2346  function getResults() external view returns (SharedStructs.Proposal[] memory) {... */\n    tag_7:\n      tag_36\n      tag_37\n      jump\t// in\n    tag_36:\n      mload(0x40)\n      tag_38\n      swap2\n      swap1\n      tag_39\n      jump\t// in\n    tag_38:\n      mload(0x40)\n      dup1\n      swap2\n      sub\n      swap1\n      return\n        /* \"SimplePoll.sol\":4217:5080  function delegate(address to) external hasDeadlineNotExpired {... */\n    tag_8:\n      tag_40\n      0x04\n      dup1\n      calldatasize\n      sub\n      dup2\n      add\n      swap1\n      tag_41\n      swap2\n      swap1\n      tag_28\n      jump\t// in\n    tag_41:\n      tag_42\n      jump\t// in\n    tag_40:\n      stop\n        /* \"SimplePoll.sol\":860:885  string public description */\n    tag_9:\n      tag_43\n      tag_44\n      jump\t// in\n    tag_43:\n      mload(0x40)\n      tag_45\n      swap2\n      swap1\n      tag_46\n      jump\t// in\n    tag_45:\n      mload(0x40)\n      dup1\n      swap2\n      sub\n      swap1\n      return\n        /* \"SimplePoll.sol\":2118:2225  function isDeadlineExpired() public view returns(bool) {... */\n    tag_10:\n      tag_47\n      tag_48\n      jump\t// in\n    tag_47:\n      mload(0x40)\n      tag_49\n      swap2\n      swap1\n      tag_31\n      jump\t// in\n    tag_49:\n      mload(0x40)\n      dup1\n      swap2\n      sub\n      swap1\n      return\n        /* \"SimplePoll.sol\":967:1020  mapping(address => SharedStructs.Voter) public voters */\n    tag_11:\n      tag_50\n      0x04\n      dup1\n      calldatasize\n      sub\n      dup2\n      add\n      swap1\n      tag_51\n      swap2\n      swap1\n      tag_28\n      jump\t// in\n    tag_51:\n      tag_52\n      jump\t// in\n    tag_50:\n      mload(0x40)\n      tag_53\n      swap6\n      swap5\n      swap4\n      swap3\n      swap2\n      swap1\n      tag_54\n      jump\t// in\n    tag_53:\n      mload(0x40)\n      dup1\n      swap2\n      sub\n      swap1\n      return\n        /* \"SimplePoll.sol\":5088:5477  function vote(uint8 proposalIndex) external override hasDeadlineNotExpired isProposalIndexCorrect(proposalIndex) {... */\n    tag_12:\n      tag_55\n      0x04\n      dup1\n      calldatasize\n      sub\n      dup2\n      add\n      swap1\n      tag_56\n      swap2\n      swap1\n      tag_57\n      jump\t// in\n    tag_56:\n      tag_58\n      jump\t// in\n    tag_55:\n      stop\n        /* \"SimplePoll.sol\":834:853  string public topic */\n    tag_13:\n      tag_59\n      tag_60\n      jump\t// in\n    tag_59:\n      mload(0x40)\n      tag_61\n      swap2\n      swap1\n      tag_46\n      jump\t// in\n    tag_61:\n      mload(0x40)\n      dup1\n      swap2\n      sub\n      swap1\n      return\n        /* \"SimplePoll.sol\":2354:2487  function winnerName() external view returns (string memory) {... */\n    tag_14:\n      tag_62\n      tag_63\n      jump\t// in\n    tag_62:\n      mload(0x40)\n      tag_64\n      swap2\n      swap1\n      tag_46\n      jump\t// in\n    tag_64:\n      mload(0x40)\n      dup1\n      swap2\n      sub\n      swap1\n      return\n        /* \"SimplePoll.sol\":919:960  SharedStructs.Proposal[] public proposals */\n    tag_19:\n      0x04\n      dup2\n      dup2\n      sload\n      dup2\n      lt\n      tag_65\n      jumpi\n      0x00\n      dup1\n      revert\n    tag_65:\n      swap1\n      0x00\n      mstore\n      keccak256(0x00, 0x20)\n      swap1\n      0x02\n      mul\n      add\n      0x00\n      swap2\n      pop\n      swap1\n      pop\n      dup1\n      0x00\n      add\n      dup1\n      sload\n      tag_67\n      swap1\n      tag_68\n      jump\t// in\n    tag_67:\n      dup1\n      0x1f\n      add\n      0x20\n      dup1\n      swap2\n      div\n      mul\n      0x20\n      add\n      mload(0x40)\n      swap1\n      dup2\n      add\n      0x40\n      mstore\n      dup1\n      swap3\n      swap2\n      swap1\n      dup2\n      dup2\n      mstore\n      0x20\n      add\n      dup3\n      dup1\n      sload\n      tag_69\n      swap1\n      tag_68\n      jump\t// in\n    tag_69:\n      dup1\n      iszero\n      tag_70\n      jumpi\n      dup1\n      0x1f\n      lt\n      tag_71\n      jumpi\n      0x0100\n      dup1\n      dup4\n      sload\n      div\n      mul\n      dup4\n      mstore\n      swap2\n      0x20\n      add\n      swap2\n      jump(tag_70)\n    tag_71:\n      dup3\n      add\n      swap2\n      swap1\n      0x00\n      mstore\n      keccak256(0x00, 0x20)\n      swap1\n    tag_72:\n      dup2\n      sload\n      dup2\n      mstore\n      swap1\n      0x01\n      add\n      swap1\n      0x20\n      add\n      dup1\n      dup4\n      gt\n      tag_72\n      jumpi\n      dup3\n      swap1\n      sub\n      0x1f\n      and\n      dup3\n      add\n      swap2\n    tag_70:\n      pop\n      pop\n      pop\n      pop\n      pop\n      swap1\n      dup1\n      0x01\n      add\n      sload\n      swap1\n      pop\n      dup3\n      jump\t// out\n        /* \"SimplePoll.sol\":554:576  address public creator */\n    tag_23:\n      0x00\n      dup1\n      sload\n      swap1\n      0x0100\n      exp\n      swap1\n      div\n      0xffffffffffffffffffffffffffffffffffffffff\n      and\n      dup2\n      jump\t// out\n        /* \"SimplePoll.sol\":2004:2110  function hasVoted(address voter) external view returns(bool) {... */\n    tag_29:\n        /* \"SimplePoll.sol\":2059:2063  bool */\n      0x00\n        /* \"SimplePoll.sol\":2083:2089  voters */\n      0x05\n        /* \"SimplePoll.sol\":2083:2096  voters[voter] */\n      0x00\n        /* \"SimplePoll.sol\":2090:2095  voter */\n      dup4\n        /* \"SimplePoll.sol\":2083:2096  voters[voter] */\n      0xffffffffffffffffffffffffffffffffffffffff\n      and\n      0xffffffffffffffffffffffffffffffffffffffff\n      and\n      dup2\n      mstore\n      0x20\n      add\n      swap1\n      dup2\n      mstore\n      0x20\n      add\n      0x00\n      keccak256\n        /* \"SimplePoll.sol\":2083:2102  voters[voter].voted */\n      0x00\n      add\n      0x01\n      swap1\n      sload\n      swap1\n      0x0100\n      exp\n      swap1\n      div\n      0xff\n      and\n        /* \"SimplePoll.sol\":2076:2102  return voters[voter].voted */\n      swap1\n      pop\n        /* \"SimplePoll.sol\":2004:2110  function hasVoted(address voter) external view returns(bool) {... */\n      swap2\n      swap1\n      pop\n      jump\t// out\n        /* \"SimplePoll.sol\":892:912  uint public deadline */\n    tag_33:\n      sload(0x03)\n      dup2\n      jump\t// out\n        /* \"SimplePoll.sol\":2233:2346  function getResults() external view returns (SharedStructs.Proposal[] memory) {... */\n    tag_37:\n        /* \"SimplePoll.sol\":2278:2309  SharedStructs.Proposal[] memory */\n      0x60\n        /* \"SimplePoll.sol\":2329:2338  proposals */\n      0x04\n        /* \"SimplePoll.sol\":2322:2338  return proposals */\n      dup1\n      sload\n      dup1\n      0x20\n      mul\n      0x20\n      add\n      mload(0x40)\n      swap1\n      dup2\n      add\n      0x40\n      mstore\n      dup1\n      swap3\n      swap2\n      swap1\n      dup2\n      dup2\n      mstore\n      0x20\n      add\n      0x00\n      swap1\n    tag_75:\n      dup3\n      dup3\n      lt\n      iszero\n      tag_76\n      jumpi\n      dup4\n      dup3\n      swap1\n      0x00\n      mstore\n      keccak256(0x00, 0x20)\n      swap1\n      0x02\n      mul\n      add\n      mload(0x40)\n      dup1\n      0x40\n      add\n      0x40\n      mstore\n      swap1\n      dup2\n      0x00\n      dup3\n      add\n      dup1\n      sload\n      tag_78\n      swap1\n      tag_68\n      jump\t// in\n    tag_78:\n      dup1\n      0x1f\n      add\n      0x20\n      dup1\n      swap2\n      div\n      mul\n      0x20\n      add\n      mload(0x40)\n      swap1\n      dup2\n      add\n      0x40\n      mstore\n      dup1\n      swap3\n      swap2\n      swap1\n      dup2\n      dup2\n      mstore\n      0x20\n      add\n      dup3\n      dup1\n      sload\n      tag_79\n      swap1\n      tag_68\n      jump\t// in\n    tag_79:\n      dup1\n      iszero\n      tag_80\n      jumpi\n      dup1\n      0x1f\n      lt\n      tag_81\n      jumpi\n      0x0100\n      dup1\n      dup4\n      sload\n      div\n      mul\n      dup4\n      mstore\n      swap2\n      0x20\n      add\n      swap2\n      jump(tag_80)\n    tag_81:\n      dup3\n      add\n      swap2\n      swap1\n      0x00\n      mstore\n      keccak256(0x00, 0x20)\n      swap1\n    tag_82:\n      dup2\n      sload\n      dup2\n      mstore\n      swap1\n      0x01\n      add\n      swap1\n      0x20\n      add\n      dup1\n      dup4\n      gt\n      tag_82\n      jumpi\n      dup3\n      swap1\n      sub\n      0x1f\n      and\n      dup3\n      add\n      swap2\n    tag_80:\n      pop\n      pop\n      pop\n      pop\n      pop\n      dup2\n      mstore\n      0x20\n      add\n      0x01\n      dup3\n      add\n      sload\n      dup2\n      mstore\n      pop\n      pop\n      dup2\n      mstore\n      0x20\n      add\n      swap1\n      0x01\n      add\n      swap1\n      jump(tag_75)\n    tag_76:\n      pop\n      pop\n      pop\n      pop\n      swap1\n      pop\n        /* \"SimplePoll.sol\":2233:2346  function getResults() external view returns (SharedStructs.Proposal[] memory) {... */\n      swap1\n      jump\t// out\n        /* \"SimplePoll.sol\":4217:5080  function delegate(address to) external hasDeadlineNotExpired {... */\n    tag_42:\n        /* \"SimplePoll.sol\":1395:1414  isDeadlineExpired() */\n      tag_84\n        /* \"SimplePoll.sol\":1395:1412  isDeadlineExpired */\n      tag_48\n        /* \"SimplePoll.sol\":1395:1414  isDeadlineExpired() */\n      jump\t// in\n    tag_84:\n        /* \"SimplePoll.sol\":1394:1414  !isDeadlineExpired() */\n      iszero\n        /* \"SimplePoll.sol\":1386:1440  require(!isDeadlineExpired(), \"Deadline has expired.\") */\n      tag_85\n      jumpi\n      mload(0x40)\n      0x08c379a000000000000000000000000000000000000000000000000000000000\n      dup2\n      mstore\n      0x04\n      add\n      tag_86\n      swap1\n      tag_87\n      jump\t// in\n    tag_86:\n      mload(0x40)\n      dup1\n      swap2\n      sub\n      swap1\n      revert\n    tag_85:\n        /* \"SimplePoll.sol\":4289:4323  SharedStructs.Voter storage sender */\n      0x00\n        /* \"SimplePoll.sol\":4326:4332  voters */\n      0x05\n        /* \"SimplePoll.sol\":4326:4344  voters[msg.sender] */\n      0x00\n        /* \"SimplePoll.sol\":4333:4343  msg.sender */\n      caller\n        /* \"SimplePoll.sol\":4326:4344  voters[msg.sender] */\n      0xffffffffffffffffffffffffffffffffffffffff\n      and\n      0xffffffffffffffffffffffffffffffffffffffff\n      and\n      dup2\n      mstore\n      0x20\n      add\n      swap1\n      dup2\n      mstore\n      0x20\n      add\n      0x00\n      keccak256\n        /* \"SimplePoll.sol\":4289:4344  SharedStructs.Voter storage sender = voters[msg.sender] */\n      swap1\n      pop\n        /* \"SimplePoll.sol\":4364:4370  sender */\n      dup1\n        /* \"SimplePoll.sol\":4364:4376  sender.voted */\n      0x00\n      add\n      0x01\n      swap1\n      sload\n      swap1\n      0x0100\n      exp\n      swap1\n      div\n      0xff\n      and\n        /* \"SimplePoll.sol\":4363:4376  !sender.voted */\n      iszero\n        /* \"SimplePoll.sol\":4355:4395  require(!sender.voted, \"Already voted.\") */\n      tag_89\n      jumpi\n      mload(0x40)\n      0x08c379a000000000000000000000000000000000000000000000000000000000\n      dup2\n      mstore\n      0x04\n      add\n      tag_90\n      swap1\n      tag_91\n      jump\t// in\n    tag_90:\n      mload(0x40)\n      dup1\n      swap2\n      sub\n      swap1\n      revert\n    tag_89:\n        /* \"SimplePoll.sol\":4420:4430  msg.sender */\n      caller\n        /* \"SimplePoll.sol\":4414:4430  to != msg.sender */\n      0xffffffffffffffffffffffffffffffffffffffff\n      and\n        /* \"SimplePoll.sol\":4414:4416  to */\n      dup3\n        /* \"SimplePoll.sol\":4414:4430  to != msg.sender */\n      0xffffffffffffffffffffffffffffffffffffffff\n      and\n      sub\n        /* \"SimplePoll.sol\":4406:4466  require(to != msg.sender, \"Self-delegation is not allowed.\") */\n      tag_92\n      jumpi\n      mload(0x40)\n      0x08c379a000000000000000000000000000000000000000000000000000000000\n      dup2\n      mstore\n      0x04\n      add\n      tag_93\n      swap1\n      tag_94\n      jump\t// in\n    tag_93:\n      mload(0x40)\n      dup1\n      swap2\n      sub\n      swap1\n      revert\n    tag_92:\n        /* \"SimplePoll.sol\":4477:4639  while (voters[to].delegate != address(0)) {... */\n    tag_95:\n        /* \"SimplePoll.sol\":4515:4516  0 */\n      0x00\n        /* \"SimplePoll.sol\":4484:4517  voters[to].delegate != address(0) */\n      0xffffffffffffffffffffffffffffffffffffffff\n      and\n        /* \"SimplePoll.sol\":4484:4490  voters */\n      0x05\n        /* \"SimplePoll.sol\":4484:4494  voters[to] */\n      0x00\n        /* \"SimplePoll.sol\":4491:4493  to */\n      dup5\n        /* \"SimplePoll.sol\":4484:4494  voters[to] */\n      0xffffffffffffffffffffffffffffffffffffffff\n      and\n      0xffffffffffffffffffffffffffffffffffffffff\n      and\n      dup2\n      mstore\n      0x20\n      add\n      swap1\n      dup2\n      mstore\n      0x20\n      add\n      0x00\n      keccak256\n        /* \"SimplePoll.sol\":4484:4503  voters[to].delegate */\n      0x02\n      add\n      0x00\n      swap1\n      sload\n      swap1\n      0x0100\n      exp\n      swap1\n      div\n      0xffffffffffffffffffffffffffffffffffffffff\n      and\n        /* \"SimplePoll.sol\":4484:4517  voters[to].delegate != address(0) */\n      0xffffffffffffffffffffffffffffffffffffffff\n      and\n      eq\n        /* \"SimplePoll.sol\":4477:4639  while (voters[to].delegate != address(0)) {... */\n      tag_96\n      jumpi\n        /* \"SimplePoll.sol\":4539:4545  voters */\n      0x05\n        /* \"SimplePoll.sol\":4539:4549  voters[to] */\n      0x00\n        /* \"SimplePoll.sol\":4546:4548  to */\n      dup4\n        /* \"SimplePoll.sol\":4539:4549  voters[to] */\n      0xffffffffffffffffffffffffffffffffffffffff\n      and\n      0xffffffffffffffffffffffffffffffffffffffff\n      and\n      dup2\n      mstore\n      0x20\n      add\n      swap1\n      dup2\n      mstore\n      0x20\n      add\n      0x00\n      keccak256\n        /* \"SimplePoll.sol\":4539:4558  voters[to].delegate */\n      0x02\n      add\n      0x00\n      swap1\n      sload\n      swap1\n      0x0100\n      exp\n      swap1\n      div\n      0xffffffffffffffffffffffffffffffffffffffff\n      and\n        /* \"SimplePoll.sol\":4534:4558  to = voters[to].delegate */\n      swap2\n      pop\n        /* \"SimplePoll.sol\":4587:4597  msg.sender */\n      caller\n        /* \"SimplePoll.sol\":4581:4597  to != msg.sender */\n      0xffffffffffffffffffffffffffffffffffffffff\n      and\n        /* \"SimplePoll.sol\":4581:4583  to */\n      dup3\n        /* \"SimplePoll.sol\":4581:4597  to != msg.sender */\n      0xffffffffffffffffffffffffffffffffffffffff\n      and\n      sub\n        /* \"SimplePoll.sol\":4573:4627  require(to != msg.sender, \"Found loop in delegation.\") */\n      tag_97\n      jumpi\n      mload(0x40)\n      0x08c379a000000000000000000000000000000000000000000000000000000000\n      dup2\n      mstore\n      0x04\n      add\n      tag_98\n      swap1\n      tag_99\n      jump\t// in\n    tag_98:\n      mload(0x40)\n      dup1\n      swap2\n      sub\n      swap1\n      revert\n    tag_97:\n        /* \"SimplePoll.sol\":4477:4639  while (voters[to].delegate != address(0)) {... */\n      jump(tag_95)\n    tag_96:\n        /* \"SimplePoll.sol\":4664:4668  true */\n      0x01\n        /* \"SimplePoll.sol\":4649:4655  sender */\n      dup2\n        /* \"SimplePoll.sol\":4649:4661  sender.voted */\n      0x00\n      add\n      0x01\n        /* \"SimplePoll.sol\":4649:4668  sender.voted = true */\n      0x0100\n      exp\n      dup2\n      sload\n      dup2\n      0xff\n      mul\n      not\n      and\n      swap1\n      dup4\n      iszero\n      iszero\n      mul\n      or\n      swap1\n      sstore\n      pop\n        /* \"SimplePoll.sol\":4697:4699  to */\n      dup2\n        /* \"SimplePoll.sol\":4679:4685  sender */\n      dup2\n        /* \"SimplePoll.sol\":4679:4694  sender.delegate */\n      0x02\n      add\n      0x00\n        /* \"SimplePoll.sol\":4679:4699  sender.delegate = to */\n      0x0100\n      exp\n      dup2\n      sload\n      dup2\n      0xffffffffffffffffffffffffffffffffffffffff\n      mul\n      not\n      and\n      swap1\n      dup4\n      0xffffffffffffffffffffffffffffffffffffffff\n      and\n      mul\n      or\n      swap1\n      sstore\n      pop\n        /* \"SimplePoll.sol\":4710:4752  SharedStructs.Voter storage delegatedVoter */\n      0x00\n        /* \"SimplePoll.sol\":4755:4761  voters */\n      0x05\n        /* \"SimplePoll.sol\":4755:4765  voters[to] */\n      0x00\n        /* \"SimplePoll.sol\":4762:4764  to */\n      dup5\n        /* \"SimplePoll.sol\":4755:4765  voters[to] */\n      0xffffffffffffffffffffffffffffffffffffffff\n      and\n      0xffffffffffffffffffffffffffffffffffffffff\n      and\n      dup2\n      mstore\n      0x20\n      add\n      swap1\n      dup2\n      mstore\n      0x20\n      add\n      0x00\n      keccak256\n        /* \"SimplePoll.sol\":4710:4765  SharedStructs.Voter storage delegatedVoter = voters[to] */\n      swap1\n      pop\n        /* \"SimplePoll.sol\":4780:4794  delegatedVoter */\n      dup1\n        /* \"SimplePoll.sol\":4780:4800  delegatedVoter.voted */\n      0x00\n      add\n      0x01\n      swap1\n      sload\n      swap1\n      0x0100\n      exp\n      swap1\n      div\n      0xff\n      and\n        /* \"SimplePoll.sol\":4776:5014  if (delegatedVoter.voted) {... */\n      iszero\n      tag_100\n      jumpi\n        /* \"SimplePoll.sol\":4893:4894  1 */\n      0x01\n        /* \"SimplePoll.sol\":4862:4868  sender */\n      dup3\n        /* \"SimplePoll.sol\":4862:4890  sender.delegatingVotesNumber */\n      0x01\n      add\n      sload\n        /* \"SimplePoll.sol\":4862:4894  sender.delegatingVotesNumber + 1 */\n      tag_101\n      swap2\n      swap1\n      tag_102\n      jump\t// in\n    tag_101:\n        /* \"SimplePoll.sol\":4817:4826  proposals */\n      0x04\n        /* \"SimplePoll.sol\":4827:4841  delegatedVoter */\n      dup3\n        /* \"SimplePoll.sol\":4827:4846  delegatedVoter.vote */\n      0x00\n      add\n      0x02\n      swap1\n      sload\n      swap1\n      0x0100\n      exp\n      swap1\n      div\n      0xff\n      and\n        /* \"SimplePoll.sol\":4817:4847  proposals[delegatedVoter.vote] */\n      0xff\n      and\n      dup2\n      sload\n      dup2\n      lt\n      tag_103\n      jumpi\n      tag_104\n      tag_105\n      jump\t// in\n    tag_104:\n    tag_103:\n      swap1\n      0x00\n      mstore\n      keccak256(0x00, 0x20)\n      swap1\n      0x02\n      mul\n      add\n        /* \"SimplePoll.sol\":4817:4857  proposals[delegatedVoter.vote].voteCount */\n      0x01\n      add\n      0x00\n        /* \"SimplePoll.sol\":4817:4895  proposals[delegatedVoter.vote].voteCount += (sender.delegatingVotesNumber + 1) */\n      dup3\n      dup3\n      sload\n      tag_107\n      swap2\n      swap1\n      tag_102\n      jump\t// in\n    tag_107:\n      swap3\n      pop\n      pop\n      dup2\n      swap1\n      sstore\n      pop\n        /* \"SimplePoll.sol\":4776:5014  if (delegatedVoter.voted) {... */\n      jump(tag_108)\n    tag_100:\n        /* \"SimplePoll.sol\":5000:5001  1 */\n      0x01\n        /* \"SimplePoll.sol\":4969:4975  sender */\n      dup3\n        /* \"SimplePoll.sol\":4969:4997  sender.delegatingVotesNumber */\n      0x01\n      add\n      sload\n        /* \"SimplePoll.sol\":4969:5001  sender.delegatingVotesNumber + 1 */\n      tag_109\n      swap2\n      swap1\n      tag_102\n      jump\t// in\n    tag_109:\n        /* \"SimplePoll.sol\":4928:4942  delegatedVoter */\n      dup2\n        /* \"SimplePoll.sol\":4928:4964  delegatedVoter.delegatingVotesNumber */\n      0x01\n      add\n      0x00\n        /* \"SimplePoll.sol\":4928:5002  delegatedVoter.delegatingVotesNumber += (sender.delegatingVotesNumber + 1) */\n      dup3\n      dup3\n      sload\n      tag_110\n      swap2\n      swap1\n      tag_102\n      jump\t// in\n    tag_110:\n      swap3\n      pop\n      pop\n      dup2\n      swap1\n      sstore\n      pop\n        /* \"SimplePoll.sol\":4776:5014  if (delegatedVoter.voted) {... */\n    tag_108:\n        /* \"SimplePoll.sol\":5069:5071  to */\n      dup3\n        /* \"SimplePoll.sol\":5029:5072  Delegating(block.timestamp, msg.sender, to) */\n      0xffffffffffffffffffffffffffffffffffffffff\n      and\n        /* \"SimplePoll.sol\":5057:5067  msg.sender */\n      caller\n        /* \"SimplePoll.sol\":5029:5072  Delegating(block.timestamp, msg.sender, to) */\n      0xffffffffffffffffffffffffffffffffffffffff\n      and\n        /* \"SimplePoll.sol\":5040:5055  block.timestamp */\n      timestamp\n        /* \"SimplePoll.sol\":5029:5072  Delegating(block.timestamp, msg.sender, to) */\n      0x1938da684279c3a3e042ae0800798e60f7262803cb9baab844ba3fa25ad1a682\n      mload(0x40)\n      mload(0x40)\n      dup1\n      swap2\n      sub\n      swap1\n      log4\n        /* \"SimplePoll.sol\":4278:5080  {... */\n      pop\n      pop\n        /* \"SimplePoll.sol\":4217:5080  function delegate(address to) external hasDeadlineNotExpired {... */\n      pop\n      jump\t// out\n        /* \"SimplePoll.sol\":860:885  string public description */\n    tag_44:\n      0x02\n      dup1\n      sload\n      tag_111\n      swap1\n      tag_68\n      jump\t// in\n    tag_111:\n      dup1\n      0x1f\n      add\n      0x20\n      dup1\n      swap2\n      div\n      mul\n      0x20\n      add\n      mload(0x40)\n      swap1\n      dup2\n      add\n      0x40\n      mstore\n      dup1\n      swap3\n      swap2\n      swap1\n      dup2\n      dup2\n      mstore\n      0x20\n      add\n      dup3\n      dup1\n      sload\n      tag_112\n      swap1\n      tag_68\n      jump\t// in\n    tag_112:\n      dup1\n      iszero\n      tag_113\n      jumpi\n      dup1\n      0x1f\n      lt\n      tag_114\n      jumpi\n      0x0100\n      dup1\n      dup4\n      sload\n      div\n      mul\n      dup4\n      mstore\n      swap2\n      0x20\n      add\n      swap2\n      jump(tag_113)\n    tag_114:\n      dup3\n      add\n      swap2\n      swap1\n      0x00\n      mstore\n      keccak256(0x00, 0x20)\n      swap1\n    tag_115:\n      dup2\n      sload\n      dup2\n      mstore\n      swap1\n      0x01\n      add\n      swap1\n      0x20\n      add\n      dup1\n      dup4\n      gt\n      tag_115\n      jumpi\n      dup3\n      swap1\n      sub\n      0x1f\n      and\n      dup3\n      add\n      swap2\n    tag_113:\n      pop\n      pop\n      pop\n      pop\n      pop\n      dup2\n      jump\t// out\n        /* \"SimplePoll.sol\":2118:2225  function isDeadlineExpired() public view returns(bool) {... */\n    tag_48:\n        /* \"SimplePoll.sol\":2167:2171  bool */\n      0x00\n        /* \"SimplePoll.sol\":2209:2217  deadline */\n      sload(0x03)\n        /* \"SimplePoll.sol\":2191:2206  block.timestamp */\n      timestamp\n        /* \"SimplePoll.sol\":2191:2217  block.timestamp > deadline */\n      gt\n        /* \"SimplePoll.sol\":2184:2217  return block.timestamp > deadline */\n      swap1\n      pop\n        /* \"SimplePoll.sol\":2118:2225  function isDeadlineExpired() public view returns(bool) {... */\n      swap1\n      jump\t// out\n        /* \"SimplePoll.sol\":967:1020  mapping(address => SharedStructs.Voter) public voters */\n    tag_52:\n      mstore(0x20, 0x05)\n      dup1\n      0x00\n      mstore\n      keccak256(0x00, 0x40)\n      0x00\n      swap2\n      pop\n      swap1\n      pop\n      dup1\n      0x00\n      add\n      0x00\n      swap1\n      sload\n      swap1\n      0x0100\n      exp\n      swap1\n      div\n      0xff\n      and\n      swap1\n      dup1\n      0x00\n      add\n      0x01\n      swap1\n      sload\n      swap1\n      0x0100\n      exp\n      swap1\n      div\n      0xff\n      and\n      swap1\n      dup1\n      0x00\n      add\n      0x02\n      swap1\n      sload\n      swap1\n      0x0100\n      exp\n      swap1\n      div\n      0xff\n      and\n      swap1\n      dup1\n      0x01\n      add\n      sload\n      swap1\n      dup1\n      0x02\n      add\n      0x00\n      swap1\n      sload\n      swap1\n      0x0100\n      exp\n      swap1\n      div\n      0xffffffffffffffffffffffffffffffffffffffff\n      and\n      swap1\n      pop\n      dup6\n      jump\t// out\n        /* \"SimplePoll.sol\":5088:5477  function vote(uint8 proposalIndex) external override hasDeadlineNotExpired isProposalIndexCorrect(proposalIndex) {... */\n    tag_58:\n        /* \"SimplePoll.sol\":1395:1414  isDeadlineExpired() */\n      tag_118\n        /* \"SimplePoll.sol\":1395:1412  isDeadlineExpired */\n      tag_48\n        /* \"SimplePoll.sol\":1395:1414  isDeadlineExpired() */\n      jump\t// in\n    tag_118:\n        /* \"SimplePoll.sol\":1394:1414  !isDeadlineExpired() */\n      iszero\n        /* \"SimplePoll.sol\":1386:1440  require(!isDeadlineExpired(), \"Deadline has expired.\") */\n      tag_119\n      jumpi\n      mload(0x40)\n      0x08c379a000000000000000000000000000000000000000000000000000000000\n      dup2\n      mstore\n      0x04\n      add\n      tag_120\n      swap1\n      tag_87\n      jump\t// in\n    tag_120:\n      mload(0x40)\n      dup1\n      swap2\n      sub\n      swap1\n      revert\n    tag_119:\n        /* \"SimplePoll.sol\":5186:5199  proposalIndex */\n      dup1\n        /* \"SimplePoll.sol\":1264:1273  proposals */\n      0x04\n        /* \"SimplePoll.sol\":1264:1280  proposals.length */\n      dup1\n      sload\n      swap1\n      pop\n        /* \"SimplePoll.sol\":1248:1261  proposalIndex */\n      dup2\n        /* \"SimplePoll.sol\":1248:1280  proposalIndex < proposals.length */\n      0xff\n      and\n      lt\n        /* \"SimplePoll.sol\":1240:1314  require(proposalIndex < proposals.length, \"This proposal does not exist.\") */\n      tag_122\n      jumpi\n      mload(0x40)\n      0x08c379a000000000000000000000000000000000000000000000000000000000\n      dup2\n      mstore\n      0x04\n      add\n      tag_123\n      swap1\n      tag_124\n      jump\t// in\n    tag_123:\n      mload(0x40)\n      dup1\n      swap2\n      sub\n      swap1\n      revert\n    tag_122:\n        /* \"SimplePoll.sol\":5212:5246  SharedStructs.Voter storage sender */\n      0x00\n        /* \"SimplePoll.sol\":5249:5255  voters */\n      0x05\n        /* \"SimplePoll.sol\":5249:5267  voters[msg.sender] */\n      0x00\n        /* \"SimplePoll.sol\":5256:5266  msg.sender */\n      caller\n        /* \"SimplePoll.sol\":5249:5267  voters[msg.sender] */\n      0xffffffffffffffffffffffffffffffffffffffff\n      and\n      0xffffffffffffffffffffffffffffffffffffffff\n      and\n      dup2\n      mstore\n      0x20\n      add\n      swap1\n      dup2\n      mstore\n      0x20\n      add\n      0x00\n      keccak256\n        /* \"SimplePoll.sol\":5212:5267  SharedStructs.Voter storage sender = voters[msg.sender] */\n      swap1\n      pop\n        /* \"SimplePoll.sol\":5287:5293  sender */\n      dup1\n        /* \"SimplePoll.sol\":5287:5299  sender.voted */\n      0x00\n      add\n      0x01\n      swap1\n      sload\n      swap1\n      0x0100\n      exp\n      swap1\n      div\n      0xff\n      and\n        /* \"SimplePoll.sol\":5286:5299  !sender.voted */\n      iszero\n        /* \"SimplePoll.sol\":5278:5318  require(!sender.voted, \"Already voted.\") */\n      tag_126\n      jumpi\n      mload(0x40)\n      0x08c379a000000000000000000000000000000000000000000000000000000000\n      dup2\n      mstore\n      0x04\n      add\n      tag_127\n      swap1\n      tag_91\n      jump\t// in\n    tag_127:\n      mload(0x40)\n      dup1\n      swap2\n      sub\n      swap1\n      revert\n    tag_126:\n        /* \"SimplePoll.sol\":5344:5348  true */\n      0x01\n        /* \"SimplePoll.sol\":5329:5335  sender */\n      dup2\n        /* \"SimplePoll.sol\":5329:5341  sender.voted */\n      0x00\n      add\n      0x01\n        /* \"SimplePoll.sol\":5329:5348  sender.voted = true */\n      0x0100\n      exp\n      dup2\n      sload\n      dup2\n      0xff\n      mul\n      not\n      and\n      swap1\n      dup4\n      iszero\n      iszero\n      mul\n      or\n      swap1\n      sstore\n      pop\n        /* \"SimplePoll.sol\":5373:5386  proposalIndex */\n      dup3\n        /* \"SimplePoll.sol\":5359:5365  sender */\n      dup2\n        /* \"SimplePoll.sol\":5359:5370  sender.vote */\n      0x00\n      add\n      0x02\n        /* \"SimplePoll.sol\":5359:5386  sender.vote = proposalIndex */\n      0x0100\n      exp\n      dup2\n      sload\n      dup2\n      0xff\n      mul\n      not\n      and\n      swap1\n      dup4\n      0xff\n      and\n      mul\n      or\n      swap1\n      sstore\n      pop\n        /* \"SimplePoll.sol\":5467:5468  1 */\n      0x01\n        /* \"SimplePoll.sol\":5436:5442  sender */\n      dup2\n        /* \"SimplePoll.sol\":5436:5464  sender.delegatingVotesNumber */\n      0x01\n      add\n      sload\n        /* \"SimplePoll.sol\":5436:5468  sender.delegatingVotesNumber + 1 */\n      tag_128\n      swap2\n      swap1\n      tag_102\n      jump\t// in\n    tag_128:\n        /* \"SimplePoll.sol\":5397:5406  proposals */\n      0x04\n        /* \"SimplePoll.sol\":5407:5420  proposalIndex */\n      dup5\n        /* \"SimplePoll.sol\":5397:5421  proposals[proposalIndex] */\n      0xff\n      and\n      dup2\n      sload\n      dup2\n      lt\n      tag_129\n      jumpi\n      tag_130\n      tag_105\n      jump\t// in\n    tag_130:\n    tag_129:\n      swap1\n      0x00\n      mstore\n      keccak256(0x00, 0x20)\n      swap1\n      0x02\n      mul\n      add\n        /* \"SimplePoll.sol\":5397:5431  proposals[proposalIndex].voteCount */\n      0x01\n      add\n      0x00\n        /* \"SimplePoll.sol\":5397:5469  proposals[proposalIndex].voteCount += (sender.delegatingVotesNumber + 1) */\n      dup3\n      dup3\n      sload\n      tag_132\n      swap2\n      swap1\n      tag_102\n      jump\t// in\n    tag_132:\n      swap3\n      pop\n      pop\n      dup2\n      swap1\n      sstore\n      pop\n        /* \"SimplePoll.sol\":5201:5477  {... */\n      pop\n        /* \"SimplePoll.sol\":1451:1452  _ */\n      pop\n        /* \"SimplePoll.sol\":5088:5477  function vote(uint8 proposalIndex) external override hasDeadlineNotExpired isProposalIndexCorrect(proposalIndex) {... */\n      pop\n      jump\t// out\n        /* \"SimplePoll.sol\":834:853  string public topic */\n    tag_60:\n      0x01\n      dup1\n      sload\n      tag_133\n      swap1\n      tag_68\n      jump\t// in\n    tag_133:\n      dup1\n      0x1f\n      add\n      0x20\n      dup1\n      swap2\n      div\n      mul\n      0x20\n      add\n      mload(0x40)\n      swap1\n      dup2\n      add\n      0x40\n      mstore\n      dup1\n      swap3\n      swap2\n      swap1\n      dup2\n      dup2\n      mstore\n      0x20\n      add\n      dup3\n      dup1\n      sload\n      tag_134\n      swap1\n      tag_68\n      jump\t// in\n    tag_134:\n      dup1\n      iszero\n      tag_135\n      jumpi\n      dup1\n      0x1f\n      lt\n      tag_136\n      jumpi\n      0x0100\n      dup1\n      dup4\n      sload\n      div\n      mul\n      dup4\n      mstore\n      swap2\n      0x20\n      add\n      swap2\n      jump(tag_135)\n    tag_136:\n      dup3\n      add\n      swap2\n      swap1\n      0x00\n      mstore\n      keccak256(0x00, 0x20)\n      swap1\n    tag_137:\n      dup2\n      sload\n      dup2\n      mstore\n      swap1\n      0x01\n      add\n      swap1\n      0x20\n      add\n      dup1\n      dup4\n      gt\n      tag_137\n      jumpi\n      dup3\n      swap1\n      sub\n      0x1f\n      and\n      dup3\n      add\n      swap2\n    tag_135:\n      pop\n      pop\n      pop\n      pop\n      pop\n      dup2\n      jump\t// out\n        /* \"SimplePoll.sol\":2354:2487  function winnerName() external view returns (string memory) {... */\n    tag_63:\n        /* \"SimplePoll.sol\":2399:2412  string memory */\n      0x60\n        /* \"SimplePoll.sol\":2432:2441  proposals */\n      0x04\n        /* \"SimplePoll.sol\":2442:2473  determineWinningProposalIndex() */\n      tag_139\n        /* \"SimplePoll.sol\":2442:2471  determineWinningProposalIndex */\n      tag_140\n        /* \"SimplePoll.sol\":2442:2473  determineWinningProposalIndex() */\n      jump\t// in\n    tag_139:\n        /* \"SimplePoll.sol\":2432:2474  proposals[determineWinningProposalIndex()] */\n      0xff\n      and\n      dup2\n      sload\n      dup2\n      lt\n      tag_141\n      jumpi\n      tag_142\n      tag_105\n      jump\t// in\n    tag_142:\n    tag_141:\n      swap1\n      0x00\n      mstore\n      keccak256(0x00, 0x20)\n      swap1\n      0x02\n      mul\n      add\n        /* \"SimplePoll.sol\":2432:2479  proposals[determineWinningProposalIndex()].name */\n      0x00\n      add\n        /* \"SimplePoll.sol\":2425:2479  return proposals[determineWinningProposalIndex()].name */\n      dup1\n      sload\n      tag_144\n      swap1\n      tag_68\n      jump\t// in\n    tag_144:\n      dup1\n      0x1f\n      add\n      0x20\n      dup1\n      swap2\n      div\n      mul\n      0x20\n      add\n      mload(0x40)\n      swap1\n      dup2\n      add\n      0x40\n      mstore\n      dup1\n      swap3\n      swap2\n      swap1\n      dup2\n      dup2\n      mstore\n      0x20\n      add\n      dup3\n      dup1\n      sload\n      tag_145\n      swap1\n      tag_68\n      jump\t// in\n    tag_145:\n      dup1\n      iszero\n      tag_146\n      jumpi\n      dup1\n      0x1f\n      lt\n      tag_147\n      jumpi\n      0x0100\n      dup1\n      dup4\n      sload\n      div\n      mul\n      dup4\n      mstore\n      swap2\n      0x20\n      add\n      swap2\n      jump(tag_146)\n    tag_147:\n      dup3\n      add\n      swap2\n      swap1\n      0x00\n      mstore\n      keccak256(0x00, 0x20)\n      swap1\n    tag_148:\n      dup2\n      sload\n      dup2\n      mstore\n      swap1\n      0x01\n      add\n      swap1\n      0x20\n      add\n      dup1\n      dup4\n      gt\n      tag_148\n      jumpi\n      dup3\n      swap1\n      sub\n      0x1f\n      and\n      dup3\n      add\n      swap2\n    tag_146:\n      pop\n      pop\n      pop\n      pop\n      pop\n      swap1\n      pop\n        /* \"SimplePoll.sol\":2354:2487  function winnerName() external view returns (string memory) {... */\n      swap1\n      jump\t// out\n        /* \"SimplePoll.sol\":2495:2850  function determineWinningProposalIndex() private view returns (uint8 index) {... */\n    tag_140:\n        /* \"SimplePoll.sol\":2558:2569  uint8 index */\n      0x00\n        /* \"SimplePoll.sol\":2582:2604  uint _winningVoteCount */\n      dup1\n        /* \"SimplePoll.sol\":2607:2608  0 */\n      0x00\n        /* \"SimplePoll.sol\":2582:2608  uint _winningVoteCount = 0 */\n      swap1\n      pop\n        /* \"SimplePoll.sol\":2624:2631  uint8 i */\n      0x00\n        /* \"SimplePoll.sol\":2619:2843  for (uint8 i = 0; i < proposals.length; i++) {... */\n    tag_150:\n        /* \"SimplePoll.sol\":2641:2650  proposals */\n      0x04\n        /* \"SimplePoll.sol\":2641:2657  proposals.length */\n      dup1\n      sload\n      swap1\n      pop\n        /* \"SimplePoll.sol\":2637:2638  i */\n      dup2\n        /* \"SimplePoll.sol\":2637:2657  i < proposals.length */\n      0xff\n      and\n      lt\n        /* \"SimplePoll.sol\":2619:2843  for (uint8 i = 0; i < proposals.length; i++) {... */\n      iszero\n      tag_151\n      jumpi\n        /* \"SimplePoll.sol\":2708:2725  _winningVoteCount */\n      dup2\n        /* \"SimplePoll.sol\":2683:2692  proposals */\n      0x04\n        /* \"SimplePoll.sol\":2693:2694  i */\n      dup3\n        /* \"SimplePoll.sol\":2683:2695  proposals[i] */\n      0xff\n      and\n      dup2\n      sload\n      dup2\n      lt\n      tag_153\n      jumpi\n      tag_154\n      tag_105\n      jump\t// in\n    tag_154:\n    tag_153:\n      swap1\n      0x00\n      mstore\n      keccak256(0x00, 0x20)\n      swap1\n      0x02\n      mul\n      add\n        /* \"SimplePoll.sol\":2683:2705  proposals[i].voteCount */\n      0x01\n      add\n      sload\n        /* \"SimplePoll.sol\":2683:2725  proposals[i].voteCount > _winningVoteCount */\n      gt\n        /* \"SimplePoll.sol\":2679:2832  if (proposals[i].voteCount > _winningVoteCount) {... */\n      iszero\n      tag_156\n      jumpi\n        /* \"SimplePoll.sol\":2766:2775  proposals */\n      0x04\n        /* \"SimplePoll.sol\":2776:2777  i */\n      dup2\n        /* \"SimplePoll.sol\":2766:2778  proposals[i] */\n      0xff\n      and\n      dup2\n      sload\n      dup2\n      lt\n      tag_157\n      jumpi\n      tag_158\n      tag_105\n      jump\t// in\n    tag_158:\n    tag_157:\n      swap1\n      0x00\n      mstore\n      keccak256(0x00, 0x20)\n      swap1\n      0x02\n      mul\n      add\n        /* \"SimplePoll.sol\":2766:2788  proposals[i].voteCount */\n      0x01\n      add\n      sload\n        /* \"SimplePoll.sol\":2746:2788  _winningVoteCount = proposals[i].voteCount */\n      swap2\n      pop\n        /* \"SimplePoll.sol\":2815:2816  i */\n      dup1\n        /* \"SimplePoll.sol\":2807:2816  index = i */\n      swap3\n      pop\n        /* \"SimplePoll.sol\":2679:2832  if (proposals[i].voteCount > _winningVoteCount) {... */\n    tag_156:\n        /* \"SimplePoll.sol\":2659:2662  i++ */\n      dup1\n      dup1\n      tag_160\n      swap1\n      tag_161\n      jump\t// in\n    tag_160:\n      swap2\n      pop\n      pop\n        /* \"SimplePoll.sol\":2619:2843  for (uint8 i = 0; i < proposals.length; i++) {... */\n      jump(tag_150)\n    tag_151:\n      pop\n        /* \"SimplePoll.sol\":2571:2850  {... */\n      pop\n        /* \"SimplePoll.sol\":2495:2850  function determineWinningProposalIndex() private view returns (uint8 index) {... */\n      swap1\n      jump\t// out\n        /* \"#utility.yul\":88:205   */\n    tag_163:\n        /* \"#utility.yul\":197:198   */\n      0x00\n        /* \"#utility.yul\":194:195   */\n      dup1\n        /* \"#utility.yul\":187:199   */\n      revert\n        /* \"#utility.yul\":334:411   */\n    tag_165:\n        /* \"#utility.yul\":371:378   */\n      0x00\n        /* \"#utility.yul\":400:405   */\n      dup2\n        /* \"#utility.yul\":389:405   */\n      swap1\n      pop\n        /* \"#utility.yul\":334:411   */\n      swap2\n      swap1\n      pop\n      jump\t// out\n        /* \"#utility.yul\":417:539   */\n    tag_166:\n        /* \"#utility.yul\":490:514   */\n      tag_213\n        /* \"#utility.yul\":508:513   */\n      dup2\n        /* \"#utility.yul\":490:514   */\n      tag_165\n      jump\t// in\n    tag_213:\n        /* \"#utility.yul\":483:488   */\n      dup2\n        /* \"#utility.yul\":480:515   */\n      eq\n        /* \"#utility.yul\":470:533   */\n      tag_214\n      jumpi\n        /* \"#utility.yul\":529:530   */\n      0x00\n        /* \"#utility.yul\":526:527   */\n      dup1\n        /* \"#utility.yul\":519:531   */\n      revert\n        /* \"#utility.yul\":470:533   */\n    tag_214:\n        /* \"#utility.yul\":417:539   */\n      pop\n      jump\t// out\n        /* \"#utility.yul\":545:684   */\n    tag_167:\n        /* \"#utility.yul\":591:596   */\n      0x00\n        /* \"#utility.yul\":629:635   */\n      dup2\n        /* \"#utility.yul\":616:636   */\n      calldataload\n        /* \"#utility.yul\":607:636   */\n      swap1\n      pop\n        /* \"#utility.yul\":645:678   */\n      tag_216\n        /* \"#utility.yul\":672:677   */\n      dup2\n        /* \"#utility.yul\":645:678   */\n      tag_166\n      jump\t// in\n    tag_216:\n        /* \"#utility.yul\":545:684   */\n      swap3\n      swap2\n      pop\n      pop\n      jump\t// out\n        /* \"#utility.yul\":690:1019   */\n    tag_18:\n        /* \"#utility.yul\":749:755   */\n      0x00\n        /* \"#utility.yul\":798:800   */\n      0x20\n        /* \"#utility.yul\":786:795   */\n      dup3\n        /* \"#utility.yul\":777:784   */\n      dup5\n        /* \"#utility.yul\":773:796   */\n      sub\n        /* \"#utility.yul\":769:801   */\n      slt\n        /* \"#utility.yul\":766:885   */\n      iszero\n      tag_218\n      jumpi\n        /* \"#utility.yul\":804:883   */\n      tag_219\n      tag_163\n      jump\t// in\n    tag_219:\n        /* \"#utility.yul\":766:885   */\n    tag_218:\n        /* \"#utility.yul\":924:925   */\n      0x00\n        /* \"#utility.yul\":949:1002   */\n      tag_220\n        /* \"#utility.yul\":994:1001   */\n      dup5\n        /* \"#utility.yul\":985:991   */\n      dup3\n        /* \"#utility.yul\":974:983   */\n      dup6\n        /* \"#utility.yul\":970:992   */\n      add\n        /* \"#utility.yul\":949:1002   */\n      tag_167\n      jump\t// in\n    tag_220:\n        /* \"#utility.yul\":939:1002   */\n      swap2\n      pop\n        /* \"#utility.yul\":895:1012   */\n      pop\n        /* \"#utility.yul\":690:1019   */\n      swap3\n      swap2\n      pop\n      pop\n      jump\t// out\n        /* \"#utility.yul\":1025:1124   */\n    tag_168:\n        /* \"#utility.yul\":1077:1083   */\n      0x00\n        /* \"#utility.yul\":1111:1116   */\n      dup2\n        /* \"#utility.yul\":1105:1117   */\n      mload\n        /* \"#utility.yul\":1095:1117   */\n      swap1\n      pop\n        /* \"#utility.yul\":1025:1124   */\n      swap2\n      swap1\n      pop\n      jump\t// out\n        /* \"#utility.yul\":1130:1299   */\n    tag_169:\n        /* \"#utility.yul\":1214:1225   */\n      0x00\n        /* \"#utility.yul\":1248:1254   */\n      dup3\n        /* \"#utility.yul\":1243:1246   */\n      dup3\n        /* \"#utility.yul\":1236:1255   */\n      mstore\n        /* \"#utility.yul\":1288:1292   */\n      0x20\n        /* \"#utility.yul\":1283:1286   */\n      dup3\n        /* \"#utility.yul\":1279:1293   */\n      add\n        /* \"#utility.yul\":1264:1293   */\n      swap1\n      pop\n        /* \"#utility.yul\":1130:1299   */\n      swap3\n      swap2\n      pop\n      pop\n      jump\t// out\n        /* \"#utility.yul\":1305:1551   */\n    tag_170:\n        /* \"#utility.yul\":1386:1387   */\n      0x00\n        /* \"#utility.yul\":1396:1509   */\n    tag_224:\n        /* \"#utility.yul\":1410:1416   */\n      dup4\n        /* \"#utility.yul\":1407:1408   */\n      dup2\n        /* \"#utility.yul\":1404:1417   */\n      lt\n        /* \"#utility.yul\":1396:1509   */\n      iszero\n      tag_226\n      jumpi\n        /* \"#utility.yul\":1495:1496   */\n      dup1\n        /* \"#utility.yul\":1490:1493   */\n      dup3\n        /* \"#utility.yul\":1486:1497   */\n      add\n        /* \"#utility.yul\":1480:1498   */\n      mload\n        /* \"#utility.yul\":1476:1477   */\n      dup2\n        /* \"#utility.yul\":1471:1474   */\n      dup5\n        /* \"#utility.yul\":1467:1478   */\n      add\n        /* \"#utility.yul\":1460:1499   */\n      mstore\n        /* \"#utility.yul\":1432:1434   */\n      0x20\n        /* \"#utility.yul\":1429:1430   */\n      dup2\n        /* \"#utility.yul\":1425:1435   */\n      add\n        /* \"#utility.yul\":1420:1435   */\n      swap1\n      pop\n        /* \"#utility.yul\":1396:1509   */\n      jump(tag_224)\n    tag_226:\n        /* \"#utility.yul\":1543:1544   */\n      0x00\n        /* \"#utility.yul\":1534:1540   */\n      dup5\n        /* \"#utility.yul\":1529:1532   */\n      dup5\n        /* \"#utility.yul\":1525:1541   */\n      add\n        /* \"#utility.yul\":1518:1545   */\n      mstore\n        /* \"#utility.yul\":1367:1551   */\n      pop\n        /* \"#utility.yul\":1305:1551   */\n      pop\n      pop\n      pop\n      jump\t// out\n        /* \"#utility.yul\":1557:1659   */\n    tag_171:\n        /* \"#utility.yul\":1598:1604   */\n      0x00\n        /* \"#utility.yul\":1649:1651   */\n      0x1f\n        /* \"#utility.yul\":1645:1652   */\n      not\n        /* \"#utility.yul\":1640:1642   */\n      0x1f\n        /* \"#utility.yul\":1633:1638   */\n      dup4\n        /* \"#utility.yul\":1629:1643   */\n      add\n        /* \"#utility.yul\":1625:1653   */\n      and\n        /* \"#utility.yul\":1615:1653   */\n      swap1\n      pop\n        /* \"#utility.yul\":1557:1659   */\n      swap2\n      swap1\n      pop\n      jump\t// out\n        /* \"#utility.yul\":1665:2042   */\n    tag_172:\n        /* \"#utility.yul\":1753:1756   */\n      0x00\n        /* \"#utility.yul\":1781:1820   */\n      tag_229\n        /* \"#utility.yul\":1814:1819   */\n      dup3\n        /* \"#utility.yul\":1781:1820   */\n      tag_168\n      jump\t// in\n    tag_229:\n        /* \"#utility.yul\":1836:1907   */\n      tag_230\n        /* \"#utility.yul\":1900:1906   */\n      dup2\n        /* \"#utility.yul\":1895:1898   */\n      dup6\n        /* \"#utility.yul\":1836:1907   */\n      tag_169\n      jump\t// in\n    tag_230:\n        /* \"#utility.yul\":1829:1907   */\n      swap4\n      pop\n        /* \"#utility.yul\":1916:1981   */\n      tag_231\n        /* \"#utility.yul\":1974:1980   */\n      dup2\n        /* \"#utility.yul\":1969:1972   */\n      dup6\n        /* \"#utility.yul\":1962:1966   */\n      0x20\n        /* \"#utility.yul\":1955:1960   */\n      dup7\n        /* \"#utility.yul\":1951:1967   */\n      add\n        /* \"#utility.yul\":1916:1981   */\n      tag_170\n      jump\t// in\n    tag_231:\n        /* \"#utility.yul\":2006:2035   */\n      tag_232\n        /* \"#utility.yul\":2028:2034   */\n      dup2\n        /* \"#utility.yul\":2006:2035   */\n      tag_171\n      jump\t// in\n    tag_232:\n        /* \"#utility.yul\":2001:2004   */\n      dup5\n        /* \"#utility.yul\":1997:2036   */\n      add\n        /* \"#utility.yul\":1990:2036   */\n      swap2\n      pop\n        /* \"#utility.yul\":1757:2042   */\n      pop\n        /* \"#utility.yul\":1665:2042   */\n      swap3\n      swap2\n      pop\n      pop\n      jump\t// out\n        /* \"#utility.yul\":2048:2166   */\n    tag_173:\n        /* \"#utility.yul\":2135:2159   */\n      tag_234\n        /* \"#utility.yul\":2153:2158   */\n      dup2\n        /* \"#utility.yul\":2135:2159   */\n      tag_165\n      jump\t// in\n    tag_234:\n        /* \"#utility.yul\":2130:2133   */\n      dup3\n        /* \"#utility.yul\":2123:2160   */\n      mstore\n        /* \"#utility.yul\":2048:2166   */\n      pop\n      pop\n      jump\t// out\n        /* \"#utility.yul\":2172:2595   */\n    tag_21:\n        /* \"#utility.yul\":2313:2317   */\n      0x00\n        /* \"#utility.yul\":2351:2353   */\n      0x40\n        /* \"#utility.yul\":2340:2349   */\n      dup3\n        /* \"#utility.yul\":2336:2354   */\n      add\n        /* \"#utility.yul\":2328:2354   */\n      swap1\n      pop\n        /* \"#utility.yul\":2400:2409   */\n      dup2\n        /* \"#utility.yul\":2394:2398   */\n      dup2\n        /* \"#utility.yul\":2390:2410   */\n      sub\n        /* \"#utility.yul\":2386:2387   */\n      0x00\n        /* \"#utility.yul\":2375:2384   */\n      dup4\n        /* \"#utility.yul\":2371:2388   */\n      add\n        /* \"#utility.yul\":2364:2411   */\n      mstore\n        /* \"#utility.yul\":2428:2506   */\n      tag_236\n        /* \"#utility.yul\":2501:2505   */\n      dup2\n        /* \"#utility.yul\":2492:2498   */\n      dup6\n        /* \"#utility.yul\":2428:2506   */\n      tag_172\n      jump\t// in\n    tag_236:\n        /* \"#utility.yul\":2420:2506   */\n      swap1\n      pop\n        /* \"#utility.yul\":2516:2588   */\n      tag_237\n        /* \"#utility.yul\":2584:2586   */\n      0x20\n        /* \"#utility.yul\":2573:2582   */\n      dup4\n        /* \"#utility.yul\":2569:2587   */\n      add\n        /* \"#utility.yul\":2560:2566   */\n      dup5\n        /* \"#utility.yul\":2516:2588   */\n      tag_173\n      jump\t// in\n    tag_237:\n        /* \"#utility.yul\":2172:2595   */\n      swap4\n      swap3\n      pop\n      pop\n      pop\n      jump\t// out\n        /* \"#utility.yul\":2601:2727   */\n    tag_174:\n        /* \"#utility.yul\":2638:2645   */\n      0x00\n        /* \"#utility.yul\":2678:2720   */\n      0xffffffffffffffffffffffffffffffffffffffff\n        /* \"#utility.yul\":2671:2676   */\n      dup3\n        /* \"#utility.yul\":2667:2721   */\n      and\n        /* \"#utility.yul\":2656:2721   */\n      swap1\n      pop\n        /* \"#utility.yul\":2601:2727   */\n      swap2\n      swap1\n      pop\n      jump\t// out\n        /* \"#utility.yul\":2733:2829   */\n    tag_175:\n        /* \"#utility.yul\":2770:2777   */\n      0x00\n        /* \"#utility.yul\":2799:2823   */\n      tag_240\n        /* \"#utility.yul\":2817:2822   */\n      dup3\n        /* \"#utility.yul\":2799:2823   */\n      tag_174\n      jump\t// in\n    tag_240:\n        /* \"#utility.yul\":2788:2823   */\n      swap1\n      pop\n        /* \"#utility.yul\":2733:2829   */\n      swap2\n      swap1\n      pop\n      jump\t// out\n        /* \"#utility.yul\":2835:2953   */\n    tag_176:\n        /* \"#utility.yul\":2922:2946   */\n      tag_242\n        /* \"#utility.yul\":2940:2945   */\n      dup2\n        /* \"#utility.yul\":2922:2946   */\n      tag_175\n      jump\t// in\n    tag_242:\n        /* \"#utility.yul\":2917:2920   */\n      dup3\n        /* \"#utility.yul\":2910:2947   */\n      mstore\n        /* \"#utility.yul\":2835:2953   */\n      pop\n      pop\n      jump\t// out\n        /* \"#utility.yul\":2959:3181   */\n    tag_25:\n        /* \"#utility.yul\":3052:3056   */\n      0x00\n        /* \"#utility.yul\":3090:3092   */\n      0x20\n        /* \"#utility.yul\":3079:3088   */\n      dup3\n        /* \"#utility.yul\":3075:3093   */\n      add\n        /* \"#utility.yul\":3067:3093   */\n      swap1\n      pop\n        /* \"#utility.yul\":3103:3174   */\n      tag_244\n        /* \"#utility.yul\":3171:3172   */\n      0x00\n        /* \"#utility.yul\":3160:3169   */\n      dup4\n        /* \"#utility.yul\":3156:3173   */\n      add\n        /* \"#utility.yul\":3147:3153   */\n      dup5\n        /* \"#utility.yul\":3103:3174   */\n      tag_176\n      jump\t// in\n    tag_244:\n        /* \"#utility.yul\":2959:3181   */\n      swap3\n      swap2\n      pop\n      pop\n      jump\t// out\n        /* \"#utility.yul\":3187:3309   */\n    tag_177:\n        /* \"#utility.yul\":3260:3284   */\n      tag_246\n        /* \"#utility.yul\":3278:3283   */\n      dup2\n        /* \"#utility.yul\":3260:3284   */\n      tag_175\n      jump\t// in\n    tag_246:\n        /* \"#utility.yul\":3253:3258   */\n      dup2\n        /* \"#utility.yul\":3250:3285   */\n      eq\n        /* \"#utility.yul\":3240:3303   */\n      tag_247\n      jumpi\n        /* \"#utility.yul\":3299:3300   */\n      0x00\n        /* \"#utility.yul\":3296:3297   */\n      dup1\n        /* \"#utility.yul\":3289:3301   */\n      revert\n        /* \"#utility.yul\":3240:3303   */\n    tag_247:\n        /* \"#utility.yul\":3187:3309   */\n      pop\n      jump\t// out\n        /* \"#utility.yul\":3315:3454   */\n    tag_178:\n        /* \"#utility.yul\":3361:3366   */\n      0x00\n        /* \"#utility.yul\":3399:3405   */\n      dup2\n        /* \"#utility.yul\":3386:3406   */\n      calldataload\n        /* \"#utility.yul\":3377:3406   */\n      swap1\n      pop\n        /* \"#utility.yul\":3415:3448   */\n      tag_249\n        /* \"#utility.yul\":3442:3447   */\n      dup2\n        /* \"#utility.yul\":3415:3448   */\n      tag_177\n      jump\t// in\n    tag_249:\n        /* \"#utility.yul\":3315:3454   */\n      swap3\n      swap2\n      pop\n      pop\n      jump\t// out\n        /* \"#utility.yul\":3460:3789   */\n    tag_28:\n        /* \"#utility.yul\":3519:3525   */\n      0x00\n        /* \"#utility.yul\":3568:3570   */\n      0x20\n        /* \"#utility.yul\":3556:3565   */\n      dup3\n        /* \"#utility.yul\":3547:3554   */\n      dup5\n        /* \"#utility.yul\":3543:3566   */\n      sub\n        /* \"#utility.yul\":3539:3571   */\n      slt\n        /* \"#utility.yul\":3536:3655   */\n      iszero\n      tag_251\n      jumpi\n        /* \"#utility.yul\":3574:3653   */\n      tag_252\n      tag_163\n      jump\t// in\n    tag_252:\n        /* \"#utility.yul\":3536:3655   */\n    tag_251:\n        /* \"#utility.yul\":3694:3695   */\n      0x00\n        /* \"#utility.yul\":3719:3772   */\n      tag_253\n        /* \"#utility.yul\":3764:3771   */\n      dup5\n        /* \"#utility.yul\":3755:3761   */\n      dup3\n        /* \"#utility.yul\":3744:3753   */\n      dup6\n        /* \"#utility.yul\":3740:3762   */\n      add\n        /* \"#utility.yul\":3719:3772   */\n      tag_178\n      jump\t// in\n    tag_253:\n        /* \"#utility.yul\":3709:3772   */\n      swap2\n      pop\n        /* \"#utility.yul\":3665:3782   */\n      pop\n        /* \"#utility.yul\":3460:3789   */\n      swap3\n      swap2\n      pop\n      pop\n      jump\t// out\n        /* \"#utility.yul\":3795:3885   */\n    tag_179:\n        /* \"#utility.yul\":3829:3836   */\n      0x00\n        /* \"#utility.yul\":3872:3877   */\n      dup2\n        /* \"#utility.yul\":3865:3878   */\n      iszero\n        /* \"#utility.yul\":3858:3879   */\n      iszero\n        /* \"#utility.yul\":3847:3879   */\n      swap1\n      pop\n        /* \"#utility.yul\":3795:3885   */\n      swap2\n      swap1\n      pop\n      jump\t// out\n        /* \"#utility.yul\":3891:4000   */\n    tag_180:\n        /* \"#utility.yul\":3972:3993   */\n      tag_256\n        /* \"#utility.yul\":3987:3992   */\n      dup2\n        /* \"#utility.yul\":3972:3993   */\n      tag_179\n      jump\t// in\n    tag_256:\n        /* \"#utility.yul\":3967:3970   */\n      dup3\n        /* \"#utility.yul\":3960:3994   */\n      mstore\n        /* \"#utility.yul\":3891:4000   */\n      pop\n      pop\n      jump\t// out\n        /* \"#utility.yul\":4006:4216   */\n    tag_31:\n        /* \"#utility.yul\":4093:4097   */\n      0x00\n        /* \"#utility.yul\":4131:4133   */\n      0x20\n        /* \"#utility.yul\":4120:4129   */\n      dup3\n        /* \"#utility.yul\":4116:4134   */\n      add\n        /* \"#utility.yul\":4108:4134   */\n      swap1\n      pop\n        /* \"#utility.yul\":4144:4209   */\n      tag_258\n        /* \"#utility.yul\":4206:4207   */\n      0x00\n        /* \"#utility.yul\":4195:4204   */\n      dup4\n        /* \"#utility.yul\":4191:4208   */\n      add\n        /* \"#utility.yul\":4182:4188   */\n      dup5\n        /* \"#utility.yul\":4144:4209   */\n      tag_180\n      jump\t// in\n    tag_258:\n        /* \"#utility.yul\":4006:4216   */\n      swap3\n      swap2\n      pop\n      pop\n      jump\t// out\n        /* \"#utility.yul\":4222:4444   */\n    tag_35:\n        /* \"#utility.yul\":4315:4319   */\n      0x00\n        /* \"#utility.yul\":4353:4355   */\n      0x20\n        /* \"#utility.yul\":4342:4351   */\n      dup3\n        /* \"#utility.yul\":4338:4356   */\n      add\n        /* \"#utility.yul\":4330:4356   */\n      swap1\n      pop\n        /* \"#utility.yul\":4366:4437   */\n      tag_260\n        /* \"#utility.yul\":4434:4435   */\n      0x00\n        /* \"#utility.yul\":4423:4432   */\n      dup4\n        /* \"#utility.yul\":4419:4436   */\n      add\n        /* \"#utility.yul\":4410:4416   */\n      dup5\n        /* \"#utility.yul\":4366:4437   */\n      tag_173\n      jump\t// in\n    tag_260:\n        /* \"#utility.yul\":4222:4444   */\n      swap3\n      swap2\n      pop\n      pop\n      jump\t// out\n        /* \"#utility.yul\":4450:4589   */\n    tag_181:\n        /* \"#utility.yul\":4542:4548   */\n      0x00\n        /* \"#utility.yul\":4576:4581   */\n      dup2\n        /* \"#utility.yul\":4570:4582   */\n      mload\n        /* \"#utility.yul\":4560:4582   */\n      swap1\n      pop\n        /* \"#utility.yul\":4450:4589   */\n      swap2\n      swap1\n      pop\n      jump\t// out\n        /* \"#utility.yul\":4595:4804   */\n    tag_182:\n        /* \"#utility.yul\":4719:4730   */\n      0x00\n        /* \"#utility.yul\":4753:4759   */\n      dup3\n        /* \"#utility.yul\":4748:4751   */\n      dup3\n        /* \"#utility.yul\":4741:4760   */\n      mstore\n        /* \"#utility.yul\":4793:4797   */\n      0x20\n        /* \"#utility.yul\":4788:4791   */\n      dup3\n        /* \"#utility.yul\":4784:4798   */\n      add\n        /* \"#utility.yul\":4769:4798   */\n      swap1\n      pop\n        /* \"#utility.yul\":4595:4804   */\n      swap3\n      swap2\n      pop\n      pop\n      jump\t// out\n        /* \"#utility.yul\":4810:4967   */\n    tag_183:\n        /* \"#utility.yul\":4902:4906   */\n      0x00\n        /* \"#utility.yul\":4925:4928   */\n      dup2\n        /* \"#utility.yul\":4917:4928   */\n      swap1\n      pop\n        /* \"#utility.yul\":4955:4959   */\n      0x20\n        /* \"#utility.yul\":4950:4953   */\n      dup3\n        /* \"#utility.yul\":4946:4960   */\n      add\n        /* \"#utility.yul\":4938:4960   */\n      swap1\n      pop\n        /* \"#utility.yul\":4810:4967   */\n      swap2\n      swap1\n      pop\n      jump\t// out\n        /* \"#utility.yul\":4973:5132   */\n    tag_184:\n        /* \"#utility.yul\":5047:5058   */\n      0x00\n        /* \"#utility.yul\":5081:5087   */\n      dup3\n        /* \"#utility.yul\":5076:5079   */\n      dup3\n        /* \"#utility.yul\":5069:5088   */\n      mstore\n        /* \"#utility.yul\":5121:5125   */\n      0x20\n        /* \"#utility.yul\":5116:5119   */\n      dup3\n        /* \"#utility.yul\":5112:5126   */\n      add\n        /* \"#utility.yul\":5097:5126   */\n      swap1\n      pop\n        /* \"#utility.yul\":4973:5132   */\n      swap3\n      swap2\n      pop\n      pop\n      jump\t// out\n        /* \"#utility.yul\":5138:5495   */\n    tag_185:\n        /* \"#utility.yul\":5216:5219   */\n      0x00\n        /* \"#utility.yul\":5244:5283   */\n      tag_266\n        /* \"#utility.yul\":5277:5282   */\n      dup3\n        /* \"#utility.yul\":5244:5283   */\n      tag_168\n      jump\t// in\n    tag_266:\n        /* \"#utility.yul\":5299:5360   */\n      tag_267\n        /* \"#utility.yul\":5353:5359   */\n      dup2\n        /* \"#utility.yul\":5348:5351   */\n      dup6\n        /* \"#utility.yul\":5299:5360   */\n      tag_184\n      jump\t// in\n    tag_267:\n        /* \"#utility.yul\":5292:5360   */\n      swap4\n      pop\n        /* \"#utility.yul\":5369:5434   */\n      tag_268\n        /* \"#utility.yul\":5427:5433   */\n      dup2\n        /* \"#utility.yul\":5422:5425   */\n      dup6\n        /* \"#utility.yul\":5415:5419   */\n      0x20\n        /* \"#utility.yul\":5408:5413   */\n      dup7\n        /* \"#utility.yul\":5404:5420   */\n      add\n        /* \"#utility.yul\":5369:5434   */\n      tag_170\n      jump\t// in\n    tag_268:\n        /* \"#utility.yul\":5459:5488   */\n      tag_269\n        /* \"#utility.yul\":5481:5487   */\n      dup2\n        /* \"#utility.yul\":5459:5488   */\n      tag_171\n      jump\t// in\n    tag_269:\n        /* \"#utility.yul\":5454:5457   */\n      dup5\n        /* \"#utility.yul\":5450:5489   */\n      add\n        /* \"#utility.yul\":5443:5489   */\n      swap2\n      pop\n        /* \"#utility.yul\":5220:5495   */\n      pop\n        /* \"#utility.yul\":5138:5495   */\n      swap3\n      swap2\n      pop\n      pop\n      jump\t// out\n        /* \"#utility.yul\":5501:5609   */\n    tag_186:\n        /* \"#utility.yul\":5578:5602   */\n      tag_271\n        /* \"#utility.yul\":5596:5601   */\n      dup2\n        /* \"#utility.yul\":5578:5602   */\n      tag_165\n      jump\t// in\n    tag_271:\n        /* \"#utility.yul\":5573:5576   */\n      dup3\n        /* \"#utility.yul\":5566:5603   */\n      mstore\n        /* \"#utility.yul\":5501:5609   */\n      pop\n      pop\n      jump\t// out\n        /* \"#utility.yul\":5685:6286   */\n    tag_187:\n        /* \"#utility.yul\":5794:5797   */\n      0x00\n        /* \"#utility.yul\":5830:5834   */\n      0x40\n        /* \"#utility.yul\":5825:5828   */\n      dup4\n        /* \"#utility.yul\":5821:5835   */\n      add\n        /* \"#utility.yul\":5917:5921   */\n      0x00\n        /* \"#utility.yul\":5910:5915   */\n      dup4\n        /* \"#utility.yul\":5906:5922   */\n      add\n        /* \"#utility.yul\":5900:5923   */\n      mload\n        /* \"#utility.yul\":5970:5973   */\n      dup5\n        /* \"#utility.yul\":5964:5968   */\n      dup3\n        /* \"#utility.yul\":5960:5974   */\n      sub\n        /* \"#utility.yul\":5953:5957   */\n      0x00\n        /* \"#utility.yul\":5948:5951   */\n      dup7\n        /* \"#utility.yul\":5944:5958   */\n      add\n        /* \"#utility.yul\":5937:5975   */\n      mstore\n        /* \"#utility.yul\":5996:6069   */\n      tag_273\n        /* \"#utility.yul\":6064:6068   */\n      dup3\n        /* \"#utility.yul\":6050:6062   */\n      dup3\n        /* \"#utility.yul\":5996:6069   */\n      tag_185\n      jump\t// in\n    tag_273:\n        /* \"#utility.yul\":5988:6069   */\n      swap2\n      pop\n        /* \"#utility.yul\":5845:6080   */\n      pop\n        /* \"#utility.yul\":6167:6171   */\n      0x20\n        /* \"#utility.yul\":6160:6165   */\n      dup4\n        /* \"#utility.yul\":6156:6172   */\n      add\n        /* \"#utility.yul\":6150:6173   */\n      mload\n        /* \"#utility.yul\":6186:6249   */\n      tag_274\n        /* \"#utility.yul\":6243:6247   */\n      0x20\n        /* \"#utility.yul\":6238:6241   */\n      dup7\n        /* \"#utility.yul\":6234:6248   */\n      add\n        /* \"#utility.yul\":6220:6232   */\n      dup3\n        /* \"#utility.yul\":6186:6249   */\n      tag_186\n      jump\t// in\n    tag_274:\n        /* \"#utility.yul\":6090:6259   */\n      pop\n        /* \"#utility.yul\":6276:6280   */\n      dup1\n        /* \"#utility.yul\":6269:6280   */\n      swap2\n      pop\n        /* \"#utility.yul\":5799:6286   */\n      pop\n        /* \"#utility.yul\":5685:6286   */\n      swap3\n      swap2\n      pop\n      pop\n      jump\t// out\n        /* \"#utility.yul\":6292:6548   */\n    tag_188:\n        /* \"#utility.yul\":6411:6421   */\n      0x00\n        /* \"#utility.yul\":6446:6542   */\n      tag_276\n        /* \"#utility.yul\":6538:6541   */\n      dup4\n        /* \"#utility.yul\":6530:6536   */\n      dup4\n        /* \"#utility.yul\":6446:6542   */\n      tag_187\n      jump\t// in\n    tag_276:\n        /* \"#utility.yul\":6432:6542   */\n      swap1\n      pop\n        /* \"#utility.yul\":6292:6548   */\n      swap3\n      swap2\n      pop\n      pop\n      jump\t// out\n        /* \"#utility.yul\":6554:6692   */\n    tag_189:\n        /* \"#utility.yul\":6649:6653   */\n      0x00\n        /* \"#utility.yul\":6681:6685   */\n      0x20\n        /* \"#utility.yul\":6676:6679   */\n      dup3\n        /* \"#utility.yul\":6672:6686   */\n      add\n        /* \"#utility.yul\":6664:6686   */\n      swap1\n      pop\n        /* \"#utility.yul\":6554:6692   */\n      swap2\n      swap1\n      pop\n      jump\t// out\n        /* \"#utility.yul\":6772:7883   */\n    tag_190:\n        /* \"#utility.yul\":6941:6944   */\n      0x00\n        /* \"#utility.yul\":6970:7049   */\n      tag_279\n        /* \"#utility.yul\":7043:7048   */\n      dup3\n        /* \"#utility.yul\":6970:7049   */\n      tag_181\n      jump\t// in\n    tag_279:\n        /* \"#utility.yul\":7065:7176   */\n      tag_280\n        /* \"#utility.yul\":7169:7175   */\n      dup2\n        /* \"#utility.yul\":7164:7167   */\n      dup6\n        /* \"#utility.yul\":7065:7176   */\n      tag_182\n      jump\t// in\n    tag_280:\n        /* \"#utility.yul\":7058:7176   */\n      swap4\n      pop\n        /* \"#utility.yul\":7202:7205   */\n      dup4\n        /* \"#utility.yul\":7247:7251   */\n      0x20\n        /* \"#utility.yul\":7239:7245   */\n      dup3\n        /* \"#utility.yul\":7235:7252   */\n      mul\n        /* \"#utility.yul\":7230:7233   */\n      dup6\n        /* \"#utility.yul\":7226:7253   */\n      add\n        /* \"#utility.yul\":7277:7358   */\n      tag_281\n        /* \"#utility.yul\":7352:7357   */\n      dup6\n        /* \"#utility.yul\":7277:7358   */\n      tag_183\n      jump\t// in\n    tag_281:\n        /* \"#utility.yul\":7381:7388   */\n      dup1\n        /* \"#utility.yul\":7412:7413   */\n      0x00\n        /* \"#utility.yul\":7397:7838   */\n    tag_282:\n        /* \"#utility.yul\":7422:7428   */\n      dup6\n        /* \"#utility.yul\":7419:7420   */\n      dup2\n        /* \"#utility.yul\":7416:7429   */\n      lt\n        /* \"#utility.yul\":7397:7838   */\n      iszero\n      tag_284\n      jumpi\n        /* \"#utility.yul\":7493:7502   */\n      dup5\n        /* \"#utility.yul\":7487:7491   */\n      dup5\n        /* \"#utility.yul\":7483:7503   */\n      sub\n        /* \"#utility.yul\":7478:7481   */\n      dup10\n        /* \"#utility.yul\":7471:7504   */\n      mstore\n        /* \"#utility.yul\":7544:7550   */\n      dup2\n        /* \"#utility.yul\":7538:7551   */\n      mload\n        /* \"#utility.yul\":7572:7686   */\n      tag_285\n        /* \"#utility.yul\":7681:7685   */\n      dup6\n        /* \"#utility.yul\":7666:7679   */\n      dup3\n        /* \"#utility.yul\":7572:7686   */\n      tag_188\n      jump\t// in\n    tag_285:\n        /* \"#utility.yul\":7564:7686   */\n      swap5\n      pop\n        /* \"#utility.yul\":7709:7794   */\n      tag_286\n        /* \"#utility.yul\":7787:7793   */\n      dup4\n        /* \"#utility.yul\":7709:7794   */\n      tag_189\n      jump\t// in\n    tag_286:\n        /* \"#utility.yul\":7699:7794   */\n      swap3\n      pop\n        /* \"#utility.yul\":7823:7827   */\n      0x20\n        /* \"#utility.yul\":7818:7821   */\n      dup11\n        /* \"#utility.yul\":7814:7828   */\n      add\n        /* \"#utility.yul\":7807:7828   */\n      swap10\n      pop\n        /* \"#utility.yul\":7457:7838   */\n      pop\n        /* \"#utility.yul\":7444:7445   */\n      0x01\n        /* \"#utility.yul\":7441:7442   */\n      dup2\n        /* \"#utility.yul\":7437:7446   */\n      add\n        /* \"#utility.yul\":7432:7446   */\n      swap1\n      pop\n        /* \"#utility.yul\":7397:7838   */\n      jump(tag_282)\n    tag_284:\n        /* \"#utility.yul\":7401:7415   */\n      pop\n        /* \"#utility.yul\":7854:7858   */\n      dup3\n        /* \"#utility.yul\":7847:7858   */\n      swap8\n      pop\n        /* \"#utility.yul\":7874:7877   */\n      dup8\n        /* \"#utility.yul\":7867:7877   */\n      swap6\n      pop\n        /* \"#utility.yul\":6946:7883   */\n      pop\n      pop\n      pop\n      pop\n      pop\n        /* \"#utility.yul\":6772:7883   */\n      swap3\n      swap2\n      pop\n      pop\n      jump\t// out\n        /* \"#utility.yul\":7889:8362   */\n    tag_39:\n        /* \"#utility.yul\":8082:8086   */\n      0x00\n        /* \"#utility.yul\":8120:8122   */\n      0x20\n        /* \"#utility.yul\":8109:8118   */\n      dup3\n        /* \"#utility.yul\":8105:8123   */\n      add\n        /* \"#utility.yul\":8097:8123   */\n      swap1\n      pop\n        /* \"#utility.yul\":8169:8178   */\n      dup2\n        /* \"#utility.yul\":8163:8167   */\n      dup2\n        /* \"#utility.yul\":8159:8179   */\n      sub\n        /* \"#utility.yul\":8155:8156   */\n      0x00\n        /* \"#utility.yul\":8144:8153   */\n      dup4\n        /* \"#utility.yul\":8140:8157   */\n      add\n        /* \"#utility.yul\":8133:8180   */\n      mstore\n        /* \"#utility.yul\":8197:8355   */\n      tag_288\n        /* \"#utility.yul\":8350:8354   */\n      dup2\n        /* \"#utility.yul\":8341:8347   */\n      dup5\n        /* \"#utility.yul\":8197:8355   */\n      tag_190\n      jump\t// in\n    tag_288:\n        /* \"#utility.yul\":8189:8355   */\n      swap1\n      pop\n        /* \"#utility.yul\":7889:8362   */\n      swap3\n      swap2\n      pop\n      pop\n      jump\t// out\n        /* \"#utility.yul\":8368:8681   */\n    tag_46:\n        /* \"#utility.yul\":8481:8485   */\n      0x00\n        /* \"#utility.yul\":8519:8521   */\n      0x20\n        /* \"#utility.yul\":8508:8517   */\n      dup3\n        /* \"#utility.yul\":8504:8522   */\n      add\n        /* \"#utility.yul\":8496:8522   */\n      swap1\n      pop\n        /* \"#utility.yul\":8568:8577   */\n      dup2\n        /* \"#utility.yul\":8562:8566   */\n      dup2\n        /* \"#utility.yul\":8558:8578   */\n      sub\n        /* \"#utility.yul\":8554:8555   */\n      0x00\n        /* \"#utility.yul\":8543:8552   */\n      dup4\n        /* \"#utility.yul\":8539:8556   */\n      add\n        /* \"#utility.yul\":8532:8579   */\n      mstore\n        /* \"#utility.yul\":8596:8674   */\n      tag_290\n        /* \"#utility.yul\":8669:8673   */\n      dup2\n        /* \"#utility.yul\":8660:8666   */\n      dup5\n        /* \"#utility.yul\":8596:8674   */\n      tag_172\n      jump\t// in\n    tag_290:\n        /* \"#utility.yul\":8588:8674   */\n      swap1\n      pop\n        /* \"#utility.yul\":8368:8681   */\n      swap3\n      swap2\n      pop\n      pop\n      jump\t// out\n        /* \"#utility.yul\":8687:8773   */\n    tag_191:\n        /* \"#utility.yul\":8722:8729   */\n      0x00\n        /* \"#utility.yul\":8762:8766   */\n      0xff\n        /* \"#utility.yul\":8755:8760   */\n      dup3\n        /* \"#utility.yul\":8751:8767   */\n      and\n        /* \"#utility.yul\":8740:8767   */\n      swap1\n      pop\n        /* \"#utility.yul\":8687:8773   */\n      swap2\n      swap1\n      pop\n      jump\t// out\n        /* \"#utility.yul\":8779:8891   */\n    tag_192:\n        /* \"#utility.yul\":8862:8884   */\n      tag_293\n        /* \"#utility.yul\":8878:8883   */\n      dup2\n        /* \"#utility.yul\":8862:8884   */\n      tag_191\n      jump\t// in\n    tag_293:\n        /* \"#utility.yul\":8857:8860   */\n      dup3\n        /* \"#utility.yul\":8850:8885   */\n      mstore\n        /* \"#utility.yul\":8779:8891   */\n      pop\n      pop\n      jump\t// out\n        /* \"#utility.yul\":8897:9529   */\n    tag_54:\n        /* \"#utility.yul\":9086:9090   */\n      0x00\n        /* \"#utility.yul\":9124:9127   */\n      0xa0\n        /* \"#utility.yul\":9113:9122   */\n      dup3\n        /* \"#utility.yul\":9109:9128   */\n      add\n        /* \"#utility.yul\":9101:9128   */\n      swap1\n      pop\n        /* \"#utility.yul\":9138:9203   */\n      tag_295\n        /* \"#utility.yul\":9200:9201   */\n      0x00\n        /* \"#utility.yul\":9189:9198   */\n      dup4\n        /* \"#utility.yul\":9185:9202   */\n      add\n        /* \"#utility.yul\":9176:9182   */\n      dup9\n        /* \"#utility.yul\":9138:9203   */\n      tag_180\n      jump\t// in\n    tag_295:\n        /* \"#utility.yul\":9213:9279   */\n      tag_296\n        /* \"#utility.yul\":9275:9277   */\n      0x20\n        /* \"#utility.yul\":9264:9273   */\n      dup4\n        /* \"#utility.yul\":9260:9278   */\n      add\n        /* \"#utility.yul\":9251:9257   */\n      dup8\n        /* \"#utility.yul\":9213:9279   */\n      tag_180\n      jump\t// in\n    tag_296:\n        /* \"#utility.yul\":9289:9357   */\n      tag_297\n        /* \"#utility.yul\":9353:9355   */\n      0x40\n        /* \"#utility.yul\":9342:9351   */\n      dup4\n        /* \"#utility.yul\":9338:9356   */\n      add\n        /* \"#utility.yul\":9329:9335   */\n      dup7\n        /* \"#utility.yul\":9289:9357   */\n      tag_192\n      jump\t// in\n    tag_297:\n        /* \"#utility.yul\":9367:9439   */\n      tag_298\n        /* \"#utility.yul\":9435:9437   */\n      0x60\n        /* \"#utility.yul\":9424:9433   */\n      dup4\n        /* \"#utility.yul\":9420:9438   */\n      add\n        /* \"#utility.yul\":9411:9417   */\n      dup6\n        /* \"#utility.yul\":9367:9439   */\n      tag_173\n      jump\t// in\n    tag_298:\n        /* \"#utility.yul\":9449:9522   */\n      tag_299\n        /* \"#utility.yul\":9517:9520   */\n      0x80\n        /* \"#utility.yul\":9506:9515   */\n      dup4\n        /* \"#utility.yul\":9502:9521   */\n      add\n        /* \"#utility.yul\":9493:9499   */\n      dup5\n        /* \"#utility.yul\":9449:9522   */\n      tag_176\n      jump\t// in\n    tag_299:\n        /* \"#utility.yul\":8897:9529   */\n      swap7\n      swap6\n      pop\n      pop\n      pop\n      pop\n      pop\n      pop\n      jump\t// out\n        /* \"#utility.yul\":9535:9653   */\n    tag_193:\n        /* \"#utility.yul\":9606:9628   */\n      tag_301\n        /* \"#utility.yul\":9622:9627   */\n      dup2\n        /* \"#utility.yul\":9606:9628   */\n      tag_191\n      jump\t// in\n    tag_301:\n        /* \"#utility.yul\":9599:9604   */\n      dup2\n        /* \"#utility.yul\":9596:9629   */\n      eq\n        /* \"#utility.yul\":9586:9647   */\n      tag_302\n      jumpi\n        /* \"#utility.yul\":9643:9644   */\n      0x00\n        /* \"#utility.yul\":9640:9641   */\n      dup1\n        /* \"#utility.yul\":9633:9645   */\n      revert\n        /* \"#utility.yul\":9586:9647   */\n    tag_302:\n        /* \"#utility.yul\":9535:9653   */\n      pop\n      jump\t// out\n        /* \"#utility.yul\":9659:9794   */\n    tag_194:\n        /* \"#utility.yul\":9703:9708   */\n      0x00\n        /* \"#utility.yul\":9741:9747   */\n      dup2\n        /* \"#utility.yul\":9728:9748   */\n      calldataload\n        /* \"#utility.yul\":9719:9748   */\n      swap1\n      pop\n        /* \"#utility.yul\":9757:9788   */\n      tag_304\n        /* \"#utility.yul\":9782:9787   */\n      dup2\n        /* \"#utility.yul\":9757:9788   */\n      tag_193\n      jump\t// in\n    tag_304:\n        /* \"#utility.yul\":9659:9794   */\n      swap3\n      swap2\n      pop\n      pop\n      jump\t// out\n        /* \"#utility.yul\":9800:10125   */\n    tag_57:\n        /* \"#utility.yul\":9857:9863   */\n      0x00\n        /* \"#utility.yul\":9906:9908   */\n      0x20\n        /* \"#utility.yul\":9894:9903   */\n      dup3\n        /* \"#utility.yul\":9885:9892   */\n      dup5\n        /* \"#utility.yul\":9881:9904   */\n      sub\n        /* \"#utility.yul\":9877:9909   */\n      slt\n        /* \"#utility.yul\":9874:9993   */\n      iszero\n      tag_306\n      jumpi\n        /* \"#utility.yul\":9912:9991   */\n      tag_307\n      tag_163\n      jump\t// in\n    tag_307:\n        /* \"#utility.yul\":9874:9993   */\n    tag_306:\n        /* \"#utility.yul\":10032:10033   */\n      0x00\n        /* \"#utility.yul\":10057:10108   */\n      tag_308\n        /* \"#utility.yul\":10100:10107   */\n      dup5\n        /* \"#utility.yul\":10091:10097   */\n      dup3\n        /* \"#utility.yul\":10080:10089   */\n      dup6\n        /* \"#utility.yul\":10076:10098   */\n      add\n        /* \"#utility.yul\":10057:10108   */\n      tag_194\n      jump\t// in\n    tag_308:\n        /* \"#utility.yul\":10047:10108   */\n      swap2\n      pop\n        /* \"#utility.yul\":10003:10118   */\n      pop\n        /* \"#utility.yul\":9800:10125   */\n      swap3\n      swap2\n      pop\n      pop\n      jump\t// out\n        /* \"#utility.yul\":10131:10311   */\n    tag_195:\n        /* \"#utility.yul\":10179:10256   */\n      0x4e487b7100000000000000000000000000000000000000000000000000000000\n        /* \"#utility.yul\":10176:10177   */\n      0x00\n        /* \"#utility.yul\":10169:10257   */\n      mstore\n        /* \"#utility.yul\":10276:10280   */\n      0x22\n        /* \"#utility.yul\":10273:10274   */\n      0x04\n        /* \"#utility.yul\":10266:10281   */\n      mstore\n        /* \"#utility.yul\":10300:10304   */\n      0x24\n        /* \"#utility.yul\":10297:10298   */\n      0x00\n        /* \"#utility.yul\":10290:10305   */\n      revert\n        /* \"#utility.yul\":10317:10637   */\n    tag_68:\n        /* \"#utility.yul\":10361:10367   */\n      0x00\n        /* \"#utility.yul\":10398:10399   */\n      0x02\n        /* \"#utility.yul\":10392:10396   */\n      dup3\n        /* \"#utility.yul\":10388:10400   */\n      div\n        /* \"#utility.yul\":10378:10400   */\n      swap1\n      pop\n        /* \"#utility.yul\":10445:10446   */\n      0x01\n        /* \"#utility.yul\":10439:10443   */\n      dup3\n        /* \"#utility.yul\":10435:10447   */\n      and\n        /* \"#utility.yul\":10466:10484   */\n      dup1\n        /* \"#utility.yul\":10456:10537   */\n      tag_311\n      jumpi\n        /* \"#utility.yul\":10522:10526   */\n      0x7f\n        /* \"#utility.yul\":10514:10520   */\n      dup3\n        /* \"#utility.yul\":10510:10527   */\n      and\n        /* \"#utility.yul\":10500:10527   */\n      swap2\n      pop\n        /* \"#utility.yul\":10456:10537   */\n    tag_311:\n        /* \"#utility.yul\":10584:10586   */\n      0x20\n        /* \"#utility.yul\":10576:10582   */\n      dup3\n        /* \"#utility.yul\":10573:10587   */\n      lt\n        /* \"#utility.yul\":10553:10571   */\n      dup2\n        /* \"#utility.yul\":10550:10588   */\n      sub\n        /* \"#utility.yul\":10547:10631   */\n      tag_312\n      jumpi\n        /* \"#utility.yul\":10603:10621   */\n      tag_313\n      tag_195\n      jump\t// in\n    tag_313:\n        /* \"#utility.yul\":10547:10631   */\n    tag_312:\n        /* \"#utility.yul\":10368:10637   */\n      pop\n        /* \"#utility.yul\":10317:10637   */\n      swap2\n      swap1\n      pop\n      jump\t// out\n        /* \"#utility.yul\":10643:10814   */\n    tag_196:\n        /* \"#utility.yul\":10783:10806   */\n      0x446561646c696e652068617320657870697265642e0000000000000000000000\n        /* \"#utility.yul\":10779:10780   */\n      0x00\n        /* \"#utility.yul\":10771:10777   */\n      dup3\n        /* \"#utility.yul\":10767:10781   */\n      add\n        /* \"#utility.yul\":10760:10807   */\n      mstore\n        /* \"#utility.yul\":10643:10814   */\n      pop\n      jump\t// out\n        /* \"#utility.yul\":10820:11186   */\n    tag_197:\n        /* \"#utility.yul\":10962:10965   */\n      0x00\n        /* \"#utility.yul\":10983:11050   */\n      tag_316\n        /* \"#utility.yul\":11047:11049   */\n      0x15\n        /* \"#utility.yul\":11042:11045   */\n      dup4\n        /* \"#utility.yul\":10983:11050   */\n      tag_169\n      jump\t// in\n    tag_316:\n        /* \"#utility.yul\":10976:11050   */\n      swap2\n      pop\n        /* \"#utility.yul\":11059:11152   */\n      tag_317\n        /* \"#utility.yul\":11148:11151   */\n      dup3\n        /* \"#utility.yul\":11059:11152   */\n      tag_196\n      jump\t// in\n    tag_317:\n        /* \"#utility.yul\":11177:11179   */\n      0x20\n        /* \"#utility.yul\":11172:11175   */\n      dup3\n        /* \"#utility.yul\":11168:11180   */\n      add\n        /* \"#utility.yul\":11161:11180   */\n      swap1\n      pop\n        /* \"#utility.yul\":10820:11186   */\n      swap2\n      swap1\n      pop\n      jump\t// out\n        /* \"#utility.yul\":11192:11611   */\n    tag_87:\n        /* \"#utility.yul\":11358:11362   */\n      0x00\n        /* \"#utility.yul\":11396:11398   */\n      0x20\n        /* \"#utility.yul\":11385:11394   */\n      dup3\n        /* \"#utility.yul\":11381:11399   */\n      add\n        /* \"#utility.yul\":11373:11399   */\n      swap1\n      pop\n        /* \"#utility.yul\":11445:11454   */\n      dup2\n        /* \"#utility.yul\":11439:11443   */\n      dup2\n        /* \"#utility.yul\":11435:11455   */\n      sub\n        /* \"#utility.yul\":11431:11432   */\n      0x00\n        /* \"#utility.yul\":11420:11429   */\n      dup4\n        /* \"#utility.yul\":11416:11433   */\n      add\n        /* \"#utility.yul\":11409:11456   */\n      mstore\n        /* \"#utility.yul\":11473:11604   */\n      tag_319\n        /* \"#utility.yul\":11599:11603   */\n      dup2\n        /* \"#utility.yul\":11473:11604   */\n      tag_197\n      jump\t// in\n    tag_319:\n        /* \"#utility.yul\":11465:11604   */\n      swap1\n      pop\n        /* \"#utility.yul\":11192:11611   */\n      swap2\n      swap1\n      pop\n      jump\t// out\n        /* \"#utility.yul\":11617:11781   */\n    tag_198:\n        /* \"#utility.yul\":11757:11773   */\n      0x416c726561647920766f7465642e000000000000000000000000000000000000\n        /* \"#utility.yul\":11753:11754   */\n      0x00\n        /* \"#utility.yul\":11745:11751   */\n      dup3\n        /* \"#utility.yul\":11741:11755   */\n      add\n        /* \"#utility.yul\":11734:11774   */\n      mstore\n        /* \"#utility.yul\":11617:11781   */\n      pop\n      jump\t// out\n        /* \"#utility.yul\":11787:12153   */\n    tag_199:\n        /* \"#utility.yul\":11929:11932   */\n      0x00\n        /* \"#utility.yul\":11950:12017   */\n      tag_322\n        /* \"#utility.yul\":12014:12016   */\n      0x0e\n        /* \"#utility.yul\":12009:12012   */\n      dup4\n        /* \"#utility.yul\":11950:12017   */\n      tag_169\n      jump\t// in\n    tag_322:\n        /* \"#utility.yul\":11943:12017   */\n      swap2\n      pop\n        /* \"#utility.yul\":12026:12119   */\n      tag_323\n        /* \"#utility.yul\":12115:12118   */\n      dup3\n        /* \"#utility.yul\":12026:12119   */\n      tag_198\n      jump\t// in\n    tag_323:\n        /* \"#utility.yul\":12144:12146   */\n      0x20\n        /* \"#utility.yul\":12139:12142   */\n      dup3\n        /* \"#utility.yul\":12135:12147   */\n      add\n        /* \"#utility.yul\":12128:12147   */\n      swap1\n      pop\n        /* \"#utility.yul\":11787:12153   */\n      swap2\n      swap1\n      pop\n      jump\t// out\n        /* \"#utility.yul\":12159:12578   */\n    tag_91:\n        /* \"#utility.yul\":12325:12329   */\n      0x00\n        /* \"#utility.yul\":12363:12365   */\n      0x20\n        /* \"#utility.yul\":12352:12361   */\n      dup3\n        /* \"#utility.yul\":12348:12366   */\n      add\n        /* \"#utility.yul\":12340:12366   */\n      swap1\n      pop\n        /* \"#utility.yul\":12412:12421   */\n      dup2\n        /* \"#utility.yul\":12406:12410   */\n      dup2\n        /* \"#utility.yul\":12402:12422   */\n      sub\n        /* \"#utility.yul\":12398:12399   */\n      0x00\n        /* \"#utility.yul\":12387:12396   */\n      dup4\n        /* \"#utility.yul\":12383:12400   */\n      add\n        /* \"#utility.yul\":12376:12423   */\n      mstore\n        /* \"#utility.yul\":12440:12571   */\n      tag_325\n        /* \"#utility.yul\":12566:12570   */\n      dup2\n        /* \"#utility.yul\":12440:12571   */\n      tag_199\n      jump\t// in\n    tag_325:\n        /* \"#utility.yul\":12432:12571   */\n      swap1\n      pop\n        /* \"#utility.yul\":12159:12578   */\n      swap2\n      swap1\n      pop\n      jump\t// out\n        /* \"#utility.yul\":12584:12765   */\n    tag_200:\n        /* \"#utility.yul\":12724:12757   */\n      0x53656c662d64656c65676174696f6e206973206e6f7420616c6c6f7765642e00\n        /* \"#utility.yul\":12720:12721   */\n      0x00\n        /* \"#utility.yul\":12712:12718   */\n      dup3\n        /* \"#utility.yul\":12708:12722   */\n      add\n        /* \"#utility.yul\":12701:12758   */\n      mstore\n        /* \"#utility.yul\":12584:12765   */\n      pop\n      jump\t// out\n        /* \"#utility.yul\":12771:13137   */\n    tag_201:\n        /* \"#utility.yul\":12913:12916   */\n      0x00\n        /* \"#utility.yul\":12934:13001   */\n      tag_328\n        /* \"#utility.yul\":12998:13000   */\n      0x1f\n        /* \"#utility.yul\":12993:12996   */\n      dup4\n        /* \"#utility.yul\":12934:13001   */\n      tag_169\n      jump\t// in\n    tag_328:\n        /* \"#utility.yul\":12927:13001   */\n      swap2\n      pop\n        /* \"#utility.yul\":13010:13103   */\n      tag_329\n        /* \"#utility.yul\":13099:13102   */\n      dup3\n        /* \"#utility.yul\":13010:13103   */\n      tag_200\n      jump\t// in\n    tag_329:\n        /* \"#utility.yul\":13128:13130   */\n      0x20\n        /* \"#utility.yul\":13123:13126   */\n      dup3\n        /* \"#utility.yul\":13119:13131   */\n      add\n        /* \"#utility.yul\":13112:13131   */\n      swap1\n      pop\n        /* \"#utility.yul\":12771:13137   */\n      swap2\n      swap1\n      pop\n      jump\t// out\n        /* \"#utility.yul\":13143:13562   */\n    tag_94:\n        /* \"#utility.yul\":13309:13313   */\n      0x00\n        /* \"#utility.yul\":13347:13349   */\n      0x20\n        /* \"#utility.yul\":13336:13345   */\n      dup3\n        /* \"#utility.yul\":13332:13350   */\n      add\n        /* \"#utility.yul\":13324:13350   */\n      swap1\n      pop\n        /* \"#utility.yul\":13396:13405   */\n      dup2\n        /* \"#utility.yul\":13390:13394   */\n      dup2\n        /* \"#utility.yul\":13386:13406   */\n      sub\n        /* \"#utility.yul\":13382:13383   */\n      0x00\n        /* \"#utility.yul\":13371:13380   */\n      dup4\n        /* \"#utility.yul\":13367:13384   */\n      add\n        /* \"#utility.yul\":13360:13407   */\n      mstore\n        /* \"#utility.yul\":13424:13555   */\n      tag_331\n        /* \"#utility.yul\":13550:13554   */\n      dup2\n        /* \"#utility.yul\":13424:13555   */\n      tag_201\n      jump\t// in\n    tag_331:\n        /* \"#utility.yul\":13416:13555   */\n      swap1\n      pop\n        /* \"#utility.yul\":13143:13562   */\n      swap2\n      swap1\n      pop\n      jump\t// out\n        /* \"#utility.yul\":13568:13743   */\n    tag_202:\n        /* \"#utility.yul\":13708:13735   */\n      0x466f756e64206c6f6f7020696e2064656c65676174696f6e2e00000000000000\n        /* \"#utility.yul\":13704:13705   */\n      0x00\n        /* \"#utility.yul\":13696:13702   */\n      dup3\n        /* \"#utility.yul\":13692:13706   */\n      add\n        /* \"#utility.yul\":13685:13736   */\n      mstore\n        /* \"#utility.yul\":13568:13743   */\n      pop\n      jump\t// out\n        /* \"#utility.yul\":13749:14115   */\n    tag_203:\n        /* \"#utility.yul\":13891:13894   */\n      0x00\n        /* \"#utility.yul\":13912:13979   */\n      tag_334\n        /* \"#utility.yul\":13976:13978   */\n      0x19\n        /* \"#utility.yul\":13971:13974   */\n      dup4\n        /* \"#utility.yul\":13912:13979   */\n      tag_169\n      jump\t// in\n    tag_334:\n        /* \"#utility.yul\":13905:13979   */\n      swap2\n      pop\n        /* \"#utility.yul\":13988:14081   */\n      tag_335\n        /* \"#utility.yul\":14077:14080   */\n      dup3\n        /* \"#utility.yul\":13988:14081   */\n      tag_202\n      jump\t// in\n    tag_335:\n        /* \"#utility.yul\":14106:14108   */\n      0x20\n        /* \"#utility.yul\":14101:14104   */\n      dup3\n        /* \"#utility.yul\":14097:14109   */\n      add\n        /* \"#utility.yul\":14090:14109   */\n      swap1\n      pop\n        /* \"#utility.yul\":13749:14115   */\n      swap2\n      swap1\n      pop\n      jump\t// out\n        /* \"#utility.yul\":14121:14540   */\n    tag_99:\n        /* \"#utility.yul\":14287:14291   */\n      0x00\n        /* \"#utility.yul\":14325:14327   */\n      0x20\n        /* \"#utility.yul\":14314:14323   */\n      dup3\n        /* \"#utility.yul\":14310:14328   */\n      add\n        /* \"#utility.yul\":14302:14328   */\n      swap1\n      pop\n        /* \"#utility.yul\":14374:14383   */\n      dup2\n        /* \"#utility.yul\":14368:14372   */\n      dup2\n        /* \"#utility.yul\":14364:14384   */\n      sub\n        /* \"#utility.yul\":14360:14361   */\n      0x00\n        /* \"#utility.yul\":14349:14358   */\n      dup4\n        /* \"#utility.yul\":14345:14362   */\n      add\n        /* \"#utility.yul\":14338:14385   */\n      mstore\n        /* \"#utility.yul\":14402:14533   */\n      tag_337\n        /* \"#utility.yul\":14528:14532   */\n      dup2\n        /* \"#utility.yul\":14402:14533   */\n      tag_203\n      jump\t// in\n    tag_337:\n        /* \"#utility.yul\":14394:14533   */\n      swap1\n      pop\n        /* \"#utility.yul\":14121:14540   */\n      swap2\n      swap1\n      pop\n      jump\t// out\n        /* \"#utility.yul\":14546:14726   */\n    tag_204:\n        /* \"#utility.yul\":14594:14671   */\n      0x4e487b7100000000000000000000000000000000000000000000000000000000\n        /* \"#utility.yul\":14591:14592   */\n      0x00\n        /* \"#utility.yul\":14584:14672   */\n      mstore\n        /* \"#utility.yul\":14691:14695   */\n      0x11\n        /* \"#utility.yul\":14688:14689   */\n      0x04\n        /* \"#utility.yul\":14681:14696   */\n      mstore\n        /* \"#utility.yul\":14715:14719   */\n      0x24\n        /* \"#utility.yul\":14712:14713   */\n      0x00\n        /* \"#utility.yul\":14705:14720   */\n      revert\n        /* \"#utility.yul\":14732:14923   */\n    tag_102:\n        /* \"#utility.yul\":14772:14775   */\n      0x00\n        /* \"#utility.yul\":14791:14811   */\n      tag_340\n        /* \"#utility.yul\":14809:14810   */\n      dup3\n        /* \"#utility.yul\":14791:14811   */\n      tag_165\n      jump\t// in\n    tag_340:\n        /* \"#utility.yul\":14786:14811   */\n      swap2\n      pop\n        /* \"#utility.yul\":14825:14845   */\n      tag_341\n        /* \"#utility.yul\":14843:14844   */\n      dup4\n        /* \"#utility.yul\":14825:14845   */\n      tag_165\n      jump\t// in\n    tag_341:\n        /* \"#utility.yul\":14820:14845   */\n      swap3\n      pop\n        /* \"#utility.yul\":14868:14869   */\n      dup3\n        /* \"#utility.yul\":14865:14866   */\n      dup3\n        /* \"#utility.yul\":14861:14870   */\n      add\n        /* \"#utility.yul\":14854:14870   */\n      swap1\n      pop\n        /* \"#utility.yul\":14889:14892   */\n      dup1\n        /* \"#utility.yul\":14886:14887   */\n      dup3\n        /* \"#utility.yul\":14883:14893   */\n      gt\n        /* \"#utility.yul\":14880:14916   */\n      iszero\n      tag_342\n      jumpi\n        /* \"#utility.yul\":14896:14914   */\n      tag_343\n      tag_204\n      jump\t// in\n    tag_343:\n        /* \"#utility.yul\":14880:14916   */\n    tag_342:\n        /* \"#utility.yul\":14732:14923   */\n      swap3\n      swap2\n      pop\n      pop\n      jump\t// out\n        /* \"#utility.yul\":14929:15109   */\n    tag_105:\n        /* \"#utility.yul\":14977:15054   */\n      0x4e487b7100000000000000000000000000000000000000000000000000000000\n        /* \"#utility.yul\":14974:14975   */\n      0x00\n        /* \"#utility.yul\":14967:15055   */\n      mstore\n        /* \"#utility.yul\":15074:15078   */\n      0x32\n        /* \"#utility.yul\":15071:15072   */\n      0x04\n        /* \"#utility.yul\":15064:15079   */\n      mstore\n        /* \"#utility.yul\":15098:15102   */\n      0x24\n        /* \"#utility.yul\":15095:15096   */\n      0x00\n        /* \"#utility.yul\":15088:15103   */\n      revert\n        /* \"#utility.yul\":15115:15294   */\n    tag_205:\n        /* \"#utility.yul\":15255:15286   */\n      0x546869732070726f706f73616c20646f6573206e6f742065786973742e000000\n        /* \"#utility.yul\":15251:15252   */\n      0x00\n        /* \"#utility.yul\":15243:15249   */\n      dup3\n        /* \"#utility.yul\":15239:15253   */\n      add\n        /* \"#utility.yul\":15232:15287   */\n      mstore\n        /* \"#utility.yul\":15115:15294   */\n      pop\n      jump\t// out\n        /* \"#utility.yul\":15300:15666   */\n    tag_206:\n        /* \"#utility.yul\":15442:15445   */\n      0x00\n        /* \"#utility.yul\":15463:15530   */\n      tag_347\n        /* \"#utility.yul\":15527:15529   */\n      0x1d\n        /* \"#utility.yul\":15522:15525   */\n      dup4\n        /* \"#utility.yul\":15463:15530   */\n      tag_169\n      jump\t// in\n    tag_347:\n        /* \"#utility.yul\":15456:15530   */\n      swap2\n      pop\n        /* \"#utility.yul\":15539:15632   */\n      tag_348\n        /* \"#utility.yul\":15628:15631   */\n      dup3\n        /* \"#utility.yul\":15539:15632   */\n      tag_205\n      jump\t// in\n    tag_348:\n        /* \"#utility.yul\":15657:15659   */\n      0x20\n        /* \"#utility.yul\":15652:15655   */\n      dup3\n        /* \"#utility.yul\":15648:15660   */\n      add\n        /* \"#utility.yul\":15641:15660   */\n      swap1\n      pop\n        /* \"#utility.yul\":15300:15666   */\n      swap2\n      swap1\n      pop\n      jump\t// out\n        /* \"#utility.yul\":15672:16091   */\n    tag_124:\n        /* \"#utility.yul\":15838:15842   */\n      0x00\n        /* \"#utility.yul\":15876:15878   */\n      0x20\n        /* \"#utility.yul\":15865:15874   */\n      dup3\n        /* \"#utility.yul\":15861:15879   */\n      add\n        /* \"#utility.yul\":15853:15879   */\n      swap1\n      pop\n        /* \"#utility.yul\":15925:15934   */\n      dup2\n        /* \"#utility.yul\":15919:15923   */\n      dup2\n        /* \"#utility.yul\":15915:15935   */\n      sub\n        /* \"#utility.yul\":15911:15912   */\n      0x00\n        /* \"#utility.yul\":15900:15909   */\n      dup4\n        /* \"#utility.yul\":15896:15913   */\n      add\n        /* \"#utility.yul\":15889:15936   */\n      mstore\n        /* \"#utility.yul\":15953:16084   */\n      tag_350\n        /* \"#utility.yul\":16079:16083   */\n      dup2\n        /* \"#utility.yul\":15953:16084   */\n      tag_206\n      jump\t// in\n    tag_350:\n        /* \"#utility.yul\":15945:16084   */\n      swap1\n      pop\n        /* \"#utility.yul\":15672:16091   */\n      swap2\n      swap1\n      pop\n      jump\t// out\n        /* \"#utility.yul\":16097:16264   */\n    tag_161:\n        /* \"#utility.yul\":16134:16137   */\n      0x00\n        /* \"#utility.yul\":16157:16179   */\n      tag_352\n        /* \"#utility.yul\":16173:16178   */\n      dup3\n        /* \"#utility.yul\":16157:16179   */\n      tag_191\n      jump\t// in\n    tag_352:\n        /* \"#utility.yul\":16148:16179   */\n      swap2\n      pop\n        /* \"#utility.yul\":16201:16205   */\n      0xff\n        /* \"#utility.yul\":16194:16199   */\n      dup3\n        /* \"#utility.yul\":16191:16206   */\n      sub\n        /* \"#utility.yul\":16188:16229   */\n      tag_353\n      jumpi\n        /* \"#utility.yul\":16209:16227   */\n      tag_354\n      tag_204\n      jump\t// in\n    tag_354:\n        /* \"#utility.yul\":16188:16229   */\n    tag_353:\n        /* \"#utility.yul\":16256:16257   */\n      0x01\n        /* \"#utility.yul\":16249:16254   */\n      dup3\n        /* \"#utility.yul\":16245:16258   */\n      add\n        /* \"#utility.yul\":16238:16258   */\n      swap1\n      pop\n        /* \"#utility.yul\":16097:16264   */\n      swap2\n      swap1\n      pop\n      jump\t// out\n\n    auxdata: 0xa2646970667358221220f427ee41597fb3e5b777cfd4073b2136083d303c2dc07ec50a376e8117da4f5d64736f6c63430008140033\n}\n","bytecode":{"linkReferences":{},"object":"608060405234801562000010575f80fd5b5060405162001e6138038062001e6183398181016040528101906200003691906200047f565b848484848484805f806101000a81548173ffffffffffffffffffffffffffffffffffffffff021916908373ffffffffffffffffffffffffffffffffffffffff1602179055505083600190816200008d91906200078e565b5082600290816200009f91906200078e565b508042620000ae91906200089f565b6003819055505f5b82518160ff161015620001585760046040518060400160405280858460ff1681518110620000e957620000e8620008d9565b5b602002602001015181526020015f815250908060018154018082558091505060019003905f5260205f2090600202015f909190919091505f820151815f0190816200013591906200078e565b5060208201518160010155505080806200014f9062000912565b915050620000b6565b50505050505050505050506200093f565b5f604051905090565b5f80fd5b5f80fd5b5f73ffffffffffffffffffffffffffffffffffffffff82169050919050565b5f620001a5826200017a565b9050919050565b620001b78162000199565b8114620001c2575f80fd5b50565b5f81519050620001d581620001ac565b92915050565b5f80fd5b5f80fd5b5f601f19601f8301169050919050565b7f4e487b71000000000000000000000000000000000000000000000000000000005f52604160045260245ffd5b6200022b82620001e3565b810181811067ffffffffffffffff821117156200024d576200024c620001f3565b5b80604052505050565b5f6200026162000169565b90506200026f828262000220565b919050565b5f67ffffffffffffffff821115620002915762000290620001f3565b5b6200029c82620001e3565b9050602081019050919050565b5f5b83811015620002c8578082015181840152602081019050620002ab565b5f8484015250505050565b5f620002e9620002e38462000274565b62000256565b905082815260208101848484011115620003085762000307620001df565b5b62000315848285620002a9565b509392505050565b5f82601f830112620003345762000333620001db565b5b815162000346848260208601620002d3565b91505092915050565b5f67ffffffffffffffff8211156200036c576200036b620001f3565b5b602082029050602081019050919050565b5f80fd5b5f6200039762000391846200034f565b62000256565b90508083825260208201905060208402830185811115620003bd57620003bc6200037d565b5b835b818110156200040b57805167ffffffffffffffff811115620003e657620003e5620001db565b5b808601620003f589826200031d565b85526020850194505050602081019050620003bf565b5050509392505050565b5f82601f8301126200042c576200042b620001db565b5b81516200043e84826020860162000381565b91505092915050565b5f819050919050565b6200045b8162000447565b811462000466575f80fd5b50565b5f81519050620004798162000450565b92915050565b5f805f805f60a086880312156200049b576200049a62000172565b5b5f620004aa88828901620001c5565b955050602086015167ffffffffffffffff811115620004ce57620004cd62000176565b5b620004dc888289016200031d565b945050604086015167ffffffffffffffff8111156200050057620004ff62000176565b5b6200050e888289016200031d565b935050606086015167ffffffffffffffff81111562000532576200053162000176565b5b620005408882890162000415565b9250506080620005538882890162000469565b9150509295509295909350565b5f81519050919050565b7f4e487b71000000000000000000000000000000000000000000000000000000005f52602260045260245ffd5b5f6002820490506001821680620005af57607f821691505b602082108103620005c557620005c46200056a565b5b50919050565b5f819050815f5260205f209050919050565b5f6020601f8301049050919050565b5f82821b905092915050565b5f60088302620006297fffffffffffffffffffffffffffffffffffffffffffffffffffffffffffffffff82620005ec565b620006358683620005ec565b95508019841693508086168417925050509392505050565b5f819050919050565b5f62000676620006706200066a8462000447565b6200064d565b62000447565b9050919050565b5f819050919050565b620006918362000656565b620006a9620006a0826200067d565b848454620005f8565b825550505050565b5f90565b620006bf620006b1565b620006cc81848462000686565b505050565b5b81811015620006f357620006e75f82620006b5565b600181019050620006d2565b5050565b601f82111562000742576200070c81620005cb565b6200071784620005dd565b8101602085101562000727578190505b6200073f6200073685620005dd565b830182620006d1565b50505b505050565b5f82821c905092915050565b5f620007645f198460080262000747565b1980831691505092915050565b5f6200077e838362000753565b9150826002028217905092915050565b620007998262000560565b67ffffffffffffffff811115620007b557620007b4620001f3565b5b620007c1825462000597565b620007ce828285620006f7565b5f60209050601f83116001811462000804575f8415620007ef578287015190505b620007fb858262000771565b8655506200086a565b601f1984166200081486620005cb565b5f5b828110156200083d5784890151825560018201915060208501945060208101905062000816565b868310156200085d578489015162000859601f89168262000753565b8355505b6001600288020188555050505b505050505050565b7f4e487b71000000000000000000000000000000000000000000000000000000005f52601160045260245ffd5b5f620008ab8262000447565b9150620008b88362000447565b9250828201905080821115620008d357620008d262000872565b5b92915050565b7f4e487b71000000000000000000000000000000000000000000000000000000005f52603260045260245ffd5b5f60ff82169050919050565b5f6200091e8262000906565b915060ff820362000934576200093362000872565b5b600182019050919050565b611514806200094d5f395ff3fe608060405234801561000f575f80fd5b50600436106100b2575f3560e01c80637284e4161161006f5780637284e4161461018d5780639145a7fc146101ab578063a3ec138d146101c9578063b3f98adc146101fd578063bf63a57714610219578063e2ba53f014610237576100b2565b8063013cf08b146100b657806302d05d3f146100e757806309eef43e1461010557806329dcb0cf146101355780634717f97c146101535780635c19a95c14610171575b5f80fd5b6100d060048036038101906100cb9190610d8c565b610255565b6040516100de929190610e50565b60405180910390f35b6100ef61030a565b6040516100fc9190610ebd565b60405180910390f35b61011f600480360381019061011a9190610f00565b61032d565b60405161012c9190610f45565b60405180910390f35b61013d610382565b60405161014a9190610f5e565b60405180910390f35b61015b610388565b60405161016891906110c3565b60405180910390f35b61018b60048036038101906101869190610f00565b61047d565b005b6101956108cc565b6040516101a291906110e3565b60405180910390f35b6101b3610958565b6040516101c09190610f45565b60405180910390f35b6101e360048036038101906101de9190610f00565b610963565b6040516101f495949392919061111e565b60405180910390f35b61021760048036038101906102129190611199565b6109d8565b005b610221610b85565b60405161022e91906110e3565b60405180910390f35b61023f610c11565b60405161024c91906110e3565b60405180910390f35b60048181548110610264575f80fd5b905f5260205f2090600202015f91509050805f018054610283906111f1565b80601f01602080910402602001604051908101604052809291908181526020018280546102af906111f1565b80156102fa5780601f106102d1576101008083540402835291602001916102fa565b820191905f5260205f20905b8154815290600101906020018083116102dd57829003601f168201915b5050505050908060010154905082565b5f8054906101000a900473ffffffffffffffffffffffffffffffffffffffff1681565b5f60055f8373ffffffffffffffffffffffffffffffffffffffff1673ffffffffffffffffffffffffffffffffffffffff1681526020019081526020015f205f0160019054906101000a900460ff169050919050565b60035481565b60606004805480602002602001604051908101604052809291908181526020015f905b82821015610474578382905f5260205f2090600202016040518060400160405290815f820180546103db906111f1565b80601f0160208091040260200160405190810160405280929190818152602001828054610407906111f1565b80156104525780601f1061042957610100808354040283529160200191610452565b820191905f5260205f20905b81548152906001019060200180831161043557829003601f168201915b50505050508152602001600182015481525050815260200190600101906103ab565b50505050905090565b610485610958565b156104c5576040517f08c379a00000000000000000000000000000000000000000000000000000000081526004016104bc9061126b565b60405180910390fd5b5f60055f3373ffffffffffffffffffffffffffffffffffffffff1673ffffffffffffffffffffffffffffffffffffffff1681526020019081526020015f209050805f0160019054906101000a900460ff1615610556576040517f08c379a000000000000000000000000000000000000000000000000000000000815260040161054d906112d3565b60405180910390fd5b3373ffffffffffffffffffffffffffffffffffffffff168273ffffffffffffffffffffffffffffffffffffffff16036105c4576040517f08c379a00000000000000000000000000000000000000000000000000000000081526004016105bb9061133b565b60405180910390fd5b5b5f73ffffffffffffffffffffffffffffffffffffffff1660055f8473ffffffffffffffffffffffffffffffffffffffff1673ffffffffffffffffffffffffffffffffffffffff1681526020019081526020015f206002015f9054906101000a900473ffffffffffffffffffffffffffffffffffffffff1673ffffffffffffffffffffffffffffffffffffffff161461072c5760055f8373ffffffffffffffffffffffffffffffffffffffff1673ffffffffffffffffffffffffffffffffffffffff1681526020019081526020015f206002015f9054906101000a900473ffffffffffffffffffffffffffffffffffffffff1691503373ffffffffffffffffffffffffffffffffffffffff168273ffffffffffffffffffffffffffffffffffffffff1603610727576040517f08c379a000000000000000000000000000000000000000000000000000000000815260040161071e906113a3565b60405180910390fd5b6105c5565b6001815f0160016101000a81548160ff02191690831515021790555081816002015f6101000a81548173ffffffffffffffffffffffffffffffffffffffff021916908373ffffffffffffffffffffffffffffffffffffffff1602179055505f60055f8473ffffffffffffffffffffffffffffffffffffffff1673ffffffffffffffffffffffffffffffffffffffff1681526020019081526020015f209050805f0160019054906101000a900460ff161561084157600182600101546107f191906113ee565b6004825f0160029054906101000a900460ff1660ff168154811061081857610817611421565b5b905f5260205f2090600202016001015f82825461083591906113ee565b9250508190555061086c565b6001826001015461085291906113ee565b816001015f82825461086491906113ee565b925050819055505b8273ffffffffffffffffffffffffffffffffffffffff163373ffffffffffffffffffffffffffffffffffffffff16427f1938da684279c3a3e042ae0800798e60f7262803cb9baab844ba3fa25ad1a68260405160405180910390a4505050565b600280546108d9906111f1565b80601f0160208091040260200160405190810160405280929190818152602001828054610905906111f1565b80156109505780601f1061092757610100808354040283529160200191610950565b820191905f5260205f20905b81548152906001019060200180831161093357829003601f168201915b505050505081565b5f6003544211905090565b6005602052805f5260405f205f91509050805f015f9054906101000a900460ff1690805f0160019054906101000a900460ff1690805f0160029054906101000a900460ff1690806001015490806002015f9054906101000a900473ffffffffffffffffffffffffffffffffffffffff16905085565b6109e0610958565b15610a20576040517f08c379a0000000000000000000000000000000000000000000000000000000008152600401610a179061126b565b60405180910390fd5b806004805490508160ff1610610a6b576040517f08c379a0000000000000000000000000000000000000000000000000000000008152600401610a6290611498565b60405180910390fd5b5f60055f3373ffffffffffffffffffffffffffffffffffffffff1673ffffffffffffffffffffffffffffffffffffffff1681526020019081526020015f209050805f0160019054906101000a900460ff1615610afc576040517f08c379a0000000000000000000000000000000000000000000000000000000008152600401610af3906112d3565b60405180910390fd5b6001815f0160016101000a81548160ff02191690831515021790555082815f0160026101000a81548160ff021916908360ff16021790555060018160010154610b4591906113ee565b60048460ff1681548110610b5c57610b5b611421565b5b905f5260205f2090600202016001015f828254610b7991906113ee565b92505081905550505050565b60018054610b92906111f1565b80601f0160208091040260200160405190810160405280929190818152602001828054610bbe906111f1565b8015610c095780601f10610be057610100808354040283529160200191610c09565b820191905f5260205f20905b815481529060010190602001808311610bec57829003601f168201915b505050505081565b60606004610c1d610ccb565b60ff1681548110610c3157610c30611421565b5b905f5260205f2090600202015f018054610c4a906111f1565b80601f0160208091040260200160405190810160405280929190818152602001828054610c76906111f1565b8015610cc15780601f10610c9857610100808354040283529160200191610cc1565b820191905f5260205f20905b815481529060010190602001808311610ca457829003601f168201915b5050505050905090565b5f805f90505f5b6004805490508160ff161015610d50578160048260ff1681548110610cfa57610cf9611421565b5b905f5260205f209060020201600101541115610d3d5760048160ff1681548110610d2757610d26611421565b5b905f5260205f2090600202016001015491508092505b8080610d48906114b6565b915050610cd2565b505090565b5f80fd5b5f819050919050565b610d6b81610d59565b8114610d75575f80fd5b50565b5f81359050610d8681610d62565b92915050565b5f60208284031215610da157610da0610d55565b5b5f610dae84828501610d78565b91505092915050565b5f81519050919050565b5f82825260208201905092915050565b5f5b83811015610dee578082015181840152602081019050610dd3565b5f8484015250505050565b5f601f19601f8301169050919050565b5f610e1382610db7565b610e1d8185610dc1565b9350610e2d818560208601610dd1565b610e3681610df9565b840191505092915050565b610e4a81610d59565b82525050565b5f6040820190508181035f830152610e688185610e09565b9050610e776020830184610e41565b9392505050565b5f73ffffffffffffffffffffffffffffffffffffffff82169050919050565b5f610ea782610e7e565b9050919050565b610eb781610e9d565b82525050565b5f602082019050610ed05f830184610eae565b92915050565b610edf81610e9d565b8114610ee9575f80fd5b50565b5f81359050610efa81610ed6565b92915050565b5f60208284031215610f1557610f14610d55565b5b5f610f2284828501610eec565b91505092915050565b5f8115159050919050565b610f3f81610f2b565b82525050565b5f602082019050610f585f830184610f36565b92915050565b5f602082019050610f715f830184610e41565b92915050565b5f81519050919050565b5f82825260208201905092915050565b5f819050602082019050919050565b5f82825260208201905092915050565b5f610fba82610db7565b610fc48185610fa0565b9350610fd4818560208601610dd1565b610fdd81610df9565b840191505092915050565b610ff181610d59565b82525050565b5f604083015f8301518482035f8601526110118282610fb0565b91505060208301516110266020860182610fe8565b508091505092915050565b5f61103c8383610ff7565b905092915050565b5f602082019050919050565b5f61105a82610f77565b6110648185610f81565b93508360208202850161107685610f91565b805f5b858110156110b157848403895281516110928582611031565b945061109d83611044565b925060208a01995050600181019050611079565b50829750879550505050505092915050565b5f6020820190508181035f8301526110db8184611050565b905092915050565b5f6020820190508181035f8301526110fb8184610e09565b905092915050565b5f60ff82169050919050565b61111881611103565b82525050565b5f60a0820190506111315f830188610f36565b61113e6020830187610f36565b61114b604083018661110f565b6111586060830185610e41565b6111656080830184610eae565b9695505050505050565b61117881611103565b8114611182575f80fd5b50565b5f813590506111938161116f565b92915050565b5f602082840312156111ae576111ad610d55565b5b5f6111bb84828501611185565b91505092915050565b7f4e487b71000000000000000000000000000000000000000000000000000000005f52602260045260245ffd5b5f600282049050600182168061120857607f821691505b60208210810361121b5761121a6111c4565b5b50919050565b7f446561646c696e652068617320657870697265642e00000000000000000000005f82015250565b5f611255601583610dc1565b915061126082611221565b602082019050919050565b5f6020820190508181035f83015261128281611249565b9050919050565b7f416c726561647920766f7465642e0000000000000000000000000000000000005f82015250565b5f6112bd600e83610dc1565b91506112c882611289565b602082019050919050565b5f6020820190508181035f8301526112ea816112b1565b9050919050565b7f53656c662d64656c65676174696f6e206973206e6f7420616c6c6f7765642e005f82015250565b5f611325601f83610dc1565b9150611330826112f1565b602082019050919050565b5f6020820190508181035f83015261135281611319565b9050919050565b7f466f756e64206c6f6f7020696e2064656c65676174696f6e2e000000000000005f82015250565b5f61138d601983610dc1565b915061139882611359565b602082019050919050565b5f6020820190508181035f8301526113ba81611381565b9050919050565b7f4e487b71000000000000000000000000000000000000000000000000000000005f52601160045260245ffd5b5f6113f882610d59565b915061140383610d59565b925082820190508082111561141b5761141a6113c1565b5b92915050565b7f4e487b71000000000000000000000000000000000000000000000000000000005f52603260045260245ffd5b7f546869732070726f706f73616c20646f6573206e6f742065786973742e0000005f82015250565b5f611482601d83610dc1565b915061148d8261144e565b602082019050919050565b5f6020820190508181035f8301526114af81611476565b9050919050565b5f6114c082611103565b915060ff82036114d3576114d26113c1565b5b60018201905091905056fea2646970667358221220f427ee41597fb3e5b777cfd4073b2136083d303c2dc07ec50a376e8117da4f5d64736f6c63430008140033","opcodes":"PUSH1 0x80 PUSH1 0x40 MSTORE CALLVALUE DUP1 ISZERO PUSH3 0x10 JUMPI PUSH0 DUP1 REVERT JUMPDEST POP PUSH1 0x40 MLOAD PUSH3 0x1E61 CODESIZE SUB DUP1 PUSH3 0x1E61 DUP4 CODECOPY DUP2 DUP2 ADD PUSH1 0x40 MSTORE DUP2 ADD SWAP1 PUSH3 0x36 SWAP2 SWAP1 PUSH3 0x47F JUMP JUMPDEST DUP5 DUP5 DUP5 DUP5 DUP5 DUP5 DUP1 PUSH0 DUP1 PUSH2 0x100 EXP DUP2 SLOAD DUP2 PUSH20 0xFFFFFFFFFFFFFFFFFFFFFFFFFFFFFFFFFFFFFFFF MUL NOT AND SWAP1 DUP4 PUSH20 0xFFFFFFFFFFFFFFFFFFFFFFFFFFFFFFFFFFFFFFFF AND MUL OR SWAP1 SSTORE POP POP DUP4 PUSH1 0x1 SWAP1 DUP2 PUSH3 0x8D SWAP2 SWAP1 PUSH3 0x78E JUMP JUMPDEST POP DUP3 PUSH1 0x2 SWAP1 DUP2 PUSH3 0x9F SWAP2 SWAP1 PUSH3 0x78E JUMP JUMPDEST POP DUP1 TIMESTAMP PUSH3 0xAE SWAP2 SWAP1 PUSH3 0x89F JUMP JUMPDEST PUSH1 0x3 DUP2 SWAP1 SSTORE POP PUSH0 JUMPDEST DUP3 MLOAD DUP2 PUSH1 0xFF AND LT ISZERO PUSH3 0x158 JUMPI PUSH1 0x4 PUSH1 0x40 MLOAD DUP1 PUSH1 0x40 ADD PUSH1 0x40 MSTORE DUP1 DUP6 DUP5 PUSH1 0xFF AND DUP2 MLOAD DUP2 LT PUSH3 0xE9 JUMPI PUSH3 0xE8 PUSH3 0x8D9 JUMP JUMPDEST JUMPDEST PUSH1 0x20 MUL PUSH1 0x20 ADD ADD MLOAD DUP2 MSTORE PUSH1 0x20 ADD PUSH0 DUP2 MSTORE POP SWAP1 DUP1 PUSH1 0x1 DUP2 SLOAD ADD DUP1 DUP3 SSTORE DUP1 SWAP2 POP POP PUSH1 0x1 SWAP1 SUB SWAP1 PUSH0 MSTORE PUSH1 0x20 PUSH0 KECCAK256 SWAP1 PUSH1 0x2 MUL ADD PUSH0 SWAP1 SWAP2 SWAP1 SWAP2 SWAP1 SWAP2 POP PUSH0 DUP3 ADD MLOAD DUP2 PUSH0 ADD SWAP1 DUP2 PUSH3 0x135 SWAP2 SWAP1 PUSH3 0x78E JUMP JUMPDEST POP PUSH1 0x20 DUP3 ADD MLOAD DUP2 PUSH1 0x1 ADD SSTORE POP POP DUP1 DUP1 PUSH3 0x14F SWAP1 PUSH3 0x912 JUMP JUMPDEST SWAP2 POP POP PUSH3 0xB6 JUMP JUMPDEST POP POP POP POP POP POP POP POP POP POP POP PUSH3 0x93F JUMP JUMPDEST PUSH0 PUSH1 0x40 MLOAD SWAP1 POP SWAP1 JUMP JUMPDEST PUSH0 DUP1 REVERT JUMPDEST PUSH0 DUP1 REVERT JUMPDEST PUSH0 PUSH20 0xFFFFFFFFFFFFFFFFFFFFFFFFFFFFFFFFFFFFFFFF DUP3 AND SWAP1 POP SWAP2 SWAP1 POP JUMP JUMPDEST PUSH0 PUSH3 0x1A5 DUP3 PUSH3 0x17A JUMP JUMPDEST SWAP1 POP SWAP2 SWAP1 POP JUMP JUMPDEST PUSH3 0x1B7 DUP2 PUSH3 0x199 JUMP JUMPDEST DUP2 EQ PUSH3 0x1C2 JUMPI PUSH0 DUP1 REVERT JUMPDEST POP JUMP JUMPDEST PUSH0 DUP2 MLOAD SWAP1 POP PUSH3 0x1D5 DUP2 PUSH3 0x1AC JUMP JUMPDEST SWAP3 SWAP2 POP POP JUMP JUMPDEST PUSH0 DUP1 REVERT JUMPDEST PUSH0 DUP1 REVERT JUMPDEST PUSH0 PUSH1 0x1F NOT PUSH1 0x1F DUP4 ADD AND SWAP1 POP SWAP2 SWAP1 POP JUMP JUMPDEST PUSH32 0x4E487B7100000000000000000000000000000000000000000000000000000000 PUSH0 MSTORE PUSH1 0x41 PUSH1 0x4 MSTORE PUSH1 0x24 PUSH0 REVERT JUMPDEST PUSH3 0x22B DUP3 PUSH3 0x1E3 JUMP JUMPDEST DUP2 ADD DUP2 DUP2 LT PUSH8 0xFFFFFFFFFFFFFFFF DUP3 GT OR ISZERO PUSH3 0x24D JUMPI PUSH3 0x24C PUSH3 0x1F3 JUMP JUMPDEST JUMPDEST DUP1 PUSH1 0x40 MSTORE POP POP POP JUMP JUMPDEST PUSH0 PUSH3 0x261 PUSH3 0x169 JUMP JUMPDEST SWAP1 POP PUSH3 0x26F DUP3 DUP3 PUSH3 0x220 JUMP JUMPDEST SWAP2 SWAP1 POP JUMP JUMPDEST PUSH0 PUSH8 0xFFFFFFFFFFFFFFFF DUP3 GT ISZERO PUSH3 0x291 JUMPI PUSH3 0x290 PUSH3 0x1F3 JUMP JUMPDEST JUMPDEST PUSH3 0x29C DUP3 PUSH3 0x1E3 JUMP JUMPDEST SWAP1 POP PUSH1 0x20 DUP2 ADD SWAP1 POP SWAP2 SWAP1 POP JUMP JUMPDEST PUSH0 JUMPDEST DUP4 DUP2 LT ISZERO PUSH3 0x2C8 JUMPI DUP1 DUP3 ADD MLOAD DUP2 DUP5 ADD MSTORE PUSH1 0x20 DUP2 ADD SWAP1 POP PUSH3 0x2AB JUMP JUMPDEST PUSH0 DUP5 DUP5 ADD MSTORE POP POP POP POP JUMP JUMPDEST PUSH0 PUSH3 0x2E9 PUSH3 0x2E3 DUP5 PUSH3 0x274 JUMP JUMPDEST PUSH3 0x256 JUMP JUMPDEST SWAP1 POP DUP3 DUP2 MSTORE PUSH1 0x20 DUP2 ADD DUP5 DUP5 DUP5 ADD GT ISZERO PUSH3 0x308 JUMPI PUSH3 0x307 PUSH3 0x1DF JUMP JUMPDEST JUMPDEST PUSH3 0x315 DUP5 DUP3 DUP6 PUSH3 0x2A9 JUMP JUMPDEST POP SWAP4 SWAP3 POP POP POP JUMP JUMPDEST PUSH0 DUP3 PUSH1 0x1F DUP4 ADD SLT PUSH3 0x334 JUMPI PUSH3 0x333 PUSH3 0x1DB JUMP JUMPDEST JUMPDEST DUP2 MLOAD PUSH3 0x346 DUP5 DUP3 PUSH1 0x20 DUP7 ADD PUSH3 0x2D3 JUMP JUMPDEST SWAP2 POP POP SWAP3 SWAP2 POP POP JUMP JUMPDEST PUSH0 PUSH8 0xFFFFFFFFFFFFFFFF DUP3 GT ISZERO PUSH3 0x36C JUMPI PUSH3 0x36B PUSH3 0x1F3 JUMP JUMPDEST JUMPDEST PUSH1 0x20 DUP3 MUL SWAP1 POP PUSH1 0x20 DUP2 ADD SWAP1 POP SWAP2 SWAP1 POP JUMP JUMPDEST PUSH0 DUP1 REVERT JUMPDEST PUSH0 PUSH3 0x397 PUSH3 0x391 DUP5 PUSH3 0x34F JUMP JUMPDEST PUSH3 0x256 JUMP JUMPDEST SWAP1 POP DUP1 DUP4 DUP3 MSTORE PUSH1 0x20 DUP3 ADD SWAP1 POP PUSH1 0x20 DUP5 MUL DUP4 ADD DUP6 DUP2 GT ISZERO PUSH3 0x3BD JUMPI PUSH3 0x3BC PUSH3 0x37D JUMP JUMPDEST JUMPDEST DUP4 JUMPDEST DUP2 DUP2 LT ISZERO PUSH3 0x40B JUMPI DUP1 MLOAD PUSH8 0xFFFFFFFFFFFFFFFF DUP2 GT ISZERO PUSH3 0x3E6 JUMPI PUSH3 0x3E5 PUSH3 0x1DB JUMP JUMPDEST JUMPDEST DUP1 DUP7 ADD PUSH3 0x3F5 DUP10 DUP3 PUSH3 0x31D JUMP JUMPDEST DUP6 MSTORE PUSH1 0x20 DUP6 ADD SWAP5 POP POP POP PUSH1 0x20 DUP2 ADD SWAP1 POP PUSH3 0x3BF JUMP JUMPDEST POP POP POP SWAP4 SWAP3 POP POP POP JUMP JUMPDEST PUSH0 DUP3 PUSH1 0x1F DUP4 ADD SLT PUSH3 0x42C JUMPI PUSH3 0x42B PUSH3 0x1DB JUMP JUMPDEST JUMPDEST DUP2 MLOAD PUSH3 0x43E DUP5 DUP3 PUSH1 0x20 DUP7 ADD PUSH3 0x381 JUMP JUMPDEST SWAP2 POP POP SWAP3 SWAP2 POP POP JUMP JUMPDEST PUSH0 DUP2 SWAP1 POP SWAP2 SWAP1 POP JUMP JUMPDEST PUSH3 0x45B DUP2 PUSH3 0x447 JUMP JUMPDEST DUP2 EQ PUSH3 0x466 JUMPI PUSH0 DUP1 REVERT JUMPDEST POP JUMP JUMPDEST PUSH0 DUP2 MLOAD SWAP1 POP PUSH3 0x479 DUP2 PUSH3 0x450 JUMP JUMPDEST SWAP3 SWAP2 POP POP JUMP JUMPDEST PUSH0 DUP1 PUSH0 DUP1 PUSH0 PUSH1 0xA0 DUP7 DUP9 SUB SLT ISZERO PUSH3 0x49B JUMPI PUSH3 0x49A PUSH3 0x172 JUMP JUMPDEST JUMPDEST PUSH0 PUSH3 0x4AA DUP9 DUP3 DUP10 ADD PUSH3 0x1C5 JUMP JUMPDEST SWAP6 POP POP PUSH1 0x20 DUP7 ADD MLOAD PUSH8 0xFFFFFFFFFFFFFFFF DUP2 GT ISZERO PUSH3 0x4CE JUMPI PUSH3 0x4CD PUSH3 0x176 JUMP JUMPDEST JUMPDEST PUSH3 0x4DC DUP9 DUP3 DUP10 ADD PUSH3 0x31D JUMP JUMPDEST SWAP5 POP POP PUSH1 0x40 DUP7 ADD MLOAD PUSH8 0xFFFFFFFFFFFFFFFF DUP2 GT ISZERO PUSH3 0x500 JUMPI PUSH3 0x4FF PUSH3 0x176 JUMP JUMPDEST JUMPDEST PUSH3 0x50E DUP9 DUP3 DUP10 ADD PUSH3 0x31D JUMP JUMPDEST SWAP4 POP POP PUSH1 0x60 DUP7 ADD MLOAD PUSH8 0xFFFFFFFFFFFFFFFF DUP2 GT ISZERO PUSH3 0x532 JUMPI PUSH3 0x531 PUSH3 0x176 JUMP JUMPDEST JUMPDEST PUSH3 0x540 DUP9 DUP3 DUP10 ADD PUSH3 0x415 JUMP JUMPDEST SWAP3 POP POP PUSH1 0x80 PUSH3 0x553 DUP9 DUP3 DUP10 ADD PUSH3 0x469 JUMP JUMPDEST SWAP2 POP POP SWAP3 SWAP6 POP SWAP3 SWAP6 SWAP1 SWAP4 POP JUMP JUMPDEST PUSH0 DUP2 MLOAD SWAP1 POP SWAP2 SWAP1 POP JUMP JUMPDEST PUSH32 0x4E487B7100000000000000000000000000000000000000000000000000000000 PUSH0 MSTORE PUSH1 0x22 PUSH1 0x4 MSTORE PUSH1 0x24 PUSH0 REVERT JUMPDEST PUSH0 PUSH1 0x2 DUP3 DIV SWAP1 POP PUSH1 0x1 DUP3 AND DUP1 PUSH3 0x5AF JUMPI PUSH1 0x7F DUP3 AND SWAP2 POP JUMPDEST PUSH1 0x20 DUP3 LT DUP2 SUB PUSH3 0x5C5 JUMPI PUSH3 0x5C4 PUSH3 0x56A JUMP JUMPDEST JUMPDEST POP SWAP2 SWAP1 POP JUMP JUMPDEST PUSH0 DUP2 SWAP1 POP DUP2 PUSH0 MSTORE PUSH1 0x20 PUSH0 KECCAK256 SWAP1 POP SWAP2 SWAP1 POP JUMP JUMPDEST PUSH0 PUSH1 0x20 PUSH1 0x1F DUP4 ADD DIV SWAP1 POP SWAP2 SWAP1 POP JUMP JUMPDEST PUSH0 DUP3 DUP3 SHL SWAP1 POP SWAP3 SWAP2 POP POP JUMP JUMPDEST PUSH0 PUSH1 0x8 DUP4 MUL PUSH3 0x629 PUSH32 0xFFFFFFFFFFFFFFFFFFFFFFFFFFFFFFFFFFFFFFFFFFFFFFFFFFFFFFFFFFFFFFFF DUP3 PUSH3 0x5EC JUMP JUMPDEST PUSH3 0x635 DUP7 DUP4 PUSH3 0x5EC JUMP JUMPDEST SWAP6 POP DUP1 NOT DUP5 AND SWAP4 POP DUP1 DUP7 AND DUP5 OR SWAP3 POP POP POP SWAP4 SWAP3 POP POP POP JUMP JUMPDEST PUSH0 DUP2 SWAP1 POP SWAP2 SWAP1 POP JUMP JUMPDEST PUSH0 PUSH3 0x676 PUSH3 0x670 PUSH3 0x66A DUP5 PUSH3 0x447 JUMP JUMPDEST PUSH3 0x64D JUMP JUMPDEST PUSH3 0x447 JUMP JUMPDEST SWAP1 POP SWAP2 SWAP1 POP JUMP JUMPDEST PUSH0 DUP2 SWAP1 POP SWAP2 SWAP1 POP JUMP JUMPDEST PUSH3 0x691 DUP4 PUSH3 0x656 JUMP JUMPDEST PUSH3 0x6A9 PUSH3 0x6A0 DUP3 PUSH3 0x67D JUMP JUMPDEST DUP5 DUP5 SLOAD PUSH3 0x5F8 JUMP JUMPDEST DUP3 SSTORE POP POP POP POP JUMP JUMPDEST PUSH0 SWAP1 JUMP JUMPDEST PUSH3 0x6BF PUSH3 0x6B1 JUMP JUMPDEST PUSH3 0x6CC DUP2 DUP5 DUP5 PUSH3 0x686 JUMP JUMPDEST POP POP POP JUMP JUMPDEST JUMPDEST DUP2 DUP2 LT ISZERO PUSH3 0x6F3 JUMPI PUSH3 0x6E7 PUSH0 DUP3 PUSH3 0x6B5 JUMP JUMPDEST PUSH1 0x1 DUP2 ADD SWAP1 POP PUSH3 0x6D2 JUMP JUMPDEST POP POP JUMP JUMPDEST PUSH1 0x1F DUP3 GT ISZERO PUSH3 0x742 JUMPI PUSH3 0x70C DUP2 PUSH3 0x5CB JUMP JUMPDEST PUSH3 0x717 DUP5 PUSH3 0x5DD JUMP JUMPDEST DUP2 ADD PUSH1 0x20 DUP6 LT ISZERO PUSH3 0x727 JUMPI DUP2 SWAP1 POP JUMPDEST PUSH3 0x73F PUSH3 0x736 DUP6 PUSH3 0x5DD JUMP JUMPDEST DUP4 ADD DUP3 PUSH3 0x6D1 JUMP JUMPDEST POP POP JUMPDEST POP POP POP JUMP JUMPDEST PUSH0 DUP3 DUP3 SHR SWAP1 POP SWAP3 SWAP2 POP POP JUMP JUMPDEST PUSH0 PUSH3 0x764 PUSH0 NOT DUP5 PUSH1 0x8 MUL PUSH3 0x747 JUMP JUMPDEST NOT DUP1 DUP4 AND SWAP2 POP POP SWAP3 SWAP2 POP POP JUMP JUMPDEST PUSH0 PUSH3 0x77E DUP4 DUP4 PUSH3 0x753 JUMP JUMPDEST SWAP2 POP DUP3 PUSH1 0x2 MUL DUP3 OR SWAP1 POP SWAP3 SWAP2 POP POP JUMP JUMPDEST PUSH3 0x799 DUP3 PUSH3 0x560 JUMP JUMPDEST PUSH8 0xFFFFFFFFFFFFFFFF DUP2 GT ISZERO PUSH3 0x7B5 JUMPI PUSH3 0x7B4 PUSH3 0x1F3 JUMP JUMPDEST JUMPDEST PUSH3 0x7C1 DUP3 SLOAD PUSH3 0x597 JUMP JUMPDEST PUSH3 0x7CE DUP3 DUP3 DUP6 PUSH3 0x6F7 JUMP JUMPDEST PUSH0 PUSH1 0x20 SWAP1 POP PUSH1 0x1F DUP4 GT PUSH1 0x1 DUP2 EQ PUSH3 0x804 JUMPI PUSH0 DUP5 ISZERO PUSH3 0x7EF JUMPI DUP3 DUP8 ADD MLOAD SWAP1 POP JUMPDEST PUSH3 0x7FB DUP6 DUP3 PUSH3 0x771 JUMP JUMPDEST DUP7 SSTORE POP PUSH3 0x86A JUMP JUMPDEST PUSH1 0x1F NOT DUP5 AND PUSH3 0x814 DUP7 PUSH3 0x5CB JUMP JUMPDEST PUSH0 JUMPDEST DUP3 DUP2 LT ISZERO PUSH3 0x83D JUMPI DUP5 DUP10 ADD MLOAD DUP3 SSTORE PUSH1 0x1 DUP3 ADD SWAP2 POP PUSH1 0x20 DUP6 ADD SWAP5 POP PUSH1 0x20 DUP2 ADD SWAP1 POP PUSH3 0x816 JUMP JUMPDEST DUP7 DUP4 LT ISZERO PUSH3 0x85D JUMPI DUP5 DUP10 ADD MLOAD PUSH3 0x859 PUSH1 0x1F DUP10 AND DUP3 PUSH3 0x753 JUMP JUMPDEST DUP4 SSTORE POP JUMPDEST PUSH1 0x1 PUSH1 0x2 DUP9 MUL ADD DUP9 SSTORE POP POP POP JUMPDEST POP POP POP POP POP POP JUMP JUMPDEST PUSH32 0x4E487B7100000000000000000000000000000000000000000000000000000000 PUSH0 MSTORE PUSH1 0x11 PUSH1 0x4 MSTORE PUSH1 0x24 PUSH0 REVERT JUMPDEST PUSH0 PUSH3 0x8AB DUP3 PUSH3 0x447 JUMP JUMPDEST SWAP2 POP PUSH3 0x8B8 DUP4 PUSH3 0x447 JUMP JUMPDEST SWAP3 POP DUP3 DUP3 ADD SWAP1 POP DUP1 DUP3 GT ISZERO PUSH3 0x8D3 JUMPI PUSH3 0x8D2 PUSH3 0x872 JUMP JUMPDEST JUMPDEST SWAP3 SWAP2 POP POP JUMP JUMPDEST PUSH32 0x4E487B7100000000000000000000000000000000000000000000000000000000 PUSH0 MSTORE PUSH1 0x32 PUSH1 0x4 MSTORE PUSH1 0x24 PUSH0 REVERT JUMPDEST PUSH0 PUSH1 0xFF DUP3 AND SWAP1 POP SWAP2 SWAP1 POP JUMP JUMPDEST PUSH0 PUSH3 0x91E DUP3 PUSH3 0x906 JUMP JUMPDEST SWAP2 POP PUSH1 0xFF DUP3 SUB PUSH3 0x934 JUMPI PUSH3 0x933 PUSH3 0x872 JUMP JUMPDEST JUMPDEST PUSH1 0x1 DUP3 ADD SWAP1 POP SWAP2 SWAP1 POP JUMP JUMPDEST PUSH2 0x1514 DUP1 PUSH3 0x94D PUSH0 CODECOPY PUSH0 RETURN INVALID PUSH1 0x80 PUSH1 0x40 MSTORE CALLVALUE DUP1 ISZERO PUSH2 0xF JUMPI PUSH0 DUP1 REVERT JUMPDEST POP PUSH1 0x4 CALLDATASIZE LT PUSH2 0xB2 JUMPI PUSH0 CALLDATALOAD PUSH1 0xE0 SHR DUP1 PUSH4 0x7284E416 GT PUSH2 0x6F JUMPI DUP1 PUSH4 0x7284E416 EQ PUSH2 0x18D JUMPI DUP1 PUSH4 0x9145A7FC EQ PUSH2 0x1AB JUMPI DUP1 PUSH4 0xA3EC138D EQ PUSH2 0x1C9 JUMPI DUP1 PUSH4 0xB3F98ADC EQ PUSH2 0x1FD JUMPI DUP1 PUSH4 0xBF63A577 EQ PUSH2 0x219 JUMPI DUP1 PUSH4 0xE2BA53F0 EQ PUSH2 0x237 JUMPI PUSH2 0xB2 JUMP JUMPDEST DUP1 PUSH4 0x13CF08B EQ PUSH2 0xB6 JUMPI DUP1 PUSH4 0x2D05D3F EQ PUSH2 0xE7 JUMPI DUP1 PUSH4 0x9EEF43E EQ PUSH2 0x105 JUMPI DUP1 PUSH4 0x29DCB0CF EQ PUSH2 0x135 JUMPI DUP1 PUSH4 0x4717F97C EQ PUSH2 0x153 JUMPI DUP1 PUSH4 0x5C19A95C EQ PUSH2 0x171 JUMPI JUMPDEST PUSH0 DUP1 REVERT JUMPDEST PUSH2 0xD0 PUSH1 0x4 DUP1 CALLDATASIZE SUB DUP2 ADD SWAP1 PUSH2 0xCB SWAP2 SWAP1 PUSH2 0xD8C JUMP JUMPDEST PUSH2 0x255 JUMP JUMPDEST PUSH1 0x40 MLOAD PUSH2 0xDE SWAP3 SWAP2 SWAP1 PUSH2 0xE50 JUMP JUMPDEST PUSH1 0x40 MLOAD DUP1 SWAP2 SUB SWAP1 RETURN JUMPDEST PUSH2 0xEF PUSH2 0x30A JUMP JUMPDEST PUSH1 0x40 MLOAD PUSH2 0xFC SWAP2 SWAP1 PUSH2 0xEBD JUMP JUMPDEST PUSH1 0x40 MLOAD DUP1 SWAP2 SUB SWAP1 RETURN JUMPDEST PUSH2 0x11F PUSH1 0x4 DUP1 CALLDATASIZE SUB DUP2 ADD SWAP1 PUSH2 0x11A SWAP2 SWAP1 PUSH2 0xF00 JUMP JUMPDEST PUSH2 0x32D JUMP JUMPDEST PUSH1 0x40 MLOAD PUSH2 0x12C SWAP2 SWAP1 PUSH2 0xF45 JUMP JUMPDEST PUSH1 0x40 MLOAD DUP1 SWAP2 SUB SWAP1 RETURN JUMPDEST PUSH2 0x13D PUSH2 0x382 JUMP JUMPDEST PUSH1 0x40 MLOAD PUSH2 0x14A SWAP2 SWAP1 PUSH2 0xF5E JUMP JUMPDEST PUSH1 0x40 MLOAD DUP1 SWAP2 SUB SWAP1 RETURN JUMPDEST PUSH2 0x15B PUSH2 0x388 JUMP JUMPDEST PUSH1 0x40 MLOAD PUSH2 0x168 SWAP2 SWAP1 PUSH2 0x10C3 JUMP JUMPDEST PUSH1 0x40 MLOAD DUP1 SWAP2 SUB SWAP1 RETURN JUMPDEST PUSH2 0x18B PUSH1 0x4 DUP1 CALLDATASIZE SUB DUP2 ADD SWAP1 PUSH2 0x186 SWAP2 SWAP1 PUSH2 0xF00 JUMP JUMPDEST PUSH2 0x47D JUMP JUMPDEST STOP JUMPDEST PUSH2 0x195 PUSH2 0x8CC JUMP JUMPDEST PUSH1 0x40 MLOAD PUSH2 0x1A2 SWAP2 SWAP1 PUSH2 0x10E3 JUMP JUMPDEST PUSH1 0x40 MLOAD DUP1 SWAP2 SUB SWAP1 RETURN JUMPDEST PUSH2 0x1B3 PUSH2 0x958 JUMP JUMPDEST PUSH1 0x40 MLOAD PUSH2 0x1C0 SWAP2 SWAP1 PUSH2 0xF45 JUMP JUMPDEST PUSH1 0x40 MLOAD DUP1 SWAP2 SUB SWAP1 RETURN JUMPDEST PUSH2 0x1E3 PUSH1 0x4 DUP1 CALLDATASIZE SUB DUP2 ADD SWAP1 PUSH2 0x1DE SWAP2 SWAP1 PUSH2 0xF00 JUMP JUMPDEST PUSH2 0x963 JUMP JUMPDEST PUSH1 0x40 MLOAD PUSH2 0x1F4 SWAP6 SWAP5 SWAP4 SWAP3 SWAP2 SWAP1 PUSH2 0x111E JUMP JUMPDEST PUSH1 0x40 MLOAD DUP1 SWAP2 SUB SWAP1 RETURN JUMPDEST PUSH2 0x217 PUSH1 0x4 DUP1 CALLDATASIZE SUB DUP2 ADD SWAP1 PUSH2 0x212 SWAP2 SWAP1 PUSH2 0x1199 JUMP JUMPDEST PUSH2 0x9D8 JUMP JUMPDEST STOP JUMPDEST PUSH2 0x221 PUSH2 0xB85 JUMP JUMPDEST PUSH1 0x40 MLOAD PUSH2 0x22E SWAP2 SWAP1 PUSH2 0x10E3 JUMP JUMPDEST PUSH1 0x40 MLOAD DUP1 SWAP2 SUB SWAP1 RETURN JUMPDEST PUSH2 0x23F PUSH2 0xC11 JUMP JUMPDEST PUSH1 0x40 MLOAD PUSH2 0x24C SWAP2 SWAP1 PUSH2 0x10E3 JUMP JUMPDEST PUSH1 0x40 MLOAD DUP1 SWAP2 SUB SWAP1 RETURN JUMPDEST PUSH1 0x4 DUP2 DUP2 SLOAD DUP2 LT PUSH2 0x264 JUMPI PUSH0 DUP1 REVERT JUMPDEST SWAP1 PUSH0 MSTORE PUSH1 0x20 PUSH0 KECCAK256 SWAP1 PUSH1 0x2 MUL ADD PUSH0 SWAP2 POP SWAP1 POP DUP1 PUSH0 ADD DUP1 SLOAD PUSH2 0x283 SWAP1 PUSH2 0x11F1 JUMP JUMPDEST DUP1 PUSH1 0x1F ADD PUSH1 0x20 DUP1 SWAP2 DIV MUL PUSH1 0x20 ADD PUSH1 0x40 MLOAD SWAP1 DUP2 ADD PUSH1 0x40 MSTORE DUP1 SWAP3 SWAP2 SWAP1 DUP2 DUP2 MSTORE PUSH1 0x20 ADD DUP3 DUP1 SLOAD PUSH2 0x2AF SWAP1 PUSH2 0x11F1 JUMP JUMPDEST DUP1 ISZERO PUSH2 0x2FA JUMPI DUP1 PUSH1 0x1F LT PUSH2 0x2D1 JUMPI PUSH2 0x100 DUP1 DUP4 SLOAD DIV MUL DUP4 MSTORE SWAP2 PUSH1 0x20 ADD SWAP2 PUSH2 0x2FA JUMP JUMPDEST DUP3 ADD SWAP2 SWAP1 PUSH0 MSTORE PUSH1 0x20 PUSH0 KECCAK256 SWAP1 JUMPDEST DUP2 SLOAD DUP2 MSTORE SWAP1 PUSH1 0x1 ADD SWAP1 PUSH1 0x20 ADD DUP1 DUP4 GT PUSH2 0x2DD JUMPI DUP3 SWAP1 SUB PUSH1 0x1F AND DUP3 ADD SWAP2 JUMPDEST POP POP POP POP POP SWAP1 DUP1 PUSH1 0x1 ADD SLOAD SWAP1 POP DUP3 JUMP JUMPDEST PUSH0 DUP1 SLOAD SWAP1 PUSH2 0x100 EXP SWAP1 DIV PUSH20 0xFFFFFFFFFFFFFFFFFFFFFFFFFFFFFFFFFFFFFFFF AND DUP2 JUMP JUMPDEST PUSH0 PUSH1 0x5 PUSH0 DUP4 PUSH20 0xFFFFFFFFFFFFFFFFFFFFFFFFFFFFFFFFFFFFFFFF AND PUSH20 0xFFFFFFFFFFFFFFFFFFFFFFFFFFFFFFFFFFFFFFFF AND DUP2 MSTORE PUSH1 0x20 ADD SWAP1 DUP2 MSTORE PUSH1 0x20 ADD PUSH0 KECCAK256 PUSH0 ADD PUSH1 0x1 SWAP1 SLOAD SWAP1 PUSH2 0x100 EXP SWAP1 DIV PUSH1 0xFF AND SWAP1 POP SWAP2 SWAP1 POP JUMP JUMPDEST PUSH1 0x3 SLOAD DUP2 JUMP JUMPDEST PUSH1 0x60 PUSH1 0x4 DUP1 SLOAD DUP1 PUSH1 0x20 MUL PUSH1 0x20 ADD PUSH1 0x40 MLOAD SWAP1 DUP2 ADD PUSH1 0x40 MSTORE DUP1 SWAP3 SWAP2 SWAP1 DUP2 DUP2 MSTORE PUSH1 0x20 ADD PUSH0 SWAP1 JUMPDEST DUP3 DUP3 LT ISZERO PUSH2 0x474 JUMPI DUP4 DUP3 SWAP1 PUSH0 MSTORE PUSH1 0x20 PUSH0 KECCAK256 SWAP1 PUSH1 0x2 MUL ADD PUSH1 0x40 MLOAD DUP1 PUSH1 0x40 ADD PUSH1 0x40 MSTORE SWAP1 DUP2 PUSH0 DUP3 ADD DUP1 SLOAD PUSH2 0x3DB SWAP1 PUSH2 0x11F1 JUMP JUMPDEST DUP1 PUSH1 0x1F ADD PUSH1 0x20 DUP1 SWAP2 DIV MUL PUSH1 0x20 ADD PUSH1 0x40 MLOAD SWAP1 DUP2 ADD PUSH1 0x40 MSTORE DUP1 SWAP3 SWAP2 SWAP1 DUP2 DUP2 MSTORE PUSH1 0x20 ADD DUP3 DUP1 SLOAD PUSH2 0x407 SWAP1 PUSH2 0x11F1 JUMP JUMPDEST DUP1 ISZERO PUSH2 0x452 JUMPI DUP1 PUSH1 0x1F LT PUSH2 0x429 JUMPI PUSH2 0x100 DUP1 DUP4 SLOAD DIV MUL DUP4 MSTORE SWAP2 PUSH1 0x20 ADD SWAP2 PUSH2 0x452 JUMP JUMPDEST DUP3 ADD SWAP2 SWAP1 PUSH0 MSTORE PUSH1 0x20 PUSH0 KECCAK256 SWAP1 JUMPDEST DUP2 SLOAD DUP2 MSTORE SWAP1 PUSH1 0x1 ADD SWAP1 PUSH1 0x20 ADD DUP1 DUP4 GT PUSH2 0x435 JUMPI DUP3 SWAP1 SUB PUSH1 0x1F AND DUP3 ADD SWAP2 JUMPDEST POP POP POP POP POP DUP2 MSTORE PUSH1 0x20 ADD PUSH1 0x1 DUP3 ADD SLOAD DUP2 MSTORE POP POP DUP2 MSTORE PUSH1 0x20 ADD SWAP1 PUSH1 0x1 ADD SWAP1 PUSH2 0x3AB JUMP JUMPDEST POP POP POP POP SWAP1 POP SWAP1 JUMP JUMPDEST PUSH2 0x485 PUSH2 0x958 JUMP JUMPDEST ISZERO PUSH2 0x4C5 JUMPI PUSH1 0x40 MLOAD PUSH32 0x8C379A000000000000000000000000000000000000000000000000000000000 DUP2 MSTORE PUSH1 0x4 ADD PUSH2 0x4BC SWAP1 PUSH2 0x126B JUMP JUMPDEST PUSH1 0x40 MLOAD DUP1 SWAP2 SUB SWAP1 REVERT JUMPDEST PUSH0 PUSH1 0x5 PUSH0 CALLER PUSH20 0xFFFFFFFFFFFFFFFFFFFFFFFFFFFFFFFFFFFFFFFF AND PUSH20 0xFFFFFFFFFFFFFFFFFFFFFFFFFFFFFFFFFFFFFFFF AND DUP2 MSTORE PUSH1 0x20 ADD SWAP1 DUP2 MSTORE PUSH1 0x20 ADD PUSH0 KECCAK256 SWAP1 POP DUP1 PUSH0 ADD PUSH1 0x1 SWAP1 SLOAD SWAP1 PUSH2 0x100 EXP SWAP1 DIV PUSH1 0xFF AND ISZERO PUSH2 0x556 JUMPI PUSH1 0x40 MLOAD PUSH32 0x8C379A000000000000000000000000000000000000000000000000000000000 DUP2 MSTORE PUSH1 0x4 ADD PUSH2 0x54D SWAP1 PUSH2 0x12D3 JUMP JUMPDEST PUSH1 0x40 MLOAD DUP1 SWAP2 SUB SWAP1 REVERT JUMPDEST CALLER PUSH20 0xFFFFFFFFFFFFFFFFFFFFFFFFFFFFFFFFFFFFFFFF AND DUP3 PUSH20 0xFFFFFFFFFFFFFFFFFFFFFFFFFFFFFFFFFFFFFFFF AND SUB PUSH2 0x5C4 JUMPI PUSH1 0x40 MLOAD PUSH32 0x8C379A000000000000000000000000000000000000000000000000000000000 DUP2 MSTORE PUSH1 0x4 ADD PUSH2 0x5BB SWAP1 PUSH2 0x133B JUMP JUMPDEST PUSH1 0x40 MLOAD DUP1 SWAP2 SUB SWAP1 REVERT JUMPDEST JUMPDEST PUSH0 PUSH20 0xFFFFFFFFFFFFFFFFFFFFFFFFFFFFFFFFFFFFFFFF AND PUSH1 0x5 PUSH0 DUP5 PUSH20 0xFFFFFFFFFFFFFFFFFFFFFFFFFFFFFFFFFFFFFFFF AND PUSH20 0xFFFFFFFFFFFFFFFFFFFFFFFFFFFFFFFFFFFFFFFF AND DUP2 MSTORE PUSH1 0x20 ADD SWAP1 DUP2 MSTORE PUSH1 0x20 ADD PUSH0 KECCAK256 PUSH1 0x2 ADD PUSH0 SWAP1 SLOAD SWAP1 PUSH2 0x100 EXP SWAP1 DIV PUSH20 0xFFFFFFFFFFFFFFFFFFFFFFFFFFFFFFFFFFFFFFFF AND PUSH20 0xFFFFFFFFFFFFFFFFFFFFFFFFFFFFFFFFFFFFFFFF AND EQ PUSH2 0x72C JUMPI PUSH1 0x5 PUSH0 DUP4 PUSH20 0xFFFFFFFFFFFFFFFFFFFFFFFFFFFFFFFFFFFFFFFF AND PUSH20 0xFFFFFFFFFFFFFFFFFFFFFFFFFFFFFFFFFFFFFFFF AND DUP2 MSTORE PUSH1 0x20 ADD SWAP1 DUP2 MSTORE PUSH1 0x20 ADD PUSH0 KECCAK256 PUSH1 0x2 ADD PUSH0 SWAP1 SLOAD SWAP1 PUSH2 0x100 EXP SWAP1 DIV PUSH20 0xFFFFFFFFFFFFFFFFFFFFFFFFFFFFFFFFFFFFFFFF AND SWAP2 POP CALLER PUSH20 0xFFFFFFFFFFFFFFFFFFFFFFFFFFFFFFFFFFFFFFFF AND DUP3 PUSH20 0xFFFFFFFFFFFFFFFFFFFFFFFFFFFFFFFFFFFFFFFF AND SUB PUSH2 0x727 JUMPI PUSH1 0x40 MLOAD PUSH32 0x8C379A000000000000000000000000000000000000000000000000000000000 DUP2 MSTORE PUSH1 0x4 ADD PUSH2 0x71E SWAP1 PUSH2 0x13A3 JUMP JUMPDEST PUSH1 0x40 MLOAD DUP1 SWAP2 SUB SWAP1 REVERT JUMPDEST PUSH2 0x5C5 JUMP JUMPDEST PUSH1 0x1 DUP2 PUSH0 ADD PUSH1 0x1 PUSH2 0x100 EXP DUP2 SLOAD DUP2 PUSH1 0xFF MUL NOT AND SWAP1 DUP4 ISZERO ISZERO MUL OR SWAP1 SSTORE POP DUP2 DUP2 PUSH1 0x2 ADD PUSH0 PUSH2 0x100 EXP DUP2 SLOAD DUP2 PUSH20 0xFFFFFFFFFFFFFFFFFFFFFFFFFFFFFFFFFFFFFFFF MUL NOT AND SWAP1 DUP4 PUSH20 0xFFFFFFFFFFFFFFFFFFFFFFFFFFFFFFFFFFFFFFFF AND MUL OR SWAP1 SSTORE POP PUSH0 PUSH1 0x5 PUSH0 DUP5 PUSH20 0xFFFFFFFFFFFFFFFFFFFFFFFFFFFFFFFFFFFFFFFF AND PUSH20 0xFFFFFFFFFFFFFFFFFFFFFFFFFFFFFFFFFFFFFFFF AND DUP2 MSTORE PUSH1 0x20 ADD SWAP1 DUP2 MSTORE PUSH1 0x20 ADD PUSH0 KECCAK256 SWAP1 POP DUP1 PUSH0 ADD PUSH1 0x1 SWAP1 SLOAD SWAP1 PUSH2 0x100 EXP SWAP1 DIV PUSH1 0xFF AND ISZERO PUSH2 0x841 JUMPI PUSH1 0x1 DUP3 PUSH1 0x1 ADD SLOAD PUSH2 0x7F1 SWAP2 SWAP1 PUSH2 0x13EE JUMP JUMPDEST PUSH1 0x4 DUP3 PUSH0 ADD PUSH1 0x2 SWAP1 SLOAD SWAP1 PUSH2 0x100 EXP SWAP1 DIV PUSH1 0xFF AND PUSH1 0xFF AND DUP2 SLOAD DUP2 LT PUSH2 0x818 JUMPI PUSH2 0x817 PUSH2 0x1421 JUMP JUMPDEST JUMPDEST SWAP1 PUSH0 MSTORE PUSH1 0x20 PUSH0 KECCAK256 SWAP1 PUSH1 0x2 MUL ADD PUSH1 0x1 ADD PUSH0 DUP3 DUP3 SLOAD PUSH2 0x835 SWAP2 SWAP1 PUSH2 0x13EE JUMP JUMPDEST SWAP3 POP POP DUP2 SWAP1 SSTORE POP PUSH2 0x86C JUMP JUMPDEST PUSH1 0x1 DUP3 PUSH1 0x1 ADD SLOAD PUSH2 0x852 SWAP2 SWAP1 PUSH2 0x13EE JUMP JUMPDEST DUP2 PUSH1 0x1 ADD PUSH0 DUP3 DUP3 SLOAD PUSH2 0x864 SWAP2 SWAP1 PUSH2 0x13EE JUMP JUMPDEST SWAP3 POP POP DUP2 SWAP1 SSTORE POP JUMPDEST DUP3 PUSH20 0xFFFFFFFFFFFFFFFFFFFFFFFFFFFFFFFFFFFFFFFF AND CALLER PUSH20 0xFFFFFFFFFFFFFFFFFFFFFFFFFFFFFFFFFFFFFFFF AND TIMESTAMP PUSH32 0x1938DA684279C3A3E042AE0800798E60F7262803CB9BAAB844BA3FA25AD1A682 PUSH1 0x40 MLOAD PUSH1 0x40 MLOAD DUP1 SWAP2 SUB SWAP1 LOG4 POP POP POP JUMP JUMPDEST PUSH1 0x2 DUP1 SLOAD PUSH2 0x8D9 SWAP1 PUSH2 0x11F1 JUMP JUMPDEST DUP1 PUSH1 0x1F ADD PUSH1 0x20 DUP1 SWAP2 DIV MUL PUSH1 0x20 ADD PUSH1 0x40 MLOAD SWAP1 DUP2 ADD PUSH1 0x40 MSTORE DUP1 SWAP3 SWAP2 SWAP1 DUP2 DUP2 MSTORE PUSH1 0x20 ADD DUP3 DUP1 SLOAD PUSH2 0x905 SWAP1 PUSH2 0x11F1 JUMP JUMPDEST DUP1 ISZERO PUSH2 0x950 JUMPI DUP1 PUSH1 0x1F LT PUSH2 0x927 JUMPI PUSH2 0x100 DUP1 DUP4 SLOAD DIV MUL DUP4 MSTORE SWAP2 PUSH1 0x20 ADD SWAP2 PUSH2 0x950 JUMP JUMPDEST DUP3 ADD SWAP2 SWAP1 PUSH0 MSTORE PUSH1 0x20 PUSH0 KECCAK256 SWAP1 JUMPDEST DUP2 SLOAD DUP2 MSTORE SWAP1 PUSH1 0x1 ADD SWAP1 PUSH1 0x20 ADD DUP1 DUP4 GT PUSH2 0x933 JUMPI DUP3 SWAP1 SUB PUSH1 0x1F AND DUP3 ADD SWAP2 JUMPDEST POP POP POP POP POP DUP2 JUMP JUMPDEST PUSH0 PUSH1 0x3 SLOAD TIMESTAMP GT SWAP1 POP SWAP1 JUMP JUMPDEST PUSH1 0x5 PUSH1 0x20 MSTORE DUP1 PUSH0 MSTORE PUSH1 0x40 PUSH0 KECCAK256 PUSH0 SWAP2 POP SWAP1 POP DUP1 PUSH0 ADD PUSH0 SWAP1 SLOAD SWAP1 PUSH2 0x100 EXP SWAP1 DIV PUSH1 0xFF AND SWAP1 DUP1 PUSH0 ADD PUSH1 0x1 SWAP1 SLOAD SWAP1 PUSH2 0x100 EXP SWAP1 DIV PUSH1 0xFF AND SWAP1 DUP1 PUSH0 ADD PUSH1 0x2 SWAP1 SLOAD SWAP1 PUSH2 0x100 EXP SWAP1 DIV PUSH1 0xFF AND SWAP1 DUP1 PUSH1 0x1 ADD SLOAD SWAP1 DUP1 PUSH1 0x2 ADD PUSH0 SWAP1 SLOAD SWAP1 PUSH2 0x100 EXP SWAP1 DIV PUSH20 0xFFFFFFFFFFFFFFFFFFFFFFFFFFFFFFFFFFFFFFFF AND SWAP1 POP DUP6 JUMP JUMPDEST PUSH2 0x9E0 PUSH2 0x958 JUMP JUMPDEST ISZERO PUSH2 0xA20 JUMPI PUSH1 0x40 MLOAD PUSH32 0x8C379A000000000000000000000000000000000000000000000000000000000 DUP2 MSTORE PUSH1 0x4 ADD PUSH2 0xA17 SWAP1 PUSH2 0x126B JUMP JUMPDEST PUSH1 0x40 MLOAD DUP1 SWAP2 SUB SWAP1 REVERT JUMPDEST DUP1 PUSH1 0x4 DUP1 SLOAD SWAP1 POP DUP2 PUSH1 0xFF AND LT PUSH2 0xA6B JUMPI PUSH1 0x40 MLOAD PUSH32 0x8C379A000000000000000000000000000000000000000000000000000000000 DUP2 MSTORE PUSH1 0x4 ADD PUSH2 0xA62 SWAP1 PUSH2 0x1498 JUMP JUMPDEST PUSH1 0x40 MLOAD DUP1 SWAP2 SUB SWAP1 REVERT JUMPDEST PUSH0 PUSH1 0x5 PUSH0 CALLER PUSH20 0xFFFFFFFFFFFFFFFFFFFFFFFFFFFFFFFFFFFFFFFF AND PUSH20 0xFFFFFFFFFFFFFFFFFFFFFFFFFFFFFFFFFFFFFFFF AND DUP2 MSTORE PUSH1 0x20 ADD SWAP1 DUP2 MSTORE PUSH1 0x20 ADD PUSH0 KECCAK256 SWAP1 POP DUP1 PUSH0 ADD PUSH1 0x1 SWAP1 SLOAD SWAP1 PUSH2 0x100 EXP SWAP1 DIV PUSH1 0xFF AND ISZERO PUSH2 0xAFC JUMPI PUSH1 0x40 MLOAD PUSH32 0x8C379A000000000000000000000000000000000000000000000000000000000 DUP2 MSTORE PUSH1 0x4 ADD PUSH2 0xAF3 SWAP1 PUSH2 0x12D3 JUMP JUMPDEST PUSH1 0x40 MLOAD DUP1 SWAP2 SUB SWAP1 REVERT JUMPDEST PUSH1 0x1 DUP2 PUSH0 ADD PUSH1 0x1 PUSH2 0x100 EXP DUP2 SLOAD DUP2 PUSH1 0xFF MUL NOT AND SWAP1 DUP4 ISZERO ISZERO MUL OR SWAP1 SSTORE POP DUP3 DUP2 PUSH0 ADD PUSH1 0x2 PUSH2 0x100 EXP DUP2 SLOAD DUP2 PUSH1 0xFF MUL NOT AND SWAP1 DUP4 PUSH1 0xFF AND MUL OR SWAP1 SSTORE POP PUSH1 0x1 DUP2 PUSH1 0x1 ADD SLOAD PUSH2 0xB45 SWAP2 SWAP1 PUSH2 0x13EE JUMP JUMPDEST PUSH1 0x4 DUP5 PUSH1 0xFF AND DUP2 SLOAD DUP2 LT PUSH2 0xB5C JUMPI PUSH2 0xB5B PUSH2 0x1421 JUMP JUMPDEST JUMPDEST SWAP1 PUSH0 MSTORE PUSH1 0x20 PUSH0 KECCAK256 SWAP1 PUSH1 0x2 MUL ADD PUSH1 0x1 ADD PUSH0 DUP3 DUP3 SLOAD PUSH2 0xB79 SWAP2 SWAP1 PUSH2 0x13EE JUMP JUMPDEST SWAP3 POP POP DUP2 SWAP1 SSTORE POP POP POP POP JUMP JUMPDEST PUSH1 0x1 DUP1 SLOAD PUSH2 0xB92 SWAP1 PUSH2 0x11F1 JUMP JUMPDEST DUP1 PUSH1 0x1F ADD PUSH1 0x20 DUP1 SWAP2 DIV MUL PUSH1 0x20 ADD PUSH1 0x40 MLOAD SWAP1 DUP2 ADD PUSH1 0x40 MSTORE DUP1 SWAP3 SWAP2 SWAP1 DUP2 DUP2 MSTORE PUSH1 0x20 ADD DUP3 DUP1 SLOAD PUSH2 0xBBE SWAP1 PUSH2 0x11F1 JUMP JUMPDEST DUP1 ISZERO PUSH2 0xC09 JUMPI DUP1 PUSH1 0x1F LT PUSH2 0xBE0 JUMPI PUSH2 0x100 DUP1 DUP4 SLOAD DIV MUL DUP4 MSTORE SWAP2 PUSH1 0x20 ADD SWAP2 PUSH2 0xC09 JUMP JUMPDEST DUP3 ADD SWAP2 SWAP1 PUSH0 MSTORE PUSH1 0x20 PUSH0 KECCAK256 SWAP1 JUMPDEST DUP2 SLOAD DUP2 MSTORE SWAP1 PUSH1 0x1 ADD SWAP1 PUSH1 0x20 ADD DUP1 DUP4 GT PUSH2 0xBEC JUMPI DUP3 SWAP1 SUB PUSH1 0x1F AND DUP3 ADD SWAP2 JUMPDEST POP POP POP POP POP DUP2 JUMP JUMPDEST PUSH1 0x60 PUSH1 0x4 PUSH2 0xC1D PUSH2 0xCCB JUMP JUMPDEST PUSH1 0xFF AND DUP2 SLOAD DUP2 LT PUSH2 0xC31 JUMPI PUSH2 0xC30 PUSH2 0x1421 JUMP JUMPDEST JUMPDEST SWAP1 PUSH0 MSTORE PUSH1 0x20 PUSH0 KECCAK256 SWAP1 PUSH1 0x2 MUL ADD PUSH0 ADD DUP1 SLOAD PUSH2 0xC4A SWAP1 PUSH2 0x11F1 JUMP JUMPDEST DUP1 PUSH1 0x1F ADD PUSH1 0x20 DUP1 SWAP2 DIV MUL PUSH1 0x20 ADD PUSH1 0x40 MLOAD SWAP1 DUP2 ADD PUSH1 0x40 MSTORE DUP1 SWAP3 SWAP2 SWAP1 DUP2 DUP2 MSTORE PUSH1 0x20 ADD DUP3 DUP1 SLOAD PUSH2 0xC76 SWAP1 PUSH2 0x11F1 JUMP JUMPDEST DUP1 ISZERO PUSH2 0xCC1 JUMPI DUP1 PUSH1 0x1F LT PUSH2 0xC98 JUMPI PUSH2 0x100 DUP1 DUP4 SLOAD DIV MUL DUP4 MSTORE SWAP2 PUSH1 0x20 ADD SWAP2 PUSH2 0xCC1 JUMP JUMPDEST DUP3 ADD SWAP2 SWAP1 PUSH0 MSTORE PUSH1 0x20 PUSH0 KECCAK256 SWAP1 JUMPDEST DUP2 SLOAD DUP2 MSTORE SWAP1 PUSH1 0x1 ADD SWAP1 PUSH1 0x20 ADD DUP1 DUP4 GT PUSH2 0xCA4 JUMPI DUP3 SWAP1 SUB PUSH1 0x1F AND DUP3 ADD SWAP2 JUMPDEST POP POP POP POP POP SWAP1 POP SWAP1 JUMP JUMPDEST PUSH0 DUP1 PUSH0 SWAP1 POP PUSH0 JUMPDEST PUSH1 0x4 DUP1 SLOAD SWAP1 POP DUP2 PUSH1 0xFF AND LT ISZERO PUSH2 0xD50 JUMPI DUP2 PUSH1 0x4 DUP3 PUSH1 0xFF AND DUP2 SLOAD DUP2 LT PUSH2 0xCFA JUMPI PUSH2 0xCF9 PUSH2 0x1421 JUMP JUMPDEST JUMPDEST SWAP1 PUSH0 MSTORE PUSH1 0x20 PUSH0 KECCAK256 SWAP1 PUSH1 0x2 MUL ADD PUSH1 0x1 ADD SLOAD GT ISZERO PUSH2 0xD3D JUMPI PUSH1 0x4 DUP2 PUSH1 0xFF AND DUP2 SLOAD DUP2 LT PUSH2 0xD27 JUMPI PUSH2 0xD26 PUSH2 0x1421 JUMP JUMPDEST JUMPDEST SWAP1 PUSH0 MSTORE PUSH1 0x20 PUSH0 KECCAK256 SWAP1 PUSH1 0x2 MUL ADD PUSH1 0x1 ADD SLOAD SWAP2 POP DUP1 SWAP3 POP JUMPDEST DUP1 DUP1 PUSH2 0xD48 SWAP1 PUSH2 0x14B6 JUMP JUMPDEST SWAP2 POP POP PUSH2 0xCD2 JUMP JUMPDEST POP POP SWAP1 JUMP JUMPDEST PUSH0 DUP1 REVERT JUMPDEST PUSH0 DUP2 SWAP1 POP SWAP2 SWAP1 POP JUMP JUMPDEST PUSH2 0xD6B DUP2 PUSH2 0xD59 JUMP JUMPDEST DUP2 EQ PUSH2 0xD75 JUMPI PUSH0 DUP1 REVERT JUMPDEST POP JUMP JUMPDEST PUSH0 DUP2 CALLDATALOAD SWAP1 POP PUSH2 0xD86 DUP2 PUSH2 0xD62 JUMP JUMPDEST SWAP3 SWAP2 POP POP JUMP JUMPDEST PUSH0 PUSH1 0x20 DUP3 DUP5 SUB SLT ISZERO PUSH2 0xDA1 JUMPI PUSH2 0xDA0 PUSH2 0xD55 JUMP JUMPDEST JUMPDEST PUSH0 PUSH2 0xDAE DUP5 DUP3 DUP6 ADD PUSH2 0xD78 JUMP JUMPDEST SWAP2 POP POP SWAP3 SWAP2 POP POP JUMP JUMPDEST PUSH0 DUP2 MLOAD SWAP1 POP SWAP2 SWAP1 POP JUMP JUMPDEST PUSH0 DUP3 DUP3 MSTORE PUSH1 0x20 DUP3 ADD SWAP1 POP SWAP3 SWAP2 POP POP JUMP JUMPDEST PUSH0 JUMPDEST DUP4 DUP2 LT ISZERO PUSH2 0xDEE JUMPI DUP1 DUP3 ADD MLOAD DUP2 DUP5 ADD MSTORE PUSH1 0x20 DUP2 ADD SWAP1 POP PUSH2 0xDD3 JUMP JUMPDEST PUSH0 DUP5 DUP5 ADD MSTORE POP POP POP POP JUMP JUMPDEST PUSH0 PUSH1 0x1F NOT PUSH1 0x1F DUP4 ADD AND SWAP1 POP SWAP2 SWAP1 POP JUMP JUMPDEST PUSH0 PUSH2 0xE13 DUP3 PUSH2 0xDB7 JUMP JUMPDEST PUSH2 0xE1D DUP2 DUP6 PUSH2 0xDC1 JUMP JUMPDEST SWAP4 POP PUSH2 0xE2D DUP2 DUP6 PUSH1 0x20 DUP7 ADD PUSH2 0xDD1 JUMP JUMPDEST PUSH2 0xE36 DUP2 PUSH2 0xDF9 JUMP JUMPDEST DUP5 ADD SWAP2 POP POP SWAP3 SWAP2 POP POP JUMP JUMPDEST PUSH2 0xE4A DUP2 PUSH2 0xD59 JUMP JUMPDEST DUP3 MSTORE POP POP JUMP JUMPDEST PUSH0 PUSH1 0x40 DUP3 ADD SWAP1 POP DUP2 DUP2 SUB PUSH0 DUP4 ADD MSTORE PUSH2 0xE68 DUP2 DUP6 PUSH2 0xE09 JUMP JUMPDEST SWAP1 POP PUSH2 0xE77 PUSH1 0x20 DUP4 ADD DUP5 PUSH2 0xE41 JUMP JUMPDEST SWAP4 SWAP3 POP POP POP JUMP JUMPDEST PUSH0 PUSH20 0xFFFFFFFFFFFFFFFFFFFFFFFFFFFFFFFFFFFFFFFF DUP3 AND SWAP1 POP SWAP2 SWAP1 POP JUMP JUMPDEST PUSH0 PUSH2 0xEA7 DUP3 PUSH2 0xE7E JUMP JUMPDEST SWAP1 POP SWAP2 SWAP1 POP JUMP JUMPDEST PUSH2 0xEB7 DUP2 PUSH2 0xE9D JUMP JUMPDEST DUP3 MSTORE POP POP JUMP JUMPDEST PUSH0 PUSH1 0x20 DUP3 ADD SWAP1 POP PUSH2 0xED0 PUSH0 DUP4 ADD DUP5 PUSH2 0xEAE JUMP JUMPDEST SWAP3 SWAP2 POP POP JUMP JUMPDEST PUSH2 0xEDF DUP2 PUSH2 0xE9D JUMP JUMPDEST DUP2 EQ PUSH2 0xEE9 JUMPI PUSH0 DUP1 REVERT JUMPDEST POP JUMP JUMPDEST PUSH0 DUP2 CALLDATALOAD SWAP1 POP PUSH2 0xEFA DUP2 PUSH2 0xED6 JUMP JUMPDEST SWAP3 SWAP2 POP POP JUMP JUMPDEST PUSH0 PUSH1 0x20 DUP3 DUP5 SUB SLT ISZERO PUSH2 0xF15 JUMPI PUSH2 0xF14 PUSH2 0xD55 JUMP JUMPDEST JUMPDEST PUSH0 PUSH2 0xF22 DUP5 DUP3 DUP6 ADD PUSH2 0xEEC JUMP JUMPDEST SWAP2 POP POP SWAP3 SWAP2 POP POP JUMP JUMPDEST PUSH0 DUP2 ISZERO ISZERO SWAP1 POP SWAP2 SWAP1 POP JUMP JUMPDEST PUSH2 0xF3F DUP2 PUSH2 0xF2B JUMP JUMPDEST DUP3 MSTORE POP POP JUMP JUMPDEST PUSH0 PUSH1 0x20 DUP3 ADD SWAP1 POP PUSH2 0xF58 PUSH0 DUP4 ADD DUP5 PUSH2 0xF36 JUMP JUMPDEST SWAP3 SWAP2 POP POP JUMP JUMPDEST PUSH0 PUSH1 0x20 DUP3 ADD SWAP1 POP PUSH2 0xF71 PUSH0 DUP4 ADD DUP5 PUSH2 0xE41 JUMP JUMPDEST SWAP3 SWAP2 POP POP JUMP JUMPDEST PUSH0 DUP2 MLOAD SWAP1 POP SWAP2 SWAP1 POP JUMP JUMPDEST PUSH0 DUP3 DUP3 MSTORE PUSH1 0x20 DUP3 ADD SWAP1 POP SWAP3 SWAP2 POP POP JUMP JUMPDEST PUSH0 DUP2 SWAP1 POP PUSH1 0x20 DUP3 ADD SWAP1 POP SWAP2 SWAP1 POP JUMP JUMPDEST PUSH0 DUP3 DUP3 MSTORE PUSH1 0x20 DUP3 ADD SWAP1 POP SWAP3 SWAP2 POP POP JUMP JUMPDEST PUSH0 PUSH2 0xFBA DUP3 PUSH2 0xDB7 JUMP JUMPDEST PUSH2 0xFC4 DUP2 DUP6 PUSH2 0xFA0 JUMP JUMPDEST SWAP4 POP PUSH2 0xFD4 DUP2 DUP6 PUSH1 0x20 DUP7 ADD PUSH2 0xDD1 JUMP JUMPDEST PUSH2 0xFDD DUP2 PUSH2 0xDF9 JUMP JUMPDEST DUP5 ADD SWAP2 POP POP SWAP3 SWAP2 POP POP JUMP JUMPDEST PUSH2 0xFF1 DUP2 PUSH2 0xD59 JUMP JUMPDEST DUP3 MSTORE POP POP JUMP JUMPDEST PUSH0 PUSH1 0x40 DUP4 ADD PUSH0 DUP4 ADD MLOAD DUP5 DUP3 SUB PUSH0 DUP7 ADD MSTORE PUSH2 0x1011 DUP3 DUP3 PUSH2 0xFB0 JUMP JUMPDEST SWAP2 POP POP PUSH1 0x20 DUP4 ADD MLOAD PUSH2 0x1026 PUSH1 0x20 DUP7 ADD DUP3 PUSH2 0xFE8 JUMP JUMPDEST POP DUP1 SWAP2 POP POP SWAP3 SWAP2 POP POP JUMP JUMPDEST PUSH0 PUSH2 0x103C DUP4 DUP4 PUSH2 0xFF7 JUMP JUMPDEST SWAP1 POP SWAP3 SWAP2 POP POP JUMP JUMPDEST PUSH0 PUSH1 0x20 DUP3 ADD SWAP1 POP SWAP2 SWAP1 POP JUMP JUMPDEST PUSH0 PUSH2 0x105A DUP3 PUSH2 0xF77 JUMP JUMPDEST PUSH2 0x1064 DUP2 DUP6 PUSH2 0xF81 JUMP JUMPDEST SWAP4 POP DUP4 PUSH1 0x20 DUP3 MUL DUP6 ADD PUSH2 0x1076 DUP6 PUSH2 0xF91 JUMP JUMPDEST DUP1 PUSH0 JUMPDEST DUP6 DUP2 LT ISZERO PUSH2 0x10B1 JUMPI DUP5 DUP5 SUB DUP10 MSTORE DUP2 MLOAD PUSH2 0x1092 DUP6 DUP3 PUSH2 0x1031 JUMP JUMPDEST SWAP5 POP PUSH2 0x109D DUP4 PUSH2 0x1044 JUMP JUMPDEST SWAP3 POP PUSH1 0x20 DUP11 ADD SWAP10 POP POP PUSH1 0x1 DUP2 ADD SWAP1 POP PUSH2 0x1079 JUMP JUMPDEST POP DUP3 SWAP8 POP DUP8 SWAP6 POP POP POP POP POP POP SWAP3 SWAP2 POP POP JUMP JUMPDEST PUSH0 PUSH1 0x20 DUP3 ADD SWAP1 POP DUP2 DUP2 SUB PUSH0 DUP4 ADD MSTORE PUSH2 0x10DB DUP2 DUP5 PUSH2 0x1050 JUMP JUMPDEST SWAP1 POP SWAP3 SWAP2 POP POP JUMP JUMPDEST PUSH0 PUSH1 0x20 DUP3 ADD SWAP1 POP DUP2 DUP2 SUB PUSH0 DUP4 ADD MSTORE PUSH2 0x10FB DUP2 DUP5 PUSH2 0xE09 JUMP JUMPDEST SWAP1 POP SWAP3 SWAP2 POP POP JUMP JUMPDEST PUSH0 PUSH1 0xFF DUP3 AND SWAP1 POP SWAP2 SWAP1 POP JUMP JUMPDEST PUSH2 0x1118 DUP2 PUSH2 0x1103 JUMP JUMPDEST DUP3 MSTORE POP POP JUMP JUMPDEST PUSH0 PUSH1 0xA0 DUP3 ADD SWAP1 POP PUSH2 0x1131 PUSH0 DUP4 ADD DUP9 PUSH2 0xF36 JUMP JUMPDEST PUSH2 0x113E PUSH1 0x20 DUP4 ADD DUP8 PUSH2 0xF36 JUMP JUMPDEST PUSH2 0x114B PUSH1 0x40 DUP4 ADD DUP7 PUSH2 0x110F JUMP JUMPDEST PUSH2 0x1158 PUSH1 0x60 DUP4 ADD DUP6 PUSH2 0xE41 JUMP JUMPDEST PUSH2 0x1165 PUSH1 0x80 DUP4 ADD DUP5 PUSH2 0xEAE JUMP JUMPDEST SWAP7 SWAP6 POP POP POP POP POP POP JUMP JUMPDEST PUSH2 0x1178 DUP2 PUSH2 0x1103 JUMP JUMPDEST DUP2 EQ PUSH2 0x1182 JUMPI PUSH0 DUP1 REVERT JUMPDEST POP JUMP JUMPDEST PUSH0 DUP2 CALLDATALOAD SWAP1 POP PUSH2 0x1193 DUP2 PUSH2 0x116F JUMP JUMPDEST SWAP3 SWAP2 POP POP JUMP JUMPDEST PUSH0 PUSH1 0x20 DUP3 DUP5 SUB SLT ISZERO PUSH2 0x11AE JUMPI PUSH2 0x11AD PUSH2 0xD55 JUMP JUMPDEST JUMPDEST PUSH0 PUSH2 0x11BB DUP5 DUP3 DUP6 ADD PUSH2 0x1185 JUMP JUMPDEST SWAP2 POP POP SWAP3 SWAP2 POP POP JUMP JUMPDEST PUSH32 0x4E487B7100000000000000000000000000000000000000000000000000000000 PUSH0 MSTORE PUSH1 0x22 PUSH1 0x4 MSTORE PUSH1 0x24 PUSH0 REVERT JUMPDEST PUSH0 PUSH1 0x2 DUP3 DIV SWAP1 POP PUSH1 0x1 DUP3 AND DUP1 PUSH2 0x1208 JUMPI PUSH1 0x7F DUP3 AND SWAP2 POP JUMPDEST PUSH1 0x20 DUP3 LT DUP2 SUB PUSH2 0x121B JUMPI PUSH2 0x121A PUSH2 0x11C4 JUMP JUMPDEST JUMPDEST POP SWAP2 SWAP1 POP JUMP JUMPDEST PUSH32 0x446561646C696E652068617320657870697265642E0000000000000000000000 PUSH0 DUP3 ADD MSTORE POP JUMP JUMPDEST PUSH0 PUSH2 0x1255 PUSH1 0x15 DUP4 PUSH2 0xDC1 JUMP JUMPDEST SWAP2 POP PUSH2 0x1260 DUP3 PUSH2 0x1221 JUMP JUMPDEST PUSH1 0x20 DUP3 ADD SWAP1 POP SWAP2 SWAP1 POP JUMP JUMPDEST PUSH0 PUSH1 0x20 DUP3 ADD SWAP1 POP DUP2 DUP2 SUB PUSH0 DUP4 ADD MSTORE PUSH2 0x1282 DUP2 PUSH2 0x1249 JUMP JUMPDEST SWAP1 POP SWAP2 SWAP1 POP JUMP JUMPDEST PUSH32 0x416C726561647920766F7465642E000000000000000000000000000000000000 PUSH0 DUP3 ADD MSTORE POP JUMP JUMPDEST PUSH0 PUSH2 0x12BD PUSH1 0xE DUP4 PUSH2 0xDC1 JUMP JUMPDEST SWAP2 POP PUSH2 0x12C8 DUP3 PUSH2 0x1289 JUMP JUMPDEST PUSH1 0x20 DUP3 ADD SWAP1 POP SWAP2 SWAP1 POP JUMP JUMPDEST PUSH0 PUSH1 0x20 DUP3 ADD SWAP1 POP DUP2 DUP2 SUB PUSH0 DUP4 ADD MSTORE PUSH2 0x12EA DUP2 PUSH2 0x12B1 JUMP JUMPDEST SWAP1 POP SWAP2 SWAP1 POP JUMP JUMPDEST PUSH32 0x53656C662D64656C65676174696F6E206973206E6F7420616C6C6F7765642E00 PUSH0 DUP3 ADD MSTORE POP JUMP JUMPDEST PUSH0 PUSH2 0x1325 PUSH1 0x1F DUP4 PUSH2 0xDC1 JUMP JUMPDEST SWAP2 POP PUSH2 0x1330 DUP3 PUSH2 0x12F1 JUMP JUMPDEST PUSH1 0x20 DUP3 ADD SWAP1 POP SWAP2 SWAP1 POP JUMP JUMPDEST PUSH0 PUSH1 0x20 DUP3 ADD SWAP1 POP DUP2 DUP2 SUB PUSH0 DUP4 ADD MSTORE PUSH2 0x1352 DUP2 PUSH2 0x1319 JUMP JUMPDEST SWAP1 POP SWAP2 SWAP1 POP JUMP JUMPDEST PUSH32 0x466F756E64206C6F6F7020696E2064656C65676174696F6E2E00000000000000 PUSH0 DUP3 ADD MSTORE POP JUMP JUMPDEST PUSH0 PUSH2 0x138D PUSH1 0x19 DUP4 PUSH2 0xDC1 JUMP JUMPDEST SWAP2 POP PUSH2 0x1398 DUP3 PUSH2 0x1359 JUMP JUMPDEST PUSH1 0x20 DUP3 ADD SWAP1 POP SWAP2 SWAP1 POP JUMP JUMPDEST PUSH0 PUSH1 0x20 DUP3 ADD SWAP1 POP DUP2 DUP2 SUB PUSH0 DUP4 ADD MSTORE PUSH2 0x13BA DUP2 PUSH2 0x1381 JUMP JUMPDEST SWAP1 POP SWAP2 SWAP1 POP JUMP JUMPDEST PUSH32 0x4E487B7100000000000000000000000000000000000000000000000000000000 PUSH0 MSTORE PUSH1 0x11 PUSH1 0x4 MSTORE PUSH1 0x24 PUSH0 REVERT JUMPDEST PUSH0 PUSH2 0x13F8 DUP3 PUSH2 0xD59 JUMP JUMPDEST SWAP2 POP PUSH2 0x1403 DUP4 PUSH2 0xD59 JUMP JUMPDEST SWAP3 POP DUP3 DUP3 ADD SWAP1 POP DUP1 DUP3 GT ISZERO PUSH2 0x141B JUMPI PUSH2 0x141A PUSH2 0x13C1 JUMP JUMPDEST JUMPDEST SWAP3 SWAP2 POP POP JUMP JUMPDEST PUSH32 0x4E487B7100000000000000000000000000000000000000000000000000000000 PUSH0 MSTORE PUSH1 0x32 PUSH1 0x4 MSTORE PUSH1 0x24 PUSH0 REVERT JUMPDEST PUSH32 0x546869732070726F706F73616C20646F6573206E6F742065786973742E000000 PUSH0 DUP3 ADD MSTORE POP JUMP JUMPDEST PUSH0 PUSH2 0x1482 PUSH1 0x1D DUP4 PUSH2 0xDC1 JUMP JUMPDEST SWAP2 POP PUSH2 0x148D DUP3 PUSH2 0x144E JUMP JUMPDEST PUSH1 0x20 DUP3 ADD SWAP1 POP SWAP2 SWAP1 POP JUMP JUMPDEST PUSH0 PUSH1 0x20 DUP3 ADD SWAP1 POP DUP2 DUP2 SUB PUSH0 DUP4 ADD MSTORE PUSH2 0x14AF DUP2 PUSH2 0x1476 JUMP JUMPDEST SWAP1 POP SWAP2 SWAP1 POP JUMP JUMPDEST PUSH0 PUSH2 0x14C0 DUP3 PUSH2 0x1103 JUMP JUMPDEST SWAP2 POP PUSH1 0xFF DUP3 SUB PUSH2 0x14D3 JUMPI PUSH2 0x14D2 PUSH2 0x13C1 JUMP JUMPDEST JUMPDEST PUSH1 0x1 DUP3 ADD SWAP1 POP SWAP2 SWAP1 POP JUMP INVALID LOG2 PUSH5 0x6970667358 0x22 SLT KECCAK256 DELEGATECALL 0x27 0xEE COINBASE MSIZE PUSH32 0xB3E5B777CFD4073B2136083D303C2DC07EC50A376E8117DA4F5D64736F6C6343 STOP ADDMOD EQ STOP CALLER "},"gasEstimates":{"creation":{"codeDepositCost":"1079200","executionCost":"infinite","totalCost":"infinite"},"external":{"creator()":"2528","deadline()":"2492","delegate(address)":"infinite","description()":"infinite","getResults()":"infinite","hasVoted(address)":"2971","isDeadlineExpired()":"2465","proposals(uint256)":"infinite","topic()":"infinite","vote(uint8)":"infinite","voters(address)":"infinite","winnerName()":"infinite"}},"methodIdentifiers":{"creator()":"02d05d3f","deadline()":"29dcb0cf","delegate(address)":"5c19a95c","description()":"7284e416","getResults()":"4717f97c","hasVoted(address)":"09eef43e","isDeadlineExpired()":"9145a7fc","proposals(uint256)":"013cf08b","topic()":"bf63a577","vote(uint8)":"b3f98adc","voters(address)":"a3ec138d","winnerName()":"e2ba53f0"}},"storageLayout":{"storage":[{"astId":403,"contract":"SimplePoll.sol:PublicPoll","label":"creator","offset":0,"slot":"0","type":"t_address"},{"astId":430,"contract":"SimplePoll.sol:PublicPoll","label":"topic","offset":0,"slot":"1","type":"t_string_storage"},{"astId":432,"contract":"SimplePoll.sol:PublicPoll","label":"description","offset":0,"slot":"2","type":"t_string_storage"},{"astId":434,"contract":"SimplePoll.sol:PublicPoll","label":"deadline","offset":0,"slot":"3","type":"t_uint256"},{"astId":438,"contract":"SimplePoll.sol:PublicPoll","label":"proposals","offset":0,"slot":"4","type":"t_array(t_struct(Proposal)385_storage)dyn_storage"},{"astId":443,"contract":"SimplePoll.sol:PublicPoll","label":"voters","offset":0,"slot":"5","type":"t_mapping(t_address,t_struct(Voter)380_storage)"}],"types":{"t_address":{"encoding":"inplace","label":"address","numberOfBytes":"20"},"t_array(t_struct(Proposal)385_storage)dyn_storage":{"base":"t_struct(Proposal)385_storage","encoding":"dynamic_array","label":"struct SharedStructs.Proposal[]","numberOfBytes":"32"},"t_bool":{"encoding":"inplace","label":"bool","numberOfBytes":"1"},"t_mapping(t_address,t_struct(Voter)380_storage)":{"encoding":"mapping","key":"t_address","label":"mapping(address => struct SharedStructs.Voter)","numberOfBytes":"32","value":"t_struct(Voter)380_storage"},"t_string_storage":{"encoding":"bytes","label":"string","numberOfBytes":"32"},"t_struct(Proposal)385_storage":{"encoding":"inplace","label":"struct SharedStructs.Proposal","members":[{"astId":382,"contract":"SimplePoll.sol:PublicPoll","label":"name","offset":0,"slot":"0","type":"t_string_storage"},{"astId":384,"contract":"SimplePoll.sol:PublicPoll","label":"voteCount","offset":0,"slot":"1","type":"t_uint256"}],"numberOfBytes":"64"},"t_struct(Voter)380_storage":{"encoding":"inplace","label":"struct SharedStructs.Voter","members":[{"astId":371,"contract":"SimplePoll.sol:PublicPoll","label":"canVote","offset":0,"slot":"0","type":"t_bool"},{"astId":373,"contract":"SimplePoll.sol:PublicPoll","label":"voted","offset":1,"slot":"0","type":"t_bool"},{"astId":375,"contract":"SimplePoll.sol:PublicPoll","label":"vote","offset":2,"slot":"0","type":"t_uint8"},{"astId":377,"contract":"SimplePoll.sol:PublicPoll","label":"delegatingVotesNumber","offset":0,"slot":"1","type":"t_uint256"},{"astId":379,"contract":"SimplePoll.sol:PublicPoll","label":"delegate","offset":0,"slot":"2","type":"t_address"}],"numberOfBytes":"96"},"t_uint256":{"encoding":"inplace","label":"uint256","numberOfBytes":"32"},"t_uint8":{"encoding":"inplace","label":"uint8","numberOfBytes":"1"}}},"userdoc":{"kind":"user","methods":{},"version":1}}